S01600004652454552544F535F5348454C4C2E73726563CD
S11300000C9466030C949C030C949C030C949C0326
S11300100C949C030C949C030C949C030C949C03E0
S11300200C949C030C949C030C949C030C949C03D0
S11300300C949C030C949C030C949C030C949C03C0
S11300400C949C030C949C030C949C030C949C03B0
S11300500C949C030C949C030C949C030C949C03A0
S11300600C949C030C947A120C949C030C949C03A3
S11300700C941C120C949C030C949C030C949C03F1
S11300800C949C030C949C030C949C030C949C0370
S11300900C949C030C949C030C949C030C949C0360
S11300A00C949C030C949C030C949C030C949C0350
S11300B00C949C030C949C030C949C030C949C0340
S11300C00C949C030C944F160C949C030C949C036A
S11300D00C949C030C949C030C949C030C949C0320
S11300E00C949C030C949C030C9402110C949C039C
S11300F00C949C030C949C030C949C030C949C0300
S11301000C949C030C949C030C949C030C949C03EF
S11301100C949C030C949C030C949C030C949C03DF
S11301200C949C030C949C030C949C030C949C03CF
S11301300C949C030C949C030C949C030C949C03BF
S11301400C949C030C949C030C949C030C949C03AF
S11301500C949C030C949C030C949C030C949C039F
S11301600C94BE110C949C030C949C030C9460118D
S11301700C949C030C949C030C949C030C949C037F
S11301800C949C030C949C030C949C030C949C036F
S11301900C949C030C949C030C949C030C949C035F
S11301A00C949C030C949C030C949C030C949C034F
S11301B00C949C030C949C030C949C030C949C033F
S11301C00C949C030C949C030C949C030C949C032F
S11301D00C949C030C949C030C949C030C949C031F
S11301E00C949C030C949C030C949C030C949C030F
S11301F00C949C030C949C030C949C0331073407CB
S113020037073A073D074007420753075B0765076F
S11302106307280DA90DA90DA90DA90DA90DA90DF7
S1130220A90DA90DA90DA90DA90DA90DA90DA90D1A
S1130230A90DA90DA90DA90DA90DA90DA90DA90D0A
S1130240A90DA90DA90DA90DA90DA90DA90DA90DFA
S1130250A90DA90DA90DA90DA90DA90DA90DA90DEA
S1130260A90DA90DA90DA90DA90DA90DA90DA90DDA
S1130270A90DA90DA90DA90DA90DA90DA90DA90DCA
S1130280A90DA90DA90DA90DA90DA90DA90DA90DBA
S1130290A90DA90DA90DA90DA90DA90DA90DA90DAA
S11302A03D0DA90D730D280DA90D590D240DA90D92
S11302B0A90DA90DA90DA90DE50BA90DA90DA90D50
S11302C08F0DEA0CA90DA90DF30B0C94C30E0C941D
S11302D0BA0E0C9442070C9437070C943D0D0C9401
S11302E09F030C943A070C94DE030C943D070C9482
S11302F0590D0C94FC0E0C9416040C94A5030C9448
S113030063070C94A2030C9407040C9476050C94D4
S1130310A0030C9431070C94E9030C94300B0C9457
S113032053070C94AA060C94D60E0C94A7030C94B1
S1130330EA0C0C9440070C94A90D0C94C0030C9483
S113034072090C94C1050C94F30B0C948F0D0C944E
S113035034070C94730D0C9465070C9446060C94A6
S1130360E50B0C94200F0C949E030C94240D0C9418
S1130370D3180C945B070C94280D0909002F00492D
S1130380444C45090930092D0900092D2D2D2D0056
S1130390092D2D2D2D2D2D2D2D2D2D002D2D2D2DDA
S11303A009092D2D2D2D092D2D2D2D2D00095275C9
S11303B06E730009467265652F546F74616C004E4C
S11303C0616D6509095072692E0953746174650081
S11303D009537461636B005461736B09092020092C
S11303E020002C20544343304343413D002F002C34
S11303F0204865617020667265653A200054696D15
S1130400653A20004D6172202038203230323500A8
S11304104D45343035206261736520726164696FC3
S11304202070726F6772616D2056302E3420001B6D
S11304305B32326D005461736B3A2049444C450081
S11304401B5B316D00496C6C6567616C2073746172
S113045074652120526573657474696E6720415612
S113046052003A5754463F0052657365742C207409
S1130470727920486F6D696E6720616761696E20CB
S11304806279207072657373696E67202762270032
S1130490454D455247454E43592053544F50004310
S11304A06F6D6D656E63652042616C616E6365009E
S11304B0426567696E20486F6D696E6700457869AB
S11304C07420636F6D6D616E64206D6F646500529E
S11304D06573657474696E67204156520050726585
S11304E07373204374726C2D4120666F7220636FA6
S11304F06D6D616E64206D6F64650020202020683E
S11305003A20202048414C50210020202020723ADB
S1130510202020526573657420746F2049646C65D3
S11305200020202020643A202020456D65726765F4
S11305306E63792053746F700020202020673A2066
S1130540202053746172742042616C616E63652172
S11305500020202020623A202020426567696E2016
S113056043616C6962726174696F6E00202020209F
S1130570653A2020204578697420636F6D6D616E43
S113058064206D6F64650020202020733A202020B1
S1130590537461636B2064756D7020666F72207490
S11305A061736B730020202020763A20202056654A
S11305B07273696F6E20616E642073657475702048
S11305C0696E666F726D6174696F6E002020202001
S11305D06E3A20202053686F772074686520746910
S11305E06D65207269676874206E6F7700202049FA
S11305F06E20636F6D6D616E64206D6F6465206F36
S11306006E6C793A00202043746C2D413A20456E7B
S113061074657220636F6D6D616E64206D6F6465C7
S113062000202043746C2D433A2052657365742076
S113063074686520415652002068656C70004D4511
S1130640343035206261736520726164696F207093
S1130650726F6772616D2056302E3420001B5B333D
S1130660306D001B5B34366D004552524F5220638F
S113067072656174696E67207461736B20002C204D
S1130680737461636B206174203078002063726539
S113069061746564005461736B20001B5B32326DBE
S11306A0005461736B3A20001B5B316D0009000933
S11306B0002F00090009001B5B32326D001B5B3107
S11306C06D001B5B316D00202000200F11241FBE24
S11306D0CFEFCDBFDFE3DEBF00E00CBF18BE19BE15
S11306E01ABE1BBE10E2A0E0B0E2E2E7FFE300E0C6
S11306F00BBF02C007900D92A63CB107D9F71BBEF1
S113070021E3A6ECB0E201C01D92AA37B207E1F7DB
S113071013E0C6E6D3E000E006C021970109802F6C
S1130720FE010E94801FC536D10780E00807A9F7A3
S11307300E94440F0C94B71F0C9400000895089570
S113074080E0089580E090E0089581E008950895A0
S1130750CF93DF93EC010FB6F8940F9280912008A9
S1130760909121088C839D830E94721A68837983F7
S11307708A839B830F900FBECE01DF91CF910895A2
S11307800F93CF93DF931F92CDB7DEB700E02FEF27
S11307903FEFA901BE016F5F7F4FFC01808591850A
S11307A00E940718813019F4898190E002C08FEF0C
S11307B09FEF0F90DF91CF910F910895FC018085F9
S11307C091850E94CB1891E0811101C090E0892F9E
S11307D008950F93CF93DF931F92CDB7DEB769834C
S11307E0FC01228533854485558500E0BE016F5F99
S11307F07F4F808591850E946C1791E0811101C023
S113080090E0892F0F90DF91CF910F910895EC0123
S1130810E881F9810190F081E02D19951A821B82FB
S11308206FEF7FEFCB010E947D1CFACFCF93DF9354
S113083000D01F92CDB7DEB78C010E94721A698373
S11308407A838B839C836894AA24A2F80F2EF3E006
S1130850BF2EF02D0F2EFBEFEF2EFF24FA94F02D78
S11308606894992491F80F2EF5E0CF2ED12CF02D19
S113087088248394D8011C968C91813009F464C037
S113088038F0823009F4A5C0833009F4B9C019C125
S1130890E091D420F091D5200FB6F8940F921082F5
S11308A011820F900FBE0FB6F8940F920F900FBEE7
S11308B0E091D020F091D1208081882309F444C0B4
S11308C0E091CA20F091CB200FB6F8940F921082D9
S11308D00F900FBEE091CC20F091CD200FB6F8948C
S11308E00F9210820F900FBEE091D220F091D3208E
S11308F00FB6F8940F92C082D1820F900FBE0FB63C
S1130900F8940F920F900FBEE091DC20F091DD205F
S113091080818823C9F00FB6F8940F92E091DA2011
S1130920F091DB20808191810F900FBEE091D42063
S1130930F091D5200FB6F8940F92808391830F9095
S11309400FBEF80184868586E091D020F091D120F5
S11309500FB6F8940F9210820F900FBEE091D22040
S1130960F091D3200FB6F8940F92E082F1820F90A9
S11309700FBE0FB6F8940F920F900FBEE091DE20D9
S1130980F091DF2080818823A9F00FB6F8940F92AC
S1130990E091DA20F091DB20808191810F900FBEED
S11309A0D80152968D939C9353971C969C921C97B6
S11309B01D969C920FB6F8940F920F900FBEE09183
S11309C0CA20F091CB208081882319F0F801148685
S11309D0158664EF71E080E090E00E947D1CE09158
S11309E0D220F091D3200FB6F8940F921082118286
S11309F00F900FBED8011C96BC921C971D96BC92FA
S1130A00F8018289938999230CF401969595879529
S1130A10D80154968D939C9355970FB6F8940F92E2
S1130A200F900FBEE091DA20F091DB20208131811C
S1130A30821B930BF801868B978BE091D220F09167
S1130A40D3200FB6F8940F9258964D915C91599714
S1130A50849F9001859F300D949F300D1124332382
S1130A6014F421503F4F832F880F880B30838183E8
S1130A700F900FBEE091CA20F091CB200FB6F894EE
S1130A800F920F900FBE8081882349F00FB6F8941F
S1130A900F9210820F900FBEF801148615860FB6C0
S1130AA0F8940F920F900FBEE091CE20F091CF20DA
S1130AB08081882331F0D8011C96AC921C971D9636
S1130AC0AC92F80186859785A089B1890196A11D0C
S1130AD0B11D86879787A08BB18B41E050E060E021
S1130AE070E0CE0101960E94101CC4CECF93DF9318
S1130AF000D01F92CDB7DEB78C010E94721A6983B1
S1130B007A838B839C83E0E8F6E083E08283808BA6
S1130B10818BE0E8F1E080E7828389E08287E0E48A
S1130B20F8E08AE683838DEC97E086A397A381E0BF
S1130B3080836894EE24E6F8FF24F3F8F70180A19B
S1130B4091A1E091D620F091D7200FB6F8940F929E
S1130B50808391830F900FBEF80186859785A089C5
S1130B60B1890196A11DB11D86879787A08BB18B92
S1130B7041E050E060E070E0CE0101960E94101C5C
S1130B80DDCFCF93DF9300D01F92CDB7DEB77C01CA
S1130B900E94721A69837A838B839C83E0E8F6E06F
S1130BA08CE0828382898360828B83898360838BD8
S1130BB0E0E8F1E082E7808389E08087E0E0F9E023
S1130BC088E683838FEF9FEF86A397A381E08083DA
S1130BD0E091D420F091D5200FB6F8940F921082B2
S1130BE011820F900FBE0F2E812CF9E09F2EF02D55
S1130BF00F2EF4E6AF2EB12CF02DF40100A111A1BB
S1130C000FB6F8940F920F900FBEE091DA20F09196
S1130C10DB200FB6F8940F92C801880F991F800F3C
S1130C20911F880F991FB5010E946C1FA091D420B9
S1130C30B091D5208D919C91681B790B6083718351
S1130C400F900FBEE091D820F091D9200FB6F89400
S1130C500F92C8018C199D09808391830F900FBE58
S1130C60F70186859785A089B1890196A11DB11DDB
S1130C7086879787A08BB18B41E050E060E070E0FD
S1130C80CE0101960E94101C6801B7CFCF93DF9369
S1130C9000D01F92CDB7DEB78C010E94721A69830F
S1130CA07A838B839C83A0E4B6E087E011968C93CF
S1130CB0119784E015968C931597E0E0F8E081E0B5
S1130CC0808383E08183A6A3B7A310A611A612A6EE
S1130CD013A6818180638183F801128A138AE12C2F
S1130CE06894FF24F3F80FB6F8940F92E091D220A1
S1130CF0F091D320808191810F900FBEF801828BF7
S1130D00938B992334F0F70180A791A712A613A619
S1130D100CC0F70110A611A6F80182899389919558
S1130D2081959109F70182A793A7F8018685978594
S1130D30A089B1890196A11DB11D86879787A08BD3
S1130D40B18B41E050E060E070E0CE0101960E947A
S1130D50101CC9CFCF93DF9300D01F92CDB7DEB75D
S1130D608C010E94721A69837A838B839C83E0E6E8
S1130D70F6E09081D80152968C915297892B80830A
S1130D80948152968C915297892B848352968C919C
S1130D90813021F488E18093700605C0843019F411
S1130DA088E1809372060F2EF8E6EF2EF6E0FF2E10
S1130DB0F02DDD24D394F701808180FD0BC0E091F8
S1130DC0DE20F091DF200FB6F8940F92D0820F90BE
S1130DD00FBE0AC0E091DE20F091DF200FB6F89438
S1130DE00F9210820F900FBED7018C9182FD0BC021
S1130DF0E091DC20F091DD200FB6F8940F92D082C0
S1130E000F900FBE0AC0E091DC20F091DD200FB6F8
S1130E10F8940F9210820F900FBEF8018685978583
S1130E20A089B1890196A11DB11D86879787A08BE2
S1130E30B18B41E050E060E070E0CE0101960E9489
S1130E40101CB9CFCF93DF93EC01862F90E08B3049
S1130E509105D8F5FC018827E250FF4F8F4F0C9481
S1130E60801F82E08A8331C088E08A832EC08AE0B2
S1130E708A832BC080E18A8328C081E08B8325C0CC
S1130E801B8223C0E881F9810280F381E02D6DE0AB
S1130E90CE011995E881F9810280F381E02D6AE0A1
S1130EA0CE01199512C0E881F9810284F385E02D01
S1130EB0CE0119950AC0E881F9810084F185E02DFD
S1130EC0CE01199502C081E08C83CE01DF91CF91D0
S1130ED008950F931F93CF93DF93EC018B01E88167
S1130EE0F9810280F381E02D199566E0C8010E9422
S1130EF022078C819D81009719F0B8010E9469072F
S1130F00DF91CF911F910F9108950F931F93CF936A
S1130F10DF938C01FB01DC0114968C91811104C0D8
S1130F206081611117C023C0D80114961C92EB0193
S1130F30219664916623D9F0D801ED91FC91028049
S1130F40F381E02DC8011995FE0164912196611188
S1130F50F3CF0DC0EF012196D801ED91FC910280F1
S1130F60F381E02DC801199569916111F5CFDF91E5
S1130F70CF911F910F910895DF92EF92FF920F93FB
S1130F801F93CF93DF93CDB7DEB7A197CDBFDEBF5D
S1130F908C01D42EE52EF62E972FF80122812031D4
S1130FA021F0283011F0223071F4692FC8010E9419
S1130FB0D8126F2D0E94D8126E2D0E94D8126D2D5A
S1130FC00E94D8120FC030E0AE014F5F5F4F6D2D0D
S1130FD07E2D8F2D0E94FA1EBE016F5F7F4FC801C8
S1130FE00E948507C801A196CDBFDEBFDF91CF91D6
S1130FF01F910F91FF90EF90DF900895FF920F9350
S11310001F93CF93DF93CDB7DEB76197CDBFDEBF1C
S11310108C01F62E972FF8014281403121F048309F
S113102011F0423041F4692FC8010E94D8126F2D8B
S11310300E94D8120DC050E0BE016F5F7F4F8F2D0C
S11310400E94271FBE016F5F7F4FC8010E94850762
S1131050C8016196CDBFDEBFDF91CF911F910F9183
S1131060FF9008955F926F927F928F929F92AF92BA
S1131070BF92CF92DF92EF92FF920F931F93CF9381
S1131080DF935C013B014A01122F502E63E0CA0139
S11310900E942207A614B70408F07CC0650184E10D
S11310A0C80ED11C00E07501B501C4010E94FE0701
S11310B06AE00E94220767EC76E00E94850711230C
S11310C009F46DC0002309F46AC06AE0C4010E94F7
S11310D0220762EC76E00E94850761C0112371F05B
S11310E001110CC08881851549F06AE0C4010E9491
S11310F022076DEB76E00E94850701E06991C40147
S11311000E94D812DC01ED91FC910280F381E02D64
S113111060E21995CC16DD0609F7112389F06AE01F
S1131120C4010E942207EC0167EB76E00E94850768
S1131130E881F9810280F381E02D60E2CE01199506
S1131140F70161917F0180EE860F8F3548F4D40159
S1131150ED91FC910280F381E02DC401199509C041
S1131160D401ED91FC910280F381E02D6EE2C40183
S11311701995CE14DF0421F7B4E1AB0EB11C66E07F
S1131180C4010E942207E4E1CE0ED11CA614B704C8
S113119008F489CF62E0C4010E94220702C0E7017B
S11311A09DCFDF91CF911F910F91FF90EF90DF9032
S11311B0CF90BF90AF909F908F907F906F905F90F3
S11311C008958F929F92AF92BF92EF92FF920F93E6
S11311D01F93CF93DF93CDB7DEB72F97CDBFDEBF7D
S11311E08C017B01DB016D917D918D919C910F2E82
S11311F0F8EE8F2EF3E09F2EA12CB12CF02DA5013B
S113120094010E94B91EBA01A901C8010E94BC0739
S1131210D801ED91FC910280F381E02D6EE2C801CA
S11312201995F7016081718182819381A5019401EF
S11312300E94B91E9B01AC0160E472E48FE090E06F
S11312400E945C1FA50194010E94B91E49015A0124
S1131250F701A481B58120E432E44FE050E00E941C
S1131260891F20E038E448EE51E00E94B91EC50110
S1131270B401620F731F841F951F7E01F7E0EF0E08
S1131280F11C9E012F5F3F4F59012AE030E040E0FE
S113129050E00E949A1EE62F288739874A875B8789
S11312A0688579858A859B8520E32E0FD7012E9347
S11312B07D01AA15BB0549F71F82BE016F5F7F4FF1
S11312C0C8010E948507C8012F96CDBFDEBFDF91FC
S11312D0CF911F910F91FF90EF90BF90AF909F908F
S11312E08F9008958F929F92AF92BF92CF92DF9288
S11312F0EF92FF920F931F93CF93DF93EC018B0137
S11313008A819B810E94801ABC01C8010E948507C2
S1131310D801ED91FC910280F381E02D69E0C801D0
S113132019958A819B810E94801AFC0101900020FA
S1131330E9F73197E81BF90B389748F4D801ED9198
S1131340FC910280F381E02D69E0C8011995CE84F7
S1131350DF84E888F988A884B9848A819B810E9403
S1131360F31D982E8C848A819B810E942B1A682FEE
S1131370C8010E94D8126AE00E942207EC0165EBC2
S113138076E00E948507682DCE010E94D8126AE09B
S11313900E942207EC0163EB76E00E948507692D29
S11313A0CE010E94D8126AE00E942207EC0161EB90
S11313B076E00E948507B501CE010E94FE076AE02F
S11313C00E942207EC016FEA76E00E9485076AE03A
S11313D0CE010E942207EC016DEA76E00E948507A7
S11313E0B701A601CE010E94BC07DF91CF911F91E6
S11313F00F91FF90EF90DF90CF90BF90AF909F90B0
S11314008F900895CF92DF92EF92FF920F931F93E4
S1131410CF93DF93EC017B018A819B810E94801A28
S11314206C016AE0C7010E9422078C0168EA76E039
S11314300E9485076AE0C8010E9422078C0161EAC4
S113144076E00E948507B601C8010E9485076AE01C
S1131450C8010E9422078C016BE976E00E9485078F
S113146066E0C8010E9422078A859B85E885F98584
S113147001E121E0A701BC018E1B9F0B0E943208F1
S11314808C819D81009719F0B7010E94020ADF91B7
S1131490CF911F910F91FF90EF90DF90CF9008951F
S11314A00F931F93CF93DF93EC016AE08E819F81AA
S11314B00E9422078C0163E676E00E9485076AE0B9
S11314C0C8010E9422078C016DE576E00E94850721
S11314D067E0C8010E9422076AE08E819F810E9412
S11314E022078C016EE376E00E9485076AE0C8015A
S11314F00E9422078C0168E376E00E94850766E07B
S1131500C8010E9422076AE08E819F810E942207FF
S11315108C0161E276E00E94850766E0C8010E94C2
S113152022076AE08E819F810E9422078C0165E078
S113153076E00E94850766E0C8010E9422076AE0FF
S11315408E819F810E9422078C016DEE75E00E94BE
S1131550850766E0C8010E9422076AE08E819F81A8
S11315600E9422078C016CEC75E00E94850766E0FE
S1131570C8010E9422076AE08E819F810E9422078F
S11315808C0165EA75E00E94850766E0C8010E9447
S113159022076AE08E819F810E9422078C0167E8FE
S11315A075E00E94850766E0C8010E9422076AE090
S11315B08E819F810E9422078C016CE675E00E9457
S11315C0850766E0C8010E9422076AE08E819F8138
S11315D00E9422078C0161E575E00E94850766E0A0
S11315E0C8010E9422076AE08E819F810E9422071F
S11315F08C0169E375E00E94850766E0C8010E94DA
S113160022076AE08E819F810E9422078C0161E299
S113161075E00E94850766E0C8010E9422076AE01F
S11316208E819F810E9422078C016AE075E00E94EE
S1131630850766E0C8010E9422076AE08E819F81C7
S11316400E942207EC016BEF74E00E94850766E0BC
S1131650CE010E942207DF91CF911F910F9108952F
S1131660CF93DF93CDB7DEB72C97CDBFDEBF7C0120
S113167019821A821B821C821D821E826AE0DC018E
S113168016968D919C9117970E9422076C016DED1F
S113169074E00E94850766E0C6010E94220711E0FB
S11316A0812C6894992493F80F2EF8ECAF2EF0E275
S11316B0BF2EF02DF7018485882321F0813009F4B1
S11316C060C063C286819781DC01ED91FC91048046
S11316D0F581E02D1995882309F437C0F701868137
S11316E09781DC01ED91FC910680F781E02D19953D
S11316F0992781309105F9F0039709F061C26AE0F6
S1131700F701868197810E9422077C016FEC74E0C7
S11317100E94850766E0C7010E94220793E088EDD6
S113172008B618BE84BF909380008091820081FD2A
S1131730FCCF08BEFFCFC7010E94500AD7011C96F8
S11317401C931C971D961C933BC280EE90E20E9452
S1131750DE03882309F434C2D7011696ED91FC9177
S113176017970190F081E02DC280D38080EE90E243
S11317700E94C003682FF70186819781F6011995AD
S11317801FC286819781DC01ED91FC910480F58173
S1131790E02D1995882309F413C2F70186819781F6
S11317A0DC01ED91FC910680F781E02D1995BC01D7
S11317B0FC01FF277B97EC35F10508F0CAC18827A7
S11317C0E75FFE4F8F4F0C94801FCE0101960E945D
S11317D0A803BC01F701868197810E94E10866E0B5
S11317E00E942207EDC11F82188619861A861B865D
S11317F01C860E9425143C01CE0107960E94A80372
S11318002C0166E0D70116968D919C9117970E9442
S113181022076AE00E9422076C0160E174E00E94E2
S113182085076AE0C6010E9422076C0164E074E047
S11318300E94850766E0C6010E9422076AE00E94B2
S113184022076C016DEF73E00E948507B201C601A7
S11318500E94E1086AE00E9422076C016FEE73E0C7
S11318600E948507B301C6010E94FE076AE00E9438
S113187022076C016DEE73E00E9485074FEF5FE075
S113188060E070E0C6010E94BC07F40160A471A48A
S11318906AE0D70116968D919C9117970E942207B2
S11318A06C0162EE73E00E948507B301C6010E94D9
S11318B0FE0766E00E94220766E00E942207F70105
S11318C0C680D7806AE0C6010E9422073C0167ED0A
S11318D073E00E9485076AE0C3010E9422073C016D
S11318E060ED73E00E94850766E0C3010E94220751
S11318F06AE0C6010E9422073C016FEB73E00E947C
S113190085076AE0C3010E9422073C0163EB73E090
S11319100E9485076AE0C3010E9422073C016DEA28
S113192073E00E94850766E0C3010E9422076AE013
S1131930C6010E9422073C016CE973E00E948507FE
S11319406AE0C3010E9422073C0160E973E00E943F
S113195085076AE0C3010E9422073C016AE873E03C
S11319600E94850766E0C3010E942207D5018D917C
S11319709C91009719F0B6010E9469070E94881A89
S11319800E94F31D082F6AE0C6010E9422076C0121
S11319906FE773E00E948507602FC6010E94D8128A
S11319A06AE00E9422076C016DE773E00E948507DC
S11319B064E670E0C6010E94FE076AE00E94220706
S11319C06C016AE773E00E94850766E0C6010E9425
S11319D02207F6C0F701C680D7808091C820909175
S11319E0C920009719F0B6010E94020A6AE0C601F4
S11319F00E9422073C0160E474E00E9485076AE0CB
S1131A00C3010E9422073C0165E374E00E9485073C
S1131A106AE0C3010E9422073C016FE274E00E9465
S1131A20850766E0C3010E94220780917831909176
S1131A307931BC016F5F7F4F01E1212FA6018356ED
S1131A4091090E943208BCC0C7010E94500AB8C064
S1131A506AE0D70116968D919C9117970E942207F0
S1131A606C016DEB74E00E94850766E0C6010E947C
S1131A702207F70114861586A3C0E091D020F091C7
S1131A80D1200FB6F8940F9210830F900FBE6AE026
S1131A90D70116968D919C9117970E9422076C018D
S1131AA060EB74E00E94850766E0C6010E9422078D
S1131AB087C0E091CE20F091CF200FB6F8940F921A
S1131AC010830F900FBE6AE0F701868197810E9410
S1131AD022076C016FE974E00E94850766E0C60185
S1131AE00E9422076DC0E091CC20F091CD200FB66A
S1131AF0F8940F9210830F900FBE6AE0D7011696E8
S1131B008D919C9117970E9422076C0160E974E003
S1131B100E94850766E0C6010E94220751C0E09139
S1131B20CA20F091CB200FB6F8940F9210830F9037
S1131B300FBE6AE0F701868197810E9422076C013B
S1131B4068E674E00E94850766E0C6010E942207E9
S1131B5037C0D70116968D919C911797DC01ED91B2
S1131B60FC910280F381E02D19956AE0F7018681EA
S1131B7097810E9422076C0162E674E00E94850747
S1131B8066E0C6010E9422071BC06AE08681978135
S1131B900E9422077C0165E474E00E94850766E0E8
S1131BA0C7010E94220793E088ED08B618BE84BFDF
S1131BB0909380008091820081FDFCCF08BEFFCF0E
S1131BC0F70186859785A089B1890196A11DB11D6C
S1131BD086879787A08BB18B61E070E080E090E00E
S1131BE00E947D1C67CD4F925F926F927F928F927D
S1131BF09F92AF92BF92CF92DF92EF92FF920F9398
S1131C001F93CF93DF93CDB7DEB72A97CDBFDEBF47
S1131C104C01290138018AE090E2F4018083918328
S1131C20FB018081882369F0DE011196319690E0F2
S1131C3002C0993039F09F5F8D9381918111F9CF62
S1131C4001C090E0E1E0F0E0EC0FFD1FE90FF11DB1
S1131C5010827401F2E0EF0EF11CA12CB12CC12C06
S1131C60D12C042F9401A201BE016F5F7F4F87E046
S1131C7094E00E942919F401668277824086518695
S1131C802091C8203091C920248335838092C820B4
S1131C909092C920148615864090783150907931FD
S1131CA0FFEF4F1A5F0A4092783150927931F40174
S1131CB04286538616861786108A118A6114710427
S1131CC009F444C0813079F56AE0C3010E94220717
S1131CD07C0165E976E00E948507BE016F5F7F4F56
S1131CE0C7010E9485076AE0C7010E9422077C01A0
S1131CF06CE876E00E9485076AE0C7010E9422072B
S1131D007C016EE776E00E94850763E0C7010E94CC
S1131D102207B2010E94FE0762E00E94220766E0E9
S1131D200E94220713C06AE0C3010E9422074C01EB
S1131D3069E676E00E948507BE016F5F7F4FC401AC
S1131D400E94850766E0C4010E9422072A96CDBF3F
S1131D50DEBFDF91CF911F910F91FF90EF90DF9045
S1131D60CF90BF90AF909F908F907F906F905F9037
S1131D704F900895DC01ED91FC910280F381E02DF8
S1131D806CE019950895CF93DF93EC01A98DBA8D7A
S1131D90EB8DFC8D81E04D915C9120813181421766
S1131DA0530709F480E0DF91CF910895CF93DF9337
S1131DB0FC01C18DD28D28813981A38DB48D4D91C3
S1131DC05C9124173507E9F3A789B08D0D90BC9178
S1131DD0A02DA20FB31F8C912F5F3F4F288339830F
S1131DE02436310528F0018CF28DE02D1082118209
S1131DF090E0DF91CF910895DC015096ED91FC9134
S1131E005197808154964C915497842329F009C0AA
S1131E102150310919F412C021E23EE49081942347
S1131E20B9F3908156968C915697892B80831E9690
S1131E30ED91FC911F97608381E0089580E00895FF
S1131E40CF93DF93C0EED0E28AE08A831B8283E0E3
S1131E508D831C821E821F8282E690E2888399838E
S1131E601E861F8640E061E080E20E943E1788875C
S1131E7099878AE090E0A0E0B0E08A879B87AC87EE
S1131E80BD87DF91CF910895AF92BF92DF92EF9219
S1131E90FF920F931F93CF93DF93CDB7DEB76E9767
S1131EA0CDBFDEBFE0E6F6E080E181838583F89470
S1131EB0E0E5F0E0808182608083818181FFFDCF55
S1131EC0809140009FB79E8FF8941BBE887F8160ED
S1131ED020E430E0F90108ED04BF80838E8D8FBFCC
S1131EE0E0E5F0E080818E7F80839DEF88ED08B689
S1131EF018BE84BF9093800008BE81E090E00E94E9
S1131F0058138093DE209093DF2081E090E00E94BC
S1131F1058138093DC209093DD2082E090E00E94AF
S1131F2058138093DA209093DB2082E090E00E94A3
S1131F30581382E090E00E9458138093D820909325
S1131F40D92082E090E00E9458138093D620909389
S1131F50D72082E090E00E9458138093D42090937D
S1131F60D52082E090E00E9458138093D220909371
S1131F70D32081E090E00E9458138093D020909366
S1131F80D12081E090E00E9458138093CE2090935A
S1131F90CF2081E090E00E9458138093CC2090934E
S1131FA0CD2081E090E00E9458138093CA20909342
S1131FB0CB2082E590E289839A838AE08B831C821A
S1131FC043E04E831D821F821886A0E4B6E0AB87EF
S1131FD0BC8786E08D870F2EF7E0DF2EF02DDE869E
S1131FE0E0EBF8E0EF87F88B81EB98E0898B9A8B34
S1131FF084EB98E08B8B9C8B2E8514965C911497C4
S113200081E090E0BC0102C0660F771F2A95E2F7D9
S11320109B01252B14962C932E85AB85BC855C9156
S1132020BC0102C0660F771F2A95E2F79B01252B9E
S11320302C933D85AB85BC852C9102C0880F991FDC
S11320403A95E2F78095909582238C9380E183837F
S1132050458380EF878381E2868388E1848380E8F7
S11320608E8B80E48F8B80E28D8BEF85F889808165
S1132070808182E190E289839A8386E091E2888F6D
S1132080998F84E091E28A8F9B8F82E091E28C8F1A
S11320909D8F84E690E00E945813809306219093CC
S11320A00721EA8DFB8D10821182EC8DFD8D10824B
S11320B0118267E0CE0101960E9422077C016EE640
S11320C070E20E94850766E0C7010E94220766E06D
S11320D00E94220782E190E00E9458137C018E0145
S11320E00F5F1F4F24E031E040E06DE870E20E9492
S11320F0F30D82E290E2F7018083918383E190E023
S11321000E9458137C0124E031E044E065E970E268
S11321100E94F30D0F2EFAE2AF2EF0E2BF2EF02D47
S1132120F701A082B18281E0828B83E190E00E947A
S113213058137C0124E031E044E06CE970E20E9431
S1132140F30DF701A082B18284E0828B82E190E0FA
S11321500E9458137C0124E031E044E064EA70E218
S11321600E94F30D82E390E2F7018083918382E180
S113217090E00E9458137C0124E031E043E06BEAD4
S113218070E20E94F30D8AE390E2F7018083918369
S11321908AE190E00E9458137C0124E031E042E09F
S11321A062EB70E20E94F30D82E490E2F701808317
S11321B0918386E690E0808F918F84E190E00E9485
S11321C058137C0124E031E041E06AEB70E20E94A4
S11321D0F30D8AE490E2F70180839183D092A20008
S11321E078940E94391A80E090E06E96CDBFDEBFED
S11321F0DF91CF911F910F91FF90EF90DF90BF90EF
S1132200AF9008951F920F920FB60F92112408B643
S11322100F9218BE0BB60F921BBE2F933F938F9352
S11322209F93EF93FF932091A00AE091F420F09103
S1132230F5208091F0209091F120E80FF91F208380
S11322408091F0209091F12001968436910560F4FC
S11322508093F0209093F1202091F2203091F3208C
S113226082179307F1F40CC01092F0201092F12021
S11322708091F2209091F3201816190691F40EC063
S113228001968436910528F48093F2209093F320EC
S113229008C01092F2201092F32003C081E090E075
S11322A0F3CFFF91EF919F918F913F912F910F90D9
S11322B00BBE0F9008BE0F900FBE0F901F90189585
S11322C01F920F920FB60F92112408B60F9218BEE8
S11322D00BB60F921BBE2F933F938F939F93EF9355
S11322E0FF932091B009E091FA20F091FB208091B6
S11322F0F6209091F720E80FF91F20838091F620B3
S11323009091F72001968436910560F48093F6202D
S11323109093F7202091F8203091F92082179307A9
S1132320F1F40CC01092F6201092F7208091F8205E
S11323309091F9201816190691F40EC0019684366E
S1132340910528F48093F8209093F92008C0109206
S1132350F8201092F92003C081E090E0F3CFFF91C0
S1132360EF919F918F913F912F910F900BBE0F9002
S113237008BE0F900FBE0F901F9018951F920F92DA
S11323800FB60F92112408B60F9218BE0BB60F9217
S11323901BBE2F933F938F939F93EF93FF932091B3
S11323A0A009E0910021F0910121809108219091F0
S11323B00921E80FF91F20838091FC209091FD20D2
S11323C001968436910560F48093FC209093FD205F
S11323D02091FE203091FF2082179307F1F40CC066
S11323E01092FC201092FD208091FE209091FF20FD
S11323F01816190691F40EC001968436910528F436
S11324008093FE209093FF2008C01092FE2010922B
S1132410FF2003C081E090E0F3CFFF91EF919F9103
S11324208F913F912F910F900BBE0F9008BE0F908C
S11324300FBE0F901F9018951F920F920FB60F9218
S1132440112408B60F9218BE0BB60F921BBE2F9321
S11324503F938F939F93EF93FF932091B008E09164
S11324600621F09107218091022190910321E80F28
S1132470F91F2083809102219091032101968436D3
S1132480910560F48093022190930321209104210B
S11324903091052182179307F1F40CC010920221A8
S11324A01092032180910421909105211816190698
S11324B091F40EC001968436910528F4809304218A
S11324C09093052108C0109204211092052103C0A5
S11324D081E090E0F3CFFF91EF919F918F913F9135
S11324E02F910F900BBE0F9008BE0F900FBE0F9050
S11324F01F9018951F920F920FB60F92112408B6D1
S11325000F9218BE0BB60F921BBE2F933F938F935F
S11325109F93EF93FF932091A008E0910C21F091F9
S11325200D218091082190910921E80FF91F208342
S1132530809108219091092101968436910560F4D7
S1132540809308219093092120910A2130910B2135
S113255082179307F1F40CC01092082110920921FC
S113256080910A2190910B211816190691F40EC03E
S113257001968436910528F480930A2190930B21C7
S113258008C010920A2110920B2103C081E090E050
S1132590F3CFFF91EF919F918F913F912F910F90E6
S11325A00BBE0F9008BE0F900FBE0F901F90189592
S11325B0CF92DF92EF92FF920F931F93CF93DF930B
S11325C0CDB7DEB72997CDBFDEBF8C01E62EDC0187
S11325D013968C911397882341F0ED91FC9102801E
S11325E0F381E02DC801199556C0F80142814230AB
S11325F019F56894CC24C3F8D12C6894FF24F7F817
S11326008E2D8F2151F0D801ED91FC910280F38140
S1132610E02D61E3C801199509C0D801ED91FC9141
S11326200280F381E02D60E3C8011995F694B1E0CE
S1132630CB1AD10829F72FC04031F9F462956F7095
S11326400190F081E02D0280F381E02D6A3010F0DA
S1132650695C01C0605DC80119956E2D6F70D80169
S1132660ED91FC910280F381E02D6A3010F0695CF9
S113267001C0605DC80119950EC050E0BE016F5FD6
S11326807F4F8E2D90E00E94271FBE016F5F7F4F0A
S1132690C8010E948507C8012996CDBFDEBFDF911E
S11326A0CF911F910F91FF90EF90DF90CF900895FD
S11326B00F931F93CF93DF93EC010E946C1A8091C8
S11326C00E2181111DC0A3E1B1E2E7E1F1E2ED9336
S11326D0FC93119712961D921C921397AFE0B1E2EE
S11326E08FEF9FE012968D939C9313971D921C92EB
S11326F0119782839383A083B18381E080930E2119
S1132700209709F45FC09E012B5F3F4F2496CE3F74
S1132710DF4008F05AC0E0911321F0911421A3E1A5
S1132720B1E202C0DF01FC01828193818217930729
S113273020F4808191810097A9F7C1E2EF30FC0772
S113274009F446C0CD91DC9111978E010B5F1F4FA8
S1132750808191818D939C9382819381821B930BC1
S11327608B30910510F1BF01620F731FDB011296CC
S11327708D939C9313972283338312964D915C918E
S1132780139783E191E201C0CD01EC01A881B981E5
S113279012962D913C91139724173507A8F3EB015A
S11327A0A883B983DC016D937C9380910020909180
S11327B0012022813381821B930B8093002090930C
S11327C0012008C000E010E005C000E010E002C0F5
S11327D000E010E00E948E1BC801DF91CF911F9191
S11327E00F9108950F931F93CF93DF93009741F1B7
S11327F0EC018C01055011090E946C1AF801428108
S11328005381A3E1B1E201C0DF01ED91FC91119785
S11328102281338124173507B8F32597E883F98398
S11328200D931C9320910020309101208A819B817B
S1132830820F931F80930020909301200E948E1B8F
S1132840DF91CF911F910F91089580910020909175
S113285001200895FC010396818392834FEF5FEF7B
S1132860BA01438354836583768387839087818702
S1132870928710820895FC01128613860895CF93DF
S1132880DF93FC01DB0121813281E9018C819D818F
S113289014968D939C9315978181928116968D93AE
S11328A09C9317978C819D81EC016E837F83E90152
S11328B06C837D83618372831A96ED93FC931B97DB
S11328C080818F5F8083DF91CF9108950F931F9351
S11328D0CF93DF93EB01088119812A813B810F3F5C
S11328E04FEF14072407340731F4DC011996ED91F6
S11328F0FC911A971FC0FC013396DC0117964D9189
S11329005C911897DA014D915D916D917C9104175A
S113291015072607370770F00480F581E02DA481A0
S1132920B5814D915D916D917C9104171507260732
S1132930370790F7A481B581AC83BD831696CD93F8
S1132940DC931797EE83FF83C483D5838A879B87A1
S1132950FC0120812F5F2083DF91CF911F910F9184
S11329600895FC01A481B5818681978116968D9383
S11329709C931797A681B7818481958114968D9332
S11329809C931597A285B38511968D919C9112976E
S1132990E817F90731F48681978111968D939C93FA
S11329A01297128613868C9181508C93089580938C
S11329B078319093793131E1FC013083319722E20F
S11329C020833197A3E3A083319760833197708389
S11329D03197108231971082319760E86083319784
S11329E010823197108231971082319762E06083B0
S11329F0319763E06083319764E06083319765E0E9
S1132A006083319766E06083319767E06083319734
S1132A1068E06083319769E06083319760E16083A7
S1132A2031973083319732E13083319733E130830A
S1132A30319734E13083319735E13083319736E192
S1132A403083319737E13083319738E130833197E0
S1132A5039E13083319730E23083319731E230838A
S1132A6031972083319723E2208331974083319734
S1132A705083319726E22083319727E220833197D0
S1132A8028E22083319729E22083319720E32083B1
S1132A90319721E32083899708958CE78093290A4D
S1132AA08FEF8093280A81E08093000A91E190934C
S1132AB0010A8093070AA0917631B0917731CD91C4
S1132AC0CDBFDD91DEBFFF91EF91DF91CF91BF913B
S1132AD0AF919F918F917F916F915F914F913F91B2
S1132AE02F911F910F91FF90EF90DF90CF90BF90A7
S1132AF0AF909F908F907F906F905F904F903F909A
S1132B002F901F900F900CBE0F900BBE0F900FBE16
S1132B100F90089508950F920FB6F8940F920BB684
S1132B200F920CB60F921F9211242F923F924F9244
S1132B305F926F927F928F929F92AF92BF92CF9249
S1132B40DF92EF92FF920F931F932F933F934F9334
S1132B505F936F937F938F939F93AF93BF93CF9321
S1132B60DF93EF93FF93A0917631B09177310DB657
S1132B700D920EB60D920E94AB1CA0917631B091CD
S1132B807731CD91CDBFDD91DEBFFF91EF91DF9124
S1132B90CF91BF91AF919F918F917F916F915F91F1
S1132BA04F913F912F911F910F91FF90EF90DF90E4
S1132BB0CF90BF90AF909F908F907F906F905F90D9
S1132BC04F903F902F901F900F900CBE0F900BBE14
S1132BD00F900FBE0F9008950F920FB6F8940F92B6
S1132BE00BB60F920CB60F921F9211242F923F92A4
S1132BF04F925F926F927F928F929F92AF92BF9209
S1132C00CF92DF92EF92FF920F931F932F933F93F4
S1132C104F935F936F937F938F939F93AF93BF93E0
S1132C20CF93DF93EF93FF93A0917631B0917731F7
S1132C300DB60D920EB60D920E948D1A0E94AB1C19
S1132C40A0917631B0917731CD91CDBFDD91DEBFCA
S1132C50FF91EF91DF91CF91BF91AF919F918F91B0
S1132C607F916F915F914F913F912F911F910F91A0
S1132C70FF90EF90DF90CF90BF90AF909F908F9098
S1132C807F906F905F904F903F902F901F900F9088
S1132C900CBE0F900BBE0F900FBE0F9008950E94B4
S1132CA0EC151895CF93DF93EC0188A181110BC02B
S1132CB088819981892BE1F58A819B810E94661E16
S1132CC01A821B8235C0411117C0482F50E08C81F5
S1132CD09D810E94DB1E28A18C819D81820F911D04
S1132CE08C839D832A813B818217930708F1888115
S1132CF099818C839D831CC0482F50E08E819F81D5
S1132D000E94DB1E88A190E09195819591092E8106
S1132D103F81280F391F2E833F834881598124170F
S1132D20350730F42A813B81820F931F8E839F8362
S1132D308E8D8F5F8E8FDF91CF910895FC018081FE
S1132D4091810097A1F040A150E026813781240FA2
S1132D50351F26833783A281B3812A173B0710F0DE
S1132D6086839783CB01668177810E94DB1E089559
S1132D700F931F93CF93DF93EC010FB6F8940F9248
S1132D808AA11816B4F48B89811105C012C08B89ED
S1132D90811104C00EC08E010D5E1F4FC8010E9438
S1132DA0321D81110E94EF1D8AA181508AA3181639
S1132DB074F38FEF8AA30F900FBE0FB6F8940F929F
S1132DC089A11816B4F48885811105C012C08885BC
S1132DD0811104C00EC08E01085F1F4FC8010E94FC
S1132DE0321D81110E94EF1D89A1815089A31816FB
S1132DF074F38FEF89A30F900FBEDF91CF911F91D2
S1132E000F9108951F93CF93DF93613059F0FC0124
S1132E102389308531112CC011E0211110E02111DA
S1132E2028C001C011E0EC014881598128A130E09B
S1132E306F8D629FC001639F900D1124BA01680FCA
S1132E40791F6A837B831E8E4C835D83821B930B65
S1132E50840F951F8E839F838FEF89A38AA3CE014E
S1132E6008960E942A14CE0143960E942A1401C097
S1132E7010E0812FDF91CF911F9108950F931F933D
S1132E80CF93DF93882301F1062F182F83E290E07C
S1132E900E945813EC01892BC9F0109FC001112422
S1132EA001960E94581388839983892B39F01F8FC8
S1132EB008A361E0CE010E94021708C0CE010E945F
S1132EC0F213C0E0D0E002C0C0E0D0E0CE01DF9158
S1132ED0CF911F910F910895AF92BF92CF92DF923D
S1132EE0EF92FF920F931F93CF93DF93CDB7DEB78B
S1132EF02997CDBFDEBF7C015B012E833F834887CA
S1132F00598710E06C0188E0C80ED11C0FB6F89404
S1132F100F92F701968D878D9817A8F4402FB5016D
S1132F20C7010E945216F7018389882341F0C70123
S1132F3043960E94321D813011F40E948B150F902C
S1132F400FBE81E056C08E819F81A885B985892BEB
S1132F508A2B8B2B21F40F900FBE80E04AC01111F5
S1132F6005C0CE0101960E94711D11E00F900FBEA5
S1132F700E946C1A0FB6F8940F92F70181A18F3F4B
S1132F8009F411A2F70182A18F3F09F412A20F9054
S1132F900FBEBE016A5F7F4FCE0101960E94821D63
S1132FA0811121C00FB6F8940F92F701968D0F90FE
S1132FB00FBE878D981311C04E815F816885798516
S1132FC0C6010E94081DC7010E94B8160E948E1BEC
S1132FD081119CCF0E948B1599CFC7010E94B8160E
S1132FE00E948E1B93CFC7010E94B8160E948E1BAD
S1132FF080E02996CDBFDEBFDF91CF911F910F9165
S1133000FF90EF90DF90CF90BF90AF900895AF9274
S1133010BF92CF92DF92EF92FF920F931F93CF93C1
S1133020DF93CDB7DEB72997CDBFDEBF7C015B014F
S11330302E833F834887598710E06C0183E1C80ED3
S1133040D11C0FB6F8940F92F701868D882399F15D
S1133050C680D780B501C7010E949E1601111AC00F
S1133060F701868D8150868F80819181892B29F487
S11330700E940C1EF70182839383F70180858823C5
S1133080B1F0C70108960E94321D813081F40E947C
S11330908B150DC0F701C682D7828389882339F046
S11330A0C70143960E94321D81110E948B150F9017
S11330B00FBE81E062C08E819F81A885B985892B6E
S11330C08A2B8B2B21F40F900FBE80E056C0111178
S11330D005C0CE0101960E94711D11E00F900FBE34
S11330E00E946C1A0FB6F8940F92F70181A18F3FDA
S11330F009F411A2F70182A18F3F09F412A20F90E3
S11331000FBEBE016A5F7F4FCE0101960E94821DF1
S113311081112DC00FB6F8940F92F701868D0F9090
S11331200FBE81111EC080819181892B49F40FB695
S1133130F8940F92828193810E94111E0F900FBE0A
S11331404E815F8168857985C6010E94081DC7018B
S11331500E94B8160E948E1B811173CF0E948B159A
S113316070CFC7010E94B8160E948E1B6ACFC70198
S11331700E94B8160E948E1B80E02996CDBFDEBF48
S1133180DF91CF911F910F91FF90EF90DF90CF903F
S1133190BF90AF9008950FB6F8940F92FC01868DFE
S11331A00F900FBE0895CAE4D1E388818230E8F31A
S11331B00E948B15FACFCF92DF92EF92FF926B01B0
S11331C07C01E0917631F09177316283738384835B
S11331D0958380911E3190911F31A0912031B0913F
S11331E02131C816D906EA06FB0668F460917631E7
S11331F07091773180913031909131316E5F7F4F92
S11332000E94661421C0609176317091773180916B
S11332103231909133316E5F7F4F0E9466148091FA
S1133220022090910320A0910420B0910520C8169B
S1133230D906EA06FB0640F4C0920220D09203208D
S1133240E0920420F0920520FF90EF90DF90CF9061
S113325008954F925F926F927F928F929F92AF9256
S1133260BF92CF92DF92EF92FF920F931F93CF936F
S1133270DF935C014B013A01290188E290E00E944E
S11332805813EC01892B09F4D4C0C114D10409F0FA
S1133290CCC0C3010E9458138B8F9C8F009721F4DC
S11332A0CE010E94F213C5C0A30161E170E00E9447
S11332B0E41E9301215031098B8D9C8D3C01620EDB
S11332C0731E4AE050E0B401CE014D960E94EB1EFD
S11332D01EA2102F043008F013E01A8F1FA36E01F2
S11332E022E0C20ED11CC6010E943B14CE010E96F0
S11332F00E943B14CA87DB8784E090E0A0E0B0E042
S1133300811B9109A109B1098E879F87A88BB98B6D
S1133310CE8BDF8BA201B501C3010E94D714888331
S11333209983E114F10419F0F701C083D1830FB636
S1133330F8940F92809122318F5F80932231809193
S1133340763190917731892B89F5C0937631D0937A
S11333507731809122318130C1F58AE491E30E9472
S11333602A1485E591E30E942A1480E691E30E94E1
S11333702A148BE691E30E942A148FE391E30E94BE
S11333802A1484E391E30E942A1485E291E30E94C3
S11333902A148FE391E3809332319093333184E3A1
S11333A091E380933031909331310FC080911B3180
S11333B081110BC0E0917631F0917731828D08173D
S11333C020F0C0937631D09377318A8D90911D315E
S11333D0981710F480931D31909116319F5F90934C
S11333E0163190911C31981710F480931C31FBE036
S11333F08F9FC0011124B601865B9E4C0E943F142E
S11334000F900FBE80911B31882359F0E0917631E3
S1133410F0917731828D801730F40E948B1581E012
S113342009C081E007C081E005C0CB8EDC8EC601F7
S11334303BCF8FEFDF91CF911F910F91FF90EF90D2
S1133440DF90CF90BF90AF909F908F907F906F90C0
S11334505F904F9008950FB6F8940F92009721F45F
S113346080917631909177310F900FBEFC01828D5F
S11334700895AF92BF92CF92DF92EF92FF920F9393
S1133480A12CB12CC12CD12C0F2EF3E2EF2EF1E3A1
S1133490FF2EF02D00E020E030E044E650E061EC47
S11334A070E283ED98E10E942919813069F4F8945F
S11334B080931B3110921E3110921F3110922031D3
S11334C0109221310E944D150F91FF90EF90DF90E3
S11334D0CF90BF90AF90089580911A318F5F809301
S11334E01A3108950FB6F8940F9260911E317091BD
S11334F01F3180912031909121310F900FBE08959A
S1133500009721F480917631909177314D9608950A
S113351080912331909124310895FF920F931F934A
S1133520CF93DF9380911A318111EDC080911E31C8
S113353090911F31A0912031B09121310196A11DAC
S1133540B11D80931E3190931F31A0932031B0930D
S1133550213180911E3190911F31A0912031B09181
S11335602131892B8A2B8B2BF1F58091323190916B
S113357033312091303130913131209332313093D5
S113358033318093303190933131809117318F5F93
S113359080931731E0913231F09133318081811180
S11335A00CC08FEF9FEFDC018093022090930320E7
S11335B0A0930420B093052016C0E0913231F0911D
S11335C033310780F085E02D0084F185E02D828180
S11335D09381A481B5818093022090930320A093CA
S11335E00420B093052040911E3150911F31609109
S11335F02031709121318091022090910320A0917B
S11336000420B0910520481759076A077B0708F47E
S11336107FC0E0913231F091333180818823F9F019
S1133620E0913231F09133310780F085E02DC0858F
S1133630D1858A819B81AC81BD8140911E3150919D
S11336401F316091203170912131481759076A0761
S11336507B0758F10F2EFBE0FF2EF02D2FC08FEFCC
S11336609FEFDC018093022090930320A093042019
S1133670B09305204DC0E0913231F0913331078091
S1133680F085E02DC085D1858A819B81AC81BD8187
S113369040911E3150911F31609120317091213140
S11336A0481759076A077B0748F4809302209093D0
S11336B00320A0930420B09305202AC08E010E5F3E
S11336C01F4FC8010E94B114888D998D892B21F058
S11336D0CE010E960E94B1148A8D90911C319817D8
S11336E010F480931C31F89EC0011124B801865B4C
S11336F09E4C0E943F14E0913231F091333180812D
S11337008111B9CFACCF809119318F5F809319317A
S1133710DF91CF911F910F91FF900895CF92DF9287
S1133720EF92FF920F931F93CF93DF930FB6F8940A
S11337300F9280911A31815080931A3180911A31FD
S1133740811160C08091223181112CC05EC0D701EB
S11337501796ED91FC911897C085D185CE010E96F0
S11337600E94B1148E010E5F1F4FC8010E94B11454
S11337708A8D90911C31981710F480931C31D89E37
S1133780C0011124B801865B9E4C0E943F14E09155
S11337907631F09177319A8D828D981770F0CC2420
S11337A0C3940BC0C12C0F2EF5E2EF2EF1E3FF2ED4
S11337B0F02D0F2EFBE0DF2EF02DF701808181111B
S11337C0C6CF80911931882381F0809119318823E3
S11337D099F00E948D1A809119318150809319318A
S11337E0809119318111F5CF07C0F1E0CF1621F096
S11337F080911831813041F4109218310E948B1558
S113380081E003C080E001C080E00F900FBEDF9133
S1133810CF911F910F91FF90EF90DF90CF9008957B
S1133820CF92DF92EF92FF92CF93DF93EC016A0184
S11338307B010E946C1A88819981AA81BB81C80E80
S1133840D91EEA1EFB1E40911E3150911F3160911A
S1133850203170912131481759076A077B07B8F462
S1133860C816D906EA06FB06E0F580911E31909150
S11338701F31A0912031B0912131C882D982EA82CE
S1133880FB828C159D05AE05BF05F8F413C0C81660
S1133890D906EA06FB0600F180911E3190911F3192
S11338A0A0912031B09121318C159D05AE05BF0545
S11338B098F017C0809176319091773102960E94EA
S11338C0B114C701B6010E94DB180E948E1B81113E
S11338D00DC00E948B150AC0C882D982EA82FB827D
S11338E0E9CFC882D982EA82FB82EFCFDF91CF9100
S11338F0FF90EF90DF90CF900895CF92DF92EF92F8
S1133900FF926B017C01672B682B692BE9F00E9405
S11339106C1A80911E3190911F31A0912031B09189
S11339202131C80ED91EEA1EFB1E8091763190917A
S1133930773102960E94B114C701B6010E94DB18C8
S11339400E948E1B811102C00E948B15FF90EF9084
S1133950DF90CF90089580911A3181110CC0E091CD
S11339601C314BE0E49FF0011124E65BFE4C8081A6
S1133970882329F014C081E08093183108959BE0D6
S113398080911C31815080931C31E0911C319E9FA9
S1133990F0011124E65BFE4C8081882389F3809139
S11339A01C31282F30E04BE0849FC0011124DC013E
S11339B0A65BBE4C1196ED91FC9112970480F581A3
S11339C0E02D1196ED93FC931297835B9E4CE817C0
S11339D0F90761F4848195814BE0429FF001439F94
S11339E0F00D1124E65BFE4C818392838BE0829F71
S11339F0F001839FF00D1124E65BFE4C0180F281FF
S1133A00E02D808591858093763190937731089568
S1133A10CF92DF92EF92FF926A017B01609176313F
S1133A2070917731625F7F4F0E9466148091763186
S1133A309091773102960E94B11480911E31909139
S1133A401F31A0912031B0912131BC01CD016C0D09
S1133A507D1D8E1D9F1D0E94DB18FF90EF90DF904F
S1133A60CF9008950F931F93CF93DF93DC011796A4
S1133A70ED91FC911897C085D1858E01025F1F4F8F
S1133A80C8010E94B11480911A31811116C00C50E2
S1133A901109C8010E94B1148A8D90911C319817A4
S1133AA010F480931C31BBE08B9FC0011124B8013A
S1133AB0865B9E4C0E943F1405C0B80185E291E3E9
S1133AC00E943F14E0917631F091773181E02A8DA4
S1133AD0928D291708F480E0DF91CF911F910F9107
S1133AE0089520911731FC01208340911E3150919B
S1133AF01F3160912031709121314183528363835E
S1133B00748308958F929F92AF92BF92CF92DF9267
S1133B10EF92FF920F931F93CF93DF93FC010FB6A5
S1133B20F8940F92809117319081981789F08091C1
S1133B301E3190911F31A0912031B091213101812A
S1133B4012812381348180179107A207B307A8F556
S1133B5080911E3190911F31A0912031B09121317B
S1133B60C180D280E380F480EB01088119812A812D
S1133B703B818C199D09AE09BF0980179107A207E3
S1133B80B307E8F4CF0180901E3190901F31A090CC
S1133B902031B0902131B501A4014C195D096E09A1
S1133BA07F09041B150B260B370B088319832A8303
S1133BB03B830E94711D80E003C081E001C081E06D
S1133BC00F900FBEDF91CF911F910F91FF90EF9057
S1133BD0DF90CF90BF90AF909F908F90089581E039
S1133BE0809318310895009721F480917631909153
S1133BF07731DC015B96ED91FC915C97808181319A
S1133C0041F4319680E090E0019621912131E1F375
S1133C10089580E090E00895809176319091773115
S1133C2008950F931F93CF93DF93FC01228DA091EE
S1133C307631B09177315A968C91281708F041C0AB
S1133C40A0917631B09177315A963C9184E090E01E
S1133C50A0E0B0E0831B9109A109B1098687978789
S1133C60A08BB18B8BE0289F90011124265B3E4CE6
S1133C708485958582179307E9F48F01EF012296D5
S1133C80CE010E94B114E0917631F0917731828DAA
S1133C90F801828F90911C31981710F480931C3195
S1133CA0FBE08F9FC0011124BE01865B9E4C0E94E5
S1133CB03F1407C0A0917631B09177315A968C9118
S1133CC0828FDF91CF911F910F9108950F931F93CE
S1133CD0CF93DF93009749F1FC01328D27A132176E
S1133CE021F1EC018C010E5F1F4FC8010E94B11439
S1133CF08FA18A8F44E050E060E070E0481B5109D6
S1133D00610971094E875F87688B798B90911C31AB
S1133D10981710F480931C31FBE08F9FC00111248D
S1133D20B801865B9E4C0E943F14DF91CF911F9196
S1133D300F910895052E97FB1EF400940E94B11E66
S1133D4057FD07D00E94B91E07FC03D04EF40C9413
S1133D50B11E50954095309521953F4F4F4F5F4F81
S1133D60089590958095709561957F4F8F4F9F4FE3
S1133D700895A1E21A2EAA1BBB1BFD010DC0AA1FA8
S1133D80BB1FEE1FFF1FA217B307E407F50720F0C0
S1133D90A21BB30BE40BF50B661F771F881F991F3B
S1133DA01A9469F760957095809590959B01AC0184
S1133DB0BD01CF010895FB01DC0102C001900D9209
S1133DC041505040D8F70895DC0101C06D93415033
S1133DD05040E0F70895FB01DC014150504048F0A9
S1133DE001900D920020C9F701C01D92415050402E
S1133DF0E0F708952532310520F4223010F00C94B8
S1133E00051FFA011082CA010895BB27FA01A62FE3
S1133E106217710581059105330B30FB66F0AA2703
S1133E20660F771F881F991FAA1FA21710F0A21BE5
S1133E3063953850A9F7A05DAA3308F0A95DA19352
S1133E4036F7B111B1931082CA010C944C1F45325C
S1133E50510520F4423010F00C94321FFB01108203
S1133E60CB010895BB27FB015527AA27880F991F6B
S1133E70AA1FA41710F0A41B83955051B9F7A05D95
S1133E80AA3308F0A95DA193009779F7B111B19312
S1133E901192CB010C944C1FDC01FC01672F719132
S1133EA07723E1F7329704C07C916D93708362911C
S1133EB0AE17BF07C8F30895DB018F939F930E9449
S1133EC0891FBF91AF91A29F800D911DA39F900D5B
S1133ED0B29F900D1124089597FB072E16F40094B9
S1133EE007D077FD09D00E94941F07FC05D03EF44B
S1133EF0909581959F4F0895709561957F4F089592
S1133F00EE0FFF1F881F8BBF0790F691E02D1BBE9D
S1133F1019940E94A81FA59F900DB49F900DA49F73
S1133F20800D911D11240895AA1BBB1B51E107C0EC
S1133F30AA1FBB1FA617B70710F0A61BB70B881F35
S1133F40991F5A95A9F780959095BC01CD010895C4
S1133F50A29FB001B39FC001A39F700D811D1124C6
S1133F60911DB29F700D811D1124911D0895F89427
S1053F70FFCF7D
S1133F72FF0FFFFFFFFF00000000A703720900000C
S1133F820000A503FC0EC30ED60E9F03BA0E00005A
S1133F920000300B720900000000AA06720900003A
S1133FA200007605720900000000C10572090000D4
S1133FB2000016047209000000004606720900009F
S1133FC20000A503A703A003A2039F039E0300000E
S1133FD20000A503E903DE03C0039F039E034672A8
S1133FE2656552544F5320586D656761205465735B
S1133FF274696E672050726F6772616D00557365E4
S113400272496E74004C656674537700526967682E
S113401274537700456E6350656E00456E634D744C
S113402272005379734374726C004D7472436D64FD
S10940320049444C450066
S9030000FC
