:100000000C9466030C949C030C949C030C949C032A
:100010000C949C030C949C030C949C030C949C03E4
:100020000C949C030C949C030C949C030C949C03D4
:100030000C949C030C949C030C949C030C949C03C4
:100040000C949C030C949C030C949C030C949C03B4
:100050000C949C030C949C030C949C030C949C03A4
:100060000C949C030C9472130C949C030C949C03AE
:100070000C9414130C949C030C949C030C949C03FC
:100080000C949C030C949C030C949C030C949C0374
:100090000C949C030C949C030C949C030C949C0364
:1000A0000C949C030C949C030C949C030C949C0354
:1000B0000C949C030C949C030C949C030C949C0344
:1000C0000C949C030C9447170C949C030C949C0375
:1000D0000C949C030C949C030C949C030C949C0324
:1000E0000C949C030C949C030C94FA110C949C03A8
:1000F0000C949C030C949C030C949C030C949C0304
:100100000C949C030C949C030C949C030C949C03F3
:100110000C949C030C949C030C949C030C949C03E3
:100120000C949C030C949C030C949C030C949C03D3
:100130000C949C030C949C030C949C030C949C03C3
:100140000C949C030C949C030C949C030C949C03B3
:100150000C949C030C949C030C949C030C949C03A3
:100160000C94B6120C949C030C949C030C9458129F
:100170000C949C030C949C030C949C030C949C0383
:100180000C949C030C949C030C949C030C949C0373
:100190000C949C030C949C030C949C030C949C0363
:1001A0000C949C030C949C030C949C030C949C0353
:1001B0000C949C030C949C030C949C030C949C0343
:1001C0000C949C030C949C030C949C030C949C0333
:1001D0000C949C030C949C030C949C030C949C0323
:1001E0000C949C030C949C030C949C030C949C0313
:1001F0000C949C030C949C030C949C031006130613
:10020000160619061C061F06210632063A06440683
:100210004206070C880C880C880C880C880C880C0B
:10022000880C880C880C880C880C880C880C880C2E
:10023000880C880C880C880C880C880C880C880C1E
:10024000880C880C880C880C880C880C880C880C0E
:10025000880C880C880C880C880C880C880C880CFE
:10026000880C880C880C880C880C880C880C880CEE
:10027000880C880C880C880C880C880C880C880CDE
:10028000880C880C880C880C880C880C880C880CCE
:10029000880C880C880C880C880C880C880C880CBE
:1002A0001C0C880C520C070C880C380C030C880CA6
:1002B000880C880C880C880CC40A880C880C880C64
:1002C0006E0CC90B880C880CD20A0C9413060C9483
:1002D000D20C0C94D90F0C94970F0C949F030C9490
:1002E00042060C94DE030C94C90B0C9489050C9403
:1002F00016040C94A5030C9428050C941F060C946A
:10030000A2030C941C060C94A00F0C94030C0C94E8
:1003100016060C9407040C9410060C940F0A0C9407
:10032000A0030C9451080C94E9030C94520C0C9407
:10033000B30F0C946E0C0C94A7030C94D20A0C947B
:1003400032060C9419060C94C0030C94880C0C947F
:10035000380C0C9421060C941C0C0C94070C0C9477
:1003600081040C949E030C94C40A0C94FD0F0C940D
:1003700044060C94CB190C943A060909002F004945
:10038000444C45090930092D0900092D2D2D2D005A
:10039000092D2D2D2D2D2D2D2D2D2D002D2D2D2DDE
:1003A00009092D2D2D2D092D2D2D2D2D00095275CD
:1003B0006E730009467265652F546F74616C004E50
:1003C000616D6509095072692E0953746174650085
:1003D00009537461636B005461736B090920200930
:1003E00020002C20544343304343413D002F002C38
:1003F000204865617020667265653A200054696D19
:10040000653A20004170722031332032303235009D
:100410004D45343035206261736520726164696FC7
:100420002070726F6772616D2056302E3420001B71
:100430005B32326D005461736B3A2049444C450085
:100440001B5B316D00496C6C6567616C2073746176
:1004500074652120526573657474696E6720415616
:1004600052003A5754463F0052657365742C20740D
:10047000727920486F6D696E6720616761696E20CF
:100480006279207072657373696E67202762270036
:10049000454D455247454E43592053544F50004314
:1004A0006F6D6D656E63652042616C616E636500A2
:1004B000426567696E20486F6D696E6700457869AF
:1004C0007420636F6D6D616E64206D6F64650052A2
:1004D0006573657474696E67204156520050726589
:1004E0007373204374726C2D4120666F7220636FAA
:1004F0006D6D616E64206D6F646500202020206842
:100500003A20202048414C50210020202020723ADF
:10051000202020526573657420746F2049646C65D7
:100520000020202020643A202020456D65726765F8
:100530006E63792053746F700020202020673A206A
:10054000202053746172742042616C616E63652176
:100550000020202020623A202020426567696E201A
:1005600043616C6962726174696F6E0020202020A3
:10057000653A2020204578697420636F6D6D616E47
:1005800064206D6F64650020202020733A202020B5
:10059000537461636B2064756D7020666F72207494
:1005A00061736B730020202020763A20202056654E
:1005B0007273696F6E20616E64207365747570204C
:1005C000696E666F726D6174696F6E002020202005
:1005D0006E3A20202053686F772074686520746914
:1005E0006D65207269676874206E6F7700202049FE
:1005F0006E20636F6D6D616E64206D6F6465206F3A
:100600006E6C793A00202043746C2D413A20456E7F
:1006100074657220636F6D6D616E64206D6F6465CB
:1006200000202043746C2D433A205265736574207A
:1006300074686520415652002068656C70004D4515
:10064000343035206261736520726164696F207097
:10065000726F6772616D2056302E3420001B5B3341
:10066000306D001B5B34366D004552524F52206393
:1006700072656174696E67207461736B20002C2051
:10068000737461636B20617420307800206372653D
:1006900061746564005461736B20001B5B32326DC2
:1006A000005461736B3A20001B5B316D0009000937
:1006B000002F00090009001B5B32326D001B5B310B
:1006C0006D001B5B316D00202000FD0F11241FBE4B
:1006D000CFEFCDBFDFE3DEBF00E00CBF18BE19BE19
:1006E0001ABE1BBE10E2A0E0B0E2E2E8F5E400E0D2
:1006F0000BBF02C007900D92AE3DB107D9F71BBEEC
:1007000021E3AEEDB0E201C01D92A439B207E1F7DA
:1007100013E0C6E6D3E000E006C021970109802F70
:10072000FE010E948822C536D10780E00807A9F79C
:100730000E9421100C94BF220C940000089508958B
:1007400080E0089580E090E0089581E008950895A4
:10075000CF93DF93EC010FB6F8940F9280912008AD
:10076000909121088C839D830E946A1B6883798302
:100770008A839B830F900FBECE01DF91CF910895A6
:100780000F93CF93DF931F92CDB7DEB700E02FEF2B
:100790003FEFA901BE016F5F7F4FFC01808591850E
:1007A0000E94FF18813019F4898190E002C08FEF18
:1007B0009FEF0F90DF91CF910F910895FC018085FD
:1007C00091850E94C31991E0811101C090E0892FA9
:1007D00008950F93CF93DF931F92CDB7DEB7698350
:1007E000FC01228533854485558500E0BE016F5F9D
:1007F0007F4F808591850E94641891E0811101C02E
:1008000090E0892F0F90DF91CF910F910895EC0127
:10081000E881F9810190F081E02D19951A821B82FF
:100820006FEF7FEFCB010E94751DFACFCF93DF935F
:1008300000D01F92CDB7DEB78C010E946A1B69837E
:100840007A838B839C83E0E8F6E083E08283808B6D
:10085000818BE0E8F1E080E7828389E08287E0E451
:10086000F8E08AE683838DEC97E086A397A381E086
:1008700080836894CC24C6F8DD24D3F8F60160A107
:1008800071A1E091F020F091F1200FB6F8940F9251
:10089000608371830F900FBEE090EE20F090EF2008
:1008A0000FB6F8940F92072E000C880B990B0E943C
:1008B0006B2128E23FE049EC50E40E94F72120E060
:1008C00030EA49EF54E40E94C120F701608371834C
:1008D000828393830F900FBEF80186859785A08948
:1008E000B1890196A11DB11D86879787A08BB18B19
:1008F00041E050E060E070E0CE0101960E94081DEA
:10090000BDCFCF93DF9300D01F92CDB7DEB77C0170
:100910000E946A1B69837A838B839C83E0E8F6E0FC
:100920008CE0828382898360828B83898360838B5E
:10093000E0E8F1E082E7808389E08087E0E0F9E0A9
:1009400088E683838FEF9FEF86A397A381E0808360
:10095000E091EC20F091ED200FB6F8940F92108208
:100960001182128213820F900FBE0F2E812CF9E09C
:100970009F2EF02D0F2EF4E64F2E512C612C712C52
:10098000F02DF40100A111A10FB6F8940F920F9071
:100990000FBEA090F420B090F5200FB6F8940F92FF
:1009A000C801012E000CAA0BBB0BAC01BD01440F0A
:1009B000551F661F771F840F951FA61FB71FBC0109
:1009C000CD01660F771F881F991FA30192010E9416
:1009D000921FCA01B9010E946B21E091EC20F091B5
:1009E000ED2020813181428153810E94542020E0FA
:1009F00030E04AE754E40E94C120F501608371832E
:100A0000828393830F900FBEE091F220F091F32048
:100A10000FB6F8940F92C8018C199D0980839183B9
:100A20000F900FBEF70186859785A089B189019641
:100A3000A11DB11D86879787A08BB18B41E050E047
:100A400060E070E0CE0101960E94081D680199CF18
:100A5000CF93DF9300D01F92CDB7DEB78C010E94F9
:100A60006A1B69837A838B839C83A0E4B6E087E06A
:100A700011968C93119784E015968C931597E0E06E
:100A8000F8E081E0808383E08183A6A3B7A310A66A
:100A900011A612A613A6818180638183E12C68943C
:100AA000FF24F3F80FB6F8940F92E091EA20F0914A
:100AB000EB20808191810F900FBEF801828B938B88
:100AC000992334F0F70180A791A712A613A60CC0B2
:100AD000F70110A611A6F801828993899195819555
:100AE0009109F70182A793A7F80186859785A089C8
:100AF000B1890196A11DB11D86879787A08BB18B07
:100B000041E050E060E070E0CE0101960E94081DD7
:100B1000C9CFCF93DF9300D01F92CDB7DEB78C0142
:100B20000E946A1B69837A838B839C83E0E6F6E0EC
:100B30009081D80152968C915297892B8083948111
:100B400052968C915297892B848352968C91813046
:100B500021F488E18093700605C0843019F488E19F
:100B6000809372060F2EF8E6EF2EF6E0FF2EF02DA2
:100B7000DD24D394F701808180FD0BC0E091F82043
:100B8000F091F9200FB6F8940F92D0820F900FBE1B
:100B90000AC0E091F820F091F9200FB6F8940F9276
:100BA00010820F900FBED7018C9182FD0BC0E09197
:100BB000F620F091F7200FB6F8940F92D0820F90A4
:100BC0000FBE0AC0E091F620F091F7200FB6F8941E
:100BD0000F9210820F900FBEF80186859785A0892D
:100BE000B1890196A11DB11D86879787A08BB18B16
:100BF00041E050E060E070E0CE0101960E94081DE7
:100C0000B9CFCF93DF93EC01862F90E08B30910525
:100C1000D8F5FC018827E250FF4F8F4F0C948822B3
:100C200082E08A8331C088E08A832EC08AE08A838A
:100C30002BC080E18A8328C081E08B8325C01B8282
:100C400023C0E881F9810280F381E02D6DE0CE01BF
:100C50001995E881F9810280F381E02D6AE0CE01E7
:100C6000199512C0E881F9810284F385E02DCE0147
:100C700019950AC0E881F9810084F185E02DCE0143
:100C8000199502C081E08C83CE01DF91CF91089548
:100C90000F931F93CF93DF93EC018B01E881F981D0
:100CA0000280F381E02D199566E0C8010E940106DB
:100CB0008C819D81009719F0B8010E944806DF9150
:100CC000CF911F910F9108950F931F93CF93DF93AF
:100CD0008C01FB01DC0114968C91811104C06081B0
:100CE000611117C023C0D80114961C92EB01219604
:100CF00064916623D9F0D801ED91FC910280F381D3
:100D0000E02DC8011995FE01649121966111F3CF80
:100D10000DC0EF012196D801ED91FC910280F38185
:100D2000E02DC801199569916111F5CFDF91CF913F
:100D30001F910F910895DF92EF92FF920F931F93EF
:100D4000CF93DF93CDB7DEB7A197CDBFDEBF8C01C8
:100D5000D42EE52EF62E972FF8012281203121F096
:100D6000283011F0223071F4692FC8010E94D0138D
:100D70006F2D0E94D0136E2D0E94D0136D2D0E94F6
:100D8000D0130FC030E0AE014F5F5F4F6D2D7E2D51
:100D90008F2D0E94F21FBE016F5F7F4FC8010E941E
:100DA0006406C801A196CDBFDEBFDF91CF911F9130
:100DB0000F91FF90EF90DF900895FF920F931F9394
:100DC000CF93DF93CDB7DEB76197CDBFDEBF8C0188
:100DD000F62E972FF8014281403121F0483011F072
:100DE000423041F4692FC8010E94D0136F2D0E9438
:100DF000D0130DC050E0BE016F5F7F4F8F2D0E945A
:100E00001F20BE016F5F7F4FC8010E946406C801AA
:100E10006196CDBFDEBFDF91CF911F910F91FF9003
:100E200008955F926F927F928F929F92AF92BF923E
:100E3000CF92DF92EF92FF920F931F93CF93DF93A6
:100E40005C013B014A01122F502E63E0CA010E944F
:100E50000106A614B70408F07CC0650184E1C80E41
:100E6000D11C00E07501B501C4010E94DD066AE0F5
:100E70000E94010667EC76E00E946406112309F4E3
:100E80006DC0002309F46AC06AE0C4010E94010633
:100E900062EC76E00E94640661C0112371F00111DA
:100EA0000CC08881851549F06AE0C4010E940106E2
:100EB0006DEB76E00E94640601E06991C4010E9436
:100EC000D013DC01ED91FC910280F381E02D60E212
:100ED0001995CC16DD0609F7112389F06AE0C401E3
:100EE0000E940106EC0167EB76E00E946406E8814F
:100EF000F9810280F381E02D60E2CE011995F701BE
:100F000061917F0180EE860F8F3548F4D401ED9119
:100F1000FC910280F381E02DC401199509C0D40130
:100F2000ED91FC910280F381E02D6EE2C4011995F0
:100F3000CE14DF0421F7B4E1AB0EB11C66E0C401AE
:100F40000E940106E4E1CE0ED11CA614B70408F4F9
:100F500089CF62E0C4010E94010602C0E7019DCF73
:100F6000DF91CF911F910F91FF90EF90DF90CF9085
:100F7000BF90AF909F908F907F906F905F900895FB
:100F80008F929F92AF92BF92EF92FF920F931F9317
:100F9000CF93DF93CDB7DEB72F97CDBFDEBF8C01E8
:100FA0007B01DB016D917D918D919C910F2EF8EE6F
:100FB0008F2EF3E09F2EA12CB12CF02DA5019401D2
:100FC0000E94B11FBA01A901C8010E949B06D80165
:100FD000ED91FC910280F381E02D6EE2C80119953C
:100FE000F7016081718182819381A50194010E9442
:100FF000B11F9B01AC0160E472E48FE090E00E94BD
:101000006422A50194010E94B11F49015A01F70110
:10101000A481B58120E432E44FE050E00E949122A7
:1010200020E038E448EE51E00E94B11FC501B40150
:10103000620F731F841F951F7E01F7E0EF0EF11CF6
:101040009E012F5F3F4F59012AE030E040E050E021
:101050000E94921FE62F288739874A875B87688519
:1010600079858A859B8520E32E0FD7012E937D01FC
:10107000AA15BB0549F71F82BE016F5F7F4FC801EC
:101080000E946406C8012F96CDBFDEBFDF91CF91CD
:101090001F910F91FF90EF90BF90AF909F908F9016
:1010A00008958F929F92AF92BF92CF92DF92EF926C
:1010B000FF920F931F93CF93DF93EC018B018A81F3
:1010C0009B810E94781BBC01C8010E946406D80164
:1010D000ED91FC910280F381E02D69E0C801199542
:1010E0008A819B810E94781BFC0101900020E9F716
:1010F0003197E81BF90B389748F4D801ED91FC9132
:101100000280F381E02D69E0C8011995CE84DF8467
:10111000E888F988A884B9848A819B810E94EB1EA3
:10112000982E8C848A819B810E94231B682FC80182
:101130000E94D0136AE00E940106EC0165EB76E0A4
:101140000E946406682DCE010E94D0136AE00E94BE
:101150000106EC0163EB76E00E946406692DCE0186
:101160000E94D0136AE00E940106EC0161EB76E078
:101170000E946406B501CE010E94DD066AE00E946D
:101180000106EC016FEA76E00E9464066AE0CE0197
:101190000E940106EC016DEA76E00E946406B70148
:1011A000A601CE010E949B06DF91CF911F910F9166
:1011B000FF90EF90DF90CF90BF90AF909F908F9077
:1011C0000895CF92DF92EF92FF920F931F93CF93E8
:1011D000DF93EC017B018A819B810E94781B6C016B
:1011E0006AE0C7010E9401068C0168EA76E00E946D
:1011F00064066AE0C8010E9401068C0161EA76E09B
:101200000E946406B601C8010E9464066AE0C80133
:101210000E9401068C016BE976E00E94640666E09C
:10122000C8010E9401068A859B85E885F98501E150
:1012300021E0A701BC018E1B9F0B0E9411078C812E
:101240009D81009719F0B7010E94E108DF91CF91CD
:101250001F910F91FF90EF90DF90CF9008950F9323
:101260001F93CF93DF93EC016AE08E819F810E94F0
:1012700001068C0163E676E00E9464066AE0C8011C
:101280000E9401068C016DE576E00E94640667E02D
:10129000C8010E9401066AE08E819F810E940106BA
:1012A0008C016EE376E00E9464066AE0C8010E9449
:1012B00001068C0168E376E00E94640666E0C801DE
:1012C0000E9401066AE08E819F810E9401068C01C6
:1012D00061E276E00E94640666E0C8010E940106B1
:1012E0006AE08E819F810E9401068C0165E076E0B4
:1012F0000E94640666E0C8010E9401066AE08E81D1
:101300009F810E9401068C016DEE75E00E946406CB
:1013100066E0C8010E9401066AE08E819F810E94FA
:1013200001068C016CEC75E00E94640666E0C80161
:101330000E9401066AE08E819F810E9401068C0155
:1013400065EA75E00E94640666E0C8010E94010635
:101350006AE08E819F810E9401068C0167E875E03A
:101360000E94640666E0C8010E9401066AE08E8160
:101370009F810E9401068C016CE675E00E94640664
:1013800066E0C8010E9401066AE08E819F810E948A
:1013900001068C0161E575E00E94640666E0C80103
:1013A0000E9401066AE08E819F810E9401068C01E5
:1013B00069E375E00E94640666E0C8010E940106C8
:1013C0006AE08E819F810E9401068C0161E275E0D6
:1013D0000E94640666E0C8010E9401066AE08E81F0
:1013E0009F810E9401068C016AE075E00E946406FC
:1013F00066E0C8010E9401066AE08E819F810E941A
:101400000106EC016BEF74E00E94640666E0CE0119
:101410000E940106DF91CF911F910F910895CF9304
:10142000DF93CDB7DEB72C97CDBFDEBF7C0119822D
:101430001A821B821C821D821E826AE0DC011696C3
:101440008D919C9117970E9401066C016DED74E0DF
:101450000E94640666E0C6010E94010611E0812C2C
:101460006894992493F80F2EF0EEAF2EF0E2BF2E81
:10147000F02DF7018485882321F0813009F460C0C4
:1014800063C286819781DC01ED91FC910480F58136
:10149000E02D1995882309F437C0F70186819781DB
:1014A000DC01ED91FC910680F781E02D19959927DB
:1014B00081309105F9F0039709F061C26AE0F70104
:1014C000868197810E9401067C016FEC74E00E9486
:1014D000640666E0C7010E94010693E088ED08B645
:1014E00018BE84BF909380008091820081FDFCCF64
:1014F00008BEFFCFC7010E942F09D7011C961C937D
:101500001C971D961C933BC28AEF90E20E94DE035B
:10151000882309F434C2D7011696ED91FC911797F0
:101520000190F081E02DC280D3808AEF90E20E948A
:10153000C003682FF70186819781F60119951FC2B4
:1015400086819781DC01ED91FC910480F581E02D8D
:101550001995882309F413C2F70186819781DC016C
:10156000ED91FC910680F781E02D1995BC01FC01FD
:10157000FF277B97EC35F10508F0CAC18827E75FA4
:10158000FE4F8F4F0C948822CE0101960E94A80333
:10159000BC01F701868197810E94C00766E00E9426
:1015A0000106EDC11F82188619861A861B861C86C5
:1015B0000E941D153C01CE0107960E94A8032C0134
:1015C00066E0D70116968D919C9117970E940106AF
:1015D0006AE00E9401066C0160E174E00E9464060A
:1015E0006AE0C6010E9401066C0164E074E00E949A
:1015F000640666E0C6010E9401066AE00E940106D8
:101600006C016DEF73E00E946406B201C6010E9496
:10161000C0076AE00E9401066C016FEE73E00E9451
:101620006406B301C6010E94DD066AE00E9401065D
:101630006C016DEE73E00E9464064FEF5FE060E0C6
:1016400070E0C6010E949B06F40160A471A46AE0E8
:10165000D70116968D919C9117970E9401066C01F7
:1016600062EE73E00E946406B301C6010E94DD06CB
:1016700066E00E94010666E00E940106F701C6804E
:10168000D7806AE0C6010E9401063C0167ED73E065
:101690000E9464066AE0C3010E9401063C0160EDFD
:1016A00073E00E94640666E0C3010E9401066AE0DE
:1016B000C6010E9401063C016FEB73E00E946406C4
:1016C0006AE0C3010E9401063C0163EB73E00E94E3
:1016D00064066AE0C3010E9401063C016DEA73E002
:1016E0000E94640666E0C3010E9401066AE0C6012A
:1016F0000E9401063C016CE973E00E9464066AE006
:10170000C3010E9401063C0160E973E00E94640687
:101710006AE0C3010E9401063C016AE873E00E948E
:10172000640666E0C3010E940106D5018D919C917B
:10173000009719F0B6010E9448060E94801B0E9483
:10174000EB1E082F6AE0C6010E9401066C016FE7DC
:1017500073E00E946406602FC6010E94D0136AE005
:101760000E9401066C016DE773E00E94640664E666
:1017700070E0C6010E94DD066AE00E9401066C016D
:101780006AE773E00E94640666E0C6010E940106F3
:10179000F6C0F701C680D7808091E0209091E120CB
:1017A000009719F0B6010E94E1086AE0C6010E94A4
:1017B00001063C0160E474E00E9464066AE0C30133
:1017C0000E9401063C0165E374E00E9464066AE041
:1017D000C3010E9401063C016FE274E00E946406AE
:1017E00066E0C3010E94010680919231909193318D
:1017F000BC016F5F7F4F01E1212FA6018356910944
:101800000E941107BCC0C7010E942F09B8C06AE03E
:10181000D70116968D919C9117970E9401066C0135
:101820006DEB74E00E94640666E0C6010E9401064A
:10183000F70114861586A3C0E091E820F091E92015
:101840000FB6F8940F9210830F900FBE6AE0D70185
:1018500016968D919C9117970E9401066C0160EB82
:1018600074E00E94640666E0C6010E94010687C01B
:10187000E091E620F091E7200FB6F8940F921083E4
:101880000F900FBE6AE0F701868197810E940106E2
:101890006C016FE974E00E94640666E0C6010E9474
:1018A00001066DC0E091E420F091E5200FB6F894B8
:1018B0000F9210830F900FBE6AE0D70116968D919C
:1018C0009C9117970E9401066C0160E974E00E94E8
:1018D000640666E0C6010E94010651C0E091E22064
:1018E000F091E3200FB6F8940F9210830F900FBE83
:1018F0006AE0F701868197810E9401066C0168E623
:1019000074E00E94640666E0C6010E94010637C0CA
:10191000D70116968D919C911797DC01ED91FC9162
:101920000280F381E02D19956AE0F70186819781A5
:101930000E9401066C0162E674E00E94640666E0A3
:10194000C6010E9401061BC06AE0868197810E9441
:1019500001067C0165E474E00E94640666E0C7014C
:101960000E94010693E088ED08B618BE84BF9093EC
:1019700080008091820081FDFCCF08BEFFCFF7017F
:1019800086859785A089B1890196A11DB11D86879D
:101990009787A08BB18B61E070E080E090E00E94BF
:1019A000751D67CDCF93DF9300D01F92CDB7DEB703
:1019B0008C010E946A1B69837A838B839C830F2E20
:1019C000F3E07F2EF02D0F2EFCEDEF2EF12CF02DFD
:1019D0000F2EF4E62F2E312CF02D6894662462F839
:1019E0000F2EF4E65F2EF02D0F2EF4E2CF2EDD2425
:1019F000DA94F02D6894442441F8D8011C968C9117
:101A0000823009F4BEC030F4882359F0813009F4E3
:101A10006DC0B1C1833009F4E4C0843609F48BC1D0
:101A2000AAC1E091EC20F091ED200FB6F8940F924E
:101A300010821182128213820F900FBE0FB6F8949B
:101A40000F920F900FBEE091E820F091E920808185
:101A5000882309F490C1E091E220F091E3200FB6D1
:101A6000F8940F9210820F900FBEE091E420F09155
:101A7000E5200FB6F8940F9210820F900FBEE09100
:101A8000EA20F091EB200FB6F8940F92E082F182F9
:101A90000F900FBE0FB6F8940F920F900FBEE0910B
:101AA000F620F091F7208081882309F464C10FB6F5
:101AB000F8940F92E091F420F091F52080819181CB
:101AC000A281B3810F900FBEE091EC20F091ED2048
:101AD0000FB6F8940F9280839183A283B3830F9003
:101AE0000FBE81E0F8018487858745C1E091E82039
:101AF000F091E9200FB6F8940F9210820F900FBE6C
:101B0000E091EA20F091EB200FB6F8940F92C0829A
:101B1000D1820F900FBE0FB6F8940F920F900FBEA8
:101B2000E091F820F091F92080818823C9F00FB668
:101B3000F8940F920F900FBEE091F420F091F520F1
:101B400060817181828193810E943321D8015296F4
:101B50006D937C9353971C964C921C971D964C92B8
:101B60000FB6F8940F920F900FBEE091E220F09123
:101B7000E3208081882309F4FEC0F80114861586CD
:101B8000FAC0E091EA20F091EB200FB6F8940F92A2
:101B9000108211820F900FBE68EC70E080E090E040
:101BA0000E94751D0FB6F8940F920F900FBEE09132
:101BB000F820F091F9208081882361F0E091EA20FB
:101BC000F091EB200FB6F8940F92E082F1820F9023
:101BD0000FBED1C0D8011C967C921C971D967C929A
:101BE000CAC0F80162897389772314F46F5F7F4F4D
:101BF00075956795D80154966D937C9355970FB65C
:101C0000F8940F920F900FBE072E000C880B990BC3
:101C10000E946B21E091F420F091F5202081318128
:101C2000428153810E9454200E9433214B015C0168
:101C3000F801668B778B208D318D260F371F208F13
:101C4000318FE091EA20F091EB200FB6F8940F92DB
:101C5000D8015C964D915C915D97249FC001259FB2
:101C6000900D349F900D1124B1010E947422D8016F
:101C70005A962D913C915B97289DC001299D900D0E
:101C8000389D900D1124680F791F608371830F9028
:101C90000FBE0FB6F8940F920F900FBEE091F82090
:101CA000F091F920808181110CC00FB6F8940F9249
:101CB0000F900FBEE091F620F091F72080818823ED
:101CC00091F0F801A680B7806EE670E2C5010E942F
:101CD000640666E0C5010E940106D8011C965C926C
:101CE0001C971D965C92E091E220F091E3200FB6E4
:101CF000F8940F920F900FBE8081882349F00FB6A1
:101D0000F8940F9210820F900FBEF801148615867A
:101D10000FB6F8940F920F900FBEE091E620F0916D
:101D2000E7208081882339F1D8011C966C921C979A
:101D30001D966C9220C0E091EA20F091EB200FB646
:101D4000F8940F92108211820F900FBEE091E22062
:101D5000F091E3200FB6F8940F920F900FBE8081A0
:101D6000882349F00FB6F8940F9210820F900FBE9F
:101D7000F80114861586F80186859785A089B189B2
:101D80000196A11DB11D86879787A08BB18B41E07D
:101D900050E060E070E0CE0101960E94081D2DCE5B
:101DA0004F925F926F927F928F929F92AF92BF926B
:101DB000CF92DF92EF92FF920F931F93CF93DF9317
:101DC000CDB7DEB72A97CDBFDEBF4C012901380160
:101DD0008AE090E2F40180839183FB018081882373
:101DE00069F0DE011196319690E002C0993039F029
:101DF0009F5F8D9381918111F9CF01C090E0E1E067
:101E0000F0E0EC0FFD1FE90FF11D10827401F2E00C
:101E1000EF0EF11CA12CB12CC12CD12C042F94015C
:101E2000A201BE016F5F7F4F87E094E00E94211AFC
:101E3000F40166827782408651862091E0203091BD
:101E4000E120248335838092E0209092E120148663
:101E500015864090923150909331FFEF4F1A5F0AF0
:101E60004092923150929331F40142865386168605
:101E70001786108A118A6114710409F444C08130F4
:101E800079F56AE0C3010E9401067C0165E976E00C
:101E90000E946406BE016F5F7F4FC7010E94640607
:101EA0006AE0C7010E9401067C016CE876E00E94AE
:101EB00064066AE0C7010E9401067C016EE776E0D5
:101EC0000E94640663E0C7010E940106B2010E94FD
:101ED000DD0662E00E94010666E00E94010613C072
:101EE0006AE0C3010E9401064C0169E676E00E94A7
:101EF0006406BE016F5F7F4FC4010E94640666E006
:101F0000C4010E9401062A96CDBFDEBFDF91CF91AA
:101F10001F910F91FF90EF90DF90CF90BF90AF9007
:101F20009F908F907F906F905F904F900895DC010D
:101F3000ED91FC910280F381E02D6CE019950895FC
:101F4000CF93DF93EC01A98DBA8DEB8DFC8D81E0F1
:101F50004D915C91208131814217530709F480E053
:101F6000DF91CF910895CF93DF93FC01C18DD28D86
:101F700028813981A38DB48D4D915C91241735074B
:101F8000E9F3A789B08D0D90BC91A02DA20FB31FCE
:101F90008C912F5F3F4F288339832436310528F0F9
:101FA000018CF28DE02D1082118290E0DF91CF91B3
:101FB0000895DC015096ED91FC91519780815496E3
:101FC0004C915497842329F009C02150310919F408
:101FD00012C021E23EE490819423B9F39081569699
:101FE0008C915697892B80831E96ED91FC911F97BB
:101FF000608381E0089580E00895CF93DF93CAEF76
:10200000D0E28AE08A831B8283E08D831C821E8259
:102010001F8282E690E2888399831E861F8640E0B5
:1020200061E080E20E943618888799878AE090E014
:10203000A0E0B0E08A879B87AC87BD87DF91CF9116
:1020400008958F929F92BF92CF92DF92EF92FF926C
:102050000F931F93CF93DF93CDB7DEB76E97CDBFAE
:10206000DEBFE0E6F6E080E181838583F894E0E579
:10207000F0E0808182608083818181FFFDCF80914B
:1020800040009FB79E8FF8941BBE887F816020E43C
:1020900030E0F90108ED04BF80838E8D8FBFE0E54D
:1020A000F0E080818E7F80839DEF88ED08B618BEBA
:1020B00084BF9093800008BE81E090E00E9450149D
:1020C0008093F8209093F92081E090E00E945014D2
:1020D0008093F6209093F72084E090E00E945014C3
:1020E0008093F4209093F52084E090E00E945014B7
:1020F0008093F4209093F52082E090E00E945014A9
:1021000082E090E00E9450148093F2209093F3209C
:1021100082E090E00E9450148093F0209093F12090
:1021200084E090E00E9450148093EE209093EF2082
:1021300084E090E00E9450148093EC209093ED2076
:1021400082E090E00E9450148093EA209093EB206C
:1021500081E090E00E9450148093E8209093E92061
:1021600081E090E00E9450148093E6209093E72055
:1021700081E090E00E9450148093E4209093E52049
:1021800081E090E00E9450148093E2209093E3203D
:1021900082E590E289839A838AE08B831C8223E024
:1021A0002E831D821F821886A0E4B6E0AB87BC8711
:1021B00086E08D870F2EF7E0BF2EF02DBE86E0EB78
:1021C000F8E0EF87F88B81EB98E0898B9A8B84EBB2
:1021D00098E08B8B9C8B8E8514963C911497EE2403
:1021E000E394F12CA70102C0440F551F8A95E2F732
:1021F000CA01832B14968C938E85AB85BC853C914C
:10220000A70102C0440F551F8A95E2F7CA01832B2C
:102210008C938D85AB85BC853C91A70102C0440F92
:10222000551F8A95E2F7CA018095909583238C9378
:1022300080E18383258380EF878381E2868388E141
:10224000848380E88E8B80E48F8B80E28D8BEF859A
:10225000F8898081808182E190E289839A8380E29B
:1022600091E2888F998F8EE191E28A8F9B8F8CE12A
:1022700091E28C8F9D8F84E690E00E9450148093B1
:10228000202190932121EA8DFB8D10821182EC8D0B
:10229000FD8D1082118267E0CE0101960E94010639
:1022A0006C0165E870E20E94640666E0C6010E9467
:1022B000010666E00E94010682E190E00E9450144F
:1022C0006C018E010F5F1F4F24E031E040E064EAB3
:1022D00070E20E94D00E82E290E2F6018083918348
:1022E00083E190E00E9450146C0124E031E044E06E
:1022F0006CEA70E20E94D00E0F2EFAE28F2EF0E20E
:102300009F2EF02DF6018082918281E0828B83E105
:1023100090E00E9450146C0124E031E044E063EB53
:1023200070E20E94D00EF6018082918284E0828B5E
:1023300082E190E00E9450146C0124E031E044E01E
:102340006BEB70E20E94D00E82E390E2F601808394
:10235000918382E190E00E9450146C0124E031E00E
:1023600043E062EC70E20E94D00E8AE390E2F60154
:10237000808391838EE190E00E9450146C0124E0F0
:1023800031E042E069EC70E20E94D00E82E490E21B
:10239000F6018083918383E090E0828F938FE48EB7
:1023A000F58E84E190E00E9450147C0124E031E03D
:1023B00041E061ED70E20E94D00E8AE490E2F70104
:1023C00080839183128A138AB092A20078940E942B
:1023D000311B80E090E06E96CDBFDEBFDF91CF91E4
:1023E0001F910F91FF90EF90DF90CF90BF909F9043
:1023F0008F9008951F920F920FB60F92112408B676
:102400000F9218BE0BB60F921BBE2F933F938F9364
:102410009F93EF93FF932091A00AE0910E21F091FA
:102420000F2180910A2190910B21E80FF91F208341
:1024300080910A2190910B2101968436910560F4D8
:1024400080930A2190930B2120910C2130910D2132
:1024500082179307F1F40CC010920A2110920B21FD
:1024600080910C2190910D211816190691F40EC03F
:1024700001968436910528F480930C2190930D21C8
:1024800008C010920C2110920D2103C081E090E051
:10249000F3CFFF91EF919F918F913F912F910F90EB
:1024A0000BBE0F9008BE0F900FBE0F901F90189597
:1024B0001F920F920FB60F92112408B60F9218BEFA
:1024C0000BB60F921BBE2F933F938F939F93EF9367
:1024D000FF932091B009E0911421F0911521809192
:1024E000102190911121E80FF91F20838091102174
:1024F0009091112101968436910560F4809310210A
:10250000909311212091122130911321821793076A
:10251000F1F40CC01092102110921121809112211F
:10252000909113211816190691F40EC00196843665
:10253000910528F4809312219093132108C01092E2
:1025400012211092132103C081E090E0F3CFFF919C
:10255000EF919F918F913F912F910F900BBE0F9014
:1025600008BE0F900FBE0F901F9018951F920F92EC
:102570000FB60F92112408B60F9218BE0BB60F9229
:102580001BBE2F933F938F939F93EF93FF932091C5
:10259000A009E0911A21F0911B21809122219091B4
:1025A0002321E80FF91F2083809116219091172194
:1025B00001968436910560F480931621909317213B
:1025C000209118213091192182179307F1F40CC042
:1025D00010921621109217218091182190911921A3
:1025E0001816190691F40EC001968436910528F448
:1025F000809318219093192108C0109218211092ED
:10260000192103C081E090E0F3CFFF91EF919F91FA
:102610008F913F912F910F900BBE0F9008BE0F909E
:102620000FBE0F901F9018951F920F920FB60F922A
:10263000112408B60F9218BE0BB60F921BBE2F9333
:102640003F938F939F93EF93FF932091B008E09176
:102650002021F091212180911C2190911D21E80FD2
:10266000F91F208380911C2190911D2101968436B1
:10267000910560F480931C2190931D2120911E21CF
:1026800030911F2182179307F1F40CC010921C2186
:1026900010921D2180911E2190911F21181619065C
:1026A00091F40EC001968436910528F480931E2182
:1026B00090931F2108C010921E2110921F2103C069
:1026C00081E090E0F3CFFF91EF919F918F913F9147
:1026D0002F910F900BBE0F9008BE0F900FBE0F9062
:1026E0001F9018951F920F920FB60F92112408B6E3
:1026F0000F9218BE0BB60F921BBE2F933F938F9372
:102700009F93EF93FF932091A008E0912621F091F1
:1027100027218091222190912321E80FF91F208306
:10272000809122219091232101968436910560F4B5
:1027300080932221909323212091242130912521DF
:1027400082179307F1F40CC01092222110922321DA
:1027500080912421909125211816190691F40EC01C
:1027600001968436910528F48093242190932521A5
:1027700008C0109224211092252103C081E090E02E
:10278000F3CFFF91EF919F918F913F912F910F90F8
:102790000BBE0F9008BE0F900FBE0F901F901895A4
:1027A000CF92DF92EF92FF920F931F93CF93DF931D
:1027B000CDB7DEB72997CDBFDEBF8C01E62EDC0199
:1027C00013968C911397882341F0ED91FC91028030
:1027D000F381E02DC801199556C0F80142814230BD
:1027E00019F56894CC24C3F8D12C6894FF24F7F829
:1027F0008E2D8F2151F0D801ED91FC910280F38153
:10280000E02D61E3C801199509C0D801ED91FC9153
:102810000280F381E02D60E3C8011995F694B1E0E0
:10282000CB1AD10829F72FC04031F9F462956F70A7
:102830000190F081E02D0280F381E02D6A3010F0EC
:10284000695C01C0605DC80119956E2D6F70D8017B
:10285000ED91FC910280F381E02D6A3010F0695C0B
:1028600001C0605DC80119950EC050E0BE016F5FE8
:102870007F4F8E2D90E00E941F20BE016F5F7F4F23
:10288000C8010E946406C8012996CDBFDEBFDF9152
:10289000CF911F910F91FF90EF90DF90CF9008950F
:1028A0000F931F93CF93DF93EC010E94641B8091E1
:1028B000282181111DC0ADE2B1E2E1E3F1E2ED9327
:1028C000FC93119712961D921C921397A9E2B1E204
:1028D0008FEF9FE012968D939C9313971D921C92FD
:1028E000119782839383A083B18381E08093282111
:1028F000209709F45FC09E012B5F3F4F2496CE3F87
:10290000DF4008F05AC0E0912D21F0912E21ADE278
:10291000B1E202C0DF01FC0182819381821793073B
:1029200020F4808191810097A9F7C1E2E932FC0788
:1029300009F446C0CD91DC9111978E010B5F1F4FBA
:10294000808191818D939C9382819381821B930BD3
:102950008B30910510F1BF01620F731FDB011296DE
:102960008D939C9313972283338312964D915C91A0
:1029700013978DE291E201C0CD01EC01A881B981EC
:1029800012962D913C91139724173507A8F3EB016C
:10299000A883B983DC016D937C9380910020909192
:1029A000012022813381821B930B8093002090931E
:1029B000012008C000E010E005C000E010E002C007
:1029C00000E010E00E94861CC801DF91CF911F91AA
:1029D0000F9108950F931F93CF93DF93009741F1C9
:1029E000EC018C01055011090E94641BF801428121
:1029F0005381ADE2B1E201C0DF01ED91FC9111978D
:102A00002281338124173507B8F32597E883F983AA
:102A10000D931C9320910020309101208A819B818D
:102A2000820F931F80930020909301200E94861CA8
:102A3000DF91CF911F910F91089580910020909187
:102A400001200895FC010396818392834FEF5FEF8D
:102A5000BA01438354836583768387839087818714
:102A6000928710820895FC01128613860895CF93F1
:102A7000DF93FC01DB0121813281E9018C819D81A1
:102A800014968D939C9315978181928116968D93C0
:102A90009C9317978C819D81EC016E837F83E90164
:102AA0006C837D83618372831A96ED93FC931B97ED
:102AB00080818F5F8083DF91CF9108950F931F9363
:102AC000CF93DF93EB01088119812A813B810F3F6E
:102AD0004FEF14072407340731F4DC011996ED9108
:102AE000FC911A971FC0FC013396DC0117964D919B
:102AF0005C911897DA014D915D916D917C9104176D
:102B000015072607370770F00480F581E02DA481B2
:102B1000B5814D915D916D917C9104171507260744
:102B2000370790F7A481B581AC83BD831696CD930A
:102B3000DC931797EE83FF83C483D5838A879B87B3
:102B4000FC0120812F5F2083DF91CF911F910F9196
:102B50000895FC01A481B5818681978116968D9395
:102B60009C931797A681B7818481958114968D9344
:102B70009C931597A285B38511968D919C91129780
:102B8000E817F90731F48681978111968D939C930C
:102B90001297128613868C9181508C93089580939E
:102BA00092319093933131E1FC013083319722E2ED
:102BB00020833197A3E3A08331976083319770839B
:102BC0003197108231971082319760E86083319796
:102BD00010823197108231971082319762E06083C2
:102BE000319763E06083319764E06083319765E0FB
:102BF0006083319766E06083319767E06083319747
:102C000068E06083319769E06083319760E16083B9
:102C100031973083319732E13083319733E130831C
:102C2000319734E13083319735E13083319736E1A4
:102C30003083319737E13083319738E130833197F2
:102C400039E13083319730E23083319731E230839C
:102C500031972083319723E2208331974083319746
:102C60005083319726E22083319727E220833197E2
:102C700028E22083319729E22083319720E32083C3
:102C8000319721E32083899708958CE78093290A5F
:102C90008FEF8093280A81E08093000A91E190935E
:102CA000010A8093070AA0919031B0919131CD91A2
:102CB000CDBFDD91DEBFFF91EF91DF91CF91BF914D
:102CC000AF919F918F917F916F915F914F913F91C4
:102CD0002F911F910F91FF90EF90DF90CF90BF90B9
:102CE000AF909F908F907F906F905F904F903F90AC
:102CF0002F901F900F900CBE0F900BBE0F900FBE29
:102D00000F90089508950F920FB6F8940F920BB696
:102D10000F920CB60F921F9211242F923F924F9256
:102D20005F926F927F928F929F92AF92BF92CF925B
:102D3000DF92EF92FF920F931F932F933F934F9346
:102D40005F936F937F938F939F93AF93BF93CF9333
:102D5000DF93EF93FF93A0919031B09191310DB635
:102D60000D920EB60D920E94A31DA0919031B091CC
:102D70009131CD91CDBFDD91DEBFFF91EF91DF911C
:102D8000CF91BF91AF919F918F917F916F915F9103
:102D90004F913F912F911F910F91FF90EF90DF90F6
:102DA000CF90BF90AF909F908F907F906F905F90EB
:102DB0004F903F902F901F900F900CBE0F900BBE26
:102DC0000F900FBE0F9008950F920FB6F8940F92C8
:102DD0000BB60F920CB60F921F9211242F923F92B6
:102DE0004F925F926F927F928F929F92AF92BF921B
:102DF000CF92DF92EF92FF920F931F932F933F9307
:102E00004F935F936F937F938F939F93AF93BF93F2
:102E1000CF93DF93EF93FF93A0919031B0919131D5
:102E20000DB60D920EB60D920E94851B0E94A31D39
:102E3000A0919031B0919131CD91CDBFDD91DEBFA8
:102E4000FF91EF91DF91CF91BF91AF919F918F91C2
:102E50007F916F915F914F913F912F911F910F91B2
:102E6000FF90EF90DF90CF90BF90AF909F908F90AA
:102E70007F906F905F904F903F902F901F900F909A
:102E80000CBE0F900BBE0F900FBE0F9008950E94C6
:102E9000E4161895CF93DF93EC0188A181110BC044
:102EA00088819981892BE1F58A819B810E945E1F2F
:102EB0001A821B8235C0411117C0482F50E08C8107
:102EC0009D810E94D31F28A18C819D81820F911D1D
:102ED0008C839D832A813B818217930708F1888127
:102EE00099818C839D831CC0482F50E08E819F81E7
:102EF0000E94D31F88A190E09195819591092E8120
:102F00003F81280F391F2E833F8348815981241721
:102F1000350730F42A813B81820F931F8E839F8374
:102F20008E8D8F5F8E8FDF91CF910895FC01808110
:102F300091810097A1F040A150E026813781240FB4
:102F4000351F26833783A281B3812A173B0710F0F0
:102F500086839783CB01668177810E94D31F089572
:102F60000F931F93CF93DF93EC010FB6F8940F925A
:102F70008AA11816B4F48B89811105C012C08B89FF
:102F8000811104C00EC08E010D5E1F4FC8010E944A
:102F90002A1E81110E94E71E8AA181508AA3181659
:102FA00074F38FEF8AA30F900FBE0FB6F8940F92B1
:102FB00089A11816B4F48885811105C012C08885CE
:102FC000811104C00EC08E01085F1F4FC8010E940E
:102FD0002A1E81110E94E71E89A1815089A318161B
:102FE00074F38FEF89A30F900FBEDF91CF911F91E4
:102FF0000F9108951F93CF93DF93613059F0FC0137
:103000002389308531112CC011E0211110E02111EC
:1030100028C001C011E0EC014881598128A130E0AD
:103020006F8D629FC001639F900D1124BA01680FDC
:10303000791F6A837B831E8E4C835D83821B930B77
:10304000840F951F8E839F838FEF89A38AA3CE0160
:1030500008960E942215CE0143960E94221501C0B7
:1030600010E0812FDF91CF911F9108950F931F934F
:10307000CF93DF93882301F1062F182F83E290E08E
:103080000E945014EC01892BC9F0109FC00111243B
:1030900001960E94501488839983892B39F01F8FE1
:1030A00008A361E0CE010E94FA1708C0CE010E9479
:1030B000EA14C0E0D0E002C0C0E0D0E0CE01DF9171
:1030C000CF911F910F910895AF92BF92CF92DF924F
:1030D000EF92FF920F931F93CF93DF93CDB7DEB79D
:1030E0002997CDBFDEBF7C015B012E833F834887DC
:1030F000598710E06C0188E0C80ED11C0FB6F89417
:103100000F92F701968D878D9817A8F4402FB5017F
:10311000C7010E944A17F7018389882341F0C7013C
:1031200043960E942A1E813011F40E9483160F904C
:103130000FBE81E056C08E819F81A885B985892BFD
:103140008A2B8B2B21F40F900FBE80E04AC0111107
:1031500005C0CE0101960E94691E11E00F900FBEBE
:103160000E94641B0FB6F8940F92F70181A18F3F64
:1031700009F411A2F70182A18F3F09F412A20F9066
:103180000FBEBE016A5F7F4FCE0101960E947A1E7C
:10319000811121C00FB6F8940F92F701968D0F9010
:1031A0000FBE878D981311C04E815F816885798528
:1031B000C6010E94001EC7010E94B0170E94861C13
:1031C00081119CCF0E94831699CFC7010E94B0172E
:1031D0000E94861C93CFC7010E94B0170E94861CD4
:1031E00080E02996CDBFDEBFDF91CF911F910F9177
:1031F000FF90EF90DF90CF90BF90AF900895AF9287
:10320000BF92CF92DF92EF92FF920F931F93CF93D3
:10321000DF93CDB7DEB72997CDBFDEBF7C015B0161
:103220002E833F834887598710E06C0183E1C80EE5
:10323000D11C0FB6F8940F92F701868D882399F16F
:10324000C680D780B501C7010E94961701111AC028
:10325000F701868D8150868F80819181892B29F499
:103260000E94041FF70182839383F70180858823DE
:10327000B1F0C70108960E942A1E813081F40E9495
:1032800083160DC0F701C682D7828389882339F05F
:10329000C70143960E942A1E81110E9483160F9037
:1032A0000FBE81E062C08E819F81A885B985892B80
:1032B0008A2B8B2B21F40F900FBE80E056C011118A
:1032C00005C0CE0101960E94691E11E00F900FBE4D
:1032D0000E94641B0FB6F8940F92F70181A18F3FF3
:1032E00009F411A2F70182A18F3F09F412A20F90F5
:1032F0000FBEBE016A5F7F4FCE0101960E947A1E0B
:1033000081112DC00FB6F8940F92F701868D0F90A2
:103310000FBE81111EC080819181892B49F40FB6A7
:10332000F8940F92828193810E94091F0F900FBE23
:103330004E815F8168857985C6010E94001EC701A4
:103340000E94B0170E94861C811173CF0E948316C1
:1033500070CFC7010E94B0170E94861C6ACFC701B8
:103360000E94B0170E94861C80E02996CDBFDEBF68
:10337000DF91CF911F910F91FF90EF90DF90CF9051
:10338000BF90AF9008950FB6F8940F92FC01868D10
:103390000F900FBE0895C4E6D1E388818230E8F330
:1033A0000E948316FACFCF92DF92EF92FF926B01C9
:1033B0007C01E0919031F091913162837383848339
:1033C00095838091383190913931A0913A31B09103
:1033D0003B31C816D906EA06FB0668F460919031C5
:1033E0007091913180914A3190914B316E5F7F4F56
:1033F0000E945E1521C06091903170919131809151
:103400004C3190914D316E5F7F4F0E945E158091DF
:10341000022090910320A0910420B0910520C816AD
:10342000D906EA06FB0640F4C0920220D09203209F
:10343000E0920420F0920520FF90EF90DF90CF9073
:1034400008954F925F926F927F928F929F92AF9268
:10345000BF92CF92DF92EF92FF920F931F93CF9381
:10346000DF935C014B013A01290188E290E00E9460
:103470005014EC01892B09F4D4C0C114D10409F013
:10348000CCC0C3010E9450148B8F9C8F009721F4F5
:10349000CE010E94EA14C5C0A30161E170E00E9460
:1034A000DC1F9301215031098B8D9C8D3C01620EF4
:1034B000731E4AE050E0B401CE014D960E94E31F16
:1034C0001EA2102F043008F013E01A8F1FA36E0104
:1034D00022E0C20ED11CC6010E943315CE010E9609
:1034E0000E943315CA87DB8784E090E0A0E0B0E05B
:1034F000811B9109A109B1098E879F87A88BB98B80
:10350000CE8BDF8BA201B501C3010E94CF1588834A
:103510009983E114F10419F0F701C083D1830FB648
:10352000F8940F9280913C318F5F80933C31809171
:10353000903190919131892B89F5C0939031D0933E
:10354000913180913C318130C1F584E691E30E9454
:1035500022158FE691E30E9422158AE791E30E94EB
:10356000221585E891E30E94221589E591E30E94E6
:1035700022158EE491E30E9422158FE391E30E94CD
:10358000221589E591E380934C3190934D318EE47F
:1035900091E380934A3190934B310FC08091353144
:1035A00081110BC0E0919031F0919131828D08171B
:1035B00020F0C0939031D09391318A8D9091373122
:1035C000981710F480933731909130319F5F90932A
:1035D000303190913631981710F480933631FBE0FA
:1035E0008F9FC0011124B6018C599E4C0E94371543
:1035F0000F900FBE80913531882359F0E0919031C2
:10360000F0919131828D801730F40E94831681E011
:1036100009C081E007C081E005C0CB8EDC8EC60109
:103620003BCF8FEFDF91CF911F910F91FF90EF90E4
:10363000DF90CF90BF90AF909F908F907F906F90D2
:103640005F904F9008950FB6F8940F92009721F471
:1036500080919031909191310F900FBEFC01828D3D
:103660000895AF92BF92CF92DF92EF92FF920F93A5
:10367000A12CB12CC12CD12C0F2EFDE3EF2EF1E3A8
:10368000FF2EF02D00E020E030E044E650E068ED51
:1036900070E28BEC99E10E94211A813069F4F89470
:1036A00080933531109238311092393110923A317D
:1036B00010923B310E9445160F91FF90EF90DF90E2
:1036C000CF90BF90AF900895809134318F5F8093F9
:1036D000343108950FB6F8940F926091383170919B
:1036E000393180913A3190913B310F900FBE08955E
:1036F000009721F480919031909191314D960895E9
:1037000080913D3190913E310895FF920F931F9328
:10371000CF93DF93809134318111EDC080913831A6
:1037200090913931A0913A31B0913B310196A11D70
:10373000B11D8093383190933931A0933A31B093D1
:103740003B318091383190913931A0913A31B0912B
:103750003B31892B8A2B8B2BF1F580914C31909149
:103760004D3120914A3130914B3120934C3130937F
:103770004D3180934A3190934B31809131318F5F3D
:1037800080933131E0914C31F0914D318081811144
:103790000CC08FEF9FEFDC018093022090930320F9
:1037A000A0930420B093052016C0E0914C31F09115
:1037B0004D310780F085E02D0084F185E02D828178
:1037C0009381A481B5818093022090930320A093DC
:1037D0000420B093052040913831509139316091E7
:1037E0003A3170913B318091022090910320A09159
:1037F0000420B0910520481759076A077B0708F491
:103800007FC0E0914C31F0914D3180818823F9F0F7
:10381000E0914C31F0914D310780F085E02DC0856D
:10382000D1858A819B81AC81BD8140913831509195
:10383000393160913A3170913B31481759076A0725
:103840007B0758F10F2EFBE0FF2EF02D2FC08FEFDE
:103850009FEFDC018093022090930320A09304202B
:10386000B09305204DC0E0914C31F0914D3107806F
:10387000F085E02DC085D1858A819B81AC81BD8199
:10388000409138315091393160913A3170913B31EA
:10389000481759076A077B0748F4809302209093E2
:1038A0000320A0930420B09305202AC08E010E5F50
:1038B0001F4FC8010E94A915888D998D892B21F071
:1038C000CE010E960E94A9158A8D909136319817D7
:1038D00010F480933631F89EC0011124B8018C5940
:1038E0009E4C0E943715E0914C31F0914D31808112
:1038F0008111B9CFACCF809133318F5F8093333159
:10390000DF91CF911F910F91FF900895CF92DF9299
:10391000EF92FF920F931F93CF93DF930FB6F8941C
:103920000F928091343181508093343180913431C1
:10393000811160C080913C3181112CC05EC0D701E3
:103940001796ED91FC911897C085D185CE010E9602
:103950000E94A9158E010E5F1F4FC8010E94A91574
:103960008A8D90913631981710F480933631D89E15
:10397000C0011124B8018C599E4C0E943715E0916A
:103980009031F09191319A8D828D981770F0CC24FE
:10399000C3940BC0C12C0F2EFFE3EF2EF1E3FF2EDB
:1039A000F02D0F2EFBE0DF2EF02DF701808181112D
:1039B000C6CF80913331882381F0809133318823C1
:1039C00099F00E94851B809133318150809333316F
:1039D000809133318111F5CF07C0F1E0CF1621F08E
:1039E00080913231813041F4109232310E9483163D
:1039F00081E003C080E001C080E00F900FBEDF9146
:103A0000CF911F910F91FF90EF90DF90CF9008958D
:103A1000CF92DF92EF92FF92CF93DF93EC016A0196
:103A20007B010E94641B88819981AA81BB81C80E99
:103A3000D91EEA1EFB1E40913831509139316091F8
:103A40003A3170913B31481759076A077B07B8F440
:103A5000C816D906EA06FB06E0F580913831909148
:103A60003931A0913A31B0913B31C882D982EA8292
:103A7000FB828C159D05AE05BF05F8F413C0C81672
:103A8000D906EA06FB0600F1809138319091393170
:103A9000A0913A31B0913B318C159D05AE05BF0523
:103AA00098F017C0809190319091913102960E94C8
:103AB000A915C701B6010E94D3190E94861C811165
:103AC0000DC00E9483160AC0C882D982EA82FB8296
:103AD000E9CFC882D982EA82FB82EFCFDF91CF9112
:103AE000FF90EF90DF90CF900895CF92DF92EF920A
:103AF000FF926B017C01672B682B692BE9F00E9418
:103B0000641B8091383190913931A0913A31B09154
:103B10003B31C80ED91EEA1EFB1E80919031909158
:103B2000913102960E94A915C701B6010E94D319CE
:103B30000E94861C811102C00E948316FF90EF90A4
:103B4000DF90CF9008958091343181110CC0E091C5
:103B500036314BE0E49FF0011124EC59FE4C80819A
:103B6000882329F014C081E08093323108959BE0CE
:103B700080913631815080933631E09136319E9F6D
:103B8000F0011124EC59FE4C8081882389F3809147
:103B90003631282F30E04BE0849FC0011124DC0136
:103BA000AC59BE4C1196ED91FC9112970480F581B1
:103BB000E02D1196ED93FC93129789599E4CE817CE
:103BC000F90761F4848195814BE0429FF001439FA6
:103BD000F00D1124EC59FE4C818392838BE0829F7F
:103BE000F001839FF00D1124EC59FE4C0180F2810D
:103BF000E02D808591858093903190939131089547
:103C0000CF92DF92EF92FF926A017B016091903137
:103C100070919131625F7F4F0E945E15809190316B
:103C20009091913102960E94A9158091383190911E
:103C30003931A0913A31B0913B31BC01CD016C0DCD
:103C40007D1D8E1D9F1D0E94D319FF90EF90DF9068
:103C5000CF9008950F931F93CF93DF93DC011796B6
:103C6000ED91FC911897C085D1858E01025F1F4FA1
:103C7000C8010E94A91580913431811116C00C50E1
:103C80001109C8010E94A9158A8D909136319817A3
:103C900010F480933631BBE08B9FC0011124B80132
:103CA0008C599E4C0E94371505C0B8018FE391E3F3
:103CB0000E943715E0919031F091913181E02A8D89
:103CC000928D291708F480E0DF91CF911F910F9119
:103CD000089520913131FC01208340913831509179
:103CE000393160913A3170913B3141835283638322
:103CF000748308958F929F92AF92BF92CF92DF927A
:103D0000EF92FF920F931F93CF93DF93FC010FB6B7
:103D1000F8940F92809131319081981789F08091B9
:103D2000383190913931A0913A31B0913B310181D4
:103D300012812381348180179107A207B307A8F568
:103D40008091383190913931A0913A31B0913B3125
:103D5000C180D280E380F480EB01088119812A813F
:103D60003B818C199D09AE09BF0980179107A207F5
:103D7000B307E8F4CF018090383190903931A090AA
:103D80003A31B0903B31B501A4014C195D096E097F
:103D90007F09041B150B260B370B088319832A8315
:103DA0003B830E94691E80E003C081E001C081E086
:103DB0000F900FBEDF91CF911F910F91FF90EF9069
:103DC000DF90CF90BF90AF909F908F90089581E04B
:103DD000809332310895009721F480919031909131
:103DE0009131DC015B96ED91FC915C978081813192
:103DF00041F4319680E090E0019621912131E1F388
:103E0000089580E090E008958091903190919131F3
:103E100008950F931F93CF93DF93FC01228DA09100
:103E20009031B09191315A968C91281708F041C089
:103E3000A0919031B09191315A963C9184E090E0FC
:103E4000A0E0B0E0831B9109A109B109868797879B
:103E5000A08BB18B8BE0289F900111242C593E4CF4
:103E60008485958582179307E9F48F01EF012296E7
:103E7000CE010E94A915E0919031F0919131828D8F
:103E8000F801828F90913631981710F48093363173
:103E9000FBE08F9FC0011124BE018C599E4C0E94F3
:103EA000371507C0A0919031B09191315A968C91FD
:103EB000828FDF91CF911F910F9108950F931F93E0
:103EC000CF93DF93009749F1FC01328D27A1321780
:103ED00021F1EC018C010E5F1F4FC8010E94A91552
:103EE0008FA18A8F44E050E060E070E0481B5109E8
:103EF000610971094E875F87688B798B90913631A4
:103F0000981710F480933631FBE08F9FC001112485
:103F1000B8018C599E4C0E943715DF91CF911F91AB
:103F20000F910895052E97FB1EF400940E94A91F7F
:103F300057FD07D00E94B11F07FC03D04EF40C942C
:103F4000A91F50954095309521953F4F4F4F5F4F9A
:103F5000089590958095709561957F4F8F4F9F4FF5
:103F60000895A1E21A2EAA1BBB1BFD010DC0AA1FBA
:103F7000BB1FEE1FFF1FA217B307E407F50720F0D2
:103F8000A21BB30BE40BF50B661F771F881F991F4D
:103F90001A9469F760957095809590959B01AC0196
:103FA000BD01CF010895FB01DC0102C001900D921B
:103FB00041505040D8F70895DC0101C06D93415045
:103FC0005040E0F70895FB01DC014150504048F0BB
:103FD00001900D920020C9F701C01D924150504040
:103FE000E0F708952532310520F4223010F00C94CA
:103FF000FD1FFA011082CA010895BB27FA01A62FFE
:104000006217710581059105330B30FB66F0AA2715
:10401000660F771F881F991FAA1FA21710F0A21BF7
:1040200063953850A9F7A05DAA3308F0A95DA19364
:1040300036F7B111B1931082CA010C944420453275
:10404000510520F4423010F00C942A20FB0110821C
:10405000CB010895BB27FB015527AA27880F991F7D
:10406000AA1FA41710F0A41B83955051B9F7A05DA7
:10407000AA3308F0A95DA193009779F7B111B19324
:104080001192CB010C944420DC01FC01672F71914B
:104090007723E1F7329704C07C916D93708362912E
:1040A000AE17BF07C8F308955058BB27AA270E9430
:1040B0006C200C94BD210E94AF2138F00E94B621E3
:1040C00020F039F49F3F19F426F40C94AC210EF43F
:1040D000E095E7FB0C94A621E92F0E94CE2158F32E
:1040E000BA17620773078407950720F079F4A6F5DD
:1040F0000C94F0210EF4E0950B2EBA2FA02D0B019D
:10410000B90190010C01CA01A0011124FF27591B1C
:1041100099F0593F50F4503E68F11A16F040A22F22
:10412000232F342F4427585FF3CF46953795279593
:10413000A795F0405395C9F77EF41F16BA0B620B92
:10414000730B840BBAF09150A1F0FF0FBB1F661FD9
:10415000771F881FC2F70EC0BA0F621F731F841F1C
:1041600048F4879577956795B795F7959E3F08F042
:10417000B0CF9395880F08F09927EE0F9795879504
:1041800008950E94D5200C94BD210E94B62158F0BC
:104190000E94AF2140F029F45F3F29F00C94A62142
:1041A00051110C94F1210C94AC210E94CE2168F3A2
:1041B0009923B1F3552391F3951B550BBB27AA27E0
:1041C00062177307840738F09F5F5F4F220F331F1A
:1041D000441FAA1FA9F335D00E2E3AF0E0E832D0E2
:1041E00091505040E695001CCAF72BD0FE2F29D0E5
:1041F000660F771F881FBB1F261737074807AB07B7
:10420000B0E809F0BB0B802DBF01FF2793585F4F2B
:104210003AF09E3F510578F00C94A6210C94F121C0
:104220005F3FE4F3983ED4F3869577956795B7950D
:10423000F7959F5FC9F7880F911D9695879597F918
:104240000895E1E0660F771F881FBB1F6217730791
:104250008407BA0720F0621B730B840BBA0BEE1FA6
:1042600088F7E09508950E943A216894B1110C9462
:10427000F12108950E94D62188F09F5798F0B92F18
:104280009927B751B0F0E1F0660F771F881F991F8B
:104290001AF0BA95C9F714C0B13091F00E94F0211C
:1042A000B1E008950C94F021672F782F8827B85F2C
:1042B00039F0B93FCCF3869577956795B395D9F7E3
:1042C0003EF490958095709561957F4F8F4F9F4FED
:1042D0000895E89409C097FB3EF4909580957095F9
:1042E00061957F4F8F4F9F4F9923A9F0F92F96E942
:1042F000BB279395F695879577956795B795F111B7
:10430000F8CFFAF4BB0F11F460FF1BC06F5F7F4F53
:104310008F4F9F4F16C0882311F096E911C0772365
:1043200021F09EE8872F762F05C0662371F096E86E
:10433000862F70E060E02AF09A95660F771F881F3D
:10434000DAF7880F9695879597F9089597F99F67FB
:1043500080E870E060E008959FEF80EC089500240D
:104360000A941616170618060906089500240A94DA
:1043700012161306140605060895092E0394000C60
:1043800011F4882352F0BB0F40F4BF2B11F460FFEF
:1043900004C06F5F7F4F8F4F9F4F089557FD905818
:1043A000440F551F59F05F3F71F04795880F97FBF9
:1043B000991F61F09F3F79F08795089512161306B3
:1043C0001406551FF2CF4695F1DF08C016161706E2
:1043D0001806991FF1CF8695710561050894089517
:1043E000E894BB2766277727CB0197F908950E94A9
:1043F0000A220C94BD210E94AF2138F00E94B62100
:1044000020F0952311F00C94A6210C94AC211124DA
:104410000C94F1210E94CE2170F3959FC1F3950F6A
:1044200050E0551F629FF001729FBB27F00DB11D38
:10443000639FAA27F00DB11DAA1F649F6627B00DC8
:10444000A11D661F829F2227B00DA11D621F739FB1
:10445000B00DA11D621F839FA00D611D221F749FBF
:104460003327A00D611D231F849F600D211D822F06
:10447000762F6A2F11249F5750409AF0F1F088232D
:104480004AF0EE0FFF1FBB1F661F771F881F91505A
:104490005040A9F79E3F510580F00C94A6210C9442
:1044A000F1215F3FE4F3983ED4F3869577956795C5
:1044B000B795F795E7959F5FC1F7FE2B880F911D84
:1044C0009695879597F90895DB018F939F930E94A6
:1044D0009122BF91AF91A29F800D911DA39F900D3E
:1044E000B29F900D1124089597FB072E16F40094A7
:1044F00007D077FD09D00E949C2207FC05D03EF42E
:10450000909581959F4F0895709561957F4F08957F
:10451000EE0FFF1F881F8BBF0790F691E02D1BBE8B
:1045200019940E94B022A59F900DB49F900DA49F56
:10453000800D911D11240895AA1BBB1B51E107C0DA
:10454000AA1FBB1FA617B70710F0A61BB70B881F23
:10455000991F5A95A9F780959095BC01CD010895B2
:10456000A29FB001B39FC001A39F700D811D1124B4
:10457000911DB29F700D811D1124911D0895F89415
:02458000FFCF6B
:10458200FF0FFFFFFFFF00000000A703510800001C
:104592000000A503D90FA00FB30F9F03970F0000D0
:1045A20000000F0A510800000000890551080000B0
:1045B20000001604510800000000810451080000A8
:1045C2000000D20C5108000000002805510800002C
:1045D2000000A503A703A003A2039F039E030000FC
:1045E2000000A503E903DE03C0039F039E034C49B9
:1045F2004D49542053574954434820484954204573
:1046020052524F52004672656552544F5320586DB4
:104612006567612054657374696E672050726F67B5
:1046220072616D0055736572496E74004C656674F3
:104632005377005269676874537700456E6350651B
:104642006E00456E634D7472005379734374726CDD
:0E465200004D7472436D640049444C450000F5
:00000001FF
