S01600004652454552544F535F5348454C4C2E73726563CD
S11300000C9477030C94AD030C94AD030C94AD03E2
S11300100C94AD030C94AD030C94AD030C94AD039C
S11300200C94AD030C94AD030C94AD030C94AD038C
S11300300C94AD030C94AD030C94AD030C94AD037C
S11300400C94AD030C94AD030C94AD030C94AD036C
S11300500C94AD030C94AD030C94AD030C94AD035C
S11300600C94AD030C9440130C94AD030C94AD03A9
S11300700C94E2120C94AD030C94AD030C94AD03F8
S11300800C94AD030C94AD030C94AD030C94AD032C
S11300900C94AD030C94AD030C94AD030C94AD031C
S11300A00C94AD030C94AD030C94AD030C94AD030C
S11300B00C94AD030C94AD030C94AD030C94AD03FC
S11300C00C94AD030C94821B0C94AD030C94AD03FF
S11300D00C94AD030C94AD030C94AD030C94AD03DC
S11300E00C94AD030C94AD030C94C8110C94AD03A3
S11300F00C94AD030C94AD030C94AD030C94AD03BC
S11301000C94AD030C94AD030C94AD030C94AD03AB
S11301100C94AD030C94AD030C94AD030C94AD039B
S11301200C94AD030C94AD030C94AD030C94AD038B
S11301300C94AD030C94AD030C94AD030C94AD037B
S11301400C94AD030C94AD030C94AD030C94AD036B
S11301500C94AD030C94AD030C94AD030C94AD035B
S11301600C9484120C94AD030C94AD030C942612DD
S11301700C94AD030C94AD030C94AD030C94AD033B
S11301800C94AD030C94AD030C94AD030C94AD032B
S11301900C94AD030C94AD030C94AD030C94AD031B
S11301A00C94AD030C94AD030C94AD030C94AD030B
S11301B00C94AD030C94AD030C94AD030C94AD03FB
S11301C00C94AD030C94AD030C94AD030C94AD03EB
S11301D00C94AD030C94AD030C94AD030C94AD03DB
S11301E00C94AD030C94AD030C94AD030C94AD03CB
S11301F00C94AD030C94AD030C94AD039506320737
S11302003207320732073207320732073207320722
S11302103207320732073207320732073207320712
S11302203207320732073207320732073207320702
S113023032073207320732073207320732073207F2
S113024032073207320732073207320732073207E2
S113025032073207320732073207320732073207D2
S113026032073207320732073207320732073207C2
S113027032073207320732073207320732073207B2
S113028032073207320732073207AA063207FC0662
S113029095063207C606910632073207320732073F
S11302A0320752053207320732071607570632075C
S11302B032076005E0068D14901493149614991473
S11302C09C149E14AF14B714C114BF140C945B088F
S11302D00C9457060C9496140C949E140C94061EBD
S11302E00C94AF140C948D140C9420140C947A0771
S11302F00C94F7090C94B7140C949D040C944D0FB2
S11303000C9499140C941E140C94FC060C941E0961
S11303100C94AA0F0C94C1140C94440F0C94E00692
S11303200C94860F0C9428140C94600F0C9495066E
S11303300C94BF140C94C6060C9472150C9490146F
S11303400C9446140C941F140C9460050C945114D2
S11303500C9452050C946F140C9427140C9491066D
S11303600C9422140C949C140C9416070C942514CD
S11303700C9432070C9493140C947F090C94AA06E1
S11303800909002F0049444C45090930092D090089
S1130390092D2D2D2D00092D2D2D2D2D2D2D2D2DFE
S11303A02D002D2D2D2D09092D2D2D2D092D2D2D12
S11303B02D2D000952756E730009467265652F5420
S11303C06F74616C004E616D6509095072692E0984
S11303D053746174650009537461636B00546173F1
S11303E06B090920200920002C2054434330434347
S11303F0413D002F002C20486561702066726565C0
S11304003A200054696D653A20004A756C20203505
S11304102032303236004D45343035206261736508
S113042020726164696F2070726F6772616D20560B
S1130430302E3420001B5B32326D005461736B3AF2
S11304402049444C45001B5B316D00496C6C656769
S1130450616C2073746174652120526573657474D2
S1130460696E6720415652003A5754463F00526520
S11304707365742C2074727920486F6D696E6720DF
S1130480616761696E206279207072657373696E49
S1130490672027622700454D455247454E43592062
S11304A053544F50005377696E67696E6700436F0A
S11304B06D6D656E63652042616C616E63650042BB
S11304C06567696E20486F6D696E67004578697469
S11304D020636F6D6D616E64206D6F64650052659D
S11304E073657474696E6720415652005072657367
S11304F073204374726C2D4120666F7220636F6D9C
S11305006D616E64206D6F64650020202020683A60
S113051020202048414C50210020202020723A20E5
S11305202020526573657420746F2049646C6500E3
S113053020202020643A202020456D657267656E76
S113054063792053746F700020202020773A202094
S1130550205377696E672075702100202020206762
S11305603A20202053746172742042616C616E637E
S113057065210020202020623A20202042656769FE
S11305806E2043616C6962726174696F6E00202031
S11305902020653A2020204578697420636F6D6DB2
S11305A0616E64206D6F64650020202020733A2002
S11305B02020537461636B2064756D7020666F72C4
S11305C0207461736B730020202020763A20202051
S11305D056657273696F6E20616E642073657475FD
S11305E07020696E666F726D6174696F6E00202091
S11305F020206E3A20202053686F7720746865208D
S113060074696D65207269676874206E6F77002065
S113061020496E20636F6D6D616E64206D6F64653B
S1130620206F6E6C793A00202043746C2D413A207F
S1130630456E74657220636F6D6D616E64206D6FBD
S1130640646500202043746C2D433A205265736521
S1130650742074686520415652002068656C7000EF
S11306604D45343035206261736520726164696F71
S11306702070726F6772616D2056302E3420001B1B
S11306805B33306D001B5B34366D004552524F5264
S1130690206372656174696E67207461736B2000F6
S11306A02C20737461636B206174203078002063A4
S11306B0726561746564005461736B20001B5B3266
S11306C0326D005461736B3A20001B5B316D00097D
S11306D00009002F00090009001B5B32326D001B6A
S11306E05B316D001B5B316D00202000AA0F1124CB
S11306F01FBECFEFCDBFDFE3DEBF00E00CBF18BEEF
S113070019BE1ABE1BBE11E2A0E0B0E2E4E0FEE4B2
S113071000E00BBF02C007900D92A032B107D9F7D9
S11307201BBE21E3A0E2B1E201C01D92A83DB207C5
S1130730E1F713E0C7E7D3E000E006C02197010921
S1130740802FFE010E94DD26C637D10780E008070E
S1130750A9F70E94CE0F0C9400270C9400000F936D
S11307601F93CF93DF93EC016AE08E819F810E94F7
S11307707E148C0165E876E00E94C5146AE0C80125
S11307800E947E148C016FE776E00E94C51467E036
S1130790C8010E947E146AE08E819F810E947E14AB
S11307A08C0160E676E00E94C5146AE0C8010E94EC
S11307B07E148C016AE576E00E94C51466E0C801E7
S11307C00E947E146AE08E819F810E947E148C01B7
S11307D063E476E00E94C51466E0C8010E947E14BA
S11307E06AE08E819F810E947E148C0167E276E02C
S11307F00E94C51466E0C8010E947E146AE08E81DE
S11308009F810E947E148C016FE076E00E94C514E3
S113081066E0C8010E947E146AE08E819F810E9476
S11308207E148C016EEE75E00E94C51466E0C8016A
S11308300E947E146AE08E819F810E947E148C0146
S113084067EC75E00E94C51466E0C8010E947E143E
S11308506AE08E819F810E947E148C0169EA75E0B2
S11308600E94C51466E0C8010E947E146AE08E816D
S11308709F810E947E148C016EE875E00E94C5146D
S113088066E0C8010E947E146AE08E819F810E9406
S11308907E148C0163E775E00E94C51466E0C8010C
S11308A00E947E146AE08E819F810E947E148C01D6
S11308B06BE575E00E94C51466E0C8010E947E14D1
S11308C06AE08E819F810E947E148C0168E475E049
S11308D00E94C51466E0C8010E947E146AE08E81FD
S11308E09F810E947E148C0160E375E00E94C51410
S11308F066E0C8010E947E146AE08E819F810E9496
S11309007E148C0169E175E00E94C51466E0C8019B
S11309100E947E146AE08E819F810E947E14EC0105
S11309206AE075E00E94C51466E0CE010E947E1460
S1130930DF91CF911F910F910895CF93DF93CDB79E
S1130940DEB72C97CDBFDEBF7C0119821A821B82D1
S11309501C821D821E826AE0DC0116968D919C9198
S113096017970E947E146C016CEE74E00E94C5140B
S113097066E0C6010E947E1411E0812C68949924DB
S113098093F80F2EFAE6AF2EF1E2BF2EF02DF70109
S11309908485882321F0813009F460C07DC286817A
S11309A09781DC01ED91FC910480F581E02D19958E
S11309B0882309F437C0F70186819781DC01ED9122
S11309C0FC910680F781E02D1995992781309105D6
S11309D0F9F0039709F07BC26AE0F70186819781F9
S11309E00E947E147C016EED74E00E94C51466E0E2
S11309F0C7010E947E1493E088ED08B618BE84BF38
S1130A00909380008091820081FDFCCF08BEFFCFCF
S1130A10C7010E94AF03D7011C961C931C971D9617
S1130A201C9355C28CE391E20E944614882309F476
S1130A304EC2D7011696ED91FC9117970190F08163
S1130A40E02DC280D3808CE391E20E942814682FA9
S1130A50F70186819781F601199539C286819781BC
S1130A60DC01ED91FC910480F581E02D199588233A
S1130A7009F42DC2F70186819781DC01ED91FC9187
S1130A800680F781E02D1995BC01FC01FF277B97B7
S1130A90ED35F10508F0E6C18827E250FF4F8F4F8E
S1130AA00C94DD26CE0101960E94B116BC01F7011B
S1130AB0868197810E94C91666E00E947E1407C24F
S1130AC01F82188619861A861B861C860E9458194E
S1130AD03C01CE0107960E94B1162C0166E0D701B5
S1130AE016968D919C9117970E947E146AE00E943D
S1130AF07E146C0166E174E00E94C5146AE0C601CC
S1130B000E947E146C016AE074E00E94C51466E0E1
S1130B10C6010E947E146AE00E947E146C0163E0A8
S1130B2074E00E94C514B201C6010E94C9166AE0AD
S1130B300E947E146C0165EF73E00E94C514B3013A
S1130B40C6010E943E156AE00E947E146C0163EFA8
S1130B5073E00E94C5144FEF5FE060E070E0C601EF
S1130B600E94FC14F40160A471A46AE0D7011696F3
S1130B708D919C9117970E947E146C0168EE73E02E
S1130B800E94C514B301C6010E943E1566E00E948E
S1130B907E1466E00E947E14F701C680D7806AE066
S1130BA0C6010E947E143C016DED73E00E94C514E1
S1130BB06AE0C3010E947E143C0166ED73E00E946A
S1130BC0C51466E0C3010E947E146AE0C6010E9457
S1130BD07E143C0165EC73E00E94C5146AE0C30115
S1130BE00E947E143C0169EB73E00E94C5146AE024
S1130BF0C3010E947E143C0163EB73E00E94C514A0
S1130C0066E0C3010E947E146AE0C6010E947E145D
S1130C103C0162EA73E00E94C5146AE0C3010E94C9
S1130C207E143C0166E973E00E94C5146AE0C301C6
S1130C300E947E143C0160E973E00E94C51466E0E2
S1130C40C3010E947E14D5018D919C91009719F0E7
S1130C50B6010E945A170E94BB1F0E942623082F28
S1130C606AE0C6010E947E146C0165E873E00E948C
S1130C70C514602FC6010E949E136AE00E947E1470
S1130C806C0163E873E00E94C51464E670E0C60179
S1130C900E943E156AE00E947E146C0160E873E0D5
S1130CA00E94C51466E0C6010E947E1410C1F701BB
S1130CB0C680D78080916A2190916B21009719F0AA
S1130CC0B6010E9476176AE0C6010E947E143C01B8
S1130CD066E474E00E94C5146AE0C3010E947E14B5
S1130CE03C016BE374E00E94C5146AE0C3010E94F6
S1130CF07E143C0165E374E00E94C51466E0C30100
S1130D000E947E148091D6319091D731BC016F5FDF
S1130D107F4F01E1212FA601835691090E940216FB
S1130D20D6C0C7010E94AF03D2C06AE0D7011696AD
S1130D308D919C9117970E947E146C016CEC74E069
S1130D400E94C51466E0C6010E947E14F701148651
S1130D501586BDC0E0912821F09129210FB6F894A1
S1130D600F9210830F900FBE6AE0D70116968D91F3
S1130D709C9117970E947E146C016FEB74E00E94A3
S1130D80C51466E0C6010E947E14A1C0E09126212C
S1130D90F09127210FB6F8940F9210830F900FBE95
S1130DA06AE0F701868197810E947E146C016EEAE5
S1130DB074E00E94C51466E0C6010E947E1487C0D8
S1130DC0E0912421F09125210FB6F8940F9210831D
S1130DD00F900FBE6AE0D70116968D919C911797DC
S1130DE00E947E146C0165EA74E00E94C51466E0FA
S1130DF0C6010E947E146BC0E0912221F091232150
S1130E000FB6F8940F9210830F900FBE6AE0F701AB
S1130E10868197810E947E146C0166E974E00E94C9
S1130E20C51466E0C6010E947E1451C0E0912021E1
S1130E30F09121210FB6F8940F9210830F900FBEFA
S1130E406AE0D70116968D919C9117970E947E14A3
S1130E506C016EE674E00E94C51466E0C6010E944F
S1130E607E1435C0F70186819781DC01ED91FC91F8
S1130E700280F381E02D19956AE0F701868197815C
S1130E800E947E146C0168E674E00E94C51466E05A
S1130E90C6010E947E141BC06AE0868197810E946D
S1130EA07E147C016BE474E00E94C51466E0C70103
S1130EB00E947E1493E088ED08B618BE84BF909318
S1130EC080008091820081FDFCCF08BEFFCFF70136
S1130ED086859785A089B1890196A11DB11D868754
S1130EE09787A08BB18B64E170E080E090E00E9472
S1130EF0B0214DCDCF93DF93CDB7DEB72A97CDBFC9
S1130F00DEBF8D839E830E94A51F69837A838B83B2
S1130F109C83E0E8F6E083E08283808B818BE0E8C9
S1130F20F1E080E7828389E08287E0E4F8E08AE602
S1130F3083838DEC97E086A397A381E0808300A14F
S1130F4011A1C980DA80EB80FC80412C512C320144
S1130F500E94A51F4B015C016C197D098E099F0934
S1130F600E94A92520E030E04AE754E40E940125CC
S1130F706F83788789879A8720906008309061080A
S1130F80C101801B910B8C01BC01990F880B990B3B
S1130F900E94AB256B017C0120E030EA49E754E470
S1130FA00E945B26181664F420E030EA49EF54E40A
S1130FB0C701B6010E948F240E9473258B0115C0BE
S1130FC020E030EA49E754ECC701B6010E94FC2452
S1130FD088235CF420E030EA49EF54E4C701B60109
S1130FE00E9490240E9473258B01CC24DD24C01A16
S1130FF0D10A0D2C000CEE08FF084C0C5D1C6E1C75
S11310007F1CE0913221F09133210FB6F8940F92B6
S1131010408251820F900FBE0091302110913121F6
S11310200FB6F8940F92C301B2010E94AB2529E5D3
S113103032E34EE45BE30E946026F801608371832F
S1131040828393830F900FBE00912E2110912F2144
S11310500FB6F8940F92C701B6010E94AB2529E59B
S113106032E34EE45BE30E9460262F813885498594
S11310705A850E940125F8016083718382839383DA
S11310800F900FBEED81FE8186859785A089B18979
S11310900196A11DB11D86879787A08BB18B41E076
S11310A050E060E070E0CE0101960E94432181018E
S11310B0750164014DCFCF93DF93CDB7DEB7289789
S11310C0CDBFDEBF1C010E94A51F69837A838B8379
S11310D09C83E0E8F6E08CE0828382898360828BE3
S11310E083898360838BE0E8F1E082E7808389E091
S11310F08087E0E0F9E088E683838FEF9FEF86A3A3
S113110097A381E08083E0912C21F0912D210FB6EB
S1131110F8940F9210821182128213820F900FBEE4
S113112089809A80AB80BC801D821E821F821886B3
S11311300E94A51F6B017C01681979098A099B0922
S11311400E94A92520E030E04AE754E40E940125EA
S11311504B015C0160912009709121090FB6F8944C
S11311600F920F900FBE072E000C880B990B0E9454
S1131170AB2522E838EA4BE758E30E946026E09169
S11311802C21F0912D2120813181428153810E94B3
S11311908F24162F072F782E692EE0913621F09197
S11311A037210FB6F8940F92862F902FA72DB62DC6
S11311B080839183A283B3830F900FBE20E030E03D
S11311C0A901C501B4010E945B261816E4F44090FD
S11311D03421509035210FB6F8940F922D813E8121
S11311E04F815885612F702F872D962D0E948F2453
S11311F0A50194010E940125F20160837183828319
S113120093830F900FBEF10186859785A089B189DC
S11312100196A11DB11D86879787A08BB18B41E0F4
S113122050E060E070E0CE0101960E9443211D83EE
S11312300E837F826886460157017ACFCF93DF936E
S113124000D01F92CDB7DEB78C010E94A51F698321
S11312507A838B839C83A0E4B6E087E011968C9319
S1131260119784E015968C931597E0E0F8E081E0FF
S1131270808383E08183A6A3B7A310A611A612A638
S113128013A6818180638183E12C6894FF24F3F8A1
S11312900FB6F8940F92E0912A21F0912B218081CE
S11312A091810F900FBEF801828B938B992334F0B8
S11312B0F70180A791A712A613A60CC0F70110A6E8
S11312C011A6F80182899389919581959109F70175
S11312D082A793A7F80186859785A089B18901968D
S11312E0A11DB11D86879787A08BB18B41E050E08B
S11312F060E070E0CE0101960E944321C9CFCF93F4
S1131300DF9300D01F92CDB7DEB78C010E94A51FDA
S113131069837A838B839C83E0E6F6E09081D8012D
S113132052968C915297892B8083948152968C91FA
S11313305297892B848352968C91813021F488E1D1
S11313408093700605C0843019F488E18093720696
S11313500F2EF8E6EF2EF6E0FF2EF02DDD24D394C9
S1131360F701808180FD0BC0E0913A21F0913B218F
S11313700FB6F8940F92D0820F900FBE0AC0E0917E
S11313803A21F0913B210FB6F8940F9210820F90FE
S11313900FBED7018C9182FD0BC0E0913821F091F2
S11313A039210FB6F8940F92D0820F900FBE0AC065
S11313B0E0913821F09139210FB6F8940F92108200
S11313C00F900FBEF80186859785A089B189019693
S11313D0A11DB11D86879787A08BB18B45E050E096
S11313E060E070E0CE0101960E944321B9CFCF9313
S11313F0DF93CDB7DEB76297CDBFDEBF8C010E940D
S1131400A51F69837A838B839C8380E190E00E948B
S11314108B1889879A8780E1E6E0F0E2A985BA858E
S113142001900D928A95E1F7D12C6894CC24C2F8EE
S11314300F2EF4E63F2EF02D22242394D8011C967F
S11314408C91833009F4FDC028F4813009F47AC00A
S113145050F0C4C0853009F457C308F4C2C18436BF
S113146009F4CAC4FCC4E0912C21F0912D210FB6DB
S1131470F8940F9210821182128213820F900FBE81
S1131480F80112A613A614A615A60FB6F8940F9287
S11314900F900FBEE0912821F091292180818823AB
S11314A009F4D8C4E0912021F09121210FB6F894D9
S11314B00F9210820F900FBEE0912221F091232110
S11314C00FB6F8940F9210820F900FBEE0912A216C
S11314D0F0912B210FB6F8940F922CED30E020837D
S11314E031830F900FBE0FB6F8940F920F900FBE7A
S11314F0E0913821F09139218081882309F4ACC42A
S11315000FB6F8940F92E0913621F0913721808143
S11315109181A281B3810F900FBEE0912C21F091B3
S11315202D210FB6F8940F9280839183A283B38305
S11315300F900FBED8011C962C921C971D962C92CE
S1131540D12C8DC4E0912821F09129210FB6F89473
S11315500F9210820F900FBEE0912A21F0912B215F
S11315600FB6F8940F9224E23FEF208331830F905B
S11315700FBE0FB6F8940F920F900FBEE0913A2170
S1131580F0913B2180818823A9F00FB6F8940F9243
S1131590E0913621F091372180819181A281B3813C
S11315A00F900FBEF801828B938BA48BB58B82E0D6
S11315B0848785870FB6F8940F920F900FBEE09141
S11315C02021F09121218081882309F448C4D80185
S11315D01C961C921C971D961C9241C4E0912A21D2
S11315E0F0912B210FB6F8940F92108211820F9074
S11315F00FBE68EC70E080E090E00E94B0210FB66E
S1131600F8940F920F900FBEE0913A21F0913B2194
S11316108081882371F0E0912A21F0912B210FB66B
S1131620F8940F922CED30E0208331830F900FBE9D
S113163016C483E0D8011C968C931C971D968C933A
S11316400EC420E030E040E05FE3F8016289738972
S1131650848995890E946026D80156966D937D935E
S11316608D939C9359970FB6F8940F920F900FBED9
S1131670E0913621F09137212081318142815381DB
S11316800E948F244B015C01F80166A377A380A715
S113169091A722A533A544A555A50E9490242B010A
S11316A03C01D8019A966D937D938D939C939D975D
S11316B0E0902A21F0902B210FB6F8940F92F801B4
S11316C024A935A946A957A9C501B4010E946026D9
S11316D04B015C01D801D8962D913D914D915C91BF
S11316E0DB97C301B2010E9460269B01AC01C501D6
S11316F0B4010E9490240E947325F70160837183D2
S11317000F900FBE0FB6F8940F920F900FBEE0919A
S11317103A21F0913B21808181110CC00FB6F894DD
S11317200F920F900FBEE0913821F0913921808102
S1131730882389F0D8011696ED90FC9017976EE7F0
S113174070E2C7010E94C51466E0C7010E947E14BE
S1131750F80134863586E0912021F09121210FB6DD
S1131760F8940F920F900FBE80818823B1F00FB6CA
S1131770F8940F9210820F900FBEE0912221F09105
S113178023210FB6F8940F9210820F900FBED80148
S11317901C961C921C971D961C920FB6F8940F92DF
S11317A00F900FBEE0912621F0912721808188239C
S11317B019F0F801C486C5860FB6F8940F920F90FD
S11317C00FBEE0912421F09125218081882309F422
S11317D046C385E0D8011C968C931C971D968C9368
S11317E03EC30FB6F8940F920F900FBEE0912221E2
S11317F0F09123218081882319F0F80134863586FD
S1131800D11012C00FB6F8940F92E0913021F091EC
S1131810312180819181A281B3810F900FBEF801A3
S113182084AF95AFA6AFB7AFE0912621F091272101
S11318300FB6F8940F9210820F900FBE0FB6F89463
S11318400F920FB6F8940F92E0913621F091372160
S113185020813181428153812B873C874D875E876C
S11318600F900FBE0FB6F8940F92E0913421F091CF
S1131870352180819181A281B3818F87988BA98B37
S1131880BA8B0F900FBE0FB6F8940F92E0913021EF
S1131890F091312180809180A280B3800F900FBE9F
S11318A00FB6F8940F92E0912E21F0912F214080F1
S11318B05180628073800F900FBE0F900FBEA98578
S11318C0BA851D921D921D921C921397FD011482DC
S11318D015821682178218961D921D921D921C92D3
S11318E01B97FD011486158616861786D801DC968B
S11318F02D913D914D915C91DF97C501B4010E94FA
S11319008F246D837E838F8398872FE630EF45E89D
S11319105EE30E945B26882364F42FE630EF45E8FB
S11319205EEB6D817E818F8198850E94FC248823E3
S113193094F4F801E680F78065E970E2C7010E943B
S1131940C51466E0C7010E947E14D8011C963C921F
S11319501C971D963C92F80126893789408D518D3C
S11319606B857C858D859E850E948F242CEF38EABB
S113197048EC51EC0E9460266D837E838F839887A8
S113198026E636E642E351EC6F85788989899A899F
S11319900E9460269B01AC016D817E818F819885B8
S11319A00E9490246D837E838F83988726E53EE092
S11319B049E450E4C501B4010E948F242EE639E0C5
S11319C043EF51E40E9460269B01AC016D817E814E
S11319D08F8198850E9490244B015C0120E030E0C7
S11319E040E450E4C301B2010E9460269B01AC01B3
S11319F0C501B4010E949024905820E030E044E8EE
S1131A0052E40E9460264B015C0120E030E048EC87
S1131A1054E40E945B2618169CF020E030E048EC69
S1131A2054ECC501B4010E94FC2488238CF40F2ECD
S1131A30812C912CF8ECAF2EF4ECBF2EF02D08C0C5
S1131A400F2E812C912CF8ECAF2EF4E4BF2EF02D48
S1131A50E0902A21F0902B210FB6F8940F92C50143
S1131A60B4010E947325D7016D937C930F900FBE30
S1131A700FB6F8940F920F900FBEE0913A21F091B7
S1131A803B21808181110CC00FB6F8940F920F9006
S1131A900FBEE0913821F09139218081882391F0A3
S1131AA0F801E680F7806EE770E2C7010E94C51472
S1131AB066E0C7010E947E14D8011C963C921C97D4
S1131AC01D963C92E0912021F09121210FB6F894CB
S1131AD00F920F900FBE8081882309F4BFC10FB607
S1131AE0F8940F9210820F900FBEE0912221F09192
S1131AF023210FB6F8940F9210820F900FBEF801B5
S1131B0014861586D22CABC120E030E040EF53E4BC
S1131B10D8015A962D933D934D935C935D970E9403
S1131B20A51FF801668F778F80A391A30E94A51F3C
S1131B30D80192966D937D938D939C939597D296AD
S1131B402C92D297D3961C92F80183A9811187C154
S1131B500E94A51F4B015C01D80192966D937D9361
S1131B608D939C9395975E968D919D910D90BC91CC
S1131B70A02DA5019401281B390B4A0B5B0BCA014C
S1131B80B9010E94A925D8015A962D913D914D91F4
S1131B905C915D970E945B26882344F0F80182A93A
S1131BA0822582AB868E978EA0A2B1A2F80182A96B
S1131BB08823B9F020E030E040EC5FE36289738968
S1131BC0848995890E940125D80156966D937D9349
S1131BD08D939C935997F80112A613A614A615A6E3
S1131BE013C020E030E040E450E4628973898489C2
S1131BF095890E940125F801668B778B808F918FE0
S1131C0012A613A614A615A60FB6F8940F920F9059
S1131C100FBEE0913621F09137212081318142813C
S1131C205381F80166897789808D918D0E948F2474
S1131C304B015C01D80196966D937D938D939C9393
S1131C4099979A962D913D914D915C919D970E9403
S1131C5090242B013C01F80162A773A784A795A7E0
S1131C60E0902A21F0902B210FB6F8940F9224A92A
S1131C7035A946A957A9C501B4010E9460264B01A4
S1131C805C01F80120AD31AD42AD53ADC301B201E9
S1131C900E9460269B01AC01C501B4010E949024FE
S1131CA00E947325D7016D937C930F900FBE0FB6DE
S1131CB0F8940F92E0913021F0913121808091804D
S1131CC0A280B3800F900FBE20E030E040E450E4E7
S1131CD0C501B4010E945B2618169CF40FB6F89453
S1131CE00F920F900FBE23E333E343E550E4C501A5
S1131CF0B4010E94FC24882324F4F801C486C58618
S1131D0023AA0FB6F8940F920F900FBEE0913A21D8
S1131D10F0913B21808181110CC00FB6F8940F9291
S1131D200F900FBEE0913821F091392180818823F2
S1131D3089F0D8011696ED90FC9017976EE770E243
S1131D40C7010E94C51466E0C7010E947E14F80111
S1131D50348635860FB6F8940F920F900FBEE0913B
S1131D603621F0913721D80152962D913D914D9114
S1131D705C91559760817181828193810E940125D4
S1131D804B015C012DEC3CEC4CE45FE30E945B26D0
S1131D9018167CF00FB6F8940F920F900FBE2DEC2E
S1131DA03CEC4CE45EE3C501B4010E94FC248823AE
S1131DB094F4F801E680F7806CEA70E2C7010E94AF
S1131DC0C51466E0C7010E947E14D8011C963C929B
S1131DD01C971D963C920FB6F8940F920F900FBE6D
S1131DE0E0912221F09123218081882309F4ACCE53
S1131DF0F80134863586A8CEE0912A21F0912B2172
S1131E000FB6F8940F92108211820F900FBEE091DA
S1131E102021F09121210FB6F8940F920F900FBE5C
S1131E2080818823E1F00FB6F8940F9210820F900E
S1131E300FBEE0912221F09123210FB6F8940F9266
S1131E4010820F900FBED8011C961C921C971D96F1
S1131E501C9205C0D12C03C0D12C01C0D22CF80196
S1131E6086859785A089B1890196A11DB11D8687B4
S1131E709787A08BB18B41E050E060E070E0CE0129
S1131E8001960E944321DACADC01ED91FC910280A3
S1131E90F381E02D6CE019950895CF93DF93EC0165
S1131EA0A98DBA8DEB8DFC8D81E04D915C912081E3
S1131EB031814217530709F480E0DF91CF910895EF
S1131EC0CF93DF93FC01C18DD28D28813981A38DFD
S1131ED0B48D4D915C9124173507E9F3A789B08D32
S1131EE00D90BC91A02DA20FB31F8C912F5F3F4F7B
S1131EF0288339832436310528F0018CF28DE02DB6
S1131F001082118290E0DF91CF910895DC01509608
S1131F10ED91FC915197808154964C915497842370
S1131F2029F009C02150310919F412C021E23EE41C
S1131F3090819423B9F3908156968C915697892B6E
S1131F4080831E96ED91FC911F97608381E0089534
S1131F5080E00895CF93DF93CCE3D1E28AE08A83D3
S1131F601B8283E08D831C821E821F828AE690E29C
S1131F70888399831E861F8640E061E080E20E9488
S1131F80711C888799878AE090E0A0E0B0E08A8796
S1131F909B87AC87BD87DF91CF910895AF92BF92A5
S1131FA0DF92EF92FF920F931F93CF93DF93CDB7FE
S1131FB0DEB76E97CDBFDEBFE0E6F6E080E1818359
S1131FC08583F894E0E5F0E08081826080838181FC
S1131FD081FFFDCF809140009FB79E8FF8941BBE78
S1131FE0887F816020E430E0F90108ED04BF80833C
S1131FF08E8D8FBFE0E5F0E080818E7F80839DEF42
S113200088ED08B618BE84BF9093800008BE81E0B6
S113201090E00E948B1880933A2190933B2181E0B9
S113202090E00E948B18809338219093392184E0AA
S113203090E00E948B18809336219093372184E09E
S113204090E00E948B18809334219093352182E094
S113205090E00E948B1882E090E00E948B1882E04E
S113206090E00E948B18809332219093332184E076
S113207090E00E948B18809330219093312184E06A
S113208090E00E948B1880932E2190932F2184E05E
S113209090E00E948B1880932C2190932D2182E054
S11320A090E00E948B1880932A2190932B2181E049
S11320B090E00E948B18809328219093292181E03D
S11320C090E00E948B18809326219093272181E031
S11320D090E00E948B18809324219093252181E025
S11320E090E00E948B18809322219093232181E019
S11320F090E00E948B1880932021909321218AE5FF
S113210090E289839A838AE08B831C8243E04E8326
S11321101D821F821886A0E4B6E0AB87BC8786E0E8
S11321208D870F2EF7E0DF2EF02DDE86E0EBF8E052
S1132130EF87F88B81EB98E0898B9A8B84EB98E09E
S11321408B8B9C8B2E8514965C91149781E090E088
S1132150BC0102C0660F771F2A95E2F79B01252B6D
S113216014962C932E85AB85BC855C91BC0102C072
S1132170660F771F2A95E2F79B01252B2C933D854B
S1132180AB85BC852C9102C0880F991F3A95E2F764
S11321908095909582238C936894BB24B4F8B38281
S11321A0458380EF878381E2868388E1848380E8A6
S11321B08E8B80E48F8B80E28D8BEF85F889808114
S11321C080818AE190E289839A8382E691E2888F12
S11321D0998F80E691E28A8F9B8F8EE591E28C8FB6
S11321E09D8F84E690E00E948B18809362219093E7
S11321F06321EA8DFB8D10821182EC8DFD8D10829E
S1132200118267E0CE0101960E947E147C0167EC86
S113221070E20E94C51466E0C7010E947E1466E065
S11322200E947E1482E190E00E948B187C018E0152
S11322300F5F1F4F24E031E040E066EE70E20E9441
S1132240C4178AE290E2D7018D939C9382E190E0D7
S11322500E948B187C0124E031E044E06EEE70E2D1
S11322600E94C41782E390E2F7018083918382E1A4
S113227090E00E948B187C0124E031E044E065EF9B
S113228070E20E94C4178AE390E2D7018D939C9375
S113229080E590E00E948B187C0124E031E044E06A
S11322A06CEF70E20E94C41782E490E2F70180832D
S11322B0918316A217A210A611A612A613A614A6FD
S11322C015A680E090E8ABEBB5E484AB95ABA6AB88
S11322D0B7AB80E090E0A0E4B0E480AF91AFA2AFF0
S11322E0B3AFE05CFF4FDF011D92BA94E9F784E1DC
S11322F090E00E948B187C0124E031E043E064E02C
S113230071E20E94C4178AE490E2F701808391830A
S1132310128A138A83E190E00E948B187C0124E0E6
S113232031E042E06BE071E20E94C4170F2EF2E547
S1132330AF2EF0E2BF2EF02DD701AD92BC921197D3
S113234081E052968C9383E190E00E948B187C018B
S113235024E031E041E062E171E20E94C417F70138
S1132360A082B18284E0828BD092A20078940E94F1
S11323706C1F80E090E06E96CDBFDEBFDF91CF9101
S11323801F910F91FF90EF90DF90BF90AF90089551
S11323901F920F920FB60F92112408B60F9218BE17
S11323A00BB60F921BBE2F933F938F939F93EF9384
S11323B0FF932091A00AE0915021F0915121809146
S11323C04C2190914D21E80FF91F208380914C21DD
S11323D090914D2101968436910560F480934C21AF
S11323E090934D2120914E2130914F2182179307D4
S11323F0F1F40CC010924C2110924D2180914E2189
S113240090914F211816190691F40EC00196843646
S1132410910528F480934E2190934F2108C0109287
S11324204E2110924F2103C081E090E0F3CFFF9141
S1132430EF919F918F913F912F910F900BBE0F9031
S113244008BE0F900FBE0F901F9018951F920F9209
S11324500FB60F92112408B60F9218BE0BB60F9246
S11324601BBE2F933F938F939F93EF93FF932091E2
S1132470B009E0915621F091572180915221909119
S11324805321E80FF91F2083809152219091532109
S113249001968436910560F48093522190935321E0
S11324A0209154213091552182179307F1F40CC0E7
S11324B010925221109253218091542190915521D0
S11324C01816190691F40EC001968436910528F465
S11324D0809354219093552108C010925421109256
S11324E0552103C081E090E0F3CFFF91EF919F91DC
S11324F08F913F912F910F900BBE0F9008BE0F90BC
S11325000FBE0F901F9018951F920F920FB60F9247
S1132510112408B60F9218BE0BB60F921BBE2F9350
S11325203F938F939F93EF93FF932091A009E091A2
S11325305C21F0915D218091642190916521E80FE7
S1132540F91F208380915821909159210196843656
S1132550910560F4809358219093592120915A2138
S113256030915B2182179307F1F40CC0109258212B
S11325701092592180915A2190915B2118161906C5
S113258091F40EC001968436910528F480935A2163
S113259090935B2108C010925A2110925B2103C0D2
S11325A081E090E0F3CFFF91EF919F918F913F9164
S11325B02F910F900BBE0F9008BE0F900FBE0F907F
S11325C01F9018951F920F920FB60F92112408B600
S11325D00F9218BE0BB60F921BBE2F933F938F938F
S11325E09F93EF93FF932091B008E0916221F091C3
S11325F0632180915E2190915F21E80FF91F208370
S113260080915E2190915F2101968436910560F45A
S113261080935E2190935F2120916021309161210C
S113262082179307F1F40CC010925E2110925F217F
S113263080916021909161211816190691F40EC0C1
S113264001968436910528F480936021909361214A
S113265008C0109260211092612103C081E090E0D3
S1132660F3CFFF91EF919F918F913F912F910F9015
S11326700BBE0F9008BE0F900FBE0F901F901895C1
S11326801F920F920FB60F92112408B60F9218BE24
S11326900BB60F921BBE2F933F938F939F93EF9391
S11326A0FF932091A008E0916821F0916921809125
S11326B0642190916521E80FF91F208380916421A2
S11326C09091652101968436910560F4809364218C
S11326D09093652120916621309167218217930799
S11326E0F1F40CC01092642110926521809166214E
S11326F0909167211816190691F40EC0019684363C
S1132700910528F4809366219093672108C0109264
S113271066211092672103C081E090E0F3CFFF911E
S1132720EF919F918F913F912F910F900BBE0F903E
S113273008BE0F900FBE0F901F901895CF92DF9296
S1132740EF92FF920F931F93CF93DF93CDB7DEB732
S11327502997CDBFDEBF8C01E62EDC0113968C9148
S11327601397882341F0ED91FC910280F381E02DD1
S1132770C801199556C0F8014281423019F5689490
S1132780CC24C3F8D12C6894FF24F7F88E2D8F2124
S113279051F0D801ED91FC910280F381E02D61E3C9
S11327A0C801199509C0D801ED91FC910280F3810B
S11327B0E02D60E3C8011995F694B1E0CB1AD10875
S11327C029F72FC04031F9F462956F700190F081C0
S11327D0E02D0280F381E02D6A3010F0695C01C0C5
S11327E0605DC80119956E2D6F70D801ED91FC9153
S11327F00280F381E02D6A3010F0695C01C0605DF5
S1132800C80119950EC050E0BE016F5F7F4F8E2D39
S113281090E00E945A24BE016F5F7F4FC8010E945E
S1132820C514C8012996CDBFDEBFDF91CF911F919A
S11328300F91FF90EF90DF90CF9008950895089541
S113284080E0089580E090E0089581E0089508957F
S11328500F93CF93DF931F92CDB7DEB700E02FEF36
S11328603FEFA901BE016F5F7F4FFC018085918519
S11328700E943A1D813019F4898190E002C08FEFE3
S11328809FEF0F90DF91CF910F910895FC01808508
S113289091850E94FE1D91E0811101C090E0892F75
S11328A008950F93CF93DF931F92CDB7DEB769835B
S11328B0FC01228533854485558500E0BE016F5FA8
S11328C07F4F808591850E949F1C91E0811101C0FA
S11328D090E0892F0F90DF91CF910F910895EC0133
S11328E0E881F9810190F081E02D19951A821B820B
S11328F06FEF7FEFCB010E94B021FACFCF93DF932C
S1132900EC01862F90E08B309105D8F5FC018827E7
S1132910E55AFE4F8F4F0C94DD2682E08A8331C046
S113292088E08A832EC08AE08A832BC080E18A8370
S113293028C081E08B8325C01B8223C0E881F981F4
S11329400280F381E02D6DE0CE011995E881F981D3
S11329500280F381E02D6AE0CE01199512C0E8816E
S1132960F9810284F385E02DCE0119950AC0E8812E
S1132970F9810084F185E02DCE01199502C081E032
S11329808C83CE01DF91CF9108950F931F93CF9342
S1132990DF938C01FB01DC0114968C91811104C03E
S11329A06081611117C023C0D80114961C92EB01F9
S11329B0219664916623D9F0D801ED91FC910280AF
S11329C0F381E02DC8011995FE01649121966111EE
S11329D0F3CF0DC0EF012196D801ED91FC91028057
S11329E0F381E02DC801199569916111F5CFDF914B
S11329F0CF911F910F910895DF92EF92FF920F9361
S1132A001F93CF93DF93CDB7DEB7A197CDBFDEBFC2
S1132A108C01D42EE52EF62E972FF8012281203139
S1132A2021F0283011F0223071F4692FC8010E947E
S1132A309E136F2D0E949E136E2D0E949E136D2D6A
S1132A400E949E130FC030E0AE014F5F5F4F6D2DAB
S1132A507E2D8F2D0E942D24BE016F5F7F4FC801F4
S1132A600E94C514C801A196CDBFDEBFDF91CF91EE
S1132A701F910F91FF90EF90DF900895FF920F93B5
S1132A801F93CF93DF93CDB7DEB76197CDBFDEBF82
S1132A908C01F62E972FF8014281403121F0483005
S1132AA011F0423041F4692FC8010E949E136F2D2A
S1132AB00E949E130DC050E0BE016F5F7F4F8F2DAB
S1132AC00E945A24BE016F5F7F4FC8010E94C51443
S1132AD0C8016196CDBFDEBFDF91CF911F910F91E9
S1132AE0FF9008958F929F92AF92BF92CF92DF9200
S1132AF0EF92FF920F931F93CF93DF93EC018B011F
S1132B008A819B810E94B31FBC01C8010E94C51425
S1132B10D801ED91FC910280F381E02D69E0C801B8
S1132B2019958A819B810E94B31FFC0101900020AA
S1132B30E9F73197E81BF90B389748F4D801ED9180
S1132B40FC910280F381E02D69E0C8011995CE84DF
S1132B50DF84E888F988A884B9848A819B810E94EB
S1132B602623982E8C848A819B810E945E1F682F65
S1132B70C8010E949E136AE00E947E14EC0167ED76
S1132B8076E00E94C514682DCE010E949E136AE06F
S1132B900E947E14EC0165ED76E00E94C514692D57
S1132BA0CE010E949E136AE00E947E14EC0163ED44
S1132BB076E00E94C514B501CE010E943E156AE07C
S1132BC00E947E14EC0161ED76E00E94C5146AE077
S1132BD0CE010E947E14EC016FEC76E00E94C514D5
S1132BE0B701A601CE010E94FC14DF91CF911F9181
S1132BF00F91FF90EF90DF90CF90BF90AF909F9098
S1132C008F9008955F926F927F928F929F92AF926E
S1132C10BF92CF92DF92EF92FF920F931F93CF93C5
S1132C20DF935C013B014A01122F502E63E0CA017D
S1132C300E947E14A614B70408F07CC0650184E1E8
S1132C40C80ED11C00E07501B501C4010E943E15F7
S1132C506AE00E947E1469EE76E00E94C514112396
S1132C6009F46DC0002309F46AC06AE0C4010E943B
S1132C707E1464EE76E00E94C51461C0112371F0E5
S1132C8001110CC08881851549F06AE0C4010E94D5
S1132C907E146FED76E00E94C51401E06991C401D1
S1132CA00E949E13DC01ED91FC910280F381E02DE2
S1132CB060E21995CC16DD0609F7112389F06AE064
S1132CC0C4010E947E14EC0169ED76E00E94C514F3
S1132CD0E881F9810280F381E02D60E2CE0119954B
S1132CE0F70161917F0180EE860F8F3548F4D4019E
S1132CF0ED91FC910280F381E02DC401199509C086
S1132D00D401ED91FC910280F381E02D6EE2C401C7
S1132D101995CE14DF0421F7B4E1AB0EB11C66E0C3
S1132D20C4010E947E14E4E1CE0ED11CA614B704A3
S1132D3008F489CF62E0C4010E947E1402C0E70156
S1132D409DCFDF91CF911F910F91FF90EF90DF9076
S1132D50CF90BF90AF909F908F907F906F905F9037
S1132D600895CF93DF93EC010FB6F8940F928091FE
S1132D702008909121088C839D830E94A51F68835D
S1132D8079838A839B830F900FBECE01DF91CF910D
S1132D9008958F929F92AF92BF92EF92FF920F93FA
S1132DA01F93CF93DF93CDB7DEB72F97CDBFDEBF91
S1132DB08C017B01DB016D917D918D919C910F2E96
S1132DC0F8EE8F2EF3E09F2EA12CB12CF02DA5014F
S1132DD094010E94EC23BA01A901C8010E94FC14C9
S1132DE0D801ED91FC910280F381E02D6EE2C801DF
S1132DF01995F7016081718182819381A501940104
S1132E000E94EC239B01AC0160E472E48FE090E04B
S1132E100E94CD26A50194010E94EC2349015A0188
S1132E20F701A481B58120E432E44FE050E00E9430
S1132E30E62620E038E448EE51E00E94EC23C50188
S1132E40B401620F731F841F951F7E01F7E0EF0E1C
S1132E50F11C9E012F5F3F4F59012AE030E040E012
S1132E6050E00E94CD23E62F288739874A875B8765
S1132E70688579858A859B8520E32E0FD7012E935B
S1132E807D01AA15BB0549F71F82BE016F5F7F4F05
S1132E90C8010E94C514C8012F96CDBFDEBFDF91C3
S1132EA0CF911F910F91FF90EF90BF90AF909F90A3
S1132EB08F9008950F931F93CF93DF93EC018B01B1
S1132EC0E881F9810280F381E02D199566E0C8015B
S1132ED00E947E148C819D81009719F0B8010E9494
S1132EE05A17DF91CF911F910F910895CF92DF92DE
S1132EF0EF92FF920F931F93CF93DF93EC017B012B
S1132F008A819B810E94B31F6C016AE0C7010E9401
S1132F107E148C016AEC76E00E94C5146AE0C80154
S1132F200E947E148C0163EC76E00E94C514B60105
S1132F30C8010E94C5146AE0C8010E947E148C0175
S1132F406DEB76E00E94C51466E0C8010E947E1411
S1132F508A859B85E885F98501E121E0A701BC010B
S1132F608E1B9F0B0E9402168C819D81009719F085
S1132F70B7010E947617DF91CF911F910F91FF90B7
S1132F80EF90DF90CF9008954F925F926F927F926F
S1132F908F929F92AF92BF92CF92DF92EF92FF9265
S1132FA00F931F93CF93DF93CDB7DEB72A97CDBF8F
S1132FB0DEBF4C01290138018AE790E2F4018083E5
S1132FC09183FB018081882369F0DE01119631969B
S1132FD090E002C0993039F09F5F8D938191811107
S1132FE0F9CF01C090E0E1E0F0E0EC0FFD1FE90F44
S1132FF0F11D10827401F2E0EF0EF11CA12CB12C32
S1133000C12CD12C042F9401A201BE016F5F7F4F0C
S11330108FE694E10E945C1EF4016682778240860A
S1133020518620916A2130916B21248335838092CB
S11330306A2190926B21148615864090D631509067
S1133040D731FFEF4F1A5F0A4092D6315092D731F1
S1133050F4014286538616861786108A118A6114F3
S1133060710409F444C0813079F56AE0C3010E9417
S11330707E147C0167EB76E00E94C514BE016F5F8D
S11330807F4FC7010E94C5146AE0C7010E947E14E5
S11330907C016EEA76E00E94C5146AE0C7010E94D2
S11330A07E147C0160EA76E00E94C51463E0C701E7
S11330B00E947E14B2010E943E1562E00E947E14BA
S11330C066E00E947E1413C06AE0C3010E947E146D
S11330D04C016BE876E00E94C514BE016F5F7F4F20
S11330E0C4010E94C51466E0C4010E947E142A969D
S11330F0CDBFDEBFDF91CF911F910F91FF90EF9075
S1133100DF90CF90BF90AF909F908F907F906F9003
S11331105F904F9008950F931F93CF93DF93EC012B
S11331200E949F1F80916C2181111DC0A1E7B1E213
S1133130E5E7F1E2ED93FC93119712961D921C9230
S11331401397ADE6B1E28FEF9FE012968D939C93B7
S113315013971D921C92119782839383A083B1834A
S113316081E080936C21209709F45FC09E012B5F5E
S11331703F4F2496CE3FDF4008F05AC0E0917121C2
S1133180F0917221A1E7B1E202C0DF01FC0182816A
S113319093818217930720F4808191810097A9F786
S11331A0C1E2ED36FC0709F446C0CD91DC911197DC
S11331B08E010B5F1F4F808191818D939C9382813F
S11331C09381821B930B8B30910510F1BF01620F29
S11331D0731FDB0112968D939C9313972283338381
S11331E012964D915C91139781E791E201C0CD0154
S11331F0EC01A881B98112962D913C911397241763
S11332003507A8F3EB01A883B983DC016D937C93A4
S1133210809100209091012022813381821B930BA5
S1133220809300209093012008C000E010E005C0C6
S113323000E010E002C000E010E00E94C120C801DC
S1133240DF91CF911F910F9108950F931F93CF9307
S1133250DF93009741F1EC018C01055011090E94A4
S11332609F1FF80142815381A1E7B1E201C0DF0150
S1133270ED91FC9111972281338124173507B8F31E
S11332802597E883F9830D931C93209100203091B6
S113329001208A819B81820F931F80930020909349
S11332A001200E94C120DF91CF911F910F910895B9
S11332B080910020909101200895FC010396818360
S11332C092834FEF5FEFBA01438354836583768320
S11332D0878390878187928710820895FC011286E4
S11332E013860895CF93DF93FC01DB0121813281A2
S11332F0E9018C819D8114968D939C93159781810E
S1133300928116968D939C9317978C819D81EC01E5
S11333106E837F83E9016C837D83618372831A9654
S1133320ED93FC931B9780818F5F8083DF91CF9116
S113333008950F931F93CF93DF93EB0108811981B5
S11333402A813B810F3F4FEF14072407340731F4E0
S1133350DC011996ED91FC911A971FC0FC0133967C
S1133360DC0117964D915C911897DA014D915D91AE
S11333706D917C91041715072607370770F00480B8
S1133380F581E02DA481B5814D915D916D917C9184
S1133390041715072607370790F7A481B581AC8376
S11333A0BD831696CD93DC931797EE83FF83C48376
S11333B0D5838A879B87FC0120812F5F2083DF913F
S11333C0CF911F910F910895FC01A481B58186814D
S11333D0978116968D939C931797A681B7818481C4
S11333E0958114968D939C931597A285B385119618
S11333F08D919C911297E817F90731F48681978192
S113340011968D939C931297128613868C918150FA
S11334108C9308958093D6319093D73131E1FC0198
S11334203083319722E220833197A3E3A08331973D
S1133430608331977083319710823197108231976E
S113344060E860833197108231971082319710823F
S1133450319762E06083319763E06083319764E081
S11334606083319765E06083319766E060833197CC
S113347067E06083319768E06083319769E0608337
S1133480319760E1608331973083319732E1308343
S1133490319733E13083319734E13083319735E12B
S11334A03083319736E13083319737E13083319778
S11334B038E13083319739E13083319730E230831A
S11334C0319731E2308331972083319723E220838F
S11334D03197408331975083319726E22083319787
S11334E027E22083319728E22083319729E2208341
S11334F0319720E32083319721E32083899708952E
S11335008CE78093290A8FEF8093280A81E08093C7
S1133510000A91E19093010A8093070AA091D431A3
S1133520B091D531CD91CDBFDD91DEBFFF91EF914B
S1133530DF91CF91BF91AF919F918F917F916F91C7
S11335405F914F913F912F911F910F91FF90EF90B9
S1133550DF90CF90BF90AF909F908F907F906F90AF
S11335605F904F903F902F901F900F900CBE0F9044
S11335700BBE0F900FBE0F90089508950F920FB6D3
S1133580F8940F920BB60F920CB60F921F9211245F
S11335902F923F924F925F926F927F928F929F925F
S11335A0AF92BF92CF92DF92EF92FF920F931F934D
S11335B02F933F934F935F936F937F938F939F9337
S11335C0AF93BF93CF93DF93EF93FF93A091D43145
S11335D0B091D5310DB60D920EB60D920E94DE213A
S11335E0A091D431B091D531CD91CDBFDD91DEBF65
S11335F0FF91EF91DF91CF91BF91AF919F918F9107
S11336007F916F915F914F913F912F911F910F91F6
S1133610FF90EF90DF90CF90BF90AF909F908F90EE
S11336207F906F905F904F903F902F901F900F90DE
S11336300CBE0F900BBE0F900FBE0F9008950F920B
S11336400FB6F8940F920BB60F920CB60F921F920E
S113365011242F923F924F925F926F927F928F929A
S11336609F92AF92BF92CF92DF92EF92FF920F930D
S11336701F932F933F934F935F936F937F938F93F6
S11336809F93AF93BF93CF93DF93EF93FF93A09157
S1133690D431B091D5310DB60D920EB60D920E9473
S11336A0C01F0E94DE21A091D431B091D531CD91BB
S11336B0CDBFDD91DEBFFF91EF91DF91CF91BF913F
S11336C0AF919F918F917F916F915F914F913F91B6
S11336D02F911F910F91FF90EF90DF90CF90BF90AB
S11336E0AF909F908F907F906F905F904F903F909E
S11336F02F901F900F900CBE0F900BBE0F900FBE1B
S11337000F9008950E941F1B1895CF93DF93EC012F
S113371088A181110BC088819981892BE1F58A8167
S11337209B810E9499231A821B8235C0411117C0C4
S1133730482F50E08C819D810E940E2428A18C8109
S11337409D81820F911D8C839D832A813B818217E9
S1133750930708F1888199818C839D831CC0482F2D
S113376050E08E819F810E940E2488A190E0919563
S1133770819591092E813F81280F391F2E833F8324
S1133780488159812417350730F42A813B81820FFF
S1133790931F8E839F838E8D8F5F8E8FDF91CF914A
S11337A00895FC01808191810097A1F040A150E02F
S11337B026813781240F351F26833783A281B38165
S11337C02A173B0710F086839783CB0166817781A4
S11337D00E940E2408950F931F93CF93DF93EC015F
S11337E00FB6F8940F928AA11816B4F48B8981113C
S11337F005C012C08B89811104C00EC08E010D5EFC
S11338001F4FC8010E94652281110E9422238AA1B0
S113381081508AA3181674F38FEF8AA30F900FBEFA
S11338200FB6F8940F9289A11816B4F48885811103
S113383005C012C08885811104C00EC08E01085FC6
S11338401F4FC8010E94652281110E94222389A171
S1133850815089A3181674F38FEF89A30F900FBEBC
S1133860DF91CF911F910F9108951F93CF93DF9311
S1133870613059F0FC012389308531112CC011E0ED
S1133880211110E0211128C001C011E0EC01488190
S1133890598128A130E06F8D629FC001639F900D14
S11338A01124BA01680F791F6A837B831E8E4C83AF
S11338B05D83821B930B840F951F8E839F838FEFF1
S11338C089A38AA3CE0108960E945D19CE0143966E
S11338D00E945D1901C010E0812FDF91CF911F91EB
S11338E008950F931F93CF93DF93882301F1062F3D
S11338F0182F83E290E00E948B18EC01892BC9F009
S1133900109FC001112401960E948B18888399830B
S1133910892B39F01F8F08A361E0CE010E94351C6A
S113392008C0CE010E942519C0E0D0E002C0C0E06A
S1133930D0E0CE01DF91CF911F910F910895AF9206
S1133940BF92CF92DF92EF92FF920F931F93CF9388
S1133950DF93CDB7DEB72997CDBFDEBF7C015B0116
S11339602E833F834887598710E06C0188E0C80E96
S1133970D11C0FB6F8940F92F701968D878D981786
S1133980A8F4402FB501C7010E94851BF701838964
S1133990882341F0C70143960E946522813011F4C7
S11339A00E94BE1A0F900FBE81E056C08E819F8187
S11339B0A885B985892B8A2B8B2B21F40F900FBEF8
S11339C080E04AC0111105C0CE0101960E94A422D4
S11339D011E00F900FBE0E949F1F0FB6F8940F9234
S11339E0F70181A18F3F09F411A2F70182A18F3F52
S11339F009F412A20F900FBEBE016A5F7F4FCE0181
S1133A0001960E94B522811121C00FB6F8940F923D
S1133A10F701968D0F900FBE878D981311C04E81BC
S1133A205F8168857985C6010E943B22C7010E9497
S1133A30EB1B0E94C12081119CCF0E94BE1A99CF1A
S1133A40C7010E94EB1B0E94C12093CFC7010E94B3
S1133A50EB1B0E94C12080E02996CDBFDEBFDF9121
S1133A60CF911F910F91FF90EF90DF90CF90BF9077
S1133A70AF900895AF92BF92CF92DF92EF92FF92F0
S1133A800F931F93CF93DF93CDB7DEB72997CDBFA5
S1133A90DEBF7C015B012E833F834887598710E09A
S1133AA06C0183E1C80ED11C0FB6F8940F92F70194
S1133AB0868D882399F1C680D780B501C7010E94FD
S1133AC0D11B01111AC0F701868D8150868F808128
S1133AD09181892B29F40E943F23F70182839383E8
S1133AE0F70180858823B1F0C70108960E946522FA
S1133AF0813081F40E94BE1A0DC0F701C682D782BC
S1133B008389882339F0C70143960E946522811175
S1133B100E94BE1A0F900FBE81E062C08E819F8109
S1133B20A885B985892B8A2B8B2B21F40F900FBE86
S1133B3080E056C0111105C0CE0101960E94A42256
S1133B4011E00F900FBE0E949F1F0FB6F8940F92C2
S1133B50F70181A18F3F09F411A2F70182A18F3FE0
S1133B6009F412A20F900FBEBE016A5F7F4FCE010F
S1133B7001960E94B52281112DC00FB6F8940F92C0
S1133B80F701868D0F900FBE81111EC08081918137
S1133B90892B49F40FB6F8940F92828193810E9485
S1133BA044230F900FBE4E815F8168857985C601DD
S1133BB00E943B22C7010E94EB1B0E94C12081117D
S1133BC073CF0E94BE1A70CFC7010E94EB1B0E94E4
S1133BD0C1206ACFC7010E94EB1B0E94C12080E074
S1133BE02996CDBFDEBFDF91CF911F910F91FF903A
S1133BF0EF90DF90CF90BF90AF9008950FB6F894F8
S1133C000F92FC01868D0F900FBE0895C8EAD1E390
S1133C1088818230E8F30E94BE1AFACFCF92DF92F5
S1133C20EF92FF926B017C01E091D431F091D53198
S1133C30628373838483958380917C3190917D31F9
S1133C40A0917E31B0917F31C816D906EA06FB06F1
S1133C5068F46091D4317091D53180918E31909116
S1133C608F316E5F7F4F0E94991921C06091D431CA
S1133C707091D53180919031909191316E5F7F4FE9
S1133C800E9499198091022090910320A091042010
S1133C90B0910520C816D906EA06FB0640F4C09286
S1133CA00220D0920320E0920420F0920520FF909D
S1133CB0EF90DF90CF9008954F925F926F927F9232
S1133CC08F929F92AF92BF92CF92DF92EF92FF9228
S1133CD00F931F93CF93DF935C014B013A012901AA
S1133CE088E290E00E948B18EC01892B09F4D4C07F
S1133CF0C114D10409F0CCC0C3010E948B188B8F6E
S1133D009C8F009721F4CE010E942519C5C0A30100
S1133D1061E170E00E9417249301215031098B8DD9
S1133D209C8D3C01620E731E4AE050E0B401CE014A
S1133D304D960E941E241EA2102F043008F013E09A
S1133D401A8F1FA36E0122E0C20ED11CC6010E946D
S1133D506E19CE010E960E946E19CA87DB8784E025
S1133D6090E0A0E0B0E0811B9109A109B1098E8720
S1133D709F87A88BB98BCE8BDF8BA201B501C301C2
S1133D800E940A1A88839983E114F10419F0F70157
S1133D90C083D1830FB6F8940F92809180318F5FE6
S1133DA0809380318091D4319091D531892B89F5DC
S1133DB0C093D431D093D531809180318130C1F515
S1133DC088EA91E30E945D1983EB91E30E945D19F7
S1133DD08EEB91E30E945D1989EC91E30E945D19D9
S1133DE08DE991E30E945D1982E991E30E945D19D6
S1133DF083E891E30E945D198DE991E3809390310A
S1133E009093913182E991E380938E3190938F3135
S1133E100FC08091793181110BC0E091D431F091C0
S1133E20D531828D081720F0C093D431D093D53189
S1133E308A8D90917B31981710F480937B31909107
S1133E4074319F5F9093743190917A31981710F484
S1133E5080937A31FBE08F9FC0011124B60188550D
S1133E609E4C0E9472190F900FBE80917931882365
S1133E7059F0E091D431F091D531828D801730F42E
S1133E800E94BE1A81E009C081E007C081E005C03C
S1133E90CB8EDC8EC6013BCF8FEFDF91CF911F918C
S1133EA00F91FF90EF90DF90CF90BF90AF909F90D5
S1133EB08F907F906F905F904F9008950FB6F89415
S1133EC00F92009721F48091D4319091D5310F90C5
S1133ED00FBEFC01828D0895AF92BF92CF92DF9204
S1133EE0EF92FF920F93A12CB12CC12CD12C0F2E49
S1133EF0F1E8EF2EF1E3FF2EF02D00E020E030E0BA
S1133F0044E650E06AE171E286E09EE10E945C1EB4
S1133F10813069F4F8948093793110927C31109255
S1133F207D3110927E3110927F310E94801A0F9160
S1133F30FF90EF90DF90CF90BF90AF900895809165
S1133F4078318F5F8093783108950FB6F8940F928B
S1133F5060917C3170917D3180917E3190917F317F
S1133F600F900FBE0895009721F48091D431909161
S1133F70D5314D9608958091813190918231089583
S1133F80FF920F931F93CF93DF9380917831811128
S1133F90EDC080917C3190917D31A0917E31B091C2
S1133FA07F310196A11DB11D80937C3190937D31A9
S1133FB0A0937E31B0937F3180917C3190917D319B
S1133FC0A0917E31B0917F31892B8A2B8B2BF1F517
S1133FD0809190319091913120918E3130918F3137
S1133FE0209390313093913180938E3190938F311F
S1133FF0809175318F5F80937531E0919031F091AC
S11340009131808181110CC08FEF9FEFDC0180938F
S1134010022090930320A0930420B093052016C09F
S1134020E0919031F09191310780F085E02D00848A
S1134030F185E02D82819381A481B5818093022052
S113404090930320A0930420B093052040917C31E9
S113405050917D3160917E3170917F318091022049
S113406090910320A0910420B0910520481759078E
S11340706A077B0708F47FC0E0919031F091913199
S113408080818823F9F0E0919031F091913107809B
S1134090F085E02DC085D1858A819B81AC81BD816D
S11340A040917C3150917D3160917E3170917F31AE
S11340B0481759076A077B0758F10F2EFBE0FF2EBC
S11340C0F02D2FC08FEF9FEFDC018093022090939F
S11340D00320A0930420B09305204DC0E0919031BB
S11340E0F09191310780F085E02DC085D1858A81DA
S11340F09B81AC81BD8140917C3150917D31609137
S11341007E3170917F31481759076A077B0748F45D
S11341108093022090930320A0930420B093052061
S11341202AC08E010E5F1F4FC8010E94E419888DBA
S1134130998D892B21F0CE010E960E94E4198A8D67
S113414090917A31981710F480937A31F89EC001D7
S11341501124B80188559E4C0E947219E091903147
S1134160F091913180818111B9CFACCF80917731B9
S11341708F5F80937731DF91CF911F910F91FF90E3
S11341800895CF92DF92EF92FF920F931F93CF93F4
S1134190DF930FB6F8940F92809178318150809319
S11341A0783180917831811160C0809180318111A2
S11341B02CC05EC0D7011796ED91FC911897C0856D
S11341C0D185CE010E960E94E4198E010E5F1F4F19
S11341D0C8010E94E4198A8D90917A31981710F4DD
S11341E080937A31D89EC0011124B80188559E4C21
S11341F00E947219E091D431F091D5319A8D828D5B
S1134200981770F0CC24C3940BC0C12C0F2EF3E884
S1134210EF2EF1E3FF2EF02D0F2EFBE0DF2EF02D1D
S1134220F70180818111C6CF80917731882381F095
S113423080917731882399F00E94C01F8091773153
S1134240815080937731809177318111F5CF07C008
S1134250F1E0CF1621F080917631813041F4109253
S113426076310E94BE1A81E003C080E001C080E084
S11342700F900FBEDF91CF911F910F91FF90EF90A0
S1134280DF90CF900895CF92DF92EF92FF92CF9379
S1134290DF93EC016A017B010E949F1F8881998151
S11342A0AA81BB81C80ED91EEA1EFB1E40917C3137
S11342B050917D3160917E3170917F31481759075B
S11342C06A077B07B8F4C816D906EA06FB06E0F5C8
S11342D080917C3190917D31A0917E31B0917F317C
S11342E0C882D982EA82FB828C159D05AE05BF0582
S11342F0F8F413C0C816D906EA06FB0600F180914B
S11343007C3190917D31A0917E31B0917F318C15BB
S11343109D05AE05BF0598F017C08091D4319091EA
S1134320D53102960E94E419C701B6010E940E1EFF
S11343300E94C12081110DC00E94BE1A0AC0C88209
S1134340D982EA82FB82E9CFC882D982EA82FB82DF
S1134350EFCFDF91CF91FF90EF90DF90CF90089552
S1134360CF92DF92EF92FF926B017C01672B682B57
S1134370692BE9F00E949F1F80917C3190917D31DF
S1134380A0917E31B0917F31C80ED91EEA1EFB1E6A
S11343908091D4319091D53102960E94E419C701DD
S11343A0B6010E940E1E0E94C120811102C00E940B
S11343B0BE1AFF90EF90DF90CF90089580917831EE
S11343C081110CC0E0917A314BE0E49FF00111249B
S11343D0E855FE4C8081882329F014C081E0809345
S11343E0763108959BE080917A31815080937A31BF
S11343F0E0917A319E9FF0011124E855FE4C8081B2
S1134400882389F380917A31282F30E04BE0849F10
S1134410C0011124DC01A855BE4C1196ED91FC910C
S113442012970480F581E02D1196ED93FC93129779
S113443085559E4CE817F90761F4848195814BE01A
S1134440429FF001439FF00D1124E855FE4C8183F7
S113445092838BE0829FF001839FF00D1124E85535
S1134460FE4C0180F281E02D808591858093D431CA
S11344709093D5310895CF92DF92EF92FF926A0123
S11344807B016091D4317091D531625F7F4F0E947E
S113449099198091D4319091D53102960E94E419F2
S11344A080917C3190917D31A0917E31B0917F31AA
S11344B0BC01CD016C0D7D1D8E1D9F1D0E940E1E25
S11344C0FF90EF90DF90CF9008950F931F93CF93B9
S11344D0DF93DC011796ED91FC911897C085D18587
S11344E08E01025F1F4FC8010E94E4198091783148
S11344F0811116C00C501109C8010E94E4198A8D5B
S113450090917A31981710F480937A31BBE08B9FA5
S1134510C0011124B80188559E4C0E94721905C02F
S1134520B80183E891E30E947219E091D431F091CB
S1134530D53181E02A8D928D291708F480E0DF912E
S1134540CF911F910F91089520917531FC01208323
S113455040917C3150917D3160917E3170917F31F9
S1134560418352836383748308958F929F92AF92A1
S1134570BF92CF92DF92EF92FF920F931F93CF934C
S1134580DF93FC010FB6F8940F92809175319081FE
S1134590981789F080917C3190917D31A0917E3182
S11345A0B0917F3101811281238134818017910779
S11345B0A207B307A8F580917C3190917D31A09139
S11345C07E31B0917F31C180D280E380F480EB01F1
S11345D0088119812A813B818C199D09AE09BF0983
S11345E080179107A207B307E8F4CF0180907C31CC
S11345F090907D31A0907E31B0907F31B501A401BF
S11346004C195D096E097F09041B150B260B370B2A
S1134610088319832A833B830E94A42280E003C079
S113462081E001C081E00F900FBEDF91CF911F9117
S11346300F91FF90EF90DF90CF90BF90AF909F903D
S11346408F90089581E0809376310895009721F446
S11346508091D4319091D531DC015B96ED91FC9140
S11346605C978081813141F4319680E090E001963D
S113467021912131E1F3089580E090E00895809143
S1134680D4319091D53108950F931F93CF93DF9335
S1134690FC01228DA091D431B091D5315A968C91E0
S11346A0281708F041C0A091D431B091D5315A9661
S11346B03C9184E090E0A0E0B0E0831B9109A10963
S11346C0B10986879787A08BB18B8BE0289F9001D7
S11346D0112428553E4C8485958582179307E9F467
S11346E08F01EF012296CE010E94E419E091D431AA
S11346F0F091D531828DF801828F90917A3198179B
S113470010F480937A31FBE08F9FC0011124BE0125
S113471088559E4C0E94721907C0A091D431B09163
S1134720D5315A968C91828FDF91CF911F910F9141
S113473008950F931F93CF93DF93009749F1FC01E2
S1134740328D27A1321721F1EC018C010E5F1F4F2E
S1134750C8010E94E4198FA18A8F44E050E060E010
S113476070E0481B5109610971094E875F87688BA6
S1134770798B90917A31981710F480937A31FBE019
S11347808F9FC0011124B80188559E4C0E94721954
S1134790DF91CF911F910F910895052E97FB1EF481
S11347A000940E94E42357FD07D00E94EC2307FCE9
S11347B003D04EF40C94E423509540953095219504
S11347C03F4F4F4F5F4F0895909580957095619539
S11347D07F4F8F4F9F4F0895A1E21A2EAA1BBB1B38
S11347E0FD010DC0AA1FBB1FEE1FFF1FA217B307B9
S11347F0E407F50720F0A21BB30BE40BF50B661FCF
S1134800771F881F991F1A9469F760957095809592
S113481090959B01AC01BD01CF010895FB01DC0122
S113482002C001900D9241505040D8F70895DC0128
S113483001C06D9341505040E0F70895FB01DC0145
S11348404150504048F001900D920020C9F701C03A
S11348501D9241505040E0F708952532310520F46F
S1134860223010F00C943824FA011082CA01089501
S1134870BB27FA01A62F6217710581059105330B39
S113488030FB66F0AA27660F771F881F991FAA1F9F
S1134890A21710F0A21B63953850A9F7A05DAA33A4
S11348A008F0A95DA19336F7B111B1931082CA0142
S11348B00C947F244532510520F4423010F00C94BE
S11348C06524FB011082CB010895BB27FB0155270A
S11348D0AA27880F991FAA1FA41710F0A41B839559
S11348E05051B9F7A05DAA3308F0A95DA1930097D0
S11348F079F7B111B1931192CB010C947F24DC01AF
S1134900FC01672F71917723E1F7329704C07C9102
S11349106D9370836291AE17BF07C8F30895505822
S1134920BB27AA270E94A7240C9421260E941326A1
S113493038F00E941A2620F039F49F3F19F426F427
S11349400C9410260EF4E095E7FB0C940A26E92F4C
S11349500E94322658F3BA17620773078407950733
S113496020F079F4A6F50C9454260EF4E0950B2E61
S1134970BA2FA02D0B01B90190010C01CA01A001AD
S11349801124FF27591B99F0593F50F4503E68F108
S11349901A16F040A22F232F342F4427585FF3CF49
S11349A0469537952795A795F0405395C9F77EF41A
S11349B01F16BA0B620B730B840BBAF09150A1F063
S11349C0FF0FBB1F661F771F881FC2F70EC0BA0FE9
S11349D0621F731F841F48F4879577956795B79571
S11349E0F7959E3F08F0B0CF9395880F08F099276C
S11349F0EE0F9795879508950E94E62508F481E0C7
S1134A0008950E9415250C9421260E941A2658F018
S1134A100E94132640F029F45F3F29F00C940A26E3
S1134A2051110C9455260C9410260E94322668F3DA
S1134A309923B1F3552391F3951B550BBB27AA2753
S1134A4062177307840738F09F5F5F4F220F331F8D
S1134A50441FAA1FA9F335D00E2E3AF0E0E832D055
S1134A6091505040E695001CCAF72BD0FE2F29D058
S1134A70660F771F881FBB1F261737074807AB072A
S1134A80B0E809F0BB0B802DBF01FF2793585F4F9F
S1134A903AF09E3F510578F00C940A260C94552662
S1134AA05F3FE4F3983ED4F3869577956795B79581
S1134AB0F7959F5FC9F7880F911D9695879597F98C
S1134AC00895E1E0660F771F881FBB1F6217730705
S1134AD08407BA0720F0621B730B840BBA0BEE1F1A
S1134AE088F7E09508950E947A256894B1110C9492
S1134AF0552608950E943A2688F09F5798F0B92FBA
S1134B009927B751B0F0E1F0660F771F881F991FFE
S1134B101AF0BA95C9F714C0B13091F00E94542626
S1134B20B1E008950C945426672F782F8827B85F36
S1134B3039F0B93FCCF3869577956795B395D9F756
S1134B403EF490958095709561957F4F8F4F9F4F60
S1134B500895E89409C097FB3EF49095809570956C
S1134B6061957F4F8F4F9F4F9923A9F0F92F96E9B5
S1134B70BB279395F695879577956795B795F1112A
S1134B80F8CFFAF4BB0F11F460FF1BC06F5F7F4FC7
S1134B908F4F9F4F16C0882311F096E911C07723D9
S1134BA021F09EE8872F762F05C0662371F096E8E2
S1134BB0862F70E060E02AF09A95660F771F881FB1
S1134BC0DAF7880F9695879597F90895990F000855
S1134BD0550FAA0BE0E8FEEF16161706E807F907CB
S1134BE0C0F012161306E407F50798F0621B730B66
S1134BF0840B950B39F40A2661F0232B242B252BE7
S1134C0021F408950A2609F4A140A6958FEF811D89
S1134C10811D089597F99F6780E870E060E008952A
S1134C209FEF80EC089500240A94161617061806C0
S1134C300906089500240A9412161306140605069C
S1134C400895092E0394000C11F4882352F0BB0F2D
S1134C5040F4BF2B11F460FF04C06F5F7F4F8F4F90
S1134C609F4F089557FD9058440F551F59F05F3FCB
S1134C7071F04795880F97FB991F61F09F3F79F07A
S1134C8087950895121613061406551FF2CF4695FC
S1134C90F1DF08C0161617061806991FF1CF86957E
S1134CA07105610508940895E894BB276627772762
S1134CB0CB0197F908950E94E62508F48FEF089533
S1134CC00E9473260C9421260E94132638F00E9419
S1134CD01A2620F0952311F00C940A260C94102621
S1134CE011240C9455260E94322670F3959FC1F32B
S1134CF0950F50E0551F629FF001729FBB27F00D86
S1134D00B11D639FAA27F00DB11DAA1F649F6627DA
S1134D10B00DA11D661F829F2227B00DA11D621F29
S1134D20739FB00DA11D621F839FA00D611D221FE3
S1134D30749F3327A00D611D231F849F600D211DC7
S1134D40822F762F6A2F11249F5750409AF0F1F04A
S1134D5088234AF0EE0FFF1FBB1F661F771F881FB3
S1134D6091505040A9F79E3F510580F00C940A26BB
S1134D700C9455265F3FE4F3983ED4F386957795DB
S1134D806795B795F795E7959F5FC1F7FE2B880F59
S1134D90911D9695879597F90895DB018F939F93BD
S1134DA00E94E626BF91AF91A29F800D911DA39F03
S1134DB0900DB29F900D11240895EE0FFF1F881FD0
S1134DC08BBF0790F691E02D1BBE19940E94F1262B
S1134DD0A59F900DB49F900DA49F800D911D11244B
S1134DE00895A29FB001B39FC001A39F700D811DC0
S1134DF01124911DB29F700D811D1124911D0895E0
S1074E00F894FFCF50
S1134E04FF0FFFFFFFFF0000000000000000000090
S1134E14000000000000000000002514860F4D0F60
S1134E24600F1F14440F000000009D04721500005D
S1134E3400007A077215000000005B087215000078
S1134E440000F7097215000000001E097215000025
S1134E5400007F0972150000000025142714201493
S1134E6422141F141E1400000000251451144614A7
S1134E7428141F141E1400000000271472154C4932
S1134E844D495420535749544348204849542045D4
S1134E9452524F52004F75747369646520416E67B2
S1134EA46C65205265636F76657279004F5554536F
S1134EB449444520646973706C6163656D656E74FF
S1134EC42072616E6765004672656552544F5320C3
S1134ED4586D6567612054657374696E67205072F8
S1134EE46F6772616D0055736572496E7400456E27
S1134EF46350656E00456E634D7472005379734359
S1134F0474726C004D7472436D64004C6566745322
S1134F147700526967687453770049444C4500002C
S9030000FC
