S01600004652454552544F535F5348454C4C2E73726563CD
S11300000C94E3030C9419040C9419040C9419042F
S11300100C9419040C9419040C9419040C941904E8
S11300200C9419040C9419040C9419040C941904D8
S11300300C9419040C9419040C9419040C941904C8
S11300400C9419040C9419040C9419040C941904B8
S11300500C9419040C9419040C9419040C941904A8
S11300600C9419040C9418120C9419040C9419048B
S11300700C94BA110C9419040C9419040C941904DA
S11300800C9419040C9419040C9419040C94190478
S11300900C9419040C9419040C9419040C94190468
S11300A00C9419040C9419040C9419040C94190458
S11300B00C9419040C9419040C9419040C94190448
S11300C00C9419040C945A1A0C9419040C941904E1
S11300D00C9419040C9419040C9419040C94190428
S11300E00C9419040C9419040C94A0100C94190485
S11300F00C9419040C9419040C9419040C94190408
S11301000C9419040C9419040C9419040C941904F7
S11301100C9419040C9419040C9419040C941904E7
S11301200C9419040C9419040C9419040C941904D7
S11301300C9419040C9419040C9419040C941904C7
S11301400C9419040C9419040C9419040C941904B7
S11301500C9419040C9419040C9419040C941904A7
S11301600C945C110C9419040C9419040C94FE1056
S11301700C9419040C9419040C9419040C94190487
S11301800C9419040C9419040C9419040C94190477
S11301900C9419040C9419040C9419040C94190467
S11301A00C9419040C9419040C9419040C94190457
S11301B00C9419040C9419040C9419040C94190447
S11301C00C9419040C9419040C9419040C94190437
S11301D00C9419040C9419040C9419040C94190427
S11301E00C9419040C9419040C9419040C94190417
S11301F00C9419040C9419040C941904F306740750
S11302007407740774077407740774077407740712
S11302107407740774077407740774077407740702
S113022074077407740774077407740774077407F2
S113023074077407740774077407740774077407E2
S113024074077407740774077407740774077407D2
S113025074077407740774077407740774077407C2
S113026074077407740774077407740774077407B2
S113027074077407740774077407740774077407A2
S113028074077407740774077407080774073E0734
S1130290F30674072407EF067407740774077407DA
S11302A07407B0057407740774075A07B506740712
S11302B07407BE05651368136B136E1371137413FF
S11302C0761387138F13991397130C9474130C9448
S11302D074070C94FD120C9476130C9400130C9474
S11302E087130C94DE1C0C941E130C94EF060C94D0
S11302F065130C9424070C9497130C943E070C94E8
S1130300340E0C94F8120C94BE050C94B5060C949F
S113031071130C946D0E0C948E080C945A070C9463
S1130320BE070C949C090C94FF120C94FA120C94C2
S1130330F3060C94140A0C946E130C9408070C9492
S11303406B130C94470E0C9447130C944A140C949E
S1130350FB040C943B090C94B0050C9499130C9475
S11303602B0E0C9429130C94F6120C94F7120C9483
S1130370910E0C9468130C948F1300407A10F35A66
S113038000A0724E18090010A5D4E80000E87648D1
S1130390170000E40B54020000CA9A3B000000E17D
S11303A0F505000080969800000040420F00000010
S11303B0A08601000000102700000000E8030000F0
S11303C000006400000000000A00000000000100BA
S11303D0000000002C76D888DC674F0823DFC1DFDB
S11303E0AE59E1B1B796E5E3E453C63AE6519976DE
S11303F096E8E6C28426EB898C9B62ED407C6FFC18
S1130400EFBC9C9F40F2BAA56FA5F490055A2AF759
S11304105C936B6CF9676DC11BFCE0E40D47FEF562
S113042020E6B500D0ED902E0300943577050080CA
S1130430841E080000204E0A000000C80C33333329
S1130440330F986E12831141EF8D2114893BE655C9
S113045016CFFEE6DB18D1844B381BF77C1D901DAC
S1130460A4BBE424203284725E228100C9F124EC0E
S1130470A1E53D270909002F0049444C45090930ED
S1130480092D0900092D2D2D2D00092D2D2D2D2D82
S11304902D2D2D2D2D002D2D2D2D09092D2D2D2DFD
S11304A0092D2D2D2D2D000952756E7300094672EC
S11304B065652F546F74616C004E616D6509095058
S11304C072692E0953746174650009537461636B16
S11304D0005461736B090920200920002C20544327
S11304E043304343413D002F002C20486561702078
S11304F0667265653A200054696D653A200053655B
S1130500702020342032303235004D4534303520CF
S11305106261736520726164696F2070726F6772C3
S1130520616D2056302E3420001B5B32326D005436
S113053061736B3A2049444C45001B5B316D0049A3
S11305406C6C6567616C20737461746521205265FD
S113055073657474696E6720415652003A57544665
S11305603F0052657365742C2074727920486F6D56
S1130570696E6720616761696E20627920707265B7
S11305807373696E672027622700454D45524745BE
S11305904E43592053544F5000436F6D6D656E6345
S11305A0652042616C616E636500426567696E2017
S11305B0486F6D696E67004578697420636F6D6D6F
S11305C0616E64206D6F646500526573657474694F
S11305D06E672041565200507265737320437472E3
S11305E06C2D4120666F7220636F6D6D616E6420A7
S11305F06D6F64650020202020683A202020484147
S11306004C50210020202020723A20202052657373
S1130610657420746F2049646C6500202020206478
S11306203A202020456D657267656E6379205374A6
S11306306F700020202020673A20202053746172BC
S1130640742042616C616E63652100202020206269
S11306503A202020426567696E2043616C696272AA
S11306606174696F6E0020202020653A20202045A7
S113067078697420636F6D6D616E64206D6F64655D
S11306800020202020733A202020537461636B20C3
S113069064756D7020666F72207461736B730020D3
S11306A0202020763A20202056657273696F6E20D0
S11306B0616E6420736574757020696E666F726D07
S11306C06174696F6E00202020206E3A2020205330
S11306D0686F77207468652074696D652072696736
S11306E06874206E6F77002020496E20636F6D6DF3
S11306F0616E64206D6F6465206F6E6C793A0020C2
S11307002043746C2D413A20456E74657220636FEA
S11307106D6D616E64206D6F646500202043746CA0
S11307202D433A20526573657420746865204156E0
S113073052002068656C70004D453430352062618C
S1130740736520726164696F2070726F6772616D86
S11307502056302E3420001B5B33306D001B5B347D
S1130760366D004552524F52206372656174696E52
S113077067207461736B20002C20737461636B2099
S1130780617420307800206372656174656400547C
S113079061736B20001B5B32326D005461736B3AE2
S11307A020001B5B316D00090009002F00090009BE
S11307B0001B5B32326D001B5B316D001B5B316DC6
S11307C000202000910E11241FBECFEFCDBFDFE328
S11307D0DEBF00E00CBF18BE19BE1ABE1BBE11E27C
S11307E0A0E0B0E2E6E8F0E500E00BBF02C007904D
S11307F00D92AE32B107D9F71BBE21E3AEE2B1E2EE
S113080001C01D92A43EB207E1F713E0C3EED3E0AA
S113081000E006C021970109802FFE010E941E28D6
S1130820C23ED10780E00807A9F70E94B50E0C94D8
S113083041280C9400000F931F93CF93DF93EC0196
S11308406AE08E819F810E9456138C016DE577E0EA
S11308500E949D136AE0C8010E9456138C0167E54B
S113086077E00E949D1367E0C8010E9456136AE076
S11308708E819F810E9456138C0168E377E00E9469
S11308809D136AE0C8010E9456138C0162E377E06D
S11308900E949D1366E0C8010E9456136AE08E818F
S11308A09F810E9456138C016BE177E00E949D1397
S11308B066E0C8010E9456136AE08E819F810E94FF
S11308C056138C016FEF76E00E949D1366E0C80119
S11308D00E9456136AE08E819F810E9456138C01F8
S11308E067EE76E00E949D1366E0C8010E945613ED
S11308F06AE08E819F810E9456138C0166EC76E03B
S11309000E949D1366E0C8010E9456136AE08E811E
S11309109F810E9456138C016FE976E00E949D131B
S113092066E0C8010E9456136AE08E819F810E948E
S113093056138C0161E876E00E949D1366E0C801BD
S11309400E9456136AE08E819F810E9456138C0187
S113095066E676E00E949D1366E0C8010E94561385
S11309606AE08E819F810E9456138C016BE476E0CD
S11309700E949D1366E0C8010E9456136AE08E81AE
S11309809F810E9456138C0163E376E00E949D13BD
S113099066E0C8010E9456136AE08E819F810E941E
S11309A056138C016BE176E00E949D1366E0C8014A
S11309B00E9456136AE08E819F810E9456138C0117
S11309C064E076E00E949D1366E0C8010E9456131D
S11309D06AE08E819F810E945613EC0165EF75E0F9
S11309E00E949D1366E0CE010E945613DF91CF91C1
S11309F01F910F910895CF93DF93CDB7DEB72C9756
S1130A00CDBFDEBF7C0119821A821B821C821D822B
S1130A101E826AE0DC0116968D919C9117970E94C4
S1130A2056136C0167ED75E00E949D1366E0C601E4
S1130A300E94561311E0812C6894992493F80F2E88
S1130A40F6E7AF2EF1E2BF2EF02DF701848588235F
S1130A5021F0813009F460C063C286819781DC0192
S1130A60ED91FC910480F581E02D1995882309F41A
S1130A7037C0F70186819781DC01ED91FC910680F6
S1130A80F781E02D1995992781309105F9F00397A5
S1130A9009F061C26AE0F701868197810E945613CA
S1130AA07C0169EC75E00E949D1366E0C7010E9419
S1130AB0561393E088ED08B618BE84BF9093800067
S1130AC08091820081FDFCCF08BEFFCFC7010E9448
S1130AD01B04D7011C961C931C971D961C933BC2A8
S1130AE088E491E20E941E13882309F434C2D701DA
S1130AF01696ED91FC9117970190F081E02DC2803C
S1130B00D38088E491E20E940013682FF701868164
S1130B109781F60119951FC286819781DC01ED91B9
S1130B20FC910480F581E02D1995882309F413C202
S1130B30F70186819781DC01ED91FC910680F781B4
S1130B40E02D1995BC01FC01FF277B97EC35F105DD
S1130B5008F0CAC18827E250FF4F8F4F0C941E281B
S1130B60CE0101960E948915BC01F7018681978107
S1130B700E94A11566E00E945613EDC11F821886DB
S1130B8019861A861B861C860E9430183C01CE01E9
S1130B9007960E9489152C0166E0D70116968D915F
S1130BA09C9117970E9456136AE00E9456136C0199
S1130BB06AE075E00E949D136AE0C6010E94561324
S1130BC06C016EEF74E00E949D1366E0C6010E9402
S1130BD056136AE00E9456136C0167EF74E00E949A
S1130BE09D13B201C6010E94A1156AE00E9456132A
S1130BF06C0169EE74E00E949D13B301C6010E946A
S1130C0016146AE00E9456136C0167EE74E00E94A9
S1130C109D134FEF5FE060E070E0C6010E94D413C3
S1130C20F40160A471A46AE0D70116968D919C9199
S1130C3017970E9456136C016CED74E00E949D138B
S1130C40B301C6010E94161466E00E94561366E0C2
S1130C500E945613F701C680D7806AE0C6010E943D
S1130C6056133C0161ED74E00E949D136AE0C301D8
S1130C700E9456133C016AEC74E00E949D1366E0E6
S1130C80C3010E9456136AE0C6010E9456133C0138
S1130C9069EB74E00E949D136AE0C3010E9456133D
S1130CA03C016DEA74E00E949D136AE0C3010E9456
S1130CB056133C0167EA74E00E949D1366E0C30189
S1130CC00E9456136AE0C6010E9456133C0166E96D
S1130CD074E00E949D136AE0C3010E9456133C0114
S1130CE06AE874E00E949D136AE0C3010E945613EF
S1130CF03C0164E874E00E949D1366E0C3010E9415
S1130D005613D5018D919C91009719F0B6010E945C
S1130D1032160E94931E0E94FE21082F6AE0C6012B
S1130D200E9456136C0169E774E00E949D13602FC2
S1130D30C6010E9476126AE00E9456136C0167E7AE
S1130D4074E00E949D1364E670E0C6010E941614CC
S1130D506AE00E9456136C0164E774E00E949D13DC
S1130D6066E0C6010E945613F6C0F701C680D7801C
S1130D708091762190917721009719F0B6010E9415
S1130D804E166AE0C6010E9456133C016AE375E000
S1130D900E949D136AE0C3010E9456133C016FE256
S1130DA075E00E949D136AE0C3010E9456133C0142
S1130DB069E275E00E949D1366E0C3010E94561328
S1130DC08091E2319091E331BC016F5F7F4F01E18B
S1130DD0212FA601835691090E94DA14BCC0C701D1
S1130DE00E941B04B8C06AE0D70116968D919C91AD
S1130DF017970E9456136C0167EB75E00E949D13D0
S1130E0066E0C6010E945613F70114861586A3C036
S1130E10E0913421F09135210FB6F8940F921083AC
S1130E200F900FBE6AE0D70116968D919C9117978B
S1130E300E9456136C016AEA75E00E949D1366E0F5
S1130E40C6010E94561387C0E0913221F0913321EC
S1130E500FB6F8940F9210830F900FBE6AE0F7015B
S1130E60868197810E9456136C0169E975E00E949E
S1130E709D1366E0C6010E9456136DC0E0913021B7
S1130E80F09131210FB6F8940F9210830F900FBE9A
S1130E906AE0D70116968D919C9117970E9456137C
S1130EA06C016AE875E00E949D1366E0C6010E9429
S1130EB0561351C0E0912E21F0912F210FB6F894D2
S1130EC00F9210830F900FBE6AE0F701868197811D
S1130ED00E9456136C0162E675E00E949D1366E061
S1130EE0C6010E94561337C0D70116968D919C9166
S1130EF01797DC01ED91FC910280F381E02D1995A7
S1130F006AE0F701868197810E9456136C016CE5B3
S1130F1075E00E949D1366E0C6010E9456131BC033
S1130F206AE0868197810E9456137C016FE375E025
S1130F300E949D1366E0C7010E94561393E088ED5A
S1130F4008B618BE84BF909380008091820081FD12
S1130F50FCCF08BEFFCFF70186859785A089B189AC
S1130F600196A11DB11D86879787A08BB18B61E087
S1130F7070E080E090E00E94882067CDCF93DF93FB
S1130F80CDB7DEB72897CDBFDEBF4C010E947D1ED2
S1130F9069837A838B839C83E0E8F6E083E0828331
S1130FA0808B818BE0E8F1E080E7828389E08287AF
S1130FB0E0E4F8E08AE683838DEC97E086A397A3C8
S1130FC081E0808380A191A1412C512C320168944D
S1130FD0222426F8332433F8F10100A111A1680179
S1130FE0C81AD90AB6010D2C000C880B990B0E9463
S1130FF0EC266D837E838F83988720E030EA49E76F
S113100054E40E949C27181674F420E030EA49EF57
S113101054E46D817E818F8198850E94D0250E9441
S1131020B4266B0119C020E030EA49E754EC6D8125
S11310307E818F8198850E943D2688236CF420E070
S113104030EA49EF54E46D817E818F8198850E9456
S1131050D1250E94B4266B01D194C194D1080D2CE2
S1131060000CEE08FF084C0C5D1C6E1C7F1CE0910C
S11310703E21F0913F210FB6F8940F9240825182A5
S11310800F900FBEA0903C21B0903D210FB6F89474
S11310900F92C301B2010E94EC2629E532E34EE42B
S11310A05BE30E94A127F5016083718382839383AC
S11310B00F900FBEA0903A21B0903B210FB6F89448
S11310C00F92C701B6010E94EC2629E532E34EE4F3
S11310D05BE30E94A1272FE632E143E85AE30E9432
S11310E04226F50160837183828393830F900FBE40
S11310F0F40186859785A089B1890196A11DB11D4A
S113110086879787A08BB18B41E050E060E070E068
S1131110CE0101960E941B20C8015ECFCF93DF93BE
S113112000D01F92CDB7DEB77C010E947D1E69837B
S11311307A838B839C83E0E8F6E08CE08283828967
S11311408360828B83898360838BE0E8F1E082E7AC
S1131150808389E08087E0E0F9E088E683838FEF8D
S11311609FEF86A397A381E08083E0913821F091DB
S113117039210FB6F8940F921082118212821382D1
S11311800F900FBE612C712C512C412C0F2E812CF1
S1131190F9E09F2EF02DF40160A171A10FB6F8942F
S11311A00F920F900FBE072E000C880B990B0E9414
S11311B0EC262FE832EC45E75DE30E94A1272FE6F9
S11311C032E143E85AE30E94A127E0913821F091EB
S11311D0392120813181428153810E94D025A62E5C
S11311E0B72EC82ED92EE0914221F09143210FB69B
S11311F0F8940F92862F9B2DAC2DBD2D8083918367
S1131200A283B3830F900FBE00914021109141211E
S11312100FB6F8940F92262D372D452D542D6A2D97
S11312207B2D8C2D9D2D0E94D0252FE632E143E8A5
S11312305AE30E944226F801608371838283938378
S11312400F900FBEF70186859785A089B189019615
S1131250A11DB11D86879787A08BB18B41E050E01B
S113126060E070E0CE0101960E941B206A2C7B2C6A
S11312705C2C4D2C90CFCF93DF9300D01F92CDB731
S1131280DEB78C010E947D1E69837A838B839C83E5
S1131290A0E4B6E087E011968C93119784E015964C
S11312A08C931597E0E0F8E081E0808383E081830C
S11312B0A6A3B7A310A611A612A613A681818063C4
S11312C08183E12C6894FF24F3F80FB6F8940F920D
S11312D0E0913621F0913721808191810F900FBEEA
S11312E0F801828B938B992334F0F70180A791A79F
S11312F012A613A60CC0F70110A611A6F801828944
S11313009389919581959109F70182A793A7F80193
S113131086859785A089B1890196A11DB11D86870F
S11313209787A08BB18B41E050E060E070E0CE0184
S113133001960E941B20C9CFCF93DF9300D01F9248
S1131340CDB7DEB78C010E947D1E69837A838B83BF
S11313509C83E0E6F6E09081D80152968C915297F6
S1131360892B8083948152968C915297892B848304
S113137052968C91813021F488E18093700605C0E7
S1131380843019F488E1809372060F2EF8E6EF2E6C
S1131390F6E0FF2EF02DDD24D394F701808180FD4B
S11313A00BC0E0914621F09147210FB6F8940F92BB
S11313B0D0820F900FBE0AC0E0914621F0914721E0
S11313C00FB6F8940F9210820F900FBED7018C9134
S11313D082FD0BC0E0914421F09145210FB6F894B1
S11313E00F92D0820F900FBE0AC0E0914421F09179
S11313F045210FB6F8940F9210820F900FBEF8019A
S113140086859785A089B1890196A11DB11D86871E
S11314109787A08BB18B41E050E060E070E0CE0193
S113142001960E941B20B9CFCF93DF93CDB7DEB7CF
S1131430A097CDBFDEBF1C010E947D1E69837A8305
S11314408B839C8380E190E00E9463178B8F9C8F39
S113145080E1E6E0F0E2AB8DBC8D01900D928A95BF
S1131460E1F710E0D1011C968C91823009F4C7C0D9
S113147030F4882369F0813009F475C0D7C384300F
S113148009F4B1C108F4EFC0843609F49FC3CEC394
S1131490E0913821F09139210FB6F8940F9210821F
S11314A01182128213820F900FBE0FB6F8940F921E
S11314B00F900FBEE0913421F09135218081882373
S11314C009F4AFC3E0912E21F0912F210FB6F894C7
S11314D00F9210820F900FBEE0913021F0913121D4
S11314E00FB6F8940F9210820F900FBEE091362140
S11314F0F09137210FB6F8940F928CED90E0808331
S113150091830F900FBE0FB6F8940F920F900FBEF9
S1131510E0914421F09145218081882309F483C31B
S11315200FB6F8940F92E0914221F091432180810B
S11315309181A281B3810F900FBEE0913821F09187
S113154039210FB6F8940F9280839183A283B383D9
S11315500F900FBE81E0D1011C968C931C971D96B1
S11315608C9310E063C3E0913421F09135210FB6E0
S1131570F8940F9210820F900FBEE0913621F091F3
S113158037210FB6F8940F9284E29FEF8083918302
S11315900F900FBE0FB6F8940F920F900FBEE0910C
S11315A04621F091472180818823A9F00FB6F89451
S11315B00F92E0914221F091432180819181A28197
S11315C0B3810F900FBEF101828B938BA48BB58BEB
S11315D082E0848785870FB6F8940F920F900FBE30
S11315E0E0912E21F0912F218081882309F41EC3DC
S11315F0D1011C961C921C971D961C9217C3E09156
S11316003621F09137210FB6F8940F92108211828F
S11316100F900FBE68EC70E080E090E00E9488209C
S11316200FB6F8940F920F900FBEE0914621F091FF
S113163047218081882371F0E0913621F091372190
S11316400FB6F8940F928CED90E0808391830F9005
S11316500FBEECC2E3E0D1011C96EC931C97F3E0BF
S11316601D96FC93E3C220E030E040E05FE3D1014B
S113167052966D917D918D919C9155970E94A127D1
S1131680F101668B778B808F918F0FB6F8940F9250
S11316900F900FBEE0914221F091432120813181CE
S11316A0428153810E94D0254B015C01D1015A969D
S11316B06D937D938D939C935D975E962D913D9153
S11316C04D915C9191970E94D1252B013C01F10130
S11316D0668F778F80A391A3E0903621F090372115
S11316E00FB6F8940F9222A133A144A155A1C501CC
S11316F0B4010E94A1274B015C01F10126A137A18D
S113170040A551A5C301B2010E94A1279B01AC01D0
S1131710C501B4010E94D1250E94B426D7016D935E
S11317207C930F900FBE0FB6F8940F920F900FBEDC
S1131730E0914621F0914721808181110CC00FB6C0
S1131740F8940F920F900FBEE0914421F09145213F
S113175080818823A1F0F101E680F7806EE770E2D2
S1131760C7010E949D1366E0C7010E945613E4E678
S1131770D1011C96EC931C97F4E61D96FC93E09122
S11317802E21F0912F210FB6F8940F920F900FBED7
S113179080818823B1F00FB6F8940F9210820F90D5
S11317A00FBEE0913021F09131210FB6F8940F92E1
S11317B010820F900FBED1011C961C921C971D968F
S11317C01C920FB6F8940F920F900FBEE091322145
S11317D0F09133218081882309F428C284E0F10147
S11317E08487858723C20FB6F8940F920F900FBE9B
S11317F0E0913021F09131218081882341F0E4E6A9
S1131800D1011C96EC931C97F4E61D96FC931111E0
S113181012C00FB6F8940F92E0913C21F0913D2153
S113182080819181A281B3810F900FBEF10182A7C3
S113183093A7A4A7B5A7E0913221F09133210FB665
S1131840F8940F9210820F900FBE0FB6F8940F9277
S1131850E0914221F091432180819181A281B38161
S11318608D8F9E8FAF8FB8A30F900FBE0FB6F894D5
S11318700F92E0914021F091412180809180A280DB
S1131880B3800F900FBE0FB6F8940F92E0913C21F5
S1131890F0913D2140805180628073800F900FBE93
S11318A00FB6F8940F92E0913A21F0913B21C08059
S11318B0D180E280F3800F900FBEAB8DBC8D1D9262
S11318C01D921D921C921397FD011482158216829B
S11318D0178218961D921D921D921C921B97FD0152
S11318E01486158616861786D1019A962D913D91F8
S11318F04D915C919D97C301B2010E94D0256F8BDD
S1131900788F898F9A8F2FE630EF45E85EE30E9447
S11319109C27882364F42FE630EF45E85EEB6F895B
S1131920788D898D9A8D0E943D268823A4F4F10137
S11319300681178165E970E2C8010E949D1366E083
S1131940C8010E945613E4E6D1011C96EC931C973F
S1131950F4E61D96FC93D10156962D913D914D913F
S11319605C9159976D8D7E8D8F8D98A10E94D025A5
S11319702AE43CE144E251EC0E94A1276F8B788F6A
S1131980898F9A8F2CEE31E04FE351E4C501B40105
S11319900E94A1279B01AC016F89788D898D9A8D56
S11319A00E94D1254B015C0126E53EE049E450E468
S11319B0C301B2010E94D0252CED34E44FE452E47B
S11319C00E94A1279B01AC01C501B4010E94D1254D
S11319D04B015C012EE535EE47E950E4C701B60141
S11319E00E94A1279B01AC01C501B4010E94D1252D
S11319F020E030E044E852E40E94A1276B017C011E
S1131A0020E030E048EC54E40E949C2718169CF037
S1131A1020E030E048EC54ECC701B6010E943D26BA
S1131A2088238CF40F2EC12CD12CF8ECEF2EF4EC7F
S1131A30FF2EF02D08C00F2EC12CD12CF8ECEF2E68
S1131A40F4E4FF2EF02DF7FAF094F7F8F0940091F7
S1131A503621109137210FB6F8940F92C701B601C1
S1131A600E94B426F801608371830F900FBED101E8
S1131A701E966D917D918D919C91519724E630E055
S1131A8040E050E00E94C422672B682B692B09F0C8
S1131A904EC08E010F5E1F4F26E040E0C301B2012D
S1131AA00E94E6225C01F101068117816CEA70E272
S1131AB0C8010E949D13B501C8010E949D1320ED29
S1131AC03FE049E450E4C301B2010E94D0258E01F5
S1131AD0055F1F4F26E040E00E94E6225C01D10131
S1131AE016960D911C9117976CEB70E2C8010E9439
S1131AF09D13B501C8010E949D138E010B5F1F4FFA
S1131B0026E040E0C701B6010E94E6227C01F10113
S1131B10068117816BEC70E2C8010E949D13B70126
S1131B20C8010E949D1366E0C8010E9456130FB6B7
S1131B30F8940F920F900FBEE0914621F091472147
S1131B40808181110CC00FB6F8940F920F900FBED4
S1131B50E0914421F09145218081882391F0D101C5
S1131B6016960D911C9117976EE770E2C8010E94BA
S1131B709D1366E0C8010E94561384E6F101848730
S1131B808587E0912E21F0912F210FB6F8940F92C2
S1131B900F900FBE8081882309F447C00FB6F894D4
S1131BA00F9210820F900FBEE0913021F0913121FD
S1131BB00FB6F8940F9210820F900FBED1011C96AD
S1131BC01C921C971D961C9211E030C0E0913621A6
S1131BD0F09137210FB6F8940F92108211820F9072
S1131BE00FBEE0912E21F0912F210FB6F8940F92A1
S1131BF00F900FBE80818823C9F00FB6F8940F921E
S1131C0010820F900FBEE0913021F09131210FB678
S1131C10F8940F9210820F900FBEF101148615866E
S1131C2005C010E003C010E001C011E0F101868599
S1131C309785A089B1890196A11DB11D86879787D3
S1131C40A08BB18B41E050E060E070E0CE010196E2
S1131C500E941B2007CCDC01ED91FC910280F381F2
S1131C60E02D6CE019950895CF93DF93EC01A98DD5
S1131C70BA8DEB8DFC8D81E04D915C912081318199
S1131C804217530709F480E0DF91CF910895CF9371
S1131C90DF93FC01C18DD28D28813981A38DB48D50
S1131CA04D915C9124173507E9F3A789B08D0D9008
S1131CB0BC91A02DA20FB31F8C912F5F3F4F28839F
S1131CC039832436310528F0018CF28DE02D108201
S1131CD0118290E0DF91CF910895DC015096ED914F
S1131CE0FC915197808154964C915497842329F008
S1131CF009C02150310919F412C021E23EE4908157
S1131D009423B9F3908156968C915697892B8083AE
S1131D101E96ED91FC911F97608381E0089580E009
S1131D200895CF93DF93C8E4D1E28AE08A831B82CB
S1131D3083E08D831C821E821F828AE690E2888360
S1131D4099831E861F8640E061E080E20E94491B61
S1131D50888799878AE090E0A0E0B0E08A879B8733
S1131D60AC87BD87DF91CF910895AF92BF92CF9298
S1131D70DF92EF92FF920F931F93CF93DF93CDB730
S1131D80DEB76E97CDBFDEBFE0E6F6E080E181838B
S1131D908583F894E0E5F0E080818260808381812E
S1131DA081FFFDCF809140009FB79E8FF8941BBEAA
S1131DB0887F816020E430E0F90108ED04BF80836E
S1131DC08E8D8FBFE0E5F0E080818E7F80839DEF74
S1131DD088ED08B618BE84BF9093800008BE81E0E9
S1131DE090E00E946317809346219093472181E0FD
S1131DF090E00E946317809344219093452184E0EE
S1131E0090E00E946317809342219093432184E0E1
S1131E1090E00E946317809340219093412182E0D7
S1131E2090E00E94631782E090E00E94631782E0D2
S1131E3090E00E94631780933E2190933F2184E0B9
S1131E4090E00E94631780933C2190933D2184E0AD
S1131E5090E00E94631780933A2190933B2184E0A1
S1131E6090E00E946317809338219093392182E097
S1131E7090E00E946317809336219093372181E08C
S1131E8090E00E946317809334219093352181E080
S1131E9090E00E946317809332219093332181E074
S1131EA090E00E946317809330219093312181E068
S1131EB090E00E94631780932E2190932F218AE54E
S1131EC090E289839A838AE08B831C8243E04E8369
S1131ED01D821F821886A0E4B6E0AB87BC8786E02B
S1131EE08D870F2EF7E0DF2EF02DDE86E0EBF8E095
S1131EF0EF87F88B81EB98E0898B9A8B84EB98E0E1
S1131F008B8B9C8B2E8514965C91149781E090E0CA
S1131F10BC0102C0660F771F2A95E2F79B01252BAF
S1131F2014962C932E85AB85BC855C91BC0102C0B4
S1131F30660F771F2A95E2F79B01252B2C933D858D
S1131F40AB85BC852C9102C0880F991F3A95E2F7A6
S1131F508095909582238C936894CC24C4F8C38292
S1131F60458380EF878381E2868388E1848380E8E8
S1131F708E8B80E48F8B80E28D8BEF85F889808156
S1131F8080818AE190E289839A838EE691E2888F48
S1131F90998F8CE691E28A8F9B8F8AE691E28C8FEF
S1131FA09D8F84E690E00E94631780936E21909346
S1131FB06F21EA8DFB8D10821182EC8DFD8D1082D4
S1131FC0118267E0CE0101960E9456137C0166EDF2
S1131FD070E20E949D1366E0C7010E94561366E0FA
S1131FE00E94561382E190E00E9463177C018E01E7
S1131FF00F5F1F4F24E031E040E065EF70E20E9484
S11320009C168AE290E2D7018D939C9383E190E041
S11320100E9463177C0124E031E044E06DEF70E23C
S11320200E949C160F2EF2E3AF2EF0E2BF2EF02D8D
S1132030F701A082B18281E0828B83E190E00E946B
S113204063177C0124E031E044E064E071E20E9423
S11320509C16D701AD92BC92119784E052968C9352
S113206082E190E00E9463177C0124E031E044E0C7
S11320706CE071E20E949C168AE390E2F70180838F
S1132080918382E190E00E9463177C0124E031E0B7
S113209043E063E171E20E949C1682E490E2D7017E
S11320A08D939C938EE390E00E9463177C0124E05F
S11320B031E042E06AE171E20E949C168AE490E217
S11320C0F7018083918380E090E8ABEBB5E482A3D1
S11320D093A3A4A3B5A380E090E0A0E4B0E486A316
S11320E097A3A0A7B1A7BE96DF011D92CA94E9F7F2
S11320F084E190E00E9463177C0124E031E041E038
S113210062E271E20E949C1682E590E2F70180830C
S11321109183128A138AD092A20078940E94441E5A
S113212080E090E06E96CDBFDEBFDF91CF911F912E
S11321300F91FF90EF90DF90CF90BF90AF900895F4
S11321401F920F920FB60F92112408B60F9218BE69
S11321500BB60F921BBE2F933F938F939F93EF93D6
S1132160FF932091A00AE0915C21F0915D21809180
S1132170582190915921E80FF91F2083809158210B
S11321809091592101968436910560F480935821E9
S11321909093592120915A2130915B218217930702
S11321A0F1F40CC0109258211092592180915A21B7
S11321B090915B211816190691F40EC0019684368D
S11321C0910528F480935A2190935B2108C01092C2
S11321D05A2110925B2103C081E090E0F3CFFF917C
S11321E0EF919F918F913F912F910F900BBE0F9084
S11321F008BE0F900FBE0F901F9018951F920F925C
S11322000FB60F92112408B60F9218BE0BB60F9298
S11322101BBE2F933F938F939F93EF93FF93209134
S1132220B009E0916221F091632180915E21909147
S11322305F21E80FF91F208380915E2190915F2137
S113224001968436910560F480935E2190935F211A
S1132250209160213091612182179307F1F40CC021
S113226010925E2110925F218091602190916121F2
S11322701816190691F40EC001968436910528F4B7
S1132280809360219093612108C010926021109284
S1132290612103C081E090E0F3CFFF91EF919F9122
S11322A08F913F912F910F900BBE0F9008BE0F900E
S11322B00FBE0F901F9018951F920F920FB60F929A
S11322C0112408B60F9218BE0BB60F921BBE2F93A3
S11322D03F938F939F93EF93FF932091A009E091F5
S11322E06821F09169218091702190917121E80F0A
S11322F0F91F208380916421909165210196843691
S1132300910560F480936421909365212091662166
S11323103091672182179307F1F40CC01092642165
S113232010926521809166219091672118161906F3
S113233091F40EC001968436910528F480936621A9
S11323409093672108C0109266211092672103C000
S113235081E090E0F3CFFF91EF919F918F913F91B6
S11323602F910F900BBE0F9008BE0F900FBE0F90D1
S11323701F9018951F920F920FB60F92112408B652
S11323800F9218BE0BB60F921BBE2F933F938F93E1
S11323909F93EF93FF932091B008E0916E21F09109
S11323A06F2180916A2190916B21E80FF91F20839E
S11323B080916A2190916B2101968436910560F495
S11323C080936A2190936B2120916C2130916D212F
S11323D082179307F1F40CC010926A2110926B21BA
S11323E080916C2190916D211816190691F40EC0FC
S11323F001968436910528F480936C2190936D2185
S113240008C010926C2110926D2103C081E090E00D
S1132410F3CFFF91EF919F918F913F912F910F9067
S11324200BBE0F9008BE0F900FBE0F901F90189513
S11324301F920F920FB60F92112408B60F9218BE76
S11324400BB60F921BBE2F933F938F939F93EF93E3
S1132450FF932091A008E0917421F091752180915F
S1132460702190917121E80FF91F208380917021D0
S11324709091712101968436910560F480937021C6
S113248090937121209172213091732182179307C7
S1132490F1F40CC01092702110927121809172217C
S11324A0909173211816190691F40EC00196843682
S11324B0910528F4809372219093732108C010929F
S11324C072211092732103C081E090E0F3CFFF9159
S11324D0EF919F918F913F912F910F900BBE0F9091
S11324E008BE0F900FBE0F901F901895CF92DF92E9
S11324F0EF92FF920F931F93CF93DF93CDB7DEB785
S11325002997CDBFDEBF8C01E62EDC0113968C919A
S11325101397882341F0ED91FC910280F381E02D23
S1132520C801199556C0F8014281423019F56894E2
S1132530CC24C3F8D12C6894FF24F7F88E2D8F2176
S113254051F0D801ED91FC910280F381E02D61E31B
S1132550C801199509C0D801ED91FC910280F3815D
S1132560E02D60E3C8011995F694B1E0CB1AD108C7
S113257029F72FC04031F9F462956F700190F08112
S1132580E02D0280F381E02D6A3010F0695C01C017
S1132590605DC80119956E2D6F70D801ED91FC91A5
S11325A00280F381E02D6A3010F0695C01C0605D47
S11325B0C80119950EC050E0BE016F5F7F4F8E2D8C
S11325C090E00E942A24BE016F5F7F4FC8010E94E1
S11325D09D13C8012996CDBFDEBFDF91CF911F9116
S11325E00F91FF90EF90DF90CF9008950895089594
S11325F080E0089580E090E0089581E008950895D2
S11326000F93CF93DF931F92CDB7DEB700E02FEF88
S11326103FEFA901BE016F5F7F4FFC01808591856B
S11326200E94121C813019F4898190E002C08FEF5E
S11326309FEF0F90DF91CF910F910895FC0180855A
S113264091850E94D61C91E0811101C090E0892FF0
S113265008950F93CF93DF931F92CDB7DEB76983AD
S1132660FC01228533854485558500E0BE016F5FFA
S11326707F4F808591850E94771B91E0811101C075
S113268090E0892F0F90DF91CF910F910895EC0185
S1132690E881F9810190F081E02D19951A821B825D
S11326A06FEF7FEFCB010E948820FACFCF93DF93A7
S11326B0EC01862F90E08B309105D8F5FC0188273A
S11326C0E65AFE4F8F4F0C941E2882E08A8331C055
S11326D088E08A832EC08AE08A832BC080E18A83C3
S11326E028C081E08B8325C01B8223C0E881F98147
S11326F00280F381E02D6DE0CE011995E881F98126
S11327000280F381E02D6AE0CE01199512C0E881C0
S1132710F9810284F385E02DCE0119950AC0E88180
S1132720F9810084F185E02DCE01199502C081E084
S11327308C83CE01DF91CF9108950F931F93CF9394
S1132740DF938C01FB01DC0114968C91811104C090
S11327506081611117C023C0D80114961C92EB014B
S1132760219664916623D9F0D801ED91FC91028001
S1132770F381E02DC8011995FE0164912196611140
S1132780F3CF0DC0EF012196D801ED91FC910280A9
S1132790F381E02DC801199569916111F5CFDF919D
S11327A0CF911F910F910895DF92EF92FF920F93B3
S11327B01F93CF93DF93CDB7DEB7A197CDBFDEBF15
S11327C08C01D42EE52EF62E972FF801228120318C
S11327D021F0283011F0223071F4692FC8010E94D1
S11327E076126F2D0E9476126E2D0E9476126D2D38
S11327F00E9476120FC030E0AE014F5F5F4F6D2D27
S11328007E2D8F2D0E94FD23BE016F5F7F4FC80177
S11328100E949D13C801A196CDBFDEBFDF91CF9169
S11328201F910F91FF90EF90DF900895FF920F9307
S11328301F93CF93DF93CDB7DEB76197CDBFDEBFD4
S11328408C01F62E972FF8014281403121F0483057
S113285011F0423041F4692FC8010E9476126F2DA5
S11328600E9476120DC050E0BE016F5F7F4F8F2D26
S11328700E942A24BE016F5F7F4FC8010E949D13EE
S1132880C8016196CDBFDEBFDF91CF911F910F913B
S1132890FF9008958F929F92AF92BF92CF92DF9252
S11328A0EF92FF920F931F93CF93DF93EC018B0171
S11328B08A819B810E948B1EBC01C8010E949D13CA
S11328C0D801ED91FC910280F381E02D69E0C8010B
S11328D019958A819B810E948B1EFC010190002026
S11328E0E9F73197E81BF90B389748F4D801ED91D3
S11328F0FC910280F381E02D69E0C8011995CE8432
S1132900DF84E888F988A884B9848A819B810E943D
S1132910FE21982E8C848A819B810E94361E682F0A
S1132920C8010E9476126AE00E945613EC016FEA15
S113293077E00E949D13682DCE010E9476126AE012
S11329400E945613EC016DEA77E00E949D13692DF5
S1132950CE010E9476126AE00E945613EC016BEAE3
S113296077E00E949D13B501CE010E9416146AE01F
S11329700E945613EC0169EA77E00E949D136AE015
S1132980CE010E945613EC0167EA77E00E949D1382
S1132990B701A601CE010E94D413DF91CF911F91FC
S11329A00F91FF90EF90DF90CF90BF90AF909F90EA
S11329B08F9008955F926F927F928F929F92AF92C1
S11329C0BF92CF92DF92EF92FF920F931F93CF9318
S11329D0DF935C013B014A01122F502E63E0CA01D0
S11329E00E945613A614B70408F07CC0650184E164
S11329F0C80ED11C00E07501B501C4010E94161473
S1132A006AE00E94561361EC77E00E949D13112343
S1132A1009F46DC0002309F46AC06AE0C4010E948D
S1132A2056136CEB77E00E949D1361C0112371F083
S1132A3001110CC08881851549F06AE0C4010E9427
S1132A40561367EB77E00E949D1301E06991C4017E
S1132A500E947612DC01ED91FC910280F381E02D5D
S1132A6060E21995CC16DD0609F7112389F06AE0B6
S1132A70C4010E945613EC0161EB77E00E949D13A0
S1132A80E881F9810280F381E02D60E2CE0119959D
S1132A90F70161917F0180EE860F8F3548F4D401F0
S1132AA0ED91FC910280F381E02DC401199509C0D8
S1132AB0D401ED91FC910280F381E02D6EE2C4011A
S1132AC01995CE14DF0421F7B4E1AB0EB11C66E016
S1132AD0C4010E945613E4E1CE0ED11CA614B7041F
S1132AE008F489CF62E0C4010E94561302C0E701D2
S1132AF09DCFDF91CF911F910F91FF90EF90DF90C9
S1132B00CF90BF90AF909F908F907F906F905F9089
S1132B100895CF93DF93EC010FB6F8940F92809150
S1132B202008909121088C839D830E947D1E6883D8
S1132B3079838A839B830F900FBECE01DF91CF915F
S1132B4008958F929F92AF92BF92EF92FF920F934C
S1132B501F93CF93DF93CDB7DEB72F97CDBFDEBFE3
S1132B608C017B01DB016D917D918D919C910F2EE8
S1132B70F8EE8F2EF3E09F2EA12CB12CF02DA501A1
S1132B8094010E94C422BA01A901C8010E94D4136D
S1132B90D801ED91FC910280F381E02D6EE2C80131
S1132BA01995F7016081718182819381A501940156
S1132BB00E94C4229B01AC0160E472E48FE090E0C7
S1132BC00E940E28A50194010E94C42249015A01C1
S1132BD0F701A481B58120E432E44FE050E00E9483
S1132BE0272820E038E448EE51E00E94C422C501C1
S1132BF0B401620F731F841F951F7E01F7E0EF0E6F
S1132C00F11C9E012F5F3F4F59012AE030E040E064
S1132C1050E00E94A522E62F288739874A875B87E0
S1132C20688579858A859B8520E32E0FD7012E93AD
S1132C307D01AA15BB0549F71F82BE016F5F7F4F57
S1132C40C8010E949D13C8012F96CDBFDEBFDF913E
S1132C50CF911F910F91FF90EF90BF90AF909F90F5
S1132C608F9008950F931F93CF93DF93EC018B0103
S1132C70E881F9810280F381E02D199566E0C801AD
S1132C800E9456138C819D81009719F0B8010E940F
S1132C903216DF91CF911F910F910895CF92DF9259
S1132CA0EF92FF920F931F93CF93DF93EC017B017D
S1132CB08A819B810E948B1E6C016AE0C7010E947D
S1132CC056138C0162EA77E00E949D136AE0C80102
S1132CD00E9456138C016BE977E00E949D13B601A4
S1132CE0C8010E949D136AE0C8010E9456138C011A
S1132CF065E977E00E949D1366E0C8010E945613BF
S1132D008A859B85E885F98501E121E0A701BC015D
S1132D108E1B9F0B0E94DA148C819D81009719F001
S1132D20B7010E944E16DF91CF911F910F91FF9032
S1132D30EF90DF90CF9008954F925F926F927F92C1
S1132D408F929F92AF92BF92CF92DF92EF92FF92B7
S1132D500F931F93CF93DF93CDB7DEB72A97CDBFE1
S1132D60DEBF4C01290138018AE790E2F401808337
S1132D709183FB018081882369F0DE0111963196ED
S1132D8090E002C0993039F09F5F8D938191811159
S1132D90F9CF01C090E0E1E0F0E0EC0FFD1FE90F96
S1132DA0F11D10827401F2E0EF0EF11CA12CB12C84
S1132DB0C12CD12C042F9401A201BE016F5F7F4F5F
S1132DC087E493E10E94341DF40166827782408691
S1132DD05186209176213091772124833583809206
S1132DE0762190927721148615864090E231509096
S1132DF0E331FFEF4F1A5F0A4092E2315092E33120
S1132E00F4014286538616861786108A118A611445
S1132E10710409F444C0813079F56AE0C3010E9469
S1132E2056137C016FE877E00E949D13BE016F5F2B
S1132E307F4FC7010E949D136AE0C7010E94561389
S1132E407C0166E877E00E949D136AE0C7010E9456
S1132E5056137C0168E777E00E949D1363E0C70185
S1132E600E945613B2010E94161462E00E94561387
S1132E7066E00E94561313C06AE0C3010E94561311
S1132E804C0163E677E00E949D13BE016F5F7F4FA4
S1132E90C4010E949D1366E0C4010E9456132A9641
S1132EA0CDBFDEBFDF91CF911F910F91FF90EF90C7
S1132EB0DF90CF90BF90AF909F908F907F906F9056
S1132EC05F904F9008950F931F93CF93DF93EC017E
S1132ED00E94771E8091782181111DC0ADE7B1E277
S1132EE0E1E8F1E2ED93FC93119712961D921C9286
S1132EF01397A9E7B1E28FEF9FE012968D939C930D
S1132F0013971D921C92119782839383A083B1839C
S1132F1081E080937821209709F45FC09E012B5FA4
S1132F203F4F2496CE3FDF4008F05AC0E0917D2108
S1132F30F0917E21ADE7B1E202C0DF01FC018281A4
S1132F4093818217930720F4808191810097A9F7D8
S1132F50C1E2E937FC0709F446C0CD91DC91119731
S1132F608E010B5F1F4F808191818D939C93828191
S1132F709381821B930B8B30910510F1BF01620F7B
S1132F80731FDB0112968D939C93139722833383D3
S1132F9012964D915C9113978DE791E201C0CD019A
S1132FA0EC01A881B98112962D913C9113972417B5
S1132FB03507A8F3EB01A883B983DC016D937C93F7
S1132FC0809100209091012022813381821B930BF8
S1132FD0809300209093012008C000E010E005C019
S1132FE000E010E002C000E010E00E94991FC80158
S1132FF0DF91CF911F910F9108950F931F93CF935A
S1133000DF93009741F1EC018C01055011090E94F6
S1133010771EF80142815381ADE7B1E201C0DF01BF
S1133020ED91FC9111972281338124173507B8F370
S11330302597E883F9830D931C9320910020309108
S113304001208A819B81820F931F8093002090939B
S113305001200E94991FDF91CF911F910F91089534
S113306080910020909101200895FC0103968183B2
S113307092834FEF5FEFBA01438354836583768372
S1133080878390878187928710820895FC01128636
S113309013860895CF93DF93FC01DB0121813281F4
S11330A0E9018C819D8114968D939C931597818160
S11330B0928116968D939C9317978C819D81EC0138
S11330C06E837F83E9016C837D83618372831A96A7
S11330D0ED93FC931B9780818F5F8083DF91CF9169
S11330E008950F931F93CF93DF93EB010881198108
S11330F02A813B810F3F4FEF14072407340731F433
S1133100DC011996ED91FC911A971FC0FC013396CE
S1133110DC0117964D915C911897DA014D915D9100
S11331206D917C91041715072607370770F004800A
S1133130F581E02DA481B5814D915D916D917C91D6
S1133140041715072607370790F7A481B581AC83C8
S1133150BD831696CD93DC931797EE83FF83C483C8
S1133160D5838A879B87FC0120812F5F2083DF9191
S1133170CF911F910F910895FC01A481B58186819F
S1133180978116968D939C931797A681B781848116
S1133190958114968D939C931597A285B38511966A
S11331A08D919C911297E817F90731F486819781E4
S11331B011968D939C931297128613868C9181504D
S11331C08C9308958093E2319093E33131E1FC01D3
S11331D03083319722E220833197A3E3A083319790
S11331E060833197708331971082319710823197C1
S11331F060E8608331971082319710823197108292
S1133200319762E06083319763E06083319764E0D3
S11332106083319765E06083319766E0608331971E
S113322067E06083319768E06083319769E0608389
S1133230319760E1608331973083319732E1308395
S1133240319733E13083319734E13083319735E17D
S11332503083319736E13083319737E130833197CA
S113326038E13083319739E13083319730E230836C
S1133270319731E2308331972083319723E22083E1
S11332803197408331975083319726E220833197D9
S113329027E22083319728E22083319729E2208393
S11332A0319720E32083319721E320838997089580
S11332B08CE78093290A8FEF8093280A81E080931A
S11332C0000A91E19093010A8093070AA091E031EA
S11332D0B091E131CD91CDBFDD91DEBFFF91EF9192
S11332E0DF91CF91BF91AF919F918F917F916F911A
S11332F05F914F913F912F911F910F91FF90EF900C
S1133300DF90CF90BF90AF909F908F907F906F9001
S11333105F904F903F902F901F900F900CBE0F9096
S11333200BBE0F900FBE0F90089508950F920FB625
S1133330F8940F920BB60F920CB60F921F921124B1
S11333402F923F924F925F926F927F928F929F92B1
S1133350AF92BF92CF92DF92EF92FF920F931F939F
S11333602F933F934F935F936F937F938F939F9389
S1133370AF93BF93CF93DF93EF93FF93A091E0318B
S1133380B091E1310DB60D920EB60D920E94B620A9
S1133390A091E031B091E131CD91CDBFDD91DEBF9F
S11333A0FF91EF91DF91CF91BF91AF919F918F9159
S11333B07F916F915F914F913F912F911F910F9149
S11333C0FF90EF90DF90CF90BF90AF909F908F9041
S11333D07F906F905F904F903F902F901F900F9031
S11333E00CBE0F900BBE0F900FBE0F9008950F925E
S11333F00FB6F8940F920BB60F920CB60F921F9261
S113340011242F923F924F925F926F927F928F92EC
S11334109F92AF92BF92CF92DF92EF92FF920F935F
S11334201F932F933F934F935F936F937F938F9348
S11334309F93AF93BF93CF93DF93EF93FF93A091A9
S1133440E031B091E1310DB60D920EB60D920E94AD
S1133450981E0E94B620A091E031B091E131CD9147
S1133460CDBFDD91DEBFFF91EF91DF91CF91BF9191
S1133470AF919F918F917F916F915F914F913F9108
S11334802F911F910F91FF90EF90DF90CF90BF90FD
S1133490AF909F908F907F906F905F904F903F90F0
S11334A02F901F900F900CBE0F900BBE0F900FBE6D
S11334B00F9008950E94F7191895CF93DF93EC01AC
S11334C088A181110BC088819981892BE1F58A81BA
S11334D09B810E9471221A821B8235C0411117C040
S11334E0482F50E08C819D810E94DE2328A18C818D
S11334F09D81820F911D8C839D832A813B8182173C
S1133500930708F1888199818C839D831CC0482F7F
S113351050E08E819F810E94DE2388A190E09195E6
S1133520819591092E813F81280F391F2E833F8376
S1133530488159812417350730F42A813B81820F51
S1133540931F8E839F838E8D8F5F8E8FDF91CF919C
S11335500895FC01808191810097A1F040A150E081
S113356026813781240F351F26833783A281B381B7
S11335702A173B0710F086839783CB0166817781F6
S11335800E94DE2308950F931F93CF93DF93EC01E2
S11335900FB6F8940F928AA11816B4F48B8981118E
S11335A005C012C08B89811104C00EC08E010D5E4E
S11335B01F4FC8010E943D2181110E94FA218AA156
S11335C081508AA3181674F38FEF8AA30F900FBE4D
S11335D00FB6F8940F9289A11816B4F48885811156
S11335E005C012C08885811104C00EC08E01085F19
S11335F01F4FC8010E943D2181110E94FA2189A117
S1133600815089A3181674F38FEF89A30F900FBE0E
S1133610DF91CF911F910F9108951F93CF93DF9363
S1133620613059F0FC012389308531112CC011E03F
S1133630211110E0211128C001C011E0EC014881E2
S1133640598128A130E06F8D629FC001639F900D66
S11336501124BA01680F791F6A837B831E8E4C8301
S11336605D83821B930B840F951F8E839F838FEF43
S113367089A38AA3CE0108960E943518CE014396E9
S11336800E94351801C010E0812FDF91CF911F9166
S113369008950F931F93CF93DF93882301F1062F8F
S11336A0182F83E290E00E946317EC01892BC9F084
S11336B0109FC001112401960E9463178883998387
S11336C0892B39F01F8F08A361E0CE010E940D1BE6
S11336D008C0CE010E94FD17C0E0D0E002C0C0E0E7
S11336E0D0E0CE01DF91CF911F910F910895AF9259
S11336F0BF92CF92DF92EF92FF920F931F93CF93DB
S1133700DF93CDB7DEB72997CDBFDEBF7C015B0168
S11337102E833F834887598710E06C0188E0C80EE8
S1133720D11C0FB6F8940F92F701968D878D9817D8
S1133730A8F4402FB501C7010E945D1AF7018389DF
S1133740882341F0C70143960E943D21813011F442
S11337500E9496190F900FBE81E056C08E819F8102
S1133760A885B985892B8A2B8B2B21F40F900FBE4A
S113377080E04AC0111105C0CE0101960E947C214F
S113378011E00F900FBE0E94771E0FB6F8940F92AF
S1133790F70181A18F3F09F411A2F70182A18F3FA4
S11337A009F412A20F900FBEBE016A5F7F4FCE01D3
S11337B001960E948D21811121C00FB6F8940F92B9
S11337C0F701968D0F900FBE878D981311C04E810F
S11337D05F8168857985C6010E941321C7010E9413
S11337E0C31A0E94991F81119CCF0E94961999CFE8
S11337F0C7010E94C31A0E94991F93CFC7010E9458
S1133800C31A0E94991F80E02996CDBFDEBFDF91C5
S1133810CF911F910F91FF90EF90DF90CF90BF90C9
S1133820AF900895AF92BF92CF92DF92EF92FF9242
S11338300F931F93CF93DF93CDB7DEB72997CDBFF7
S1133840DEBF7C015B012E833F834887598710E0EC
S11338506C0183E1C80ED11C0FB6F8940F92F701E6
S1133860868D882399F1C680D780B501C7010E944F
S1133870A91A01111AC0F701868D8150868F8081A3
S11338809181892B29F40E941722F7018283938363
S1133890F70180858823B1F0C70108960E943D2175
S11338A0813081F40E9496190DC0F701C682D78237
S11338B08389882339F0C70143960E943D218111F1
S11338C00E9496190F900FBE81E062C08E819F8185
S11338D0A885B985892B8A2B8B2B21F40F900FBED9
S11338E080E056C0111105C0CE0101960E947C21D2
S11338F011E00F900FBE0E94771E0FB6F8940F923E
S1133900F70181A18F3F09F411A2F70182A18F3F32
S113391009F412A20F900FBEBE016A5F7F4FCE0161
S113392001960E948D2181112DC00FB6F8940F923B
S1133930F701868D0F900FBE81111EC08081918189
S1133940892B49F40FB6F8940F92828193810E94D7
S11339501C220F900FBE4E815F8168857985C60158
S11339600E941321C7010E94C31A0E94991F81114A
S113397073CF0E94961970CFC7010E94C31A0E9488
S1133980991F6ACFC7010E94C31A0E94991F80E041
S11339902996CDBFDEBFDF91CF911F910F91FF908C
S11339A0EF90DF90CF90BF90AF9008950FB6F8944A
S11339B00F92FC01868D0F900FBE0895C4EBD1E3E6
S11339C088818230E8F30E949619FACFCF92DF9271
S11339D0EF92FF926B017C01E091E031F091E131D3
S11339E06283738384839583809188319091893134
S11339F0A0918A31B0918B31C816D906EA06FB062C
S1133A0068F46091E0317091E13180919A31909144
S1133A109B316E5F7F4F0E94711821C06091E0312D
S1133A207091E13180919C3190919D316E5F7F4F17
S1133A300E9471188091022090910320A09104208B
S1133A40B0910520C816D906EA06FB0640F4C092D8
S1133A500220D0920320E0920420F0920520FF90EF
S1133A60EF90DF90CF9008954F925F926F927F9284
S1133A708F929F92AF92BF92CF92DF92EF92FF927A
S1133A800F931F93CF93DF935C014B013A012901FC
S1133A9088E290E00E946317EC01892B09F4D4C0FA
S1133AA0C114D10409F0CCC0C3010E9463178B8FE9
S1133AB09C8F009721F4CE010E94FD17C5C0A3017D
S1133AC061E170E00E94E7239301215031098B8D5D
S1133AD09C8D3C01620E731E4AE050E0B401CE019D
S1133AE04D960E94EE231EA2102F043008F013E01E
S1133AF01A8F1FA36E0122E0C20ED11CC6010E94C0
S1133B004618CE010E960E944618CA87DB8784E0C9
S1133B1090E0A0E0B0E0811B9109A109B1098E8772
S1133B209F87A88BB98BCE8BDF8BA201B501C30114
S1133B300E94E21888839983E114F10419F0F701D3
S1133B40C083D1830FB6F8940F9280918C318F5F2C
S1133B5080938C318091E0319091E131892B89F50A
S1133B60C093E031D093E13180918C318130C1F543
S1133B7084EB91E30E9435188FEB91E30E94351892
S1133B808AEC91E30E94351885ED91E30E94351883
S1133B9089EA91E30E9435188EE991E30E94351871
S1133BA08FE891E30E94351889EA91E380939C3170
S1133BB090939D318EE991E380939A3190939B3158
S1133BC00FC08091853181110BC0E091E031F091FB
S1133BD0E131828D081720F0C093E031D093E131B8
S1133BE08A8D90918731981710F480938731909142
S1133BF080319F5F9093803190918631981710F4B3
S1133C0080938631FBE08F9FC0011124B6018C5450
S1133C109E4C0E944A180F900FBE809185318823D4
S1133C2059F0E091E031F091E131828D801730F468
S1133C300E94961981E009C081E007C081E005C0B7
S1133C40CB8EDC8EC6013BCF8FEFDF91CF911F91DE
S1133C500F91FF90EF90DF90CF90BF90AF909F9027
S1133C608F907F906F905F904F9008950FB6F89467
S1133C700F92009721F48091E0319091E1310F90FF
S1133C800FBEFC01828D0895AF92BF92CF92DF9256
S1133C90EF92FF920F93A12CB12CC12CD12C0F2E9B
S1133CA0FDE8EF2EF1E3FF2EF02D00E020E030E000
S1133CB044E650E069E271E28EED9CE10E94341D1D
S1133CC0813069F4F8948093853110928831109290
S1133CD0893110928A3110928B310E9458190F91B8
S1133CE0FF90EF90DF90CF90BF90AF9008958091B8
S1133CF084318F5F8093843108950FB6F8940F92C6
S1133D00609188317091893180918A3190918B31A1
S1133D100F900FBE0895009721F48091E0319091A7
S1133D20E1314D96089580918D3190918E310895B1
S1133D30FF920F931F93CF93DF938091843181116E
S1133D40EDC08091883190918931A0918A31B091F0
S1133D508B310196A11DB11D8093883190938931D7
S1133D60A0938A31B0938B318091883190918931BD
S1133D70A0918A31B0918B31892B8A2B8B2BF1F551
S1133D8080919C3190919D3120919A3130919B3159
S1133D9020939C3130939D3180939A3190939B3141
S1133DA0809181318F5F80938131E0919C31F091DA
S1133DB09D31808181110CC08FEF9FEFDC018093D6
S1133DC0022090930320A0930420B093052016C0F2
S1133DD0E0919C31F0919D310780F085E02D0084C5
S1133DE0F185E02D82819381A481B58180930220A5
S1133DF090930320A0930420B09305204091883130
S1133E005091893160918A3170918B318091022077
S1133E1090910320A0910420B091052048175907E0
S1133E206A077B0708F47FC0E0919C31F0919D31D3
S1133E3080818823F9F0E0919C31F0919D310780D5
S1133E40F085E02DC085D1858A819B81AC81BD81BF
S1133E50409188315091893160918A3170918B31D0
S1133E60481759076A077B0758F10F2EFBE0FF2E0E
S1133E70F02D2FC08FEF9FEFDC01809302209093F1
S1133E800320A0930420B09305204DC0E0919C3101
S1133E90F0919D310780F085E02DC085D1858A8120
S1133EA09B81AC81BD814091883150918931609171
S1133EB08A3170918B31481759076A077B0748F498
S1133EC08093022090930320A0930420B0930520B4
S1133ED02AC08E010E5F1F4FC8010E94BC18888D36
S1133EE0998D892B21F0CE010E960E94BC188A8DE3
S1133EF090918631981710F480938631F89EC00112
S1133F001124B8018C549E4C0E944A18E0919C31B3
S1133F10F0919D3180818111B9CFACCF80918331F3
S1133F208F5F80938331DF91CF911F910F91FF9029
S1133F300895CF92DF92EF92FF920F931F93CF9346
S1133F40DF930FB6F8940F9280918431815080935F
S1133F50843180918431811160C080918C318111D0
S1133F602CC05EC0D7011796ED91FC911897C085BF
S1133F70D185CE010E960E94BC188E010E5F1F4F94
S1133F80C8010E94BC188A8D90918631981710F44C
S1133F9080938631D89EC0011124B8018C549E4C64
S1133FA00E944A18E091E031F091E1319A8D828DBE
S1133FB0981770F0CC24C3940BC0C12C0F2EFFE8CB
S1133FC0EF2EF1E3FF2EF02D0F2EFBE0DF2EF02D70
S1133FD0F70180818111C6CF80918331882381F0DC
S1133FE080918331882399F00E94981E80918331B7
S1133FF0815080938331809183318111F5CF07C043
S1134000F1E0CF1621F080918231813041F4109299
S113401082310E94961981E003C080E001C080E0F3
S11340200F900FBEDF91CF911F910F91FF90EF90F2
S1134030DF90CF900895CF92DF92EF92FF92CF93CB
S1134040DF93EC016A017B010E94771E88819981CC
S1134050AA81BB81C80ED91EEA1EFB1E409188317D
S11340605091893160918A3170918B314817590789
S11340706A077B07B8F4C816D906EA06FB06E0F51A
S11340808091883190918931A0918A31B0918B319E
S1134090C882D982EA82FB828C159D05AE05BF05D4
S11340A0F8F413C0C816D906EA06FB0600F180919D
S11340B0883190918931A0918A31B0918B318C15DE
S11340C09D05AE05BF0598F017C08091E031909131
S11340D0E13102960E94BC18C701B6010E94E61C99
S11340E00E94991F81110DC00E9496190AC0C882AE
S11340F0D982EA82FB82E9CFC882D982EA82FB8232
S1134100EFCFDF91CF91FF90EF90DF90CF900895A4
S1134110CF92DF92EF92FF926B017C01672B682BA9
S1134120692BE9F00E94771E809188319091893142
S1134130A0918A31B0918B31C80ED91EEA1EFB1EA4
S11341408091E0319091E13102960E94BC18C70140
S1134150B6010E94E61C0E94991F811102C00E94B0
S11341609619FF90EF90DF90CF900895809184315D
S113417081110CC0E09186314BE0E49FF0011124E1
S1134180EC54FE4C8081882329F014C081E0809394
S1134190823108959BE080918631815080938631ED
S11341A0E09186319E9FF0011124EC54FE4C8081F5
S11341B0882389F380918631282F30E04BE0849F57
S11341C0C0011124DC01AC54BE4C1196ED91FC915C
S11341D012970480F581E02D1196ED93FC931297CC
S11341E089549E4CE817F90761F4848195814BE06A
S11341F0429FF001439FF00D1124EC54FE4C818347
S113420092838BE0829FF001839FF00D1124EC5484
S1134210FE4C0180F281E02D808591858093E03110
S11342209093E1310895CF92DF92EF92FF926A0169
S11342307B016091E0317091E131625F7F4F0E94B8
S113424071188091E0319091E13102960E94BC187E
S11342508091883190918931A0918A31B0918B31CC
S1134260BC01CD016C0D7D1D8E1D9F1D0E94E61CA1
S1134270FF90EF90DF90CF9008950F931F93CF930B
S1134280DF93DC011796ED91FC911897C085D185D9
S11342908E01025F1F4FC8010E94BC1880918431B7
S11342A0811116C00C501109C8010E94BC188A8DD6
S11342B090918631981710F480938631BBE08B9FE0
S11342C0C0011124B8018C549E4C0E944A1805C0A8
S11342D0B8018FE891E30E944A18E091E031F0912F
S11342E0E13181E02A8D928D291708F480E0DF9175
S11342F0CF911F910F91089520918131FC0120836A
S1134300409188315091893160918A3170918B311B
S1134310418352836383748308958F929F92AF92F3
S1134320BF92CF92DF92EF92FF920F931F93CF939E
S1134330DF93FC010FB6F8940F9280918131908144
S1134340981789F08091883190918931A0918A31B0
S1134350B0918B31018112812381348180179107BF
S1134360A207B307A8F58091883190918931A09173
S11343708A31B0918B31C180D280E380F480EB012B
S1134380088119812A813B818C199D09AE09BF09D5
S113439080179107A207B307E8F4CF018090883112
S11343A090908931A0908A31B0908B31B501A401ED
S11343B04C195D096E097F09041B150B260B370B7D
S11343C0088319832A833B830E947C2180E003C0F5
S11343D081E001C081E00F900FBEDF91CF911F916A
S11343E00F91FF90EF90DF90CF90BF90AF909F9090
S11343F08F90089581E0809382310895009721F48D
S11344008091E0319091E131DC015B96ED91FC917A
S11344105C978081813141F4319680E090E001968F
S113442021912131E1F3089580E090E00895809195
S1134430E0319091E13108950F931F93CF93DF936F
S1134440FC01228DA091E031B091E1315A968C911A
S1134450281708F041C0A091E031B091E1315A969B
S11344603C9184E090E0A0E0B0E0831B9109A109B5
S1134470B10986879787A08BB18B8BE0289F900129
S113448011242C543E4C8485958582179307E9F4B6
S11344908F01EF012296CE010E94BC18E091E03119
S11344A0F091E131828DF801828F909186319817D5
S11344B010F480938631FBE08F9FC0011124BE016C
S11344C08C549E4C0E944A1807C0A091E031B091D0
S11344D0E1315A968C91828FDF91CF911F910F9188
S11344E008950F931F93CF93DF93009749F1FC0135
S11344F0328D27A1321721F1EC018C010E5F1F4F81
S1134500C8010E94BC188FA18A8F44E050E060E08B
S113451070E0481B5109610971094E875F87688BF8
S1134520798B90918631981710F480938631FBE053
S11345308F9FC0011124B8018C549E4C0E944A18CC
S1134540DF91CF911F910F910895052E97FB1EF4D3
S113455000940E94BC2257FD07D00E94C42207FC8D
S113456003D04EF40C94BC2250954095309521957F
S11345703F4F4F4F5F4F089590958095709561958B
S11345807F4F8F4F9F4F0895A1E21A2EAA1BBB1B8A
S1134590FD010DC0AA1FBB1FEE1FFF1FA217B3070B
S11345A0E407F50720F0A21BB30BE40BF50B661F21
S11345B0771F881F991F1A9469F7609570958095E5
S11345C090959B01AC01BD01CF010895EF920F932B
S11345D01F93CF93DF93E80147FD02C034E001C08D
S11345E034E1042E000C550B57FF03C0519541953F
S11345F05109E32E022F242FAE010E944F24CE0135
S1134600DF91CF911F910F91EF900895283008F01A
S113461027E03327DA01990F311D87FD9160009659
S11346206105710539F432602E5F3D9330E32A95BC
S1134630E1F708959F3F30F080387105610509F076
S11346403C5F3C5F3D93913008F08068911DDF939F
S1134650CF931F930F93FF92EF92192F987F969504
S1134660E92F96959695E90FFF27EC52FC4F992771
S11346703327EE24FF24A701E7010590089407944B
S113468028F4360FE71EF81E491F511D660F771FC9
S1134690881F991F0694A1F70590079428F4E70E44
S11346A0F81E491F561FC11D770F881F991F661FCB
S11346B00694A1F70590079428F4F80E491F561F95
S11346C0C71FD11D880F991F661F771F0694A1F776
S11346D00590079420F4490F561FC71FD81F990F40
S11346E0661F771F881F0694A9F784911095177089
S11346F041F0D695C79557954795F794E7941A9541
S1134700C1F7EAE7F3E06894159015913591659146
S1134710959105907FE27395E118F10A430B560BCE
S1134720C90BD009C0F7E10CF11E431F561FC91F66
S1134730D01D7EF4703311F48A95E6CFE8940150CD
S113474030F0080F0AF40027021708F4202F2395ED
S1134750022F7A3328F079E37D932A95E9F710C084
S11347607D932A9589F606949795679537951795BD
S11347701794E118F10A430B560BC90BD00998F0B2
S113478023957E9173957A3308F070E37C9320131C
S1134790B8F77E9170617D9330F0839571E37D93DA
S11347A070E32A95E1F71124EF90FF900F911F9188
S11347B0CF91DF91992787FD90950895FB01DC0146
S11347C002C001900D9241505040D8F70895DC0189
S11347D001C06D9341505040E0F70895FB01DC01A6
S11347E04150504048F001900D920020C9F701C09B
S11347F01D9241505040E0F708952532310520F4D0
S1134800223010F00C940824FA011082CA01089591
S1134810BB27FA01A62F6217710581059105330B99
S113482030FB66F0AA27660F771F881F991FAA1FFF
S1134830A21710F0A21B63953850A9F7A05DAA3304
S113484008F0A95DA19336F7B111B1931082CA01A2
S11348500C94C0254532510520F4423010F00C94DC
S11348603524FB011082CB010895BB27FB0155279A
S1134870AA27880F991FAA1FA41710F0A41B8395B9
S11348805051B9F7A05DAA3308F0A95DA193009730
S113489079F7B111B1931192CB010C94C0258F9289
S11348A09F92AF92BF92CF92DF92EF92FF920F93BB
S11348B01F93CF93DF93CDB7DEB72997CDBFDEBF6C
S11348C06A01122FB02E2BE3201720F0FF24F3945B
S11348D0F00E02C02CE3F22E0F2D27E0AE014F5F45
S11348E05F4F0E940623BC014981842F8970813067
S11348F031F0E1FC06C0E0FE06C090E205C09DE296
S113490003C09BE201C090E05E2D507143FF3CC0A8
S1134910911102C083E001C084E0811718F4212FB3
S1134920281B01C020E051110BC0F601822F30E298
S1134930882319F031938150FBCFC20ED11C20E0A3
S1134940992329F0D6019C93F60131966F01C60193
S11349500396E2FE0AC03EE4D6013C9341E411967C
S11349604C93119712963C9306C03EE6F6013083B1
S113497041E641833283FC01322F40E2332309F4C0
S113498042C041933150FACF42FF44C0911102C05A
S113499083E001C084E0811718F4212F281B01C093
S11349A020E051110BC0F601822F30E2882319F068
S11349B031938150FBCFC20ED11C20E0992329F002
S11349C0D6019C93F60131966F01C6010396E2FE6F
S11349D00BC039E4D6013C933EE411963C93119705
S11349E036E412963C9307C039E6F60130833EE67E
S11349F0318336E63283FC01322F40E2332319F04F
S1134A0041933150FBCFFC01E20FF11D10828EEF78
S1134A109FEFA6C021E030E0911102C020E030E019
S1134A20161617061CF4FB01319602C0E1E0F0E013
S1134A302E0F3F1FBB2021F0EB2DF0E0319602C07A
S1134A40E0E0F0E02E0F3F1FE12FF0E02E173F07CC
S1134A501CF4121B212F01C020E08E2D887159F403
S1134A60F601822F30E2882319F031938150FBCF75
S1134A70C20ED11C20E0992329F0D6019C93F601A3
S1134A8031966F0151110BC0F601822F90E38823F8
S1134A9019F091938150FBCFC20ED11C20E00F2D51
S1134AA0060F9A81342F307144FF03C0913309F407
S1134AB00150101624F4093018F008E001C001E098
S1134AC0AB0177FF02C040E050E0FB01E41BF50BB3
S1134AD0A1E0B0E0AC0FBD1FEA0FFB1F8EE2A82ED1
S1134AE04B01801A91080B2D10E0119501951109C5
S1134AF04F3FBFEF5B0721F4D601AC9211966D01D5
S1134B00641775072CF08416950614F4818101C08E
S1134B1080E3415051093196D60111967D01401729
S1134B20510724F0D6018C936701E2CF641775070F
S1134B3039F4963320F4953319F4311101C081E32B
S1134B40F6018083F701822F90E2882319F0919374
S1134B508150FBCFF701E20FF11D108280E090E05D
S1134B602996CDBFDEBFDF91CF911F910F91FF90AA
S1134B70EF90DF90CF90BF90AF909F908F9008956B
S1134B80DC01FC01672F71917723E1F7329704C0B0
S1134B907C916D9370836291AE17BF07C8F308953B
S1134BA05058BB27AA270E94E8250C9462270E942C
S1134BB0542738F00E945B2720F039F49F3F19F402
S1134BC026F40C9451270EF4E095E7FB0C944B2744
S1134BD0E92F0E94732758F3BA17620773078407F3
S1134BE0950720F079F4A6F50C9495270EF4E0953A
S1134BF00B2EBA2FA02D0B01B90190010C01CA0193
S1134C00A0011124FF27591B99F0593F50F4503E3D
S1134C1068F11A16F040A22F232F342F4427585F2F
S1134C20F3CF469537952795A795F0405395C9F747
S1134C307EF41F16BA0B620B730B840BBAF09150FF
S1134C40A1F0FF0FBB1F661F771F881FC2F70EC09E
S1134C50BA0F621F731F841F48F487957795679571
S1134C60B795F7959E3F08F0B0CF9395880F08F05D
S1134C709927EE0F9795879508950E94272708F4A2
S1134C8081E008950E9456260C9462270E945B27B7
S1134C9058F00E94542740F029F45F3F29F00C9407
S1134CA04B2751110C9496270C9451270E9473277B
S1134CB068F39923B1F3552391F3951B550BBB2747
S1134CC0AA2762177307840738F09F5F5F4F220F8C
S1134CD0331F441FAA1FA9F335D00E2E3AF0E0E883
S1134CE032D091505040E695001CCAF72BD0FE2FCD
S1134CF029D0660F771F881FBB1F26173707480761
S1134D00AB07B0E809F0BB0B802DBF01FF27935818
S1134D105F4F3AF09E3F510578F00C944B270C946A
S1134D2096275F3FE4F3983ED4F38695779567958D
S1134D30B795F7959F5FC9F7880F911D969587954D
S1134D4097F90895E1E0660F771F881FBB1F62176C
S1134D5073078407BA0720F0621B730B840BBA0B2A
S1134D60EE1F88F7E09508950E94BB266894B11160
S1134D700C94962708950E947B2788F09F5798F0FB
S1134D80B92F9927B751B0F0E1F0660F771F881F4C
S1134D90991F1AF0BA95C9F714C0B13091F00E9466
S1134DA09527B1E008950C949527672F782F8827CD
S1134DB0B85F39F0B93FCCF3869577956795B3958D
S1134DC0D9F73EF490958095709561957F4F8F4FFC
S1134DD09F4F0895E89409C097FB3EF49095809501
S1134DE0709561957F4F8F4F9F4F9923A9F0F92FAD
S1134DF096E9BB279395F695879577956795B7952B
S1134E00F111F8CFFAF4BB0F11F460FF1BC06F5F10
S1134E107F4F8F4F9F4F16C0882311F096E911C022
S1134E20772321F09EE8872F762F05C0662371F043
S1134E3096E8862F70E060E02AF09A95660F771F57
S1134E40881FDAF7880F9695879597F90895990F33
S1134E500008550FAA0BE0E8FEEF16161706E80740
S1134E60F907C0F012161306E407F50798F0621B61
S1134E70730B840B950B39F40A2661F0232B242B36
S1134E80252B21F408950A2609F4A140A6958FEF55
S1134E90811D811D089597F99F6780E870E060E0A7
S1134EA008959FEF80EC089500240A9416161706BF
S1134EB018060906089500240A9412161306140607
S1134EC005060895092E0394000C11F4882352F06A
S1134ED0BB0F40F4BF2B11F460FF04C06F5F7F4F22
S1134EE08F4F9F4F089557FD9058440F551F59F009
S1134EF05F3F71F04795880F97FB991F61F09F3FC3
S1134F0079F087950895121613061406551FF2CFEB
S1134F104695F1DF08C0161617061806991FF1CF3B
S1134F2086957105610508940895E894BB27662762
S1134F307727CB0197F908950E94272708F48FEF6C
S1134F4008950E94B4270C9462270E94542738F0D5
S1134F500E945B2720F0952311F00C944B270C94AE
S1134F60512711240C9496270E94732770F3959F60
S1134F70C1F3950F50E0551F629FF001729FBB274C
S1134F80F00DB11D639FAA27F00DB11DAA1F649FE8
S1134F906627B00DA11D661F829F2227B00DA11D9B
S1134FA0621F739FB00DA11D621F839FA00D611D21
S1134FB0221F749F3327A00D611D231F849F600D42
S1134FC0211D822F762F6A2F11249F5750409AF06B
S1134FD0F1F088234AF0EE0FFF1FBB1F661F771FF7
S1134FE0881F91505040A9F79E3F510580F00C94C2
S1134FF04B270C9496275F3FE4F3983ED4F38695B1
S113500077956795B795F795E7959F5FC1F7FE2B61
S1135010880F911D9695879597F90895DB018F93D5
S11350209F930E942728BF91AF91A29F800D911D4D
S1135030A39F900DB29F900D11240895EE0FFF1FB2
S1135040881F8BBF0790F691E02D1BBE19940E9418
S11350503228A59F900DB49F900DA49F800D911DA3
S113506011240895A29FB001B39FC001A39F700DA6
S1135070811D1124911DB29F700D811D1124911D5C
S10950800895F894FFCF2F
S1135086FF0FFFFFFFFF000000000000000000000C
S113509600000000000000000000FD126D0E340E3A
S11350A6470EF7122B0E00000000FB044A14000002
S11350B600009C094A1400000000BE074A140000C0
S11350C600008E084A1400000000140A4A14000066
S11350D600003B094A1400000000FD12FF12F812FA
S11350E6FA12F712F61200000000FD1229131E131D
S11350F60013F712F61200000000FF124A144C497E
S11351064D4954205357495443482048495420454F
S113511652524F52004F75747369646520416E672D
S11351266C65205265636F7665727900416E676CB3
S1135136652072616469616E733A200020416E676E
S11351466C65206572726F723A2000204D6F746F21
S11351567220753A20004672656552544F532058A2
S11351666D6567612054657374696E672050726F4C
S11351766772616D0055736572496E74004C65669D
S1135186745377005269676874537700456E6350A9
S1135196656E00456E634D74720053797343747281
S11151A66C004D7472436D640049444C450026
S9030000FC
