S01600004652454552544F535F5348454C4C2E73726563CD
S11300000C9466030C949C030C949C030C949C0326
S11300100C949C030C949C030C949C030C949C03E0
S11300200C949C030C949C030C949C030C949C03D0
S11300300C949C030C949C030C949C030C949C03C0
S11300400C949C030C949C030C949C030C949C03B0
S11300500C949C030C949C030C949C030C949C03A0
S11300600C949C030C945F100C949C030C949C03C0
S11300700C9401100C949C030C949C030C949C030E
S11300800C949C030C949C030C949C030C949C0370
S11300900C949C030C949C030C949C030C949C0360
S11300A00C949C030C949C030C949C030C949C0350
S11300B00C949C030C949C030C949C030C949C0340
S11300C00C949C030C94A1180C949C030C949C0316
S11300D00C949C030C949C030C949C030C949C0320
S11300E00C949C030C949C030C94E70E0C949C03BA
S11300F00C949C030C949C030C949C030C949C0300
S11301000C949C030C949C030C949C030C949C03EF
S11301100C949C030C949C030C949C030C949C03DF
S11301200C949C030C949C030C949C030C949C03CF
S11301300C949C030C949C030C949C030C949C03BF
S11301400C949C030C949C030C949C030C949C03AF
S11301500C949C030C949C030C949C030C949C039F
S11301600C94A30F0C949C030C949C030C94450FC7
S11301700C949C030C949C030C949C030C949C037F
S11301800C949C030C949C030C949C030C949C036F
S11301900C949C030C949C030C949C030C949C035F
S11301A00C949C030C949C030C949C030C949C034F
S11301B00C949C030C949C030C949C030C949C033F
S11301C00C949C030C949C030C949C030C949C032F
S11301D00C949C030C949C030C949C030C949C031F
S11301E00C949C030C949C030C949C030C949C030F
S11301F00C949C030C949C030C949C037606F706C5
S1130200F706F706F706F706F706F706F706F70602
S1130210F706F706F706F706F706F706F706F706F2
S1130220F706F706F706F706F706F706F706F706E2
S1130230F706F706F706F706F706F706F706F706D2
S1130240F706F706F706F706F706F706F706F706C2
S1130250F706F706F706F706F706F706F706F706B2
S1130260F706F706F706F706F706F706F706F706A2
S1130270F706F706F706F706F706F706F706F70692
S1130280F706F706F706F706F7068B06F706C10624
S11302907606F706A7067206F706F706F706F706C8
S11302A0F7063305F706F706F706DD063806F70600
S11302B0F7064105AC11AF11B211B511B811BB115C
S11302C0BD11CE11D611E011DE110C94BD110C94A8
S11302D03F110C9441050C94990B0C94B5110C949A
S11302E0720C0C943D110C94FA0B0C948E0C0C941F
S11302F0E0110C94DE110C94F70A0C943E110C944A
S1130300B40C0C9470110C94B2110C9438060C9427
S1130310690A0C9446110C9441110C94251B0C94FD
S1130320C1060C947B0C0C9472060C9444110C942E
S1130330AC110C948E110C94BB110C94CE110C9432
S1130340D80C0C9465110C94B8110C947E040C9484
S1130350AF110C94DD060C9441070C94A7060C9481
S113036091120C94D6110C94F7060C948B060C94F1
S113037047110C9433050C9476060909002F0049A3
S1130380444C45090930092D0900092D2D2D2D0056
S1130390092D2D2D2D2D2D2D2D2D2D002D2D2D2DDA
S11303A009092D2D2D2D092D2D2D2D2D00095275C9
S11303B06E730009467265652F546F74616C004E4C
S11303C0616D6509095072692E0953746174650081
S11303D009537461636B005461736B09092020092C
S11303E020002C20544343304343413D002F002C34
S11303F0204865617020667265653A200054696D15
S1130400653A200041707220313320323032350099
S11304104D45343035206261736520726164696FC3
S11304202070726F6772616D2056302E3420001B6D
S11304305B32326D005461736B3A2049444C450081
S11304401B5B316D00496C6C6567616C2073746172
S113045074652120526573657474696E6720415612
S113046052003A5754463F0052657365742C207409
S1130470727920486F6D696E6720616761696E20CB
S11304806279207072657373696E67202762270032
S1130490454D455247454E43592053544F50004310
S11304A06F6D6D656E63652042616C616E6365009E
S11304B0426567696E20486F6D696E6700457869AB
S11304C07420636F6D6D616E64206D6F646500529E
S11304D06573657474696E67204156520050726585
S11304E07373204374726C2D4120666F7220636FA6
S11304F06D6D616E64206D6F64650020202020683E
S11305003A20202048414C50210020202020723ADB
S1130510202020526573657420746F2049646C65D3
S11305200020202020643A202020456D65726765F4
S11305306E63792053746F700020202020673A2066
S1130540202053746172742042616C616E63652172
S11305500020202020623A202020426567696E2016
S113056043616C6962726174696F6E00202020209F
S1130570653A2020204578697420636F6D6D616E43
S113058064206D6F64650020202020733A202020B1
S1130590537461636B2064756D7020666F72207490
S11305A061736B730020202020763A20202056654A
S11305B07273696F6E20616E642073657475702048
S11305C0696E666F726D6174696F6E002020202001
S11305D06E3A20202053686F772074686520746910
S11305E06D65207269676874206E6F7700202049FA
S11305F06E20636F6D6D616E64206D6F6465206F36
S11306006E6C793A00202043746C2D413A20456E7B
S113061074657220636F6D6D616E64206D6F6465C7
S113062000202043746C2D433A2052657365742076
S113063074686520415652002068656C70004D4511
S1130640343035206261736520726164696F207093
S1130650726F6772616D2056302E3420001B5B333D
S1130660306D001B5B34366D004552524F5220638F
S113067072656174696E67207461736B20002C204D
S1130680737461636B206174203078002063726539
S113069061746564005461736B20001B5B32326DBE
S11306A0005461736B3A20001B5B316D0009000933
S11306B0002F00090009001B5B32326D001B5B3107
S11306C06D001B5B316D00202000D80C11241FBE6F
S11306D0CFEFCDBFDFE3DEBF00E00CBF18BE19BE15
S11306E01ABE1BBE10E2A0E0B0E2E6EEF7E400E0C2
S11306F00BBF02C007900D92AE3DB107D9F71BBEE8
S113070021E3AEEDB0E201C01D92A239B207E1F7D8
S113071013E0C6E6D3E000E006C021970109802F6C
S1130720FE010E94CE23C536D10780E00807A9F751
S11307300E94FC0C0C94F1230C9400000F931F9363
S1130740CF93DF93EC016AE08E819F810E949D111B
S11307508C0163E676E00E94E4116AE0C8010E941D
S11307609D118C016DE576E00E94E41167E0C801FB
S11307700E949D116AE08E819F810E949D118C01CF
S11307806EE376E00E94E4116AE0C8010E949D11C4
S11307908C0168E376E00E94E41166E0C8010E94DF
S11307A09D116AE08E819F810E949D118C0161E2FE
S11307B076E00E94E41166E0C8010E949D116AE09F
S11307C08E819F810E949D118C0165E076E00E94DC
S11307D0E41166E0C8010E949D116AE08E819F8148
S11307E00E949D118C016DEE75E00E94E41166E09B
S11307F0C8010E949D116AE08E819F810E949D1113
S11308008C016CEC75E00E94E41166E0C8010E9462
S11308109D116AE08E819F810E949D118C0165EA81
S113082075E00E94E41166E0C8010E949D116AE02F
S11308308E819F810E949D118C0167E875E00E9462
S1130840E41166E0C8010E949D116AE08E819F81D7
S11308500E949D118C016CE675E00E94E41166E033
S1130860C8010E949D116AE08E819F810E949D11A2
S11308708C0161E575E00E94E41166E0C8010E9404
S11308809D116AE08E819F810E949D118C0169E314
S113089075E00E94E41166E0C8010E949D116AE0BF
S11308A08E819F810E949D118C0161E275E00E94FE
S11308B0E41166E0C8010E949D116AE08E819F8167
S11308C00E949D118C016AE075E00E94E41166E0CB
S11308D0C8010E949D116AE08E819F810E949D1132
S11308E0EC016BEF74E00E94E41166E0CE010E941B
S11308F09D11DF91CF911F910F910895CF93DF93B5
S1130900CDB7DEB72C97CDBFDEBF7C0119821A822A
S11309101B821C821D821E826AE0DC0116968D9168
S11309209C9117970E949D116C016DED74E00E94DB
S1130930E41166E0C6010E949D1111E0812C6894C7
S1130940992493F80F2EF4E2AF2EF1E2BF2EF02D8E
S1130950F7018485882321F0813009F460C063C2E3
S113096086819781DC01ED91FC910480F581E02D75
S11309701995882309F437C0F70186819781DC0132
S1130980ED91FC910680F781E02D1995992781302E
S11309909105F9F0039709F061C26AE0F7018681D5
S11309A097810E949D117C016FEC74E00E94E41118
S11309B066E0C7010E949D1193E088ED08B618BE59
S11309C084BF909380008091820081FDFCCF08BE9B
S11309D0FFCFC7010E949E03D7011C961C931C974E
S11309E01D961C933BC286EF90E20E9465118823FA
S11309F009F434C2D7011696ED91FC911797019032
S1130A00F081E02DC280D38086EF90E20E944711EE
S1130A10682FF70186819781F60119951FC2868197
S1130A209781DC01ED91FC910480F581E02D19950D
S1130A30882309F413C2F70186819781DC01ED91C3
S1130A40FC910680F781E02D1995BC01FC01FF277C
S1130A507B97EC35F10508F0CAC18827E250FF4FB7
S1130A608F4F0C94CE23CE0101960E94D013BC016B
S1130A70F701868197810E94E81366E00E949D1128
S1130A80EDC11F82188619861A861B861C860E9451
S1130A9077163C01CE0107960E94D0132C0166E024
S1130AA0D70116968D919C9117970E949D116AE02B
S1130AB00E949D116C0160E174E00E94E4116AE0FF
S1130AC0C6010E949D116C0164E074E00E94E4116F
S1130AD066E0C6010E949D116AE00E949D116C01AE
S1130AE06DEF73E00E94E411B201C6010E94E813A5
S1130AF06AE00E949D116C016FEE73E00E94E411A4
S1130B00B301C6010E945D126AE00E949D116C014E
S1130B106DEE73E00E94E4114FEF5FE060E070E07F
S1130B20C6010E941B12F40160A471A46AE0D701FB
S1130B3016968D919C9117970E949D116C0162EEFF
S1130B4073E00E94E411B301C6010E945D1266E0E5
S1130B500E949D1166E00E949D11F701C680D78016
S1130B606AE0C6010E949D113C0167ED73E00E949A
S1130B70E4116AE0C3010E949D113C0160ED73E041
S1130B800E94E41166E0C3010E949D116AE0C6015F
S1130B900E949D113C016FEB73E00E94E4116AE036
S1130BA0C3010E949D113C0163EB73E00E94E411B8
S1130BB06AE0C3010E949D113C016DEA73E00E944A
S1130BC0E41166E0C3010E949D116AE0C6010E941F
S1130BD09D113C016CE973E00E94E4116AE0C301D9
S1130BE00E949D113C0160E973E00E94E4116AE0F7
S1130BF0C3010E949D113C016AE873E00E94E41164
S1130C0066E0C3010E949D11D5018D919C910097CE
S1130C1019F0B6010E9479140E94DA1C0E94452042
S1130C20082F6AE0C6010E949D116C016FE773E012
S1130C300E94E411602FC6010E94BD106AE00E9468
S1130C409D116C016DE773E00E94E41164E670E0AD
S1130C50C6010E945D126AE00E949D116C016AE760
S1130C6073E00E94E41166E0C6010E949D11F6C083
S1130C70F701C680D7808091242190912521009787
S1130C8019F0B6010E9495146AE0C6010E949D11F4
S1130C903C0160E474E00E94E4116AE0C3010E9434
S1130CA09D113C0165E374E00E94E4116AE0C30114
S1130CB00E949D113C016FE274E00E94E41166E021
S1130CC0C3010E949D118091903190919131BC019A
S1130CD06F5F7F4F01E1212FA601835691090E9486
S1130CE02113BCC0C7010E949E03B8C06AE0D701AB
S1130CF016968D919C9117970E949D116C016DEB36
S1130D0074E00E94E41166E0C6010E949D11F7019F
S1130D1014861586A3C0E091E420F091E5200FB677
S1130D20F8940F9210830F900FBE6AE0D7011696C5
S1130D308D919C9117970E949D116C0160EB74E05A
S1130D400E94E41166E0C6010E949D1187C0E091F3
S1130D50E220F091E3200FB6F8940F9210830F90E5
S1130D600FBE6AE0F701868197810E949D116C0194
S1130D706FE974E00E94E41166E0C6010E949D11CF
S1130D806DC0E091E020F091E1200FB6F8940F924D
S1130D9010830F900FBE6AE0D70116968D919C9137
S1130DA017970E949D116C0160E974E00E94E411A0
S1130DB066E0C6010E949D1151C0E091DE20F091D1
S1130DC0DF200FB6F8940F9210830F900FBE6AE0E5
S1130DD0F701868197810E949D116C0168E674E099
S1130DE00E94E41166E0C6010E949D1137C0D7013C
S1130DF016968D919C911797DC01ED91FC910280E0
S1130E00F381E02D19956AE0F701868197810E94AC
S1130E109D116C0162E674E00E94E41166E0C60173
S1130E200E949D111BC06AE0868197810E949D11DA
S1130E307C0165E474E00E94E41166E0C7010E944D
S1130E409D1193E088ED08B618BE84BF909380008E
S1130E508091820081FDFCCF08BEFFCFF70186851B
S1130E609785A089B1890196A11DB11D86879787B1
S1130E70A08BB18B61E070E080E090E00E94CF1E17
S1130E8067CDCF93DF93CDB7DEB72897CDBFDEBF55
S1130E901C010E94C41C69837A838B839C83D101C7
S1130EA01C968C91823009F4C7C030F4882369F011
S1130EB0813009F475C0F8C2843009F4B1C108F472
S1130EC0EFC0843609F4C6C2EFC2E091E820F09185
S1130ED0E9200FB6F8940F921082118212821382C5
S1130EE00F900FBE0FB6F8940F920F900FBEE091C3
S1130EF0E420F091E5208081882309F4D5C2E091B3
S1130F00DE20F091DF200FB6F8940F9210820F903C
S1130F100FBEE091E020F091E1200FB6F8940F921B
S1130F2010820F900FBEE091E620F091E7200FB6FB
S1130F30F8940F928CED90E0808391830F900FBE14
S1130F400FB6F8940F920F900FBEE091F220F0913B
S1130F50F3208081882309F4A7C20FB6F8940F9276
S1130F60E091F020F091F12080819181A281B38100
S1130F700F900FBEE091E820F091E9200FB6F894AD
S1130F800F9280839183A283B3830F900FBEE1E01D
S1130F90D1011C96EC931C97F1E01D96FC9384C23E
S1130FA0E091E420F091E5200FB6F8940F921082BE
S1130FB00F900FBEE091E620F091E7200FB6F89471
S1130FC00F9284E29FEF808391830F900FBE0FB640
S1130FD0F8940F920F900FBEE091F420F091F52059
S1130FE080818823A9F00FB6F8940F92E091F02045
S1130FF0F091F12080819181A281B3810F900FBE85
S1131000F101828B938BA48BB58B82E084878587D7
S11310100FB6F8940F920F900FBEE091DE20F0917E
S1131020DF208081882309F43FC2D1011C961C92E1
S11310301C971D961C9238C2E091E620F091E7209F
S11310400FB6F8940F92108211820F900FBE68ECC5
S113105070E080E090E00E94CF1E0FB6F8940F92EB
S11310600F900FBEE091F420F091F5208081882349
S113107071F0E091E620F091E7200FB6F8940F921A
S11310808CED90E0808391830F900FBE0DC2E3E05E
S1131090D1011C96EC931C97F3E01D96FC9304C2BB
S11310A020E030E040E05FE3D10152966D917D9104
S11310B08D919C9155970E945123F101668B778BFA
S11310C0808F918F0FB6F8940F920F900FBEE0911E
S11310D0F020F091F12020813181428153810E94DE
S11310E0AE216B017C01D1015A966D937D938D9352
S11310F09C935D975E962D913D914D915C91919756
S11311000E94AF214B015C01F101668F778F80A3B0
S113111091A30091E6201091E7200FB6F8940F9266
S113112022A133A144A155A1C701B6010E945123B4
S11311306B017C01F10126A137A140A551A5C50190
S1131140B4010E9451239B01AC01C701B6010E9466
S1131150AF210E948D22D8016D937C930F900FBE16
S11311600FB6F8940F920F900FBEE091F420F09117
S1131170F520808181110CC00FB6F8940F920F9066
S11311800FBEE091F220F091F32080818823A1F03A
S1131190F101068117816EE670E2C8010E94E41134
S11311A066E0C8010E949D11E4E6D1011C96EC930F
S11311B01C97F4E61D96FC93E091DE20F091DF206D
S11311C00FB6F8940F920F900FBE80818823B1F070
S11311D00FB6F8940F9210820F900FBEE091E020AA
S11311E0F091E1200FB6F8940F9210820F900FBE89
S11311F0D1011C961C921C971D961C920FB6F89454
S11312000F920F900FBEE091E220F091E3208081D5
S1131210882309F449C184E0F1018487858744C1A6
S11312200FB6F8940F920F900FBEE091EE20F0915C
S1131230EF2060817181072E000C880B990B0E94AE
S1131240C522D1019A966D937D938D939C939D971E
S1131250E091E220F091E3200FB6F8940F9210820F
S11312600F900FBE0FB6F8940F920F900FBEE0913F
S1131270F020F091F12056962D913D914D915C9185
S1131280599760817181828193810E94AE214B01C3
S11312905C01F10166A777A780AB91AB0FB6F89418
S11312A00F9240B051B062B073B00F900FBED10135
S11312B042AA53AA64AA75AA0FB6F8940F920F9083
S11312C00FBEE091EC20F091ED209A962D913D9186
S11312D04D915C919D9760817181828193810E947F
S11312E0AE216D837E838F839887F10166AB77ABE4
S11312F080AF91AF0FB6F8940F92E091EA20F0918D
S1131300EB20C080D180E280F3800F900FBED1012A
S1131310DA96CD92DD92ED92FC92DD970091E62073
S11313201091E7200FB6F8940F922AEF35E544E3C5
S113133050E4C301B2010E9451232B013C0120E07F
S113134030E040E752E4C501B4010E9451239B01FF
S1131350AC01C301B2010E94AF214B015C012EE03C
S11313603AEE44EF51EC6D817E818F8198850E9425
S113137051239B01AC01C501B4010E94AF214B0173
S11313805C0120EA34E643EC5FEBC701B6010E943E
S113139051239B01AC01C501B4010E94AF2120E09F
S11313A030E044E852E40E9451230E948D22F80167
S11313B0608371830F900FBE0FB6F8940F920F9055
S11313C00FBEE091F420F091F520808181110CC0D2
S11313D00FB6F8940F920F900FBEE091F220F091A7
S11313E0F3208081882391F0D10116960D911C91F0
S11313F017976EE670E2C8010E94E41166E0C80126
S11314000E949D1184E6F10184878587E091DE20A6
S1131410F091DF200FB6F8940F920F900FBE8081E9
S1131420882309F441C00FB6F8940F9210820F90EC
S11314300FBEE091E020F091E1200FB6F8940F92F6
S113144010820F900FBED1011C961C921C971D9602
S11314501C922AC0E091E620F091E7200FB6F894A0
S11314600F92108211820F900FBEE091DE20F09156
S1131470DF200FB6F8940F920F900FBE808188235F
S113148099F00FB6F8940F9210820F900FBEE0916E
S1131490E020F091E1200FB6F8940F9210820F90A3
S11314A00FBEF10114861586F10186859785A08902
S11314B0B1890196A11DB11D86879787A08BB18B39
S11314C041E050E060E070E0CE0101960E94621EAF
S11314D0E6CCCF93DF9300D01F92CDB7DEB77C016B
S11314E00E94C41C69837A838B839C83E0E8F6E0C2
S11314F083E08283808B818BE0E8F1E080E7828364
S113150089E08287E0E4F8E08AE683838DEC97E063
S113151086A397A381E080836894882486F899241D
S113152093F8F40160A171A1E091EE20F091EF2015
S11315300FB6F8940F92608371830F900FBE072E3D
S1131540000C880B990B0E94C52228E23FE049EC6D
S113155050E40E94512320E030EA49EF54E40E9411
S11315601B22A62EB72EC82ED92EE091EC20F09186
S1131570ED200FB6F8940F92862F9B2DAC2DBD2D28
S113158080839183A283B3830F900FBE0091EA20DE
S11315901091EB200FB6F8940F92242D352D472D82
S11315A0562D6A2D7B2D8C2D9D2D0E94AE21F80188
S11315B060837183828393830F900FBEF7018685C6
S11315C09785A089B1890196A11DB11D868797874A
S11315D0A08BB18B41E050E060E070E0CE01019659
S11315E00E94621E4A2C5B2C7C2C6D2C9ACFCF93CC
S11315F0DF9300D01F92CDB7DEB78C010E94C41CCC
S113160069837A838B839C83E0E8F6E08CE08283B1
S113161082898360828B83898360838BE0E8F1E035
S113162082E7808389E08087E0E0F9E088E68383CD
S11316308FEF9FEF86A397A381E08083E091E8205A
S1131640F091E9200FB6F8940F9210821182128261
S113165013820F900FBE612C712C812C912C0F2EB4
S1131660E12CF9E0FF2EF02DF70160A171A10FB676
S1131670F8940F920F900FBE072E000C880B990B55
S11316800E94C5222FE832EC45E75DE30E94512316
S11316902FE632E143E85AE30E945123E091E82027
S11316A0F091E92020813181428153810E94AE2151
S11316B0A62EB72EC82ED92EE091F020F091F1205D
S11316C00FB6F8940F92862F9B2DAC2DBD2D8083E1
S11316D09183A283B3830F900FBE0FB6F8940F9239
S11316E0262D372D482D592D6A2D7B2D8C2D9D2D82
S11316F00E94AE2160B971B982B993B90F900FBE3F
S1131700F80186859785A089B1890196A11DB11D2F
S113171086879787A08BB18B41E050E060E070E052
S1131720CE0101960E94621E6A2C7B2C8C2C9D2C6F
S11317309BCFCF93DF9300D01F92CDB7DEB78C0140
S11317400E94C41C69837A838B839C83A0E4B6E0E3
S113175087E011968C93119784E015968C931597D6
S1131760E0E0F8E081E0808383E08183A6A3B7A36F
S113177010A611A612A613A6818180638183E12C91
S11317806894FF24F3F80FB6F8940F92E091E620E2
S1131790F091E720808191810F900FBEF801828B38
S11317A0938B992334F0F70180A791A712A613A66F
S11317B00CC0F70110A611A6F801828993899195AE
S11317C081959109F70182A793A7F80186859785EA
S11317D0A089B1890196A11DB11D86879787A08B29
S11317E0B18B41E050E060E070E0CE0101960E94D0
S11317F0621EC9CFCF93DF9300D01F92CDB7DEB75F
S11318008C010E94C41C69837A838B839C83E0E6E9
S1131810F6E09081D80152968C915297892B80835F
S1131820948152968C915297892B848352968C91F1
S1131830813021F488E18093700605C0843019F466
S113184088E1809372060F2EF8E6EF2EF6E0FF2E65
S1131850F02DDD24D394F701808180FD0BC0E0914D
S1131860F420F091F5200FB6F8940F92D0820F90E7
S11318700FBE0AC0E091F420F091F5200FB6F89461
S11318800F9210820F900FBED7018C9182FD0BC076
S1131890E091F220F091F3200FB6F8940F92D082E9
S11318A00F900FBE0AC0E091F220F091F3200FB622
S11318B0F8940F9210820F900FBEF80186859785D9
S11318C0A089B1890196A11DB11D86879787A08B38
S11318D0B18B41E050E060E070E0CE0101960E94DF
S11318E0621EB9CFDC01ED91FC910280F381E02D01
S11318F06CE019950895CF93DF93EC01A98DBA8D0F
S1131900EB8DFC8D81E04D915C91208131814217FA
S1131910530709F480E0DF91CF910895CF93DF93CB
S1131920FC01C18DD28D28813981A38DB48D4D9157
S11319305C9124173507E9F3A789B08D0D90BC910C
S1131940A02DA20FB31F8C912F5F3F4F28833983A3
S11319502436310528F0018CF28DE02D108211829D
S113196090E0DF91CF910895DC015096ED91FC91C8
S11319705197808154964C915497842329F009C03F
S11319802150310919F412C021E23EE490819423DC
S1131990B9F3908156968C915697892B80831E9625
S11319A0ED91FC911F97608381E0089580E0089594
S11319B0CF93DF93C6EFD0E28AE08A831B8283E071
S11319C08D831C821E821F828AE590E2888399831C
S11319D01E861F8640E061E080E20E94901988879D
S11319E099878AE090E0A0E0B0E08A879B87AC8783
S11319F0BD87DF91CF910895AF92BF92CF92DF92CE
S1131A00EF92FF920F931F93CF93DF93CDB7DEB77F
S1131A106E97CDBFDEBFE0E6F6E080E1818385838B
S1131A20F894E0E5F0E0808182608083818181FF29
S1131A30FDCF809140009FB79E8FF8941BBE887F96
S1131A40816020E430E0F90108ED04BF80838E8DCD
S1131A508FBFE0E5F0E080818E7F80839DEF88ED8D
S1131A6008B618BE84BF9093800008BE81E090E061
S1131A700E94AA158093F4209093F52081E090E0D1
S1131A800E94AA158093F2209093F32084E090E0C2
S1131A900E94AA158093F0209093F12084E090E0B6
S1131AA00E94AA158093F0209093F12082E090E0A8
S1131AB00E94AA1582E090E00E94AA1582E090E0BC
S1131AC00E94AA158093EE209093EF2084E090E08A
S1131AD00E94AA158093EC209093ED2084E090E07E
S1131AE00E94AA158093EA209093EB2084E090E072
S1131AF00E94AA158093E8209093E92082E090E068
S1131B000E94AA158093E6209093E72081E090E05C
S1131B100E94AA158093E4209093E52081E090E050
S1131B200E94AA158093E2209093E32081E090E044
S1131B300E94AA158093E0209093E12081E090E038
S1131B400E94AA158093DE209093DF208AE490E21D
S1131B5089839A838AE08B831C8243E04E831D82AF
S1131B601F821886A0E4B6E0AB87BC8786E08D8729
S1131B700F2EF7E0DF2EF02DDE86E0EBF8E0EF87A6
S1131B80F88B81EB98E0898B9A8B84EB98E08B8BB4
S1131B909C8B2E8514965C91149781E090E0BC0197
S1131BA002C0660F771F2A95E2F79B01252B149636
S1131BB02C932E85AB85BC855C91BC0102C0660F5D
S1131BC0771F2A95E2F79B01252B2C933D85AB8546
S1131BD0BC852C9102C0880F991F3A95E2F7809535
S1131BE0909582238C936894CC24C4F8C382458353
S1131BF080EF878381E2868388E1848380E88E8B0B
S1131C0080E48F8B80E28D8BEF85F88980818081E1
S1131C108AE090E289839A838CE191E2888F998F9C
S1131C208AE191E28A8F9B8F88E191E28C8F9D8F6C
S1131C3084E690E00E94AA1580931C2190931D21B4
S1131C40EA8DFB8D10821182EC8DFD8D1082118244
S1131C5067E0CE0101960E949D117C0165E870E267
S1131C600E94E41166E0C7010E949D1166E00E9493
S1131C709D1182E190E00E94AA157C018E010F5F04
S1131C801F4F24E031E040E064EA70E20E94E31474
S1131C908AE190E2D7018D939C9383E190E00E94C6
S1131CA0AA157C0124E031E044E06CEA70E20E9471
S1131CB0E3140F2EF2E2AF2EF0E2BF2EF02DF70167
S1131CC0A082B18281E0828B83E190E00E94AA1518
S1131CD07C0124E031E044E063EB70E20E94E31411
S1131CE0D701AD92BC92119784E052968C9382E115
S1131CF090E00E94AA157C0124E031E044E06BEB03
S1131D0070E20E94E3148AE290E2F70180839183F7
S1131D1082E190E00E94AA157C0124E031E043E0D6
S1131D2062EC70E20E94E31482E390E2D7018D93A7
S1131D309C938EE390E00E94AA157C0124E031E09C
S1131D4042E069EC70E20E94E3148AE390E2F70156
S1131D508083918380E090E8A9E0B5E482A393A313
S1131D60A4A3B5A380E090E0A0EAB0E486A397A37F
S1131D70A0A7B1A7BE96DF011D92CA94E9F784E13A
S1131D8090E00E94AA157C0124E031E041E061ED7D
S1131D9070E20E94E31482E490E2F701808391836D
S1131DA0128A138AD092A20078940E948B1C80E03D
S1131DB090E06E96CDBFDEBFDF91CF911F910F9162
S1131DC0FF90EF90DF90CF90BF90AF9008951F9257
S1131DD00F920FB60F92112408B60F9218BE0BB6CD
S1131DE00F921BBE2F933F938F939F93EF93FF9379
S1131DF02091A00AE0910A21F0910B218091062103
S1131E0090910721E80FF91F20838091062190917A
S1131E10072101968436910560F4809306219093FE
S1131E200721209108213091092182179307F1F4A9
S1131E300CC01092062110920721809108219091E4
S1131E4009211816190691F40EC0019684369105DD
S1131E5028F4809308219093092108C01092082146
S1131E601092092103C081E090E0F3CFFF91EF913C
S1131E709F918F913F912F910F900BBE0F9008BEB1
S1131E800F900FBE0F901F9018951F920F920FB6D0
S1131E900F92112408B60F9218BE0BB60F921BBEF8
S1131EA02F933F938F939F93EF93FF932091B009C8
S1131EB0E0911021F091112180910C2190910D213C
S1131EC0E80FF91F208380910C2190910D21019638
S1131ED08436910560F480930C2190930D21209118
S1131EE00E2130910F2182179307F1F40CC0109248
S1131EF00C2110920D2180910E2190910F21181622
S1131F00190691F40EC001968436910528F4809345
S1131F100E2190930F2108C010920E2110920F21D0
S1131F2003C081E090E0F3CFFF91EF919F918F91F7
S1131F303F912F910F900BBE0F9008BE0F900FBED4
S1131F400F901F9018951F920F920FB60F921124A5
S1131F5008B60F9218BE0BB60F921BBE2F933F9379
S1131F608F939F93EF93FF932091A009E091162103
S1131F70F091172180911E2190911F21E80FF91FE4
S1131F80208380911221909113210196843691052A
S1131F9060F48093122190931321209114213091A5
S1131FA0152182179307F1F40CC01092122110929C
S1131FB0132180911421909115211816190691F47A
S1131FC00EC001968436910528F4809314219093D1
S1131FD0152108C0109214211092152103C081E02C
S1131FE090E0F3CFFF91EF919F918F913F912F91CB
S1131FF00F900BBE0F9008BE0F900FBE0F901F9056
S113200018951F920F920FB60F92112408B60F92D3
S113201018BE0BB60F921BBE2F933F938F939F93C3
S1132020EF93FF932091B008E0911C21F0911D21C2
S11320308091182190911921E80FF91F2083809134
S113204018219091192101968436910560F48093AA
S113205018219093192120911A2130911B21821764
S11320609307F1F40CC01092182110921921809159
S11320701A2190911B211816190691F40EC001968D
S11320808436910528F480931A2190931B2108C06B
S113209010921A2110921B2103C081E090E0F3CF2B
S11320A0FF91EF919F918F913F912F910F900BBED4
S11320B00F9008BE0F900FBE0F901F9018951F929F
S11320C00F920FB60F92112408B60F9218BE0BB6DA
S11320D00F921BBE2F933F938F939F93EF93FF9386
S11320E02091A008E0912221F091232180911E21CA
S11320F090911F21E80FF91F208380911E21909158
S11321001F2101968436910560F480931E219093DB
S11321101F21209120213091212182179307F1F46E
S11321200CC010921E2110921F21809120219091A9
S113213021211816190691F40EC0019684369105D2
S113214028F4809320219093212108C0109220210B
S11321501092212103C081E090E0F3CFFF91EF9131
S11321609F918F913F912F910F900BBE0F9008BEBE
S11321700F900FBE0F901F901895CF92DF92EF92A1
S1132180FF920F931F93CF93DF93CDB7DEB72997B9
S1132190CDBFDEBF8C01E62EDC0113968C91139724
S11321A0882341F0ED91FC910280F381E02DC80178
S11321B0199556C0F8014281423019F56894CC242F
S11321C0C3F8D12C6894FF24F7F88E2D8F2151F099
S11321D0D801ED91FC910280F381E02D61E3C80107
S11321E0199509C0D801ED91FC910280F381E02D8D
S11321F060E3C8011995F694B1E0CB1AD10829F728
S11322002FC04031F9F462956F700190F081E02D98
S11322100280F381E02D6A3010F0695C01C0605DDA
S1132220C80119956E2D6F70D801ED91FC91028053
S1132230F381E02D6A3010F0695C01C0605DC80173
S113224019950EC050E0BE016F5F7F4F8E2D90E058
S11322500E947921BE016F5F7F4FC8010E94E41183
S1132260C8012996CDBFDEBFDF91CF911F910F9199
S1132270FF90EF90DF90CF9008950895089580E047
S1132280089580E090E0089581E0089508950F9303
S1132290CF93DF931F92CDB7DEB700E02FEF3FEF70
S11322A0A901BE016F5F7F4FFC01808591850E946B
S11322B0591A813019F4898190E002C08FEF9FEFA1
S11322C00F90DF91CF910F910895FC018085918546
S11322D00E941D1B91E0811101C090E0892F089597
S11322E00F93CF93DF931F92CDB7DEB76983FC01C1
S11322F0228533854485558500E0BE016F5F7F4F9D
S1132300808591850E94BE1991E0811101C090E001
S1132310892F0F90DF91CF910F910895EC01E881FF
S1132320F9810190F081E02D19951A821B826FEFDB
S11323307FEFCB010E94CF1EFACFCF93DF93EC0146
S1132340862F90E08B309105D8F5FC018827E65A5A
S1132350FE4F8F4F0C94CE2382E08A8331C088E0F5
S11323608A832EC08AE08A832BC080E18A8328C0B6
S113237081E08B8325C01B8223C0E881F981028020
S1132380F381E02D6DE0CE011995E881F981028099
S1132390F381E02D6AE0CE01199512C0E881F9813C
S11323A00284F385E02DCE0119950AC0E881F981F4
S11323B00084F185E02DCE01199502C081E08C8363
S11323C0CE01DF91CF9108950F931F93CF93DF93A5
S11323D08C01FB01DC0114968C91811104C0608195
S11323E0611117C023C0D80114961C92EB012196E9
S11323F064916623D9F0D801ED91FC910280F381B8
S1132400E02DC8011995FE01649121966111F3CF65
S11324100DC0EF012196D801ED91FC910280F3816A
S1132420E02DC801199569916111F5CFDF91CF9124
S11324301F910F910895DF92EF92FF920F931F93D4
S1132440CF93DF93CDB7DEB7A197CDBFDEBF8C01AD
S1132450D42EE52EF62E972FF8012281203121F07B
S1132460283011F0223071F4692FC8010E94BD1088
S11324706F2D0E94BD106E2D0E94BD106D2D0E9407
S1132480BD100FC030E0AE014F5F5F4F6D2D7E2D4C
S11324908F2D0E944C21BE016F5F7F4FC8010E94A7
S11324A0E411C801A196CDBFDEBFDF91CF911F918A
S11324B00F91FF90EF90DF900895FF920F931F9379
S11324C0CF93DF93CDB7DEB76197CDBFDEBF8C016D
S11324D0F62E972FF8014281403121F0483011F057
S11324E0423041F4692FC8010E94BD106F2D0E9433
S11324F0BD100DC050E0BE016F5F7F4F8F2D0E9455
S11325007921BE016F5F7F4FC8010E94E411C801A9
S11325106196CDBFDEBFDF91CF911F910F91FF90E8
S113252008958F929F92AF92BF92CF92DF92EF92D3
S1132530FF920F931F93CF93DF93EC018B018A815A
S11325409B810E94D21CBC01C8010E94E411D801E5
S1132550ED91FC910280F381E02D69E0C8011995A9
S11325608A819B810E94D21CFC0101900020E9F722
S11325703197E81BF90B389748F4D801ED91FC9199
S11325800280F381E02D69E0C8011995CE84DF84CF
S1132590E888F988A884B9848A819B810E944520AF
S11325A0982E8C848A819B810E947D1C682FC8018F
S11325B00E94BD106AE00E949D11EC0165EB76E07B
S11325C00E94E411682DCE010E94BD106AE00E94B1
S11325D09D11EC0163EB76E00E94E411692DCE01BC
S11325E00E94BD106AE00E949D11EC0161EB76E04F
S11325F00E94E411B501CE010E945D126AE00E94BE
S11326009D11EC016FEA76E00E94E4116AE0CE01CC
S11326100E949D11EC016DEA76E00E94E411B7017D
S1132620A601CE010E941B12DF91CF911F910F9141
S1132630FF90EF90DF90CF90BF90AF909F908F90DE
S113264008955F926F927F928F929F92AF92BF9202
S1132650CF92DF92EF92FF920F931F93CF93DF936A
S11326605C013B014A01122F502E63E0CA010E9413
S11326709D11A614B70408F07CC0650184E1C80E5E
S1132680D11C00E07501B501C4010E945D126AE02D
S11326900E949D1167EC76E00E94E411112309F475
S11326A06DC0002309F46AC06AE0C4010E949D1150
S11326B062EC76E00E94E41161C0112371F0011113
S11326C00CC08881851549F06AE0C4010E949D11FF
S11326D06DEB76E00E94E41101E06991C4010E946F
S11326E0BD10DC01ED91FC910280F381E02D60E2EC
S11326F01995CC16DD0609F7112389F06AE0C401A7
S11327000E949D11EC0167EB76E00E94E411E881E0
S1132710F9810280F381E02D60E2CE011995F70181
S113272061917F0180EE860F8F3548F4D401ED91DD
S1132730FC910280F381E02DC401199509C0D401F4
S1132740ED91FC910280F381E02D6EE2C4011995B4
S1132750CE14DF0421F7B4E1AB0EB11C66E0C40172
S11327600E949D11E4E1CE0ED11CA614B70408F416
S113277089CF62E0C4010E949D1102C0E7019DCF90
S1132780DF91CF911F910F91FF90EF90DF90CF9049
S1132790BF90AF909F908F907F906F905F900895BF
S11327A0CF93DF93EC010FB6F8940F928091200839
S11327B0909121088C839D830E94C41C6883798333
S11327C08A839B830F900FBECE01DF91CF91089532
S11327D08F929F92AF92BF92EF92FF920F931F93AB
S11327E0CF93DF93CDB7DEB72F97CDBFDEBF8C017C
S11327F07B01DB016D917D918D919C910F2EF8EE03
S11328008F2EF3E09F2EA12CB12CF02DA501940165
S11328100E940B21BA01A901C8010E941B12D80110
S1132820ED91FC910280F381E02D6EE2C8011995CF
S1132830F7016081718182819381A50194010E94D5
S11328400B219B01AC0160E472E48FE090E00E94F4
S1132850BE23A50194010E940B2149015A01F701ED
S1132860A481B58120E432E44FE050E00E94D723F4
S113287020E038E448EE51E00E940B21C501B40188
S1132880620F731F841F951F7E01F7E0EF0EF11C8A
S11328909E012F5F3F4F59012AE030E040E050E0B5
S11328A00E94EC20E62F288739874A875B87688552
S11328B079858A859B8520E32E0FD7012E937D0190
S11328C0AA15BB0549F71F82BE016F5F7F4FC80180
S11328D00E94E411C8012F96CDBFDEBFDF91CF91D6
S11328E01F910F91FF90EF90BF90AF909F908F90AA
S11328F008950F931F93CF93DF93EC018B01E8812D
S1132900F9810280F381E02D199566E0C8010E94E7
S11329109D118C819D81009719F0B8010E94791452
S1132920DF91CF911F910F910895CF92DF92EF9293
S1132930FF920F931F93CF93DF93EC017B018A8166
S11329409B810E94D21C6C016AE0C7010E949D1108
S11329508C0168EA76E00E94E4116AE0C8010E94F2
S11329609D118C0161EA76E00E94E411B601C80170
S11329700E94E4116AE0C8010E949D118C016BE978
S113298076E00E94E41166E0C8010E949D118A85E8
S11329909B85E885F98501E121E0A701BC018E1B37
S11329A09F0B0E9421138C819D81009719F0B70120
S11329B00E949514DF91CF911F910F91FF90EF909A
S11329C0DF90CF9008954F925F926F927F928F9293
S11329D09F92AF92BF92CF92DF92EF92FF920F93AA
S11329E01F93CF93DF93CDB7DEB72A97CDBFDEBF5A
S11329F04C01290138018AE690E2F4018083918335
S1132A00FB018081882369F0DE011196319690E004
S1132A1002C0993039F09F5F8D9381918111F9CF74
S1132A2001C090E0E1E0F0E0EC0FFD1FE90FF11DC3
S1132A3010827401F2E0EF0EF11CA12CB12CC12C18
S1132A40D12C042F9401A201BE016F5F7F4F8EE849
S1132A5091E10E947B1BF401668277824086518655
S1132A6020912421309125212483358380922421AF
S1132A709092252114861586409090315090913182
S1132A80FFEF4F1A5F0A4092903150929131F40156
S1132A904286538616861786108A118A6114710439
S1132AA009F444C0813079F56AE0C3010E949D11A4
S1132AB07C0165E976E00E94E411BE016F5F7F4FFF
S1132AC0C7010E94E4116AE0C7010E949D117C01C4
S1132AD06CE876E00E94E4116AE0C7010E949D114F
S1132AE07C016EE776E00E94E41163E0C7010E9476
S1132AF09D11B2010E945D1262E00E949D1166E088
S1132B000E949D1113C06AE0C3010E949D114C01F3
S1132B1069E676E00E94E411BE016F5F7F4FC40155
S1132B200E94E41166E0C4010E949D112A96CDBF63
S1132B30DEBFDF91CF911F910F91FF90EF90DF9057
S1132B40CF90BF90AF909F908F907F906F905F9049
S1132B504F9008950F931F93CF93DF93EC010E943E
S1132B60BE1C8091262181111DC0ABE2B1E2EFE2CF
S1132B70F1E2ED93FC93119712961D921C92139718
S1132B80A7E2B1E28FEF9FE012968D939C93139787
S1132B901D921C92119782839383A083B18381E059
S1132BA080932621209709F45FC09E012B5F3F4F3D
S1132BB02496CE3FDF4008F05AC0E0912B21F091DB
S1132BC02C21ABE2B1E202C0DF01FC0182819381DE
S1132BD08217930720F4808191810097A9F7C1E2BD
S1132BE0E732FC0709F446C0CD91DC9111978E01C0
S1132BF00B5F1F4F808191818D939C938281938180
S1132C00821B930B8B30910510F1BF01620F731F70
S1132C10DB0112968D939C93139722833383129630
S1132C204D915C9113978BE291E201C0CD01EC01CF
S1132C30A881B98112962D913C91139724173507D9
S1132C40A8F3EB01A883B983DC016D937C93809195
S1132C5000209091012022813381821B930B809369
S1132C6000209093012008C000E010E005C000E0BF
S1132C7010E002C000E010E00E94E01DC801DF91F6
S1132C80CF911F910F9108950F931F93CF93DF93CB
S1132C90009741F1EC018C01055011090E94BE1C02
S1132CA0F80142815381ABE2B1E201C0DF01ED9151
S1132CB0FC9111972281338124173507B8F32597A6
S1132CC0E883F9830D931C93209100203091012017
S1132CD08A819B81820F931F80930020909301200F
S1132CE00E94E01DDF91CF911F910F910895809173
S1132CF00020909101200895FC0103968183928322
S1132D004FEF5FEFBA0143835483658376838783F0
S1132D1090878187928710820895FC01128613861A
S1132D200895CF93DF93FC01DB0121813281E90116
S1132D308C819D8114968D939C93159781819281AA
S1132D4016968D939C9317978C819D81EC016E83CD
S1132D507F83E9016C837D83618372831A96ED938B
S1132D60FC931B9780818F5F8083DF91CF910895BF
S1132D700F931F93CF93DF93EB01088119812A816D
S1132D803B810F3F4FEF14072407340731F4DC0174
S1132D901996ED91FC911A971FC0FC013396DC0142
S1132DA017964D915C911897DA014D915D916D9153
S1132DB07C91041715072607370770F00480F58106
S1132DC0E02DA481B5814D915D916D917C910417A5
S1132DD015072607370790F7A481B581AC83BD8317
S1132DE01696CD93DC931797EE83FF83C483D58324
S1132DF08A879B87FC0120812F5F2083DF91CF91FD
S1132E001F910F910895FC01A481B581868197815A
S1132E1016968D939C931797A681B781848195818B
S1132E2014968D939C931597A285B38511968D91D5
S1132E309C911297E817F90731F4868197811196CE
S1132E408D939C931297128613868C9181508C9348
S1132E500895809390319093913131E1FC01308356
S1132E60319722E220833197A3E3A08331976083D3
S1132E70319770833197108231971082319760E8CF
S1132E806083319710823197108231971082319785
S1132E9062E06083319763E06083319764E060832C
S1132EA0319765E06083319766E06083319767E02E
S1132EB06083319768E06083319769E0608331977C
S1132EC060E1608331973083319732E13083319709
S1132ED033E13083319734E13083319735E1308306
S1132EE0319736E13083319737E13083319738E1D8
S1132EF03083319739E13083319730E23083319731
S1132F0031E2308331972083319723E22083319754
S1132F10408331975083319726E22083319727E20B
S1132F202083319728E22083319729E22083319747
S1132F3020E32083319721E32083899708958CE748
S1132F408093290A8FEF8093280A81E08093000AF6
S1132F5091E19093010A8093070AA0918E31B09178
S1132F608F31CD91CDBFDD91DEBFFF91EF91DF9128
S1132F70CF91BF91AF919F918F917F916F915F910D
S1132F804F913F912F911F910F91FF90EF90DF9000
S1132F90CF90BF90AF909F908F907F906F905F90F5
S1132FA04F903F902F901F900F900CBE0F900BBE30
S1132FB00F900FBE0F90089508950F920FB6F894D6
S1132FC00F920BB60F920CB60F921F9211242F92F0
S1132FD03F924F925F926F927F928F929F92AF92A5
S1132FE0BF92CF92DF92EF92FF920F931F932F9392
S1132FF03F934F935F936F937F938F939F93AF937D
S1133000BF93CF93DF93EF93FF93A0918E31B09151
S11330108F310DB60D920EB60D920E94FD1EA09139
S11330208E31B0918F31CD91CDBFDD91DEBFFF9157
S1133030EF91DF91CF91BF91AF919F918F917F914C
S11330406F915F914F913F912F911F910F91FF903D
S1133050EF90DF90CF90BF90AF909F908F907F9034
S11330606F905F904F903F902F901F900F900CBEE9
S11330700F900BBE0F900FBE0F9008950F920FB6D6
S1133080F8940F920BB60F920CB60F921F92112464
S11330902F923F924F925F926F927F928F929F9264
S11330A0AF92BF92CF92DF92EF92FF920F931F9352
S11330B02F933F934F935F936F937F938F939F933C
S11330C0AF93BF93CF93DF93EF93FF93A0918E3190
S11330D0B0918F310DB60D920EB60D920E94DF1C89
S11330E00E94FD1EA0918E31B0918F31CD91CDBF44
S11330F0DD91DEBFFF91EF91DF91CF91BF91AF9151
S11331009F918F917F916F915F914F913F912F91FB
S11331101F910F91FF90EF90DF90CF90BF90AF90F1
S11331209F908F907F906F905F904F903F902F90E3
S11331301F900F900CBE0F900BBE0F900FBE0F9000
S113314008950E943E181895CF93DF93EC0188A14F
S113315081110BC088819981892BE1F58A819B813A
S11331600E94B8201A821B8235C0411117C0482F13
S113317050E08C819D810E942D2128A18C819D810C
S1133180820F911D8C839D832A813B818217930733
S113319008F1888199818C839D831CC0482F50E05D
S11331A08E819F810E942D2188A190E09195819527
S11331B091092E813F81280F391F2E833F83488137
S11331C059812417350730F42A813B81820F931FDC
S11331D08E839F838E8D8F5F8E8FDF91CF91089525
S11331E0FC01808191810097A1F040A150E02681EB
S11331F03781240F351F26833783A281B3812A1791
S11332003B0710F086839783CB01668177810E9408
S11332102D2108950F931F93CF93DF93EC010FB6E5
S1133220F8940F928AA11816B4F48B89811105C001
S113323012C08B89811104C00EC08E010D5E1F4F18
S1133240C8010E94841F81110E9441208AA18150DB
S11332508AA3181674F38FEF8AA30F900FBE0FB6CC
S1133260F8940F9289A11816B4F48885811105C0C9
S113327012C08885811104C00EC08E01085F1F4FE3
S1133280C8010E94841F81110E94412089A181509C
S113329089A3181674F38FEF89A30F900FBEDF91E3
S11332A0CF911F910F9108951F93CF93DF936130B6
S11332B059F0FC012389308531112CC011E0211112
S11332C010E0211128C001C011E0EC0148815981AE
S11332D028A130E06F8D629FC001639F900D11247F
S11332E0BA01680F791F6A837B831E8E4C835D83CA
S11332F0821B930B840F951F8E839F838FEF89A36B
S11333008AA3CE0108960E947C16CE0143960E94A1
S11333107C1601C010E0812FDF91CF911F91089599
S11333200F931F93CF93DF93882301F1062F182F58
S113333083E290E00E94AA15EC01892BC9F0109F4A
S1133340C001112401960E94AA1588839983892BB0
S113335039F01F8F08A361E0CE010E94541908C000
S1133360CE010E944416C0E0D0E002C0C0E0D0E02C
S1133370CE01DF91CF911F910F910895AF92BF922B
S1133380CF92DF92EF92FF920F931F93CF93DF932D
S1133390CDB7DEB72997CDBFDEBF7C015B012E839D
S11333A03F834887598710E06C0188E0C80ED11C20
S11333B00FB6F8940F92F701968D878D9817A8F49D
S11333C0402FB501C7010E94A418F70183898823FF
S11333D041F0C70143960E94841F813011F40E947A
S11333E0DD170F900FBE81E056C08E819F81A885A6
S11333F0B985892B8A2B8B2B21F40F900FBE80E08B
S11334004AC0111105C0CE0101960E94C31F11E0EC
S11334100F900FBE0E94BE1C0FB6F8940F92F701D6
S113342081A18F3F09F411A2F70182A18F3F09F412
S113343012A20F900FBEBE016A5F7F4FCE010196AC
S11334400E94D41F811121C00FB6F8940F92F70186
S1133450968D0F900FBE878D981311C04E815F819A
S113346068857985C6010E945A1FC7010E940A19FE
S11334700E94E01D81119CCF0E94DD1799CFC701E6
S11334800E940A190E94E01D93CFC7010E940A19E5
S11334900E94E01D80E02996CDBFDEBFDF91CF9171
S11334A01F910F91FF90EF90DF90CF90BF90AF905E
S11334B00895AF92BF92CF92DF92EF92FF920F9353
S11334C01F93CF93DF93CDB7DEB72997CDBFDEBF70
S11334D07C015B012E833F834887598710E06C0190
S11334E083E1C80ED11C0FB6F8940F92F701868DB4
S11334F0882399F1C680D780B501C7010E94F018CE
S113350001111AC0F701868D8150868F80819181C7
S1133510892B29F40E945E20F70182839383F701AB
S113352080858823B1F0C70108960E94841F8130EA
S113353081F40E94DD170DC0F701C682D78283890A
S1133540882339F0C70143960E94841F81110E9489
S1133550DD170F900FBE81E062C08E819F81A88528
S1133560B985892B8A2B8B2B21F40F900FBE80E019
S113357056C0111105C0CE0101960E94C31F11E06F
S11335800F900FBE0E94BE1C0FB6F8940F92F70165
S113359081A18F3F09F411A2F70182A18F3F09F4A1
S11335A012A20F900FBEBE016A5F7F4FCE0101963B
S11335B00E94D41F81112DC00FB6F8940F92F70109
S11335C0868D0F900FBE81111EC080819181892B41
S11335D049F40FB6F8940F92828193810E9463207C
S11335E00F900FBE4E815F8168857985C6010E9468
S11335F05A1FC7010E940A190E94E01D811173CF4E
S11336000E94DD1770CFC7010E940A190E94E01DB5
S11336106ACFC7010E940A190E94E01D80E0299622
S1133620CDBFDEBFDF91CF911F910F91FF90EF903F
S1133630DF90CF90BF90AF9008950FB6F8940F929B
S1133640FC01868D0F900FBE0895C2E6D1E38881F8
S11336508230E8F30E94DD17FACFCF92DF92EF9227
S1133660FF926B017C01E0918E31F0918F31628386
S11336707383848395838091363190913731A091FF
S11336803831B0913931C816D906EA06FB0668F418
S113369060918E3170918F31809148319091493190
S11336A06E5F7F4F0E94B81621C060918E31709179
S11336B08F3180914A3190914B316E5F7F4F0E94E0
S11336C0B8168091022090910320A0910420B0911B
S11336D00520C816D906EA06FB0640F4C09202206B
S11336E0D0920320E0920420F0920520FF90EF9006
S11336F0DF90CF9008954F925F926F927F928F9256
S11337009F92AF92BF92CF92DF92EF92FF920F936C
S11337101F93CF93DF935C014B013A01290188E2A7
S113372090E00E94AA15EC01892B09F4D4C0C114BD
S1133730D10409F0CCC0C3010E94AA158B8F9C8FC1
S1133740009721F4CE010E944416C5C0A30161E193
S113375070E00E9436219301215031098B8D9C8D9C
S11337603C01620E731E4AE050E0B401CE014D9656
S11337700E943D211EA2102F043008F013E01A8F7E
S11337801FA36E0122E0C20ED11CC6010E948D1639
S1133790CE010E960E948D16CA87DB8784E090E0E6
S11337A0A0E0B0E0811B9109A109B1098E879F8730
S11337B0A88BB98BCE8BDF8BA201B501C3010E940C
S11337C0291788839983E114F10419F0F701C08360
S11337D0D1830FB6F8940F9280913A318F5F809322
S11337E03A3180918E3190918F31892B89F5C09334
S11337F08E31D0938F3180913A318130C1F582E698
S113380091E30E947C168DE691E30E947C1688E782
S113381091E30E947C1683E891E30E947C1687E57D
S113382091E30E947C168CE491E30E947C168DE364
S113383091E30E947C1687E591E380934A3190934B
S11338404B318CE491E380934831909349310FC01C
S11338508091333181110BC0E0918E31F0918F3121
S1133860828D081720F0C0938E31D0938F318A8DCA
S113387090913531981710F48093353190912E3111
S11338809F5F90932E3190913431981710F4809368
S11338903431FBE08F9FC0011124B6018E599E4C38
S11338A00E9491160F900FBE80913331882359F0F6
S11338B0E0918E31F0918F31828D801730F40E9427
S11338C0DD1781E009C081E007C081E005C0CB8E2F
S11338D0DC8EC6013BCF8FEFDF91CF911F910F910B
S11338E0FF90EF90DF90CF90BF90AF909F908F901C
S11338F07F906F905F904F9008950FB6F8940F9259
S1133900009721F480918E3190918F310F900FBEEA
S1133910FC01828D0895AF92BF92CF92DF92EF9215
S1133920FF920F93A12CB12CC12CD12C0F2EFBE3B1
S1133930EF2EF1E3FF2EF02D00E020E030E044E62E
S113394050E068ED70E285E29BE10E947B1B8130D0
S113395069F4F894809333311092363110923731F0
S113396010923831109239310E949F170F91FF90B5
S1133970EF90DF90CF90BF90AF9008958091323157
S11339808F5F8093323108950FB6F8940F9260914F
S113399036317091373180913831909139310F90AF
S11339A00FBE0895009721F480918E3190918F314C
S11339B04D96089580913B3190913C310895FF924A
S11339C00F931F93CF93DF93809132318111EDC018
S11339D08091363190913731A0913831B09139319D
S11339E00196A11DB11D8093363190933731A09378
S11339F03831B09339318091363190913731A0917B
S1133A003831B0913931892B8A2B8B2BF1F5809188
S1133A104A3190914B312091483130914931209372
S1133A204A3130934B31809348319093493180919E
S1133A302F318F5F80932F31E0914A31F0914B31D8
S1133A40808181110CC08FEF9FEFDC0180930220F5
S1133A5090930320A0930420B093052016C0E09116
S1133A604A31F0914B310780F085E02D0084F185D7
S1133A70E02D82819381A481B5818093022090936B
S1133A800320A0930420B093052040913631509137
S1133A9037316091383170913931809102209091A1
S1133AA00320A0910420B0910520481759076A0704
S1133AB07B0708F47FC0E0914A31F0914B3180815B
S1133AC08823F9F0E0914A31F0914B310780F08579
S1133AD0E02DC085D1858A819B81AC81BD814091D7
S1133AE036315091373160913831709139314817FE
S1133AF059076A077B0758F10F2EFBE0FF2EF02DC4
S1133B002FC08FEF9FEFDC0180930220909303205E
S1133B10A0930420B09305204DC0E0914A31F09168
S1133B204B310780F085E02DC085D1858A819B814A
S1133B30AC81BD814091363150913731609138313B
S1133B4070913931481759076A077B0748F4809305
S1133B50022090930320A0930420B09305202AC050
S1133B608E010E5F1F4FC8010E940317888D998D27
S1133B70892B21F0CE010E960E9403178A8D909115
S1133B803431981710F480933431F89EC001112415
S1133B90B8018E599E4C0E949116E0914A31F091E1
S1133BA04B3180818111B9CFACCF809131318F5F9E
S1133BB080933131DF91CF911F910F91FF90089540
S1133BC0CF92DF92EF92FF920F931F93CF93DF93E5
S1133BD00FB6F8940F928091323181508093323134
S1133BE080913231811160C080913A3181112CC0B1
S1133BF05EC0D7011796ED91FC911897C085D185C9
S1133C00CE010E960E9403178E010E5F1F4FC8014E
S1133C100E9403178A8D90913431981710F4809381
S1133C203431D89EC0011124B8018E599E4C0E9493
S1133C309116E0918E31F0918F319A8D828D981783
S1133C4070F0CC24C3940BC0C12C0F2EFDE3EF2ED7
S1133C50F1E3FF2EF02D0F2EFBE0DF2EF02DF70108
S1133C6080818111C6CF80913131882381F0809188
S1133C703131882399F00E94DF1C809131318150C9
S1133C8080933131809131318111F5CF07C0F1E05A
S1133C90CF1621F080913031813041F410923031CF
S1133CA00E94DD1781E003C080E001C080E00F9036
S1133CB00FBEDF91CF911F910F91FF90EF90DF9096
S1133CC0CF900895CF92DF92EF92FF92CF93DF933C
S1133CD0EC016A017B010E94BE1C88819981AA8142
S1133CE0BB81C80ED91EEA1EFB1E4091363150918D
S1133CF037316091383170913931481759076A0763
S1133D007B07B8F4C816D906EA06FB06E0F58091ED
S1133D10363190913731A0913831B0913931C88220
S1133D20D982EA82FB828C159D05AE05BF05F8F4A5
S1133D3013C0C816D906EA06FB0600F18091363195
S1133D4090913731A0913831B09139318C159D055E
S1133D50AE05BF0598F017C080918E3190918F31D8
S1133D6002960E940317C701B6010E942D1B0E94F0
S1133D70E01D81110DC00E94DD170AC0C882D982DE
S1133D80EA82FB82E9CFC882D982EA82FB82EFCF42
S1133D90DF91CF91FF90EF90DF90CF900895CF9275
S1133DA0DF92EF92FF926B017C01672B682B692BEA
S1133DB0E9F00E94BE1C8091363190913731A09178
S1133DC03831B0913931C80ED91EEA1EFB1E8091DC
S1133DD08E3190918F3102960E940317C701B6016C
S1133DE00E942D1B0E94E01D811102C00E94DD175C
S1133DF0FF90EF90DF90CF90089580913231811140
S1133E000CC0E09134314BE0E49FF0011124EE59F1
S1133E10FE4C8081882329F014C081E080933031E6
S1133E2008959BE080913431815080933431E09146
S1133E3034319E9FF0011124EE59FE4C8081882379
S1133E4089F380913431282F30E04BE0849FC00106
S1133E501124DC01AE59BE4C1196ED91FC911297E0
S1133E600480F581E02D1196ED93FC9312978B5904
S1133E709E4CE817F90761F4848195814BE0429FD9
S1133E80F001439FF00D1124EE59FE4C818392837F
S1133E908BE0829FF001839FF00D1124EE59FE4CBC
S1133EA00180F281E02D8085918580938E319093FD
S1133EB08F310895CF92DF92EF92FF926A017B01D6
S1133EC060918E3170918F31625F7F4F0E94B8167E
S1133ED080918E3190918F3102960E9403178091C8
S1133EE0363190913731A0913831B0913931BC01DC
S1133EF0CD016C0D7D1D8E1D9F1D0E942D1BFF90FD
S1133F00EF90DF90CF9008950F931F93CF93DF939B
S1133F10DC011796ED91FC911897C085D1858E012F
S1133F20025F1F4FC8010E94031780913231811133
S1133F3016C00C501109C8010E9403178A8D909174
S1133F403431981710F480933431BBE08B9FC00157
S1133F501124B8018E599E4C0E94911605C0B801D7
S1133F608DE391E30E949116E0918E31F0918F31AF
S1133F7081E02A8D928D291708F480E0DF91CF919A
S1133F801F910F91089520912F31FC0120834091BE
S1133F9036315091373160913831709139314183E4
S1133FA052836383748308958F929F92AF92BF92DA
S1133FB0CF92DF92EF92FF920F931F93CF93DF93F1
S1133FC0FC010FB6F8940F9280912F3190819817CD
S1133FD089F08091363190913731A0913831B09188
S1133FE03931018112812381348180179107A2071D
S1133FF0B307A8F58091363190913731A0913831CB
S1134000B0913931C180D280E380F480EB01088122
S113401019812A813B818C199D09AE09BF0980173A
S11340209107A207B307E8F4CF018090363190904E
S11340303731A0903831B0903931B501A4014C1911
S11340405D096E097F09041B150B260B370B0883CA
S113405019832A833B830E94C31F80E003C081E04D
S113406001C081E00F900FBEDF91CF911F910F919E
S1134070FF90EF90DF90CF90BF90AF909F908F9084
S1134080089581E0809330310895009721F4809160
S11340908E3190918F31DC015B96ED91FC915C97B0
S11340A08081813141F4319680E090E00196219144
S11340B02131E1F3089580E090E0089580918E31FC
S11340C090918F3108950F931F93CF93DF93FC0149
S11340D0228DA0918E31B0918F315A968C912817F0
S11340E008F041C0A0918E31B0918F315A963C9125
S11340F084E090E0A0E0B0E0831B9109A109B1093C
S113410086879787A08BB18B8BE0289F9001112421
S11341102E593E4C8485958582179307E9F48F01C7
S1134120EF012296CE010E940317E0918E31F091A7
S11341308F31828DF801828F90913431981710F469
S113414080933431FBE08F9FC0011124BE018E594E
S11341509E4C0E94911607C0A0918E31B0918F3170
S11341605A968C91828FDF91CF911F910F91089570
S11341700F931F93CF93DF93009749F1FC01328D86
S113418027A1321721F1EC018C010E5F1F4FC801EA
S11341900E9403178FA18A8F44E050E060E070E032
S11341A0481B5109610971094E875F87688B798BB8
S11341B090913431981710F480933431FBE08F9F41
S11341C0C0011124B8018E599E4C0E949116DF91B2
S11341D0CF911F910F910895052E97FB1EF4009423
S11341E00E94032157FD07D00E940B2107FC03D036
S11341F04EF40C94032150954095309521953F4FF2
S11342004F4F5F4F089590958095709561957F4FBE
S11342108F4F9F4F0895A1E21A2EAA1BBB1BFD01CD
S11342200DC0AA1FBB1FEE1FFF1FA217B307E40791
S1134230F50720F0A21BB30BE40BF50B661F771FE9
S1134240881F991F1A9469F76095709580959095C9
S11342509B01AC01BD01CF010895FB01DC0102C04B
S113426001900D9241505040D8F70895DC0101C0EF
S11342706D9341505040E0F70895FB01DC0141503B
S1134280504048F001900D920020C9F701C01D92E2
S113429041505040E0F708952532310520F4223092
S11342A010F00C945721FA011082CA010895BB271B
S11342B0FA01A62F6217710581059105330B30FBB6
S11342C066F0AA27660F771F881F991FAA1FA217D7
S11342D010F0A21B63953850A9F7A05DAA3308F02B
S11342E0A95DA19336F7B111B1931082CA010C9460
S11342F09E214532510520F4423010F00C94842163
S1134300FB011082CB010895BB27FB015527AA2787
S1134310880F991FAA1FA41710F0A41B839550514E
S1134320B9F7A05DAA3308F0A95DA193009779F7C6
S1134330B111B1931192CB010C949E21DC01FC01CB
S1134340672F71917723E1F7329704C07C916D93C5
S113435070836291AE17BF07C8F308955058BB2706
S1134360AA270E94C6210C9417230E94092338F01F
S11343700E94102320F039F49F3F19F426F40C9482
S113438006230EF4E095E7FB0C940023E92F0E942A
S1134390282358F3BA17620773078407950720F098
S11343A079F4A6F50C944A230EF4E0950B2EBA2F5B
S11343B0A02D0B01B90190010C01CA01A001112427
S11343C0FF27591B99F0593F50F4503E68F11A16D3
S11343D0F040A22F232F342F4427585FF3CF469564
S11343E037952795A795F0405395C9F77EF41F1686
S11343F0BA0B620B730B840BBAF09150A1F0FF0F50
S1134400BB1F661F771F881FC2F70EC0BA0F621F3B
S1134410731F841F48F4879577956795B795F7952B
S11344209E3F08F0B0CF9395880F08F09927EE0FC0
S11344309795879508950E942F220C9417230E9424
S1134440102358F00E94092340F029F45F3F29F01B
S11344500C94002351110C944B230C9406230E94BA
S1134460282368F39923B1F3552391F3951B550B36
S1134470BB27AA2762177307840738F09F5F5F4F33
S1134480220F331F441FAA1FA9F335D00E2E3AF072
S1134490E0E832D091505040E695001CCAF72BD08A
S11344A0FE2F29D0660F771F881FBB1F26173707DB
S11344B04807AB07B0E809F0BB0B802DBF01FF270D
S11344C093585F4F3AF09E3F510578F00C940023C7
S11344D00C944B235F3FE4F3983ED4F38695779591
S11344E06795B795F7959F5FC9F7880F911D9695C6
S11344F0879597F90895E1E0660F771F881FBB1F22
S1134500621773078407BA0720F0621B730B840BCE
S1134510BA0BEE1F88F7E09508950E9494226894E0
S1134520B1110C944B2308950E94302388F09F57B7
S113453098F0B92F9927B751B0F0E1F0660F771FC3
S1134540881F991F1AF0BA95C9F714C0B13091F0B9
S11345500E944A23B1E008950C944A23672F782FD0
S11345608827B85F39F0B93FCCF38695779567957E
S1134570B395D9F73EF490958095709561957F4FEA
S11345808F4F9F4F0895E89409C097FB3EF4909590
S11345908095709561957F4F8F4F9F4F9923A9F018
S11345A0F92F96E9BB279395F695879577956795A7
S11345B0B795F111F8CFFAF4BB0F11F460FF1BC0EB
S11345C06F5F7F4F8F4F9F4F16C0882311F096E97E
S11345D011C0772321F09EE8872F762F05C066232C
S11345E071F096E8862F70E060E02AF09A95660FE5
S11345F0771F881FDAF7880F9695879597F908959E
S113460097F99F6780E870E060E008959FEF80EC81
S1134610089500240A941616170618060906089524
S113462000240A9412161306140605060895092E8A
S11346300394000C11F4882352F0BB0F40F4BF2BF9
S113464011F460FF04C06F5F7F4F8F4F9F4F089539
S113465057FD9058440F551F59F05F3F71F047952F
S1134660880F97FB991F61F09F3F79F08795089514
S1134670121613061406551FF2CF4695F1DF08C033
S1134680161617061806991FF1CF86957105610550
S113469008940895E894BB2766277727CB0197F9F8
S11346A008950E9464230C9417230E94092338F070
S11346B00E94102320F0952311F00C9400230C94F5
S11346C0062311240C944B230E94282370F3959FF6
S11346D0C1F3950F50E0551F629FF001729FBB27F5
S11346E0F00DB11D639FAA27F00DB11DAA1F649F91
S11346F06627B00DA11D661F829F2227B00DA11D44
S1134700621F739FB00DA11D621F839FA00D611DC9
S1134710221F749F3327A00D611D231F849F600DEA
S1134720211D822F762F6A2F11249F5750409AF013
S1134730F1F088234AF0EE0FFF1FBB1F661F771F9F
S1134740881F91505040A9F79E3F510580F00C946A
S113475000230C944B235F3FE4F3983ED4F38695F7
S113476077956795B795F795E7959F5FC1F7FE2B0A
S1134770880F911D9695879597F90895DB018F937E
S11347809F930E94D723BF91AF91A29F800D911D4B
S1134790A39F900DB29F900D11240895EE0FFF1F5B
S11347A0881F8BBF0790F691E02D1BBE19940E94C1
S11347B0E223A59F900DB49F900DA49F800D911DA1
S11347C011240895A29FB001B39FC001A39F700D4F
S11347D0811D1124911DB29F700D811D1124911D05
S10947E00895F894FFCFD8
S11347E6FF0FFFFFFFFF000000004411B40C7B0C19
S11347F68E0C3E11720C000000007E049112000023
S11348060000FA0B911200000000690A91120000E0
S11348160000F70A911200000000410791120000FF
S11348260000990B911200000000441146113F113B
S113483641113E113D110000000044117011651133
S113484647113E113D1100000000461191124C49DA
S11348564D49542053574954434820484954204508
S113486652524F52004672656552544F5320586D4A
S11348766567612054657374696E672050726F674B
S113488672616D0055736572496E74004C65667489
S11348965377005269676874537700456E635065B1
S11348A66E00456E634D7472005379734374726C73
S11148B6004D7472436D640049444C4500008B
S9030000FC
