:100000000C94A8030C94DE030C94DE030C94DE0322
:100010000C94DE030C94DE030C94DE030C94DE03DC
:100020000C94DE030C94DE030C94DE030C94DE03CC
:100030000C94DE030C94DE030C94DE030C94DE03BC
:100040000C94DE030C94DE030C94DE030C94DE03AC
:100050000C94DE030C94DE030C94DE030C94DE039C
:100060000C94DE030C94D9120C94DE030C94DE0382
:100070000C947B120C94DE030C94DE030C94DE03D0
:100080000C94DE030C94DE030C94DE030C94DE036C
:100090000C94DE030C94DE030C94DE030C94DE035C
:1000A0000C94DE030C94DE030C94DE030C94DE034C
:1000B0000C94DE030C94DE030C94DE030C94DE033C
:1000C0000C94DE030C94431B0C94DE030C94DE03AF
:1000D0000C94DE030C94DE030C94DE030C94DE031C
:1000E0000C94DE030C94DE030C9461110C94DE037B
:1000F0000C94DE030C94DE030C94DE030C94DE03FC
:100100000C94DE030C94DE030C94DE030C94DE03EB
:100110000C94DE030C94DE030C94DE030C94DE03DB
:100120000C94DE030C94DE030C94DE030C94DE03CB
:100130000C94DE030C94DE030C94DE030C94DE03BB
:100140000C94DE030C94DE030C94DE030C94DE03AB
:100150000C94DE030C94DE030C94DE030C94DE039B
:100160000C941D120C94DE030C94DE030C94BF114E
:100170000C94DE030C94DE030C94DE030C94DE037B
:100180000C94DE030C94DE030C94DE030C94DE036B
:100190000C94DE030C94DE030C94DE030C94DE035B
:1001A0000C94DE030C94DE030C94DE030C94DE034B
:1001B0000C94DE030C94DE030C94DE030C94DE033B
:1001C0000C94DE030C94DE030C94DE030C94DE032B
:1001D0000C94DE030C94DE030C94DE030C94DE031B
:1001E0000C94DE030C94DE030C94DE030C94DE030B
:1001F0000C94DE030C94DE030C94DE03C2060908A3
:100200000908090809080908090809080908090866
:100210000908090809080908090809080908090856
:100220000908090809080908090809080908090846
:100230000908090809080908090809080908090836
:100240000908090809080908090809080908090826
:100250000908090809080908090809080908090816
:100260000908090809080908090809080908090806
:1002700009080908090809080908090809080908F6
:1002800009080908090809080908D80609080E0715
:10029000C2060908F206BE06090809080908090885
:1002A00009087B0509080908090828078206440788
:1002B00009088905261429142C142F143214351416
:1002C0003714481450145A1458140C944A0D0C94B2
:1002D000F2060C94EF0E0C942F140C94C1130C9492
:1002E000CE040C9437140C94BE130C94B8130C94D5
:1002F0007B050C94BE060C9409080C942C140C94E9
:10030000F70B0C9489050C945F080C9428070C9447
:1003100048140C94280F0C9444070C940D0E0C9464
:10032000C0130C9482060C94E60E0C9435140C94B5
:1003300058140C94B9130C940E070C944C0F0C9495
:1003400033150C94EA130C9426140C94DF130C94BC
:100350006E0E0C94020F0C94C2060C94B7130C94FE
:10036000C71D0C9429140C94BB130C9450140C94BA
:1003700032140C94D8060C9408140C945A140909DD
:10038000002F0049444C45090930092D0900092D69
:100390002D2D2D00092D2D2D2D2D2D2D2D2D2D000B
:1003A0002D2D2D2D09092D2D2D2D092D2D2D2D2DE9
:1003B000000952756E730009467265652F546F749B
:1003C000616C004E616D6509095072692E095374A4
:1003D0006174650009537461636B005461736B0948
:1003E0000920200920002C20544343304343413D41
:1003F000002F002C204865617020667265653A20E8
:100400000054696D653A2000536570203135203203
:10041000303236004D4534303520626173652072CC
:100420006164696F2070726F6772616D2056302E43
:100430003420001B5B32326D005461736B3A2049EB
:10044000444C45001B5B316D00496C6C6567616C09
:100450002073746174652120526573657474696ECC
:100460006720415652003A5754463F0054656C6528
:100470006D657472792064756D7020636F6D706C3A
:100480006574650074696D657374616D705F6D731B
:100490002C7261775F636F756E742C64636F756E19
:1004A000745F7369676E65642C636F756E745F75D6
:1004B0006E777261707065642C74686574615F65D5
:1004C000332C6F6D6567615F6533005265736574CA
:1004D0002C2074727920486F6D696E6720616761A6
:1004E000696E206279207072657373696E67202768
:1004F000622700454D455247454E43592053544FBE
:100500005000436F6D6D656E63652042616C616E76
:10051000636500426567696E20486F6D696E6700AC
:100520004578697420636F6D6D616E64206D6F64D2
:100530006500526573657474696E67204156520098
:100540005072657373204374726C2D4120666F7214
:1005500020636F6D6D616E64206D6F646500202097
:100560002020683A20202048414C502100202020A3
:1005700020743A20202044756D7020656E636F648E
:1005800065722074656C656D657472790020202039
:1005900020723A202020526573657420746F2049C0
:1005A000646C650020202020643A202020456D6581
:1005B0007267656E63792053746F7000202020206D
:1005C000673A20202053746172742042616C616E1E
:1005D0006365210020202020623A202020426567A8
:1005E000696E2043616C6962726174696F6E00208C
:1005F000202020653A2020204578697420636F6DA3
:100600006D616E64206D6F64650020202020733A58
:10061000202020537461636B2064756D7020666FB9
:1006200072207461736B730020202020763A2020A2
:100630002056657273696F6E20616E6420736574F5
:10064000757020696E666F726D6174696F6E0020DF
:100650002020206E3A20202053686F772074686530
:100660002074696D65207269676874206E6F770009
:100670002020496E20636F6D6D616E64206D6F6424
:1006800065206F6E6C793A00202043746C2D413ADE
:1006900020456E74657220636F6D6D616E64206DB0
:1006A0006F646500202043746C2D433A20526573BB
:1006B00065742074686520415652002068656C702E
:1006C000004D453430352062617365207261646984
:1006D0006F2070726F6772616D2056302E3420006B
:1006E0001B5B33306D001B5B34366D004552524F3F
:1006F00052206372656174696E67207461736B2048
:10070000002C20737461636B2061742030780020AA
:1007100063726561746564005461736B20001B5BD8
:1007200032326D005461736B3A20001B5B316D00F7
:10073000090009002F00090009001B5B32326D001F
:100740001B5B316D001B5B316D00202000004C0FE6
:1007500011241FBECFEFCDBFDFE3DEBF00E00CBF33
:1007600018BE19BE1ABE1BBE10E2A0E0B0E2ECE952
:10077000FDE400E00BBF02C007900D92A63FB10759
:10078000D9F71BBE2DE3A6EFB0E201C01D92AA3639
:10079000B207E1F713E0C8EAD3E000E006C0219712
:1007A0000109802FFE010E94A926C73AD10780E0E7
:1007B0000807A9F70E94700F0C94CC260C94000037
:1007C0000F931F93CF93DF93EC016AE08E819F819B
:1007D0000E9417148C0166EE76E00E945E146AE0B7
:1007E000C8010E9417148C0160EE76E00E945E142E
:1007F00067E0C8010E9417146AE08E819F810E9401
:1008000017148C0161EC76E00E945E146AE0C80166
:100810000E9417148C016BEB76E00E945E1466E078
:10082000C8010E9417146AE08E819F810E941714EC
:100830008C0164EA76E00E945E1466E0C8010E94C2
:1008400017146AE08E819F810E9417148C0168E85A
:1008500076E00E945E1466E0C8010E9417146AE008
:100860008E819F810E9417148C0160E776E00E94C0
:100870005E1466E0C8010E9417146AE08E819F81B1
:100880000E9417148C016FE476E00E945E1466E00B
:10089000C8010E9417146AE08E819F810E9417147C
:1008A0008C0168E276E00E945E1466E0C8010E9456
:1008B00017146AE08E819F810E9417148C016AE0F0
:1008C00076E00E945E1466E0C8010E9417146AE098
:1008D0008E819F810E9417148C016FEE75E00E943B
:1008E0005E1466E0C8010E9417146AE08E819F8141
:1008F0000E9417148C0164ED75E00E945E1466E09E
:10090000C8010E9417146AE08E819F810E9417140B
:100910008C016CEB75E00E945E1466E0C8010E94D9
:1009200017146AE08E819F810E9417148C0164EA7B
:1009300075E00E945E1466E0C8010E9417146AE028
:100940008E819F810E9417148C016DE875E00E94D2
:100950005E1466E0C8010E9417146AE08E819F81D0
:100960000E9417148C016DE675E00E945E1466E02B
:10097000C8010E9417146AE08E819F810E9417149B
:10098000EC016EE575E00E945E1466E0CE010E9407
:100990001714DF91CF911F910F910895CF93DF939B
:1009A000CDB7DEB72C97CDBFDEBF7C0119821A828E
:1009B0001B821C821D821E826AE0DC0116968D91CC
:1009C0009C9117970E9417148C0160E475E00E94B7
:1009D0005E1466E0C8010E94171433243394212C5E
:1009E000F7018485882321F0813009F460C02DC38C
:1009F00086819781DC01ED91FC910480F581E02DE9
:100A00001995882309F437C0F70186819781DC01A5
:100A1000ED91FC910680F781E02D199599278130A1
:100A20009105F9F0039709F02BC36AE0F70186817D
:100A300097810E9417148C0162E375E00E945E1496
:100A400066E0C8010E94171493E088ED08B618BE4E
:100A500084BF909380008091820081FDFCCF08BE0E
:100A6000FFCFC7010E94E003D7011C963C921C9760
:100A70001D963C9205C38EEC9CE20E94DF138823F6
:100A800009F4FEC2D7011696ED91FC9117970190DB
:100A9000F081E02D028113818EEC9CE20E94C11353
:100AA000682FF70186819781F8011995E9C286813F
:100AB0009781DC01ED91FC910480F581E02D199581
:100AC000882309F4DDC2F70186819781DC01ED916D
:100AD000FC910680F781E02D1995BC01FC01FF27F0
:100AE0007B97EC35F10508F094C28827E250FF4F60
:100AF0008F4F0C94A926CE0101960E947216BC015C
:100B0000F701868197810E948A1666E00E94171479
:100B1000B7C21F82188619861A861B861C860E94F9
:100B200019196C01CE0107960E9472165C0166E0ED
:100B3000D70116968D919C9117970E9417146AE021
:100B40000E9417148C0164E174E00E945E146AE054
:100B5000C8010E9417148C0168E074E00E945E14C2
:100B600066E0C8010E9417146AE00E9417148C0105
:100B700061E074E00E945E14B501C8010E948A160B
:100B80006AE00E9417148C0163EF73E00E945E1408
:100B9000B601C8010E94D7146AE00E9417148C01A4
:100BA00061EF73E00E945E144FEF5FE060E070E081
:100BB000C8010E949514C0902808D09029086AE0C6
:100BC000F701868197810E9417148C0166EE73E00D
:100BD0000E945E14B601C8010E94D71466E00E940C
:100BE000171466E00E941714D70116960D911C91F8
:100BF00017976AE0C8010E9417146C016BED73E04F
:100C00000E945E146AE0C6010E9417146C0164ED34
:100C100073E00E945E1466E0C6010E9417146AE049
:100C2000C8010E9417146C0163EC73E00E945E140B
:100C30006AE0C6010E9417146C0167EB73E00E9422
:100C40005E146AE0C6010E9417146C0161EB73E048
:100C50000E945E1466E0C6010E9417146AE0C80193
:100C60000E9417146C0160EA73E00E945E146AE04F
:100C7000C6010E9417146C0164E973E00E945E14BF
:100C80006AE0C6010E9417146C016EE873E00E94CE
:100C90005E1466E0C6010E941714ECEFFCE280814E
:100CA0009181009719F0B8010E941B170E947C1FC8
:100CB0000E94E722D82E6AE0C8010E9417148C0116
:100CC00063E873E00E945E146D2DC8010E94371323
:100CD0006AE00E9417148C0161E873E00E945E14C0
:100CE00064E670E0C8010E94D7146AE00E941714FD
:100CF0008C016EE773E00E945E1466E0C8010E94FA
:100D00001714BEC1D7011696CD90DC90179780912D
:100D1000FC2C9091FD2C009719F0B6010E9437171A
:100D20006AE0C6010E9417148C0164E474E00E941A
:100D30005E146AE0C8010E9417148C0169E374E034
:100D40000E945E146AE0C8010E9417148C0163E3DC
:100D500074E00E945E1466E0C8010E94171480913E
:100D6000683D9091693DBC016F5F7F4F01E1232D8C
:100D7000A601835691090E94C31582C1C7010E9432
:100D8000E0037EC16AE0F701868197810E94171413
:100D90008C0160E275E00E945E1466E0C8010E946A
:100DA0001714D7011C961C921C971D961C9268C1A3
:100DB000E091BA2CF091BB2C0FB6F8940F923082D0
:100DC0000F900FBE6AE0F701868197810E94171489
:100DD0008C0163E175E00E945E1466E0C8010E9428
:100DE00017144EC1E091B82CF091B92C0FB6F894BD
:100DF0000F9230820F900FBE6AE0D70116968D9148
:100E00009C9117970E9417148C0162E075E00E9474
:100E10005E1466E0C8010E94171432C1E091B62C3E
:100E2000F091B72C0FB6F8940F9230820F900FBE4E
:100E30006AE0F701868197810E9417148C0163EFA5
:100E400074E00E945E1466E0C8010E94171418C185
:100E5000E091B42CF091B52C0FB6F8940F9230823B
:100E60000F900FBE6AE0D70116968D919C9117974F
:100E70000E9417148C016BEC74E00E945E1466E013
:100E8000C8010E941714FCC03092B32C6AE0F7012D
:100E9000868197810E9417148C0164E874E00E9497
:100EA0005E1466E0C8010E9417148091B22C811173
:100EB000FAC0A090B02CB090B12C8091B22C8823B5
:100EC00059F005C00F2EFAEFAF2EF02DB22C409046
:100ED000B02C5090B12C02C0412C512CA114B10463
:100EE00009F485C0812C912CA401440D551D9A0153
:100EF00036952795A3E1B3E80E94B2268C01002421
:100F0000000F111F001C000F111F001C012F102DBE
:100F1000FAEFF09FC001F19F900D11248A01081B88
:100F2000190B3801660C771CC301800F911F880FC5
:100F3000991F880F991F9C0128503F4D6901D901C5
:100F40006D917C91F701868197810E94D7146EE69E
:100F500070E20E945E14D60112966D917C911397F7
:100F6000F701868197810E940B156EE670E20E9460
:100F70005E14D60114966D917C911597F7018681C8
:100F800097810E940B156EE670E20E945E14D601F6
:100F900016966D917C911797F701868197810E9433
:100FA0000B156EE670E20E945E14D60118966D91E4
:100FB0007C911997F701868197810E940B156EE647
:100FC00070E20E945E14F60162857385D701169661
:100FD0008D919C9117970E940B1566E00E94171443
:100FE000BFEF8B1A9B0A8A149B0408F47DCF6AE03A
:100FF000F701868197810E9417148C016CE674E0DA
:101000000E945E1466E0C8010E9417141092B32C6F
:1010100037C0D70116968D919C911797DC01ED9101
:10102000FC910280F381E02D19956AE0F701868139
:1010300097810E9417148C0166E674E00E945E148A
:1010400066E0C8010E9417141BC06AE08681978180
:101050000E9417148C0169E474E00E945E1466E03B
:10106000C8010E94171493E088ED08B618BE84BF2B
:10107000909380008091820081FDFCCF08BEFFCF5D
:10108000F70186859785A089B1890196A11DB11DBB
:1010900086879787A08BB18B64E170E080E090E059
:1010A0000E9471219DCC8091B22C81110BCF412CDB
:1010B000512C0F2EFAEFAF2EF02DB22C13CFCF9371
:1010C000DF93CDB7DEB72C97CDBFDEBF8C010E947A
:1010D000661F69837A838B839C83912C0F2EF3E0A8
:1010E0002F2EF02D0F2EF4E63F2EF02DD8011C965A
:1010F0008C91823009F4CCC030F4882369F08130BF
:1011000009F47AC05FC3843009F4B2C108F4F2C0B4
:10111000843609F423C356C3E091BE2CF091BF2C52
:101120000FB6F8940F9210821182128213820F90E0
:101130000FBEF801168E178E10A211A20FB6F894EA
:101140000F920F900FBEE091BA2CF091BB2C8081D2
:10115000882309F431C3E091B42CF091B52C0FB67B
:10116000F8940F9210820F900FBEE091B62CF09180
:10117000B72C0FB6F8940F9210820F900FBEE0912B
:10118000BC2CF091BD2C0FB6F8940F928CED90E032
:10119000808391830F900FBE0FB6F8940F920F903B
:1011A0000FBEE091CA2CF091CB2C8081882309F4EA
:1011B00005C30FB6F8940F92E091C82CF091C92C9A
:1011C00080819181A281B3810F900FBEE091BE2CEE
:1011D000F091BF2C0FB6F8940F9280839183A28375
:1011E000B3830F900FBE81E0D8011C968C931C979F
:1011F0001D968C93912CE6C2E091BA2CF091BB2CF9
:101200000FB6F8940F9210820F900FBEE091BC2C95
:10121000F091BD2C0FB6F8940F9284E29FEF80837B
:1012200091830F900FBE0FB6F8940F920F900FBEE0
:10123000E091CC2CF091CD2C80818823A9F00FB6C1
:10124000F8940F92E091C82CF091C92C8081918183
:10125000A281B3810F900FBEF801828B938BA48B78
:10126000B58B82E0848785870FB6F8940F920F9034
:101270000FBEE091B42CF091B52C8081882309F445
:10128000A1C2D8011C961C921C971D961C929AC252
:10129000E091BC2CF091BD2C0FB6F8940F92108207
:1012A00011820F900FBE68EC70E080E090E00E9429
:1012B00071210FB6F8940F920F900FBEE091CC2CD5
:1012C000F091CD2C8081882371F0E091BC2CF091BD
:1012D000BD2C0FB6F8940F928CED90E08083918333
:1012E0000F900FBE6FC2D8011C962C921C971D96B2
:1012F0002C9268C220E030E040E05FE3F8016289B0
:101300007389848995890E942C26D80156966D93FD
:101310007D938D939C9359970FB6F8940F920F90ED
:101320000FBEE091C82CF091C92C208131814281FF
:1013300053810E945B246B017C01F801628F738FE3
:10134000848F958F268D378D40A151A10E945C24FA
:101350002B013C01D8015E966D937D938D939C93F8
:101360009197A090BC2CB090BD2C0FB6F8940F9222
:10137000F80126A137A140A551A5C701B6010E94D9
:101380002C266B017C01D8019A962D913D914D91AF
:101390005C919D97C301B2010E942C269B01AC0178
:1013A000C701B6010E945C240E943F25F5016083BD
:1013B00071830F900FBE0FB6F8940F920F900FBE6F
:1013C000E091CC2CF091CD2C808181110CC00FB616
:1013D000F8940F920F900FBEE091CA2CF091CB2C95
:1013E0008081882389F0D8011696ED90FC9017979C
:1013F00060E770E2C7010E945E1466E0C7010E94C8
:101400001714F80134863586E091B42CF091B52C90
:101410000FB6F8940F920F900FBE80818823B1F021
:101420000FB6F8940F9210820F900FBEE091B62C79
:10143000F091B72C0FB6F8940F9210820F900FBE58
:10144000D8011C961C921C971D961C920FB6F894FE
:101450000F920F900FBEE091B82CF091B92C8081C3
:10146000882309F4AFC184E0F80184878587AAC185
:101470000FB6F8940F920F900FBEE091B62CF0913A
:10148000B72C8081882331F0D8011C963C921C97A0
:101490001D963C92911012C00FB6F8940F92E091F5
:1014A000C22CF091C32C80819181A281B3810F90D5
:1014B0000FBEF80186A797A7A0ABB1ABE091B82CFF
:1014C000F091B92C0FB6F8940F9210820F900FBEC6
:1014D0000FB6F8940F920FB6F8940F92E091C82CC3
:1014E000F091C92C40805180628073800F900FBEB4
:1014F0000FB6F8940F92E091C62CF091C72C808023
:101500009180A280B3800F900FBE0FB6F8940F9217
:10151000E091C22CF091C32CC080D180E280F38096
:101520000F900FBE0FB6F8940F92E091C02CF0917F
:10153000C12C80819181A281B38189879A87AB87F1
:10154000BC870F900FBE0F900FBED8019E962D91B5
:101550003D914D915C91D197C701B6010E945B24EA
:101560006D837E838F8398872FE630EF45E85EE3B7
:101570000E942726882364F42FE630EF45E85EEBCF
:101580006D817E818F8198850E94C8248823B4F460
:10159000F8010680F781E02DED83FE8367E870E2B5
:1015A000CF010E945E1466E08D819E810E94171417
:1015B000D8011C963C921C971D963C92F8012689F6
:1015C0003789408D518DC301B2010E945B242CEFFD
:1015D00038EA48EC51EC0E942C262B013C0126E60F
:1015E00036E642E351ECC501B4010E942C269B0172
:1015F000AC01C301B2010E945C244B015C0126E5F1
:101600003EE049E450E4C701B6010E945B242EE6A7
:1016100039E043EF51E40E942C269B01AC01C50147
:10162000B4010E945C246B017C0120E030E040E4C6
:1016300050E469857A858B859C850E942C269B01C8
:10164000AC01C701B6010E945C24905825E535E540
:1016500045E852E40E942C266B017C0120E030E03A
:1016600048EC54E40E94272618169CF020E030E055
:1016700048EC54ECC701B6010E94C82488238CF4BE
:101680000F2EC12CD12CF8ECEF2EF4ECFF2EF02D08
:1016900008C00F2EC12CD12CF8ECEF2EF4E4FF2E55
:1016A000F02DA090BC2CB090BD2C0FB6F8940F92EA
:1016B000C701B6010E943F25D5016D937C930F9021
:1016C0000FBE0FB6F8940F920F900FBEE091CC2C86
:1016D000F091CD2C808181110CC00FB6F8940F923F
:1016E0000F900FBEE091CA2CF091CB2C8081882303
:1016F00091F0F801E680F78060E770E2C7010E9490
:101700005E1466E0C7010E941714D8011C963C9233
:101710001C971D963C92E091B42CF091B52C0FB61D
:10172000F8940F920F900FBE8081882309F448C06F
:101730000FB6F8940F9210820F900FBEE091B62C66
:10174000F091B72C0FB6F8940F9210820F900FBE45
:10175000F801148615869924939434C0E091BC2C2A
:10176000F091BD2C0FB6F8940F92108211820F9059
:101770000FBEE091B42CF091B52C0FB6F8940F92F7
:101780000F900FBE80818823E9F00FB6F8940F9276
:1017900010820F900FBEE091B62CF091B72C0FB6CF
:1017A000F8940F9210820F900FBED8011C961C92D5
:1017B0001C971D961C9206C0912C04C0912C02C04F
:1017C00099249394F80186859785A089B18901961B
:1017D000A11DB11D86879787A08BB18B41E050E09A
:1017E00060E070E0CE0101960E9404217FCCCF938F
:1017F000DF93CDB7DEB76297CDBFDEBF898B9A8B03
:101800000E94661F69837A838B839C83E0E8F6E0FD
:1018100083E08283808B818BE0E8F1E080E7828344
:1018200089E08287E0E4F8E08AE683838DEC97E044
:1018300086A397A381E0808300A111A189809A806B
:10184000AB80BC801D861E861F86188AC12CD12CB9
:1018500076010E94661F6D837E838F839887681947
:1018600079098A099B090E94752520E030E04AE742
:1018700054E40E94CD2469877A878B879C874090A7
:10188000600850906108C201801B910B8C01BC0163
:10189000990F880B990B0E9477254B015C0120E082
:1018A00030EA49E754E40E942726181664F420E041
:1018B00030EA49EF54E4C501B4010E945B240E9460
:1018C0003F258B0115C020E030EA49E754ECC50103
:1018D000B4010E94C82488235CF420E030EA49EF78
:1018E00054E4C501B4010E945C240E943F258B0191
:1018F00022243324201A310AC101032C000CAA0B24
:10190000BB0BC80ED91EEA1EFB1EC701B6010E9402
:10191000772529E532E34EE45BE30E942C264B0158
:101920005C0120E030E0A90169857A858B859C8582
:101930000E9427261816BCF4B101032C000C880B5A
:10194000990B0E94772529E532E34EE45BE30E9480
:101950002C2629853A854B855C850E94CD246D8790
:101960007E878F87988BE091C42CF091C52C0FB6A1
:10197000F8940F92C082D1820F900FBEE091C22CDA
:10198000F091C32C0FB6F8940F9280829182A282BC
:10199000B3820F900FBEE091C02CF091C12C0FB616
:1019A000F8940F928D859E85AF85B8898083918349
:1019B000A283B3830F900FBE8091B32C81114FC0CF
:1019C0006090B02C7090B12C0E94661F8301000FB4
:1019D000111F060D171D000F111F000F111F0850BA
:1019E0001F4DD8016D937C93119712964D925C9286
:1019F000139714962D923C9215971696CD92DC92E1
:101A0000179720E030E04AE754E4C501B4010E9492
:101A10002C260E943F25F8016087718720E030E086
:101A20004AE754E46D857E858F8598890E942C262F
:101A30000E943F25D8011A966D937C931B97BFEFA8
:101A40006B1A7B0AEAEF6E16710428F0F1E0F0934E
:101A5000B22C612C712C6092B02C7092B12CE9895F
:101A6000FA8986859785A089B1890196A11DB11D46
:101A700086879787A08BB18B41E050E060E070E0F3
:101A8000CE0101960E94042182018D809E80AF804C
:101A9000B884DFCECF93DF93CDB7DEB72897CDBF25
:101AA000DEBF1C010E94661F69837A838B839C833F
:101AB000E0E8F6E08CE0828382898360828B838910
:101AC0008360838BE0E8F1E082E7808389E08087B0
:101AD000E0E0F9E088E683838FEF9FEF86A397A38A
:101AE00081E08083E091BE2CF091BF2C0FB6F8947A
:101AF0000F9210821182128213820F900FBE898082
:101B00009A80AB80BC801D821E821F8218860E9434
:101B1000661F6B017C01681979098A099B090E947B
:101B2000752520E030E04AE754E40E94CD244B01C3
:101B30005C0160912009709121090FB6F8940F9211
:101B40000F900FBE072E000C880B990B0E94772573
:101B500022E838EA4BE758E30E942C26E091BE2C9D
:101B6000F091BF2C20813181428153810E945B24FE
:101B7000162F072F782E692EE091C82CF091C92CD2
:101B80000FB6F8940F92862F902FA72DB62D808335
:101B90009183A283B3830F900FBE20E030E0A901B0
:101BA000C501B4010E9427261816E4F44090C62C03
:101BB0005090C72C0FB6F8940F922D813E814F8123
:101BC0005885612F702F872D962D0E945B24A501CB
:101BD00094010E94CD24F2016083718382839383F8
:101BE0000F900FBEF10186859785A089B189019676
:101BF000A11DB11D86879787A08BB18B41E050E076
:101C000060E070E0CE0101960E9404211D830E83E6
:101C10007F826886460157017ACFCF93DF9300D049
:101C20001F92CDB7DEB78C010E94661F69837A834D
:101C30008B839C83A0E4B6E087E011968C93119788
:101C400084E015968C931597E0E0F8E081E08083BE
:101C500083E08183A6A3B7A310A611A612A613A69C
:101C6000818180638183E12C6894FF24F3F80FB6AF
:101C7000F8940F92E091BC2CF091BD2C8081918161
:101C80000F900FBEF801828B938B992334F0F701EC
:101C900080A791A712A613A60CC0F70110A611A643
:101CA000F80182899389919581959109F70182A71D
:101CB00093A7F80186859785A089B1890196A11D12
:101CC000B11D86879787A08BB18B41E050E060E023
:101CD00070E0CE0101960E940421C9CFCF93DF931B
:101CE00000D01F92CDB7DEB78C010E94661F6983BA
:101CF0007A838B839C83E0E6F6E09081D80152964C
:101D00008C915297892B8083948152968C91529713
:101D1000892B848352968C91813021F488E18093C1
:101D2000700605C0843019F488E1809372060F2E86
:101D3000F8E6EF2EF6E0FF2EF02DDD24D394F70128
:101D4000808180FD0BC0E091CC2CF091CD2C0FB6A2
:101D5000F8940F92D0820F900FBE0AC0E091CC2C65
:101D6000F091CD2C0FB6F8940F9210820F900FBE09
:101D7000D7018C9182FD0BC0E091CA2CF091CB2C45
:101D80000FB6F8940F92D0820F900FBE0AC0E09168
:101D9000CA2CF091CB2C0FB6F8940F9210820F90B2
:101DA0000FBEF80186859785A089B1890196A11D8E
:101DB000B11D86879787A08BB18B45E050E060E02E
:101DC00070E0CE0101960E940421B9CFDC01ED91B3
:101DD000FC910280F381E02D6CE019950895CF937A
:101DE000DF93EC01A98DBA8DEB8DFC8D81E04D91D7
:101DF0005C91208131814217530709F480E0DF9123
:101E0000CF910895CF93DF93FC01C18DD28D2881AE
:101E10003981A38DB48D4D915C9124173507E9F379
:101E2000A789B08D0D90BC91A02DA20FB31F8C91EE
:101E30002F5F3F4F288339832436310528F0018CEA
:101E4000F28DE02D1082118290E0DF91CF91089504
:101E5000DC015096ED91FC915197808154964C9104
:101E60005497842329F009C02150310919F412C074
:101E700021E23EE490819423B9F3908156968C91AF
:101E80005697892B80831E96ED91FC911F97608356
:101E900081E0089580E00895CF93DF93CEECDCE2FB
:101EA0008AE08A831B8283E08D831C821E821F82CC
:101EB0008AE590E2888399831E861F8640E061E070
:101EC00080E20E94321C888799878AE090E0A0E037
:101ED000B0E08A879B87AC87BD87DF91CF9108955B
:101EE000AF92BF92DF92EF92FF920F931F93CF9327
:101EF000DF93CDB7DEB76E97CDBFDEBFE0E6F6E08D
:101F000080E181838583F894E0E5F0E08081826060
:101F10008083818181FFFDCF809140009FB79E8F9C
:101F2000F8941BBE887F816020E430E0F90108ED61
:101F300004BF80838E8D8FBFE0E5F0E080818E7FCF
:101F400080839DEF88ED08B618BE84BF9093800013
:101F500008BE81E090E00E944C188093CC2C9093B6
:101F6000CD2C81E090E00E944C188093CA2C909375
:101F7000CB2C84E090E00E944C188093C82C909366
:101F8000C92C84E090E00E944C188093C62C90935A
:101F9000C72C82E090E00E944C1882E090E00E9402
:101FA0004C1882E090E00E944C188093C42C9093CF
:101FB000C52C84E090E00E944C188093C22C909332
:101FC000C32C84E090E00E944C188093C02C909326
:101FD000C12C84E090E00E944C188093BE2C90931A
:101FE000BF2C82E090E00E944C188093BC2C909310
:101FF000BD2C81E090E00E944C188093BA2C909305
:10200000BB2C81E090E00E944C188093B82C9093F8
:10201000B92C81E090E00E944C188093B62C9093EC
:10202000B72C81E090E00E944C188093B42C9093E0
:10203000B52C8AE490E289839A838AE08B831C82A0
:1020400043E04E831D821F821886A0E4B6E0AB8772
:10205000BC8786E08D870F2EF7E0DF2EF02DDE8621
:10206000E0EBF8E0EF87F88B81EB98E0898B9A8BB7
:1020700084EB98E08B8B9C8B2E8514965C91149747
:1020800081E090E0BC0102C0660F771F2A95E2F75D
:102090009B01252B14962C932E85AB85BC855C91DA
:1020A000BC0102C0660F771F2A95E2F79B01252B22
:1020B0002C933D85AB85BC852C9102C0880F991F60
:1020C0003A95E2F78095909582238C936894BB248F
:1020D000B4F8B382458380EF878381E2868388E109
:1020E000848380E88E8B80E48F8B80E28D8BEF85FC
:1020F000F889808180818AE090E289839A8384EFE5
:102100009CE2888F998F82EF9CE28A8F9B8F80EF71
:102110009CE28C8F9D8F84E690E00E944C18809307
:10212000F42C9093F52CEA8DFB8D10821182EC8DAE
:10213000FD8D1082118267E0CE0101960E94171476
:102140007C016EE970E20E945E1466E0C7010E94A5
:10215000171466E00E94171482E190E00E944C1868
:102160007C018E010F5F1F4F24E031E040E06DEBFA
:1021700070E20E9485178AE190E2D7018D939C93CB
:1021800082E190E00E944C187C0124E031E044E0C0
:1021900065EC70E20E94851782E290E2F70180838D
:1021A000918382E190E00E944C187C0124E031E0B0
:1021B00044E06CEC70E20E9485178AE290E2D7015D
:1021C0008D939C9382E490E00E944C187C0124E063
:1021D00031E044E063ED70E20E94851782E390E213
:1021E000F70180839183128E138E148E158E168EB6
:1021F000178E10A211A280E090E8ABEBB5E486A3A5
:1022000097A3A0A7B1A780E090E0A0E4B0E482A7E4
:1022100093A7A4A7B5A7F296DF011D92BA94E9F798
:1022200084E190E00E944C187C0124E031E043E01E
:102230006BED70E20E9485178AE390E2F7018083DC
:102240009183128A138A83E190E00E944C187C01EA
:1022500024E031E042E062EE70E20E9485170F2E2A
:10226000F2E4AF2EF0E2BF2EF02DD701AD92BC927A
:10227000119781E052968C9383E190E00E944C1874
:102280007C0124E031E041E069EE70E20E948517B4
:10229000F701A082B18284E0828BD092A200789470
:1022A0000E942D1F80E090E06E96CDBFDEBFDF91D3
:1022B000CF911F910F91FF90EF90DF90BF90AF9063
:1022C00008951F920F920FB60F92112408B60F9225
:1022D00018BE0BB60F921BBE2F933F938F939F9305
:1022E000EF93FF932091A00AE091E22CF091E32C70
:1022F0008091DE2C9091DF2CE80FF91F20838091D4
:10230000DE2C9091DF2C01968436910560F4809349
:10231000DE2C9093DF2C2091E02C3091E12C821761
:102320009307F1F40CC01092DE2C1092DF2C8091F8
:10233000E02C9091E12C1816190691F40EC001962C
:102340008436910528F48093E02C9093E12C08C00A
:102350001092E02C1092E12C03C081E090E0F3CFCA
:10236000FF91EF919F918F913F912F910F900BBE15
:102370000F9008BE0F900FBE0F901F9018951F92E0
:102380000F920FB60F92112408B60F9218BE0BB61B
:102390000F921BBE2F933F938F939F93EF93FF93C7
:1023A0002091B009E091E82CF091E92C8091E42C87
:1023B0009091E52CE80FF91F20838091E42C9091F7
:1023C000E52C01968436910560F48093E42C90937B
:1023D000E52C2091E62C3091E72C82179307F1F43D
:1023E0000CC01092E42C1092E52C8091E62C909178
:1023F000E72C1816190691F40EC001968436910543
:1024000028F48093E62C9093E72C08C01092E62CD9
:102410001092E72C03C081E090E0F3CFFF91EF91A1
:102420009F918F913F912F910F900BBE0F9008BEFF
:102430000F900FBE0F901F9018951F920F920FB61E
:102440000F92112408B60F9218BE0BB60F921BBE46
:102450002F933F938F939F93EF93FF932091A00926
:10246000E091EE2CF091EF2C8091F62C9091F72CCE
:10247000E80FF91F20838091EA2C9091EB2C0196B4
:102480008436910560F48093EA2C9093EB2C209194
:10249000EC2C3091ED2C82179307F1F40CC01092C4
:1024A000EA2C1092EB2C8091EC2C9091ED2C1816CC
:1024B000190691F40EC001968436910528F4809394
:1024C000EC2C9093ED2C08C01092EC2C1092ED2C7B
:1024D00003C081E090E0F3CFFF91EF919F918F9146
:1024E0003F912F910F900BBE0F9008BE0F900FBE23
:1024F0000F901F9018951F920F920FB60F921124F4
:1025000008B60F9218BE0BB60F921BBE2F933F93C7
:102510008F939F93EF93FF932091B008E091F42C59
:10252000F091F52C8091F02C9091F12CE80FF91F8F
:1025300020838091F02C9091F12C019684369105A6
:1025400060F48093F02C9093F12C2091F22C309138
:10255000F32C82179307F1F40CC01092F02C109218
:10256000F12C8091F22C9091F32C1816190691F40D
:102570000EC001968436910528F48093F22C909336
:10258000F32C08C01092F22C1092F32C03C081E0BF
:1025900090E0F3CFFF91EF919F918F913F912F9119
:1025A0000F900BBE0F9008BE0F900FBE0F901F90A4
:1025B00018951F920F920FB60F92112408B60F9222
:1025C00018BE0BB60F921BBE2F933F938F939F9312
:1025D000EF93FF932091A008E091FA2CF091FB2C4F
:1025E0008091F62C9091F72CE80FF91F20838091B1
:1025F000F62C9091F72C01968436910560F4809327
:10260000F62C9093F72C2091F82C3091F92C82170E
:102610009307F1F40CC01092F62C1092F72C8091D5
:10262000F82C9091F92C1816190691F40EC0019609
:102630008436910528F48093F82C9093F92C08C0E7
:102640001092F82C1092F92C03C081E090E0F3CFA7
:10265000FF91EF919F918F913F912F910F900BBE22
:102660000F9008BE0F900FBE0F901F901895CF923D
:10267000DF92EF92FF920F931F93CF93DF93CDB72B
:10268000DEB72997CDBFDEBF8C01E62EDC011396A5
:102690008C911397882341F0ED91FC910280F38196
:1026A000E02DC801199556C0F8014281423019F554
:1026B0006894CC24C3F8D12C6894FF24F7F88E2DAD
:1026C0008F2151F0D801ED91FC910280F381E02D32
:1026D00061E3C801199509C0D801ED91FC91028010
:1026E000F381E02D60E3C8011995F694B1E0CB1AAF
:1026F000D10829F72FC04031F9F462956F7001902D
:10270000F081E02D0280F381E02D6A3010F0695CE9
:1027100001C0605DC80119956E2D6F70D801ED91F3
:10272000FC910280F381E02D6A3010F0695C01C0F9
:10273000605DC80119950EC050E0BE016F5F7F4F0C
:102740008E2D90E00E942624BE016F5F7F4FC8014E
:102750000E945E14C8012996CDBFDEBFDF91CF91E4
:102760001F910F91FF90EF90DF90CF900895089503
:10277000089580E0089580E090E0089581E0089554
:1027800008950F93CF93DF931F92CDB7DEB700E08C
:102790002FEF3FEFA901BE016F5F7F4FFC018085E6
:1027A00091850E94FB1C813019F4898190E002C060
:1027B0008FEF9FEF0F90DF91CF910F910895FC0164
:1027C000808591850E94BF1D91E0811101C090E03C
:1027D000892F08950F93CF93DF931F92CDB7DEB764
:1027E0006983FC01228533854485558500E0BE015F
:1027F0006F5F7F4F808591850E94601C91E0811101
:1028000001C090E0892F0F90DF91CF910F91089533
:10281000EC01E881F9810190F081E02D19951A828F
:102820001B826FEF7FEFCB010E947121FACFCF9314
:10283000DF93EC01862F90E08B309105D8F5FC01F9
:102840008827E65AFE4F8F4F0C94A92682E08A8390
:1028500031C088E08A832EC08AE08A832BC080E161
:102860008A8328C081E08B8325C01B8223C0E88136
:10287000F9810280F381E02D6DE0CE011995E881A8
:10288000F9810280F381E02D6AE0CE01199512C032
:10289000E881F9810284F385E02DCE0119950AC003
:1028A000E881F9810084F185E02DCE01199502C0FF
:1028B00081E08C83CE01DF91CF9108950F931F9318
:1028C000CF93DF938C01FB01DC0114968C91811175
:1028D00004C06081611117C023C0D80114961C92F6
:1028E000EB01219664916623D9F0D801ED91FC911A
:1028F0000280F381E02DC8011995FE0164912196B3
:102900006111F3CF0DC0EF012196D801ED91FC913B
:102910000280F381E02DC801199569916111F5CF0D
:10292000DF91CF911F910F910895DF92EF92FF9267
:102930000F931F93CF93DF93CDB7DEB7A197CDBF92
:10294000DEBF8C01D42EE52EF62E972FF8012281C2
:10295000203121F0283011F0223071F4692FC801A4
:102960000E9437136F2D0E9437136E2D0E9437136C
:102970006D2D0E9437130FC030E0AE014F5F5F4FE7
:102980006D2D7E2D8F2D0E94F923BE016F5F7F4F2D
:10299000C8010E945E14C801A196CDBFDEBFDF91C1
:1029A000CF911F910F91FF90EF90DF900895FF92CC
:1029B0000F931F93CF93DF93CDB7DEB76197CDBF52
:1029C000DEBF8C01F62E972FF8014281403121F0B5
:1029D000483011F0423041F4692FC8010E9437138A
:1029E0006F2D0E9437130DC050E0BE016F5F7F4F07
:1029F0008F2D0E942624BE016F5F7F4FC8010E9469
:102A00005E14C8016196CDBFDEBFDF91CF911F91EB
:102A10000F91FF9008950F931F93CF93DF93CDB73E
:102A2000DEB76197CDBFDEBF8C01CB01F8012281FB
:102A30002A3021F0C8010E94D7140CC04AE0BE0120
:102A40006F5F7F4F0E94EE23BE016F5F7F4FC80113
:102A50000E945E14C8016196CDBFDEBFDF91CF91A9
:102A60001F910F9108958F929F92AF92BF92CF9234
:102A7000DF92EF92FF920F931F93CF93DF93EC01BE
:102A80008B018A819B810E94741FBC01C8010E9436
:102A90005E14D801ED91FC910280F381E02D69E094
:102AA000C80119958A819B810E94741FFC010190C5
:102AB0000020E9F73197E81BF90B389748F4D80163
:102AC000ED91FC910280F381E02D69E0C801199538
:102AD000CE84DF84E888F988A884B9848A819B81C0
:102AE0000E94E722982E8C848A819B810E941F1F5E
:102AF000682FC8010E9437136AE00E941714EC0186
:102B000068E377E00E945E14682DCE010E943713BF
:102B10006AE00E941714EC0166E377E00E945E14FD
:102B2000692DCE010E9437136AE00E941714EC0150
:102B300064E377E00E945E14B501CE010E94D714D1
:102B40006AE00E941714EC0162E377E00E945E14D1
:102B50006AE0CE010E941714EC0160E377E00E9466
:102B60005E14B701A601CE010E949514DF91CF91AA
:102B70001F910F91FF90EF90DF90CF90BF90AF909B
:102B80009F908F9008955F926F927F928F929F9205
:102B9000AF92BF92CF92DF92EF92FF920F931F936B
:102BA000CF93DF935C013B014A01122F502E63E06B
:102BB000CA010E941714A614B70408F07CC065016E
:102BC00084E1C80ED11C00E07501B501C4010E946A
:102BD000D7146AE00E9417146AE477E00E945E143A
:102BE000112309F46DC0002309F46AC06AE0C4012E
:102BF0000E94171465E477E00E945E1461C01123FF
:102C000071F001110CC08881851549F06AE0C4019A
:102C10000E94171460E477E00E945E1401E069915D
:102C2000C4010E943713DC01ED91FC910280F38115
:102C3000E02D60E21995CC16DD0609F7112389F025
:102C40006AE0C4010E941714EC016AE377E00E9475
:102C50005E14E881F9810280F381E02D60E2CE010B
:102C60001995F70161917F0180EE860F8F3548F449
:102C7000D401ED91FC910280F381E02DC4011995FE
:102C800009C0D401ED91FC910280F381E02D6EE248
:102C9000C4011995CE14DF0421F7B4E1AB0EB11CC9
:102CA00066E0C4010E941714E4E1CE0ED11CA61404
:102CB000B70408F489CF62E0C4010E94171402C06F
:102CC000E7019DCFDF91CF911F910F91FF90EF9082
:102CD000DF90CF90BF90AF909F908F907F906F903C
:102CE0005F900895CF93DF93EC010FB6F8940F92A5
:102CF00080912008909121088C839D830E94661FFB
:102D0000688379838A839B830F900FBECE01DF9106
:102D1000CF9108958F929F92AF92BF92EF92FF92C0
:102D20000F931F93CF93DF93CDB7DEB72F97CDBF10
:102D3000DEBF8C017B01DB016D917D918D919C91BA
:102D40000F2EF8EE8F2EF3E09F2EA12CB12CF02D3C
:102D5000A50194010E94AD23BA01A901C8010E94F6
:102D60009514D801ED91FC910280F381E02D6EE283
:102D7000C8011995F7016081718182819381A50154
:102D800094010E94AD239B01AC0160E472E48FE0EA
:102D900090E00E949926A50194010E94AD2349016B
:102DA0005A01F701A481B58120E432E44FE050E0FC
:102DB0000E94C12620E038E448EE51E00E94AD2395
:102DC000C501B401620F731F841F951F7E01F7E0D8
:102DD000EF0EF11C9E012F5F3F4F59012AE030E0BA
:102DE00040E050E00E948E23E62F288739874A87EB
:102DF0005B87688579858A859B8520E32E0FD701BF
:102E00002E937D01AA15BB0549F71F82BE016F5F96
:102E10007F4FC8010E945E14C8012F96CDBFDEBF50
:102E2000DF91CF911F910F91FF90EF90BF90AF90E6
:102E30009F908F9008950F931F93CF93DF93EC0192
:102E40008B01E881F9810280F381E02D199566E01C
:102E5000C8010E9417148C819D81009719F0B80158
:102E60000E941B17DF91CF911F910F910895CF9270
:102E7000DF92EF92FF920F931F93CF93DF93EC01BA
:102E80007B018A819B810E94741F6C016AE0C701EB
:102E90000E9417148C016BE277E00E945E146AE0D6
:102EA000C8010E9417148C0164E277E00E945E144E
:102EB000B601C8010E945E146AE0C8010E9417149E
:102EC0008C016EE177E00E945E1466E0C8010E940A
:102ED00017148A859B85E885F98501E121E0A70122
:102EE000BC018E1B9F0B0E94C3158C819D81009796
:102EF00019F0B7010E943717DF91CF911F910F9101
:102F0000FF90EF90DF90CF9008954F925F926F9275
:102F10007F928F929F92AF92BF92CF92DF92EF9269
:102F2000FF920F931F93CF93DF93CDB7DEB72A970E
:102F3000CDBFDEBF4C01290138018AE690E2F401E1
:102F400080839183FB018081882369F0DE011196E3
:102F5000319690E002C0993039F09F5F8D93819156
:102F60008111F9CF01C090E0E1E0F0E0EC0FFD1F2E
:102F7000E90FF11D10827401F2E0EF0EF11CA12C9B
:102F8000B12CC12CD12C042F9401A201BE016F5F82
:102F90007F4F88E094E10E941D1EF40166827782D3
:102FA000408651862091FC2C3091FD2C2483358362
:102FB0008092FC2C9092FD2C148615864090683DE2
:102FC0005090693DFFEF4F1A5F0A4092683D509262
:102FD000693DF4014286538616861786108A118A47
:102FE0006114710409F444C0813079F56AE0C301C9
:102FF0000E9417147C0168E177E00E945E14BE0114
:103000006F5F7F4FC7010E945E146AE0C7010E9494
:1030100017147C016FE077E00E945E146AE0C7013C
:103020000E9417147C0161E077E00E945E1463E067
:10303000C7010E941714B2010E94D71462E00E94D7
:10304000171466E00E94171413C06AE0C3010E94BF
:1030500017144C016CEE76E00E945E14BE016F5FA7
:103060007F4FC4010E945E1466E0C4010E941714E1
:103070002A96CDBFDEBFDF91CF911F910F91FF90B8
:10308000EF90DF90CF90BF90AF909F908F907F9008
:103090006F905F904F9008950F931F93CF93DF939E
:1030A000EC010E94601F8091FE2C81111DC0A3E0E5
:1030B000BDE2E7E0FDE2ED93FC93119712961D92BD
:1030C0001C921397AFEFBCE28FEF9FE012968D93A7
:1030D0009C9313971D921C92119782839383A083D4
:1030E000B18381E08093FE2C209709F45FC09E019C
:1030F0002B5F3F4F2496CE3FDF4008F05AC0E0914F
:10310000032DF091042DA3E0BDE202C0DF01FC011C
:10311000828193818217930720F4808191810097A7
:10312000A9F7CCE2EF3FFC0709F446C0CD91DC9152
:1031300011978E010B5F1F4F808191818D939C931E
:1031400082819381821B930B8B30910510F1BF011B
:10315000620F731FDB0112968D939C93139722834A
:10316000338312964D915C91139783E09DE201C0E9
:10317000CD01EC01A881B98112962D913C91139754
:1031800024173507A8F3EB01A883B983DC016D93FD
:103190007C93809100209091012022813381821BB9
:1031A000930B809300209093012008C000E010E072
:1031B00005C000E010E002C000E010E00E948220A4
:1031C000C801DF91CF911F910F9108950F931F9325
:1031D000CF93DF93009741F1EC018C010550110969
:1031E0000E94601FF80142815381A3E0BDE201C04B
:1031F000DF01ED91FC91119722813381241735076E
:10320000B8F32597E883F9830D931C932091002050
:10321000309101208A819B81820F931F809300202F
:10322000909301200E948220DF91CF911F910F91F6
:10323000089580910020909101200895FC0103964B
:10324000818392834FEF5FEFBA0143835483658399
:103250007683878390878187928710820895FC0107
:10326000128613860895CF93DF93FC01DB01218141
:103270003281E9018C819D8114968D939C931597E1
:103280008181928116968D939C9317978C819D8155
:10329000EC016E837F83E9016C837D83618372839C
:1032A0001A96ED93FC931B9780818F5F8083DF914B
:1032B000CF9108950F931F93CF93DF93EB01088174
:1032C00019812A813B810F3F4FEF140724073407F0
:1032D00031F4DC011996ED91FC911A971FC0FC01A5
:1032E0003396DC0117964D915C911897DA014D9158
:1032F0005D916D917C91041715072607370770F0D3
:103300000480F581E02DA481B5814D915D916D9191
:103310007C91041715072607370790F7A481B5811C
:10332000AC83BD831696CD93DC931797EE83FF8312
:10333000C483D5838A879B87FC0120812F5F2083EC
:10334000DF91CF911F910F910895FC01A481B58168
:103350008681978116968D939C931797A681B78146
:103360008481958114968D939C931597A285B3853E
:1033700011968D919C911297E817F90731F4868187
:10338000978111968D939C931297128613868C9138
:1033900081508C9308958093683D9093693D31E10D
:1033A000FC013083319722E220833197A3E3A0838D
:1033B00031976083319770833197108231971082F3
:1033C000319760E86083319710823197108231978E
:1033D0001082319762E06083319763E060833197B8
:1033E00064E06083319765E06083319766E06083D5
:1033F000319767E06083319768E06083319769E0D7
:103400006083319760E1608331973083319732E197
:103410003083319733E13083319734E13083319712
:1034200035E13083319736E13083319737E13083AE
:10343000319738E13083319739E13083319730E289
:103440003083319731E2308331972083319723E203
:1034500020833197408331975083319726E2208330
:10346000319727E22083319728E22083319729E2A0
:103470002083319720E32083319721E320838997AC
:1034800008958CE78093290A8FEF8093280A81E0C2
:103490008093000A91E19093010A8093070AA0911A
:1034A000663DB091673DCD91CDBFDD91DEBFFF910F
:1034B000EF91DF91CF91BF91AF919F918F917F91CC
:1034C0006F915F914F913F912F911F910F91FF90BD
:1034D000EF90DF90CF90BF90AF909F908F907F90B4
:1034E0006F905F904F903F902F901F900F900CBE69
:1034F0000F900BBE0F900FBE0F90089508950F927E
:103500000FB6F8940F920BB60F920CB60F921F9253
:1035100011242F923F924F925F926F927F928F92DF
:103520009F92AF92BF92CF92DF92EF92FF920F9352
:103530001F932F933F934F935F936F937F938F933B
:103540009F93AF93BF93CF93DF93EF93FF93A0919C
:10355000663DB091673D0DB60D920EB60D920E947C
:103560009F21A091663DB091673DCD91CDBFDD918A
:10357000DEBFFF91EF91DF91CF91BF91AF919F910E
:103580008F917F916F915F914F913F912F911F91FB
:103590000F91FF90EF90DF90CF90BF90AF909F90F2
:1035A0008F907F906F905F904F903F902F901F90E3
:1035B0000F900CBE0F900BBE0F900FBE0F90089592
:1035C0000F920FB6F8940F920BB60F920CB60F92A3
:1035D0001F9211242F923F924F925F926F927F928F
:1035E0008F929F92AF92BF92CF92DF92EF92FF9213
:1035F0000F931F932F933F934F935F936F937F93FB
:103600008F939F93AF93BF93CF93DF93EF93FF93EA
:10361000A091663DB091673D0DB60D920EB60D922C
:103620000E94811F0E949F21A091663DB091673D3D
:10363000CD91CDBFDD91DEBFFF91EF91DF91CF91B5
:10364000BF91AF919F918F917F916F915F914F91BA
:103650003F912F911F910F91FF90EF90DF90CF90AE
:10366000BF90AF909F908F907F906F905F904F90A2
:103670003F902F901F900F900CBE0F900BBE0F909D
:103680000FBE0F9008950E94E01A1895CF93DF9314
:10369000EC0188A181110BC088819981892BE1F50A
:1036A0008A819B810E945A231A821B8235C0411154
:1036B00017C0482F50E08C819D810E94CF2328A104
:1036C0008C819D81820F911D8C839D832A813B81FA
:1036D0008217930708F1888199818C839D831CC090
:1036E000482F50E08E819F810E94CF2388A190E0D7
:1036F0009195819591092E813F81280F391F2E8345
:103700003F83488159812417350730F42A813B8152
:10371000820F931F8E839F838E8D8F5F8E8FDF919D
:10372000CF910895FC01808191810097A1F040A183
:1037300050E026813781240F351F26833783A281ED
:10374000B3812A173B0710F086839783CB016681EC
:1037500077810E94CF2308950F931F93CF93DF9318
:10376000EC010FB6F8940F928AA11816B4F48B8965
:10377000811105C012C08B89811104C00EC08E0159
:103780000D5E1F4FC8010E94262281110E94E32274
:103790008AA181508AA3181674F38FEF8AA30F9021
:1037A0000FBE0FB6F8940F9289A11816B4F488854D
:1037B000811105C012C08885811104C00EC08E0120
:1037C000085F1F4FC8010E94262281110E94E32238
:1037D00089A1815089A3181674F38FEF89A30F90E4
:1037E0000FBEDF91CF911F910F9108951F93CF933B
:1037F000DF93613059F0FC012389308531112CC0F1
:1038000011E0211110E0211128C001C011E0EC01EC
:103810004881598128A130E06F8D629FC001639F6C
:10382000900D1124BA01680F791F6A837B831E8E65
:103830004C835D83821B930B840F951F8E839F8324
:103840008FEF89A38AA3CE0108960E941E19CE018C
:1038500043960E941E1901C010E0812FDF91CF9185
:103860001F9108950F931F93CF93DF93882301F146
:10387000062F182F83E290E00E944C18EC01892B50
:10388000C9F0109FC001112401960E944C18888332
:103890009983892B39F01F8F08A361E0CE010E9424
:1038A000F61B08C0CE010E94E618C0E0D0E002C0BE
:1038B000C0E0D0E0CE01DF91CF911F910F9108952C
:1038C000AF92BF92CF92DF92EF92FF920F931F932E
:1038D000CF93DF93CDB7DEB72997CDBFDEBF7C0195
:1038E0005B012E833F834887598710E06C0188E095
:1038F000C80ED11C0FB6F8940F92F701968D878DE4
:103900009817A8F4402FB501C7010E94461BF70184
:103910008389882341F0C70143960E942622813083
:1039200011F40E947F1A0F900FBE81E056C08E8165
:103930009F81A885B985892B8A2B8B2B21F40F9029
:103940000FBE80E04AC0111105C0CE0101960E9451
:10395000652211E00F900FBE0E94601F0FB6F89411
:103960000F92F70181A18F3F09F411A2F70182A103
:103970008F3F09F412A20F900FBEBE016A5F7F4F06
:10398000CE0101960E947622811121C00FB6F894D3
:103990000F92F701968D0F900FBE878D981311C06F
:1039A0004E815F8168857985C6010E94FC21C7012F
:1039B0000E94AC1B0E94822081119CCF0E947F1A22
:1039C00099CFC7010E94AC1B0E94822093CFC701F0
:1039D0000E94AC1B0E94822080E02996CDBFDEBFF2
:1039E000DF91CF911F910F91FF90EF90DF90CF90DB
:1039F000BF90AF900895AF92BF92CF92DF92EF92B7
:103A0000FF920F931F93CF93DF93CDB7DEB7299724
:103A1000CDBFDEBF7C015B012E833F834887598782
:103A200010E06C0183E1C80ED11C0FB6F8940F9220
:103A3000F701868D882399F1C680D780B501C7012B
:103A40000E94921B01111AC0F701868D8150868F4A
:103A500080819181892B29F40E940023F7018283C0
:103A60009383F70180858823B1F0C70108960E94EF
:103A70002622813081F40E947F1A0DC0F701C68290
:103A8000D7828389882339F0C70143960E94262272
:103A900081110E947F1A0F900FBE81E062C08E815B
:103AA0009F81A885B985892B8A2B8B2B21F40F90B8
:103AB0000FBE80E056C0111105C0CE0101960E94D4
:103AC000652211E00F900FBE0E94601F0FB6F894A0
:103AD0000F92F70181A18F3F09F411A2F70182A192
:103AE0008F3F09F412A20F900FBEBE016A5F7F4F95
:103AF000CE0101960E94762281112DC00FB6F89456
:103B00000F92F701868D0F900FBE81111EC080812C
:103B10009181892B49F40FB6F8940F928281938199
:103B20000E9405230F900FBE4E815F8168857985C5
:103B3000C6010E94FC21C7010E94AC1B0E9482208A
:103B4000811173CF0E947F1A70CFC7010E94AC1BF6
:103B50000E9482206ACFC7010E94AC1B0E94822073
:103B600080E02996CDBFDEBFDF91CF911F910F91ED
:103B7000FF90EF90DF90CF90BF90AF9008950FB679
:103B8000F8940F92FC01868D0F900FBE0895CAE342
:103B9000DDE388818230E8F30E947F1AFACFCF926A
:103BA000DF92EF92FF926B017C01E091663DF09114
:103BB000673D628373838483958380910E3D9091EA
:103BC0000F3DA091103DB091113DC816D906EA06EF
:103BD000FB0668F46091663D7091673D8091203DE1
:103BE0009091213D6E5F7F4F0E945A1921C06091D4
:103BF000663D7091673D8091223D9091233D6E5FBF
:103C00007F4F0E945A198091022090910320A09129
:103C10000420B0910520C816D906EA06FB0640F438
:103C2000C0920220D0920320E0920420F09205205E
:103C3000FF90EF90DF90CF9008954F925F926F9238
:103C40007F928F929F92AF92BF92CF92DF92EF922C
:103C5000FF920F931F93CF93DF935C014B013A01C7
:103C6000290188E290E00E944C18EC01892B09F4AC
:103C7000D4C0C114D10409F0CCC0C3010E944C18B7
:103C80008B8F9C8F009721F4CE010E94E618C5C04F
:103C9000A30161E170E00E94D82393012150310912
:103CA0008B8D9C8D3C01620E731E4AE050E0B40186
:103CB000CE014D960E94DF231EA2102F043008F083
:103CC00013E01A8F1FA36E0122E0C20ED11CC601A1
:103CD0000E942F19CE010E960E942F19CA87DB87EA
:103CE00084E090E0A0E0B0E0811B9109A109B10956
:103CF0008E879F87A88BB98BCE8BDF8BA201B501F6
:103D0000C3010E94CB1988839983E114F10419F04F
:103D1000F701C083D1830FB6F8940F928091123DC2
:103D20008F5F8093123D8091663D9091673D892B16
:103D300089F5C093663DD093673D8091123D8130F7
:103D4000C1F58AE39DE30E941E1985E49DE30E946C
:103D50001E1980E59DE30E941E198BE59DE30E94DC
:103D60001E198FE29DE30E941E1984E29DE30E94CA
:103D70001E1985E19DE30E941E198FE29DE3809349
:103D8000223D9093233D84E29DE38093203D9093D8
:103D9000213D0FC080910B3D81110BC0E091663D2C
:103DA000F091673D828D081720F0C093663DD09357
:103DB000673D8A8D90910D3D981710F480930D3DCD
:103DC0009091063D9F5F9093063D90910C3D981712
:103DD00010F480930C3DFBE08F9FC0011124B601CD
:103DE000865C924C0E9433190F900FBE80910B3D60
:103DF000882359F0E091663DF091673D828D8017F0
:103E000030F40E947F1A81E009C081E007C081E0A0
:103E100005C0CB8EDC8EC6013BCF8FEFDF91CF91FB
:103E20001F910F91FF90EF90DF90CF90BF90AF90D8
:103E30009F908F907F906F905F904F9008950FB6F6
:103E4000F8940F92009721F48091663D9091673D20
:103E50000F900FBEFC01828D0895AF92BF92CF925A
:103E6000DF92EF92FF920F93A12CB12CC12CD12C99
:103E70000F2EF3E1EF2EFDE3FF2EF02D00E020E00A
:103E800030E044E650E061EF70E287EC9DE10E9493
:103E90001D1E813069F4F89480930B3D10920E3D05
:103EA00010920F3D1092103D1092113D0E94411A48
:103EB0000F91FF90EF90DF90CF90BF90AF9008955B
:103EC00080910A3D8F5F80930A3D08950FB6F89464
:103ED0000F9260910E3D70910F3D8091103D909139
:103EE000113D0F900FBE0895009721F48091663D1B
:103EF0009091673D4D9608958091133D9091143DAA
:103F00000895FF920F931F93CF93DF9380910A3D03
:103F10008111EDC080910E3D90910F3DA091103D1B
:103F2000B091113D0196A11DB11D80930E3D90935E
:103F30000F3DA093103DB093113D80910E3D9091A7
:103F40000F3DA091103DB091113D892B8A2B8B2BF9
:103F5000F1F58091223D9091233D2091203D3091BB
:103F6000213D2093223D3093233D8093203D90932B
:103F7000213D8091073D8F5F8093073DE091223D79
:103F8000F091233D808181110CC08FEF9FEFDC0108
:103F90008093022090930320A0930420B0930520E7
:103FA00016C0E091223DF091233D0780F085E02D81
:103FB0000084F185E02D82819381A481B581809375
:103FC000022090930320A0930420B09305204091F9
:103FD0000E3D50910F3D6091103D7091113D8091CB
:103FE000022090910320A0910420B0910520481751
:103FF00059076A077B0708F47FC0E091223DF091E2
:10400000233D80818823F9F0E091223DF091233D0A
:104010000780F085E02DC085D1858A819B81AC81A8
:10402000BD8140910E3D50910F3D6091103D7091CA
:10403000113D481759076A077B0758F10F2EFBE01F
:10404000FF2EF02D2FC08FEF9FEFDC018093022019
:1040500090930320A0930420B09305204DC0E091DD
:10406000223DF091233D0780F085E02DC085D1856C
:104070008A819B81AC81BD8140910E3D50910F3D65
:104080006091103D7091113D481759076A077B07F1
:1040900048F48093022090930320A0930420B093CF
:1040A00005202AC08E010E5F1F4FC8010E94A5196E
:1040B000888D998D892B21F0CE010E960E94A5192D
:1040C0008A8D90910C3D981710F480930C3DF89ECA
:1040D000C0011124B801865C924C0E943319E09112
:1040E000223DF091233D80818111B9CFACCF8091E9
:1040F000093D8F5F8093093DDF91CF911F910F9113
:10410000FF900895CF92DF92EF92FF920F931F934B
:10411000CF93DF930FB6F8940F9280910A3D8150B0
:1041200080930A3D80910A3D811160C08091123DCB
:1041300081112CC05EC0D7011796ED91FC911897A4
:10414000C085D185CE010E960E94A5198E010E5F05
:104150001F4FC8010E94A5198A8D90910C3D981798
:1041600010F480930C3DD89EC0011124B801865CE8
:10417000924C0E943319E091663DF091673D9A8D13
:10418000828D981770F0CC24C3940BC0C12C0F2ED5
:10419000F5E1EF2EFDE3FF2EF02D0F2EFBE0DF2EDD
:1041A000F02DF70180818111C6CF8091093D8823D0
:1041B00081F08091093D882399F00E94811F8091B0
:1041C000093D81508093093D8091093D8111F5CFD2
:1041D00007C0F1E0CF1621F08091083D813041F415
:1041E0001092083D0E947F1A81E003C080E001C068
:1041F00080E00F900FBEDF91CF911F910F91FF9044
:10420000EF90DF90CF900895CF92DF92EF92FF92E0
:10421000CF93DF93EC016A017B010E94601F8881CC
:104220009981AA81BB81C80ED91EEA1EFB1E40914E
:104230000E3D50910F3D6091103D7091113D48171A
:1042400059076A077B07B8F4C816D906EA06FB06C1
:10425000E0F580910E3D90910F3DA091103DB09101
:10426000113DC882D982EA82FB828C159D05AE057C
:10427000BF05F8F413C0C816D906EA06FB0600F11C
:1042800080910E3D90910F3DA091103DB091113D58
:104290008C159D05AE05BF0598F017C08091663D51
:1042A0009091673D02960E94A519C701B6010E9430
:1042B000CF1D0E94822081110DC00E947F1A0AC06A
:1042C000C882D982EA82FB82E9CFC882D982EA8297
:1042D000FB82EFCFDF91CF91FF90EF90DF90CF90F7
:1042E0000895CF92DF92EF92FF926B017C01672BD2
:1042F000682B692BE9F00E94601F80910E3D909120
:104300000F3DA091103DB091113DC80ED91EEA1E7F
:10431000FB1E8091663D9091673D02960E94A51913
:10432000C701B6010E94CF1D0E948220811102C0E8
:104330000E947F1AFF90EF90DF90CF9008958091B8
:104340000A3D81110CC0E0910C3D4BE0E49FF0016F
:104350001124E65CF24C8081882329F014C081E0AE
:104360008093083D08959BE080910C3D815080939F
:104370000C3DE0910C3D9E9FF0011124E65CF24C57
:104380008081882389F380910C3D282F30E04BE019
:10439000849FC0011124DC01A65CB24C1196ED9102
:1043A000FC9112970480F581E02D1196ED93FC931A
:1043B0001297835C924CE817F90761F48481958128
:1043C0004BE0429FF001439FF00D1124E65CF24C5C
:1043D000818392838BE0829FF001839FF00D1124F3
:1043E000E65CF24C0180F281E02D8085918580931E
:1043F000663D9093673D0895CF92DF92EF92FF92D2
:104400006A017B016091663D7091673D625F7F4FFD
:104410000E945A198091663D9091673D02960E94D4
:10442000A51980910E3D90910F3DA091103DB09146
:10443000113DBC01CD016C0D7D1D8E1D9F1D0E9487
:10444000CF1DFF90EF90DF90CF9008950F931F93B3
:10445000CF93DF93DC011796ED91FC911897C085FF
:10446000D1858E01025F1F4FC8010E94A51980915E
:104470000A3D811116C00C501109C8010E94A519EE
:104480008A8D90910C3D981710F480930C3DBBE001
:104490008B9FC0011124B801865C924C0E94331995
:1044A00005C0B80185E19DE30E943319E091663DA6
:1044B000F091673D81E02A8D928D291708F480E004
:1044C000DF91CF911F910F9108952091073DFC013D
:1044D000208340910E3D50910F3D6091103D7091B1
:1044E000113D418352836383748308958F929F9219
:1044F000AF92BF92CF92DF92EF92FF920F931F93F2
:10450000CF93DF93FC010FB6F8940F928091073D93
:104510009081981789F080910E3D90910F3DA09168
:10452000103DB091113D01811281238134818017AA
:104530009107A207B307A8F580910E3D90910F3D1A
:10454000A091103DB091113DC180D280E380F480F4
:10455000EB01088119812A813B818C199D09AE09E3
:10456000BF0980179107A207B307E8F4CF01809035
:104570000E3D90900F3DA090103DB090113DB501C3
:10458000A4014C195D096E097F09041B150B260B4C
:10459000370B088319832A833B830E94652280E0BE
:1045A00003C081E001C081E00F900FBEDF91CF9189
:1045B0001F910F91FF90EF90DF90CF90BF90AF9041
:1045C0009F908F90089581E08093083D0895009713
:1045D00021F48091663D9091673DDC015B96ED9101
:1045E000FC915C978081813141F4319680E090E0CC
:1045F000019621912131E1F3089580E090E0089542
:104600008091663D9091673D08950F931F93CF93DE
:10461000DF93FC01228DA091663DB091673D5A96D3
:104620008C91281708F041C0A091663DB091673D7C
:104630005A963C9184E090E0A0E0B0E0831B9109A1
:10464000A109B10986879787A08BB18B8BE0289F42
:1046500090011124265C324C84859585821793073E
:10466000E9F48F01EF012296CE010E94A519E09195
:10467000663DF091673D828DF801828F90910C3DEF
:10468000981710F480930C3DFBE08F9FC00111241C
:10469000BE01865C924C0E94331907C0A091663D12
:1046A000B091673D5A968C91828FDF91CF911F9187
:1046B0000F9108950F931F93CF93DF93009749F1C4
:1046C000FC01328D27A1321721F1EC018C010E5F24
:1046D0001F4FC8010E94A5198FA18A8F44E050E0A6
:1046E00060E070E0481B5109610971094E875F87DE
:1046F000688B798B90910C3D981710F480930C3D4A
:10470000FBE08F9FC0011124B801865C924C0E948F
:104710003319DF91CF911F910F910895052E97FBCB
:104720001EF400940E94A52357FD07D00E94AD23DC
:1047300007FC03D04EF40C94A5235095409530957A
:1047400021953F4F4F4F5F4F0895909580957095FD
:1047500061957F4F8F4F9F4F0895A1E21A2EAA1B9C
:10476000BB1BFD010DC0AA1FBB1FEE1FFF1FA21721
:10477000B307E407F50720F0A21BB30BE40BF50B1E
:10478000661F771F881F991F1A9469F760957095A7
:10479000809590959B01AC01BD01CF010895FB016F
:1047A000DC0102C001900D9241505040D8F70895AD
:1047B000DC0101C06D9341505040E0F70895FB01CA
:1047C000DC014150504048F001900D920020C9F7A3
:1047D00001C01D9241505040E0F70895BB274A3078
:1047E00031F4992322F4BDE2909581959F4F0C946A
:1047F00032242532310520F4223010F00C940424A8
:10480000FA011082CA010895BB27FA01A62F621788
:10481000710581059105330B30FB66F0AA27660F01
:10482000771F881F991FAA1FA21710F0A21B63955C
:104830003850A9F7A05DAA3308F0A95DA19336F717
:10484000B111B1931082CA010C944B244532510529
:1048500020F4423010F00C943124FB011082CB0183
:104860000895BB27FB015527AA27880F991FAA1F68
:10487000A41710F0A41B83955051B9F7A05DAA337B
:1048800008F0A95DA193009779F7B111B193119246
:10489000CB010C944B24DC01FC01672F7191772331
:1048A000E1F7329704C07C916D9370836291AE17EB
:1048B000BF07C8F308955058BB27AA270E94732446
:1048C0000C94ED250E94DF2538F00E94E62520F0AB
:1048D00039F49F3F19F426F40C94DC250EF4E0958E
:1048E000E7FB0C94D625E92F0E94FE2558F3BA1752
:1048F000620773078407950720F079F4A6F50C94F6
:1049000020260EF4E0950B2EBA2FA02D0B01B90135
:1049100090010C01CA01A0011124FF27591B99F035
:10492000593F50F4503E68F11A16F040A22F232F41
:10493000342F4427585FF3CF469537952795A79591
:10494000F0405395C9F77EF41F16BA0B620B730B38
:10495000840BBAF09150A1F0FF0FBB1F661F771FA9
:10496000881FC2F70EC0BA0F621F731F841F48F45E
:10497000879577956795B795F7959E3F08F0B0CFE7
:104980009395880F08F09927EE0F979587950895CE
:104990000E94B22508F481E008950E94E1240C945D
:1049A000ED250E94E62558F00E94DF2540F029F40D
:1049B0005F3F29F00C94D62551110C9421260C94BC
:1049C000DC250E94FE2568F39923B1F3552391F36A
:1049D000951B550BBB27AA2762177307840738F06E
:1049E0009F5F5F4F220F331F441FAA1FA9F335D0CB
:1049F0000E2E3AF0E0E832D091505040E695001C7F
:104A0000CAF72BD0FE2F29D0660F771F881FBB1F38
:104A1000261737074807AB07B0E809F0BB0B802D16
:104A2000BF01FF2793585F4F3AF09E3F510578F042
:104A30000C94D6250C9421265F3FE4F3983ED4F3E2
:104A4000869577956795B795F7959F5FC9F7880F16
:104A5000911D9695879597F90895E1E0660F771F68
:104A6000881FBB1F621773078407BA0720F0621BF9
:104A7000730B840BBA0BEE1F88F7E09508950E9424
:104A800046256894B1110C94212608950E940626AB
:104A900088F09F5798F0B92F9927B751B0F0E1F0FF
:104AA000660F771F881F991F1AF0BA95C9F714C0AF
:104AB000B13091F00E942026B1E008950C94202698
:104AC000672F782F8827B85F39F0B93FCCF38695E8
:104AD00077956795B395D9F73EF490958095709545
:104AE00061957F4F8F4F9F4F0895E89409C097FBC2
:104AF0003EF490958095709561957F4F8F4F9F4FB5
:104B00009923A9F0F92F96E9BB279395F6958795F8
:104B100077956795B795F111F8CFFAF4BB0F11F4BB
:104B200060FF1BC06F5F7F4F8F4F9F4F16C0882362
:104B300011F096E911C0772321F09EE8872F762F98
:104B400005C0662371F096E8862F70E060E02AF0D9
:104B50009A95660F771F881FDAF7880F96958795C5
:104B600097F90895990F0008550FAA0BE0E8FEEF9A
:104B700016161706E807F907C0F012161306E40721
:104B8000F50798F0621B730B840B950B39F40A261A
:104B900061F0232B242B252B21F408950A2609F4F8
:104BA000A140A6958FEF811D811D089597F99F67FC
:104BB00080E870E060E008959FEF80EC08950024A5
:104BC0000A941616170618060906089500240A9472
:104BD00012161306140605060895092E0394000CF8
:104BE00011F4882352F0BB0F40F4BF2B11F460FF87
:104BF00004C06F5F7F4F8F4F9F4F089557FD9058B0
:104C0000440F551F59F05F3F71F04795880F97FB90
:104C1000991F61F09F3F79F087950895121613064A
:104C20001406551FF2CF4695F1DF08C01616170679
:104C30001806991FF1CF86957105610508940895AE
:104C4000E894BB2766277727CB0197F908950E9440
:104C5000B22508F48FEF08950E943F260C94ED25AD
:104C60000E94DF2538F00E94E62520F0952311F000
:104C70000C94D6250C94DC2511240C9421260E943A
:104C8000FE2570F3959FC1F3950F50E0551F629F6D
:104C9000F001729FBB27F00DB11D639FAA27F00D95
:104CA000B11DAA1F649F6627B00DA11D661F829FBC
:104CB0002227B00DA11D621F739FB00DA11D621FA1
:104CC000839FA00D611D221F749F3327A00D611DBE
:104CD000231F849F600D211D822F762F6A2F1124A0
:104CE0009F5750409AF0F1F088234AF0EE0FFF1FD3
:104CF000BB1F661F771F881F91505040A9F79E3F2A
:104D0000510580F00C94D6250C9421265F3FE4F3E6
:104D1000983ED4F3869577956795B795F795E7957F
:104D20009F5FC1F7FE2B880F911D9695879597F988
:104D30000895DB018F939F930E94C126BF91AF918D
:104D4000A29F800D911DA39F900DB29F900D1124E5
:104D50000895EE0FFF1F881F8BBF0790F691E02D7F
:104D60001BBE1994A29FB001B39FC001A39F700DF9
:104D7000811D1124911DB29F700D811D1124911D63
:104D800008950E94B226A59F900DB49F900DA49FF8
:0C4D9000800D911D11240895F894FFCFB0
:104D9C00FF0FFFFFFFFF00000000BE13280FEF0EF8
:104DAC00020FB813E60E00000000CE04331500000D
:104DBC000000F70B3315000000004A0D33150000FE
:104DCC0000005F083315000000000D0E33150000C5
:104DDC0000006E0E331500000000BE13C013B91393
:104DEC00BB13B813B71300000000BE13EA13DF1394
:104DFC00C113B813B71300000000C01333152C00F7
:104E0C004C494D4954205357495443482048495420
:104E1C00204552524F52004F75747369646520419E
:104E2C006E676C65205265636F76657279004672A9
:104E3C00656552544F5320586D65676120546573F6
:104E4C0074696E672050726F6772616D005573657F
:104E5C0072496E7400456E6350656E00456E634D0D
:104E6C007472005379734374726C004D7472436D99
:104E7C0064004C65667453770052696768745377A5
:064E8C000049444C450002
:00000001FF
