S01600004652454552544F535F5348454C4C2E73726563CD
S11300000C94A9020C94DF020C94DF020C94DF021E
S11300100C94DF020C94DF020C94DF020C94DF02D8
S11300200C94DF020C94DF020C94DF020C94DF02C8
S11300300C94DF020C94DF020C94DF020C94DF02B8
S11300400C94DF020C94DF020C94DF020C94DF02A8
S11300500C94DF020C94DF020C94DF020C94DF0298
S11300600C94DF020C94C8190C94DF020C94DF0288
S11300700C94261A0C94DF020C94DF020C94DF0219
S11300800C94DF020C94DF020C94DF020C94DF0268
S11300900C94DF020C94DF020C94DF020C94DF0258
S11300A00C94DF020C94DF020C94DF020C94DF0248
S11300B00C94DF020C94DF020C94DF020C94DF0238
S11300C00C94DF020C94E2090C94DF020C94DF021E
S11300D00C94DF020C94DF020C94DF020C94DF0218
S11300E00C94DF020C94DF020C94401B0C94DF028E
S11300F00C94DF020C94DF020C94DF020C94DF02F8
S11301000C94DF020C94DF020C94DF020C94DF02E7
S11301100C94DF020C94DF020C94DF020C94DF02D7
S11301200C94DF020C94DF020C94DF020C94DF02C7
S11301300C94DF020C94DF020C94DF020C94DF02B7
S11301400C94DF020C94DF020C94DF020C94DF02A7
S11301500C94DF020C94DF020C94DF020C94DF0297
S11301600C94841A0C94DF020C94DF020C94E21AAF
S11301700C94DF020C94DF020C94DF020C94DF0277
S11301800C94DF020C94DF020C94DF020C94DF0267
S11301900C94DF020C94DF020C94DF020C94DF0257
S11301A00C94DF020C94DF020C94DF020C94DF0247
S11301B00C94DF020C94DF020C94DF020C94DF0237
S11301C00C94DF020C94DF020C94DF020C94DF0227
S11301D00C94DF020C94DF020C94DF020C94DF0217
S11301E00C94DF020C94DF020C94DF020C94DF0207
S11301F00C94DF020C94DF020C94DF02B417B717DF
S1130200BA17BD17C017C317C517D617DE17E817D7
S1130210E6170C94C0170C94D7030C9429040C947F
S113022095130C9459170C945E170C942C190C9478
S1130230C0160C9457170C94D6170C94E8170C940A
S1130240FD140C945C170C94BA170C94DE170C94E0
S11302505F170C94B7170C94C3170C94581C0C9488
S113026006190C943F190C94A6020C9408150C94CE
S1130270660C0C94E6170C94E1020C9433030C9472
S113028085030C94BE050C94BD170C94E2180C94D1
S1130290C5170C94DF140C94B4172C20544343302A
S11302A04343413D002F002C204865617020667255
S11302B065653A200054696D653A20004665622000
S11302C032322032303235004D45343035206261CF
S11302D0736520726164696F2070726F6772616DFB
S11302E02056302E34200020202020683A20202060
S11302F048414C50210020202020653A20202045F0
S113030078697420636F6D6D616E64206D6F6465D0
S11303100020202020733A202020537461636B2036
S113032064756D7020666F72207461736B73002046
S1130330202020763A20202056657273696F6E2043
S1130340616E6420736574757020696E666F726D7A
S11303506174696F6E00202020206E3A20202053A3
S1130360686F77207468652074696D6520726967A9
S11303706874206E6F77002020496E20636F6D6D66
S1130380616E64206D6F6465206F6E6C793A002035
S11303902043746C2D413A20456E74657220636F5E
S11303A06D6D616E64206D6F646500202043746C14
S11303B02D433A2052657365742074686520415654
S11303C052002068656C70004D4534303520626100
S11303D0736520726164696F2070726F6772616DFA
S11303E02056302E3420001B5B33306D001B5B34F1
S11303F0366D00496C6C6567616C2073746174655B
S11304002120526573657474696E672041565200E9
S11304103A5754463F004578697420636F6D6D61A7
S11304206E64206D6F646500526573657474696EE3
S11304306720415652005072657373204374726C86
S11304402D4120666F7220636F6D6D616E64206D47
S11304506F646500526573657474696E6700455214
S1130460524F5220696E207461736B2000455252C2
S11304704F52206372656174696E67207461736B97
S113048020002C20737461636B2061742030780029
S11304902063726561746564005461736B20001B92
S11304A05B32326D005461736B3A20001B5B316D1B
S11304B0001B5B32326D005461736B3A2049444C2B
S11304C045001B5B316D000909002F0049444C4570
S11304D0090930092D0900092D2D2D2D00092D2D77
S11304E02D2D2D2D2D2D2D2D002D2D2D2D09092DAD
S11304F02D2D2D092D2D2D2D2D000952756E7300D6
S113050009467265652F546F74616C004E616D65A8
S113051009095072692E0953746174650009537492
S113052061636B005461736B090920200920000981
S11305300009002F00090009001B5B32326D001B0B
S11305405B316D001B5B316D002020000E942D1279
S1130550581C11241FBECFEFCDBFDFE3DEBF00E088
S11305600CBF18BE19BE1ABE1BBE10E2A0E0B0E25A
S1130570E0ECFAE300E00BBF02C007900D92A83E46
S1130580B107D9F71BBE21E3A8EEB0E201C01D926A
S1130590A438B207E1F712E0C9EAD2E000E006C0ED
S11305A021970109802FFE010E94BA1CC83AD10785
S11305B080E00807A9F70E94B31B0C945E1D0C94FD
S11305C00000CF93DF9300D01F92CDB7DEB78C012C
S11305D00E94050E69837A838B839C830F2EF4E635
S11305E0CF2ED12CE12CF12CF02DF80166857785E6
S11305F080899189A70196010E94791C672B682B39
S1130600692B61F4F801A680B78066E070E2C50149
S11306100E946E1766E0C5010E94A517F801868541
S11306209785A089B1890196A11DB11D86879787F9
S1130630A08BB18B41E050E060E070E0CE01019608
S11306400E94A30FD2CF0F931F93CF93DF93EC019C
S11306500E94401282E290E288839983DF91CF91D5
S11306601F910F910895CF93DF9300D01F92CDB7C0
S1130670DEB78C010E94050E69837A838B839C8389
S11306800F2EF4E6CF2ED12CE12CF12CF02DF80115
S11306906685778580899189A70196010E94791CD6
S11306A0672B682B692B61F4F801A680B78066E09C
S11306B070E2C5010E946E1766E0C5010E94A5178D
S11306C0F80186859785A089B1890196A11DB11D80
S11306D086879787A08BB18B41E050E060E070E0A3
S11306E0CE0101960E94A30FD2CF0F931F93CF93F5
S11306F0DF93EC010E9440128AE290E2888399839E
S1130700DF91CF911F910F910895CF93DF9300D084
S11307101F92CDB7DEB78C010E94050E69837A83E0
S11307208B839C830F2EF4E6CF2ED12CE12CF12C5D
S1130730F02DF8016685778580899189A701960156
S11307400E94791C672B682B692B61F4F801A68041
S1130750B78066E070E2C5010E946E1766E0C501CD
S11307600E94A517F80186859785A089B18901960D
S1130770A11DB11D86879787A08BB18B41E050E006
S113078060E070E0CE0101960E94A30FD2CF0F93D8
S11307901F93CF93DF93EC010E94401282E390E217
S11307A088839983DF91CF911F910F910895CF93FF
S11307B0DF9300D01F92CDB7DEB78C010E94050EE7
S11307C069837A838B839C830F2EF4E6CF2ED12CFE
S11307D0E12CF12CF02DF8016685778580899189CB
S11307E0A70196010E94791C672B682B692B61F481
S11307F0F801A680B78066E070E2C5010E946E171A
S113080066E0C5010E94A517F80186859785A08931
S1130810B1890196A11DB11D86879787A08BB18BE5
S113082041E050E060E070E0CE0101960E94A30F29
S1130830D2CF0F931F93CF93DF93EC010E9440120A
S11308408AE390E288839983DF91CF911F910F917E
S11308500895CF93DF9300D01F92CDB7DEB78C01FC
S11308600E94050E69837A838B839C830F2EF4E6A2
S1130870CF2ED12CE12CF12CF02DF8016685778553
S113088080899189A70196010E94791C672B682BA6
S1130890692B61F4F801A680B78066E070E2C501B7
S11308A00E946E1766E0C5010E94A517F8018685AF
S11308B09785A089B1890196A11DB11D8687978767
S11308C0A08BB18B41E050E060E070E0CE01019676
S11308D00E94A30FD2CF0F931F93CF93DF93EC010A
S11308E00E94401282E490E288839983DF91CF9141
S11308F01F910F9108950F931F93CF93DF93EC01F2
S11309000E9440128AE490E288839983DF91CF9118
S11309101F910F9108950F931F93CF93DF93EC01D1
S11309206AE08E819F810E94A5178C016DEE73E0B1
S11309300E946E176AE0C8010E94A5178C0167EE39
S113094073E00E946E1767E0C8010E94A5176AE071
S11309508E819F810E94A5178C0168EC73E00E9430
S11309606E176AE0C8010E94A5178C0162EC73E05F
S11309700E946E1766E0C8010E94A5176AE08E8186
S11309809F810E94A5178C016BEA73E00E946E1789
S113099066E0C8010E94A5176AE08E819F810E94CB
S11309A0A5178C016FE873E00E946E1766E0C8011A
S11309B00E94A5176AE08E819F810E94A5178C0171
S11309C067E773E00E946E1766E0C8010E94A517EE
S11309D06AE08E819F810E94A5178C0166E573E011
S11309E00E946E1766E0C8010E94A5176AE08E8116
S11309F09F810E94A5178C016FE273E00E946E171D
S1130A0066E0C8010E94A5176AE08E819F810E945A
S1130A10A5178C0161E173E00E946E1766E0C801BE
S1130A200E94A5176AE08E819F810E94A5178C0100
S1130A3066EF72E00E946E1766E0C8010E94A51777
S1130A406AE08E819F810E94A517EC0167EE72E037
S1130A500E946E1766E0CE010E94A517DF91CF9128
S1130A601F910F910895AF92BF92CF92DF92EF92B0
S1130A70FF920F931F93CF93DF9300D000D0CDB795
S1130A80DEB78C0119821A821B821C821D821E828F
S1130A900E94B8076C01CE0101960E94F1155C0119
S1130AA066E0F801868197810E94A5176AE00E949A
S1130AB0A5177C0168EC72E00E946E176AE0C7011A
S1130AC00E94A5177C016CEB72E00E946E1766E031
S1130AD0C7010E94A5176AE00E94A5177C0165EB77
S1130AE072E00E946E17B501C7010E9495156AE075
S1130AF00E94A5177C0167EA72E00E946E17B60196
S1130B00C7010E94EC176AE00E94A5177C0165EA00
S1130B1072E00E946E174FEF5FE060E070E0C70183
S1130B200E942018C0902808D09029086AE0F80193
S1130B30868197810E94A5177C016AE972E00E9470
S1130B406E17B601C7010E94EC1766E00E94A51754
S1130B5066E00E94A517F801868197810E944E14D1
S1130B602696CDBFDEBFDF91CF911F910F91FF90ED
S1130B70EF90DF90CF90BF90AF900895CF93DF9325
S1130B8000D000D0CDB7DEB78C0119821A821B8247
S1130B901C821D821E826AE0DC0116968D919C9156
S1130BA017970E94A5177C0166E374E00E946E17F4
S1130BB066E0C7010E94A517F8018485882321F007
S1130BC0813009F45DC0D8C086819781DC01ED9144
S1130BD0FC910480F581E02D19958823A9F1F80191
S1130BE086819781DC01ED91FC910680F781E02DEF
S1130BF01995992781309105F9F0039709F0D8C028
S1130C006AE0F801868197810E94A5178C0168E249
S1130C1074E00E946E1766E0C8010E94A51793E075
S1130C2088ED08B618BE84BF90938000809182003E
S1130C3081FDFCCF08BEFFCFC8010E948B0461E098
S1130C40C8010E943C12B4C082E791E30E94FD14E3
S1130C50882309F4ADC0D8011696ED91FC9117973D
S1130C600190F081E02DE280F38082E791E30E941D
S1130C70DF14682FF80186819781F701199598C0D0
S1130C8086819781DC01ED91FC910480F581E02D52
S1130C901995882309F48CC0F80186819781DC01B9
S1130CA0ED91FC910680F781E02D19959C01332785
S1130CB02836310559F13CF42B31310559F12536EB
S1130CC0310541F13BC023373105C1F026373105E9
S1130CD089F02E36310591F5CE0101960E94F11569
S1130CE0BC01F801868197810E94951566E00E94F7
S1130CF0A5175EC0C8010E9433055AC0D8011696D4
S1130D008D919C9117970E94551352C0C8010E945F
S1130D108B044EC06AE0F801868197810E94A51772
S1130D207C0166E174E00E946E1766E0C7010E94D0
S1130D30A51760E0C8010E943C123AC0F801A681E0
S1130D40B781ED91FC9111970280F381E02D682F1A
S1130D50CD0119956AE0D80116968D919C9117974B
S1130D600E94A5177C0160E174E00E946E1766E0A2
S1130D70C7010E94A5171CC06AE0F801868197810B
S1130D800E94A5178C0163EF73E00E946E1766E062
S1130D90C8010E94A51793E088ED08B618BE84BF69
S1130DA0909380008091820081FDFCCF08BEFFCF2C
S1130DB0F80186859785A089B1890196A11DB11D89
S1130DC086879787A08BB18B61E070E080E090E02C
S1130DD00E941010F1CE0F931F93CF93DF93EC0179
S1130DE00E94FF0D8091E82081111DC0ADEEB0E29C
S1130DF0E1EFF0E2ED93FC93119712961D921C9291
S1130E001397A9EEB0E28FEF9FE012968D939C9317
S1130E1013971D921C92119782839383A083B183AD
S1130E2081E08093E820209709F45FC09E012B5F46
S1130E303F4F2496CE3FDF4008F05AC0E091ED20AA
S1130E40F091EE20ADEEB0E202C0DF01FC01828140
S1130E5093818217930720F4808191810097A9F7E9
S1130E60C0E2E93EFC0709F446C0CD91DC9111973C
S1130E708E010B5F1F4F808191818D939C938281A2
S1130E809381821B930B8B30910510F1BF01620F8C
S1130E90731FDB0112968D939C93139722833383E4
S1130EA012964D915C9113978DEE90E201C0CD01A5
S1130EB0EC01A881B98112962D913C9113972417C6
S1130EC03507A8F3EB01A883B983DC016D937C9308
S1130ED0809100209091012022813381821B930B09
S1130EE0809300209093012008C000E010E005C02A
S1130EF000E010E002C000E010E00E94210FC801F1
S1130F00DF91CF911F910F9108950F931F93CF936A
S1130F10DF93009741F1EC018C01055011090E9407
S1130F20FF0DF80142815381ADEEB0E201C0DF0153
S1130F30ED91FC9111972281338124173507B8F381
S1130F402597E883F9830D931C9320910020309119
S1130F5001208A819B81820F931F809300209093AC
S1130F6001200E94210FDF91CF911F910F910895CD
S1130F7080910020909101200895FC0103968183C3
S1130F8092834FEF5FEFBA01438354836583768383
S1130F90878390878187928710820895FC01128647
S1130FA013860895CF93DF93FC01DB012181328105
S1130FB0E9018C819D8114968D939C931597818171
S1130FC0928116968D939C9317978C819D81EC0149
S1130FD06E837F83E9016C837D83618372831A96B8
S1130FE0ED93FC931B9780818F5F8083DF91CF917A
S1130FF008950F931F93CF93DF93EB010881198119
S11310002A813B810F3F4FEF14072407340731F443
S1131010DC011996ED91FC911A971FC0FC013396DF
S1131020DC0117964D915C911897DA014D915D9111
S11310306D917C91041715072607370770F004801B
S1131040F581E02DA481B5814D915D916D917C91E7
S1131050041715072607370790F7A481B581AC83D9
S1131060BD831696CD93DC931797EE83FF83C483D9
S1131070D5838A879B87FC0120812F5F2083DF91A2
S1131080CF911F910F910895FC01A481B5818681B0
S1131090978116968D939C931797A681B781848127
S11310A0958114968D939C931597A285B38511967B
S11310B08D919C911297E817F90731F486819781F5
S11310C011968D939C931297128613868C9181505E
S11310D08C930895809382319093833131E1FC01A4
S11310E03083319722E220833197A3E3A0833197A1
S11310F060833197708331971082319710823197D2
S113110060E86083319710823197108231971082A2
S1131110319762E06083319763E06083319764E0E4
S11311206083319765E06083319766E0608331972F
S113113067E06083319768E06083319769E060839A
S1131140319760E1608331973083319732E13083A6
S1131150319733E13083319734E13083319735E18E
S11311603083319736E13083319737E130833197DB
S113117038E13083319739E13083319730E230837D
S1131180319731E2308331972083319723E22083F2
S11311903197408331975083319726E220833197EA
S11311A027E22083319728E22083319729E22083A4
S11311B0319720E32083319721E320838997089591
S11311C08CE78093290A8FEF8093280A81E080932B
S11311D0000A91E19093010A8093070AA09150318B
S11311E0B0915131CD91CDBFDD91DEBFFF91EF9133
S11311F0DF91CF91BF91AF919F918F917F916F912B
S11312005F914F913F912F911F910F91FF90EF901C
S1131210DF90CF90BF90AF909F908F907F906F9012
S11312205F904F903F902F901F900F900CBE0F90A7
S11312300BBE0F900FBE0F90089508950F920FB636
S1131240F8940F920BB60F920CB60F921F921124C2
S11312502F923F924F925F926F927F928F929F92C2
S1131260AF92BF92CF92DF92EF92FF920F931F93B0
S11312702F933F934F935F936F937F938F939F939A
S1131280AF93BF93CF93DF93EF93FF93A09150312C
S1131290B09151310DB60D920EB60D920E943E10D2
S11312A0A0915031B0915131CD91CDBFDD91DEBFD0
S11312B0FF91EF91DF91CF91BF91AF919F918F916A
S11312C07F916F915F914F913F912F911F910F915A
S11312D0FF90EF90DF90CF90BF90AF909F908F9052
S11312E07F906F905F904F903F902F901F900F9042
S11312F00CBE0F900BBE0F900FBE0F9008950F926F
S11313000FB6F8940F920BB60F920CB60F921F9271
S113131011242F923F924F925F926F927F928F92FD
S11313209F92AF92BF92CF92DF92EF92FF920F9370
S11313301F932F933F934F935F936F937F938F9359
S11313409F93AF93BF93CF93DF93EF93FF93A091BA
S11313505031B09151310DB60D920EB60D920E94DE
S1131360200E0E943E10A0915031B0915131CD9188
S1131370CDBFDD91DEBFFF91EF91DF91CF91BF91A2
S1131380AF919F918F917F916F915F914F913F9119
S11313902F911F910F91FF90EF90DF90CF90BF900E
S11313A0AF909F908F907F906F905F904F903F9001
S11313B02F901F900F900CBE0F900BBE0F900FBE7E
S11313C00F9008950E947F091895CF93DF93EC0145
S11313D088A181110BC088819981892BE1F58A81CB
S11313E09B810E94F9111A821B8235C0411117C0DA
S11313F0482F50E08C819D810E94DD1C28A18C81A6
S11314009D81820F911D8C839D832A813B8182174C
S1131410930708F1888199818C839D831CC0482F90
S113142050E08E819F810E94DD1C88A190E09195FF
S1131430819591092E813F81280F391F2E833F8387
S1131440488159812417350730F42A813B81820F62
S1131450931F8E839F838E8D8F5F8E8FDF91CF91AD
S11314600895FC01808191810097A1F040A150E092
S113147026813781240F351F26833783A281B381C8
S11314802A173B0710F086839783CB016681778107
S11314900E94DD1C08950F931F93CF93DF93EC01FB
S11314A00FB6F8940F928AA11816B4F48B8981119F
S11314B005C012C08B89811104C00EC08E010D5E5F
S11314C01F4FC8010E94C51081110E9482118AA178
S11314D081508AA3181674F38FEF8AA30F900FBE5E
S11314E00FB6F8940F9289A11816B4F48885811167
S11314F005C012C08885811104C00EC08E01085F2A
S11315001F4FC8010E94C51081110E94821189A138
S1131510815089A3181674F38FEF89A30F900FBE1F
S1131520DF91CF911F910F9108951F93CF93DF9374
S1131530613059F0FC012389308531112CC011E050
S1131540211110E0211128C001C011E0EC014881F3
S1131550598128A130E06F8D629FC001639F900D77
S11315601124BA01680F791F6A837B831E8E4C8312
S11315705D83821B930B840F951F8E839F838FEF54
S113158089A38AA3CE0108960E94BD07CE01439683
S11315900E94BD0701C010E0812FDF91CF911F9100
S11315A008950F931F93CF93DF93882301F1062FA0
S11315B0182F83E290E00E94EB06EC01892BC9F01E
S11315C0109FC001112401960E94EB068883998321
S11315D0892B39F01F8F08A361E0CE010E94950A80
S11315E008C0CE010E948507C0E0D0E002C0C0E080
S11315F0D0E0CE01DF91CF911F910F910895AF926A
S1131600BF92CF92DF92EF92FF920F931F93CF93EB
S1131610DF93CDB7DEB72997CDBFDEBF7C015B0179
S11316202E833F834887598710E06C0188E0C80EF9
S1131630D11C0FB6F8940F92F701968D878D9817E9
S1131640A8F4402FB501C7010E94E509F701838979
S1131650882341F0C70143960E94C510813011F4DC
S11316600E941E090F900FBE81E056C08E819F819B
S1131670A885B985892B8A2B8B2B21F40F900FBE5B
S113168080E04AC0111105C0CE0101960E940411E8
S113169011E00F900FBE0E94FF0D0FB6F8940F9249
S11316A0F70181A18F3F09F411A2F70182A18F3FB5
S11316B009F412A20F900FBEBE016A5F7F4FCE01E4
S11316C001960E941511811121C00FB6F8940F9252
S11316D0F701968D0F900FBE878D981311C04E8120
S11316E05F8168857985C6010E949B10C7010E94AD
S11316F04B0A0E94210F81119CCF0E941E0999CF91
S1131700C7010E944B0A0E94210F93CFC7010E9478
S11317104B0A0E94210F80E02996CDBFDEBFDF91E6
S1131720CF911F910F91FF90EF90DF90CF90BF90DA
S1131730AF900895AF92BF92CF92DF92EF92FF9253
S11317400F931F93CF93DF93CDB7DEB72997CDBF08
S1131750DEBF7C015B012E833F834887598710E0FD
S11317606C0183E1C80ED11C0FB6F8940F92F701F7
S1131770868D882399F1C680D780B501C7010E9460
S1131780310A01111AC0F701868D8150868F80813C
S11317909181892B29F40E949F11F70182839383FD
S11317A0F70180858823B1F0C70108960E94C5100F
S11317B0813081F40E941E090DC0F701C682D782D0
S11317C08389882339F0C70143960E94C51081118B
S11317D00E941E090F900FBE81E062C08E819F811E
S11317E0A885B985892B8A2B8B2B21F40F900FBEEA
S11317F080E056C0111105C0CE0101960E9404116B
S113180011E00F900FBE0E94FF0D0FB6F8940F92D7
S1131810F70181A18F3F09F411A2F70182A18F3F43
S113182009F412A20F900FBEBE016A5F7F4FCE0172
S113183001960E94151181112DC00FB6F8940F92D4
S1131840F701868D0F900FBE81111EC0808191819A
S1131850892B49F40FB6F8940F92828193810E94E8
S1131860A4110F900FBE4E815F8168857985C601F2
S11318700E949B10C7010E944B0A0E94210F8111F4
S113188073CF0E941E0970CFC7010E944B0A0E94A9
S1131890210F6ACFC7010E944B0A0E94210F80E0EA
S11318A02996CDBFDEBFDF91CF911F910F91FF909D
S11318B0EF90DF90CF90BF90AF9008950FB6F8945B
S11318C00F92FC01868D0F900FBE0895C4E2D1E300
S11318D088818230E8F30E941E09FACFCF92DF920A
S11318E0EF92FF926B017C01E0915031F091513104
S11318F062837383848395838091F8309091F93067
S1131900A091FA30B091FB30C816D906EA06FB065E
S113191068F4609150317091513180910A31909105
S11319200B316E5F7F4F0E94F90721C060915031E7
S11319307091513180910C3190910D316E5F7F4FD8
S11319400E94F9078091022090910320A091042025
S1131950B0910520C816D906EA06FB0640F4C092E9
S11319600220D0920320E0920420F0920520FF9000
S1131970EF90DF90CF9008954F925F926F927F9295
S11319808F929F92AF92BF92CF92DF92EF92FF928B
S11319900F931F93CF93DF935C014B013A0129010D
S11319A088E290E00E94EB06EC01892B09F4D4C094
S11319B0C114D10409F0CCC0C3010E94EB068B8F83
S11319C09C8F009721F4CE010E948507C5C0A30116
S11319D061E170E00E94E61C9301215031098B8D76
S11319E09C8D3C01620E731E4AE050E0B401CE01AE
S11319F04D960E94ED1C1EA2102F043008F013E037
S1131A001A8F1FA36E0122E0C20ED11CC6010E94D0
S1131A10CE07CE010E960E94CE07CA87DB8784E0EC
S1131A2090E0A0E0B0E0811B9109A109B1098E8783
S1131A309F87A88BB98BCE8BDF8BA201B501C30125
S1131A400E946A0888839983E114F10419F0F7016C
S1131A50C083D1830FB6F8940F928091FC308F5FCE
S1131A608093FC308091503190915131892B89F5CC
S1131A70C0935031D09351318091FC308130C1F505
S1131A8084E291E30E94BD078FE291E30E94BD07C7
S1131A908AE391E30E94BD0785E491E30E94BD07B8
S1131AA089E191E30E94BD078EE091E30E94BD07A6
S1131AB08FEF90E30E94BD0789E191E380930C319D
S1131AC090930D318EE091E380930A3190930B3122
S1131AD00FC08091F53081110BC0E0915031F0912D
S1131AE05131828D081720F0C0935031D093513179
S1131AF08A8D9091F730981710F48093F730909175
S1131B00F0309F5F9093F0309091F630981710F476
S1131B108093F630FBE08F9FC0011124B6018C5DE9
S1131B209E4C0E94D2070F900FBE8091F5308823FF
S1131B3059F0E0915031F0915131828D801730F499
S1131B400E941E0981E009C081E007C081E005C050
S1131B50CB8EDC8EC6013BCF8FEFDF91CF911F91EF
S1131B600F91FF90EF90DF90CF90BF90AF909F9038
S1131B708F907F906F905F904F9008950FB6F89478
S1131B800F92009721F480915031909151310F9030
S1131B900FBEFC01828D0895AF92BF92CF92DF9267
S1131BA0EF92FF920F93A12CB12CC12CD12C0F2EAC
S1131BB0FDEFEF2EF0E3FF2EF02D00E020E030E00B
S1131BC044E650E06EE470E286E69CE00E94BC0CC1
S1131BD0813069F4F8948093F5301092F8301092C3
S1131BE0F9301092FA301092FB300E94E0080F9105
S1131BF0FF90EF90DF90CF90BF90AF9008958091C9
S1131C00F4308F5F8093F43008950FB6F8940F92F8
S1131C106091F8307091F9308091FA309091FB30F6
S1131C200F900FBE0895009721F480915031909148
S1131C3051314D9608958091FD309091FE30089574
S1131C40FF920F931F93CF93DF938091F430811110
S1131C50EDC08091F8309091F930A091FA30B091B4
S1131C60FB300196A11DB11D8093F8309093F9309B
S1131C70A093FA30B093FB308091F8309091F93012
S1131C80A091FA30B091FB30892B8A2B8B2BF1F584
S1131C9080910C3190910D3120910A3130910B31AA
S1131CA020930C3130930D3180930A3190930B3192
S1131CB08091F1308F5F8093F130E0910C31F0919D
S1131CC00D31808181110CC08FEF9FEFDC01809377
S1131CD0022090930320A0930420B093052016C003
S1131CE0E0910C31F0910D310780F085E02D0084F6
S1131CF0F185E02D82819381A481B58180930220B6
S1131D0090930320A0930420B09305204091F830D1
S1131D105091F9306091FA307091FB30809102203B
S1131D2090910320A0910420B091052048175907F1
S1131D306A077B0708F47FC0E0910C31F0910D3104
S1131D4080818823F9F0E0910C31F0910D31078006
S1131D50F085E02DC085D1858A819B81AC81BD81D0
S1131D604091F8305091F9306091FA307091FB3025
S1131D70481759076A077B0758F10F2EFBE0FF2E1F
S1131D80F02D2FC08FEF9FEFDC0180930220909302
S1131D900320A0930420B09305204DC0E0910C31A2
S1131DA0F0910D310780F085E02DC085D1858A81C1
S1131DB09B81AC81BD814091F8305091F9306091A4
S1131DC0FA307091FB30481759076A077B0748F4CB
S1131DD08093022090930320A0930420B0930520C5
S1131DE02AC08E010E5F1F4FC8010E944408888DCF
S1131DF0998D892B21F0CE010E960E9444088A8D7C
S1131E009091F630981710F48093F630F89EC00144
S1131E101124B8018C5D9E4C0E94D207E0910C31D4
S1131E20F0910D3180818111B9CFACCF8091F33025
S1131E308F5F8093F330DF91CF911F910F91FF90CB
S1131E400895CF92DF92EF92FF920F931F93CF9357
S1131E50DF930FB6F8940F928091F4308150809301
S1131E60F4308091F430811160C08091FC30811194
S1131E702CC05EC0D7011796ED91FC911897C085D0
S1131E80D185CE010E960E9444088E010E5F1F4F2D
S1131E90C8010E9444088A8D9091F630981710F476
S1131EA08093F630D89EC0011124B8018C5D9E4CFD
S1131EB00E94D207E0915031F09151319A8D828D78
S1131EC0981770F0CC24C3940BC0C12C0F2EFFEFD5
S1131ED0EF2EF0E3FF2EF02D0F2EFBE0DF2EF02D82
S1131EE0F70180818111C6CF8091F330882381F07E
S1131EF08091F330882399F00E94200E8091F33072
S1131F0081508093F3308091F3308111F5CF07C075
S1131F10F1E0CF1621F08091F230813041F410923B
S1131F20F2300E941E0981E003C080E001C080E01D
S1131F300F900FBEDF91CF911F910F91FF90EF9003
S1131F40DF90CF900895CF92DF92EF92FF92CF93DC
S1131F50DF93EC016A017B010E94FF0D8881998166
S1131F60AA81BB81C80ED91EEA1EFB1E4091F8301F
S1131F705091F9306091FA307091FB30481759074D
S1131F806A077B07B8F4C816D906EA06FB06E0F52B
S1131F908091F8309091F930A091FA30B091FB30F3
S1131FA0C882D982EA82FB828C159D05AE05BF05E5
S1131FB0F8F413C0C816D906EA06FB0600F18091AE
S1131FC0F8309091F930A091FA30B091FB308C1533
S1131FD09D05AE05BF0598F017C0809150319091D2
S1131FE0513102960E944408C701B6010E946E0C4A
S1131FF00E94210F81110DC00E941E090AC0C882CF
S1132000D982EA82FB82E9CFC882D982EA82FB8242
S1132010EFCFDF91CF91FF90EF90DF90CF900895B5
S1132020CF92DF92EF92FF926B017C01672B682BBA
S1132030692BE9F00E94FF0D8091F8309091F930FE
S1132040A091FA30B091FB30C80ED91EEA1EFB1ED7
S1132050809150319091513102960E944408C701F9
S1132060B6010E946E0C0E94210F811102C00E94D1
S11320701E09FF90EF90DF90CF9008958091F43087
S113208081110CC0E091F6304BE0E49FF001112483
S1132090EC5DFE4C8081882329F014C081E080939C
S11320A0F23008959BE08091F63081508093F630B1
S11320B0E091F6309E9FF0011124EC5DFE4C80818E
S11320C0882389F38091F630282F30E04BE0849FF9
S11320D0C0011124DC01AC5DBE4C1196ED91FC9164
S11320E012970480F581E02D1196ED93FC931297DD
S11320F0895D9E4CE817F90761F4848195814BE072
S1132100429FF001439FF00D1124EC5DFE4C81834E
S113211092838BE0829FF001839FF00D1124EC5D8C
S1132120FE4C0180F281E02D8085918580935031B1
S1132130909351310895CF92DF92EF92FF926A010A
S11321407B016091503170915131625F7F4F0E94E9
S1132150F907809150319091513102960E944408C0
S11321608091F8309091F930A091FA30B091FB3021
S1132170BC01CD016C0D7D1D8E1D9F1D0E946E0C3A
S1132180FF90EF90DF90CF9008950F931F93CF931C
S1132190DF93DC011796ED91FC911897C085D185EA
S11321A08E01025F1F4FC8010E9444088091F430E1
S11321B0811116C00C501109C8010E9444088A8D6F
S11321C09091F630981710F48093F630BBE08B9F13
S11321D0C0011124B8018C5D9E4C0E94D20705C039
S11321E0B8018FEF90E30E94D207E0915031F09153
S11321F0513181E02A8D928D291708F480E0DF9116
S1132200CF911F910F9108952091F130FC0120830B
S11322104091F8305091F9306091FA307091FB3070
S1132220418352836383748308958F929F92AF9204
S1132230BF92CF92DF92EF92FF920F931F93CF93AF
S1132240DF93FC010FB6F8940F928091F1309081E6
S1132250981789F08091F8309091F930A091FA3074
S1132260B091FB3001811281238134818017910761
S1132270A207B307A8F58091F8309091F930A091A6
S1132280FA30B091FB30C180D280E380F480EB015E
S1132290088119812A813B818C199D09AE09BF09E6
S11322A080179107A207B307E8F4CF018090F830B4
S11322B09090F930A090FA30B090FB30B501A401B1
S11322C04C195D096E097F09041B150B260B370B8E
S11322D0088319832A833B830E94041180E003C08E
S11322E081E001C081E00F900FBEDF91CF911F917B
S11322F00F91FF90EF90DF90CF90BF90AF909F90A1
S11323008F90089581E08093F2300895009721F42E
S11323108091503190915131DC015B96ED91FC91AB
S11323205C978081813141F4319680E090E00196A0
S113233021912131E1F3089580E090E008958091A6
S113234050319091513108950F931F93CF93DF93A0
S1132350FC01228DA0915031B09151315A968C914B
S1132360281708F041C0A0915031B09151315A96CC
S11323703C9184E090E0A0E0B0E0831B9109A109C6
S1132380B10986879787A08BB18B8BE0289F90013A
S113239011242C5D3E4C8485958582179307E9F4BE
S11323A08F01EF012296CE010E944408E091503142
S11323B0F0915131828DF801828F9091F630981707
S11323C010F48093F630FBE08F9FC0011124BE010E
S11323D08C5D9E4C0E94D20707C0A0915031B091F1
S11323E051315A968C91828FDF91CF911F910F9129
S11323F008950F931F93CF93DF93009749F1FC0146
S1132400328D27A1321721F1EC018C010E5F1F4F91
S1132410C8010E9444088FA18A8F44E050E060E024
S113242070E0481B5109610971094E875F87688B09
S1132430798B9091F630981710F48093F630FBE086
S11324408F9FC0011124B8018C5D9E4C0E94D2075D
S1132450DF91CF911F910F910895EC01E881F981EB
S11324600190F081E02D19951A821B826FEF7FEFA6
S1132470CB010E941010FACFFC0164876587089590
S11324804F925F926F927F928F929F92AF92BF9280
S1132490CF92DF92EF92FF920F931F93CF93DF932C
S11324A0CDB7DEB72A97CDBFDEBF4C012901380175
S11324B087E590E2F40180839183FB018081882386
S11324C069F0DE011196319690E002C0993039F03E
S11324D09F5F8D9381918111F9CF01C090E0E1E07C
S11324E0F0E0EC0FFD1FE90FF11D10827401F2E022
S11324F0EF0EF11CA12CB12CC12CD12C042F940172
S1132500A201BE016F5F7F4F86EA92E00E94BC0C7D
S1132510F40166827782408651862091523130914F
S113252053312483358380925231909253311486EF
S113253015864090823150908331FFEF4F1A5F0A25
S11325404092823150928331F4014286538616863A
S11325501786108A118A6114710409F444C0813009
S113256079F56AE0C3010E94A5177C0169E974E06A
S11325700E946E17BE016F5F7F4FC7010E946E17E6
S11325806AE0C7010E94A5177C0160E974E00E941B
S11325906E176AE0C7010E94A5177C0162E874E027
S11325A00E946E1763E0C7010E94A517B2010E9442
S11325B0EC1762E00E94A51766E00E94A51713C0FD
S11325C06AE0C3010E94A5174C016DE674E00E9405
S11325D06E17BE016F5F7F4FC4010E946E1766E0E5
S11325E0C4010E94A5172A96CDBFDEBFDF91CF910B
S11325F01F910F91FF90EF90DF90CF90BF90AF901D
S11326009F908F907F906F905F904F900895CF929E
S1132610DF92EF92FF920F931F93CF93DF93EC011E
S11326207B018A819B810E94130E6C016AE0C701C1
S11326300E94A5178C016CEA74E00E946E176AE090
S1132640C8010E94A5178C0165EA74E00E946E1708
S1132650B601C8010E946E176AE0C8010E94A5175E
S11326608C016FE974E00E946E1766E0C8010E9455
S1132670A5178A859B85E885F98501E121E0A701F5
S1132680BC018E1B9F0B0E9409168C819D810097B3
S113269019F0B7010E940713DF91CF911F910F9199
S11326A0FF90EF90DF90CF9008950F931F93CF93F7
S11326B0DF93EC018091523190915331009719F0DE
S11326C0BE010E9407136AE0CE010E94A5178C0187
S11326D062EC74E00E946E176AE0C8010E94A517BC
S11326E08C0167EB74E00E946E176AE0C8010E94D7
S11326F0A5178C0161EB74E00E946E1766E0C801B7
S11327000E94A5178091823190918331BC016F5F43
S11327107F4F01E121E0AE01835691090E94091621
S1132720DF91CF911F910F9108958F929F92AF9255
S1132730BF92CF92DF92EF92FF920F931F93CF93AA
S1132740DF93EC018B018A819B810E94130EBC01F3
S1132750C8010E946E17D801ED91FC910280F381AB
S1132760E02D69E0C80119958A819B810E94130EAE
S1132770FC0101900020E9F73197E81BF90B389729
S113278048F4D801ED91FC910280F381E02D69E0D9
S1132790C8011995CE84DF84E888F988A884B984AF
S11327A08A819B810E948611982E8C848A819B81C8
S11327B00E94BE0D682FC8010E9462186AE00E9440
S11327C0A517EC0167E375E00E946E17682DCE0132
S11327D00E9462186AE00E94A517EC0165E375E0A7
S11327E00E946E17692DCE010E9462186AE00E9451
S11327F0A517EC0163E375E00E946E17B501CE01E5
S11328000E94EC176AE00E94A517EC0161E375E0F1
S11328100E946E176AE0CE010E94A517EC016FE2D8
S113282075E00E946E17B701A601CE010E94201820
S1132830DF91CF911F910F91FF90EF90DF90CF9098
S1132840BF90AF909F908F900895CF93DF93EC014A
S1132850CB01DB01ED91FC910280F381E02DBE01FF
S11328601995CE01DF91CF9108950F931F93CF93C4
S1132870DF93EC018B01BC01C8010E94251466E0C2
S11328800E94A5178C819D81009719F0B8010E94C0
S11328903514DF91CF911F910F9108950F931F93DA
S11328A0CF93DF93EC016AE00E94A5178C0164E2E8
S11328B075E00E946E176AE0C8010E94A5178C019A
S11328C06DE175E00E946E1766E0C8010E94A517CD
S11328D06AE0CE010E94A5178C016CE075E00E94AD
S11328E06E176AE0C8010E94A5178C0160E075E0CC
S11328F00E946E176AE0C8010E94A5178C016AEF56
S113290074E00E946E1766E0C8010E94A5176AE091
S1132910CE010E94A5178C0169EE74E00E946E1727
S11329206AE0C8010E94A5178C016DED74E00E9455
S11329306E176AE0C8010E94A5178C0167ED74E068
S11329400E946E1766E0C8010E94A517809152315B
S113295090915331009719F0BE010E9435140E94E2
S11329601B0E0E948611182F6AE0CE010E94A51743
S1132970EC016CEC74E00E946E17612FCE010E9492
S113298062186AE00E94A517EC016AEC74E00E94E8
S11329906E1764E670E0CE010E94EC176AE00E94B4
S11329A0A517EC0167EC74E00E946E1766E0CE0197
S11329B00E94A517DF91CF911F910F9108950F9356
S11329C0CF93DF931F92CDB7DEB700E02FEF3FEF39
S11329D0A901BE016F5F7F4FFC01808591850E9434
S11329E09A0B813019F4898190E002C08FEF9FEF38
S11329F00F90DF91CF910F910895FC01808591850F
S1132A000E945E0C91E0811101C090E0892F08952D
S1132A100F93CF93DF931F92CDB7DEB76983FC0189
S1132A20228533854485558500E0BE016F5F7F4F65
S1132A30808591850E94FF0A91E0811101C090E098
S1132A40892F0F90DF91CF910F9108958F929F92CC
S1132A50BF92CF92DF92EF92FF920F931F93CF9387
S1132A60DF93EC01B62E4A01680179010E946017D8
S1132A708FE590E2888399838E869F8640E061E0AB
S1132A808B2D0E94D10A88879987CA86DB86EC86BB
S1132A90FD86DF91CF911F910F91FF90EF90DF9012
S1132AA0CF90BF909F908F900895CF92DF92EF9236
S1132AB0FF92CF93DF93EC01688179818A819B81B6
S1132AC00F2EF8EECF2EF3E0DF2EE12CF12CF02DBB
S1132AD0A70196010E94791C9B01AC0160E472E499
S1132AE08FE090E00E94691CA70196010E94791C66
S1132AF069017A01AC81BD8120E432E44FE050E009
S1132B000E94C31C20E038E448EE51E00E94791C86
S1132B10C701B601620F731F841F951FDF91CF9108
S1132B20FF90EF90DF90CF900895CF92DF92EF92D5
S1132B30FF920F931F93CF93DF93CDB7DEB72F97F9
S1132B40CDBFDEBF6C018B01DB016D917D918D9159
S1132B509C9128EE33E040E050E00E94791CBA01D9
S1132B60A901C6010E942018D601ED91FC910280B2
S1132B70F381E02D6EE2C6011995C8010E94551536
S1132B808E01095F1F4FFE0131967F012AE030E07C
S1132B9040E050E00E949B1CE62F288739874A8733
S1132BA05B87688579858A859B8520E32E0FD8010C
S1132BB02E938D01AE15BF0549F71F82BE016F5FCD
S1132BC07F4FC6010E946E17C6012F96CDBFDEBF90
S1132BD0DF91CF911F910F91FF90EF90DF90CF90F5
S1132BE00895CF93DF93EC010FB6F8940F92809180
S1132BF02008909121088C839D830E94050E688390
S1132C0079838A839B830F900FBECE01DF91CF918E
S1132C1008955F926F927F928F929F92AF92BF922C
S1132C20CF92DF92EF92FF920F931F93CF93DF9394
S1132C305C014B017A01122F702E63E0CA010E94DD
S1132C40A517A814B90408F07DC0650184E1C80E75
S1132C50D11C00E06A2C5B2CB501C7010E94EC1763
S1132C606AE00E94A51769E475E00E946E171123BB
S1132C7009F46DC0002309F46AC06AE0C7010E9428
S1132C80A51764E475E00E946E1761C0112371F00A
S1132C9001110CC08881871549F06AE0C7010E94C0
S1132CA0A5176FE375E00E946E1701E06991C701F3
S1132CB00E946218DC01ED91FC910280F381E02D09
S1132CC060E21995CC16DD0609F7112389F06AE054
S1132CD0C7010E94A517EC0169E375E00E946E1715
S1132CE0E881F9810280F381E02D60E2CE0119953B
S1132CF0C62DD52D699180EE860F8F3548F4D70106
S1132D00ED91FC910280F381E02DC701199509C072
S1132D10D701ED91FC910280F381E02D6EE2C701B1
S1132D201995CC16DD0631F7B4E1AB0EB11C66E0A3
S1132D30C7010E94A51784E1C80ED11CA814B904C8
S1132D4008F488CF62E0C7010E94A51703C0C62D0E
S1132D50D52D9CCFDF91CF911F910F91FF90EF90D4
S1132D60DF90CF90BF90AF909F908F907F906F90A7
S1132D705F9008950E94EB0608950E94EB06089563
S1132D800895CF93DF93FC01DA01403A68E05607D7
S1132D9049F480E496E08283938382E0848383E031
S1132DA0858332C0403B78E0570749F480E496E0DD
S1132DB08283938386E0848387E0858325C0403AB9
S1132DC089E0580749F480E696E08283938382E0A1
S1132DD0848383E0858318C0403B69E0560749F447
S1132DE080E696E08283938386E0848387E085830C
S1132DF00BC0403A5A4041F480E896E082839383C2
S1132E0082E0848383E08583A683B783CD01019622
S1132E10808791870396828793872581C281D38196
S1132E204C8181E090E0BC0102C0660F771F2A95B7
S1132E30E2F79B01242B2C832581C281D381488115
S1132E40BC0102C0660F771F2A95E2F79B01242B71
S1132E5028833481C281D381288102C0880F991FBD
S1132E603A95E2F7809590958223888380E11396C2
S1132E708C93139783E015968C93159780EF179690
S1132E808C93179781E216968C93169788E1149683
S1132E908C9380E8858780E4868780E28487068037
S1132EA0F781E02D80818081DF91CF91089581E0C9
S1132EB0089580E090E0089580E0089508950895CD
S1132EC0FC018FE690E2808391838AE082831382FF
S1132ED083E0858314821682178208950F931F93CB
S1132EE0CF93DF938C01FB01DC0114968C9181114B
S1132EF004C06081611117C023C0D80114961C92CC
S1132F00EB01219664916623D9F0D801ED91FC91EF
S1132F100280F381E02DC8011995FE016491219688
S1132F206111F3CF0DC0EF012196D801ED91FC9111
S1132F300280F381E02DC801199569916111F5CFE3
S1132F40DF91CF911F910F910895CF93DF93EC01FF
S1132F50862F90E08B309105D8F5FC018827E2504C
S1132F60FF4F8F4F0C94BA1C82E08A8331C088E0F3
S1132F708A832EC08AE08A832BC080E18A8328C09A
S1132F8081E08B8325C01B8223C0E881F981028004
S1132F90F381E02D6DE0CE011995E881F98102807D
S1132FA0F381E02D6AE0CE01199512C0E881F98120
S1132FB00284F385E02DCE0119950AC0E881F981D8
S1132FC00084F185E02DCE01199502C081E08C8347
S1132FD0CE01DF91CF910895FF920F931F93CF936A
S1132FE0DF93CDB7DEB76197CDBFDEBF8C01F62E80
S1132FF0972FF8014281403121F0483011F04230DE
S113300041F4692FC8010E9462186F2D0E94621852
S11330100DC050E0BE016F5F7F4F8F2D0E94291DB0
S1133020BE016F5F7F4FC8010E946E17C801619691
S1133030CDBFDEBFDF91CF911F910F91FF90089517
S1133040DF92EF92FF920F931F93CF93DF93CDB74D
S1133050DEB7A197CDBFDEBF8C01D42EE52EF62EB0
S1133060972FF8012281203121F0283011F02230ED
S113307071F4692FC8010E9462186F2D0E946218B2
S11330806E2D0E9462186D2D0E9462180FC030E0F0
S1133090AE014F5F5F4F6D2D7E2D8F2D0E94FC1C66
S11330A0BE016F5F7F4FC8010E946E17C801A196D1
S11330B0CDBFDEBFDF91CF911F910F91FF90EF90B5
S11330C0DF900895CF92DF92EF92FF920F931F93B8
S11330D0CF93DF93CDB7DEB72997CDBFDEBF8C0189
S11330E0E62EDC0113968C911397882341F0ED9121
S11330F0FC910280F381E02DC801199556C0F801B6
S11331004281423019F56894CC24C3F8D12C6894D8
S1133110FF24F7F88E2D8F2151F0D801ED91FC9109
S11331200280F381E02D61E3C801199509C0D8013B
S1133130ED91FC910280F381E02D60E3C8011995C3
S1133140F694B1E0CB1AD10829F72FC04031F9F435
S113315062956F700190F081E02D0280F381E02D83
S11331606A3010F0695C01C0605DC80119956E2D6C
S11331706F70D801ED91FC910280F381E02D6A30EB
S113318010F0695C01C0605DC80119950EC050E083
S1133190BE016F5F7F4F8E2D90E00E94291DBE01FE
S11331A06F5F7F4FC8010E946E17C8012996CDBF7B
S11331B0DEBFDF91CF911F910F91FF90EF90DF90D1
S11331C0CF900895DC015096ED91FC915197808148
S11331D054964C915497842329F009C02150310905
S11331E019F412C021E23EE490819423B9F3908152
S11331F056968C915697892B80831E96ED91FC915F
S11332001F97608381E0089580E00895CF93DF9352
S1133210FC01C18DD28D28813981A38DB48D4D914E
S11332205C9124173507E9F3A789B08D0D90BC9103
S1133230A02DA20FB31F8C912F5F3F4F288339839A
S11332402436310528F0018CF28DE02D1082118294
S113325090E0DF91CF910895CF93DF93EC01A98D96
S1133260BA8DEB8DFC8D81E04D915C912081318193
S11332704217530709F480E0DF91CF910895DC01F0
S1133280ED91FC910280F381E02D6CE01995089595
S1133290EF92FF920F931F93CF93DF93EC017B0187
S11332A08A010E946017A801B701CE0108960E9406
S11332B0C1168FE790E288839983003A88E0180763
S11332C069F480E791E38F8B988F86E691E3898F89
S11332D09A8F8CE591E38B8F9C8F42C0003BE8E092
S11332E01E0769F48EE691E38F8B988F84E691E351
S11332F0898F9A8F8AE591E38B8F9C8F31C0003A36
S1133300F9E01F0769F48CE691E38F8B988F82E6CE
S113331091E3898F9A8F88E591E38B8F9C8F20C0EE
S1133320003B89E0180769F48AE691E38F8B988F54
S113333080E691E3898F9A8F86E591E38B8F9C8F4A
S11333400FC0003A1A4061F488E691E38F8B988F9E
S11333508EE591E3898F9A8F84E591E38B8F9C8F1F
S11333600F89188D84E690E00E94BD16F8018083D1
S11333709183E98DFA8D10821182EB8DFC8D108280
S11333801182DF91CF911F910F91FF90EF900895DB
S11333901F920F920FB60F92112408B60F9218BE07
S11333A00BB60F921BBE2F933F938F939F93EF9374
S11333B0FF932091A008E0917031F09171318091D8
S11333C05C3190915D31E80FF91F208380915C316D
S11333D090915D3101968436910560F480935C315F
S11333E090935D3120916631309167318217930754
S11333F0F1F40CC010925C3110925D318091663111
S1133400909167311816190691F40EC0019684360E
S1133410910528F4809366319093673108C0109227
S113342066311092673103C081E090E0F3CFFF91E1
S1133430EF919F918F913F912F910F900BBE0F9021
S113344008BE0F900FBE0F901F9018951F920F92F9
S11334500FB60F92112408B60F9218BE0BB60F9236
S11334601BBE2F933F938F939F93EF93FF932091D2
S1133470B008E0916E31F0916F3180915A319091A2
S11334805B31E80FF91F208380915A3190915B31B1
S113349001968436910560F480935A3190935B31A0
S11334A0209164313091653182179307F1F40CC097
S11334B010925A3110925B31809164319091653150
S11334C01816190691F40EC001968436910528F455
S11334D0809364319093653108C0109264311092E6
S11334E0653103C081E090E0F3CFFF91EF919F91AC
S11334F08F913F912F910F900BBE0F9008BE0F90AC
S11335000FBE0F901F9018951F920F920FB60F9237
S1133510112408B60F9218BE0BB60F921BBE2F9340
S11335203F938F939F93EF93FF932091A009E09192
S11335306C31F0916D3180915C3190915D31E80F87
S1133540F91F208380915831909159310196843626
S1133550910560F4809358319093593120916231F0
S11335603091633182179307F1F40CC010925831F3
S11335701092593180916231909163311816190675
S113358091F40EC001968436910528F4809362313B
S11335909093633108C0109262311092633103C07A
S11335A081E090E0F3CFFF91EF919F918F913F9154
S11335B02F910F900BBE0F9008BE0F900FBE0F906F
S11335C01F9018951F920F920FB60F92112408B6F0
S11335D00F9218BE0BB60F921BBE2F933F938F937F
S11335E09F93EF93FF932091B009E0916A31F0919A
S11335F06B318091563190915731E80FF91F208338
S1133600809156319091573101968436910560F43A
S113361080935631909357312091603130916131CC
S113362082179307F1F40CC010925631109257315F
S113363080916031909161311816190691F40EC091
S113364001968436910528F480936031909361311A
S113365008C0109260311092613103C081E090E0A3
S1133660F3CFFF91EF919F918F913F912F910F9005
S11336700BBE0F9008BE0F900FBE0F901F901895B1
S11336801F920F920FB60F92112408B60F9218BE14
S11336900BB60F921BBE2F933F938F939F93EF9381
S11336A0FF932091A00AE0916831F09169318091F3
S11336B0543190915531E80FF91F20838091543192
S11336C09091553101968436910560F4809354317C
S11336D09093553120915E3130915F318217930779
S11336E0F1F40CC0109254311092553180915E3136
S11336F090915F311816190691F40EC00196843624
S1133700910528F480935E3190935F3108C0109244
S11337105E3110925F3103C081E090E0F3CFFF91FE
S1133720EF919F918F913F912F910F900BBE0F902E
S113373008BE0F900FBE0F901F9018950F93CF9354
S1133740DF931F92CDB7DEB72FB72983F8941BBE42
S1133750FC0108ED04BF608389818FBF0F90DF9166
S1133760CF910F9108950F931F93CF93DF93CDB70C
S1133770DEB76D97CDBFDEBFE0E6F6E080E1818382
S11337808583F894E0E5F0E0808182608083818124
S113379081FFFDCF60914000687F616080E490E02C
S11337A00E949E1BE0E5F0E080818E7F80839DEF88
S11337B088ED08B618BE84BF9093800008BE40EB25
S11337C058E060E070E0CE0101960E94481967E07D
S11337D0CE0101960E94A5178C016BE870E20E944D
S11337E06E1766E0C8010E94A51766E00E94A5173F
S11337F082E190E00E94BA168E010F5F1F4F24E011
S113380031E040E06AEA70E20E947B0482E190E0E9
S11338100E94BA1624E031E044E062EB70E20E94B8
S1133820230382E190E00E94BA1624E031E044E0F0
S11338306DEB70E20E94230382E190E00E94BA16CD
S113384024E031E044E069EC70E20E94190482E172
S113385090E00E94BA1624E031E043E060ED70E2AB
S11338600E94C70382E190E00E94BA1624E031E08E
S113387042E067ED70E20E946B0482E190E00E94F6
S1133880BA1624E031E041E060EE70E20E94750374
S113389087E08093A20078940E94CC0D80E090E0B1
S11338A06D96CDBFDEBFDF91CF911F910F9108952B
S11338B00F931F930AE010E020E030E040E050E076
S11338C060E270E082E791E30E9426151F910F9158
S11338D00895DB018F939F930E94C31CBF91AF9106
S11338E0A29F800D911DA39F900DB29F900D112456
S11338F00895A1E21A2EAA1BBB1BFD010DC0AA1F2D
S1133900BB1FEE1FFF1FA217B307E407F50720F044
S1133910A21BB30BE40BF50B661F771F881F991FBF
S11339201A9469F760957095809590959B01AC0108
S1133930BD01CF010895052E97FB1EF400940E944B
S1133940B21C57FD07D00E94791C07FC03D04EF42B
S11339500C94B21C50954095309521953F4F4F4F94
S11339605F4F089590958095709561957F4F8F4F27
S11339709F4F0895EE0FFF1F881F8BBF0790F6918E
S1133980E02D1BBE19940E94CE1CA59F900DB49FE0
S1133990900DA49F800D911D11240895A29FB00144
S11339A0B39FC001A39F700D811D1124911DB29F6F
S11339B0700D811D1124911D0895FB01DC0102C0CD
S11339C001900D9241505040D8F70895DC0101C098
S11339D06D9341505040E0F70895FB01DC014150E4
S11339E0504048F001900D920020C9F701C01D928B
S11339F041505040E0F708952532310520F422303B
S1133A0010F00C94071DFA011082CA010895BB2717
S1133A10FA01A62F6217710581059105330B30FB5E
S1133A2066F0AA27660F771F881F991FAA1FA2177F
S1133A3010F0A21B63953850A9F7A05DAA3308F0D3
S1133A40A95DA19336F7B111B1931082CA010C9408
S1133A504E1D4532510520F4423010F00C94341DB3
S1133A60FB011082CB010895BB27FB015527AA2730
S1133A70880F991FAA1FA41710F0A41B83955051F7
S1133A80B9F7A05DAA3308F0A95DA193009779F76F
S1133A90B111B1931192CB010C944E1DDC01FC01C8
S1133AA0672F71917723E1F7329704C07C916D936E
S1133AB070836291AE17BF07C8F30895F894FFCFDF
S1133AC0FF0FFFFFFFFF53636172792C2073636163
S1133AD0727920736B656C65746F6E7321000000DE
S1133AE00000E10295130000000033039513000069
S1133AF000008503951300000000D7039513000010
S1133B0000002904951300000000BE0595134944E4
S1133B104C450000000000C016951300000000573B
S1133B20170815FD14DF145E175F17000000005717
S1133B3017C0165C1759175E175F1700000000576F
S1133B4017E2182C1906195E173F1946726565525B
S1133B50544F5320586D6567612054657374696EC2
S1133B60672050726F6772616D0055736572496E9C
S1133B7074004C65667453776974636800526967AE
S1133B80687453776974636800456E6350656E00AA
S1133B90456E634D7472004374726C43616C6300D0
S10B3BA04D7472436D640000D2
S9030000FC
