:100000000C94A9020C94DF020C94DF020C94DF0222
:100010000C94DF020C94DF020C94DF020C94DF02DC
:100020000C94DF020C94DF020C94DF020C94DF02CC
:100030000C94DF020C94DF020C94DF020C94DF02BC
:100040000C94DF020C94DF020C94DF020C94DF02AC
:100050000C94DF020C94DF020C94DF020C94DF029C
:100060000C94DF020C94161A0C94DF020C94DF023D
:100070000C94741A0C94DF020C94DF020C94DF02CF
:100080000C94DF020C94DF020C94DF020C94DF026C
:100090000C94DF020C94DF020C94DF020C94DF025C
:1000A0000C94DF020C94DF020C94DF020C94DF024C
:1000B0000C94DF020C94DF020C94DF020C94DF023C
:1000C0000C94DF020C94180A0C94DF020C94DF02EB
:1000D0000C94DF020C94DF020C94DF020C94DF021C
:1000E0000C94DF020C94DF020C948E1B0C94DF0244
:1000F0000C94DF020C94DF020C94DF020C94DF02FC
:100100000C94DF020C94DF020C94DF020C94DF02EB
:100110000C94DF020C94DF020C94DF020C94DF02DB
:100120000C94DF020C94DF020C94DF020C94DF02CB
:100130000C94DF020C94DF020C94DF020C94DF02BB
:100140000C94DF020C94DF020C94DF020C94DF02AB
:100150000C94DF020C94DF020C94DF020C94DF029B
:100160000C94D21A0C94DF020C94DF020C94301B16
:100170000C94DF020C94DF020C94DF020C94DF027B
:100180000C94DF020C94DF020C94DF020C94DF026B
:100190000C94DF020C94DF020C94DF020C94DF025B
:1001A0000C94DF020C94DF020C94DF020C94DF024B
:1001B0000C94DF020C94DF020C94DF020C94DF023B
:1001C0000C94DF020C94DF020C94DF020C94DF022B
:1001D0000C94DF020C94DF020C94DF020C94DF021B
:1001E0000C94DF020C94DF020C94DF020C94DF020B
:1001F0000C94DF020C94DF020C94DF02EA17ED1777
:10020000F017F317F617F917FB170C1814181E1828
:100210001C180C948D190C9433150C94CB130C945E
:100220009C0C0C948D170C9492170C9414180C942D
:100230004D040C94AD1C0C9494170C94F6160C946D
:1002400095170C94FB170C9415150C94F4050C944D
:10025000F3170C94F0170C94E9030C941C180C94ED
:10026000F6170C943E150C94EA170C94ED170C94A9
:10027000A6020C947F040C948F170C94F9170C941D
:100280000C180C9454190C941E180C941B040C9408
:10029000E1020C947A190C9430192C205443433009
:1002A0004343413D002F002C204865617020667259
:1002B00065653A200054696D653A20004665622004
:1002C00032322032303235004D45343035206261D3
:1002D000736520726164696F2070726F6772616DFF
:1002E0002056302E34200020202020683A20202064
:1002F00048414C50210020202020653A20202045F4
:1003000078697420636F6D6D616E64206D6F6465D4
:100310000020202020733A202020537461636B203A
:1003200064756D7020666F72207461736B7300204A
:10033000202020763A20202056657273696F6E2047
:10034000616E6420736574757020696E666F726D7E
:100350006174696F6E00202020206E3A20202053A7
:10036000686F77207468652074696D6520726967AD
:100370006874206E6F77002020496E20636F6D6D6A
:10038000616E64206D6F6465206F6E6C793A002039
:100390002043746C2D413A20456E74657220636F62
:1003A0006D6D616E64206D6F646500202043746C18
:1003B0002D433A2052657365742074686520415658
:1003C00052002068656C70004D4534303520626104
:1003D000736520726164696F2070726F6772616DFE
:1003E0002056302E3420001B5B33306D001B5B34F5
:1003F000366D00496C6C6567616C2073746174655F
:100400002120526573657474696E672041565200ED
:100410003A5754463F004578697420636F6D6D61AB
:100420006E64206D6F646500526573657474696EE7
:100430006720415652005072657373204374726C8A
:100440002D4120666F7220636F6D6D616E64206D4B
:100450006F646500526573657474696E6700455218
:10046000524F5220696E207461736B2000455252C6
:100470004F52206372656174696E67207461736B9B
:1004800020002C20737461636B206174203078002D
:100490002063726561746564005461736B20001B96
:1004A0005B32326D005461736B3A20001B5B316D1F
:1004B000001B5B32326D005461736B3A2049444C2F
:1004C00045001B5B316D000909002F0049444C4574
:1004D000090930092D0900092D2D2D2D00092D2D7B
:1004E0002D2D2D2D2D2D2D2D002D2D2D2D09092DB1
:1004F0002D2D2D092D2D2D2D2D000952756E7300DA
:1005000009467265652F546F74616C004E616D65AC
:1005100009095072692E0953746174650009537496
:1005200061636B005461736B090920200920000985
:100530000009002F00090009001B5B32326D001B0F
:100540005B316D001B5B316D002020000E94631247
:10055000AD1C11241FBECFEFCDBFDFE3DEBF00E037
:100560000CBF18BE19BE1ABE1BBE10E2A0E0B0E25E
:10057000EAE6FBE300E00BBF02C007900D92A63F46
:10058000B107D9F71BBE21E3A6EFB0E201C01D926F
:10059000A639B207E1F712E0C9EAD2E000E006C0EE
:1005A00021970109802FFE010E940F1DC83AD10733
:1005B00080E00807A9F70E94011C0C94B31D0C945D
:1005C0000000CF93DF9300D01F92CDB7DEB78C0130
:1005D0000E943B0E69837A838B839C83E0E6F6E07E
:1005E0009581D80152968C915297892B858352968A
:1005F0008C91813099F488E1809370060F2EF8E693
:10060000CF2EF6E0DF2EF02DFF24F3940F2EF4E62C
:100610004F2E512C612C712CF02D06C0843071F7B7
:1006200088E180937206EACFF601808180FD0CC0DC
:10063000E0918231F09183310FB6F8940F92F082FD
:100640000F900FBEBF2C0BC0E0918231F09183312F
:100650000FB6F8940F9210820F900FBEB12CD601F6
:100660008C9182FD0CC0E0918031F09181310FB608
:10067000F8940F92F0820F900FBEEF2C0BC0E09118
:100680008031F09181310FB6F8940F9210820F9063
:100690000FBEE12CF8016685778580899189A301D9
:1006A00092010E94CE1C672B682B692B09F069C050
:1006B0000FB6F8940F92E0918231F0918331A080CF
:1006C0000F900FBED80116968D909C90179766E0FC
:1006D00070E2C4010E94A4176A2DC4010E9422186E
:1006E0006BE070E20E94A4170FB6F8940F92E091AD
:1006F0008031F0918131A0800F900FBEF80186808B
:1007000097806DE070E2C4010E94A4176A2DC401B5
:100710000E94221866E00E94DB17D80116968D9081
:100720009C90179763E170E2C4010E94A4176B2D9F
:10073000C4010E94221866E00E94DB17F80186803F
:1007400097806FE170E2C4010E94A4176B2DC40171
:100750000E9422186E2D0E94221866E00E94DB176C
:10076000D8011696AD90BC90179768E270E2C5016B
:100770000E94A4176E2DC5010E94221866E00E94F7
:10078000DB17F80186859785A089B1890196A11D9F
:10079000B11D86879787A08BB18B41E050E060E068
:1007A00070E0CE0101960E94D90F3ECFEF920F93D9
:1007B0001F93CF93DF93EC010E94761289E390E2BE
:1007C00088839983EA8ADF91CF911F910F91EF90EF
:1007D0000895CF93DF9300D01F92CDB7DEB78C0181
:1007E0000E943B0E69837A838B839C83F801868504
:1007F0009785A089B1890196A11DB11D868797872C
:10080000A08BB18B41E050E060E070E0CE0101963A
:100810000E94D90FEBCF0F931F93CF93DF93EC017F
:100820000E94761281E490E288839983DF91CF91D0
:100830001F910F910895CF93DF9300D01F92CDB7F2
:10084000DEB78C010E943B0E69837A838B839C8385
:10085000F80186859785A089B1890196A11DB11DF2
:1008600086879787A08BB18B41E050E060E070E015
:10087000CE0101960E94D90FEBCF0F931F93CF9318
:10088000DF93EC010E94761289E490E288839983D9
:10089000DF91CF911F910F910895CF93DF9300D0F7
:1008A0001F92CDB7DEB78C010E943B0E69837A831D
:1008B0008B839C83F80186859785A089B1890196F1
:1008C000A11DB11D86879787A08BB18B41E050E0B9
:1008D00060E070E0CE0101960E94D90FEBCF0F933C
:1008E0001F93CF93DF93EC010E94761281E590E293
:1008F00088839983DF91CF911F910F910895CF93B2
:10090000DF9300D01F92CDB7DEB78C010E943B0E63
:1009100069837A838B839C83F80186859785A08978
:10092000B1890196A11DB11D86879787A08BB18BD8
:1009300041E050E060E070E0CE0101960E94D90FE6
:10094000EBCF0F931F93CF93DF93EC010E947612AE
:1009500089E590E288839983DF91CF911F910F9170
:1009600008950F931F93CF93DF93EC010E947612AB
:1009700081E690E288839983DF91CF911F910F9157
:1009800008950F931F93CF93DF93EC016AE08E815C
:100990009F810E94DB178C016DEE73E00E94A4170B
:1009A0006AE0C8010E94DB178C0167EE73E00E94C9
:1009B000A41767E0C8010E94DB176AE08E819F815F
:1009C0000E94DB178C0168EC73E00E94A4176AE0B8
:1009D000C8010E94DB178C0162EC73E00E94A4172F
:1009E00066E0C8010E94DB176AE08E819F810E9449
:1009F000DB178C016BEA73E00E94A41766E0C80164
:100A00000E94DB176AE08E819F810E94DB178C01B8
:100A10006FE873E00E94A41766E0C8010E94DB172C
:100A20006AE08E819F810E94DB178C0167E773E08B
:100A30000E94A41766E0C8010E94DB176AE08E815D
:100A40009F810E94DB178C0166E573E00E94A4176A
:100A500066E0C8010E94DB176AE08E819F810E94D8
:100A6000DB178C016FE273E00E94A41766E0C801F7
:100A70000E94DB176AE08E819F810E94DB178C0148
:100A800061E173E00E94A41766E0C8010E94DB17D1
:100A90006AE08E819F810E94DB178C0166EF72E015
:100AA0000E94A41766E0C8010E94DB176AE08E81ED
:100AB0009F810E94DB17EC0167EE72E00E94A41791
:100AC00066E0CE010E94DB17DF91CF911F910F915D
:100AD0000895AF92BF92CF92DF92EF92FF920F9361
:100AE0001F93CF93DF9300D000D0CDB7DEB78C013A
:100AF00019821A821B821C821D821E820E94EE07AE
:100B00006C01CE0101960E9427165C0166E0F80197
:100B1000868197810E94DB176AE00E94DB177C01C7
:100B200068EC72E00E94A4176AE0C7010E94DB171C
:100B30007C016CEB72E00E94A41766E0C7010E9482
:100B4000DB176AE00E94DB177C0165EB72E00E9414
:100B5000A417B501C7010E94CB156AE00E94DB17FC
:100B60007C0167EA72E00E94A417B601C7010E94E7
:100B70003A186AE00E94DB177C0165EA72E00E9485
:100B8000A4174FEF5FE060E070E0C7010E946E18AD
:100B9000C0902808D09029086AE0F80186819781E2
:100BA0000E94DB177C016AE972E00E94A417B6017B
:100BB000C7010E943A1866E00E94DB1766E00E94B7
:100BC000DB17F801868197810E9484142696CDBF99
:100BD000DEBFDF91CF911F910F91FF90EF90DF90DB
:100BE000CF90BF90AF900895CF93DF9300D000D007
:100BF000CDB7DEB78C0119821A821B821C821D823E
:100C00001E826AE0DC0116968D919C9117970E94D6
:100C1000DB177C0166E374E00E94A41766E0C7015D
:100C20000E94DB17F8018485882321F0813009F4C4
:100C30005DC0D8C086819781DC01ED91FC91048074
:100C4000F581E02D19958823A9F1F8018681978116
:100C5000DC01ED91FC910680F781E02D1995992733
:100C600081309105F9F0039709F0D8C06AE0F801E6
:100C7000868197810E94DB178C0168E274E00E94F4
:100C8000A41766E0C8010E94DB1793E088ED08B660
:100C900018BE84BF909380008091820081FDFCCFBC
:100CA00008BEFFCFC8010E94C10461E0C8010E94D4
:100CB0007212B4C084E891E30E943315882309F4CA
:100CC000ADC0D8011696ED91FC9117970190F08177
:100CD000E02DE280F38084E891E30E941515682FEF
:100CE000F80186819781F701199598C086819781CF
:100CF000DC01ED91FC910480F581E02D19958823AC
:100D000009F48CC0F80186819781DC01ED91FC919A
:100D10000680F781E02D19959C013327283631058F
:100D200059F13CF42B31310559F12536310541F1AA
:100D30003BC023373105C1F02637310589F02E3607
:100D4000310591F5CE0101960E942716BC01F801EC
:100D5000868197810E94CB1566E00E94DB175EC0FA
:100D6000C8010E9469055AC0D80116968D919C91C0
:100D700017970E948B1352C0C8010E94C1044EC035
:100D80006AE0F801868197810E94DB177C0166E1A9
:100D900074E00E94A41766E0C7010E94DB1760E0C0
:100DA000C8010E9472123AC0F801A681B781ED9184
:100DB000FC9111970280F381E02D682FCD011995E8
:100DC0006AE0D80116968D919C9117970E94DB17C7
:100DD0007C0160E174E00E94A41766E0C7010E94F4
:100DE000DB171CC06AE0F801868197810E94DB173F
:100DF0008C0163EF73E00E94A41766E0C8010E94B3
:100E0000DB1793E088ED08B618BE84BF909380008E
:100E10008091820081FDFCCF08BEFFCFF80186855E
:100E20009785A089B1890196A11DB11D86879787F5
:100E3000A08BB18B61E070E080E090E00E944610F2
:100E4000F1CE0F931F93CF93DF93EC010E94350EE9
:100E50008091F62081111DC0ABEFB0E2EFEFF0E220
:100E6000ED93FC93119712961D921C921397A7EF86
:100E7000B0E28FEF9FE012968D939C9313971D9293
:100E80001C92119782839383A083B18381E0809326
:100E9000F620209709F45FC09E012B5F3F4F2496F8
:100EA000CE3FDF4008F05AC0E091FB20F091FC20DB
:100EB000ABEFB0E202C0DF01FC01828193818217B7
:100EC000930720F4808191810097A9F7C0E2E73F62
:100ED000FC0709F446C0CD91DC9111978E010B5FA0
:100EE0001F4F808191818D939C9382819381821B7E
:100EF000930B8B30910510F1BF01620F731FDB0163
:100F000012968D939C9313972283338312964D915F
:100F10005C9113978BEF90E201C0CD01EC01A881A9
:100F2000B98112962D913C91139724173507A8F398
:100F3000EB01A883B983DC016D937C938091002041
:100F40009091012022813381821B930B809300209A
:100F50009093012008C000E010E005C000E010E020
:100F600002C000E010E00E94570FC801DF91CF914E
:100F70001F910F9108950F931F93CF93DF930097C5
:100F800041F1EC018C01055011090E94350EF80168
:100F900042815381ABEFB0E201C0DF01ED91FC91E2
:100FA00011972281338124173507B8F32597E883F9
:100FB000F9830D931C9320910020309101208A81A8
:100FC0009B81820F931F80930020909301200E94A9
:100FD000570FDF91CF911F910F91089580910020BD
:100FE000909101200895FC010396818392834FEF35
:100FF0005FEFBA0143835483658376838783908749
:101000008187928710820895FC01128613860895C5
:10101000CF93DF93FC01DB0121813281E9018C81D7
:101020009D8114968D939C9315978181928116963C
:101030008D939C9317978C819D81EC016E837F83A8
:10104000E9016C837D83618372831A96ED93FC932F
:101050001B9780818F5F8083DF91CF9108950F93DD
:101060001F93CF93DF93EB01088119812A813B8184
:101070000F3F4FEF14072407340731F4DC011996B2
:10108000ED91FC911A971FC0FC013396DC01179675
:101090004D915C911897DA014D915D916D917C9124
:1010A000041715072607370770F00480F581E02D37
:1010B000A481B5814D915D916D917C9104171507C7
:1010C0002607370790F7A481B581AC83BD831696B8
:1010D000CD93DC931797EE83FF83C483D5838A87F0
:1010E0009B87FC0120812F5F2083DF91CF911F918F
:1010F0000F910895FC01A481B58186819781169690
:101100008D939C931797A681B781848195811496BE
:101110008D939C931597A285B38511968D919C9183
:101120001297E817F90731F48681978111968D930C
:101130009C931297128613868C9181508C930895FC
:10114000809394319093953131E1FC013083319754
:1011500022E220833197A3E3A08331976083319704
:1011600070833197108231971082319760E86083E5
:10117000319710823197108231971082319762E057
:101180006083319763E06083319764E060833197D7
:1011900065E06083319766E06083319767E0608344
:1011A000319768E06083319769E06083319760E14F
:1011B000608331973083319732E13083319733E167
:1011C0003083319734E13083319735E13083319783
:1011D00036E13083319737E13083319738E130831E
:1011E000319739E13083319730E23083319731E202
:1011F000308331972083319723E2208331974083D6
:1012000031975083319726E22083319727E220835C
:10121000319728E22083319729E22083319720E318
:101220002083319721E32083899708958CE7809369
:10123000290A8FEF8093280A81E08093000A91E1C8
:101240009093010A8093070AA0915E31B0915F31BB
:10125000CD91CDBFDD91DEBFFF91EF91DF91CF91B9
:10126000BF91AF919F918F917F916F915F914F91BE
:101270003F912F911F910F91FF90EF90DF90CF90B2
:10128000BF90AF909F908F907F906F905F904F90A6
:101290003F902F901F900F900CBE0F900BBE0F90A1
:1012A0000FBE0F90089508950F920FB6F8940F9205
:1012B0000BB60F920CB60F921F9211242F923F92F1
:1012C0004F925F926F927F928F929F92AF92BF9256
:1012D000CF92DF92EF92FF920F931F932F933F9342
:1012E0004F935F936F937F938F939F93AF93BF932E
:1012F000CF93DF93EF93FF93A0915E31B0915F3175
:101300000DB60D920EB60D920E947410A0915E3132
:10131000B0915F31CD91CDBFDD91DEBFFF91EF91F7
:10132000DF91CF91BF91AF919F918F917F916F91FD
:101330005F914F913F912F911F910F91FF90EF90EF
:10134000DF90CF90BF90AF909F908F907F906F90E5
:101350005F904F903F902F901F900F900CBE0F907A
:101360000BBE0F900FBE0F9008950F920FB6F8941A
:101370000F920BB60F920CB60F921F9211242F9260
:101380003F924F925F926F927F928F929F92AF9215
:10139000BF92CF92DF92EF92FF920F931F932F9302
:1013A0003F934F935F936F937F938F939F93AF93ED
:1013B000BF93CF93DF93EF93FF93A0915E31B091F2
:1013C0005F310DB60D920EB60D920E94560E0E9420
:1013D0007410A0915E31B0915F31CD91CDBFDD91A0
:1013E000DEBFFF91EF91DF91CF91BF91AF919F91C0
:1013F0008F917F916F915F914F913F912F911F91AD
:101400000F91FF90EF90DF90CF90BF90AF909F90A3
:101410008F907F906F905F904F903F902F901F9094
:101420000F900CBE0F900BBE0F900FBE0F90089543
:101430000E94B5091895CF93DF93EC0188A1811123
:101440000BC088819981892BE1F58A819B810E945B
:101450002F121A821B8235C0411117C0482F50E04D
:101460008C819D810E94321D28A18C819D81820FDB
:10147000911D8C839D832A813B818217930708F1FC
:10148000888199818C839D831CC0482F50E08E8178
:101490009F810E94321D88A190E0919581959109CC
:1014A0002E813F81280F391F2E833F834881598128
:1014B0002417350730F42A813B81820F931F8E83D6
:1014C0009F838E8D8F5F8E8FDF91CF910895FC016A
:1014D000808191810097A1F040A150E02681378161
:1014E000240F351F26833783A281B3812A173B0738
:1014F00010F086839783CB01668177810E94321D2D
:1015000008950F931F93CF93DF93EC010FB6F894D8
:101510000F928AA11816B4F48B89811105C012C0EC
:101520008B89811104C00EC08E010D5E1F4FC80152
:101530000E94FB1081110E94B8118AA181508AA3D8
:10154000181674F38FEF8AA30F900FBE0FB6F8949E
:101550000F9289A11816B4F48885811105C012C0B4
:101560008885811104C00EC08E01085F1F4FC8011D
:101570000E94FB1081110E94B81189A1815089A39A
:10158000181674F38FEF89A30F900FBEDF91CF91E0
:101590001F910F9108951F93CF93DF93613059F0FE
:1015A000FC012389308531112CC011E0211110E09C
:1015B000211128C001C011E0EC014881598128A106
:1015C00030E06F8D629FC001639F900D1124BA01BE
:1015D000680F791F6A837B831E8E4C835D83821B19
:1015E000930B840F951F8E839F838FEF89A38AA30C
:1015F000CE0108960E94F307CE0143960E94F3079E
:1016000001C010E0812FDF91CF911F9108950F93BA
:101610001F93CF93DF93882301F1062F182F83E2C6
:1016200090E00E942107EC01892BC9F0109FC001B6
:10163000112401960E94210788839983892B39F010
:101640001F8F08A361E0CE010E94CB0A08C0CE0123
:101650000E94BB07C0E0D0E002C0C0E0D0E0CE01F5
:10166000DF91CF911F910F910895AF92BF92CF92CA
:10167000DF92EF92FF920F931F93CF93DF93CDB73B
:10168000DEB72997CDBFDEBF7C015B012E833F8390
:101690004887598710E06C0188E0C80ED11C0FB64E
:1016A000F8940F92F701968D878D9817A8F4402F24
:1016B000B501C7010E941B0AF7018389882341F005
:1016C000C70143960E94FB10813011F40E94540917
:1016D0000F900FBE81E056C08E819F81A885B9858D
:1016E000892B8A2B8B2B21F40F900FBE80E04AC0F0
:1016F000111105C0CE0101960E943A1111E00F9020
:101700000FBE0E94350E0FB6F8940F92F70181A11B
:101710008F3F09F411A2F70182A18F3F09F412A2B1
:101720000F900FBEBE016A5F7F4FCE0101960E94EF
:101730004B11811121C00FB6F8940F92F701968DCD
:101740000F900FBE878D981311C04E815F81688501
:101750007985C6010E94D110C7010E94810A0E94AA
:10176000570F81119CCF0E94540999CFC7010E9445
:10177000810A0E94570F93CFC7010E94810A0E94DD
:10178000570F80E02996CDBFDEBFDF91CF911F912B
:101790000F91FF90EF90DF90CF90BF90AF900895A2
:1017A000AF92BF92CF92DF92EF92FF920F931F936F
:1017B000CF93DF93CDB7DEB72997CDBFDEBF7C01D6
:1017C0005B012E833F834887598710E06C0183E1DA
:1017D000C80ED11C0FB6F8940F92F701868D88239E
:1017E00099F1C680D780B501C7010E94670A01112F
:1017F0001AC0F701868D8150868F80819181892B57
:1018000029F40E94D511F70182839383F701808523
:101810008823B1F0C70108960E94FB10813081F443
:101820000E9454090DC0F701C682D782838988239C
:1018300039F0C70143960E94FB1081110E945409A0
:101840000F900FBE81E062C08E819F81A885B9850F
:10185000892B8A2B8B2B21F40F900FBE80E056C072
:10186000111105C0CE0101960E943A1111E00F90AE
:101870000FBE0E94350E0FB6F8940F92F70181A1AA
:101880008F3F09F411A2F70182A18F3F09F412A240
:101890000F900FBEBE016A5F7F4FCE0101960E947E
:1018A0004B1181112DC00FB6F8940F92F701868D60
:1018B0000F900FBE81111EC080819181892B49F448
:1018C0000FB6F8940F92828193810E94DA110F90E3
:1018D0000FBE4E815F8168857985C6010E94D11057
:1018E000C7010E94810A0E94570F811173CF0E9485
:1018F000540970CFC7010E94810A0E94570F6ACF16
:10190000C7010E94810A0E94570F80E02996CDBF2F
:10191000DEBFDF91CF911F910F91FF90EF90DF908D
:10192000CF90BF90AF9008950FB6F8940F92FC013E
:10193000868D0F900FBE0895C2E3D1E38881823077
:10194000E8F30E945409FACFCF92DF92EF92FF9210
:101950006B017C01E0915E31F0915F3162837383B2
:10196000848395838091063190910731A09108314D
:10197000B0910931C816D906EA06FB0668F46091F1
:101980005E3170915F3180911831909119316E5FA5
:101990007F4F0E942F0821C060915E3170915F31AE
:1019A00080911A3190911B316E5F7F4F0E942F08FA
:1019B0008091022090910320A0910420B0910520F5
:1019C000C816D906EA06FB0640F4C0920220D0925F
:1019D0000320E0920420F0920520FF90EF90DF902A
:1019E000CF9008954F925F926F927F928F929F92C5
:1019F000AF92BF92CF92DF92EF92FF920F931F931D
:101A0000CF93DF935C014B013A01290188E290E01A
:101A10000E942107EC01892B09F4D4C0C114D10420
:101A200009F0CCC0C3010E9421078B8F9C8F0097C7
:101A300021F4CE010E94BB07C5C0A30161E170E0A3
:101A40000E943B1D9301215031098B8D9C8D3C01DF
:101A5000620E731E4AE050E0B401CE014D960E9422
:101A6000421D1EA2102F043008F013E01A8F1FA38E
:101A70006E0122E0C20ED11CC6010E940408CE01F4
:101A80000E960E940408CA87DB8784E090E0A0E0FD
:101A9000B0E0811B9109A109B1098E879F87A88BAE
:101AA000B98BCE8BDF8BA201B501C3010E94A008C8
:101AB00088839983E114F10419F0F701C083D1837D
:101AC0000FB6F8940F9280910A318F5F80930A319C
:101AD00080915E3190915F31892B89F5C0935E31A1
:101AE000D0935F3180910A318130C1F582E391E377
:101AF0000E94F3078DE391E30E94F30788E491E3EA
:101B00000E94F30783E591E30E94F30787E291E3E4
:101B10000E94F3078CE191E30E94F3078DE091E3CB
:101B20000E94F30787E291E380931A3190931B316F
:101B30008CE191E380931831909319310FC080911B
:101B4000033181110BC0E0915E31F0915F31828DE4
:101B5000081720F0C0935E31D0935F318A8D909149
:101B60000531981710F4809305319091FE309F5FF6
:101B70009093FE3090910431981710F480930431C3
:101B8000FBE08F9FC0011124B6018E5C9E4C0E9429
:101B900008080F900FBE80910331882359F0E0911F
:101BA0005E31F0915F31828D801730F40E945409CC
:101BB00081E009C081E007C081E005C0CB8EDC8EEA
:101BC000C6013BCF8FEFDF91CF911F910F91FF9017
:101BD000EF90DF90CF90BF90AF909F908F907F90CD
:101BE0006F905F904F9008950FB6F8940F92009702
:101BF00021F480915E3190915F310F900FBEFC0116
:101C0000828D0895AF92BF92CF92DF92EF92FF92B2
:101C10000F93A12CB12CC12CD12C0F2EFBE0EF2E59
:101C2000F1E3FF2EF02D00E020E030E044E650E04C
:101C300065E670E28CE99CE00E94F20C813069F468
:101C4000F89480930331109206311092073110926C
:101C50000831109209310E9416090F91FF90EF9000
:101C6000DF90CF90BF90AF900895809102318F5F49
:101C70008093023108950FB6F8940F926091063167
:101C80007091073180910831909109310F900FBE0A
:101C90000895009721F480915E3190915F314D96C7
:101CA000089580910B3190910C310895FF920F931C
:101CB0001F93CF93DF93809102318111EDC080910A
:101CC000063190910731A0910831B0910931019608
:101CD000A11DB11D8093063190930731A093083167
:101CE000B09309318091063190910731A09108316C
:101CF000B0910931892B8A2B8B2BF1F580911A3108
:101D000090911B31209118313091193120931A3163
:101D100030931B3180931831909319318091FF30AB
:101D20008F5F8093FF30E0911A31F0911B318081F9
:101D300081110CC08FEF9FEFDC0180930220909304
:101D40000320A0930420B093052016C0E0911A311F
:101D5000F0911B310780F085E02D0084F185E02DA6
:101D600082819381A481B581809302209093032086
:101D7000A0930420B0930520409106315091073183
:101D80006091083170910931809102209091032077
:101D9000A0910420B0910520481759076A077B07D6
:101DA00008F47FC0E0911A31F0911B3180818823C3
:101DB000F9F0E0911A31F0911B310780F085E02DA8
:101DC000C085D1858A819B81AC81BD8140910631DE
:101DD00050910731609108317091093148175907C6
:101DE0006A077B0758F10F2EFBE0FF2EF02D2FC066
:101DF0008FEF9FEFDC018093022090930320A0934C
:101E00000420B09305204DC0E0911A31F0911B31B0
:101E10000780F085E02DC085D1858A819B81AC81CA
:101E2000BD81409106315091073160910831709128
:101E30000931481759076A077B0748F48093022045
:101E400090930320A0930420B09305202AC08E0114
:101E50000E5F1F4FC8010E947A08888D998D892BCB
:101E600021F0CE010E960E947A088A8D909104315D
:101E7000981710F480930431F89EC0011124B80122
:101E80008E5C9E4C0E940808E0911A31F0911B3143
:101E900080818111B9CFACCF809101318F5F809368
:101EA0000131DF91CF911F910F91FF900895CF9253
:101EB000DF92EF92FF920F931F93CF93DF930FB6B2
:101EC000F8940F9280910231815080930231809179
:101ED0000231811160C080910A3181112CC05EC035
:101EE000D7011796ED91FC911897C085D185CE0149
:101EF0000E960E947A088E010E5F1F4FC8010E9445
:101F00007A088A8D90910431981710F480930431E7
:101F1000D89EC0011124B8018E5C9E4C0E94080816
:101F2000E0915E31F0915F319A8D828D981770F05B
:101F3000CC24C3940BC0C12C0F2EFDE0EF2EF1E397
:101F4000FF2EF02D0F2EFBE0DF2EF02DF70180810C
:101F50008111C6CF80910131882381F080910131B8
:101F6000882399F00E94560E809101318150809310
:101F70000131809101318111F5CF07C0F1E0CF1619
:101F800021F080910031813041F4109200310E94A3
:101F9000540981E003C080E001C080E00F900FBED3
:101FA000DF91CF911F910F91FF90EF90DF90CF9035
:101FB0000895CF92DF92EF92FF92CF93DF93EC01DF
:101FC0006A017B010E94350E88819981AA81BB81BB
:101FD000C80ED91EEA1EFB1E4091063150910731F2
:101FE0006091083170910931481759076A077B07DA
:101FF000B8F4C816D906EA06FB06E0F5809106316A
:1020000090910731A0910831B0910931C882D982ED
:10201000EA82FB828C159D05AE05BF05F8F413C05E
:10202000C816D906EA06FB0600F1809106319091A8
:102030000731A0910831B09109318C159D05AE058D
:10204000BF0598F017C080915E3190915F31029684
:102050000E947A08C701B6010E94A40C0E94570F83
:1020600081110DC00E9454090AC0C882D982EA8237
:10207000FB82E9CFC882D982EA82FB82EFCFDF916F
:10208000CF91FF90EF90DF90CF900895CF92DF92A5
:10209000EF92FF926B017C01672B682B692BE9F0B3
:1020A0000E94350E8091063190910731A091083140
:1020B000B0910931C80ED91EEA1EFB1E80915E3117
:1020C00090915F3102960E947A08C701B6010E9482
:1020D000A40C0E94570F811102C00E945409FF9066
:1020E000EF90DF90CF9008958091023181110CC064
:1020F000E09104314BE0E49FF0011124EE5CFE4CD2
:102100008081882329F014C081E0809300310895F4
:102110009BE080910431815080930431E09104313F
:102120009E9FF0011124EE5CFE4C8081882389F390
:1021300080910431282F30E04BE0849FC0011124AE
:10214000DC01AE5CBE4C1196ED91FC9112970480BF
:10215000F581E02D1196ED93FC9312978B5C9E4CCC
:10216000E817F90761F4848195814BE0429FF00103
:10217000439FF00D1124EE5CFE4C818392838BE033
:10218000829FF001839FF00D1124EE5CFE4C0180D4
:10219000F281E02D8085918580935E3190935F314F
:1021A0000895CF92DF92EF92FF926A017B016091D6
:1021B0005E3170915F31625F7F4F0E942F08809186
:1021C0005E3190915F3102960E947A0880910631CB
:1021D00090910731A0910831B0910931BC01CD0136
:1021E0006C0D7D1D8E1D9F1D0E94A40CFF90EF9015
:1021F000DF90CF9008950F931F93CF93DF93DC016F
:102200001796ED91FC911897C085D1858E01025FDC
:102210001F4FC8010E947A0880910231811116C0B7
:102220000C501109C8010E947A088A8D90910431DE
:10223000981710F480930431BBE08B9FC0011124E8
:10224000B8018E5C9E4C0E94080805C0B8018DE064
:1022500091E30E940808E0915E31F0915F3181E0E6
:102260002A8D928D291708F480E0DF91CF911F917C
:102270000F9108952091FF30FC0120834091063199
:102280005091073160910831709109314183528337
:102290006383748308958F929F92AF92BF92CF927F
:1022A000DF92EF92FF920F931F93CF93DF93FC0186
:1022B0000FB6F8940F928091FF309081981789F0B3
:1022C0008091063190910731A0910831B091093188
:1022D000018112812381348180179107A207B307FE
:1022E000A8F58091063190910731A0910831B09105
:1022F0000931C180D280E380F480EB01088119812B
:102300002A813B818C199D09AE09BF09801791076D
:10231000A207B307E8F4CF0180900631909007310F
:10232000A0900831B0900931B501A4014C195D09A4
:102330006E097F09041B150B260B370B08831983C5
:102340002A833B830E943A1180E003C081E001C0F0
:1023500081E00F900FBEDF91CF911F910F91FF9001
:10236000EF90DF90CF90BF90AF909F908F900895A7
:1023700081E0809300310895009721F480915E31CF
:1023800090915F31DC015B96ED91FC915C978081CF
:10239000813141F4319680E090E001962191213124
:1023A000E1F3089580E090E0089580915E3190918E
:1023B0005F3108950F931F93CF93DF93FC01228D1C
:1023C000A0915E31B0915F315A968C91281708F038
:1023D00041C0A0915E31B0915F315A963C9184E04A
:1023E00090E0A0E0B0E0831B9109A109B1098687C4
:1023F0009787A08BB18B8BE0289F900111242E5CD6
:102400003E4C8485958582179307E9F48F01EF018F
:102410002296CE010E947A08E0915E31F0915F3100
:10242000828DF801828F90910431981710F4809377
:102430000431FBE08F9FC0011124BE018E5C9E4CD5
:102440000E94080807C0A0915E31B0915F315A9692
:102450008C91828FDF91CF911F910F9108950F93EF
:102460001F93CF93DF93009749F1FC01328D27A191
:10247000321721F1EC018C010E5F1F4FC8010E9441
:102480007A088FA18A8F44E050E060E070E0481B3A
:102490005109610971094E875F87688B798B90912B
:1024A0000431981710F480930431FBE08F9FC00132
:1024B0001124B8018E5C9E4C0E940808DF91CF91D8
:1024C0001F910F910895EC01E881F9810190F0814D
:1024D000E02D19951A821B826FEF7FEFCB010E94CE
:1024E0004610FACFFC016487658708954F925F928A
:1024F0006F927F928F929F92AF92BF92CF92DF9214
:10250000EF92FF920F931F93CF93DF93CDB7DEB778
:102510002A97CDBFDEBF4C01290138018EE690E23B
:10252000F40180839183FB018081882369F0DE01BF
:102530001196319690E002C0993039F09F5F8D93EB
:1025400081918111F9CF01C090E0E1E0F0E0EC0F62
:10255000FD1FE90FF11D10827401F2E0EF0EF11C76
:10256000A12CB12CC12CD12C042F9401A201BE01AD
:102570006F5F7F4F86EA92E00E94F20CF401668260
:102580007782408651862091603130916131248379
:102590003583809260319092613114861586409027
:1025A000943150909531FFEF4F1A5F0A4092943169
:1025B00050929531F4014286538616861786108A0A
:1025C000118A6114710409F444C0813079F56AE01C
:1025D000C3010E94DB177C0169E974E00E94A41723
:1025E000BE016F5F7F4FC7010E94A4176AE0C70159
:1025F0000E94DB177C0160E974E00E94A4176AE086
:10260000C7010E94DB177C0162E874E00E94A417F6
:1026100063E0C7010E94DB17B2010E943A1862E032
:102620000E94DB1766E00E94DB1713C06AE0C3015B
:102630000E94DB174C016DE674E00E94A417BE01F6
:102640006F5F7F4FC4010E94A41766E0C4010E941F
:10265000DB172A96CDBFDEBFDF91CF911F910F917F
:10266000FF90EF90DF90CF90BF90AF909F908F90B2
:102670007F906F905F904F900895CF92DF92EF928E
:10268000FF920F931F93CF93DF93EC017B018A811D
:102690009B810E94490E6C016AE0C7010E94DB1712
:1026A0008C016CEA74E00E94A4176AE0C8010E94E1
:1026B000DB178C0165EA74E00E94A417B601C8011B
:1026C0000E94A4176AE0C8010E94DB178C016FE921
:1026D00074E00E94A41766E0C8010E94DB178A8597
:1026E0009B85E885F98501E121E0A701BC018E1BEE
:1026F0009F0B0E943F168C819D81009719F0B701B6
:102700000E943D13DF91CF911F910F91FF90EF90A9
:10271000DF90CF9008950F931F93CF93DF93EC0139
:102720008091603190916131009719F0BE010E9453
:102730003D136AE0CE010E94DB178C0162EC74E06D
:102740000E94A4176AE0C8010E94DB178C0167EBA6
:1027500074E00E94A4176AE0C8010E94DB178C0194
:1027600061EB74E00E94A41766E0C8010E94DB17C9
:102770008091943190919531BC016F5F7F4F01E161
:1027800021E0AE01835691090E943F16DF91CF915F
:102790001F910F9108958F929F92AF92BF92CF9207
:1027A000DF92EF92FF920F931F93CF93DF93EC0191
:1027B0008B018A819B810E94490EBC01C8010E9445
:1027C000A417D801ED91FC910280F381E02D69E01E
:1027D000C80119958A819B810E94490EFC010190D4
:1027E0000020E9F73197E81BF90B389748F4D80136
:1027F000ED91FC910280F381E02D69E0C80119950B
:10280000CE84DF84E888F988A884B9848A819B8192
:102810000E94BC11982E8C848A819B810E94F40DA9
:10282000682FC8010E94B0186AE00E94DB17EC0113
:1028300067E375E00E94A417682DCE010E94B018CE
:102840006AE00E94DB17EC0165E375E00E94A417C3
:10285000692DCE010E94B0186AE00E94DB17EC01DE
:1028600063E375E00E94A417B501CE010E943A18F7
:102870006AE00E94DB17EC0161E375E00E94A41797
:102880006AE0CE010E94DB17EC016FE275E00E9466
:10289000A417B701A601CE010E946E18DF91CF9157
:1028A0001F910F91FF90EF90DF90CF90BF90AF906E
:1028B0009F908F900895CF93DF93EC01CB01DB01C4
:1028C000ED91FC910280F381E02DBE011995CE01BE
:1028D000DF91CF9108950F931F93CF93DF93EC0176
:1028E0008B01BC01C8010E945B1466E00E94DB17EB
:1028F0008C819D81009719F0B8010E946B14DF91C3
:10290000CF911F910F9108950F931F93CF93DF9352
:10291000EC016AE00E94DB178C0164E275E00E9422
:10292000A4176AE0C8010E94DB178C016DE175E015
:102930000E94A41766E0C8010E94DB176AE0CE017E
:102940000E94DB178C016CE075E00E94A4176AE01E
:10295000C8010E94DB178C0160E075E00E94A4179B
:102960006AE0C8010E94DB178C016AEF74E00E94E4
:10297000A41766E0C8010E94DB176AE0CE010E943E
:10298000DB178C0169EE74E00E94A4176AE0C801AD
:102990000E94DB178C016DED74E00E94A4176AE0C1
:1029A000C8010E94DB178C0167ED74E00E94A41738
:1029B00066E0C8010E94DB1780916031909161311F
:1029C000009719F0BE010E946B140E94510E0E94E4
:1029D000BC11182F6AE0CE010E94DB17EC016CECF1
:1029E00074E00E94A417612FCE010E94B0186AE023
:1029F0000E94DB17EC016AEC74E00E94A41764E605
:102A000070E0CE010E943A186AE00E94DB17EC01E8
:102A100067EC74E00E94A41766E0CE010E94DB1709
:102A2000DF91CF911F910F9108950F93CF93DF9373
:102A30001F92CDB7DEB700E02FEF3FEFA901BE0137
:102A40006F5F7F4FFC01808591850E94D00B8130A4
:102A500019F4898190E002C08FEF9FEF0F90DF9112
:102A6000CF910F910895FC01808591850E94940C6F
:102A700091E0811101C090E0892F08950F93CF93C9
:102A8000DF931F92CDB7DEB76983FC0122853385C2
:102A90004485558500E0BE016F5F7F4F808591853D
:102AA0000E94350B91E0811101C090E0892F0F90B9
:102AB000DF91CF910F9108958F929F92BF92CF9205
:102AC000DF92EF92FF920F931F93CF93DF93EC016E
:102AD000B62E4A01680179010E94961786E790E2B6
:102AE000888399838E869F8640E061E08B2D0E94CB
:102AF000070B88879987CA86DB86EC86FD86DF917F
:102B0000CF911F910F91FF90EF90DF90CF90BF90EA
:102B10009F908F900895CF92DF92EF92FF92CF9384
:102B2000DF93EC01688179818A819B810F2EF8EE19
:102B3000CF2EF3E0DF2EE12CF12CF02DA701960132
:102B40000E94CE1C9B01AC0160E472E48FE090E037
:102B50000E94BE1CA70196010E94CE1C69017A0149
:102B6000AC81BD8120E432E44FE050E00E94181DAA
:102B700020E038E448EE51E00E94CE1CC701B601C7
:102B8000620F731F841F951FDF91CF91FF90EF900D
:102B9000DF90CF900895CF92DF92EF92FF920F9344
:102BA0001F93CF93DF93CDB7DEB72F97CDBFDEBF97
:102BB0006C018B01DB016D917D918D919C9128EED3
:102BC00033E040E050E00E94CE1CBA01A901C601EA
:102BD0000E946E18D601ED91FC910280F381E02DE8
:102BE0006EE2C6011995C8010E948B158E01095F1E
:102BF0001F4FFE0131967F012AE030E040E050E0B7
:102C00000E94F01CE62F288739874A875B876885F2
:102C100079858A859B8520E32E0FD8012E938D011F
:102C2000AE15BF0549F71F82BE016F5F7F4FC6011A
:102C30000E94A417C6012F96CDBFDEBFDF91CF91B2
:102C40001F910F91FF90EF90DF90CF900895CF9359
:102C5000DF93EC010FB6F8940F92809120089091C9
:102C600021088C839D830E943B0E688379838A832D
:102C70009B830F900FBECE01DF91CF9108955F929D
:102C80006F927F928F929F92AF92BF92CF92DF927C
:102C9000EF92FF920F931F93CF93DF935C014B0151
:102CA0007A01122F702E63E0CA010E94DB17A8146C
:102CB000B90408F07DC0650184E1C80ED11C00E0B4
:102CC0006A2C5B2CB501C7010E943A186AE00E9489
:102CD000DB1769E475E00E94A417112309F46DC0A5
:102CE000002309F46AC06AE0C7010E94DB1764E4AC
:102CF00075E00E94A41761C0112371F001110CC08E
:102D00008881871549F06AE0C7010E94DB176FE3ED
:102D100075E00E94A41701E06991C7010E94B018F4
:102D2000DC01ED91FC910280F381E02D60E21995C8
:102D3000CC16DD0609F7112389F06AE0C7010E946D
:102D4000DB17EC0169E375E00E94A417E881F981C3
:102D50000280F381E02D60E2CE011995C62DD52DBC
:102D6000699180EE860F8F3548F4D701ED91FC9183
:102D70000280F381E02DC701199509C0D701ED91BB
:102D8000FC910280F381E02D6EE2C7011995CC160B
:102D9000DD0631F7B4E1AB0EB11C66E0C7010E945D
:102DA000DB1784E1C80ED11CA814B90408F488CF3D
:102DB00062E0C7010E94DB1703C0C62DD52D9CCF52
:102DC000DF91CF911F910F91FF90EF90DF90CF9007
:102DD000BF90AF909F908F907F906F905F9008957D
:102DE0000E94210708950E94210708950895CF9316
:102DF000DF93FC01DA01403A68E0560749F480E4C9
:102E000096E08283938382E0848383E0858332C06B
:102E1000403B78E0570749F480E496E0828393834F
:102E200086E0848387E0858325C0403A89E058079F
:102E300049F480E696E08283938382E0848383E092
:102E4000858318C0403B69E0560749F480E696E068
:102E50008283938386E0848387E085830BC0403A36
:102E60005A4041F480E896E08283938382E0848331
:102E700083E08583A683B783CD0101968087918700
:102E80000396828793872581C281D3814C8181E01B
:102E900090E0BC0102C0660F771F2A95E2F79B0104
:102EA000242B2C832581C281D3814881BC0102C09F
:102EB000660F771F2A95E2F79B01242B2883348124
:102EC000C281D381288102C0880F991F3A95E2F709
:102ED000809590958223888380E113968C93139735
:102EE00083E015968C93159780EF17968C93179720
:102EF00081E216968C93169788E114968C9380E85D
:102F0000858780E4868780E284870680F781E02DCC
:102F100080818081DF91CF91089581E0089580E0E4
:102F200090E0089580E0089508950895FC0186E8F2
:102F300090E2808391838AE08283138283E0858399
:102F400014821682178208950F931F93CF93DF93F5
:102F50008C01FB01DC0114968C91811104C060810D
:102F6000611117C023C0D80114961C92EB01219661
:102F700064916623D9F0D801ED91FC910280F38130
:102F8000E02DC8011995FE01649121966111F3CFDE
:102F90000DC0EF012196D801ED91FC910280F381E3
:102FA000E02DC801199569916111F5CFDF91CF919D
:102FB0001F910F910895CF93DF93EC01862F90E03E
:102FC0008B309105D8F5FC018827E250FF4F8F4FD9
:102FD0000C940F1D82E08A8331C088E08A832EC062
:102FE0008AE08A832BC080E18A8328C081E08B83BA
:102FF00025C01B8223C0E881F9810280F381E02D86
:103000006DE0CE011995E881F9810280F381E02D10
:103010006AE0CE01199512C0E881F9810284F38536
:10302000E02DCE0119950AC0E881F9810084F1856F
:10303000E02DCE01199502C081E08C83CE01DF9195
:10304000CF910895CF93DF93EC01662341F0E8819F
:10305000F9810280F381E02D64E5199507C0E881CC
:10306000F9810280F381E02D66E41995CE01DF91AC
:10307000CF910895FF920F931F93CF93DF93CDB716
:10308000DEB76197CDBFDEBF8C01F62E972FF8011A
:103090004281403121F0483011F0423041F4692F33
:1030A000C8010E94B0186F2D0E94B0180DC050E0EA
:1030B000BE016F5F7F4F8F2D0E947E1DBE016F5F2F
:1030C0007F4FC8010E94A417C8016196CDBFDEBF23
:1030D000DF91CF911F910F91FF900895DF92EF92B2
:1030E000FF920F931F93CF93DF93CDB7DEB7A197D6
:1030F000CDBFDEBF8C01D42EE52EF62E972FF80122
:103100002281203121F0283011F0223071F4692F12
:10311000C8010E94B0186F2D0E94B0186E2D0E9439
:10312000B0186D2D0E94B0180FC030E0AE014F5F97
:103130005F4F6D2D7E2D8F2D0E94511DBE016F5F43
:103140007F4FC8010E94A417C801A196CDBFDEBF62
:10315000DF91CF911F910F91FF90EF90DF90089535
:10316000CF92DF92EF92FF920F931F93CF93DF9353
:10317000CDB7DEB72997CDBFDEBF8C01E62EDC01CF
:1031800013968C911397882341F0ED91FC91028066
:10319000F381E02DC801199556C0F80142814230F3
:1031A00019F56894CC24C3F8D12C6894FF24F7F85F
:1031B0008E2D8F2151F0D801ED91FC910280F38189
:1031C000E02D61E3C801199509C0D801ED91FC918A
:1031D0000280F381E02D60E3C8011995F694B1E017
:1031E000CB1AD10829F72FC04031F9F462956F70DE
:1031F0000190F081E02D0280F381E02D6A3010F023
:10320000695C01C0605DC80119956E2D6F70D801B1
:10321000ED91FC910280F381E02D6A3010F0695C41
:1032200001C0605DC80119950EC050E0BE016F5F1E
:103230007F4F8E2D90E00E947E1DBE016F5F7F4FFD
:10324000C8010E94A417C8012996CDBFDEBFDF9137
:10325000CF911F910F91FF90EF90DF90CF90089545
:10326000DC015096ED91FC915197808154964C91E0
:103270005497842329F009C02150310919F412C050
:1032800021E23EE490819423B9F3908156968C918B
:103290005697892B80831E96ED91FC911F97608332
:1032A00081E0089580E00895CF93DF93FC01C18D04
:1032B000D28D28813981A38DB48D4D915C912417D5
:1032C0003507E9F3A789B08D0D90BC91A02DA20F11
:1032D000B31F8C912F5F3F4F2883398324363105EC
:1032E00028F0018CF28DE02D1082118290E0DF91A8
:1032F000CF910895CF93DF93EC01A98DBA8DEB8D1B
:10330000FC8D81E04D915C91208131814217530702
:1033100009F480E0DF91CF910895DC01ED91FC91FB
:103320000280F381E02D6CE019950895EF92FF92F1
:103330000F931F93CF93DF93EC017B018A010E94CF
:103340009617A801B701CE0108960E94F71686E9E4
:1033500090E288839983003A88E0180769F48EE741
:1033600091E38F8B988F84E791E3898F9A8F8AE618
:1033700091E38B8F9C8F42C0003BE8E01E0769F40D
:103380008CE791E38F8B988F82E791E3898F9A8FF7
:1033900088E691E38B8F9C8F31C0003AF9E01F07DC
:1033A00069F48AE791E38F8B988F80E791E3898FA7
:1033B0009A8F86E691E38B8F9C8F20C0003B89E03B
:1033C000180769F488E791E38F8B988F8EE691E375
:1033D000898F9A8F84E691E38B8F9C8F0FC0003A80
:1033E0001A4061F486E791E38F8B988F8CE691E326
:1033F000898F9A8F82E691E38B8F9C8F0F89188D2E
:1034000084E690E00E94F316F80180839183E98DB1
:10341000FA8D10821182EB8DFC8D10821182DF916A
:10342000CF911F910F91FF90EF9008951F920F92EF
:103430000FB60F92112408B60F9218BE0BB60F925A
:103440001BBE2F933F938F939F93EF93FF932091F6
:10345000A008E0917E31F0917F3180916A319091A6
:103460006B31E80FF91F208380916A3190916B31A5
:1034700001968436910560F480936A3190936B31A4
:10348000209174313091753182179307F1F40CC09B
:1034900010926A3110926B31809174319091753134
:1034A0001816190691F40EC001968436910528F479
:1034B000809374319093753108C0109274311092DA
:1034C000753103C081E090E0F3CFFF91EF919F91C0
:1034D0008F913F912F910F900BBE0F9008BE0F90D0
:1034E0000FBE0F901F9018951F920F920FB60F925C
:1034F000112408B60F9218BE0BB60F921BBE2F9365
:103500003F938F939F93EF93FF932091B008E091A7
:103510007C31F0917D318091683190916931E80F73
:10352000F91F20838091683190916931019684362A
:10353000910560F4809368319093693120917231E4
:103540003091733182179307F1F40CC010926831F7
:103550001092693180917231909173311816190669
:1035600091F40EC001968436910528F4809372314F
:103570009093733108C0109272311092733103C06E
:1035800081E090E0F3CFFF91EF919F918F913F9178
:103590002F910F900BBE0F9008BE0F900FBE0F9093
:1035A0001F9018951F920F920FB60F92112408B614
:1035B0000F9218BE0BB60F921BBE2F933F938F93A3
:1035C0009F93EF93FF932091A009E0917A31F091BE
:1035D0007B3180916A3190916B31E80FF91F208324
:1035E000809166319091673101968436910560F43F
:1035F00080936631909367312091703130917131B1
:1036000082179307F1F40CC0109266311092673163
:1036100080917031909171311816190691F40EC095
:1036200001968436910528F480937031909371311E
:1036300008C0109270311092713103C081E090E0A7
:10364000F3CFFF91EF919F918F913F912F910F9029
:103650000BBE0F9008BE0F900FBE0F901F901895D5
:103660001F920F920FB60F92112408B60F9218BE38
:103670000BB60F921BBE2F933F938F939F93EF93A5
:10368000FF932091B009E0917831F09179318091E8
:10369000643190916531E80FF91F20838091643186
:1036A0009091653101968436910560F48093643180
:1036B0009093653120916E3130916F31821793076D
:1036C000F1F40CC0109264311092653180916E312A
:1036D00090916F311816190691F40EC00196843638
:1036E000910528F480936E3190936F3108C0109249
:1036F0006E3110926F3103C081E090E0F3CFFF9103
:10370000EF919F918F913F912F910F900BBE0F9052
:1037100008BE0F900FBE0F901F9018951F920F922A
:103720000FB60F92112408B60F9218BE0BB60F9267
:103730001BBE2F933F938F939F93EF93FF93209103
:10374000A00AE0917631F0917731809162319091C9
:103750006331E80FF91F20838091623190916331CA
:1037600001968436910560F48093623190936331C1
:1037700020916C3130916D3182179307F1F40CC0B8
:10378000109262311092633180916C3190916D3161
:103790001816190691F40EC001968436910528F486
:1037A00080936C3190936D3108C010926C311092FF
:1037B0006D3103C081E090E0F3CFFF91EF919F91D5
:1037C0008F913F912F910F900BBE0F9008BE0F90DD
:1037D0000FBE0F901F9018950F93CF93DF931F92FA
:1037E000CDB7DEB72FB72983F8941BBEFC0108EDD7
:1037F00004BF608389818FBF0F90DF91CF910F91BC
:103800000895EF920F931F93CF93DF93CDB7DEB759
:103810006D97CDBFDEBFE0E6F6E080E18183858372
:10382000F894E0E5F0E0808182608083818181FF0F
:10383000FDCF60914000687F616080E490E00E946D
:10384000EC1BE0E5F0E080818E7F80839DEF88EDCA
:1038500008B618BE84BF9093800008BE40EB58E0C5
:1038600060E070E0CE0101960E94961967E0CE01FB
:1038700001960E94DB178C0162EA70E20E94A41795
:1038800066E0C8010E94DB1766E00E94DB1782E158
:1038900090E00E94F0168E010F5F1F4F24E031E090
:1038A00040E061EC70E20E94B10483E190E00E948C
:1038B000F016EE24E39424E031E044E069EC70E299
:1038C0000E94D60383E190E00E94F0166894EE24F3
:1038D000E2F824E031E044E060ED70E20E94D603BB
:1038E00082E190E00E94F01624E031E044E068EDCF
:1038F00070E20E946F0482E190E00E94F01624E0E2
:1039000031E043E06FED70E20E943D0482E190E01F
:103910000E94F01624E031E042E066EE70E20E9480
:10392000A10482E190E00E94F01624E031E041E041
:103930006EEE70E20E940B0487E08093A200789400
:103940000E94020E80E090E06D96CDBFDEBFDF9159
:10395000CF911F910F91EF9008950F931F930AE05D
:1039600010E020E030E040E050E060E270E084E809
:1039700091E30E945C151F910F910895DB018F93D5
:103980009F930E94181DBF91AF91A29F800D911D22
:10399000A39F900DB29F900D11240895A1E21A2EBD
:1039A000AA1BBB1BFD010DC0AA1FBB1FEE1FFF1FE3
:1039B000A217B307E407F50720F0A21BB30BE40B33
:1039C000F50B661F771F881F991F1A9469F760957A
:1039D0007095809590959B01AC01BD01CF01089534
:1039E000052E97FB1EF400940E94071D57FD07D07B
:1039F0000E94CE1C07FC03D04EF40C94071D50957A
:103A00004095309521953F4F4F4F5F4F08959095CA
:103A10008095709561957F4F8F4F9F4F0895EE0F62
:103A2000FF1F881F8BBF0790F691E02D1BBE1994D6
:103A30000E94231DA59F900DB49F900DA49F800D03
:103A4000911D11240895A29FB001B39FC001A39FAF
:103A5000700D811D1124911DB29F700D811D1124C7
:103A6000911D0895FB01DC0102C001900D924150AF
:103A70005040D8F70895DC0101C06D93415050408B
:103A8000E0F70895FB01DC014150504048F00190FF
:103A90000D920020C9F701C01D9241505040E0F73F
:103AA00008952532310520F4223010F00C945C1D6D
:103AB000FA011082CA010895BB27FA01A62F6217E6
:103AC000710581059105330B30FB66F0AA27660F5F
:103AD000771F881F991FAA1FA21710F0A21B6395BA
:103AE0003850A9F7A05DAA3308F0A95DA19336F775
:103AF000B111B1931082CA010C94A31D4532510536
:103B000020F4423010F00C94891DFB011082CB018F
:103B10000895BB27FB015527AA27880F991FAA1FC5
:103B2000A41710F0A41B83955051B9F7A05DAA33D8
:103B300008F0A95DA193009779F7B111B1931192A3
:103B4000CB010C94A31DDC01FC01672F719177233D
:103B5000E1F7329704C07C916D9370836291AE1748
:0A3B6000BF07C8F30895F894FFCFE3
:103B6A00FF0FFFFFFFFF4C6566740009005269678B
:103B7A006874006C6566744C696D69743A20006CEF
:103B8A00696D6974733A200072696768744C696D6B
:103B9A0069743A200000000000E102CB1300000023
:103BAA0000E903CB13000000001B04CB1300000044
:103BBA00004D04CB13000000007F04CB130000006B
:103BCA0000F405CB1349444C450000000000F616EA
:103BDA00CB13000000008D173E15331515159417E9
:103BEA009517000000008D17F61692178F17941775
:103BFA009517000000008D1730197A195419941777
:103C0A008D194672656552544F5320586D65676128
:103C1A002054657374696E672050726F6772616DA4
:103C2A000055736572496E74004C6566745377006B
:103C3A005269676874537700456E6350656E004534
:103C4A006E634D7472005379734374726C004D74D1
:063C5A0072436D640000DE
:00000001FF
