S01600004652454552544F535F5348454C4C2E73726563CD
S11300000C94BB020C94F1020C94F1020C94F102D6
S11300100C94F1020C94F1020C94F1020C94F10290
S11300200C94F1020C94F1020C94F1020C94F10280
S11300300C94F1020C94F1020C94F1020C94F10270
S11300400C94F1020C94F1020C94F1020C94F10260
S11300500C94F1020C94F1020C94F1020C94F10250
S11300600C94F1020C94BC100C94F1020C94F10267
S11300700C945E100C94F1020C94F1020C94F102B5
S11300800C94F1020C94F1020C94F1020C94F10220
S11300900C94F1020C94F1020C94F1020C94F10210
S11300A00C94F1020C94F1020C94F1020C94F10200
S11300B00C94F1020C94F1020C94F1020C94F102F0
S11300C00C94F1020C9491140C94F1020C94F1022E
S11300D00C94F1020C94F1020C94F1020C94F102D0
S11300E00C94F1020C94F1020C94440F0C94F10260
S11300F00C94F1020C94F1020C94F1020C94F102B0
S11301000C94F1020C94F1020C94F1020C94F1029F
S11301100C94F1020C94F1020C94F1020C94F1028F
S11301200C94F1020C94F1020C94F1020C94F1027F
S11301300C94F1020C94F1020C94F1020C94F1026F
S11301400C94F1020C94F1020C94F1020C94F1025F
S11301500C94F1020C94F1020C94F1020C94F1024F
S11301600C9400100C94F1020C94F1020C94A20F64
S11301700C94F1020C94F1020C94F1020C94F1022F
S11301800C94F1020C94F1020C94F1020C94F1021F
S11301900C94F1020C94F1020C94F1020C94F1020F
S11301A00C94F1020C94F1020C94F1020C94F102FF
S11301B00C94F1020C94F1020C94F1020C94F102EF
S11301C00C94F1020C94F1020C94F1020C94F102DF
S11301D00C94F1020C94F1020C94F1020C94F102CF
S11301E00C94F1020C94F1020C94F1020C94F102BF
S11301F00C94F1020C94F1020C94F1021A041D0403
S113020020042304260429042B043C0444044E043F
S11302104C040C94680C0C941A040C94640D0C9407
S11302204E040C9474030C94A80C0C94E1070C94E5
S11302302F0C0C9423040C94260C0C94F40C0C94A6
S113024012030C94E9030C948C0C0C94420C0C9443
S11302504C040C944B030C940C030C940C0D0C9454
S11302604C0D0C9414030C9426040C94880D0C94DB
S1130270340D0C9456030C94AF0C0C943C040C9465
S113028083030C94BA0C0C9444040C940D030C9446
S1130290E80C0C940B030C9420040C94C40C0C94E4
S11302A01D0D0C9429040C949E0C0C945B060C9468
S11302B02B040C94760D0C941D040C94C7030C941D
S11302C00F030C94A5030C942D030C9471170C9438
S11302D0480A0C94930C0C94D00C0909002F004983
S11302E0444C45090930092D0900092D2D2D2D00F7
S11302F0092D2D2D2D2D2D2D2D2D2D002D2D2D2D7B
S113030009092D2D2D2D092D2D2D2D2D0009527569
S11303106E730009467265652F546F74616C004EEC
S1130320616D6509095072692E0953746174650021
S113033009537461636B005461736B0909202009CC
S113034020002C20544343304343413D002F002CD4
S1130350204865617020667265653A200054696DB5
S1130360653A20004665622032332032303235004F
S11303704D45343035206261736520726164696F64
S11303802070726F6772616D2056302E3420001B0E
S11303905B32326D005461736B3A2049444C450022
S11303A01B5B316D00496C6C6567616C2073746113
S11303B074652120526573657474696E67204156B3
S11303C052003A5754463F004578697420636F6D74
S11303D06D616E64206D6F6465005265736574743D
S11303E0696E6720415652005072657373204374DE
S11303F0726C2D4120666F7220636F6D6D616E6447
S1130400206D6F64650020202020683A2020204859
S1130410414C50210020202020653A20202045789E
S1130420697420636F6D6D616E64206D6F64650027
S113043020202020733A202020537461636B2064B1
S1130440756D7020666F72207461736B7300202069
S11304502020763A20202056657273696F6E2061E1
S11304606E6420736574757020696E666F726D6159
S113047074696F6E00202020206E3A20202053687B
S11304806F77207468652074696D65207269676888
S113049074206E6F77002020496E20636F6D6D614C
S11304A06E64206D6F6465206F6E6C793A00202055
S11304B043746C2D413A20456E74657220636F6DF0
S11304C06D616E64206D6F646500202043746C2D33
S11304D0433A20526573657420746865204156520E
S11304E0002068656C70004D4534303520626173BE
S11304F06520726164696F2070726F6772616D202C
S113050056302E3420001B5B33306D001B5B3436B9
S11305106D004552524F52206372656174696E6773
S1130520207461736B20002C20737461636B2061F1
S113053074203078002063726561746564005461CE
S1130540736B20001B5B32326D005461736B3A2075
S1130550001B5B316D00090009002F000900090030
S11305601B5B32326D001B5B316D001B5B316D0018
S113057020200000880D11241FBECFEFCDBFDFE384
S1130580DEBF00E00CBF18BE19BE1ABE1BBE11E2CE
S1130590A0E0B0E2EEE5FCE300E00BBF02C0079090
S11305A00D92AA31B107D9F71BBE21E3AAE1B1E24A
S11305B001C01D92AC3BB207E1F712E0CBEBD2E0F5
S11305C000E006C021970109802FFE010E940A1E47
S11305D0CA3BD10780E00807A9F70E94AC0D0C9430
S11305E02D1E0C940000CF93DF93EC01662341F0A1
S11305F0E881F9810280F381E02D64E5199507C053
S1130600E881F9810280F381E02D66E41995CE0139
S1130610DF91CF9108950895089580E0089580E0D2
S113062090E0089581E008950895CF93DF93EC015D
S11306300FB6F8940F9280912008909121088C8332
S11306409D830E941019688379838A839B830F900A
S11306500FBECE01DF91CF9108950F93CF93DF9317
S11306601F92CDB7DEB700E02FEF3FEFA901BE0127
S11306706F5F7F4FFC01808591850E9475168130E4
S113068019F4898190E002C08FEF9FEF0F90DF9102
S1130690CF910F910895FC01808591850E94661782
S11306A091E0811101C090E0892F08950F93CF93B9
S11306B0DF931F92CDB7DEB76983FC0122853385B2
S11306C04485558500E0BE016F5F7F4F808591852D
S11306D00E94AE1591E0811101C090E0892F0F9026
S11306E0DF91CF910F910895EC01E881F981019098
S11306F0F081E02D19951A821B826FEF7FEFCB01F9
S11307000E941B1BFACFCF93DF9300D01F92CDB76B
S1130710DEB78C010E94101969837A838B839C83D2
S1130720F80186859785A089B1890196A11DB11D1F
S113073086879787A08BB18B41E050E060E070E042
S1130740CE0101960E94AE1AEBCFCF93DF9300D077
S11307501F92CDB7DEB78C010E94101969837A838A
S11307608B839C83F80186859785A089B18901963E
S1130770A11DB11D86879787A08BB18B41E050E006
S113078060E070E0CE0101960E94AE1AEBCFCF93E9
S1130790DF9300D01F92CDB7DEB78C010E941019F1
S11307A069837A838B839C83F80186859785A089E6
S11307B0B1890196A11DB11D86879787A08BB18B46
S11307C041E050E060E070E0CE0101960E94AE1A74
S11307D0EBCFCF93DF9300D01F92CDB7DEB78C0160
S11307E00E94101969837A838B839C83F801868520
S11307F09785A089B1890196A11DB11D8687978728
S1130800A08BB18B41E050E060E070E0CE01019636
S11308100E94AE1AEBCFCF93DF93EC01862F90E0CA
S11308208B309105D8F5FC018827E250FF4F8F4F9C
S11308300C940A1E82E08A8331C088E08A832EC029
S11308408AE08A832BC080E18A8328C081E08B837D
S113085025C01B8223C0E881F9810280F381E02D49
S11308606DE0CE011995E881F9810280F381E02DD4
S11308706AE0CE01199512C0E881F9810284F385FA
S1130880E02DCE0119950AC0E881F9810084F18533
S1130890E02DCE01199502C081E08C83CE01DF9159
S11308A0CF9108950F931F93CF93DF93EC018B01A6
S11308B0E881F9810280F381E02D199566E0C80191
S11308C00E940B048C819D81009719F0B8010E944D
S11308D05204DF91CF911F910F9108950F931F93AD
S11308E0CF93DF938C01FB01DC0114968C91811171
S11308F004C06081611117C023C0D80114961C92F2
S1130900EB01219664916623D9F0D801ED91FC9115
S11309100280F381E02DC8011995FE0164912196AE
S11309206111F3CF0DC0EF012196D801ED91FC9137
S11309300280F381E02DC801199569916111F5CF09
S1130940DF91CF911F910F910895DF92EF92FF9263
S11309500F931F93CF93DF93CDB7DEB7A197CDBF8E
S1130960DEBF8C01D42EE52EF62E972FF8012281BE
S1130970203121F0283011F0223071F4692FC801A0
S11309800E941A116F2D0E941A116E2D0E941A11C5
S11309906D2D0E941A110FC030E0AE014F5F5F4F02
S11309A06D2D7E2D8F2D0E94981DBE016F5F7F4F90
S11309B0C8010E946E04C801A196CDBFDEBFDF91BD
S11309C0CF911F910F91FF90EF90DF900895FF92C8
S11309D00F931F93CF93DF93CDB7DEB76197CDBF4E
S11309E0DEBF8C01F62E972FF8014281403121F0B1
S11309F0483011F0423041F4692FC8010E941A11A5
S1130A006F2D0E941A110DC050E0BE016F5F7F4F21
S1130A108F2D0E94C51DBE016F5F7F4FC8010E94CC
S1130A206E04C8016196CDBFDEBFDF91CF911F91E7
S1130A300F91FF9008955F926F927F928F929F9291
S1130A40AF92BF92CF92DF92EF92FF920F931F93D8
S1130A50CF93DF935C013B014A01122F502E63E0D8
S1130A60CA010E940B04A614B70408F07CC06501F7
S1130A7084E1C80ED11C00E07501B501C4010E94D7
S1130A80E7046AE00E940B0460E775E00E946E04CC
S1130A90112309F46DC0002309F46AC06AE0C4019B
S1130AA00E940B046BE675E00E946E0461C0112382
S1130AB071F001110CC08881851549F06AE0C40108
S1130AC00E940B0466E675E00E946E0401E06991E1
S1130AD0C4010E941A11DC01ED91FC910280F381A2
S1130AE0E02D60E21995CC16DD0609F7112389F093
S1130AF06AE0C4010E940B04EC0160E675E00E9408
S1130B006E04E881F9810280F381E02D60E2CE0178
S1130B101995F70161917F0180EE860F8F3548F4B6
S1130B20D401ED91FC910280F381E02DC40119956B
S1130B3009C0D401ED91FC910280F381E02D6EE2B5
S1130B40C4011995CE14DF0421F7B4E1AB0EB11C36
S1130B5066E0C4010E940B04E4E1CE0ED11CA6148D
S1130B60B70408F489CF62E0C4010E940B0402C0F8
S1130B70E7019DCFDF91CF911F910F91FF90EF90EF
S1130B80DF90CF90BF90AF909F908F907F906F90A9
S1130B905F9008958F929F92AF92BF92EF92FF92CF
S1130BA00F931F93CF93DF93CDB7DEB72F97CDBFAE
S1130BB0DEBF8C017B01DB016D917D918D919C9158
S1130BC00F2EF8EE8F2EF3E09F2EA12CB12CF02DDA
S1130BD0A50194010E94571DBA01A901C8010E94F0
S1130BE0A504D801ED91FC910280F381E02D6EE221
S1130BF0C8011995F7016081718182819381A501F2
S1130C0094010E94571D9B01AC0160E472E48FE0E3
S1130C1090E00E94FA1DA50194010E94571D49010C
S1130C205A01F701A481B58120E432E44FE050E099
S1130C300E94131E20E038E448EE51E00E94571D44
S1130C40C501B401620F731F841F951F7E01F7E075
S1130C50EF0EF11C9E012F5F3F4F59012AE030E057
S1130C6040E050E00E94381DE62F288739874A87E4
S1130C705B87688579858A859B8520E32E0FD7015C
S1130C802E937D01AA15BB0549F71F82BE016F5F34
S1130C907F4FC8010E946E04C8012F96CDBFDEBFEE
S1130CA0DF91CF911F910F91FF90EF90BF90AF9084
S1130CB09F908F9008958F929F92AF92BF92CF9200
S1130CC0DF92EF92FF920F931F93CF93DF93EC0188
S1130CD08B018A819B810E941E19BC01C8010E945C
S1130CE06E04D801ED91FC910280F381E02D69E05E
S1130CF0C80119958A819B810E941E19FC010190EB
S1130D000020E9F73197E81BF90B389748F4D8012C
S1130D10ED91FC910280F381E02D69E0C801199501
S1130D20CE84DF84E888F988A884B9848A819B8189
S1130D300E94911C982E8C848A819B810E94C918E0
S1130D40682FC8010E941A116AE00E940B04EC018A
S1130D506EE575E00E946E04682DCE010E941A11A2
S1130D606AE00E940B04EC016CE575E00E946E04DD
S1130D70692DCE010E941A116AE00E940B04EC0155
S1130D806AE575E00E946E04B501CE010E94E70495
S1130D906AE00E940B04EC0168E575E00E946E04B1
S1130DA06AE0CE010E940B04EC0166E575E00E9446
S1130DB06E04B701A601CE010E94A504DF91CF9174
S1130DC01F910F91FF90EF90DF90CF90BF90AF9065
S1130DD09F908F900895CF92DF92EF92FF920F939E
S1130DE01F93CF93DF93EC017B018A819B810E9447
S1130DF01E196C016AE0C7010E940B048C0161E5B5
S1130E0075E00E946E046AE0C8010E940B048C0124
S1130E106AE475E00E946E04B601C8010E946E0483
S1130E206AE0C8010E940B048C0164E475E00E942E
S1130E306E0466E0C8010E940B048A859B85E885E0
S1130E40F98501E121E0A701BC018E1B9F0B0E94E3
S1130E501B058C819D81009719F0B7010E94EB0658
S1130E60DF91CF911F910F91FF90EF90DF90CF9082
S1130E7008950F931F93CF93DF93EC016AE08E8163
S1130E809F810E940B048C016CE075E00E946E044B
S1130E906AE0C8010E940B048C0166E075E00E94C0
S1130EA06E0467E0C8010E940B046AE08E819F8192
S1130EB00E940B048C0167EE74E00E946E046AE0E9
S1130EC0C8010E940B048C0161EE74E00E946E0460
S1130ED066E0C8010E940B046AE08E819F810E9433
S1130EE00B048C016AEC74E00E946E0466E0C80195
S1130EF00E940B046AE08E819F810E940B048C0186
S1130F006EEA74E00E946E0466E0C8010E940B045D
S1130F106AE08E819F810E940B048C0166E974E073
S1130F200E946E0466E0C8010E940B046AE08E8190
S1130F309F810E940B048C0165E774E00E946E049B
S1130F4066E0C8010E940B046AE08E819F810E94C2
S1130F500B048C016EE474E00E946E0466E0C80128
S1130F600E940B046AE08E819F810E940B048C0115
S1130F7060E374E00E946E0466E0C8010E940B0402
S1130F806AE08E819F810E940B048C0165E174E00C
S1130F900E946E0466E0C8010E940B046AE08E8120
S1130FA09F810E940B04EC0166E074E00E946E04D1
S1130FB066E0CE010E940B04DF91CF911F910F9147
S1130FC00895CF93DF93CDB7DEB72C97CDBFDEBFA7
S1130FD07C0119821A821B821C821D821E826AE095
S1130FE0DC0116968D919C9117970E940B046C015D
S1130FF068EE73E00E946E0466E0C6010E940B0472
S113100011E0812C6894992493F80F2EFCE1AF2E03
S1131010F1E2BF2EF02DF7018485882321F0813081
S113102009F460C006C286819781DC01ED91FC91D0
S11310300480F581E02D1995882309F437C0F70160
S113104086819781DC01ED91FC910680F781E02D8A
S11310501995992781309105F9F0039709F005C294
S11310606AE0F701868197810E940B047C016AED96
S113107073E00E946E0466E0C7010E940B0493E0D3
S113108088ED08B618BE84BF9093800080918200DA
S113109081FDFCCF08BEFFCFC7010E943907D701ED
S11310A01C961C931C971D961C93DFC182E291E24F
S11310B00E944B03882309F4D8C1D7011696ED91F9
S11310C0FC9117970190F081E02DC280D38082E2D9
S11310D091E20E942D03682FF70186819781F60122
S11310E01995C3C186819781DC01ED91FC9104803F
S11310F0F581E02D1995882309F4B7C1F70186819C
S11311009781DC01ED91FC910680F781E02D199522
S11311109C0133272836310509F454C14CF42B3192
S1131120310509F453C12536310509F44FC163C1B2
S11311302337310509F40CC12637310591F02E36D9
S1131140310509F058C1CE0101960E941503BC0176
S1131150F701868197810E94CA0566E00E940B040C
S113116084C11F82188619861A861B861C860E94D3
S113117067123C01CE0107960E9415032C0166E01C
S1131180D70116968D919C9117970E940B046AE0E3
S11311900E940B046C0160E773E00E946E046AE035
S11311A0C6010E940B046C0164E673E00E946E04A5
S11311B066E0C6010E940B046AE00E940B046C0105
S11311C06DE573E00E946E04B201C6010E94CA0577
S11311D06AE00E940B046C016FE473E00E946E04E9
S11311E0B301C6010E94E7046AE00E940B046C018B
S11311F06DE473E00E946E044FEF5FE060E070E026
S1131200C6010E94A504F40160A471A46AE0D70198
S113121016968D919C9117970E940B046C0162E4C1
S113122073E00E946E04B301C6010E94E70466E005
S11312300E940B0466E00E940B04F701C680D7806D
S11312406AE0C6010E940B043C0167E373E00E945C
S11312506E046AE0C3010E940B043C0160E373E086
S11312600E946E0466E0C3010E940B046AE0C6019A
S11312700E940B043C016FE173E00E946E046AE07B
S1131280C3010E940B043C0163E173E00E946E04FD
S11312906AE0C3010E940B043C016DE073E00E940C
S11312A06E0466E0C3010E940B046AE0C6010E945A
S11312B00B043C016CEF72E00E946E046AE0C3010F
S11312C00E940B043C0160EF72E00E946E046AE02D
S11312D0C3010E940B043C016AEE72E00E946E049A
S11312E066E0C3010E940B04D5018D919C91009787
S11312F019F0B6010E9452040E9426190E94911C02
S1131300082F6AE0C6010E940B046C016FED72E0C5
S11313100E946E04602FC6010E941A116AE00E94A6
S11313200B046C016DED72E00E946E0464E670E0E3
S1131330C6010E94E7046AE00E940B046C016AED96
S113134072E00E946E0466E0C6010E940B048DC028
S1131350F701C680D78080911C2190911D210097B0
S113136019F0B6010E94EB066AE0C6010E940B0464
S11313703C0160EA73E00E946E046AE0C3010E94CB
S11313800B043C0165E973E00E946E046AE0C3014A
S11313900E940B043C016FE873E00E946E0466E057
S11313A0C3010E940B048091BA319091BB31BC01FE
S11313B06F5F7F4F01E1212FA601835691090E949F
S11313C01B0553C0C7010E9439074FC06AE0D7010B
S11313D016968D919C9117970E940B046C0168ECF2
S11313E073E00E946E0466E0C6010E940B04F701DC
S11313F0148615863AC0F701A681B781ED91FC9158
S113140011970280F381E02D682FCD0119956AE0D0
S1131410D70116968D919C9117970E940B046C012D
S113142062EC73E00E946E0466E0C6010E940B0445
S11314301CC06AE0F701868197810E940B047C013D
S113144065EA73E00E946E0466E0C7010E940B0423
S113145093E088ED08B618BE84BF90938000809115
S1131460820081FDFCCF08BEFFCFF70186859785FA
S1131470A089B1890196A11DB11D86879787A08B8C
S1131480B18B61E070E080E090E00E941B1BC3CD53
S1131490CF93DF9300D000D0CDB7DEB78C010E948C
S11314A0101969837A838B839C83E0E6F6E090814C
S11314B0D80152968C915297892B808394815296AD
S11314C08C915297892B848352968C91813021F48C
S11314D088E18093700605C0843019F488E1809314
S11314E072061D821E820F2EF8E6EF2EF6E0FF2E06
S11314F0F02D0F2EF0E2AF2EF1E2BF2EF02D772467
S113150073940F2EFEE1CF2EF1E2DF2EF02DF701C2
S1131510808180FD0FC07E82D5018D919C91DC017C
S1131520ED91FC910190F081E02DBE016A5F7F4F47
S113153019950EC01E82F50180819181DC01ED9127
S1131540FC910190F081E02DBE016A5F7F4F1995F7
S1131550F701808182FD0FC07D82D6018D919C911F
S1131560DC01ED91FC910190F081E02DBE016B5FF7
S11315707F4F19950EC01D82F60180819181DC0197
S1131580ED91FC910190F081E02DBE016B5F7F4FE6
S11315901995F801668577858089918924E630E07C
S11315A040E050E00E94571D672B682B692B09F01F
S11315B06DC0D5018D919C91DC01ED91FC9100846D
S11315C0F185E02D1995682EF8018680978062E9EF
S11315D070E2C4010E946E04662DC4010E94F302ED
S11315E067E970E20E946E04D6018D919C91DC0142
S11315F0ED91FC910084F185E02D1995682EF80198
S11316008680978069E970E2C4010E946E04662DA9
S1131610C4010E94F30266E00E940B046E80D801AC
S113162016968D909C9017976FE970E2C4010E9402
S11316306E04662DC4010E94F30266E00E940B044E
S11316406D805E80F801868097806BEA70E2C40149
S11316500E946E04652DC4010E94F302662D0E944F
S1131660F30266E00E940B046D80D80116968D90FB
S11316709C90179764EB70E2C4010E946E04662D7F
S1131680C4010E94F30266E00E940B04F8018685FF
S11316909785A089B1890196A11DB11D8687978779
S11316A0A08BB18B41E050E060E070E0CE01019688
S11316B00E94AE1A2CCF4F925F926F927F928F92BC
S11316C09F92AF92BF92CF92DF92EF92FF920F93CD
S11316D01F93CF93DF93CDB7DEB72A97CDBFDEBF7D
S11316E04C01290138018AE090E2F401808391835E
S11316F0FB018081882369F0DE011196319690E028
S113170002C0993039F09F5F8D9381918111F9CF97
S113171001C090E0E1E0F0E0EC0FFD1FE90FF11DE6
S113172010827401F2E0EF0EF11CA12CB12CC12C3B
S1131730D12C042F9401A201BE016F5F7F4F84E777
S113174093E00E94C717F40166827782408651862F
S113175020911C2130911D212483358380921C21EA
S113176090921D21148615864090BA315090BB3159
S1131770FFEF4F1A5F0A4092BA315092BB31F40125
S11317804286538616861786108A118A611471045C
S113179009F444C0813079F56AE0C3010E940B0466
S11317A07C016EE375E00E946E04BE016F5F7F4FA3
S11317B0C7010E946E046AE0C7010E940B047C0109
S11317C065E375E00E946E046AE0C7010E940B04A1
S11317D07C0167E275E00E946E0463E0C7010E9429
S11317E00B04B2010E94E70462E00E940B0466E06D
S11317F00E940B0413C06AE0C3010E940B044C0155
S113180062E175E00E946E04BE016F5F7F4FC40108
S11318100E946E0466E0C4010E940B042A96CDBFA8
S1131820DEBFDF91CF911F910F91FF90EF90DF907A
S1131830CF90BF90AF909F908F907F906F905F906C
S11318404F90089580E0089580E00895DC01ED91C3
S1131850FC910280F381E02D6CE019950895CF93FB
S1131860DF93EC01A98DBA8DEB8DFC8D81E04D9158
S11318705C91208131814217530709F480E0DF91A4
S1131880CF910895CF93DF93FC01C18DD28D288130
S11318903981A38DB48D4D915C9124173507E9F3FB
S11318A0A789B08D0D90BC91A02DA20FB31F8C9170
S11318B02F5F3F4F288339832436310528F0018C6C
S11318C0F28DE02D1082118290E0DF91CF91089586
S11318D0DC015096ED91FC915197808154964C9186
S11318E05497842329F009C02150310919F412C0F6
S11318F021E23EE490819423B9F3908156968C9131
S11319005697892B80831E96ED91FC911F976083D7
S113191081E0089580E00895FC01848195810E940E
S11319206E1790E00895FC01848195810E946E17E2
S113193091E0811101C090E0892F0895FC01848118
S113194095810E946E1791E0811190E0892F08958E
S1131950FC01848195810E94661790E00895FC0142
S1131960848195810E94661791E0811101C090E005
S1131970892F0895FC01848195810E94661791E066
S1131980811190E0892F08950F9301E02FEF3FEF2D
S1131990A901FC01848195810E9475160F91089517
S11319A00F93CF93DF931F92CDB7DEB701E02FEFF4
S11319B03FEFA901BE016F5F7F4FFC0184819581D8
S11319C00E94751689810F90DF91CF910F91089530
S11319D00F9300E02FEF3FEFA901FC018481958173
S11319E00E9475160F9108950F93CF93DF931F9262
S11319F0CDB7DEB700E02FEF3FEFA901BE016F5F67
S1131A007F4FFC01848195810E94751689810F9016
S1131A10DF91CF910F910895CF93DF931F92CDB7AC
S1131A20DEB7AE014F5F5F4FFC01848195810E9458
S1131A3039170F90DF91CF910895CF93DF931F92C1
S1131A401F92CDB7DEB7AE014E5F5F4FBE016F5F31
S1131A507F4FFC01848195810E94391789810F9001
S1131A600F90DF91CF910895CF93DF931F92CDB75D
S1131A70DEB7198221E0AE014F5F5F4FFC01848124
S1131A8095810E94491691E0811101C090E0892F4F
S1131A900F90DF91CF910895CF93DF931F92CDB72D
S1131AA0DEB7198220E0AE014F5F5F4FFC018481F5
S1131AB095810E94491691E0811101C090E0892F1F
S1131AC00F90DF91CF9108950F93FC012681378108
S1131AD04085518501E0848195810E94AE1591E095
S1131AE0811101C090E0892F0F9108950F93FC019B
S1131AF0268137814085518500E0848195810E944B
S1131B00AE1591E0811101C090E0892F0F910895E5
S1131B10CF93DF93C2E2D1E28AE08A831B8283E01F
S1131B208D831C821E821F8286E890E288839983BB
S1131B301E861F8640E061E080E20E94801588874F
S1131B4099878AE090E0A0E0B0E08A879B87AC8721
S1131B50BD87DF91CF910895AF92BF92DF92EF924C
S1131B60FF920F931F93CF93DF93CDB7DEB76E979A
S1131B70CDBFDEBFE0E6F6E080E181838583F894A3
S1131B80E0E5F0E0808182608083818181FFFDCF88
S1131B90809140009FB79E8FF8941BBE887F816020
S1131BA020E430E0F90108ED04BF80838E8D8FBFFF
S1131BB0E0E5F0E080818E7F80839DEF88ED08B6BC
S1131BC018BE84BF9093800008BE8AE090E00E9413
S1131BD09A118C01FC01128213820F2EF2E1EF2E76
S1131BE0F0E2FF2EF02DE082F18240E061E089E135
S1131BF00E948015F80184839583168217821086CB
S1131C00118600932021109321218AE090E00E9404
S1131C109A118C01FC0112821382E082F18240E06D
S1131C2061E089E10E948015F8018483958316821E
S1131C3017821086118600931E2110931F2186E7B8
S1131C4090E289839A838AE08B831C8243E04E83EB
S1131C501D821F821886A0E4B6E0AB87BC8786E0AD
S1131C608D870F2EF7E0DF2EF02DDE86E0EBF8E017
S1131C70EF87F88B81EB98E0898B9A8B84EB98E063
S1131C808B8B9C8B2E8514965C91149781E090E04D
S1131C90BC0102C0660F771F2A95E2F79B01252B32
S1131CA014962C932E85AB85BC855C91BC0102C037
S1131CB0660F771F2A95E2F79B01252B2C933D8510
S1131CC0AB85BC852C9102C0880F991F3A95E2F729
S1131CD08095909582238C9380E18383458380EF64
S1131CE0878381E2868388E1848380E88E8B80E425
S1131CF08F8B80E28D8BEF85F8898081808186E3EC
S1131D0090E289839A8388E491E2888F998F86E4AC
S1131D1091E28A8F9B8F84E491E28C8F9D8F84E67D
S1131D2090E00E949A118093482190934921EA8D72
S1131D30FB8D10821182EC8DFD8D1082118267E083
S1131D40CE0101960E940B048C0161EC70E20E94AA
S1131D506E0466E0C8010E940B0466E00E940B0456
S1131D6082E190E00E949A117C018E010F5F1F4F67
S1131D7024E031E040E060EE70E20E945B0B86E418
S1131D8090E2F7018083918383E190E00E949A11AD
S1131D907C0124E031E044E068EE70E20E945B0BD9
S1131DA00F2EFEE4AF2EF0E2BF2EF02DF701A0823D
S1131DB0B18281E0828B83E190E00E949A117C01E0
S1131DC024E031E044E06FEE70E20E945B0BF70127
S1131DD0A082B18284E0828B82E190E00E949A1119
S1131DE07C0124E031E044E067EF70E20E945B0B89
S1131DF086E590E2F7018083918382E190E00E947E
S1131E009A117C0124E031E043E06EEF70E20E941D
S1131E105B0B8EE590E2F7018083918382E190E091
S1131E200E949A117C0124E031E042E065E071E215
S1131E300E945B0B86E690E2F7018083918382E146
S1131E4090E00E949A117C0124E031E041E06DE0D1
S1131E5071E20E945B0B8EE690E2F701808391832E
S1131E60D092A20078940E94D71880E090E06E96F9
S1131E70CDBFDEBFDF91CF911F910F91FF90EF9007
S1131E80DF90BF90AF9008951F920F920FB60F92FC
S1131E90112408B60F9218BE0BB60F921BBE2F93D7
S1131EA03F938F939F93EF93FF932091A00AE09128
S1131EB03621F09137218091322190913321E80F1E
S1131EC0F91F208380913221909133210196843629
S1131ED0910560F480933221909333212091342131
S1131EE03091352182179307F1F40CC010923221FE
S1131EF010923321809134219091352118161906BE
S1131F0091F40EC001968436910528F4809334210F
S1131F109093352108C0109234211092352103C0CA
S1131F2081E090E0F3CFFF91EF919F918F913F91EA
S1131F302F910F900BBE0F9008BE0F900FBE0F9005
S1131F401F9018951F920F920FB60F92112408B686
S1131F500F9218BE0BB60F921BBE2F933F938F9315
S1131F609F93EF93FF932091B009E0913C21F0916E
S1131F703D218091382190913921E80FF91F208368
S1131F80809138219091392101968436910560F42D
S1131F90809338219093392120913A2130913B212B
S1131FA082179307F1F40CC0109238211092392152
S1131FB080913A2190913B211816190691F40EC094
S1131FC001968436910528F480933A2190933B211D
S1131FD008C010923A2110923B2103C081E090E0A6
S1131FE0F3CFFF91EF919F918F913F912F910F909C
S1131FF00BBE0F9008BE0F900FBE0F901F90189548
S11320001F920F920FB60F92112408B60F9218BEAA
S11320100BB60F921BBE2F933F938F939F93EF9317
S1132020FF932091A009E0914221F09143218091F6
S11320304A2190914B21E80FF91F208380913E2182
S113204090913F2101968436910560F480933E215E
S113205090933F2120914021309141218217930791
S1132060F1F40CC010923E2110923F218091402146
S1132070909141211816190691F40EC001968436E8
S1132080910528F4809340219093412108C0109237
S113209040211092412103C081E090E0F3CFFF91F1
S11320A0EF919F918F913F912F910F900BBE0F90C5
S11320B008BE0F900FBE0F901F9018951F920F929D
S11320C00FB60F92112408B60F9218BE0BB60F92DA
S11320D01BBE2F933F938F939F93EF93FF93209176
S11320E0B008E0914821F0914921809144219091D8
S11320F04521E80FF91F20838091442190914521C7
S113210001968436910560F480934421909345218F
S1132110209146213091472182179307F1F40CC096
S1132120109244211092452180914621909147219B
S11321301816190691F40EC001968436910528F4F8
S1132140809346219093472108C010924621109213
S1132150472103C081E090E0F3CFFF91EF919F917D
S11321608F913F912F910F900BBE0F9008BE0F904F
S11321700FBE0F901F9018951F920F920FB60F92DB
S1132180112408B60F9218BE0BB60F921BBE2F93E4
S11321903F938F939F93EF93FF932091A008E09137
S11321A04E21F0914F2180914A2190914B21E80FCB
S11321B0F91F208380914A2190914B210196843606
S11321C0910560F480934A2190934B2120914C21F6
S11321D030914D2182179307F1F40CC010924A21DB
S11321E010924B2180914C2190914D211816190683
S11321F091F40EC001968436910528F480934C2105
S113220090934D2108C010924C2110924D2103C08F
S113221081E090E0F3CFFF91EF919F918F913F91F7
S11322202F910F900BBE0F9008BE0F900FBE0F9012
S11322301F901895CF92DF92EF92FF920F931F9306
S1132240CF93DF93CDB7DEB72997CDBFDEBF8C0127
S1132250E62EDC0113968C911397882341F0ED91BF
S1132260FC910280F381E02DC801199556C0F80154
S11322704281423019F56894CC24C3F8D12C689477
S1132280FF24F7F88E2D8F2151F0D801ED91FC91A8
S11322900280F381E02D61E3C801199509C0D801DA
S11322A0ED91FC910280F381E02D60E3C801199562
S11322B0F694B1E0CB1AD10829F72FC04031F9F4D4
S11322C062956F700190F081E02D0280F381E02D22
S11322D06A3010F0695C01C0605DC80119956E2D0B
S11322E06F70D801ED91FC910280F381E02D6A308A
S11322F010F0695C01C0605DC80119950EC050E022
S1132300BE016F5F7F4F8E2D90E00E94C51DBE0100
S11323106F5F7F4FC8010E946E04C8012996CDBF2C
S1132320DEBFDF91CF911F910F91FF90EF90DF906F
S1132330CF9008950F931F93CF93DF93EC010E94E6
S11323400A198091502181111DC0A5E5B1E2E9E58A
S1132350F1E2ED93FC93119712961D921C92139740
S1132360A1E5B1E28FEF9FE012968D939C931397B2
S11323701D921C92119782839383A083B18381E081
S113238080935021209709F45FC09E012B5F3F4F3B
S11323902496CE3FDF4008F05AC0E0915521F091D9
S11323A05621A5E5B1E202C0DF01FC0182819381DF
S11323B08217930720F4808191810097A9F7C1E2E5
S11323C0E135FC0709F446C0CD91DC9111978E01EB
S11323D00B5F1F4F808191818D939C9382819381A8
S11323E0821B930B8B30910510F1BF01620F731F99
S11323F0DB0112968D939C93139722833383129659
S11324004D915C91139785E591E201C0CD01EC01FA
S1132410A881B98112962D913C9113972417350701
S1132420A8F3EB01A883B983DC016D937C938091BD
S113243000209091012022813381821B930B809391
S113244000209093012008C000E010E005C000E0E7
S113245010E002C000E010E00E942C1AC801DF91D5
S1132460CF911F910F9108950F931F93CF93DF93F3
S1132470009741F1EC018C01055011090E940A19E1
S1132480F80142815381A5E5B1E201C0DF01ED917C
S1132490FC9111972281338124173507B8F32597CE
S11324A0E883F9830D931C9320910020309101203F
S11324B08A819B81820F931F809300209093012037
S11324C00E942C1ADF91CF911F910F910895809152
S11324D00020909101200895FC010396818392834A
S11324E04FEF5FEFBA014383548365837683878319
S11324F090878187928710820895FC011286138643
S11325000895CF93DF93FC01DB0121813281E9013E
S11325108C819D8114968D939C93159781819281D2
S113252016968D939C9317978C819D81EC016E83F5
S11325307F83E9016C837D83618372831A96ED93B3
S1132540FC931B9780818F5F8083DF91CF910895E7
S11325500F931F93CF93DF93EB01088119812A8195
S11325603B810F3F4FEF14072407340731F4DC019C
S11325701996ED91FC911A971FC0FC013396DC016A
S113258017964D915C911897DA014D915D916D917B
S11325907C91041715072607370770F00480F5812E
S11325A0E02DA481B5814D915D916D917C910417CD
S11325B015072607370790F7A481B581AC83BD833F
S11325C01696CD93DC931797EE83FF83C483D5834C
S11325D08A879B87FC0120812F5F2083DF91CF9125
S11325E01F910F910895FC01A481B5818681978183
S11325F016968D939C931797A681B78184819581B4
S113260014968D939C931597A285B38511968D91FD
S11326109C911297E817F90731F4868197811196F6
S11326208D939C931297128613868C9181508C9370
S113263008958093BA319093BB3131E1FC0130832A
S1132640319722E220833197A3E3A08331976083FB
S1132650319770833197108231971082319760E8F7
S113266060833197108231971082319710823197AD
S113267062E06083319763E06083319764E0608354
S1132680319765E06083319766E06083319767E056
S11326906083319768E06083319769E060833197A4
S11326A060E1608331973083319732E13083319731
S11326B033E13083319734E13083319735E130832E
S11326C0319736E13083319737E13083319738E100
S11326D03083319739E13083319730E23083319759
S11326E031E2308331972083319723E2208331977D
S11326F0408331975083319726E22083319727E234
S11327002083319728E22083319729E2208331976F
S113271020E32083319721E32083899708958CE770
S11327208093290A8FEF8093280A81E08093000A1E
S113273091E19093010A8093070AA091B831B09176
S1132740B931CD91CDBFDD91DEBFFF91EF91DF9126
S1132750CF91BF91AF919F918F917F916F915F9135
S11327604F913F912F911F910F91FF90EF90DF9028
S1132770CF90BF90AF909F908F907F906F905F901D
S11327804F903F902F901F900F900CBE0F900BBE58
S11327900F900FBE0F90089508950F920FB6F894FE
S11327A00F920BB60F920CB60F921F9211242F9218
S11327B03F924F925F926F927F928F929F92AF92CD
S11327C0BF92CF92DF92EF92FF920F931F932F93BA
S11327D03F934F935F936F937F938F939F93AF93A5
S11327E0BF93CF93DF93EF93FF93A091B831B09150
S11327F0B9310DB60D920EB60D920E94491BA091EF
S1132800B831B091B931CD91CDBFDD91DEBFFF912B
S1132810EF91DF91CF91BF91AF919F918F917F9174
S11328206F915F914F913F912F911F910F91FF9065
S1132830EF90DF90CF90BF90AF909F908F907F905C
S11328406F905F904F903F902F901F900F900CBE11
S11328500F900BBE0F900FBE0F9008950F920FB6FE
S1132860F8940F920BB60F920CB60F921F9211248C
S11328702F923F924F925F926F927F928F929F928C
S1132880AF92BF92CF92DF92EF92FF920F931F937A
S11328902F933F934F935F936F937F938F939F9364
S11328A0AF93BF93CF93DF93EF93FF93A091B8318E
S11328B0B091B9310DB60D920EB60D920E942B193E
S11328C00E94491BA091B831B091B931CD91CDBFCF
S11328D0DD91DEBFFF91EF91DF91CF91BF91AF9179
S11328E09F918F917F916F915F914F913F912F9124
S11328F01F910F91FF90EF90DF90CF90BF90AF901A
S11329009F908F907F906F905F904F903F902F900B
S11329101F900F900CBE0F900BBE0F900FBE0F9028
S113292008950E942E141895CF93DF93EC0188A18B
S113293081110BC088819981892BE1F58A819B8162
S11329400E94041D1A821B8235C0411117C0482FF2
S113295050E08C819D810E94791D28A18C819D81EC
S1132960820F911D8C839D832A813B81821793075B
S113297008F1888199818C839D831CC0482F50E085
S11329808E819F810E94791D88A190E09195819507
S113299091092E813F81280F391F2E833F8348815F
S11329A059812417350730F42A813B81820F931F04
S11329B08E839F838E8D8F5F8E8FDF91CF9108954D
S11329C0FC01808191810097A1F040A150E0268113
S11329D03781240F351F26833783A281B3812A17B9
S11329E03B0710F086839783CB01668177810E9431
S11329F0791D08950F931F93CF93DF93EC010FB6C6
S1132A00F8940F928AA11816B4F48B89811105C029
S1132A1012C08B89811104C00EC08E010D5E1F4F40
S1132A20C8010E94D01B81110E948D1C8AA1815073
S1132A308AA3181674F38FEF8AA30F900FBE0FB6F4
S1132A40F8940F9289A11816B4F48885811105C0F1
S1132A5012C08885811104C00EC08E01085F1F4F0B
S1132A60C8010E94D01B81110E948D1C89A1815034
S1132A7089A3181674F38FEF89A30F900FBEDF910B
S1132A80CF911F910F9108951F93CF93DF936130DE
S1132A9059F0FC012389308531112CC011E021113A
S1132AA010E0211128C001C011E0EC0148815981D6
S1132AB028A130E06F8D629FC001639F900D1124A7
S1132AC0BA01680F791F6A837B831E8E4C835D83F2
S1132AD0821B930B840F951F8E839F838FEF89A393
S1132AE08AA3CE0108960E946C12CE0143960E94DE
S1132AF06C1201C010E0812FDF91CF911F910895D6
S1132B000F931F93CF93DF93882301F1062F182F80
S1132B1083E290E00E949A11EC01892BC9F0109F86
S1132B20C001112401960E949A1188839983892BEC
S1132B3039F01F8F08A361E0CE010E94441508C03C
S1132B40CE010E943412C0E0D0E002C0C0E0D0E068
S1132B50CE01DF91CF911F910F910895AF92BF9253
S1132B60CF92DF92EF92FF920F931F93CF93DF9355
S1132B70CDB7DEB72997CDBFDEBF7C015B012E83C5
S1132B803F834887598710E06C0188E0C80ED11C48
S1132B900FB6F8940F92F701968D878D9817A8F4C5
S1132BA0402FB501C7010E949414F701838988233B
S1132BB041F0C70143960E94D01B813011F40E945A
S1132BC0CD130F900FBE81E056C08E819F81A885E2
S1132BD0B985892B8A2B8B2B21F40F900FBE80E0B3
S1132BE04AC0111105C0CE0101960E940F1C11E0CC
S1132BF00F900FBE0E940A190FB6F8940F92F701B6
S1132C0081A18F3F09F411A2F70182A18F3F09F43A
S1132C1012A20F900FBEBE016A5F7F4FCE010196D4
S1132C200E94201C811121C00FB6F8940F92F70165
S1132C30968D0F900FBE878D981311C04E815F81C2
S1132C4068857985C6010E94A61BC7010E94FA14F3
S1132C500E942C1A81119CCF0E94CD1399CFC701D9
S1132C600E94FA140E942C1A93CFC7010E94FA14EE
S1132C700E942C1A80E02996CDBFDEBFDF91CF9150
S1132C801F910F91FF90EF90DF90CF90BF90AF9086
S1132C9008950F931F93CF93DF938A01FC01568D00
S1132CA0378D5317C0F4422FEC010E9494148AA16B
S1132CB08F3F69F48B89882381F0CE0143960E946B
S1132CC0D01B882361F081E0F801808309C08F5F05
S1132CD08AA381E005C080E003C081E001C081E0F7
S1132CE0DF91CF911F910F910895AF92BF92CF9230
S1132CF0DF92EF92FF920F931F93CF93DF93CDB7A1
S1132D00DEB72997CDBFDEBF7C015B012E833F83F5
S1132D104887598710E06C0183E1C80ED11C0FB6B7
S1132D20F8940F92F701868D882399F1C680D78095
S1132D30B501C7010E94E01401111AC0F701868D84
S1132D408150868F80819181892B29F40E94AA1C4D
S1132D50F70182839383F70180858823B1F0C7014B
S1132D6008960E94D01B813081F40E94CD130DC0BF
S1132D70F701C682D7828389882339F0C701439635
S1132D800E94D01B81110E94CD130F900FBE81E0D1
S1132D9062C08E819F81A885B985892B8A2B8B2B54
S1132DA021F40F900FBE80E056C0111105C0CE0172
S1132DB001960E940F1C11E00F900FBE0E940A1989
S1132DC00FB6F8940F92F70181A18F3F09F411A275
S1132DD0F70182A18F3F09F412A20F900FBEBE012A
S1132DE06A5F7F4FCE0101960E94201C81112DC085
S1132DF00FB6F8940F92F701868D0F900FBE8111D4
S1132E001EC080819181892B49F40FB6F8940F92EA
S1132E10828193810E94AF1C0F900FBE4E815F810F
S1132E2068857985C6010E94A61BC7010E94FA1411
S1132E300E942C1A811173CF0E94CD1370CFC70149
S1132E400E94FA140E942C1A6ACFC7010E94FA1435
S1132E500E942C1A80E02996CDBFDEBFDF91CF916E
S1132E601F910F91FF90EF90DF90CF90BF90AF90A4
S1132E7008950F931F93CF93DF93FC01268D222394
S1132E80D9F08A01EC010E94E0148E8D81508E8F5E
S1132E9089A18F3F69F48885882381F0CE01089643
S1132EA00E94D01B882361F081E0F801808309C06F
S1132EB08F5F89A381E005C080E003C081E001C089
S1132EC081E0DF91CF911F910F9108950FB6F8948F
S1132ED00F92FC01868D0F900FBE0895FC01868D24
S1132EE00895CCE8D1E388818230E8F30E94CD13C1
S1132EF0FACFCF92DF92EF92FF926B017C01E091C7
S1132F00B831F091B931628373838483958380915E
S1132F10603190916131A0916231B0916331C816F2
S1132F20D906EA06FB0668F46091B8317091B931AC
S1132F3080917231909173316E5F7F4F0E94A8121D
S1132F4021C06091B8317091B93180917431909100
S1132F5075316E5F7F4F0E94A8128091022090917C
S1132F600320A0910420B0910520C816D906EA06D2
S1132F70FB0640F4C0920220D0920320E092042089
S1132F80F0920520FF90EF90DF90CF9008954F923C
S1132F905F926F927F928F929F92AF92BF92CF92E5
S1132FA0DF92EF92FF920F931F93CF93DF935C0115
S1132FB04B013A01290188E290E00E949A11EC0148
S1132FC0892B09F4D4C0C114D10409F0CCC0C301C5
S1132FD00E949A118B8F9C8F009721F4CE010E943E
S1132FE03412C5C0A30161E170E00E94821D930107
S1132FF0215031098B8D9C8D3C01620E731E4AE079
S113300050E0B401CE014D960E94891D1EA2102FDE
S1133010043008F013E01A8F1FA36E0122E0C20EE1
S1133020D11CC6010E947D12CE010E960E947D1213
S1133030CA87DB8784E090E0A0E0B0E0811B9109BF
S1133040A109B1098E879F87A88BB98BCE8BDF8BA3
S1133050A201B501C3010E94191388839983E11465
S1133060F10419F0F701C083D1830FB6F8940F92DD
S1133070809164318F5F809364318091B8319091F5
S1133080B931892B89F5C093B831D093B931809186
S113309064318130C1F58CE891E30E946C1287E9B8
S11330A091E30E946C1282EA91E30E946C128DEA11
S11330B091E30E946C1281E891E30E946C1286E70E
S11330C091E30E946C1287E691E30E946C1281E8FE
S11330D091E3809374319093753186E791E3809303
S11330E07231909373310FC080915D3181110BC0A7
S11330F0E091B831F091B931828D081720F0C09376
S1133100B831D093B9318A8D90915F31981710F40A
S113311080935F31909158319F5F90935831909193
S11331205E31981710F480935E31FBE08F9FC001ED
S11331301124B60184579E4C0E9481120F900FBE39
S113314080915D31882359F0E091B831F091B93123
S1133150828D801730F40E94CD1381E009C081E094
S113316007C081E005C0CB8EDC8EC6013BCF8FEF5C
S1133170DF91CF911F910F91FF90EF90DF90CF904F
S1133180BF90AF909F908F907F906F905F904F9083
S113319008950FB6F8940F92009721F48091B831F6
S11331A09091B9310F900FBEFC01828D0895AF92BA
S11331B0BF92CF92DF92EF92FF920F93A12CB12C8A
S11331C0C12CD12C0F2EF5E6EF2EF1E3FF2EF02DBE
S11331D000E020E030E044E650E064E171E281E7A1
S11331E097E10E94C717813069F4F89480935D31A8
S11331F010926031109261311092623110926331F9
S11332000E948F130F91FF90EF90DF90CF90BF90AB
S1133210AF90089580915C318F5F80935C31089505
S11332200FB6F8940F926091603170916131809182
S11332306231909163310F900FBE0895009721F48D
S11332408091B8319091B9314D960895809165314E
S1133250909166310895FF920F931F93CF93DF935C
S113326080915C318111EDC0809160319091613128
S1133270A0916231B09163310196A11DB11D80937B
S1133280603190936131A0936231B0936331809146
S1133290603190916131A0916231B0916331892B99
S11332A08A2B8B2BF1F5809174319091753120919B
S11332B0723130917331209374313093753180932E
S11332C0723190937331809159318F5F809359316A
S11332D0E0917431F0917531808181110CC08FEFD0
S11332E09FEFDC018093022090930320A09304209D
S11332F0B093052016C0E0917431F09175310780C8
S1133300F085E02D0084F185E02D82819381A481F4
S1133310B5818093022090930320A0930420B0935E
S1133320052040916031509161316091623170911A
S113333063318091022090910320A0910420B091E8
S11333400520481759076A077B0708F47FC0E091F6
S11333507431F091753180818823F9F0E0917431F2
S1133360F09175310780F085E02DC085D1858A8183
S11333709B81AC81BD8140916031509161316091FC
S1133380623170916331481759076A077B0758F116
S11333900F2EFBE0FF2EF02D2FC08FEF9FEFDC01EF
S11333A08093022090930320A0930420B0930520DF
S11333B04DC0E0917431F09175310780F085E02DB6
S11333C0C085D1858A819B81AC81BD81409160316A
S11333D0509161316091623170916331481759079E
S11333E06A077B0748F48093022090930320A093FC
S11333F00420B09305202AC08E010E5F1F4FC80120
S11334000E94F312888D998D892B21F0CE010E969E
S11334100E94F3128A8D90915E31981710F4809374
S11334205E31F89EC0011124B80184579E4C0E945D
S11334308112E0917431F091753180818111B9CF9D
S1133440ACCF80915B318F5F80935B31DF91CF9103
S11334501F910F91FF900895CF92DF92EF92FF9208
S11334600F931F93CF93DF930FB6F8940F9280912D
S11334705C31815080935C3180915C31811160C0FA
S11334808091643181112CC05EC0D7011796ED91F3
S1133490FC911897C085D185CE010E960E94F31237
S11334A08E010E5F1F4FC8010E94F3128A8D909106
S11334B05E31981710F480935E31D89EC0011124B8
S11334C0B80184579E4C0E948112E091B831F0916A
S11334D0B9319A8D828D981770F0CC24C3940BC0A7
S11334E0C12C0F2EF7E6EF2EF1E3FF2EF02D0F2E59
S11334F0FBE0DF2EF02DF70180818111C6CF809192
S11335005B31882381F080915B31882399F00E949C
S11335102B1980915B31815080935B3180915B31B9
S11335208111F5CF07C0F1E0CF1621F080915A3117
S1133530813041F410925A310E94CD1381E003C0CE
S113354080E001C080E00F900FBEDF91CF911F910A
S11335500F91FF90EF90DF90CF900895CF92DF927C
S1133560EF92FF92CF93DF93EC016A017B010E94FB
S11335700A1988819981AA81BB81C80ED91EEA1EC5
S1133580FB1E4091603150916131609162317091C4
S11335906331481759076A077B07B8F4C816D90678
S11335A0EA06FB06E0F58091603190916131A091CB
S11335B06231B0916331C882D982EA82FB828C1570
S11335C09D05AE05BF05F8F413C0C816D906EA0672
S11335D0FB0600F18091603190916131A0916231DC
S11335E0B09163318C159D05AE05BF0598F017C0E9
S11335F08091B8319091B93102960E94F312C701BB
S1133600B6010E9479170E942C1A81110DC00E94E4
S1133610CD130AC0C882D982EA82FB82E9CFC8826C
S1133620D982EA82FB82EFCFDF91CF91FF90EF90B6
S1133630DF90CF900895CF92DF92EF92FF926B01CB
S11336407C01672B682B692BE9F00E940A19809191
S1133650603190916131A0916231B0916331C80EB3
S1133660D91EEA1EFB1E8091B8319091B9310296A1
S11336700E94F312C701B6010E9479170E942C1A06
S1133680811102C00E94CD13FF90EF90DF90CF9084
S1133690089580915C3181110CC0E0915E314BE062
S11336A0E49FF0011124E457FE4C8081882329F023
S11336B014C081E080935A3108959BE080915E317B
S11336C0815080935E31E0915E319E9FF001112420
S11336D0E457FE4C8081882389F380915E31282F42
S11336E030E04BE0849FC0011124DC01A457BE4CA0
S11336F01196ED91FC9112970480F581E02D1196BD
S1133700ED93FC93129781579E4CE817F90761F4E7
S1133710848195814BE0429FF001439FF00D112479
S1133720E457FE4C818392838BE0829FF001839F58
S1133730F00D1124E457FE4C0180F281E02D8085C8
S113374091858093B8319093B9310895CF92DF92E7
S1133750EF92FF926A017B016091B8317091B931A7
S1133760625F7F4F0E94A8128091B8319091B93165
S113377002960E94F3128091603190916131A09180
S11337806231B0916331BC01CD016C0D7D1D8E1D84
S11337909F1D0E947917FF90EF90DF90CF900895BE
S11337A00F931F93CF93DF93DC011796ED91FC9158
S11337B01897C085D1858E01025F1F4FC8010E94F2
S11337C0F31280915C31811116C00C501109C801AB
S11337D00E94F3128A8D90915E31981710F48093B1
S11337E05E31BBE08B9FC0011124B80184579E4C0D
S11337F00E94811205C0B80187E691E30E948112FC
S1133800E091B831F091B93181E02A8D928D291778
S113381008F480E0DF91CF911F910F9108952091DA
S11338205931FC01208340916031509161316091A4
S11338306231709163314183528363837483089549
S11338408F929F92AF92BF92CF92DF92EF92FF92AC
S11338500F931F93CF93DF93FC010FB6F8940F924D
S1133860809159319081981789F0809160319091BD
S11338706131A0916231B091633101811281238160
S1133880348180179107A207B307A8F580916031AE
S113389090916131A0916231B0916331C180D28045
S11338A0E380F480EB01088119812A813B818C1922
S11338B09D09AE09BF0980179107A207B307E8F471
S11338C0CF018090603190906131A0906231B090CE
S11338D06331B501A4014C195D096E097F09041B0C
S11338E0150B260B370B088319832A833B830E940D
S11338F00F1C80E003C081E001C081E00F900FBE87
S1133900DF91CF911F910F91FF90EF90DF90CF90B7
S1133910BF90AF909F908F90089581E080935A312B
S11339200895009721F48091B8319091B931DC0168
S11339305B96ED91FC915C978081813141F43196E5
S113394080E090E0019621912131E1F3089580E037
S113395090E008958091B8319091B93108950F9312
S11339601F93CF93DF93FC01228DA091B831B091C6
S1133970B9315A968C91281708F041C0A091B831FA
S1133980B091B9315A963C9184E090E0A0E0B0E067
S1133990831B9109A109B10986879787A08BB18BF5
S11339A08BE0289F9001112424573E4C84859585F3
S11339B082179307E9F48F01EF012296CE010E944A
S11339C0F312E091B831F091B931828DF801828F10
S11339D090915E31981710F480935E31FBE08F9FD5
S11339E0C0011124BE0184579E4C0E94811207C05D
S11339F0A091B831B091B9315A968C91828FDF91F0
S1133A00CF911F910F9108950F931F93CF93DF933D
S1133A10009749F1FC01328D27A1321721F1EC0105
S1133A208C010E5F1F4FC8010E94F3128FA18A8F71
S1133A3044E050E060E070E0481B510961097109FD
S1133A404E875F87688B798B90915E31981710F45D
S1133A5080935E31FBE08F9FC0011124B80184572D
S1133A609E4C0E948112DF91CF911F910F91089576
S1133A70052E97FB1EF400940E944F1D57FD07D09E
S1133A800E94571D07FC03D04EF40C944F1D509513
S1133A904095309521953F4F4F4F5F4F0895909536
S1133AA08095709561957F4F8F4F9F4F0895A1E248
S1133AB01A2EAA1BBB1BFD010DC0AA1FBB1FEE1FA4
S1133AC0FF1FA217B307E407F50720F0A21BB30BEF
S1133AD0E40BF50B661F771F881F991F1A9469F76B
S1133AE060957095809590959B01AC01BD01CF01C7
S1133AF00895FB01DC0102C001900D924150504039
S1133B00D8F70895DC0101C06D9341505040E0F7AF
S1133B100895FB01DC014150504048F001900D92A2
S1133B200020C9F701C01D9241505040E0F70895AC
S1133B302532310520F4223010F00C94A31DFA0133
S1133B401082CA010895BB27FA01A62F62177105D6
S1133B5081059105330B30FB66F0AA27660F771FAA
S1133B60881F991FAA1FA21710F0A21B6395385033
S1133B70A9F7A05DAA3308F0A95DA19336F7B111A6
S1133B80B1931082CA010C94EA1D4532510520F408
S1133B90423010F00C94D01DFB011082CB0108952B
S1133BA0BB27FB015527AA27880F991FAA1FA41713
S1133BB010F0A41B83955051B9F7A05DAA3308F007
S1133BC0A95DA193009779F7B111B1931192CB013B
S1133BD00C94EA1DDC01FC01672F71917723E1F756
S1133BE0329704C07C916D9370836291AE17BF07C6
S1133BF0C8F30895DB018F939F930E94131EBF9116
S1133C00AF91A29F800D911DA39F900DB29F900D27
S1133C1011240895EE0FFF1F881F8BBF0790F691A4
S1133C20E02D1BBE19940E941E1EA59F900DB49FEB
S1133C30900DA49F800D911D11240895A29FB001A1
S1133C40B39FC001A39F700D811D1124911DB29FCC
S1113C50700D811D1124911D0895F894FFCF6D
S1133C5EFF0FFFFFFFFF0000000014035B060000D0
S1133C6E0000760D4C0D640D340DF40CE80C1D0D96
S1133C7E0C0DD00CC40CBA0C9E0CAF0C930CA80CEF
S1133C8E8C0C000000001203680C2F0C420C0C0369
S1133C9E260C00000000E1075B0600000000480A45
S1133CAE5B0600000000A5035B0600000000C703CE
S1133CBE5B060000000083035B0600000000E903BE
S1133CCE5B0600000000120314030D030F030C0324
S1133CDE0B0300000000120356034B032D030C03C9
S1133CEE0B034C6566740009005269676874006CB6
S1133CFE6566744C696D69743A20006C696D6974FB
S1133D0E733A200072696768744C696D69743A205D
S1133D1E004672656552544F5320586D6567612095
S1133D2E54657374696E672050726F6772616D00AB
S1133D3E55736572496E74004C6566745377005200
S1133D4E69676874537700456E6350656E00456EFF
S1133D5E634D7472005379734374726C004D7472B4
S10D3D6E436D640049444C45000015
S9030000FC
