S01600004652454552544F535F5348454C4C2E73726563CD
S11300000C9466030C949C030C949C030C949C0326
S11300100C949C030C949C030C949C030C949C03E0
S11300200C949C030C949C030C949C030C949C03D0
S11300300C949C030C949C030C949C030C949C03C0
S11300400C949C030C949C030C949C030C949C03B0
S11300500C949C030C949C030C949C030C949C03A0
S11300600C949C030C9459100C949C030C949C03C6
S11300700C94FB0F0C949C030C949C030C949C0315
S11300800C949C030C949C030C949C030C949C0370
S11300900C949C030C949C030C949C030C949C0360
S11300A00C949C030C949C030C949C030C949C0350
S11300B00C949C030C949C030C949C030C949C0340
S11300C00C949C030C949B180C949C030C949C031C
S11300D00C949C030C949C030C949C030C949C0320
S11300E00C949C030C949C030C94E10E0C949C03C0
S11300F00C949C030C949C030C949C030C949C0300
S11301000C949C030C949C030C949C030C949C03EF
S11301100C949C030C949C030C949C030C949C03DF
S11301200C949C030C949C030C949C030C949C03CF
S11301300C949C030C949C030C949C030C949C03BF
S11301400C949C030C949C030C949C030C949C03AF
S11301500C949C030C949C030C949C030C949C039F
S11301600C949D0F0C949C030C949C030C943F0FD3
S11301700C949C030C949C030C949C030C949C037F
S11301800C949C030C949C030C949C030C949C036F
S11301900C949C030C949C030C949C030C949C035F
S11301A00C949C030C949C030C949C030C949C034F
S11301B00C949C030C949C030C949C030C949C033F
S11301C00C949C030C949C030C949C030C949C032F
S11301D00C949C030C949C030C949C030C949C031F
S11301E00C949C030C949C030C949C030C949C030F
S11301F00C949C030C949C030C949C037606F706C5
S1130200F706F706F706F706F706F706F706F70602
S1130210F706F706F706F706F706F706F706F706F2
S1130220F706F706F706F706F706F706F706F706E2
S1130230F706F706F706F706F706F706F706F706D2
S1130240F706F706F706F706F706F706F706F706C2
S1130250F706F706F706F706F706F706F706F706B2
S1130260F706F706F706F706F706F706F706F706A2
S1130270F706F706F706F706F706F706F706F70692
S1130280F706F706F706F706F7068B06F706C10624
S11302907606F706A7067206F706F706F706F706C8
S11302A0F7063305F706F706F706DD063806F70600
S11302B0F7064105A611A911AC11AF11B211B51180
S11302C0B711C811D011DA11D8110C94B7110C94CC
S11302D039110C9441050C94AF110C945D0A0C94E3
S11302E06C0C0C9437110C94880C0C94DA110C944B
S11302F0D8110C9438110C94AE0C0C946A110C9413
S1130300AC110C9438060C9440110C943B110C94D1
S11303101F1B0C94C1060C94750C0C9472060C945F
S1130320930B0C943E110C94A6110C9488110C940C
S1130330EB0A0C94B5110C94C8110C94D20C0C94C7
S11303405F110C94B2110C94F40B0C947E040C9475
S1130350A9110C94DD060C9441070C94A7060C9487
S11303608B120C94D0110C94F7060C948B060C94FD
S113037041110C9433050C9476060909002F0049A9
S1130380444C45090930092D0900092D2D2D2D0056
S1130390092D2D2D2D2D2D2D2D2D2D002D2D2D2DDA
S11303A009092D2D2D2D092D2D2D2D2D00095275C9
S11303B06E730009467265652F546F74616C004E4C
S11303C0616D6509095072692E0953746174650081
S11303D009537461636B005461736B09092020092C
S11303E020002C20544343304343413D002F002C34
S11303F0204865617020667265653A200054696D15
S1130400653A2000536570202034203230323500A4
S11304104D45343035206261736520726164696FC3
S11304202070726F6772616D2056302E3420001B6D
S11304305B32326D005461736B3A2049444C450081
S11304401B5B316D00496C6C6567616C2073746172
S113045074652120526573657474696E6720415612
S113046052003A5754463F0052657365742C207409
S1130470727920486F6D696E6720616761696E20CB
S11304806279207072657373696E67202762270032
S1130490454D455247454E43592053544F50004310
S11304A06F6D6D656E63652042616C616E6365009E
S11304B0426567696E20486F6D696E6700457869AB
S11304C07420636F6D6D616E64206D6F646500529E
S11304D06573657474696E67204156520050726585
S11304E07373204374726C2D4120666F7220636FA6
S11304F06D6D616E64206D6F64650020202020683E
S11305003A20202048414C50210020202020723ADB
S1130510202020526573657420746F2049646C65D3
S11305200020202020643A202020456D65726765F4
S11305306E63792053746F700020202020673A2066
S1130540202053746172742042616C616E63652172
S11305500020202020623A202020426567696E2016
S113056043616C6962726174696F6E00202020209F
S1130570653A2020204578697420636F6D6D616E43
S113058064206D6F64650020202020733A202020B1
S1130590537461636B2064756D7020666F72207490
S11305A061736B730020202020763A20202056654A
S11305B07273696F6E20616E642073657475702048
S11305C0696E666F726D6174696F6E002020202001
S11305D06E3A20202053686F772074686520746910
S11305E06D65207269676874206E6F7700202049FA
S11305F06E20636F6D6D616E64206D6F6465206F36
S11306006E6C793A00202043746C2D413A20456E7B
S113061074657220636F6D6D616E64206D6F6465C7
S113062000202043746C2D433A2052657365742076
S113063074686520415652002068656C70004D4511
S1130640343035206261736520726164696F207093
S1130650726F6772616D2056302E3420001B5B333D
S1130660306D001B5B34366D004552524F5220638F
S113067072656174696E67207461736B20002C204D
S1130680737461636B206174203078002063726539
S113069061746564005461736B20001B5B32326DBE
S11306A0005461736B3A20001B5B316D0009000933
S11306B0002F00090009001B5B32326D001B5B3107
S11306C06D001B5B316D00202000D20C11241FBE75
S11306D0CFEFCDBFDFE3DEBF00E00CBF18BE19BE15
S11306E01ABE1BBE10E2A0E0B0E2EAEDF7E400E0BF
S11306F00BBF02C007900D92AE3DB107D9F71BBEE8
S113070021E3AEEDB0E201C01D92A239B207E1F7D8
S113071013E0C6E6D3E000E006C021970109802F6C
S1130720FE010E94C823C536D10780E00807A9F757
S11307300E94F60C0C94EB230C9400000F931F936F
S1130740CF93DF93EC016AE08E819F810E94971121
S11307508C0163E676E00E94DE116AE0C8010E9423
S113076097118C016DE576E00E94DE1167E0C80107
S11307700E9497116AE08E819F810E9497118C01DB
S11307806EE376E00E94DE116AE0C8010E949711D0
S11307908C0168E376E00E94DE1166E0C8010E94E5
S11307A097116AE08E819F810E9497118C0161E20A
S11307B076E00E94DE1166E0C8010E9497116AE0AB
S11307C08E819F810E9497118C0165E076E00E94E2
S11307D0DE1166E0C8010E9497116AE08E819F8154
S11307E00E9497118C016DEE75E00E94DE1166E0A7
S11307F0C8010E9497116AE08E819F810E9497111F
S11308008C016CEC75E00E94DE1166E0C8010E9468
S113081097116AE08E819F810E9497118C0165EA8D
S113082075E00E94DE1166E0C8010E9497116AE03B
S11308308E819F810E9497118C0167E875E00E9468
S1130840DE1166E0C8010E9497116AE08E819F81E3
S11308500E9497118C016CE675E00E94DE1166E03F
S1130860C8010E9497116AE08E819F810E949711AE
S11308708C0161E575E00E94DE1166E0C8010E940A
S113088097116AE08E819F810E9497118C0169E320
S113089075E00E94DE1166E0C8010E9497116AE0CB
S11308A08E819F810E9497118C0161E275E00E9404
S11308B0DE1166E0C8010E9497116AE08E819F8173
S11308C00E9497118C016AE075E00E94DE1166E0D7
S11308D0C8010E9497116AE08E819F810E9497113E
S11308E0EC016BEF74E00E94DE1166E0CE010E9421
S11308F09711DF91CF911F910F910895CF93DF93BB
S1130900CDB7DEB72C97CDBFDEBF7C0119821A822A
S11309101B821C821D821E826AE0DC0116968D9168
S11309209C9117970E9497116C016DED74E00E94E1
S1130930DE1166E0C6010E94971111E0812C6894D3
S1130940992493F80F2EF4E2AF2EF1E2BF2EF02D8E
S1130950F7018485882321F0813009F460C063C2E3
S113096086819781DC01ED91FC910480F581E02D75
S11309701995882309F437C0F70186819781DC0132
S1130980ED91FC910680F781E02D1995992781302E
S11309909105F9F0039709F061C26AE0F7018681D5
S11309A097810E9497117C016FEC74E00E94DE1124
S11309B066E0C7010E94971193E088ED08B618BE5F
S11309C084BF909380008091820081FDFCCF08BE9B
S11309D0FFCFC7010E949E03D7011C961C931C974E
S11309E01D961C933BC286EF90E20E945F11882300
S11309F009F434C2D7011696ED91FC911797019032
S1130A00F081E02DC280D38086EF90E20E944111F4
S1130A10682FF70186819781F60119951FC2868197
S1130A209781DC01ED91FC910480F581E02D19950D
S1130A30882309F413C2F70186819781DC01ED91C3
S1130A40FC910680F781E02D1995BC01FC01FF277C
S1130A507B97EC35F10508F0CAC18827E250FF4FB7
S1130A608F4F0C94C823CE0101960E94CA13BC0177
S1130A70F701868197810E94E21366E00E94971134
S1130A80EDC11F82188619861A861B861C860E9451
S1130A9071163C01CE0107960E94CA132C0166E030
S1130AA0D70116968D919C9117970E9497116AE031
S1130AB00E9497116C0160E174E00E94DE116AE00B
S1130AC0C6010E9497116C0164E074E00E94DE117B
S1130AD066E0C6010E9497116AE00E9497116C01BA
S1130AE06DEF73E00E94DE11B201C6010E94E213B1
S1130AF06AE00E9497116C016FEE73E00E94DE11B0
S1130B00B301C6010E9457126AE00E9497116C015A
S1130B106DEE73E00E94DE114FEF5FE060E070E085
S1130B20C6010E941512F40160A471A46AE0D70101
S1130B3016968D919C9117970E9497116C0162EE05
S1130B4073E00E94DE11B301C6010E94571266E0F1
S1130B500E94971166E00E949711F701C680D78022
S1130B606AE0C6010E9497113C0167ED73E00E94A0
S1130B70DE116AE0C3010E9497113C0160ED73E04D
S1130B800E94DE1166E0C3010E9497116AE0C6016B
S1130B900E9497113C016FEB73E00E94DE116AE042
S1130BA0C3010E9497113C0163EB73E00E94DE11C4
S1130BB06AE0C3010E9497113C016DEA73E00E9450
S1130BC0DE1166E0C3010E9497116AE0C6010E942B
S1130BD097113C016CE973E00E94DE116AE0C301E5
S1130BE00E9497113C0160E973E00E94DE116AE003
S1130BF0C3010E9497113C016AE873E00E94DE1170
S1130C0066E0C3010E949711D5018D919C910097D4
S1130C1019F0B6010E9473140E94D41C0E943F2054
S1130C20082F6AE0C6010E9497116C016FE773E018
S1130C300E94DE11602FC6010E94B7106AE00E9474
S1130C4097116C016DE773E00E94DE1164E670E0B9
S1130C50C6010E9457126AE00E9497116C016AE76C
S1130C6073E00E94DE1166E0C6010E949711F6C08F
S1130C70F701C680D7808091242190912521009787
S1130C8019F0B6010E948F146AE0C6010E94971100
S1130C903C0160E474E00E94DE116AE0C3010E943A
S1130CA097113C0165E374E00E94DE116AE0C30120
S1130CB00E9497113C016FE274E00E94DE1166E02D
S1130CC0C3010E9497118091903190919131BC01A0
S1130CD06F5F7F4F01E1212FA601835691090E9486
S1130CE01B13BCC0C7010E949E03B8C06AE0D701B1
S1130CF016968D919C9117970E9497116C016DEB3C
S1130D0074E00E94DE1166E0C6010E949711F701AB
S1130D1014861586A3C0E091E420F091E5200FB677
S1130D20F8940F9210830F900FBE6AE0D7011696C5
S1130D308D919C9117970E9497116C0160EB74E060
S1130D400E94DE1166E0C6010E94971187C0E091FF
S1130D50E220F091E3200FB6F8940F9210830F90E5
S1130D600FBE6AE0F701868197810E9497116C019A
S1130D706FE974E00E94DE1166E0C6010E949711DB
S1130D806DC0E091E020F091E1200FB6F8940F924D
S1130D9010830F900FBE6AE0D70116968D919C9137
S1130DA017970E9497116C0160E974E00E94DE11AC
S1130DB066E0C6010E94971151C0E091DE20F091D7
S1130DC0DF200FB6F8940F9210830F900FBE6AE0E5
S1130DD0F701868197810E9497116C0168E674E09F
S1130DE00E94DE1166E0C6010E94971137C0D70148
S1130DF016968D919C911797DC01ED91FC910280E0
S1130E00F381E02D19956AE0F701868197810E94AC
S1130E1097116C0162E674E00E94DE1166E0C6017F
S1130E200E9497111BC06AE0868197810E949711E6
S1130E307C0165E474E00E94DE1166E0C7010E9453
S1130E40971193E088ED08B618BE84BF9093800094
S1130E508091820081FDFCCF08BEFFCFF70186851B
S1130E609785A089B1890196A11DB11D86879787B1
S1130E70A08BB18B61E070E080E090E00E94C91E1D
S1130E8067CDCF93DF93CDB7DEB72897CDBFDEBF55
S1130E901C010E94BE1C69837A838B839C83D101CD
S1130EA01C968C91823009F4C7C030F4882369F011
S1130EB0813009F475C0ECC2843009F4B1C108F47E
S1130EC0EFC0843609F4BAC2E3C2E091E820F0919D
S1130ED0E9200FB6F8940F921082118212821382C5
S1130EE00F900FBE0FB6F8940F920F900FBEE091C3
S1130EF0E420F091E5208081882309F4C9C2E091BF
S1130F00DE20F091DF200FB6F8940F9210820F903C
S1130F100FBEE091E020F091E1200FB6F8940F921B
S1130F2010820F900FBEE091E620F091E7200FB6FB
S1130F30F8940F928CED90E0808391830F900FBE14
S1130F400FB6F8940F920F900FBEE091F220F0913B
S1130F50F3208081882309F49BC20FB6F8940F9282
S1130F60E091F020F091F12080819181A281B38100
S1130F700F900FBEE091E820F091E9200FB6F894AD
S1130F800F9280839183A283B3830F900FBEE1E01D
S1130F90D1011C96EC931C97F1E01D96FC9378C24A
S1130FA0E091E420F091E5200FB6F8940F921082BE
S1130FB00F900FBEE091E620F091E7200FB6F89471
S1130FC00F9284E29FEF808391830F900FBE0FB640
S1130FD0F8940F920F900FBEE091F420F091F52059
S1130FE080818823A9F00FB6F8940F92E091F02045
S1130FF0F091F12080819181A281B3810F900FBE85
S1131000F101828B938BA48BB58B82E084878587D7
S11310100FB6F8940F920F900FBEE091DE20F0917E
S1131020DF208081882309F433C2D1011C961C92ED
S11310301C971D961C922CC2E091E620F091E720AB
S11310400FB6F8940F92108211820F900FBE68ECC5
S113105070E080E090E00E94C91E0FB6F8940F92F1
S11310600F900FBEE091F420F091F5208081882349
S113107071F0E091E620F091E7200FB6F8940F921A
S11310808CED90E0808391830F900FBE01C2E3E06A
S1131090D1011C96EC931C97F3E01D96FC93F8C1C8
S11310A020E030E040E05FE3D10152966D917D9104
S11310B08D919C9155970E944B23F101668B778B00
S11310C0808F918F0FB6F8940F920F900FBEE0911E
S11310D0F020F091F12020813181428153810E94DE
S11310E0A8216B017C01D1015A966D937D938D9358
S11310F09C935D975E962D913D914D915C91919756
S11311000E94A9214B015C01F101668F778F80A3B6
S113111091A30091E6201091E7200FB6F8940F9266
S113112022A133A144A155A1C701B6010E944B23BA
S11311306B017C01F10126A137A140A551A5C50190
S1131140B4010E944B239B01AC01C701B6010E946C
S1131150A9210E948722D8016D937C930F900FBE22
S11311600FB6F8940F920F900FBEE091F420F09117
S1131170F520808181110CC00FB6F8940F920F9066
S11311800FBEE091F220F091F32080818823A1F03A
S1131190F101068117816EE670E2C8010E94DE113A
S11311A066E0C8010E949711E4E6D1011C96EC9315
S11311B01C97F4E61D96FC93E091DE20F091DF206D
S11311C00FB6F8940F920F900FBE80818823B1F070
S11311D00FB6F8940F9210820F900FBEE091E020AA
S11311E0F091E1200FB6F8940F9210820F900FBE89
S11311F0D1011C961C921C971D961C920FB6F89454
S11312000F920F900FBEE091E220F091E3208081D5
S1131210882309F43DC184E0F1018487858738C1BE
S11312200FB6F8940F920F900FBEE091EE20F0915C
S1131230EF2060817181072E000C880B990B0E94AE
S1131240BF22D1019A966D937D938D939C939D9724
S1131250E091E220F091E3200FB6F8940F9210820F
S11312600F900FBE0FB6F8940F920F900FBEE0913F
S1131270F020F091F12056962D913D914D915C9185
S1131280599760817181828193810E94A8216D8325
S11312907E838F839887F10166A777A780AB91AB94
S11312A00FB6F8940F9240B051B062B073B00F9083
S11312B00FBED10142AA53AA64AA75AA0FB6F89424
S11312C00F920F900FBEE091EC20F091ED209A96D2
S11312D02D913D914D915C919D97608171818281A9
S11312E093810E94A8214B015C01F10166AB77ABAD
S11312F080AF91AF0FB6F8940F92E091EA20F0918D
S1131300EB20C080D180E280F3800F900FBED1012A
S1131310DA96CD92DD92ED92FC92DD970091E62073
S11313201091E7200FB6F8940F9223E53AE444E7CE
S11313305FE3C301B2010E944B232D813E814F81A3
S113134058850E94A9212B013C012EE93CE940E883
S11313505FEBC501B4010E944B239B01AC01C301A7
S1131360B2010E94A9214B015C0126EE31EB47E852
S11313705FEBC701B6010E944B239B01AC01C50181
S1131380B4010E94A92120E030E044E852E40E9424
S11313904B230E948722F801608371830F900FBE54
S11313A00FB6F8940F920F900FBEE091F420F091D5
S11313B0F520808181110CC00FB6F8940F920F9024
S11313C00FBEE091F220F091F3208081882391F008
S11313D0D10116960D911C9117976EE670E2C80123
S11313E00E94DE1166E0C8010E94971184E6F101B3
S11313F084878587E091DE20F091DF200FB6F89492
S11314000F920F900FBE8081882309F441C00FB65C
S1131410F8940F9210820F900FBEE091E020F091AB
S1131420E1200FB6F8940F9210820F900FBED101F5
S11314301C961C921C971D961C922AC0E091E620D3
S1131440F091E7200FB6F8940F92108211820F905A
S11314500FBEE091DE20F091DF200FB6F8940F92DA
S11314600F900FBE8081882399F00FB6F8940F92E5
S113147010820F900FBEE091E020F091E1200FB6B2
S1131480F8940F9210820F900FBEF1011486158606
S1131490F10186859785A089B1890196A11DB11DA9
S11314A086879787A08BB18B45E050E060E070E0C1
S11314B0CE0101960E945C1EF2CCCF93DF9300D044
S11314C01F92CDB7DEB77C010E94BE1C69837A836C
S11314D08B839C83E0E8F6E083E08283808B818BBE
S11314E0E0E8F1E080E7828389E08287E0E4F8E0E5
S11314F08AE683838DEC97E086A397A381E08083BB
S11315006894882486F8992493F8F40160A171A161
S1131510E091EE20F091EF200FB6F8940F926083E3
S113152071830F900FBE072E000C880B990B0E943D
S1131530BF2228E23FE049EC50E40E944B2320E024
S113154030EA49EF54E40E941522A62EB72EC82E85
S1131550D92EE091EC20F091ED200FB6F8940F9283
S1131560862F9B2DAC2DBD2D80839183A283B383C5
S11315700F900FBE0091EA201091EB200FB6F89463
S11315800F92242D352D472D562D6A2D7B2D8C2D14
S11315909D2D0E94A821F801608371838283938327
S11315A00F900FBEF70186859785A089B1890196B2
S11315B0A11DB11D86879787A08BB18B41E050E0B8
S11315C060E070E0CE0101960E945C1E4A2C5B2C08
S11315D07C2C6D2C9ACFCF93DF9300D01F92CDB784
S11315E0DEB78C010E94BE1C69837A838B839C8343
S11315F0E0E8F6E08CE0828382898360828B8389D1
S11316008360838BE0E8F1E082E7808389E0808770
S1131610E0E0F9E088E683838FEF9FEF86A397A34A
S113162081E08083E091E820F091E9200FB6F894FE
S11316300F9210821182128213820F900FBE612CBE
S1131640712C812C912C0F2EE12CF9E0FF2EF02D22
S1131650F70160A171A10FB6F8940F920F900FBE1D
S1131660072E000C880B990B0E94BF222FE832EC46
S113167045E75DE30E944B232FE632E143E85AE35A
S11316800E944B23E091E820F091E92020813181F0
S1131690428153810E94A821A62EB72EC82ED92E8E
S11316A0E091F020F091F1200FB6F8940F92862F7C
S11316B09B2DAC2DBD2D80839183A283B3830F908A
S11316C00FBE0FB6F8940F92262D372D482D592DA5
S11316D06A2D7B2D8C2D9D2D0E94A8212FE632E1B1
S11316E043E85AE30E94152260B971B982B993B9EB
S11316F00F900FBEF80186859785A089B189019660
S1131700A11DB11D86879787A08BB18B41E050E066
S113171060E070E0CE0101960E945C1E6A2C7B2C76
S11317208C2C9D2C95CFCF93DF9300D01F92CDB7F7
S1131730DEB78C010E94BE1C69837A838B839C83F1
S1131740A0E4B6E087E011968C93119784E0159697
S11317508C931597E0E0F8E081E0808383E0818357
S1131760A6A3B7A310A611A612A613A6818180630F
S11317708183E12C6894FF24F3F80FB6F8940F9258
S1131780E091E620F091E720808191810F900FBED7
S1131790F801828B938B992334F0F70180A791A7EA
S11317A012A613A60CC0F70110A611A6F80182898F
S11317B09389919581959109F70182A793A7F801DF
S11317C086859785A089B1890196A11DB11D86875B
S11317D09787A08BB18B41E050E060E070E0CE01D0
S11317E001960E945C1EC9CFCF93DF9300D01F9255
S11317F0CDB7DEB78C010E94BE1C69837A838B83CC
S11318009C83E0E6F6E09081D80152968C91529741
S1131810892B8083948152968C915297892B84834F
S113182052968C91813021F488E18093700605C032
S1131830843019F488E1809372060F2EF8E6EF2EB7
S1131840F6E0FF2EF02DDD24D394F701808180FD96
S11318500BC0E091F420F091F5200FB6F8940F92AC
S1131860D0820F900FBE0AC0E091F420F091F520D1
S11318700FB6F8940F9210820F900FBED7018C917F
S113188082FD0BC0E091F220F091F3200FB6F894A2
S11318900F92D0820F900FBE0AC0E091F220F09117
S11318A0F3200FB6F8940F9210820F900FBEF80138
S11318B086859785A089B1890196A11DB11D86876A
S11318C09787A08BB18B41E050E060E070E0CE01DF
S11318D001960E945C1EB9CFDC01ED91FC9102805F
S11318E0F381E02D6CE019950895CF93DF93EC011B
S11318F0A98DBA8DEB8DFC8D81E04D915C91208199
S113190031814217530709F480E0DF91CF910895A4
S1131910CF93DF93FC01C18DD28D28813981A38DB2
S1131920B48D4D915C9124173507E9F3A789B08DE7
S11319300D90BC91A02DA20FB31F8C912F5F3F4F30
S1131940288339832436310528F0018CF28DE02D6B
S11319501082118290E0DF91CF910895DC015096BE
S1131960ED91FC915197808154964C915497842326
S113197029F009C02150310919F412C021E23EE4D2
S113198090819423B9F3908156968C915697892B24
S113199080831E96ED91FC911F97608381E00895EA
S11319A080E00895CF93DF93C6EFD0E28AE08A8384
S11319B01B8283E08D831C821E821F828AE590E253
S11319C0888399831E861F8640E061E080E20E943E
S11319D08A19888799878AE090E0A0E0B0E08A8736
S11319E09B87AC87BD87DF91CF910895AF92BF925B
S11319F0CF92DF92EF92FF920F931F93CF93DF93D7
S1131A00CDB7DEB76E97CDBFDEBFE0E6F6E080E18E
S1131A1081838583F894E0E5F0E0808182608083AF
S1131A20818181FFFDCF809140009FB79E8FF89404
S1131A301BBE887F816020E430E0F90108ED04BF1B
S1131A4080838E8D8FBFE0E5F0E080818E7F808380
S1131A509DEF88ED08B618BE84BF9093800008BE41
S1131A6081E090E00E94A4158093F4209093F520E7
S1131A7081E090E00E94A4158093F2209093F320DB
S1131A8084E090E00E94A4158093F0209093F120CC
S1131A9084E090E00E94A4158093F0209093F120BC
S1131AA082E090E00E94A41582E090E00E94A415D8
S1131AB082E090E00E94A4158093EE209093EF20A2
S1131AC084E090E00E94A4158093EC209093ED2094
S1131AD084E090E00E94A4158093EA209093EB2088
S1131AE084E090E00E94A4158093E8209093E9207C
S1131AF082E090E00E94A4158093E6209093E72072
S1131B0081E090E00E94A4158093E4209093E52066
S1131B1081E090E00E94A4158093E2209093E3205A
S1131B2081E090E00E94A4158093E0209093E1204E
S1131B3081E090E00E94A4158093DE209093DF2042
S1131B408AE490E289839A838AE08B831C8243E04F
S1131B504E831D821F821886A0E4B6E0AB87BC8743
S1131B6086E08D870F2EF7E0DF2EF02DDE86E0EB8A
S1131B70F8E0EF87F88B81EB98E0898B9A8B84EB04
S1131B8098E08B8B9C8B2E8514965C91149781E046
S1131B9090E0BC0102C0660F771F2A95E2F79B0113
S1131BA0252B14962C932E85AB85BC855C91BC01AA
S1131BB002C0660F771F2A95E2F79B01252B2C9311
S1131BC03D85AB85BC852C9102C0880F991F3A9541
S1131BD0E2F78095909582238C936894CC24C4F882
S1131BE0C382458380EF878381E2868388E184838F
S1131BF080E88E8B80E48F8B80E28D8BEF85F88973
S1131C00808180818AE090E289839A838CE191E2E9
S1131C10888F998F8AE191E28A8F9B8F88E191E284
S1131C208C8F9D8F84E690E00E94A41580931C21E4
S1131C3090931D21EA8DFB8D10821182EC8DFD8D18
S1131C401082118267E0CE0101960E9497117C01F7
S1131C5065E870E20E94DE1166E0C7010E949711F8
S1131C6066E00E94971182E190E00E94A4157C0135
S1131C708E010F5F1F4F24E031E040E064EA70E220
S1131C800E94DD148AE190E2D7018D939C9383E155
S1131C9090E00E94A4157C0124E031E044E06CEA69
S1131CA070E20E94DD140F2EF2E2AF2EF0E2BF2E9E
S1131CB0F02DF701A082B18281E0828B83E190E074
S1131CC00E94A4157C0124E031E044E063EB70E25F
S1131CD00E94DD14D701AD92BC92119784E0529614
S1131CE08C9382E190E00E94A4157C0124E031E011
S1131CF044E06BEB70E20E94DD148AE290E2F701AB
S1131D008083918382E190E00E94A4157C0124E009
S1131D1031E043E062EC70E20E94DD1482E390E281
S1131D20D7018D939C938EE390E00E94A4157C01CF
S1131D3024E031E042E069EC70E20E94DD148AE3C1
S1131D4090E2F7018083918380E090E8A9E0B5E414
S1131D5082A393A3A4A3B5A380E090E0A0EAB0E497
S1131D6086A397A3A0A7B1A7BE96DF011D92CA942C
S1131D70E9F784E190E00E94A4157C0124E031E0BD
S1131D8041E061ED70E20E94DD1482E490E2F7012B
S1131D9080839183128A138AD092A20078940E943D
S1131DA0851C80E090E06E96CDBFDEBFDF91CF91C1
S1131DB01F910F91FF90EF90DF90CF90BF90AF9065
S1131DC008951F920F920FB60F92112408B60F9226
S1131DD018BE0BB60F921BBE2F933F938F939F9306
S1131DE0EF93FF932091A00AE0910A21F0910B2137
S1131DF08091062190910721E80FF91F208380919B
S1131E0006219091072101968436910560F4809310
S1131E1006219093072120910821309109218217EE
S1131E209307F1F40CC010920621109207218091BF
S1131E300821909109211816190691F40EC00196F3
S1131E408436910528F4809308219093092108C0D1
S1131E50109208211092092103C081E090E0F3CF91
S1131E60FF91EF919F918F913F912F910F900BBE16
S1131E700F9008BE0F900FBE0F901F9018951F92E1
S1131E800F920FB60F92112408B60F9218BE0BB61C
S1131E900F921BBE2F933F938F939F93EF93FF93C8
S1131EA02091B009E0911021F091112180910C2131
S1131EB090910D21E80FF91F208380910C219091BE
S1131EC00D2101968436910560F480930C21909342
S1131ED00D2120910E2130910F2182179307F1F4E7
S1131EE00CC010920C2110920D2180910E21909122
S1131EF00F211816190691F40EC001968436910527
S1131F0028F480930E2190930F2108C010920E2183
S1131F1010920F2103C081E090E0F3CFFF91EF9185
S1131F209F918F913F912F910F900BBE0F9008BE00
S1131F300F900FBE0F901F9018951F920F920FB61F
S1131F400F92112408B60F9218BE0BB60F921BBE47
S1131F502F933F938F939F93EF93FF932091A00927
S1131F60E0911621F091172180911E2190911F215B
S1131F70E80FF91F2083809112219091132101967B
S1131F808436910560F4809312219093132120915B
S1131F9014213091152182179307F1F40CC010928B
S1131FA01221109213218091142190911521181659
S1131FB0190691F40EC001968436910528F4809395
S1131FC014219093152108C0109214211092152108
S1131FD003C081E090E0F3CFFF91EF919F918F9147
S1131FE03F912F910F900BBE0F9008BE0F900FBE24
S1131FF00F901F9018951F920F920FB60F921124F5
S113200008B60F9218BE0BB60F921BBE2F933F93C8
S11320108F939F93EF93FF932091B008E0911C213D
S1132020F0911D218091182190911921E80FF91F39
S1132030208380911821909119210196843691056D
S113204060F4809318219093192120911A213091E2
S11320501B2182179307F1F40CC0109218211092DF
S1132060192180911A2190911B211816190691F4B7
S11320700EC001968436910528F480931A2190931A
S11320801B2108C010921A2110921B2103C081E069
S113209090E0F3CFFF91EF919F918F913F912F911A
S11320A00F900BBE0F9008BE0F900FBE0F901F90A5
S11320B018951F920F920FB60F92112408B60F9223
S11320C018BE0BB60F921BBE2F933F938F939F9313
S11320D0EF93FF932091A008E0912221F091232116
S11320E080911E2190911F21E80FF91F2083809178
S11320F01E2190911F2101968436910560F48093EE
S11321001E2190931F21209120213091212182179B
S11321109307F1F40CC010921E2110921F2180919C
S11321202021909121211816190691F40EC00196D0
S11321308436910528F4809320219093212108C0AE
S1132140109220211092212103C081E090E0F3CF6E
S1132150FF91EF919F918F913F912F910F900BBE23
S11321600F9008BE0F900FBE0F901F901895CF923E
S1132170DF92EF92FF920F931F93CF93DF93CDB72C
S1132180DEB72997CDBFDEBF8C01E62EDC011396A6
S11321908C911397882341F0ED91FC910280F38197
S11321A0E02DC801199556C0F8014281423019F555
S11321B06894CC24C3F8D12C6894FF24F7F88E2DAE
S11321C08F2151F0D801ED91FC910280F381E02D33
S11321D061E3C801199509C0D801ED91FC91028011
S11321E0F381E02D60E3C8011995F694B1E0CB1AB0
S11321F0D10829F72FC04031F9F462956F7001902E
S1132200F081E02D0280F381E02D6A3010F0695CEA
S113221001C0605DC80119956E2D6F70D801ED91F4
S1132220FC910280F381E02D6A3010F0695C01C0FA
S1132230605DC80119950EC050E0BE016F5F7F4F0D
S11322408E2D90E00E947321BE016F5F7F4FC80105
S11322500E94DE11C8012996CDBFDEBFDF91CF9168
S11322601F910F91FF90EF90DF90CF900895089504
S1132270089580E0089580E090E0089581E0089555
S113228008950F93CF93DF931F92CDB7DEB700E08D
S11322902FEF3FEFA901BE016F5F7F4FFC018085E7
S11322A091850E94531A813019F4898190E002C00B
S11322B08FEF9FEF0F90DF91CF910F910895FC0165
S11322C0808591850E94171B91E0811101C090E0E7
S11322D0892F08950F93CF93DF931F92CDB7DEB765
S11322E06983FC01228533854485558500E0BE0160
S11322F06F5F7F4F808591850E94B81991E08111AD
S113230001C090E0892F0F90DF91CF910F91089534
S1132310EC01E881F9810190F081E02D19951A8290
S11323201B826FEF7FEFCB010E94C91EFACFCF93C0
S1132330DF93EC01862F90E08B309105D8F5FC01FA
S11323408827E65AFE4F8F4F0C94C82382E08A8375
S113235031C088E08A832EC08AE08A832BC080E162
S11323608A8328C081E08B8325C01B8223C0E88137
S1132370F9810280F381E02D6DE0CE011995E881A9
S1132380F9810280F381E02D6AE0CE01199512C033
S1132390E881F9810284F385E02DCE0119950AC004
S11323A0E881F9810084F185E02DCE01199502C000
S11323B081E08C83CE01DF91CF9108950F931F9319
S11323C0CF93DF938C01FB01DC0114968C91811176
S11323D004C06081611117C023C0D80114961C92F7
S11323E0EB01219664916623D9F0D801ED91FC911B
S11323F00280F381E02DC8011995FE0164912196B4
S11324006111F3CF0DC0EF012196D801ED91FC913C
S11324100280F381E02DC801199569916111F5CF0E
S1132420DF91CF911F910F910895DF92EF92FF9268
S11324300F931F93CF93DF93CDB7DEB7A197CDBF93
S1132440DEBF8C01D42EE52EF62E972FF8012281C3
S1132450203121F0283011F0223071F4692FC801A5
S11324600E94B7106F2D0E94B7106E2D0E94B710F6
S11324706D2D0E94B7100FC030E0AE014F5F5F4F6B
S11324806D2D7E2D8F2D0E944621BE016F5F7F4FE3
S1132490C8010E94DE11C801A196CDBFDEBFDF9145
S11324A0CF911F910F91FF90EF90DF900895FF92CD
S11324B00F931F93CF93DF93CDB7DEB76197CDBF53
S11324C0DEBF8C01F62E972FF8014281403121F0B6
S11324D0483011F0423041F4692FC8010E94B7100E
S11324E06F2D0E94B7100DC050E0BE016F5F7F4F8B
S11324F08F2D0E947321BE016F5F7F4FC8010E9420
S1132500DE11C8016196CDBFDEBFDF91CF911F916F
S11325100F91FF9008958F929F92AF92BF92CF92A6
S1132520DF92EF92FF920F931F93CF93DF93EC010F
S11325308B018A819B810E94CC1CBC01C8010E9432
S1132540DE11D801ED91FC910280F381E02D69E068
S1132550C80119958A819B810E94CC1CFC010190C1
S11325600020E9F73197E81BF90B389748F4D801B4
S1132570ED91FC910280F381E02D69E0C801199589
S1132580CE84DF84E888F988A884B9848A819B8111
S11325900E943F20982E8C848A819B810E94771C04
S11325A0682FC8010E94B7106AE00E949711EC01DD
S11325B065EB76E00E94DE11682DCE010E94B71013
S11325C06AE00E949711EC0163EB76E00E94DE1151
S11325D0692DCE010E94B7106AE00E949711EC01A8
S11325E061EB76E00E94DE11B501CE010E94571224
S11325F06AE00E949711EC016FEA76E00E94DE1116
S11326006AE0CE010E949711EC016DEA76E00E9427
S1132610DE11B701A601CE010E941512DF91CF9100
S11326201F910F91FF90EF90DF90CF90BF90AF90EC
S11326309F908F9008955F926F927F928F929F9256
S1132640AF92BF92CF92DF92EF92FF920F931F93BC
S1132650CF93DF935C013B014A01122F502E63E0BC
S1132660CA010E949711A614B70408F07CC0650142
S113267084E1C80ED11C00E07501B501C4010E94BB
S113268057126AE00E94971167EC76E00E94DE110F
S1132690112309F46DC0002309F46AC06AE0C4017F
S11326A00E94971162EC76E00E94DE1161C0112352
S11326B071F001110CC08881851549F06AE0C401EC
S11326C00E9497116DEB76E00E94DE1101E06991A2
S11326D0C4010E94B710DC01ED91FC910280F381EA
S11326E0E02D60E21995CC16DD0609F7112389F077
S11326F06AE0C4010E949711EC0167EB76E00E9446
S1132700DE11E881F9810280F381E02D60E2CE01DF
S11327101995F70161917F0180EE860F8F3548F49A
S1132720D401ED91FC910280F381E02DC40119954F
S113273009C0D401ED91FC910280F381E02D6EE299
S1132740C4011995CE14DF0421F7B4E1AB0EB11C1A
S113275066E0C4010E949711E4E1CE0ED11CA614D8
S1132760B70408F489CF62E0C4010E94971102C043
S1132770E7019DCFDF91CF911F910F91FF90EF90D3
S1132780DF90CF90BF90AF909F908F907F906F908D
S11327905F900895CF93DF93EC010FB6F8940F92F6
S11327A080912008909121088C839D830E94BE1CF7
S11327B0688379838A839B830F900FBECE01DF9158
S11327C0CF9108958F929F92AF92BF92EF92FF9212
S11327D00F931F93CF93DF93CDB7DEB72F97CDBF62
S11327E0DEBF8C017B01DB016D917D918D919C910C
S11327F00F2EF8EE8F2EF3E09F2EA12CB12CF02D8E
S1132800A50194010E940521BA01A901C8010E94F1
S11328101512D801ED91FC910280F381E02D6EE256
S1132820C8011995F7016081718182819381A501A5
S113283094010E9405219B01AC0160E472E48FE0E5
S113284090E00E94B823A50194010E94052149014A
S11328505A01F701A481B58120E432E44FE050E04D
S11328600E94D12320E038E448EE51E00E94052183
S1132870C501B401620F731F841F951F7E01F7E029
S1132880EF0EF11C9E012F5F3F4F59012AE030E00B
S113289040E050E00E94E620E62F288739874A87E7
S11328A05B87688579858A859B8520E32E0FD70110
S11328B02E937D01AA15BB0549F71F82BE016F5FE8
S11328C07F4FC8010E94DE11C8012F96CDBFDEBF25
S11328D0DF91CF911F910F91FF90EF90BF90AF9038
S11328E09F908F9008950F931F93CF93DF93EC01E4
S11328F08B01E881F9810280F381E02D199566E06E
S1132900C8010E9497118C819D81009719F0B8012C
S11329100E947314DF91CF911F910F910895CF926C
S1132920DF92EF92FF920F931F93CF93DF93EC010B
S11329307B018A819B810E94CC1C6C016AE0C701E7
S11329400E9497118C0168EA76E00E94DE116AE029
S1132950C8010E9497118C0161EA76E00E94DE11A1
S1132960B601C8010E94DE116AE0C8010E949711F5
S11329708C016BE976E00E94DE1166E0C8010E94DA
S113298097118A859B85E885F98501E121E0A701F6
S1132990BC018E1B9F0B0E941B138C819D81009791
S11329A019F0B7010E948F14DF91CF911F910F91FD
S11329B0FF90EF90DF90CF9008954F925F926F92C7
S11329C07F928F929F92AF92BF92CF92DF92EF92BB
S11329D0FF920F931F93CF93DF93CDB7DEB72A9760
S11329E0CDBFDEBF4C01290138018AE690E2F40133
S11329F080839183FB018081882369F0DE01119635
S1132A00319690E002C0993039F09F5F8D938191A7
S1132A108111F9CF01C090E0E1E0F0E0EC0FFD1F7F
S1132A20E90FF11D10827401F2E0EF0EF11CA12CEC
S1132A30B12CC12CD12C042F9401A201BE016F5FD3
S1132A407F4F88E891E10E94751BF40166827782CA
S1132A504086518620912421309125212483358379
S1132A6080922421909225211486158640909031DD
S1132A7050909131FFEF4F1A5F0A4092903150927B
S1132A809131F4014286538616861786108A118A7C
S1132A906114710409F444C0813079F56AE0C3011A
S1132AA00E9497117C0165E976E00E94DE11BE0167
S1132AB06F5F7F4FC7010E94DE116AE0C7010E9469
S1132AC097117C016CE876E00E94DE116AE0C70190
S1132AD00E9497117C016EE776E00E94DE1163E0AC
S1132AE0C7010E949711B2010E94571262E00E942E
S1132AF0971166E00E94971113C06AE0C3010E9417
S1132B0097114C0169E676E00E94DE11BE016F5F09
S1132B107F4FC4010E94DE1166E0C4010E94971138
S1132B202A96CDBFDEBFDF91CF911F910F91FF9009
S1132B30EF90DF90CF90BF90AF909F908F907F9059
S1132B406F905F904F9008950F931F93CF93DF93EF
S1132B50EC010E94B81C8091262181111DC0ABE2BA
S1132B60B1E2EFE2F1E2ED93FC93119712961D921C
S1132B701C921397A7E2B1E28FEF9FE012968D9318
S1132B809C9313971D921C92119782839383A08325
S1132B90B18381E080932621209709F45FC09E01D0
S1132BA02B5F3F4F2496CE3FDF4008F05AC0E091A0
S1132BB02B21F0912C21ABE2B1E202C0DF01FC0138
S1132BC0828193818217930720F4808191810097F9
S1132BD0A9F7C1E2E732FC0709F446C0CD91DC91C4
S1132BE011978E010B5F1F4F808191818D939C9370
S1132BF082819381821B930B8B30910510F1BF016D
S1132C00620F731FDB0112968D939C93139722839B
S1132C10338312964D915C9113978BE291E201C03C
S1132C20CD01EC01A881B98112962D913C911397A5
S1132C3024173507A8F3EB01A883B983DC016D934E
S1132C407C93809100209091012022813381821B0A
S1132C50930B809300209093012008C000E010E0C3
S1132C6005C000E010E002C000E010E00E94DA1DA0
S1132C70C801DF91CF911F910F9108950F931F9376
S1132C80CF93DF93009741F1EC018C0105501109BA
S1132C900E94B81CF80142815381ABE2B1E201C049
S1132CA0DF01ED91FC9111972281338124173507BF
S1132CB0B8F32597E883F9830D931C9320910020A2
S1132CC0309101208A819B81820F931F8093002081
S1132CD0909301200E94DA1DDF91CF911F910F91F3
S1132CE0089580910020909101200895FC0103969D
S1132CF0818392834FEF5FEFBA01438354836583EB
S1132D007683878390878187928710820895FC0158
S1132D10128613860895CF93DF93FC01DB01218192
S1132D203281E9018C819D8114968D939C93159732
S1132D308181928116968D939C9317978C819D81A6
S1132D40EC016E837F83E9016C837D8361837283ED
S1132D501A96ED93FC931B9780818F5F8083DF919C
S1132D60CF9108950F931F93CF93DF93EB010881C5
S1132D7019812A813B810F3F4FEF14072407340741
S1132D8031F4DC011996ED91FC911A971FC0FC01F6
S1132D903396DC0117964D915C911897DA014D91A9
S1132DA05D916D917C91041715072607370770F024
S1132DB00480F581E02DA481B5814D915D916D91E3
S1132DC07C91041715072607370790F7A481B5816E
S1132DD0AC83BD831696CD93DC931797EE83FF8364
S1132DE0C483D5838A879B87FC0120812F5F20833E
S1132DF0DF91CF911F910F910895FC01A481B581BA
S1132E008681978116968D939C931797A681B78197
S1132E108481958114968D939C931597A285B3858F
S1132E2011968D919C911297E817F90731F48681D8
S1132E30978111968D939C931297128613868C9189
S1132E4081508C930895809390319093913131E126
S1132E50FC013083319722E220833197A3E3A083DE
S1132E603197608331977083319710823197108244
S1132E70319760E8608331971082319710823197DF
S1132E801082319762E06083319763E06083319709
S1132E9064E06083319765E06083319766E0608326
S1132EA0319767E06083319768E06083319769E028
S1132EB06083319760E1608331973083319732E1E9
S1132EC03083319733E13083319734E13083319764
S1132ED035E13083319736E13083319737E1308300
S1132EE0319738E13083319739E13083319730E2DB
S1132EF03083319731E2308331972083319723E255
S1132F0020833197408331975083319726E2208381
S1132F10319727E22083319728E22083319729E2F1
S1132F202083319720E32083319721E320838997FD
S1132F3008958CE78093290A8FEF8093280A81E013
S1132F408093000A91E19093010A8093070AA0916B
S1132F508E31B0918F31CD91CDBFDD91DEBFFF9128
S1132F60EF91DF91CF91BF91AF919F918F917F911D
S1132F706F915F914F913F912F911F910F91FF900E
S1132F80EF90DF90CF90BF90AF909F908F907F9005
S1132F906F905F904F903F902F901F900F900CBEBA
S1132FA00F900BBE0F900FBE0F90089508950F92CF
S1132FB00FB6F8940F920BB60F920CB60F921F92A5
S1132FC011242F923F924F925F926F927F928F9231
S1132FD09F92AF92BF92CF92DF92EF92FF920F93A4
S1132FE01F932F933F934F935F936F937F938F938D
S1132FF09F93AF93BF93CF93DF93EF93FF93A091EE
S11330008E31B0918F310DB60D920EB60D920E9495
S1133010F71EA0918E31B0918F31CD91CDBFDD914E
S1133020DEBFFF91EF91DF91CF91BF91AF919F915F
S11330308F917F916F915F914F913F912F911F914C
S11330400F91FF90EF90DF90CF90BF90AF909F9043
S11330508F907F906F905F904F903F902F901F9034
S11330600F900CBE0F900BBE0F900FBE0F900895E3
S11330700F920FB6F8940F920BB60F920CB60F92F4
S11330801F9211242F923F924F925F926F927F92E0
S11330908F929F92AF92BF92CF92DF92EF92FF9264
S11330A00F931F932F933F934F935F936F937F934C
S11330B08F939F93AF93BF93CF93DF93EF93FF933C
S11330C0A0918E31B0918F310DB60D920EB60D9246
S11330D00E94D91C0E94F71EA0918E31B0918F31AD
S11330E0CD91CDBFDD91DEBFFF91EF91DF91CF9107
S11330F0BF91AF919F918F917F916F915F914F910C
S11331003F912F911F910F91FF90EF90DF90CF90FF
S1133110BF90AF909F908F907F906F905F904F90F3
S11331203F902F901F900F900CBE0F900BBE0F90EE
S11331300FBE0F9008950E9438181895CF93DF930F
S1133140EC0188A181110BC088819981892BE1F55B
S11331508A819B810E94B2201A821B8235C0411150
S113316017C0482F50E08C819D810E94272128A1FF
S11331708C819D81820F911D8C839D832A813B814B
S11331808217930708F1888199818C839D831CC0E1
S1133190482F50E08E819F810E94272188A190E0D2
S11331A09195819591092E813F81280F391F2E8396
S11331B03F83488159812417350730F42A813B81A4
S11331C0820F931F8E839F838E8D8F5F8E8FDF91EF
S11331D0CF910895FC01808191810097A1F040A1D5
S11331E050E026813781240F351F26833783A2813F
S11331F0B3812A173B0710F086839783CB0166813E
S113320077810E94272108950F931F93CF93DF9313
S1133210EC010FB6F8940F928AA11816B4F48B89B6
S1133220811105C012C08B89811104C00EC08E01AA
S11332300D5E1F4FC8010E947E1F81110E943B201A
S11332408AA181508AA3181674F38FEF8AA30F9072
S11332500FBE0FB6F8940F9289A11816B4F488859E
S1133260811105C012C08885811104C00EC08E0171
S1133270085F1F4FC8010E947E1F81110E943B20DE
S113328089A1815089A3181674F38FEF89A30F9035
S11332900FBEDF91CF911F910F9108951F93CF938C
S11332A0DF93613059F0FC012389308531112CC042
S11332B011E0211110E0211128C001C011E0EC013E
S11332C04881598128A130E06F8D629FC001639FBE
S11332D0900D1124BA01680F791F6A837B831E8EB7
S11332E04C835D83821B930B840F951F8E839F8376
S11332F08FEF89A38AA3CE0108960E947616CE0189
S113330043960E94761601C010E0812FDF91CF9181
S11333101F9108950F931F93CF93DF93882301F197
S1133320062F182F83E290E00E94A415EC01892B4C
S1133330C9F0109FC001112401960E94A41588832E
S11333409983892B39F01F8F08A361E0CE010E9475
S11333504E1908C0CE010E943E16C0E0D0E002C063
S1133360C0E0D0E0CE01DF91CF911F910F9108957D
S1133370AF92BF92CF92DF92EF92FF920F931F937F
S1133380CF93DF93CDB7DEB72997CDBFDEBF7C01E6
S11333905B012E833F834887598710E06C0188E0E6
S11333A0C80ED11C0FB6F8940F92F701968D878D35
S11333B09817A8F4402FB501C7010E949E18F70181
S11333C08389882341F0C70143960E947E1F813080
S11333D011F40E94D7170F900FBE81E056C08E8162
S11333E09F81A885B985892B8A2B8B2B21F40F907B
S11333F00FBE80E04AC0111105C0CE0101960E94A3
S1133400BD1F11E00F900FBE0E94B81C0FB6F894B8
S11334100F92F70181A18F3F09F411A2F70182A154
S11334208F3F09F412A20F900FBEBE016A5F7F4F57
S1133430CE0101960E94CE1F811121C00FB6F894CF
S11334400F92F701968D0F900FBE878D981311C0C0
S11334504E815F8168857985C6010E94541FC7012A
S11334600E9404190E94DA1D81119CCF0E94D71773
S113347099CFC7010E9404190E94DA1D93CFC70196
S11334800E9404190E94DA1D80E02996CDBFDEBF98
S1133490DF91CF911F910F91FF90EF90DF90CF902C
S11334A0BF90AF900895AF92BF92CF92DF92EF9208
S11334B0FF920F931F93CF93DF93CDB7DEB7299776
S11334C0CDBFDEBF7C015B012E833F8348875987D4
S11334D010E06C0183E1C80ED11C0FB6F8940F9272
S11334E0F701868D882399F1C680D780B501C7017D
S11334F00E94EA1801111AC0F701868D8150868F47
S113350080819181892B29F40E945820F7018283BC
S11335109383F70180858823B1F0C70108960E9440
S11335207E1F813081F40E94D7170DC0F701C68237
S1133530D7828389882339F0C70143960E947E1F6E
S113354081110E94D7170F900FBE81E062C08E8157
S11335509F81A885B985892B8A2B8B2B21F40F9009
S11335600FBE80E056C0111105C0CE0101960E9425
S1133570BD1F11E00F900FBE0E94B81C0FB6F89447
S11335800F92F70181A18F3F09F411A2F70182A1E3
S11335908F3F09F412A20F900FBEBE016A5F7F4FE6
S11335A0CE0101960E94CE1F81112DC00FB6F89452
S11335B00F92F701868D0F900FBE81111EC080817E
S11335C09181892B49F40FB6F8940F9282819381EB
S11335D00E945D200F900FBE4E815F8168857985C2
S11335E0C6010E94541FC7010E9404190E94DA1DDB
S11335F0811173CF0E94D71770CFC7010E9404199D
S11336000E94DA1D6ACFC7010E9404190E94DA1DC4
S113361080E02996CDBFDEBFDF91CF911F910F913E
S1133620FF90EF90DF90CF90BF90AF9008950FB6CA
S1133630F8940F92FC01868D0F900FBE0895C2E698
S1133640D1E388818230E8F30E94D717FACFCF9272
S1133650DF92EF92FF926B017C01E0918E31F09149
S11336608F31628373838483958380913631909103
S11336703731A0913831B0913931C816D906EA06EC
S1133680FB0668F460918E3170918F3180914831DE
S1133690909149316E5F7F4F0E94B21621C06091B4
S11336A08E3170918F3180914A3190914B316E5FA0
S11336B07F4F0E94B2168091022090910320A09126
S11336C00420B0910520C816D906EA06FB0640F48A
S11336D0C0920220D0920320E0920420F0920520B0
S11336E0FF90EF90DF90CF9008954F925F926F928A
S11336F07F928F929F92AF92BF92CF92DF92EF927E
S1133700FF920F931F93CF93DF935C014B013A0118
S1133710290188E290E00E94A415EC01892B09F4A8
S1133720D4C0C114D10409F0CCC0C3010E94A415B3
S11337308B8F9C8F009721F4CE010E943E16C5C04A
S1133740A30161E170E00E9430219301215031090D
S11337508B8D9C8D3C01620E731E4AE050E0B401D7
S1133760CE014D960E9437211EA2102F043008F07E
S113377013E01A8F1FA36E0122E0C20ED11CC601F2
S11337800E948716CE010E960E948716CA87DB8791
S113379084E090E0A0E0B0E0811B9109A109B109A7
S11337A08E879F87A88BB98BCE8BDF8BA201B50147
S11337B0C3010E94231788839983E114F10419F04B
S11337C0F701C083D1830FB6F8940F9280913A31F8
S11337D08F5F80933A3180918E3190918F31892B14
S11337E089F5C0938E31D0938F3180913A318130F5
S11337F0C1F582E691E30E9476168DE691E30E947C
S1133800761688E791E30E94761683E891E30E9496
S1133810761687E591E30E9476168CE491E30E9484
S113382076168DE391E30E94761687E591E3809303
S11338304A3190934B318CE491E3809348319093D7
S113384049310FC08091333181110BC0E0918E3129
S1133850F0918F31828D081720F0C0938E31D09370
S11338608F318A8D90913531981710F480933531CA
S113387090912E319F5F90932E319091343198170F
S113388010F480933431FBE08F9FC0011124B60102
S11338908E599E4C0E948B160F900FBE809133312F
S11338A0882359F0E0918E31F0918F31828D801709
S11338B030F40E94D71781E009C081E007C081E09D
S11338C005C0CB8EDC8EC6013BCF8FEFDF91CF914D
S11338D01F910F91FF90EF90DF90CF90BF90AF902A
S11338E09F908F907F906F905F904F9008950FB648
S11338F0F8940F92009721F480918E3190918F313A
S11339000F900FBEFC01828D0895AF92BF92CF92AB
S1133910DF92EF92FF920F93A12CB12CC12CD12CEA
S11339200F2EFBE3EF2EF1E3FF2EF02D00E020E05D
S113393030E044E650E068ED70E28FE19BE10E94E4
S1133940751B813069F4F8948093333110923631C9
S11339501092373110923831109239310E949917F0
S11339600F91FF90EF90DF90CF90BF90AF900895AC
S1133970809132318F5F8093323108950FB6F8947D
S11339800F92609136317091373180913831909136
S113399039310F900FBE0895009721F480918E3134
S11339A090918F314D96089580913B3190913C31A7
S11339B00895FF920F931F93CF93DF938091323139
S11339C08111EDC08091363190913731A091383119
S11339D0B09139310196A11DB11D80933631909378
S11339E03731A0933831B093393180913631909189
S11339F03731A0913831B0913931892B8A2B8B2BF7
S1133A00F1F580914A3190914B31209148313091B8
S1133A10493120934A3130934B318093483190930C
S1133A20493180912F318F5F80932F31E0914A315A
S1133A30F0914B31808181110CC08FEF9FEFDC013D
S1133A408093022090930320A0930420B093052038
S1133A5016C0E0914A31F0914B310780F085E02D9A
S1133A600084F185E02D82819381A481B5818093C6
S1133A70022090930320A0930420B093052040914A
S1133A8036315091373160913831709139318091AC
S1133A90022090910320A0910420B09105204817A2
S1133AA059076A077B0708F47FC0E0914A31F09117
S1133AB04B3180818823F9F0E0914A31F0914B3108
S1133AC00780F085E02DC085D1858A819B81AC81FA
S1133AD0BD814091363150913731609138317091C8
S1133AE03931481759076A077B0758F10F2EFBE055
S1133AF0FF2EF02D2FC08FEF9FEFDC01809302206B
S1133B0090930320A0930420B09305204DC0E0912E
S1133B104A31F0914B310780F085E02DC085D18585
S1133B208A819B81AC81BD8140913631509137317E
S1133B306091383170913931481759076A077B070A
S1133B4048F48093022090930320A0930420B09320
S1133B5005202AC08E010E5F1F4FC8010E94FD166A
S1133B60888D998D892B21F0CE010E960E94FD1629
S1133B708A8D90913431981710F480933431F89EE3
S1133B80C0011124B8018E599E4C0E948B16E091FD
S1133B904A31F0914B3180818111B9CFACCF809102
S1133BA031318F5F80933131DF91CF911F910F912C
S1133BB0FF900895CF92DF92EF92FF920F931F939D
S1133BC0CF93DF930FB6F8940F92809132318150E6
S1133BD08093323180913231811160C080913A31C9
S1133BE081112CC05EC0D7011796ED91FC911897F6
S1133BF0C085D185CE010E960E94FD168E010E5F02
S1133C001F4FC8010E94FD168A8D90913431981778
S1133C1010F480933431D89EC0011124B8018E5918
S1133C209E4C0E948B16E0918E31F0918F319A8DCB
S1133C30828D981770F0CC24C3940BC0C12C0F2E26
S1133C40FDE3EF2EF1E3FF2EF02D0F2EFBE0DF2E30
S1133C50F02DF70180818111C6CF80913131882305
S1133C6081F080913131882399F00E94D91C809190
S1133C703131815080933131809131318111F5CFCF
S1133C8007C0F1E0CF1621F080913031813041F44A
S1133C90109230310E94D71781E003C080E001C048
S1133CA080E00F900FBEDF91CF911F910F91FF9095
S1133CB0EF90DF90CF900895CF92DF92EF92FF9232
S1133CC0CF93DF93EC016A017B010E94B81C8881C9
S1133CD09981AA81BB81C80ED91EEA1EFB1E4091A0
S1133CE036315091373160913831709139314817FC
S1133CF059076A077B07B8F4C816D906EA06FB0613
S1133D00E0F58091363190913731A0913831B091FE
S1133D103931C882D982EA82FB828C159D05AE05B1
S1133D20BF05F8F413C0C816D906EA06FB0600F16D
S1133D308091363190913731A0913831B091393139
S1133D408C159D05AE05BF0598F017C080918E3186
S1133D5090918F3102960E94FD16C701B6010E9410
S1133D60271B0E94DA1D81110DC00E94D7170AC0BB
S1133D70C882D982EA82FB82E9CFC882D982EA82E8
S1133D80FB82EFCFDF91CF91FF90EF90DF90CF9048
S1133D900895CF92DF92EF92FF926B017C01672B23
S1133DA0682B692BE9F00E94B81C80913631909100
S1133DB03731A0913831B0913931C80ED91EEA1E7D
S1133DC0FB1E80918E3190918F3102960E94FD16D8
S1133DD0C701B6010E94271B0E94DA1D811102C08F
S1133DE00E94D717FF90EF90DF90CF9008958091B5
S1133DF0323181110CC0E09134314BE0E49FF00189
S1133E001124EE59FE4C8081882329F014C081E0EE
S1133E108093303108959BE08091343181508093B8
S1133E203431E09134319E9FF0011124EE59FE4C5F
S1133E308081882389F380913431282F30E04BE04E
S1133E40849FC0011124DC01AE59BE4C1196ED9142
S1133E50FC9112970480F581E02D1196ED93FC936B
S1133E6012978B599E4CE817F90761F48481958168
S1133E704BE0429FF001439FF00D1124EE59FE4C9C
S1133E80818392838BE0829FF001839FF00D112444
S1133E90EE59FE4C0180F281E02D8085918580935E
S1133EA08E3190938F310895CF92DF92EF92FF92EB
S1133EB06A017B0160918E3170918F31625F7F4F17
S1133EC00E94B21680918E3190918F3102960E9499
S1133ED0FD168091363190913731A0913831B091EF
S1133EE03931BC01CD016C0D7D1D8E1D9F1D0E94BD
S1133EF0271BFF90EF90DF90CF9008950F931F93AF
S1133F00CF93DF93DC011796ED91FC911897C08550
S1133F10D1858E01025F1F4FC8010E94FD1680915A
S1133F203231811116C00C501109C8010E94FD16CE
S1133F308A8D90913431981710F480933431BBE01A
S1133F408B9FC0011124B8018E599E4C0E948B1680
S1133F5005C0B8018DE391E30E948B16E0918E3188
S1133F60F0918F3181E02A8D928D291708F480E039
S1133F70DF91CF911F910F91089520912F31FC0172
S1133F8020834091363150913731609138317091AE
S1133F903931418352836383748308958F929F924E
S1133FA0AF92BF92CF92DF92EF92FF920F931F9343
S1133FB0CF93DF93FC010FB6F8940F9280912F31C9
S1133FC09081981789F08091363190913731A09182
S1133FD03831B091393101811281238134818017C4
S1133FE09107A207B307A8F5809136319091373134
S1133FF0A0913831B0913931C180D280E380F4800E
S1134000EB01088119812A813B818C199D09AE0934
S1134010BF0980179107A207B307E8F4CF01809086
S1134020363190903731A0903831B0903931B501A4
S1134030A4014C195D096E097F09041B150B260B9D
S1134040370B088319832A833B830E94BD1F80E0BA
S113405003C081E001C081E00F900FBEDF91CF91DA
S11340601F910F91FF90EF90DF90CF90BF90AF9092
S11340709F908F90089581E0809330310895009748
S113408021F480918E3190918F31DC015B96ED911A
S1134090FC915C978081813141F4319680E090E01D
S11340A0019621912131E1F3089580E090E0089593
S11340B080918E3190918F3108950F931F93CF93F8
S11340C0DF93FC01228DA0918E31B0918F315A96ED
S11340D08C91281708F041C0A0918E31B0918F3196
S11340E05A963C9184E090E0A0E0B0E0831B9109F3
S11340F0A109B10986879787A08BB18B8BE0289F94
S1134100900111242E593E4C84859585821793077E
S1134110E9F48F01EF012296CE010E94FD16E09191
S11341208E31F0918F31828DF801828F90913431EC
S1134130981710F480933431FBE08F9FC001112451
S1134140BE018E599E4C0E948B1607C0A0918E31E1
S1134150B0918F315A968C91828FDF91CF911F91BC
S11341600F9108950F931F93CF93DF93009749F115
S1134170FC01328D27A1321721F1EC018C010E5F75
S11341801F4FC8010E94FD168FA18A8F44E050E0A2
S113419060E070E0481B5109610971094E875F872F
S11341A0688B798B90913431981710F48093343163
S11341B0FBE08F9FC0011124B8018E599E4C0E94D0
S11341C08B16DF91CF911F910F910895052E97FBC8
S11341D01EF400940E94FD2057FD07D00E94052183
S11341E007FC03D04EF40C94FD2050954095309577
S11341F021953F4F4F4F5F4F08959095809570954F
S113420061957F4F8F4F9F4F0895A1E21A2EAA1BED
S1134210BB1BFD010DC0AA1FBB1FEE1FFF1FA21772
S1134220B307E407F50720F0A21BB30BE40BF50B6F
S1134230661F771F881F991F1A9469F760957095F8
S1134240809590959B01AC01BD01CF010895FB01C0
S1134250DC0102C001900D9241505040D8F70895FE
S1134260DC0101C06D9341505040E0F70895FB011B
S1134270DC014150504048F001900D920020C9F7F4
S113428001C01D9241505040E0F708952532310598
S113429020F4223010F00C945121FA011082CA014A
S11342A00895BB27FA01A62F6217710581059105B0
S11342B0330B30FB66F0AA27660F771F881F991F00
S11342C0AA1FA21710F0A21B63953850A9F7A05D8E
S11342D0AA3308F0A95DA19336F7B111B193108206
S11342E0CA010C9498214532510520F4423010F053
S11342F00C947E21FB011082CB010895BB27FB01A6
S11343005527AA27880F991FAA1FA41710F0A41BCA
S113431083955051B9F7A05DAA3308F0A95DA19324
S1134320009779F7B111B1931192CB010C949821B4
S1134330DC01FC01672F71917723E1F7329704C008
S11343407C916D9370836291AE17BF07C8F3089593
S11343505058BB27AA270E94C0210C9411230E9405
S1134360032338F00E940A2320F039F49F3F19F404
S113437026F40C9400230EF4E095E7FB0C94FA2247
S1134380E92F0E94222358F3BA17620773078407A0
S1134390950720F079F4A6F50C9444230EF4E095E7
S11343A00B2EBA2FA02D0B01B90190010C01CA01EB
S11343B0A0011124FF27591B99F0593F50F4503E96
S11343C068F11A16F040A22F232F342F4427585F88
S11343D0F3CF469537952795A795F0405395C9F7A0
S11343E07EF41F16BA0B620B730B840BBAF0915058
S11343F0A1F0FF0FBB1F661F771F881FC2F70EC0F7
S1134400BA0F621F731F841F48F4879577956795C9
S1134410B795F7959E3F08F0B0CF9395880F08F0B5
S11344209927EE0F9795879508950E9429220C9459
S113443011230E940A2358F00E94032340F029F418
S11344405F3F29F00C94FA2251110C9445230C94EB
S113445000230E94222368F39923B1F3552391F397
S1134460951B550BBB27AA2762177307840738F0DF
S11344709F5F5F4F220F331F441FAA1FA9F335D03C
S11344800E2E3AF0E0E832D091505040E695001CF0
S1134490CAF72BD0FE2F29D0660F771F881FBB1FAA
S11344A0261737074807AB07B0E809F0BB0B802D88
S11344B0BF01FF2793585F4F3AF09E3F510578F0B4
S11344C00C94FA220C9445235F3FE4F3983ED4F312
S11344D0869577956795B795F7959F5FC9F7880F88
S11344E0911D9695879597F90895E1E0660F771FDA
S11344F0881FBB1F621773078407BA0720F0621B6B
S1134500730B840BBA0BEE1F88F7E09508950E9495
S11345108E226894B1110C94452308950E942A2395
S113452088F09F5798F0B92F9927B751B0F0E1F070
S1134530660F771F881F991F1AF0BA95C9F714C020
S1134540B13091F00E944423B1E008950C944423C7
S1134550672F782F8827B85F39F0B93FCCF3869559
S113456077956795B395D9F73EF4909580957095B6
S113457061957F4F8F4F9F4F0895E89409C097FB33
S11345803EF490958095709561957F4F8F4F9F4F26
S11345909923A9F0F92F96E9BB279395F69587956A
S11345A077956795B795F111F8CFFAF4BB0F11F42D
S11345B060FF1BC06F5F7F4F8F4F9F4F16C08823D4
S11345C011F096E911C0772321F09EE8872F762F0A
S11345D005C0662371F096E8862F70E060E02AF04B
S11345E09A95660F771F881FDAF7880F9695879537
S11345F097F9089597F99F6780E870E060E008955F
S11346009FEF80EC089500240A94161617061806E6
S11346100906089500240A941216130614060506C2
S11346200895092E0394000C11F4882352F0BB0F53
S113463040F4BF2B11F460FF04C06F5F7F4F8F4FB6
S11346409F4F089557FD9058440F551F59F05F3FF1
S113465071F04795880F97FB991F61F09F3F79F0A0
S113466087950895121613061406551FF2CF469522
S1134670F1DF08C0161617061806991FF1CF8695A4
S11346807105610508940895E894BB276627772788
S1134690CB0197F908950E945E230C9411230E9484
S11346A0032338F00E940A2320F0952311F00C9480
S11346B0FA220C94002311240C9445230E942223F3
S11346C070F3959FC1F3950F50E0551F629FF00161
S11346D0729FBB27F00DB11D639FAA27F00DB11D7A
S11346E0AA1F649F6627B00DA11D661F829F222703
S11346F0B00DA11D621F739FB00DA11D621F839F8A
S1134700A00D611D221F749F3327A00D611D231F5F
S1134710849F600D211D822F762F6A2F11249F57AD
S113472050409AF0F1F088234AF0EE0FFF1FBB1FB0
S1134730661F771F881F91505040A9F79E3F51056F
S113474080F00C94FA220C9445235F3FE4F3983EE6
S1134750D4F3869577956795B795F795E7959F5F19
S1134760C1F7FE2B880F911D9695879597F90895AB
S1134770DB018F939F930E94D123BF91AF91A29F9E
S1134780800D911DA39F900DB29F900D112408954B
S1134790EE0FFF1F881F8BBF0790F691E02D1BBE05
S11347A019940E94DC23A59F900DB49F900DA49FA3
S11347B0800D911D11240895A29FB001B39FC001E3
S11347C0A39F700D811D1124911DB29F700D811D39
S10D47D01124911D0895F894FFCF01
S11347DAFF0FFFFFFFFF000000003E11AE0C750C37
S11347EA880C38116C0C000000007E048B12000047
S11347FA0000F40B8B12000000005D0A8B1200000B
S113480A0000EB0A8B120000000041078B12000023
S113481A0000930B8B12000000003E114011391165
S113482A3B1138113711000000003E116A115F1163
S113483A4111381137110000000040118B124C4904
S113484A4D49542053574954434820484954204514
S113485A52524F52004672656552544F5320586D56
S113486A6567612054657374696E672050726F6757
S113487A72616D0055736572496E74004C65667495
S113488A5377005269676874537700456E635065BD
S113489A6E00456E634D7472005379734374726C7F
S11148AA004D7472436D640049444C45000097
S9030000FC
