:100000000C9466030C949C030C949C030C949C032A
:100010000C949C030C949C030C949C030C949C03E4
:100020000C949C030C949C030C949C030C949C03D4
:100030000C949C030C949C030C949C030C949C03C4
:100040000C949C030C949C030C949C030C949C03B4
:100050000C949C030C949C030C949C030C949C03A4
:100060000C949C030C942A160C949C030C949C03F3
:100070000C94CC150C949C030C949C030C949C0342
:100080000C949C030C949C030C949C030C949C0374
:100090000C949C030C949C030C949C030C949C0364
:1000A0000C949C030C949C030C949C030C949C0354
:1000B0000C949C030C949C030C949C030C949C0344
:1000C0000C949C030C940F220C949C030C949C03A2
:1000D0000C949C030C949C030C949C030C949C0324
:1000E0000C949C030C949C030C94B2140C949C03ED
:1000F0000C949C030C949C030C949C030C949C0304
:100100000C949C030C949C030C949C030C949C03F3
:100110000C949C030C949C030C949C030C949C03E3
:100120000C949C030C949C030C949C030C949C03D3
:100130000C949C030C949C030C949C030C949C03C3
:100140000C949C030C949C030C949C030C949C03B3
:100150000C949C030C949C030C949C030C949C03A3
:100160000C946E150C949C030C949C030C94101529
:100170000C949C030C949C030C949C030C949C0383
:100180000C949C030C949C030C949C030C949C0373
:100190000C949C030C949C030C949C030C949C0363
:1001A0000C949C030C949C030C949C030C949C0353
:1001B0000C949C030C949C030C949C030C949C0343
:1001C0000C949C030C949C030C949C030C949C0333
:1001D0000C949C030C949C030C949C030C949C0323
:1001E0000C949C030C949C030C949C030C949C0313
:1001F0000C949C030C949C030C949C03E019611ACE
:10020000611A611A611A611A611A611A611A611A16
:10021000611A611A611A611A611A611A611A611A06
:10022000611A611A611A611A611A611A611A611AF6
:10023000611A611A611A611A611A611A611A611AE6
:10024000611A611A611A611A611A611A611A611AD6
:10025000611A611A611A611A611A611A611A611AC6
:10026000611A611A611A611A611A611A611A611AB6
:10027000611A611A611A611A611A611A611A611AA6
:10028000611A611A611A611A611AF519611A2B1A39
:10029000E019611A111ADC19611A611A611A611ADE
:1002A000611A9D18611A611A611A471AA219611A16
:1002B000611AAB181A1B1D1B201B231B261B291B95
:1002C0002B1B3C1B441B4E1B4C1B0C94AB180C945F
:1002D0009D120C942B1B0C9493240C94AD1A0C942B
:1002E000201B0C94AB1A0C94FC1A0C94AC1A0C94B2
:1002F00079120C94BF110C9437120C94AF1A0C9411
:100300004C1B0C94A10F0C94F5190C943C1B0C94F1
:10031000E8170C94E0190C949B100C945E110C944B
:1003200040120C94231B0C94FF1B0C941A1B0C946E
:10033000B41A0C94611A0C94111A0C94D31A0C94DC
:100340004E1B0C94DE1A0C9453120C94B51A0C9498
:10035000441B0C94261B0C941D1B0C94DC190C9450
:10036000B21A0C942B1A0C9441060C94A2190C94FA
:100370009D180C94291B0C94471A0909002F004959
:10038000444C45090930092D0900092D2D2D2D005A
:10039000092D2D2D2D2D2D2D2D2D2D002D2D2D2DDE
:1003A00009092D2D2D2D092D2D2D2D2D00095275CD
:1003B0006E730009467265652F546F74616C004E50
:1003C000616D6509095072692E0953746174650085
:1003D00009537461636B005461736B090920200930
:1003E00020002C20544343304343413D002F002C38
:1003F000204865617020667265653A200054696D19
:10040000653A20004A756C202035203230323600A3
:100410004D45343035206261736520726164696FC7
:100420002070726F6772616D2056302E3420001B71
:100430005B32326D005461736B3A2049444C450085
:100440001B5B316D00496C6C6567616C2073746176
:1004500074652120526573657474696E6720415616
:1004600052003A5754463F0052657365742C20740D
:10047000727920486F6D696E6720616761696E20CF
:100480006279207072657373696E67202762270036
:10049000454D455247454E43592053544F50004314
:1004A0006F6D6D656E63652042616C616E636500A2
:1004B000426567696E20486F6D696E6700457869AF
:1004C0007420636F6D6D616E64206D6F64650052A2
:1004D0006573657474696E67204156520050726589
:1004E0007373204374726C2D4120666F7220636FAA
:1004F0006D6D616E64206D6F646500202020206842
:100500003A20202048414C50210020202020723ADF
:10051000202020526573657420746F2049646C65D7
:100520000020202020643A202020456D65726765F8
:100530006E63792053746F700020202020673A206A
:10054000202053746172742042616C616E63652176
:100550000020202020623A202020426567696E201A
:1005600043616C6962726174696F6E0020202020A3
:10057000653A2020204578697420636F6D6D616E47
:1005800064206D6F64650020202020733A202020B5
:10059000537461636B2064756D7020666F72207494
:1005A00061736B730020202020763A20202056654E
:1005B0007273696F6E20616E64207365747570204C
:1005C000696E666F726D6174696F6E002020202005
:1005D0006E3A20202053686F772074686520746914
:1005E0006D65207269676874206E6F7700202049FE
:1005F0006E20636F6D6D616E64206D6F6465206F3A
:100600006E6C793A00202043746C2D413A20456E7F
:1006100074657220636F6D6D616E64206D6F6465CB
:1006200000202043746C2D433A205265736574207A
:1006300074686520415652002068656C70004D4515
:10064000343035206261736520726164696F207097
:10065000726F6772616D2056302E3420001B5B3341
:10066000306D001B5B34366D004552524F52206393
:1006700072656174696E67207461736B20002C2051
:10068000737461636B20617420307800206372653D
:1006900061746564005461736B20001B5B32326DC2
:1006A000005461736B3A20001B5B316D0009000937
:1006B000002F00090009001B5B32326D001B5B310B
:1006C0006D001B5B316D002020009D1211241FBEA8
:1006D000CFEFCDBFDFE3DEBF00E00CBF18BE19BE19
:1006E0001ABE1BBE11E2A0E0B0E2EEE1FBE500E0C5
:1006F0000BBF02C007900D92A43CB107D9F71BBEF7
:1007000022E3A4ECB1E201C01D92AA37B207E1F7DF
:1007100013E0C6E6D3E000E006C021970109802F70
:10072000FE010E946A2DC536D10780E00807A9F7AF
:100730000E94C1120C948D2D0C9400002F923F92B8
:100740004F925F926F927F928F929F92AF92BF92E1
:10075000CF92DF92EF92FF920F931F93CF93DF938D
:100760001C0180E4F10111928A95E9F7842E952EFF
:10077000622E732E51012101F0E44F0E511C6501D0
:1007800073018401C0E0D0E0F80161917191819121
:1007900091918F01F70121913191419151917F0107
:1007A0000E941D2BF60161937193819391936F01C8
:1007B0002196C430D10541F7F0E18F0E911C80E104
:1007C000680E711CE0E1AE0EB11CA414B504B9F6BC
:1007D000C101DF91CF911F910F91FF90EF90DF90BA
:1007E000CF90BF90AF909F908F907F906F905F90D1
:1007F0004F903F902F9008952F923F924F925F928B
:100800006F927F928F929F92AF92BF92CF92DF9220
:10081000EF92FF920F931F93CF93DF93CDB7DEB785
:10082000CC54D109CDBFDEBF2D968EAF9FAF2D9793
:100830002B962EAF3FAF2B97FE01319680E4DF0160
:100840001D928A95E9F726964FAF269727965FAFB8
:1008500027972996EEAFFFAF2997E05CFF4F2396CD
:10086000EEAFFFAF23971901F0E12F0E311C2B964D
:100870008EAC9FAC2B972996AEACBFAC2997259632
:10088000AEAEBFAE2597D5014D905D906D907C903A
:100890006401B0E4CB0ED11C84012796EEACFFAC12
:1008A0002797F70161917191819191917F01D80111
:1008B0002D913D914D915C910E94ED2C9B01AC01DD
:1008C000C301B2010E941D2B2B013C01005F1F4F91
:1008D0000C151D0531F72596EEADFFAD259760830C
:1008E000718382839383F4E0AF0EB11C24E0820E07
:1008F000911C8214930419F627968EAD9FAD27970D
:10090000409627968EAF9FAF27972996AEADBFAD85
:10091000299750962996AEAFBFAF29972396EEAD93
:10092000FFAD2397AE17BF0709F0A1CF80E4FE010A
:1009300031962D96AEADBFAD2D9701900D928A9553
:10094000E1F72D968EAD9FAD2D97C45BDF4FCDBFE8
:10095000DEBFDF91CF911F910F91FF90EF90DF905D
:10096000CF90BF90AF909F908F907F906F905F904F
:100970004F903F902F900895CF92DF92EF92FF9289
:100980000F931F93CF93DF93CDB7DEB7C054D10938
:10099000CDBFDEBFFE01319660E4DF011D926A9596
:1009A000E9F7E42EF52E9F016E01B1E1CB0ED11CCB
:1009B0008901005C1F4FF901D7014D915D916D9147
:1009C0007D9140835183628373837096E017F107B2
:1009D000A1F740E1E40EF11C2C5F3F4F2C153D05C3
:1009E00039F720E4FE013196DC0101900D922A9541
:1009F000E1F7C05CDF4FCDBFDEBFDF91CF911F912C
:100A00000F91FF90EF90DF90CF9008952F923F923B
:100A10004F925F926F927F928F929F92AF92BF920E
:100A2000CF92DF92EF92FF920F931F93CF93DF93BA
:100A300000D000D0CDB7DEB78B839C8329833A8367
:100A400080E1EB81FC8111928A95E9F7EB80FC80D3
:100A5000A42EB52E1701F0E12F0E311CC980DA80CB
:100A600080E1C80ED11C4701F701408051806280AF
:100A7000738089819A818D839E838501F8016191BC
:100A80007191819191918F01ED81FE81219131913F
:100A900041915191ED83FE830E94ED2C9B01AC01AD
:100AA000C301B2010E941D2B2B013C018D819E814F
:100AB0008C159D0519F7F401408251826282738280
:100AC000F4E0EF0EF11C80E1A80EB11CE214F30477
:100AD00051F68B819C812696CDBFDEBFDF91CF91F1
:100AE0001F910F91FF90EF90DF90CF90BF90AF904C
:100AF0009F908F907F906F905F904F903F902F903E
:100B000008954F925F926F927F928F929F92AF92D1
:100B1000BF92CF92DF92EF92FF920F931F93CF93EA
:100B2000DF93CDB7DEB7C053D140CDBFDEBF7C0170
:100B3000FE01B19680E1DF011D928A95E9F7DB01A4
:100B40004D905D906D907C906701B0E4CB0ED11C10
:100B50005F014E0181E3880E911C8F01D6016D91DA
:100B60007D918D919D916D01A30192010E94ED2CCB
:100B7000F80161937193819391938F01E815F905C1
:100B800069F7970120553E4FA701B701CE01419665
:100B90000E940605FE01319680E1DF011D928A95D3
:100BA000E9F78E010F5E1F4F6F014E01B1E28B0E10
:100BB000911CF80161917191819191918F01D50101
:100BC0002D913D914D915D915D010E941D2BF6018E
:100BD00061937193819391936F010815190549F7FA
:100BE000D701A055BE4F80E1FE01319601900D92D4
:100BF0008A95E1F7A701B701CE01C1960E94BC0416
:100C00008701005F1E4F9E012F5C3F4FA801B70177
:100C1000CE018F589F4F0E94FC039E012F583F4FDB
:100C2000A701B701CE018F549F4F0E94FC0397018B
:100C3000205B3F4FAE014F545F4FB701CE018F5045
:100C40009F4F0E949E0380E4FE01EF50FF4FD801AA
:100C500001900D928A95E1F7C05DDE4FCDBFDEBFFA
:100C6000DF91CF911F910F91FF90EF90DF90CF9088
:100C7000BF90AF909F908F907F906F905F904F90BC
:100C80000895CF93DF93CDB7DEB7C659D540CDBF1A
:100C9000DEBFC958DA4F88839983C757D5400E9471
:100CA000322665966CAF7DAF8EAF9FAF6597699624
:100CB0001CAE1DAE1EAE1FAE69979E01275A3F4F58
:100CC00080E1D9011D928A95E9F780E4E6E0F0E23F
:100CD000DE01A759BF4F01900D928A95E1F780E19F
:100CE000E6E4F0E2DE01A755BF4F01900D928A9530
:100CF000E1F780E4E6E5F0E2DE01A754BF4F0190A2
:100D00000D928A95E1F780E4E6E5F0E2DE01A75076
:100D1000BF4F01900D928A95E1F780E4E6E5F0E29D
:100D2000DE01A75CBE4F01900D928A95E1F780E449
:100D3000E6E9F0E2DE01A758BE4F01900D928A95D8
:100D4000E1F780E4E6E5F0E2DE01A754BE4F019052
:100D50000D928A95E1F780E1F901DE01A75EBD4FB2
:100D600001900D928A95E1F7BE016B5A7F4FCE013B
:100D700087599F4F0E948105B12CE1E4F0E0EC0F10
:100D8000FD1F7096CB56DA4FE883F983C559D540DD
:100D90009E0127503E4FC159DA4F28833983CF56E1
:100DA000D540AE01435D5B4FCF58DA4F488359833E
:100DB000C157D5401E0153E9251A5DEF350ACD57BD
:100DC000DA4F2882C358D540CC57DA4F3882C458FE
:100DD000D540C958DA4FA881B981C757D5401C966C
:100DE0008C91823009F4E8C038F4882381F0813096
:100DF00009F48AC00C94850F843009F400C208F409
:100E000011C1843611F40C944C0F0C94850FE091B1
:100E1000CE21F091CF210FB6F8940F92108211825B
:100E2000128213820F900FBEC958DA4FE881F98100
:100E3000C757D540168E178E10A211A20FB6F89480
:100E40000F920F900FBEE091CA21F091CB218081CB
:100E5000882311F40C947F0FE091C421F091C521F7
:100E60000FB6F8940F9210820F900FBEE091C6213A
:100E7000F091C7210FB6F8940F9210820F900FBE19
:100E8000E091CC21F091CD210FB6F8940F928CED2A
:100E900090E0808391830F900FBE0FB6F8940F926D
:100EA0000F900FBEE091DA21F091DB218081882341
:100EB00011F40C94810F0FB6F8940F92E091D821A1
:100EC000F091D92180819181A281B3810F900FBED1
:100ED000E091CE21F091CF210FB6F8940F9280834C
:100EE0009183A283B3830F900FBE81E0C958DA4F7C
:100EF000A881B981C757D5401C968C931C971D9625
:100F00008C93B12C0C94850FE091CA21F091CB21E8
:100F10000FB6F8940F9210820F900FBEE091CC2183
:100F2000F091CD210FB6F8940F9284E29FEF808369
:100F300091830F900FBE0FB6F8940F920F900FBED3
:100F4000E091DC21F091DD2180818823D1F00FB682
:100F5000F8940F92E091D821F091D921808191816C
:100F6000A281B3810F900FBEC958DA4FE881F98191
:100F7000C757D540828B938BA48BB58B82E0848737
:100F800085870FB6F8940F920F900FBEE091C421A1
:100F9000F091C5218081882311F40C94850FC958E4
:100FA000DA4FA881B981C757D5401C961C921C976F
:100FB0001D961C920C94850FE091CC21F091CD21CF
:100FC0000FB6F8940F92108211820F900FBE68EC4A
:100FD00070E080E090E00E943D280FB6F8940F92F8
:100FE0000F900FBEE091DC21F091DD2180818823FC
:100FF00079F0E091CC21F091CD210FB6F8940F92C9
:101000008CED90E0808391830F900FBE0C94850F40
:1010100083E0C958DA4FE881F981C757D540848702
:10102000858773C720E030E040E05FE3C958DA4FBE
:10103000A881B981C757D54052966D917D918D9108
:101040009C9155970E94ED2CC958DA4FE881F9819F
:10105000C757D540668B778B808F918F0FB6F894EA
:101060000F920F900FBEE091D821F091D9212081ED
:101070003181428153810E941C2B6B017C01C95834
:10108000DA4FA881B981C757D5405A966D937D93A1
:101090008D939C935D975E962D913D914D915C91C2
:1010A00091970E941D2B2B013C01C958DA4FE88112
:1010B000F981C757D540668F778F80A391A30091A0
:1010C000CC211091CD210FB6F8940F9226A137A113
:1010D00040A551A5C701B6010E94ED2C6B017C0112
:1010E000C958DA4FA881B981C757D5409A962D9132
:1010F0003D914D915C919D97C301B2010E94ED2CF1
:101100009B01AC01C701B6010E941D2B0E94002C5F
:10111000F801608371830F900FBE0FB6F8940F92A1
:101120000F900FBEE091DC21F091DD2180818111D3
:101130000CC00FB6F8940F920F900FBEE091DA2119
:10114000F091DB2180818823E1F0C958DA4FA88132
:10115000B981C757D54016960D911C9117976EE32C
:1011600071E2C8010E94521B66E0C8010E940B1B7D
:1011700084E6C958DA4FE881F981C757D54084879A
:101180008587E091C421F091C5210FB6F8940F92A4
:101190000F900FBE80818823D9F00FB6F8940F927C
:1011A00010820F900FBEE091C621F091C7210FB6BB
:1011B000F8940F9210820F900FBEC958DA4FA88191
:1011C000B981C757D5401C961C921C971D961C923E
:1011D0000FB6F8940F920F900FBEE091C821F091D6
:1011E000C9218081882309F490C684E0C958DA4F68
:1011F000E881F981C757D5408487858786C60FB6B1
:10120000F8940F920F900FBEE091C621F091C72184
:101210008081882361F084E6C958DA4FA881B981BA
:10122000C757D5401C968C931C971D968C93B11074
:1012300017C00FB6F8940F92E091D221F091D3210C
:1012400080819181A281B3810F900FBEC958DA4F7E
:10125000E881F981C757D54086A797A7A0ABB1AB66
:10126000E091C821F091C9210FB6F8940F92108235
:101270000F900FBE0FB6F8940F920FB6F8940F921E
:10128000E091D821F091D92120813181428153818F
:10129000C357DA4F288339834A835B83CD58D540BF
:1012A0000F900FBE0FB6F8940F92E091D621F091F7
:1012B000D72180819181A281B381CF56DA4F888373
:1012C0009983AA83BB83C159D5400F900FBE0FB637
:1012D000F8940F92E091D221F091D32120813181B5
:1012E00042815381CB57DA4F288339834A835B830A
:1012F000C558D5400F900FBE0FB6F8940F92E091ED
:10130000D021F091D12180819181A281B381C757F1
:10131000DA4F88839983AA83BB83C958D5400F903D
:101320000FBE0F900FBEC357DA4F288139814A8113
:101330005B81CD58D54025962CAF3DAF4EAF5FAF0A
:101340002597CF56DA4F88819981AA81BB81C159EF
:10135000D54029968CAF9DAFAEAFBFAF2997CB5785
:10136000DA4F288139814A815B81C558D5402D9655
:101370002CAF3DAF4EAF5FAF2D97C757DA4F888187
:101380009981AA81BB81C958D54061968CAF9DAF28
:10139000AEAFBFAF61979E01275E3D4FAE01475C88
:1013A0005E4FBE0167597F4FCE0181960E940605B0
:1013B000FE01319680E1DF011D928A95E9F78E01E9
:1013C0000F5B1F4F9E012F5D3F4F69017F01CB5681
:1013D000DA4FA880B980C559D540D8016D917D916B
:1013E0008D919D918D01F601219131914191519104
:1013F0006F010E941C2BD7016D937D938D939D935C
:101400007D010A151B0549F780E1FE013196DE01D9
:10141000A750BE4F01900D928A95E1F7AE01475C4F
:101420005E4FBE0167597F4FCE01835D9B4F0E9487
:10143000BC049E01235D3B4FAE0147585E4FBE0189
:1014400067597F4FCE0183519C4F0E94FC039E0140
:1014500027503F4FAE0143515C4FBE0167597F4F4C
:10146000CE0183559C4F0E949E039E0123553C4F05
:10147000AE01475C5E4FBE0167597F4FCE01835975
:101480009C4F0E94FC0380E8F10111928A95E9F7D4
:10149000AE0143595C4F9E0123503D4FC359DA4F73
:1014A00028833983CD56D540B1019101DB01FA0182
:1014B00080E090E0C190D190E190F190CD92DD92EA
:1014C000ED92FD92019684309105A1F780E090E0C5
:1014D000A0E8BFE3F901808B918BA28BB38B2C5DCD
:1014E0003F4F405F5F4F605E7F4FC359DA4F888147
:1014F0009981CD56D54028173907C1F6D10190966C
:10150000C358DA4FA883B983CD57D540CD57DA4FAA
:10151000B881C358D540C558DA4FB883CB57D540AA
:10152000CC57DA4FE881C458D540C458DA4FE88325
:10153000CC57D540C758DA4FB883C957D540C6589D
:10154000DA4FE883CA57D540CF57DA4FB883C1582E
:10155000D540CE57DA4FE883C258D540CB58DA4F42
:1015600018821982C557D540CB58DA4F2881398166
:10157000C557D5402F5F3F4FC158DA4F2883398375
:10158000CF57D5402430310508F074C0C558DA4F24
:10159000E880F980CB57D540CB58DA4F08811981C4
:1015A000C557D54059016801CC0CDD1CCC0CDD1CA5
:1015B000F70180A191A1A2A1B3A1BC01CD019F77A8
:1015C000F801EE0FFF1FE295F295F07FFE27E07F16
:1015D000FE27E20DF31DEC0DFD1D40805180628061
:1015E0007380A30192015F770E94E82C18160CF417
:1015F0008501FFEFAF1ABF0A20E2E20EF11C34E0D2
:10160000A316B104A9F6CB58DA4F48815981C557C2
:10161000D5404017510771F1000F111F0295129527
:10162000107F1027007F1027F101E00FF11FC35832
:10163000DA4F88819981CD57D540C758DA4FA881B4
:10164000B981C957D5408A179B07A1F04D915D918B
:101650006D917C91139700811181228133810D93CB
:101660001D932D933D9341935193619371938A17E9
:101670009B0761F7C558DA4FE881F981CB57D54010
:10168000C080D180E280F380C758DA4F0881198189
:10169000C957D540C358DA4FA880B980CD57D54037
:1016A000A7019601D8016D917D918D919C910E9429
:1016B0008E2BF80161937193819391938F01EA15B9
:1016C000FB0571F746C0CF57DA4F28813981C158E1
:1016D000D5402C5F3F4FCF57DA4F28833983C1580D
:1016E000D540C758DA4F48815981C957D540405E27
:1016F0005F4FC758DA4F48835983C957D540C358FD
:10170000DA4F88819981CD57D5408096C358DA4FFA
:1017100088839983CD57D540C558DA4FA881B981C0
:10172000CB57D5409496C558DA4FA883B983CB5789
:10173000D540C158DA4FE881F981CF57D540CB5811
:10174000DA4FE883F983C557D540349709F00CCFB9
:101750006CC0CF57DA4F28813981C158D540CD5858
:10176000DA4F28833983C357D540CD57DA4F888065
:10177000C358D540CC57DA4F9880C458D540A12CD7
:10178000B12CCB58DA4F48815981C557D5404A15FD
:101790005B0589F1CD58DA4FA881B981C357D5408F
:1017A0004D905D906D907C906401B0E2CB0ED11CA9
:1017B0008401C758DA4FE880F980C957D540F7014E
:1017C00021913191419151917F01C301B2010E9458
:1017D000ED2C9B01AC01D8016D917D918D919C9177
:1017E0000E941C2BF80161937193819391938F0157
:1017F000EC15FD0521F7FFEFAF1ABF0A20E2820EBC
:10180000911CCD58DA4F48815981C357D540405E6D
:101810005F4FCD58DA4F48835983C357D54054E0C2
:10182000A516B10409F0ADCF4ECFFE01E351FD4F37
:1018300080E4DF011D928A95E9F79101205F3F4F17
:10184000AF01DA01F90184E090E0C190D190E1901C
:10185000F190CD92DD92ED92FD920197B1F7205E6D
:101860003F4F405F5F4FC359DA4FE881F981CD5652
:10187000D5402E173F0729F780E4FE01E351FD4FC5
:10188000DE01A35DBC4F01900D928A95E1F7AE0198
:10189000475C5E4FBE0167597F4FCE0183519D4F1C
:1018A0000E94BC049E0123513D4FAE0147585E4F3C
:1018B000BE0167597F4FCD57DA4F8881C358D54055
:1018C000CC57DA4F9881C458D5400E94FC039E0142
:1018D000235D3C4FCD57DA4F4881C358D540CC5794
:1018E000DA4F5881C458D540BE0167597F4FCE01A9
:1018F000835D9A4F0E94FC0380E4FE01E35DFA4F92
:10190000DE01A35DBD4F01900D928A95E1F79E0126
:1019100027503E4FAE01435D5D4FBE0167597F4F7B
:10192000CE01C1960E940605FE01719680E1DF019D
:101930001D928A95E9F78E01075E1D4F9E012F5C6F
:101940003F4F59017F016E0137EDC31A3DEFD30AB6
:10195000D8016D917D918D919D918D01F501219120
:101960003191419151915F010E941D2BD7016D93DF
:101970007D938D939D937D010C151D0549F780E1A5
:10198000FE017196DE01A75EBD4F01900D928A9512
:10199000E1F7AE01435D5D4FBE0167597F4FCE0158
:1019A000835D9C4F0E94BC049E01235D3C4FAE01B1
:1019B00047505F4FBE0167597F4FCE0183519D4F06
:1019C0000E94FC039E0123513D4FAE01435D5D4FDC
:1019D000BE0167597F4FCD57DA4F8881C358D54034
:1019E000CC57DA4F9881C458D5400E94FC039E0121
:1019F000275C3E4FAE01435D5D4FBE0167597F4F8F
:101A0000CE0183599B4F0E94FC0380E4CF58DA4FEC
:101A1000E881F981C157D54011928A95E9F72E01E5
:101A2000F7E44F1AFEEF5F0A9E0123593B4F39013D
:101A3000AE01435D5B4FCD58DA4F48835983C3579E
:101A4000D5405201CD58DA4FE880F980C357D540D0
:101A5000830145016894CC24C2F8D12CD4016D9146
:101A60007D918D919D914D01F8012191319141918F
:101A700051918F010E941C2BD7016D937D938D9303
:101A80009D937D01B1E0CB1AD10841F7E0E1AE0EA4
:101A9000B11CF0E16F0E711CCD58DA4F28813981ED
:101AA000C357D540205F3F4FCD58DA4F2883398345
:101AB000C357D540C159DA4F48815981CF56D540D7
:101AC000A416B50609F0BECFAE01435D5B4FBE0163
:101AD00067597F4FCE0183519C4F0E94BC049E01E9
:101AE00023513C4FAE0147585E4FBE0167597F4FAF
:101AF000CE0183559C4F0E94FC039E01275C3E4F04
:101B0000AE01435D5D4FBE0167597F4FCE018351EA
:101B10009B4F0E94FC03FE01E355FB4F80E4DF0175
:101B20001D928A95E9F79E0123513B4F59013F01D0
:101B3000730185014201C12CD12CD4016D917D919D
:101B40008D919D914D01F8012191319141915191DA
:101B50008F010E941C2BD7016D937D938D939D93D4
:101B60007D01BFEFCB1ADB0AE4E0CE16D10429F7E2
:101B7000F0E14F0E511C20E1A20EB11C30E1630ECA
:101B8000711CC159DA4F48815981CF56D54044154F
:101B9000550571F69E0123553C4FAE0143555B4FF1
:101BA000BE0167597F4FCE0183599C4F0E94FC03B1
:101BB000CD57DA4F2881C358D540CC57DA4F3881FA
:101BC000C458D540AE0143595C4FBE0167597F4FA1
:101BD000CE01835D9A4F0E949E0380E4FE01E35D87
:101BE000FA4FDE01A758BE4F01900D928A95E1F79A
:101BF000C958DA4FA881B981C757D5409E962D9113
:101C00003D914D915C91D197CB57DA4F68817981A5
:101C10008A819B81C558D5400E941C2B6B017C0199
:101C20002FE630EF45E85EE30E94E82C882354F469
:101C30002FE630EF45E85EEBC701B6010E94892B25
:101C40008823ECF4C958DA4FE881F981C757D540A9
:101C50000681178165E571E2C8010E94521B66E0AA
:101C6000C8010E940B1B84E6C958DA4FA881B981CC
:101C7000C757D5401C968C931C971D968C93C958BA
:101C8000DA4FE881F981C757D54026893789408DD9
:101C9000518DC357DA4F688179818A819B81CD58F4
:101CA000D5400E941C2B2CEF38EA48EC51EC0E94E6
:101CB000ED2C6B017C0126E636E642E351ECCF5673
:101CC000DA4F688179818A819B81C159D5400E9410
:101CD000ED2C9B01AC01C701B6010E941D2B6B01CD
:101CE0007C0126E53EE049E450E4CB57DA4F6881B9
:101CF00079818A819B81C558D5400E941C2B2EE694
:101D000039E043EF51E40E94ED2C9B01AC01C70187
:101D1000B6010E941D2B6B017C0120E030E040E405
:101D200050E4C757DA4F688179818A819B81C9580D
:101D3000D5400E94ED2C9B01AC01C701B6010E9469
:101D40001D2B905820E030E044E852E40E94ED2C36
:101D50006B017C0120E030E048EC54E40E94E82C68
:101D600018169CF020E030E048EC54ECC701B601B6
:101D70000E94892B88238CF40F2EC12CD12CF8ECD7
:101D8000EF2EF4ECFF2EF02D08C00F2EC12CD12C1D
:101D9000F8ECEF2EF4E4FF2EF02D6996CCAEDDAE1C
:101DA000EEAEFFAE6997BE016B5A7F4FCE018759E9
:101DB0009F4F0E9481050091CC211091CD210FB63B
:101DC000F8940F9269966CAD7DAD8EAD9FAD69971D
:101DD0000E94002CD8016D937C930F900FBE0FB61C
:101DE000F8940F920F900FBEE091DC21F091DD216D
:101DF000808181110CC00FB6F8940F920F900FBE26
:101E0000E091DA21F091DB2180818823E9F0C95843
:101E1000DA4FE881F981C757D540068117816EE313
:101E200071E2C8010E94521B66E0C8010E940B1BB0
:101E300084E6C958DA4FA881B981C757D5401C96A6
:101E40008C931C971D968C93E091C421F091C52131
:101E50000FB6F8940F920F900FBE8081882309F47B
:101E600052C00FB6F8940F9210820F900FBEE091FF
:101E7000C621F091C7210FB6F8940F9210820F90EF
:101E80000FBEC958DA4FE881F981C757D54014868B
:101E90001586BB24B39439C0E091CC21F091CD21BB
:101EA0000FB6F8940F92108211820F900FBEE0913E
:101EB000C421F091C5210FB6F8940F920F900FBE78
:101EC0008081882311F10FB6F8940F9210820F9041
:101ED0000FBEE091C621F091C7210FB6F8940F9282
:101EE00010820F900FBEC958DA4FA881B981C75729
:101EF000D5401C961C921C971D961C9206C0B12CB6
:101F000004C0B12C02C0BB24B394C958DA4FE88195
:101F1000F981C757D54086859785A089B1890196F3
:101F2000A11DB11D86879787A08BB18B41E050E042
:101F300060E070E0CE018F5A9F4F0E94D0270C9432
:101F4000E906CF93DF93CDB7DEB72E97CDBFDEBFC7
:101F500089879A870E94322669837A838B839C8340
:101F6000E0E8F6E083E08283808B818BE0E8F1E0BB
:101F700080E7828389E08287E0E4F8E08AE6838371
:101F80008DEC97E086A397A381E0808300A111A147
:101F900089809A80AB80BC801B861C861D861E862D
:101FA000C12CD12C76010E9432262B013C016819EC
:101FB00079098A099B090E94362C20E030E04AE723
:101FC00054E40E948E2B6D837E838F8398872090AC
:101FD000600830906108C101801B910B8C01BC012D
:101FE000990F880B990B0E94382C4B015C0120E063
:101FF00030EA49E754E40E94E82C181664F420E023
:1020000030EA49EF54E4C501B4010E941C2B0E9440
:10201000002C8B0115C020E030EA49E754ECC501E3
:10202000B4010E94892B88235CF420E030EA49EF58
:1020300054E4C501B4010E941D2B0E94002C8B01A9
:10204000119501951109C801012E000CAA0BBB0BBB
:10205000C80ED91EEA1EFB1EC701B6010E94382C0D
:1020600029E532E34EE45BE30E94ED2C4B015C0179
:1020700020E030E0A9016D817E818F8198850E94EA
:10208000E82C1816B4F4B801110F880B990B0E94B4
:10209000382C29E532E34EE45BE30E94ED2C2D81E0
:1020A0003E814F8158850E948E2B6B877C878D8760
:1020B0009E87E091D421F091D5210FB6F8940F922C
:1020C000C082D1820F900FBEE091D221F091D32136
:1020D0000FB6F8940F9280829182A282B3820F9001
:1020E0000FBEE091D021F091D1210FB6F8940F925C
:1020F0008B859C85AD85BE8580839183A283B383C8
:102100000F900FBEE985FA8586859785A089B189EC
:102110000196A11DB11D86879787A08BB18B41E0E9
:1021200050E060E070E0CE0101960E94D02781016E
:102130005301420138CFCF93DF93CDB7DEB7289755
:10214000CDBFDEBF1C010E94322669837A838B8358
:102150009C83E0E8F6E08CE0828382898360828B56
:1021600083898360838BE0E8F1E082E7808389E004
:102170008087E0E0F9E088E683838FEF9FEF86A316
:1021800097A381E08083E091CE21F091CF210FB61B
:10219000F8940F9210821182128213820F900FBE58
:1021A00089809A80AB80BC801D821E821F82188627
:1021B0000E9432266B017C01681979098A099B0902
:1021C0000E94362C20E030E04AE754E40E948E2B37
:1021D0004B015C0160912009709121090FB6F894C0
:1021E0000F920F900FBE072E000C880B990B0E94C8
:1021F000382C22E838EA4BE758E30E94ED2CE091B6
:10220000CE21F091CF2120813181428153810E94E2
:102210001C2B162F072F782E692EE091D821F091D4
:10222000D9210FB6F8940F92862F902FA72DB62D97
:1022300080839183A283B3830F900FBE20E030E0B0
:10224000A901C501B4010E94E82C1816E4F44090DD
:10225000D6215090D7210FB6F8940F922D813E8150
:102260004F815885612F702F872D962D0E941C2B32
:10227000A50194010E948E2BF201608371838283F9
:1022800093830F900FBEF10186859785A089B18950
:102290000196A11DB11D86879787A08BB18B41E068
:1022A00050E060E070E0CE0101960E94D0271D83CF
:1022B0000E837F826886460157017ACFCF93DF93E2
:1022C00000D01F92CDB7DEB78C010E943226698301
:1022D0007A838B839C83A0E4B6E087E011968C938D
:1022E000119784E015968C931597E0E0F8E081E073
:1022F000808383E08183A6A3B7A310A611A612A6AC
:1023000013A6818180638183E12C6894FF24F3F814
:102310000FB6F8940F92E091CC21F091CD218081FD
:1023200091810F900FBEF801828B938B992334F02B
:10233000F70180A791A712A613A60CC0F70110A65B
:1023400011A6F80182899389919581959109F701E8
:1023500082A793A7F80186859785A089B189019600
:10236000A11DB11D86879787A08BB18B41E050E0FE
:1023700060E070E0CE0101960E94D027C9CFCF93D4
:10238000DF9300D01F92CDB7DEB78C010E943226BA
:1023900069837A838B839C83E0E6F6E09081D801A1
:1023A00052968C915297892B8083948152968C916E
:1023B0005297892B848352968C91813021F488E145
:1023C0008093700605C0843019F488E1809372060A
:1023D0000F2EF8E6EF2EF6E0FF2EF02DDD24D3943D
:1023E000F701808180FD0BC0E091DC21F091DD21BF
:1023F0000FB6F8940F92D0820F900FBE0AC0E091F2
:10240000DC21F091DD210FB6F8940F9210820F902D
:102410000FBED7018C9182FD0BC0E091DA21F091C3
:10242000DB210FB6F8940F92D0820F900FBE0AC036
:10243000E091DA21F091DB210FB6F8940F9210822F
:102440000F900FBEF80186859785A089B189019606
:10245000A11DB11D86879787A08BB18B45E050E009
:1024600060E070E0CE0101960E94D027B9CFDC0178
:10247000ED91FC910280F381E02D6CE019950895B7
:10248000CF93DF93EC01A98DBA8DEB8DFC8D81E0AC
:102490004D915C91208131814217530709F480E00E
:1024A000DF91CF910895CF93DF93FC01C18DD28D41
:1024B00028813981A38DB48D4D915C912417350706
:1024C000E9F3A789B08D0D90BC91A02DA20FB31F89
:1024D0008C912F5F3F4F288339832436310528F0B4
:1024E000018CF28DE02D1082118290E0DF91CF916E
:1024F0000895DC015096ED91FC915197808154969E
:102500004C915497842329F009C02150310919F4C2
:1025100012C021E23EE490819423B9F39081569653
:102520008C915697892B80831E96ED91FC911F9775
:10253000608381E0089580E00895CF93DF93CEED2E
:10254000D1E28AE08A831B8283E08D831C821E8213
:102550001F828AE291E2888399831E861F8640E06B
:1025600061E080E20E94FE22888799878AE090E0FD
:10257000A0E0B0E08A879B87AC87BD87DF91CF91D1
:102580000895AF92BF92DF92EF92FF920F931F9345
:10259000CF93DF93CDB7DEB76E97CDBFDEBFE0E65A
:1025A000F6E080E181838583F894E0E5F0E08081C6
:1025B00082608083818181FFFDCF809140009FB741
:1025C0009E8FF8941BBE887F816020E430E0F90183
:1025D00008ED04BF80838E8D8FBFE0E5F0E0808141
:1025E0008E7F80839DEF88ED08B618BE84BF9093E0
:1025F000800008BE81E090E00E94181F8093DC21DB
:102600009093DD2181E090E00E94181F8093DA21F1
:102610009093DB2184E090E00E94181F8093D821E2
:102620009093D92184E090E00E94181F8093D621D6
:102630009093D72182E090E00E94181F82E090E002
:102640000E94181F82E090E00E94181F8093D421FE
:102650009093D52184E090E00E94181F8093D221AE
:102660009093D32184E090E00E94181F8093D021A2
:102670009093D12184E090E00E94181F8093CE2196
:102680009093CF2182E090E00E94181F8093CC218C
:102690009093CD2181E090E00E94181F8093CA2181
:1026A0009093CB2181E090E00E94181F8093C82175
:1026B0009093C92181E090E00E94181F8093C62169
:1026C0009093C72181E090E00E94181F8093C4215D
:1026D0009093C5218AE191E289839A838AE08B8372
:1026E0001C8243E04E831D821F821886A0E4B6E060
:1026F000AB87BC8786E08D870F2EF7E0DF2EF02DAD
:10270000DE86E0EBF8E0EF87F88B81EB98E0898BD1
:102710009A8B84EB98E08B8B9C8B2E8514965C9126
:10272000149781E090E0BC0102C0660F771F2A95E4
:10273000E2F79B01252B14962C932E85AB85BC8547
:102740005C91BC0102C0660F771F2A95E2F79B01DE
:10275000252B2C933D85AB85BC852C9102C0880F21
:10276000991F3A95E2F78095909582238C9368940F
:10277000BB24B4F8B382458380EF878381E28683EC
:1027800088E1848380E88E8B80E48F8B80E28D8B60
:10279000EF85F889808180818AED90E289839A8330
:1027A00084E092E2888F998F82E092E28A8F9B8FF9
:1027B00080E092E28C8F9D8F84E690E00E94181F4B
:1027C0008093042290930522EA8DFB8D1082118262
:1027D000EC8DFD8D1082118267E0CE0101960E9482
:1027E0000B1B7C016CE671E20E94521B66E0C70184
:1027F0000E940B1B66E00E940B1B82E190E00E948E
:10280000181F7C018E010F5F1F4F24E031E040E074
:102810006BE871E20E94511E8AEE90E2D7018D931F
:102820009C9382E190E00E94181F7C0124E031E03B
:1028300044E063E971E20E94511E82EF90E2F701E9
:102840008083918382E190E00E94181F7C0124E044
:1028500031E044E06AE971E20E94511E8AEF90E2A1
:10286000D7018D939C9382E490E00E94181F7C0115
:1028700024E031E044E061EA71E20E94511E82E00E
:1028800091E2F70180839183128E138E148E158E40
:10289000168E178E10A211A280E090E8ABEBB5E483
:1028A00086A397A3A0A7B1A780E090E0A0E4B0E43E
:1028B00082A793A7A4A7B5A7F296DF011D92BA94A9
:1028C000E9F784E190E00E94181F7C0124E031E0E8
:1028D00043E069EA71E20E94511E8AE091E2F70149
:1028E00080839183128A138A83E190E00E94181FEB
:1028F0007C0124E031E042E060EB71E20E94511E75
:102900000F2EF2E1AF2EF1E2BF2EF02DD701AD92E6
:10291000BC92119781E052968C9383E190E00E94E3
:10292000181F7C0124E031E041E067EB71E20E9476
:10293000511EF701A082B18284E0828BD092A20066
:1029400078940E94F92580E090E06E96CDBFDEBFBE
:10295000DF91CF911F910F91FF90EF90DF90BF908B
:10296000AF9008951F920F920FB60F92112408B6E0
:102970000F9218BE0BB60F921BBE2F933F938F93EF
:102980009F93EF93FF932091A00AE091F221F091A1
:10299000F3218091EE219091EF21E80FF91F208320
:1029A0008091EE219091EF2101968436910560F49B
:1029B0008093EE219093EF212091F0213091F1212D
:1029C00082179307F1F40CC01092EE211092EF21C0
:1029D0008091F0219091F1211816190691F40EC002
:1029E00001968436910528F48093F0219093F1218B
:1029F00008C01092F0211092F12103C081E090E014
:102A0000F3CFFF91EF919F918F913F912F910F9075
:102A10000BBE0F9008BE0F900FBE0F901F90189521
:102A20001F920F920FB60F92112408B60F9218BE84
:102A30000BB60F921BBE2F933F938F939F93EF93F1
:102A4000FF932091B009E091F821F091F921809154
:102A5000F4219091F521E80FF91F20838091F42152
:102A60009091F52101968436910560F48093F421CC
:102A70009093F5212091F6213091F7218217930749
:102A8000F1F40CC01092F4211092F5218091F621FE
:102A90009091F7211816190691F40EC0019684360C
:102AA000910528F48093F6219093F72108C01092A5
:102AB000F6211092F72103C081E090E0F3CFFF915F
:102AC000EF919F918F913F912F910F900BBE0F909F
:102AD00008BE0F900FBE0F901F9018951F920F9277
:102AE0000FB60F92112408B60F9218BE0BB60F92B4
:102AF0001BBE2F933F938F939F93EF93FF93209150
:102B0000A009E091FE21F091FF2180910622909191
:102B10000722E80FF91F20838091FA219091FB2171
:102B200001968436910560F48093FA219093FB21FD
:102B30002091FC213091FD2182179307F1F40CC004
:102B40001092FA211092FB218091FC219091FD219D
:102B50001816190691F40EC001968436910528F4D2
:102B60008093FC219093FD2108C01092FC211092CB
:102B7000FD2103C081E090E0F3CFFF91EF919F91A1
:102B80008F913F912F910F900BBE0F9008BE0F9029
:102B90000FBE0F901F9018951F920F920FB60F92B5
:102BA000112408B60F9218BE0BB60F921BBE2F93BE
:102BB0003F938F939F93EF93FF932091B008E09101
:102BC0000422F09105228091002290910122E80FC9
:102BD000F91F208380910022909101220196843672
:102BE000910560F4809300229093012220910222AB
:102BF0003091032282179307F1F40CC01092002247
:102C00001092012280910222909103221816190637
:102C100091F40EC001968436910528F48093022227
:102C20009093032208C0109202221092032203C044
:102C300081E090E0F3CFFF91EF919F918F913F91D1
:102C40002F910F900BBE0F9008BE0F900FBE0F90EC
:102C50001F9018951F920F920FB60F92112408B66D
:102C60000F9218BE0BB60F921BBE2F933F938F93FC
:102C70009F93EF93FF932091A008E0910A22F09197
:102C80000B228091062290910722E80FF91F2083E2
:102C9000809106229091072201968436910560F476
:102CA00080930622909307222091082230910922D6
:102CB00082179307F1F40CC010920622109207229B
:102CC00080910822909109221816190691F40EC0DD
:102CD00001968436910528F4809308229093092266
:102CE00008C0109208221092092203C081E090E0EF
:102CF000F3CFFF91EF919F918F913F912F910F9083
:102D00000BBE0F9008BE0F900FBE0F901F9018952E
:102D1000CF92DF92EF92FF920F931F93CF93DF93A7
:102D2000CDB7DEB72997CDBFDEBF8C01E62EDC0123
:102D300013968C911397882341F0ED91FC910280BA
:102D4000F381E02DC801199556C0F8014281423047
:102D500019F56894CC24C3F8D12C6894FF24F7F8B3
:102D60008E2D8F2151F0D801ED91FC910280F381DD
:102D7000E02D61E3C801199509C0D801ED91FC91DE
:102D80000280F381E02D60E3C8011995F694B1E06B
:102D9000CB1AD10829F72FC04031F9F462956F7032
:102DA0000190F081E02D0280F381E02D6A3010F077
:102DB000695C01C0605DC80119956E2D6F70D80106
:102DC000ED91FC910280F381E02D6A3010F0695C96
:102DD00001C0605DC80119950EC050E0BE016F5F73
:102DE0007F4F8E2D90E00E94E72ABE016F5F7F4FDC
:102DF000C8010E94521BC8012996CDBFDEBFDF91DA
:102E0000CF911F910F91FF90EF90DF90CF90089599
:102E10000F931F93CF93DF93EC016AE08E819F8124
:102E20000E940B1B8C0163E676E00E94521B6AE055
:102E3000C8010E940B1B8C016DE576E00E94521BBD
:102E400067E0C8010E940B1B6AE08E819F810E948F
:102E50000B1B8C016EE376E00E94521B6AE0C801F6
:102E60000E940B1B8C0168E376E00E94521B66E017
:102E7000C8010E940B1B6AE08E819F810E940B1B80
:102E80008C0161E276E00E94521B66E0C8010E945C
:102E90000B1B6AE08E819F810E940B1B8C0165E0F9
:102EA00076E00E94521B66E0C8010E940B1B6AE09C
:102EB0008E819F810E940B1B8C016DEE75E00E943C
:102EC000521B66E0C8010E940B1B6AE08E819F8145
:102ED0000E940B1B8C016CEC75E00E94521B66E09B
:102EE000C8010E940B1B6AE08E819F810E940B1B10
:102EF0008C0165EA75E00E94521B66E0C8010E94E1
:102F00000B1B6AE08E819F810E940B1B8C0167E87E
:102F100075E00E94521B66E0C8010E940B1B6AE02C
:102F20008E819F810E940B1B8C016CE675E00E94D4
:102F3000521B66E0C8010E940B1B6AE08E819F81D4
:102F40000E940B1B8C0161E575E00E94521B66E03C
:102F5000C8010E940B1B6AE08E819F810E940B1B9F
:102F60008C0169E375E00E94521B66E0C8010E9473
:102F70000B1B6AE08E819F810E940B1B8C0161E21A
:102F800075E00E94521B66E0C8010E940B1B6AE0BC
:102F90008E819F810E940B1B8C016AE075E00E946C
:102FA000521B66E0C8010E940B1B6AE08E819F8164
:102FB0000E940B1BEC016BEF74E00E94521B66E059
:102FC000CE010E940B1BDF91CF911F910F910895AD
:102FD000CF93DF93CDB7DEB72C97CDBFDEBF7C019B
:102FE00019821A821B821C821D821E826AE0DC0109
:102FF00016968D919C9117970E940B1B6C016DED9D
:1030000074E00E94521B66E0C6010E940B1B11E097
:10301000812C6894992493F80F2EFCE0AF2EF2E2F5
:10302000BF2EF02DF7018485882321F0813009F42B
:1030300060C063C286819781DC01ED91FC910480C0
:10304000F581E02D1995882309F437C0F7018681B1
:103050009781DC01ED91FC910680F781E02D1995B7
:10306000992781309105F9F0039709F061C26AE070
:10307000F701868197810E940B1B7C016FEC74E045
:103080000E94521B66E0C7010E940B1B93E088ED73
:1030900008B618BE84BF909380008091820081FDA5
:1030A000FCCF08BEFFCFC7010E940817D7011C96AE
:1030B0001C931C971D961C933BC28EED91E20E94BF
:1030C000D31A882309F434C2D7011696ED91FC91E6
:1030D00017970190F081E02DC280D3808EED91E2B0
:1030E0000E94B51A682FF70186819781F60119951C
:1030F0001FC286819781DC01ED91FC910480F581EE
:10310000E02D1995882309F413C2F7018681978170
:10311000DC01ED91FC910680F781E02D1995BC0151
:10312000FC01FF277B97EC35F10508F0CAC1882721
:10313000E250FF4F8F4F0C946A2DCE0101960E94F2
:103140003E1DBC01F701868197810E94561D66E0F5
:103150000E940B1BEDC11F82188619861A861B86DA
:103160001C860E94E51F3C01CE0107960E943E1D71
:103170002C0166E0D70116968D919C9117970E94BD
:103180000B1B6AE00E940B1B6C0160E174E00E9463
:10319000521B6AE0C6010E940B1B6C0164E074E0E4
:1031A0000E94521B66E0C6010E940B1B6AE00E944F
:1031B0000B1B6C016DEF73E00E94521BB201C60144
:1031C0000E94561D6AE00E940B1B6C016FEE73E0BB
:1031D0000E94521BB301C6010E94CB1B6AE00E94F1
:1031E0000B1B6C016DEE73E00E94521B4FEF5FE012
:1031F00060E070E0C6010E94891BF40160A471A424
:103200006AE0D70116968D919C9117970E940B1B2F
:103210006C0162EE73E00E94521BB301C6010E9472
:10322000CB1B66E00E940B1B66E00E940B1BF701A4
:10323000C680D7806AE0C6010E940B1B3C0167ED87
:1032400073E00E94521B6AE0C3010E940B1B3C0109
:1032500060ED73E00E94521B66E0C3010E940B1BED
:103260006AE0C6010E940B1B3C016FEB73E00E94F9
:10327000521B6AE0C3010E940B1B3C0163EB73E02D
:103280000E94521B6AE0C3010E940B1B3C016DEAC5
:1032900073E00E94521B66E0C3010E940B1B6AE0B0
:1032A000C6010E940B1B3C016CE973E00E94521B9B
:1032B0006AE0C3010E940B1B3C0160E973E00E94BD
:1032C000521B6AE0C3010E940B1B3C016AE873E0D9
:1032D0000E94521B66E0C3010E940B1BD5018D9119
:1032E0009C91009719F0B6010E94E71D0E944826A4
:1032F0000E94B329082F6AE0C6010E940B1B6C01D3
:103300006FE773E00E94521B602FC6010E9488166F
:103310006AE00E940B1B6C016DE773E00E94521B78
:1033200064E670E0C6010E94CB1B6AE00E940B1BA2
:103330006C016AE773E00E94521B66E0C6010E94BE
:103340000B1BF6C0F701C680D78080910C229091AC
:103350000D22009719F0B6010E94031E6AE0C60113
:103360000E940B1B3C0160E474E00E94521B6AE067
:10337000C3010E940B1B3C0165E374E00E94521BD9
:103380006AE0C3010E940B1B3C016FE274E00E94E3
:10339000521B66E0C3010E940B1B80917832909112
:1033A0007932BC016F5F7F4F01E1212FA601835667
:1033B00091090E948F1CBCC0C7010E940817B8C0A9
:1033C0006AE0D70116968D919C9117970E940B1B6E
:1033D0006C016DEB74E00E94521B66E0C6010E9416
:1033E0000B1BF70114861586A3C0E091CA21F0914A
:1033F000CB210FB6F8940F9210830F900FBE6AE0A6
:10340000D70116968D919C9117970E940B1B6C010A
:1034100060EB74E00E94521B66E0C6010E940B1B29
:1034200087C0E091C821F091C9210FB6F8940F929E
:1034300010830F900FBE6AE0F701868197810E948A
:103440000B1B6C016FE974E00E94521B66E0C60121
:103450000E940B1B6DC0E091C621F091C7210FB6F1
:10346000F8940F9210830F900FBE6AE0D701169662
:103470008D919C9117970E940B1B6C0160E974E081
:103480000E94521B66E0C6010E940B1B51C0E091D6
:10349000C421F091C5210FB6F8940F9210830F90BC
:1034A0000FBE6AE0F701868197810E940B1B6C01B9
:1034B00068E674E00E94521B66E0C6010E940B1B86
:1034C00037C0D70116968D919C911797DC01ED912D
:1034D000FC910280F381E02D19956AE0F701868165
:1034E00097810E940B1B6C0162E674E00E94521BE4
:1034F00066E0C6010E940B1B1BC06AE086819781B3
:103500000E940B1B7C0165E474E00E94521B66E084
:10351000C7010E940B1B93E088ED08B618BE84BF5C
:10352000909380008091820081FDFCCF08BEFFCF88
:10353000F70186859785A089B1890196A11DB11DE6
:1035400086879787A08BB18B64E170E080E090E084
:103550000E943D2867CD0895089580E0089580E099
:1035600090E0089581E0089508950F93CF93DF933D
:103570001F92CDB7DEB700E02FEF3FEFA901BE01EC
:103580006F5F7F4FFC01808591850E94C72381304A
:1035900019F4898190E002C08FEF9FEF0F90DF91C7
:1035A000CF910F910895FC01808591850E948B2415
:1035B00091E0811101C090E0892F08950F93CF937E
:1035C000DF931F92CDB7DEB76983FC012285338577
:1035D0004485558500E0BE016F5F7F4F80859185F2
:1035E0000E942C2391E0811101C090E0892F0F905F
:1035F000DF91CF910F910895EC01E881F98101905D
:10360000F081E02D19951A821B826FEF7FEFCB01BD
:103610000E943D28FACFCF93DF93EC01862F90E0F4
:103620008B309105D8F5FC018827E65AFE4F8F4F65
:103630000C946A2D82E08A8331C088E08A832EC090
:103640008AE08A832BC080E18A8328C081E08B8353
:1036500025C01B8223C0E881F9810280F381E02D1F
:103660006DE0CE011995E881F9810280F381E02DAA
:103670006AE0CE01199512C0E881F9810284F385D0
:10368000E02DCE0119950AC0E881F9810084F18509
:10369000E02DCE01199502C081E08C83CE01DF912F
:1036A000CF9108950F931F93CF93DF938C01FB016C
:1036B000DC0114968C91811104C06081611117C0E6
:1036C00023C0D80114961C92EB01219664916623C5
:1036D000D9F0D801ED91FC910280F381E02DC80171
:1036E0001995FE01649121966111F3CF0DC0EF0190
:1036F0002196D801ED91FC910280F381E02DC80163
:10370000199569916111F5CFDF91CF911F910F91BB
:103710000895DF92EF92FF920F931F93CF93DF9361
:10372000CDB7DEB7A197CDBFDEBF8C01D42EE52E7D
:10373000F62E972FF8012281203121F0283011F048
:10374000223071F4692FC8010E9488166F2D0E94E3
:1037500088166E2D0E9488166D2D0E9488160FC047
:1037600030E0AE014F5F5F4F6D2D7E2D8F2D0E949B
:10377000BA2ABE016F5F7F4FC8010E94521BC80169
:10378000A196CDBFDEBFDF91CF911F910F91FF902A
:10379000EF90DF900895FF920F931F93CF93DF93E5
:1037A000CDB7DEB76197CDBFDEBF8C01F62E972F68
:1037B000F8014281403121F0483011F0423041F4AB
:1037C000692FC8010E9488166F2D0E9488160DC0AF
:1037D00050E0BE016F5F7F4F8F2D0E94E72ABE0130
:1037E0006F5F7F4FC8010E94521BC8016196CDBF19
:1037F000DEBFDF91CF911F910F91FF9008958F92BF
:103800009F92AF92BF92CF92DF92EF92FF920F936F
:103810001F93CF93DF93EC018B018A819B810E94E0
:103820004026BC01C8010E94521BD801ED91FC91B9
:103830000280F381E02D69E0C80119958A819B819E
:103840000E944026FC0101900020E9F73197E81B17
:10385000F90B389748F4D801ED91FC910280F3817F
:10386000E02D69E0C8011995CE84DF84E888F988E5
:10387000A884B9848A819B810E94B329982E8C8464
:103880008A819B810E94EB25682FC8010E948816BF
:103890006AE00E940B1BEC0165EB76E00E94521B74
:1038A000682DCE010E9488166AE00E940B1BEC0175
:1038B00063EB76E00E94521B692DCE010E948816B0
:1038C0006AE00E940B1BEC0161EB76E00E94521B48
:1038D000B501CE010E94CB1B6AE00E940B1BEC01DC
:1038E0006FEA76E00E94521B6AE0CE010E940B1B39
:1038F000EC016DEA76E00E94521BB701A601CE01F1
:103900000E94891BDF91CF911F910F91FF90EF9043
:10391000DF90CF90BF90AF909F908F9008955F926F
:103920006F927F928F929F92AF92BF92CF92DF92CF
:10393000EF92FF920F931F93CF93DF935C013B01B4
:103940004A01122F502E63E0CA010E940B1BA614DD
:10395000B70408F07CC0650184E1C80ED11C00E00A
:103960007501B501C4010E94CB1B6AE00E940B1BCC
:1039700067EC76E00E94521B112309F46DC000230E
:1039800009F46AC06AE0C4010E940B1B62EC76E095
:103990000E94521B61C0112371F001110CC088817B
:1039A000851549F06AE0C4010E940B1B6DEB76E0BF
:1039B0000E94521B01E06991C4010E948816DC013B
:1039C000ED91FC910280F381E02D60E21995CC1617
:1039D000DD0609F7112389F06AE0C4010E940B1B80
:1039E000EC0167EB76E00E94521BE881F9810280CE
:1039F000F381E02D60E2CE011995F70161917F011D
:103A000080EE860F8F3548F4D401ED91FC91028051
:103A1000F381E02DC401199509C0D401ED91FC9109
:103A20000280F381E02D6EE2C4011995CE14DF040B
:103A300021F7B4E1AB0EB11C66E0C4010E940B1B80
:103A4000E4E1CE0ED11CA614B70408F489CF62E0DD
:103A5000C4010E940B1B02C0E7019DCFDF91CF91F3
:103A60001F910F91FF90EF90DF90CF90BF90AF909C
:103A70009F908F907F906F905F900895CF93DF938A
:103A8000EC010FB6F8940F928091200890912108D4
:103A90008C839D830E943226688379838A839B83EB
:103AA0000F900FBECE01DF91CF9108958F929F921C
:103AB000AF92BF92EF92FF920F931F93CF93DF933A
:103AC000CDB7DEB72F97CDBFDEBF8C017B01DB0109
:103AD0006D917D918D919C910F2EF8EE8F2EF3E0DC
:103AE0009F2EA12CB12CF02DA50194010E94792AC2
:103AF000BA01A901C8010E94891BD801ED91FC916E
:103B00000280F381E02D6EE2C8011995F701608112
:103B1000718182819381A50194010E94792A9B0180
:103B2000AC0160E472E48FE090E00E945A2DA501A0
:103B300094010E94792A49015A01F701A481B581B3
:103B400020E432E44FE050E00E94732D20E038E49E
:103B500048EE51E00E94792AC501B401620F731F3B
:103B6000841F951F7E01F7E0EF0EF11C9E012F5F71
:103B70003F4F59012AE030E040E050E00E945A2ACD
:103B8000E62F288739874A875B87688579858A8504
:103B90009B8520E32E0FD7012E937D01AA15BB052F
:103BA00049F71F82BE016F5F7F4FC8010E94521B01
:103BB000C8012F96CDBFDEBFDF91CF911F910F912E
:103BC000FF90EF90BF90AF909F908F9008950F93CC
:103BD0001F93CF93DF93EC018B01E881F981028081
:103BE000F381E02D199566E0C8010E940B1B8C81C2
:103BF0009D81009719F0B8010E94E71DDF91CF91D8
:103C00001F910F910895CF92DF92EF92FF920F9341
:103C10001F93CF93DF93EC017B018A819B810E94EC
:103C200040266C016AE0C7010E940B1B8C0168EA08
:103C300076E00E94521B6AE0C8010E940B1B8C01B7
:103C400061EA76E00E94521BB601C8010E94521B35
:103C50006AE0C8010E940B1B8C016BE976E00E94B0
:103C6000521B66E0C8010E940B1B8A859B85E88574
:103C7000F98501E121E0A701BC018E1B9F0B0E9489
:103C80008F1C8C819D81009719F0B7010E94031E43
:103C9000DF91CF911F910F91FF90EF90DF90CF9028
:103CA00008954F925F926F927F928F929F92AF9200
:103CB000BF92CF92DF92EF92FF920F931F93CF9319
:103CC000DF93CDB7DEB72A97CDBFDEBF4C01290108
:103CD00038018AE391E2F40180839183FB018081C2
:103CE000882369F0DE011196319690E002C0993088
:103CF00039F09F5F8D9381918111F9CF01C090E0E0
:103D0000E1E0F0E0EC0FFD1FE90FF11D10827401FE
:103D1000F2E0EF0EF11CA12CB12CC12CD12C042F00
:103D20009401A201BE016F5F7F4F8CEF9AE10E9468
:103D3000E924F401668277824086518620910C2224
:103D400030910D222483358380920C2290920D2293
:103D5000148615864090783250907932FFEF4F1AD2
:103D60005F0A4092783250927932F401428653864B
:103D700016861786108A118A6114710409F444C0EA
:103D8000813079F56AE0C3010E940B1B7C0165E973
:103D900076E00E94521BBE016F5F7F4FC7010E94F9
:103DA000521B6AE0C7010E940B1B7C016CE876E0A5
:103DB0000E94521B6AE0C7010E940B1B7C016EE748
:103DC00076E00E94521B63E0C7010E940B1BB20108
:103DD0000E94CB1B62E00E940B1B66E00E940B1B43
:103DE00013C06AE0C3010E940B1B4C0169E676E038
:103DF0000E94521BBE016F5F7F4FC4010E94521B85
:103E000066E0C4010E940B1B2A96CDBFDEBFDF9186
:103E1000CF911F910F91FF90EF90DF90CF90BF90C7
:103E2000AF909F908F907F906F905F904F9008958C
:103E30000F931F93CF93DF93EC010E942C26809168
:103E40000E2281111DC0A3E1B2E2E7E1F2E2ED939F
:103E5000FC93119712961D921C921397AFE0B2E259
:103E60008FEF9FE012968D939C9313971D921C9257
:103E7000119782839383A083B18381E080930E2284
:103E8000209709F45FC09E012B5F3F4F2496CE3FE1
:103E9000DF4008F05AC0E0911322F0911422A3E110
:103EA000B2E202C0DF01FC01828193818217930795
:103EB00020F4808191810097A9F7C2E2EF30FC07DE
:103EC00009F446C0CD91DC9111978E010B5F1F4F15
:103ED000808191818D939C9382819381821B930B2E
:103EE0008B30910510F1BF01620F731FDB01129639
:103EF0008D939C9313972283338312964D915C91FB
:103F0000139783E192E201C0CD01EC01A881B98150
:103F100012962D913C91139724173507A8F3EB01C6
:103F2000A883B983DC016D937C93809100209091EC
:103F3000012022813381821B930B80930020909378
:103F4000012008C000E010E005C000E010E002C061
:103F500000E010E00E944E27C801DF91CF911F9131
:103F60000F9108950F931F93CF93DF93009741F123
:103F7000EC018C01055011090E942C26F8014281A8
:103F80005381A3E1B2E201C0DF01ED91FC911197F1
:103F90002281338124173507B8F32597E883F98305
:103FA0000D931C9320910020309101208A819B81E8
:103FB000820F931F80930020909301200E944E2730
:103FC000DF91CF911F910F910895809100209091E2
:103FD00001200895FC010396818392834FEF5FEFE8
:103FE000BA0143835483658376838783908781876F
:103FF000928710820895FC01128613860895CF934C
:10400000DF93FC01DB0121813281E9018C819D81FB
:1040100014968D939C9315978181928116968D931A
:104020009C9317978C819D81EC016E837F83E901BE
:104030006C837D83618372831A96ED93FC931B9747
:1040400080818F5F8083DF91CF9108950F931F93BD
:10405000CF93DF93EB01088119812A813B810F3FC8
:104060004FEF14072407340731F4DC011996ED9162
:10407000FC911A971FC0FC013396DC0117964D91F5
:104080005C911897DA014D915D916D917C910417C7
:1040900015072607370770F00480F581E02DA4810D
:1040A000B5814D915D916D917C910417150726079F
:1040B000370790F7A481B581AC83BD831696CD9365
:1040C000DC931797EE83FF83C483D5838A879B870E
:1040D000FC0120812F5F2083DF91CF911F910F91F1
:1040E0000895FC01A481B5818681978116968D93F0
:1040F0009C931797A681B7818481958114968D939F
:104100009C931597A285B38511968D919C911297DA
:10411000E817F90731F48681978111968D939C9366
:104120001297128613868C9181508C9308958093F8
:1041300078329093793231E1FC013083319722E279
:1041400020833197A3E3A0833197608331977083F5
:104150003197108231971082319760E860833197F0
:1041600010823197108231971082319762E060831C
:10417000319763E06083319764E06083319765E055
:104180006083319766E06083319767E060833197A1
:1041900068E06083319769E06083319760E1608314
:1041A00031973083319732E13083319733E1308377
:1041B000319734E13083319735E13083319736E1FF
:1041C0003083319737E13083319738E1308331974D
:1041D00039E13083319730E23083319731E23083F7
:1041E00031972083319723E22083319740833197A1
:1041F0005083319726E22083319727E2208331973D
:1042000028E22083319729E22083319720E320831D
:10421000319721E32083899708958CE78093290AB9
:104220008FEF8093280A81E08093000A91E19093B8
:10423000010A8093070AA0917632B0917732CD912E
:10424000CDBFDD91DEBFFF91EF91DF91CF91BF91A7
:10425000AF919F918F917F916F915F914F913F911E
:104260002F911F910F91FF90EF90DF90CF90BF9013
:10427000AF909F908F907F906F905F904F903F9006
:104280002F901F900F900CBE0F900BBE0F900FBE83
:104290000F90089508950F920FB6F8940F920BB6F1
:1042A0000F920CB60F921F9211242F923F924F92B1
:1042B0005F926F927F928F929F92AF92BF92CF92B6
:1042C000DF92EF92FF920F931F932F933F934F93A1
:1042D0005F936F937F938F939F93AF93BF93CF938E
:1042E000DF93EF93FF93A0917632B09177320DB6C2
:1042F0000D920EB60D920E946B28A0917632B0916D
:104300007732CD91CDBFDD91DEBFFF91EF91DF918F
:10431000CF91BF91AF919F918F917F916F915F915D
:104320004F913F912F911F910F91FF90EF90DF9050
:10433000CF90BF90AF909F908F907F906F905F9045
:104340004F903F902F901F900F900CBE0F900BBE80
:104350000F900FBE0F9008950F920FB6F8940F9222
:104360000BB60F920CB60F921F9211242F923F9210
:104370004F925F926F927F928F929F92AF92BF9275
:10438000CF92DF92EF92FF920F931F932F933F9361
:104390004F935F936F937F938F939F93AF93BF934D
:1043A000CF93DF93EF93FF93A0917632B091773262
:1043B0000DB60D920EB60D920E944D260E946B28EE
:1043C000A0917632B0917732CD91CDBFDD91DEBF35
:1043D000FF91EF91DF91CF91BF91AF919F918F911D
:1043E0007F916F915F914F913F912F911F910F910D
:1043F000FF90EF90DF90CF90BF90AF909F908F9005
:104400007F906F905F904F903F902F901F900F90F4
:104410000CBE0F900BBE0F900FBE0F9008950E9420
:10442000AC211895CF93DF93EC0188A181110BC0CB
:1044300088819981892BE1F58A819B810E94262AB6
:104440001A821B8235C0411117C0482F50E08C8161
:104450009D810E949B2A28A18C819D81820F911DA4
:104460008C839D832A813B818217930708F1888181
:1044700099818C839D831CC0482F50E08E819F8141
:104480000E949B2A88A190E09195819591092E81A7
:104490003F81280F391F2E833F834881598124177C
:1044A000350730F42A813B81820F931F8E839F83CF
:1044B0008E8D8F5F8E8FDF91CF910895FC0180816B
:1044C00091810097A1F040A150E026813781240F0F
:1044D000351F26833783A281B3812A173B0710F04B
:1044E00086839783CB01668177810E949B2A0895FA
:1044F0000F931F93CF93DF93EC010FB6F8940F92B5
:104500008AA11816B4F48B89811105C012C08B8959
:10451000811104C00EC08E010D5E1F4FC8010E94A4
:10452000F22881110E94AF298AA181508AA318160E
:1045300074F38FEF8AA30F900FBE0FB6F8940F920B
:1045400089A11816B4F48885811105C012C0888528
:10455000811104C00EC08E01085F1F4FC8010E9468
:10456000F22881110E94AF2989A1815089A31816D0
:1045700074F38FEF89A30F900FBEDF91CF911F913E
:104580000F9108951F93CF93DF93613059F0FC0191
:104590002389308531112CC011E0211110E0211147
:1045A00028C001C011E0EC014881598128A130E008
:1045B0006F8D629FC001639F900D1124BA01680F37
:1045C000791F6A837B831E8E4C835D83821B930BD2
:1045D000840F951F8E839F838FEF89A38AA3CE01BB
:1045E00008960E94EA1FCE0143960E94EA1F01C06E
:1045F00010E0812FDF91CF911F9108950F931F93AA
:10460000CF93DF93882301F1062F182F83E290E0E8
:104610000E94181FEC01892BC9F0109FC0011124C2
:1046200001960E94181F88839983892B39F01F8F68
:1046300008A361E0CE010E94C22208C0CE010E9400
:10464000B21FC0E0D0E002C0C0E0D0E0CE01DF91F8
:10465000CF911F910F910895AF92BF92CF92DF92A9
:10466000EF92FF920F931F93CF93DF93CDB7DEB7F7
:104670002997CDBFDEBF7C015B012E833F83488736
:10468000598710E06C0188E0C80ED11C0FB6F89471
:104690000F92F701968D878D9817A8F4402FB501DA
:1046A000C7010E941222F7018389882341F0C701C4
:1046B00043960E94F228813011F40E944B210F9002
:1046C0000FBE81E056C08E819F81A885B985892B58
:1046D0008A2B8B2B21F40F900FBE80E04AC0111162
:1046E00005C0CE0101960E94312911E00F900FBE46
:1046F0000E942C260FB6F8940F92F70181A18F3FEC
:1047000009F411A2F70182A18F3F09F412A20F90C0
:104710000FBEBE016A5F7F4FCE0101960E94422903
:10472000811121C00FB6F8940F92F701968D0F906A
:104730000FBE878D981311C04E815F816885798582
:10474000C6010E94C828C7010E9478220E944E27F5
:1047500081119CCF0E944B2199CFC7010E947822E2
:104760000E944E2793CFC7010E9478220E944E27B5
:1047700080E02996CDBFDEBFDF91CF911F910F91D1
:10478000FF90EF90DF90CF90BF90AF900895AF92E1
:10479000BF92CF92DF92EF92FF920F931F93CF932E
:1047A000DF93CDB7DEB72997CDBFDEBF7C015B01BC
:1047B0002E833F834887598710E06C0183E1C80E40
:1047C000D11C0FB6F8940F92F701868D882399F1CA
:1047D000C680D780B501C7010E945E2201111AC0B0
:1047E000F701868D8150868F80819181892B29F4F4
:1047F0000E94CC29F70182839383F7018085882367
:10480000B1F0C70108960E94F228813081F40E941D
:104810004B210DC0F701C682D7828389882339F0E6
:10482000C70143960E94F22881110E944B210F90EC
:104830000FBE81E062C08E819F81A885B985892BDA
:104840008A2B8B2B21F40F900FBE80E056C01111E4
:1048500005C0CE0101960E94312911E00F900FBED4
:104860000E942C260FB6F8940F92F70181A18F3F7A
:1048700009F411A2F70182A18F3F09F412A20F904F
:104880000FBEBE016A5F7F4FCE0101960E94422992
:1048900081112DC00FB6F8940F92F701868D0F90FD
:1048A0000FBE81111EC080819181892B49F40FB602
:1048B000F8940F92828193810E94D1290F900FBEAC
:1048C0004E815F8168857985C6010E94C828C7012D
:1048D0000E9478220E944E27811173CF0E944B21A3
:1048E00070CFC7010E9478220E944E276ACFC7016D
:1048F0000E9478220E944E2780E02996CDBFDEBF1D
:10490000DF91CF911F910F91FF90EF90DF90CF90AB
:10491000BF90AF9008950FB6F8940F92FC01868D6A
:104920000F900FBE0895CAE4D2E388818230E8F385
:104930000E944B21FACFCF92DF92EF92FF926B0150
:104940007C01E0917632F0917732628373838483C5
:10495000958380911E3290911F32A0912032B091A8
:104960002132C816D906EA06FB0668F46091763251
:104970007091773280913032909131326E5F7F4FFB
:104980000E94262021C0609176327091773280910A
:104990003232909133326E5F7F4F0E942620809199
:1049A000022090910320A0910420B0910520C81608
:1049B000D906EA06FB0640F4C0920220D0920320FA
:1049C000E0920420F0920520FF90EF90DF90CF90CE
:1049D00008954F925F926F927F928F929F92AF92C3
:1049E000BF92CF92DF92EF92FF920F931F93CF93DC
:1049F000DF935C014B013A01290188E290E00E94BB
:104A0000181FEC01892B09F4D4C0C114D10409F09A
:104A1000CCC0C3010E94181F8B8F9C8F009721F47C
:104A2000CE010E94B21FC5C0A30161E170E00E94E7
:104A3000A42A9301215031098B8D9C8D3C01620E7B
:104A4000731E4AE050E0B401CE014D960E94AB2A9D
:104A50001EA2102F043008F013E01A8F1FA36E015E
:104A600022E0C20ED11CC6010E94FB1FCE010E9691
:104A70000E94FB1FCA87DB8784E090E0A0E0B0E0E3
:104A8000811B9109A109B1098E879F87A88BB98BDA
:104A9000CE8BDF8BA201B501C3010E9497208883D2
:104AA0009983E114F10419F0F701C083D1830FB6A3
:104AB000F8940F92809122328F5F809322328091FE
:104AC000763290917732892B89F5C0937632D093E4
:104AD0007732809122328130C1F58AE492E30E94DC
:104AE000EA1F85E592E30E94EA1F80E692E30E94B6
:104AF000EA1F8BE692E30E94EA1F8FE392E30E9493
:104B0000EA1F84E392E30E94EA1F85E292E30E9497
:104B1000EA1F8FE392E3809332329093333284E33F
:104B200092E380933032909331320FC080911B32E8
:104B300081110BC0E0917632F0917732828D0817A7
:104B400020F0C0937632D09377328A8D90911D32C7
:104B5000981710F480931D32909116329F5F9093B6
:104B6000163290911C32981710F480931C32FBE09F
:104B70008F9FC0011124B601865B9D4C0E94FF1FD0
:104B80000F900FBE80911B32882359F0E09176324E
:104B9000F0917732828D801730F40E944B2181E0B2
:104BA00009C081E007C081E005C0CB8EDC8EC60164
:104BB0003BCF8FEFDF91CF911F910F91FF90EF903F
:104BC000DF90CF90BF90AF909F908F907F906F902D
:104BD0005F904F9008950FB6F8940F92009721F4CC
:104BE00080917632909177320F900FBEFC01828DCA
:104BF0000895AF92BF92CF92DF92EF92FF920F9300
:104C0000A12CB12CC12CD12C0F2EF3E2EF2EF2E30C
:104C1000FF2EF02D00E020E030E044E650E06FEBA6
:104C200071E283E994E20E94E924813069F4F89406
:104C300080931B3210921E3210921F32109220323B
:104C4000109221320E940D210F91FF90EF90DF9082
:104C5000CF90BF90AF90089580911A328F5F80936C
:104C60001A3208950FB6F8940F9260911E32709127
:104C70001F3280912032909121320F900FBE089503
:104C8000009721F480917632909177324D96089575
:104C900080912332909124320895FF920F931F93B5
:104CA000CF93DF9380911A328111EDC080911E3233
:104CB00090911F32A0912032B09121320196A11D16
:104CC000B11D80931E3290931F32A0932032B09377
:104CD000213280911E3290911F32A0912032B091EA
:104CE0002132892B8A2B8B2BF1F5809132329091D6
:104CF000333220913032309131322093323230933E
:104D000033328093303290933132809117328F5FFB
:104D100080931732E0913232F091333280818111E9
:104D20000CC08FEF9FEFDC01809302209093032053
:104D3000A0930420B093052016C0E0913232F09188
:104D400033320780F085E02D0084F185E02D8281EB
:104D50009381A481B5818093022090930320A09336
:104D60000420B093052040911E3250911F32609173
:104D70002032709121328091022090910320A091E5
:104D80000420B0910520481759076A077B0708F4EB
:104D90007FC0E0913232F091333280818823F9F084
:104DA000E0913232F09133320780F085E02DC085FA
:104DB000D1858A819B81AC81BD8140911E32509109
:104DC0001F326091203270912132481759076A07CB
:104DD0007B0758F10F2EFBE0FF2EF02D2FC08FEF39
:104DE0009FEFDC018093022090930320A093042086
:104DF000B09305204DC0E0913232F09133320780FC
:104E0000F085E02DC085D1858A819B81AC81BD81F3
:104E100040911E3250911F326091203270912132A8
:104E2000481759076A077B0748F48093022090933C
:104E30000320A0930420B09305202AC08E010E5FAA
:104E40001F4FC8010E947120888D998D892B21F0F8
:104E5000CE010E960E9471208A8D90911C32981777
:104E600010F480931C32F89EC0011124B801865BB7
:104E70009D4C0E94FF1FE0913232F09133328081CD
:104E80008111B9CFACCF809119328F5F80931932E5
:104E9000DF91CF911F910F91FF900895CF92DF92F4
:104EA000EF92FF920F931F93CF93DF930FB6F89477
:104EB0000F9280911A32815080931A3280911A3267
:104EC000811160C08091223281112CC05EC0D70157
:104ED0001796ED91FC911897C085D185CE010E965D
:104EE0000E9471208E010E5F1F4FC8010E94712029
:104EF0008A8D90911C32981710F480931C32D89EA2
:104F0000C0011124B801865B9D4C0E94FF1FE091F7
:104F10007632F09177329A8D828D981770F0CC248A
:104F2000C3940BC0C12C0F2EF5E2EF2EF2E3FF2E3F
:104F3000F02D0F2EFBE0DF2EF02DF7018081811187
:104F4000C6CF80911932882381F08091193288234D
:104F500099F00E944D268091193281508093193228
:104F6000809119328111F5CF07C0F1E0CF1621F001
:104F700080911832813041F4109218320E944B21F6
:104F800081E003C080E001C080E00F900FBEDF91A0
:104F9000CF911F910F91FF90EF90DF90CF900895E8
:104FA000CF92DF92EF92FF92CF93DF93EC016A01F1
:104FB0007B010E942C2688819981AA81BB81C80E21
:104FC000D91EEA1EFB1E40911E3250911F32609185
:104FD000203270912132481759076A077B07B8F4CD
:104FE000C816D906EA06FB06E0F580911E329091BC
:104FF0001F32A0912032B0912132C882D982EA8238
:10500000FB828C159D05AE05BF05F8F413C0C816CC
:10501000D906EA06FB0600F180911E3290911F32FC
:10502000A0912032B09121328C159D05AE05BF05AF
:1050300098F017C0809176329091773202960E9454
:105040007120C701B6010E949B240E944E27811146
:105050000DC00E944B210AC0C882D982EA82FB821D
:10506000E9CFC882D982EA82FB82EFCFDF91CF916C
:10507000FF90EF90DF90CF900895CF92DF92EF9264
:10508000FF926B017C01672B682B692BE9F00E9472
:105090002C2680911E3290911F32A0912032B09127
:1050A0002132C80ED91EEA1EFB1E809176329091E5
:1050B000773202960E947120C701B6010E949B249C
:1050C0000E944E27811102C00E944B21FF90EF9059
:1050D000DF90CF90089580911A3281110CC0E09139
:1050E0001C324BE0E49FF0011124E65BFD4C808113
:1050F000882329F014C081E08093183208959BE042
:1051000080911C32815080931C32E0911C329E9F12
:10511000F0011124E65BFD4C8081882389F38091A6
:105120001C32282F30E04BE0849FC0011124DC01A9
:10513000A65BBD4C1196ED91FC9112970480F58110
:10514000E02D1196ED93FC931297835B9D4CE8172D
:10515000F90761F4848195814BE0429FF001439F00
:10516000F00D1124E65BFD4C818392838BE0829FDE
:10517000F001839FF00D1124E65BFD4C0180F2816C
:10518000E02D8085918580937632909377320895D3
:10519000CF92DF92EF92FF926A017B0160917632AB
:1051A00070917732625F7F4F0E9426208091763225
:1051B0009091773202960E94712080911E329091D8
:1051C0001F32A0912032B0912132BC01CD016C0D73
:1051D0007D1D8E1D9F1D0E949B24FF90EF90DF90F0
:1051E000CF9008950F931F93CF93DF93DC01179611
:1051F000ED91FC911897C085D1858E01025F1F4FFC
:10520000C8010E94712080911A32811116C00C5081
:105210001109C8010E9471208A8D90911C32981743
:1052200010F480931C32BBE08B9FC0011124B801A5
:10523000865B9D4C0E94FF1F05C0B80185E292E38A
:105240000E94FF1FE0917632F091773281E02A8D43
:10525000928D291708F480E0DF91CF911F910F9173
:10526000089520911732FC01208340911E32509105
:105270001F326091203270912132418352836383C7
:10528000748308958F929F92AF92BF92CF92DF92D4
:10529000EF92FF920F931F93CF93DF93FC010FB612
:1052A000F8940F92809117329081981789F080912D
:1052B0001E3290911F32A0912032B0912132018193
:1052C00012812381348180179107A207B307A8F5C3
:1052D00080911E3290911F32A0912032B0912132E4
:1052E000C180D280E380F480EB01088119812A819A
:1052F0003B818C199D09AE09BF0980179107A20750
:10530000B307E8F4CF0180901E3290901F32A09036
:105310002032B0902132B501A4014C195D096E090B
:105320007F09041B150B260B370B088319832A836F
:105330003B830E94312980E003C081E001C081E00D
:105340000F900FBEDF91CF911F910F91FF90EF90C3
:10535000DF90CF90BF90AF909F908F90089581E0A5
:10536000809318320895009721F4809176329091BD
:105370007732DC015B96ED91FC915C978081813105
:1053800041F4319680E090E0019621912131E1F3E2
:10539000089580E090E00895809176329091773280
:1053A00008950F931F93CF93DF93FC01228DA0915B
:1053B0007632B09177325A968C91281708F041C016
:1053C000A0917632B09177325A963C9184E090E089
:1053D000A0E0B0E0831B9109A109B10986879787F6
:1053E000A08BB18B8BE0289F90011124265B3D4C54
:1053F0008485958582179307E9F48F01EF01229642
:10540000CE010E947120E0917632F0917732828D48
:10541000F801828F90911C32981710F480931C32FF
:10542000FBE08F9FC0011124BE01865B9D4C0E9452
:10543000FF1F07C0A0917632B09177325A968C91B7
:10544000828FDF91CF911F910F9108950F931F933A
:10545000CF93DF93009749F1FC01328D27A13217DA
:1054600021F1EC018C010E5F1F4FC8010E947120D9
:105470008FA18A8F44E050E060E070E0481B510942
:10548000610971094E875F87688B798B90911C3217
:10549000981710F480931C32FBE08F9FC0011124F9
:1054A000B801865B9D4C0E94FF1FDF91CF911F9139
:1054B0000F910895052E97FB1EF400940E94712A07
:1054C00057FD07D00E94792A07FC03D04EF40C94B4
:1054D000712A50954095309521953F4F4F4F5F4F22
:1054E000089590958095709561957F4F8F4F9F4F50
:1054F0000895A1E21A2EAA1BBB1BFD010DC0AA1F15
:10550000BB1FEE1FFF1FA217B307E407F50720F02C
:10551000A21BB30BE40BF50B661F771F881F991FA7
:105520001A9469F760957095809590959B01AC01F0
:10553000BD01CF010895FB01DC0102C001900D9275
:1055400041505040D8F70895DC0101C06D9341509F
:105550005040E0F70895FB01DC014150504048F015
:1055600001900D920020C9F701C01D92415050409A
:10557000E0F708952532310520F4223010F00C9424
:10558000C52AFA011082CA010895BB27FA01A62F85
:105590006217710581059105330B30FB66F0AA2770
:1055A000660F771F881F991FAA1FA21710F0A21B52
:1055B00063953850A9F7A05DAA3308F0A95DA193BF
:1055C00036F7B111B1931082CA010C940C2B4532FD
:1055D000510520F4423010F00C94F22AFB011082A5
:1055E000CB010895BB27FB015527AA27880F991FD8
:1055F000AA1FA41710F0A41B83955051B9F7A05D02
:10560000AA3308F0A95DA193009779F7B111B1937E
:105610001192CB010C940C2BDC01FC01672F7191D2
:105620007723E1F7329704C07C916D937083629188
:10563000AE17BF07C8F308955058BB27AA270E948A
:10564000342B0C94AE2C0E94A02C38F00E94A72C76
:1056500020F039F49F3F19F426F40C949D2C0EF49D
:10566000E095E7FB0C94972CE92F0E94BF2C58F390
:10567000BA17620773078407950720F079F4A6F537
:105680000C94E12C0EF4E0950B2EBA2FA02D0B01FB
:10569000B90190010C01CA01A0011124FF27591B77
:1056A00099F0593F50F4503E68F11A16F040A22F7D
:1056B000232F342F4427585FF3CF469537952795EE
:1056C000A795F0405395C9F77EF41F16BA0B620BED
:1056D000730B840BBAF09150A1F0FF0FBB1F661F34
:1056E000771F881FC2F70EC0BA0F621F731F841F77
:1056F00048F4879577956795B795F7959E3F08F09D
:10570000B0CF9395880F08F09927EE0F979587955E
:1057100008950E94732C08F481E008950E94A22B42
:105720000C94AE2C0E94A72C58F00E94A02C40F0A4
:1057300029F45F3F29F00C94972C51110C94E22C22
:105740000C949D2C0E94BF2C68F39923B1F3552330
:1057500091F3951B550BBB27AA2762177307840784
:1057600038F09F5F5F4F220F331F441FAA1FA9F31A
:1057700035D00E2E3AF0E0E832D091505040E69508
:10578000001CCAF72BD0FE2F29D0660F771F881F69
:10579000BB1F261737074807AB07B0E809F0BB0B5C
:1057A000802DBF01FF2793585F4F3AF09E3F510570
:1057B00078F00C94972C0C94E22C5F3FE4F3983E25
:1057C000D4F3869577956795B795F7959F5FC9F759
:1057D000880F911D9695879597F90895E1E0660FDA
:1057E000771F881FBB1F621773078407BA0720F053
:1057F000621B730B840BBA0BEE1F88F7E0950895BC
:105800000E94072C6894B1110C94E22C08950E9418
:10581000C72C88F09F5798F0B92F9927B751B0F04F
:10582000E1F0660F771F881F991F1AF0BA95C9F724
:1058300014C0B13091F00E94E12CB1E008950C94B5
:10584000E12C672F782F8827B85F39F0B93FCCF368
:10585000869577956795B395D9F73EF490958095A1
:10586000709561957F4F8F4F9F4F0895E89409C0C1
:1058700097FB3EF490958095709561957F4F8F4F83
:105880009F4F9923A9F0F92F96E9BB279395F69599
:10589000879577956795B795F111F8CFFAF4BB0F17
:1058A00011F460FF1BC06F5F7F4F8F4F9F4F16C07B
:1058B000882311F096E911C0772321F09EE8872F05
:1058C000762F05C0662371F096E8862F70E060E0C1
:1058D0002AF09A95660F771F881FDAF7880F96953A
:1058E000879597F90895990F0008550FAA0BE0E8DE
:1058F000FEEF16161706E807F907C0F01216130692
:10590000E407F50798F0621B730B840B950B39F4D1
:105910000A2661F0232B242B252B21F408950A2637
:1059200009F4A140A6958FEF811D811D089597F977
:105930009F6780E870E060E008959FEF80EC089535
:1059400000240A941616170618060906089500245E
:105950000A9412161306140605060895092E0394D8
:10596000000C11F4882352F0BB0F40F4BF2B11F44C
:1059700060FF04C06F5F7F4F8F4F9F4F089557FDAB
:105980009058440F551F59F05F3F71F04795880FAD
:1059900097FB991F61F09F3F79F087950895121644
:1059A00013061406551FF2CF4695F1DF08C01616F0
:1059B00017061806991FF1CF8695710561050894A1
:1059C0000895E894BB2766277727CB0197F90895B8
:1059D0000E94732C08F48FEF08950E94002D0C9400
:1059E000AE2C0E94A02C38F00E94A72C20F095230A
:1059F00011F00C94972C0C949D2C11240C94E22CF7
:105A00000E94BF2C70F3959FC1F3950F50E0551F76
:105A1000629FF001729FBB27F00DB11D639FAA2703
:105A2000F00DB11DAA1F649F6627B00DA11D661F52
:105A3000829F2227B00DA11D621F739FB00DA11D73
:105A4000621F839FA00D611D221F749F3327A00D2D
:105A5000611D231F849F600D211D822F762F6A2FC9
:105A600011249F5750409AF0F1F088234AF0EE0F2E
:105A7000FF1FBB1F661F771F881F91505040A9F75B
:105A80009E3F510580F00C94972C0C94E22C5F3FC4
:105A9000E4F3983ED4F3869577956795B795F79597
:105AA000E7959F5FC1F7FE2B880F911D969587950F
:105AB00097F90895DB018F939F930E94732DBF91F7
:105AC000AF91A29F800D911DA39F900DB29F900D4D
:105AD00011240895EE0FFF1F881F8BBF0790F691CA
