S01600004652454552544F535F5348454C4C2E73726563CD
S11300000C949B020C94D1020C94D1020C94D10256
S11300100C94D1020C94D1020C94D1020C94D10210
S11300200C94D1020C94D1020C94D1020C94D10200
S11300300C94D1020C94D1020C94D1020C94D102F0
S11300400C94D1020C94D1020C94D1020C94D102E0
S11300500C94D1020C94D1020C94D1020C94D102D0
S11300600C94D1020C94FA0C0C94D1020C94D1028D
S11300700C949C0C0C94D1020C94D1020C94D102DB
S11300800C94D1020C94D1020C94D1020C94D102A0
S11300900C94D1020C94D1020C94D1020C94D10290
S11300A00C94D1020C94D1020C94D1020C94D10280
S11300B00C94D1020C94D1020C94D1020C94D10270
S11300C00C94D1020C944A130C94D1020C94D102D6
S11300D00C94D1020C94D1020C94D1020C94D10250
S11300E00C94D1020C94D1020C94820B0C94D10286
S11300F00C94D1020C94D1020C94D1020C94D10230
S11301000C94D1020C94D1020C94D1020C94D1021F
S11301100C94D1020C94D1020C94D1020C94D1020F
S11301200C94D1020C94D1020C94D1020C94D102FF
S11301300C94D1020C94D1020C94D1020C94D102EF
S11301400C94D1020C94D1020C94D1020C94D102DF
S11301500C94D1020C94D1020C94D1020C94D102CF
S11301600C943E0C0C94D1020C94D1020C94E00B30
S11301700C94D1020C94D1020C94D1020C94D102AF
S11301800C94D1020C94D1020C94D1020C94D1029F
S11301900C94D1020C94D1020C94D1020C94D1028F
S11301A00C94D1020C94D1020C94D1020C94D1027F
S11301B00C94D1020C94D1020C94D1020C94D1026F
S11301C00C94D1020C94D1020C94D1020C94D1025F
S11301D00C94D1020C94D1020C94D1020C94D1024F
S11301E00C94D1020C94D1020C94D1020C94D1023F
S11301F00C94D1020C94D1020C94D102670D6A0DB7
S11302006D0D700D730D760D780D890D910D9B0D8F
S1130210990D0C94010B0C94F80A0C94730D0C9426
S113022087090C94D4020C943A0B0C94DA020C94C3
S1130230FD080C94670D0C94D7020C9422050C94C1
S113024040050C94760D0C94D5020C94B6080C94CD
S11302501F090C94140B0C94DC020C94910D0C9457
S11302602D060C94890D0C94700D0C946D0D0C944A
S11302709B0D0C94780D0C945E0B0C94D3020C948F
S11302806A0D0C94CE150C9417050C94F9040C9477
S11302901E060C94990D0C9494080909002F00492A
S11302A0444C45090930092D0900092D2D2D2D0037
S11302B0092D2D2D2D2D2D2D2D2D2D002D2D2D2DBB
S11302C009092D2D2D2D092D2D2D2D2D00095275AA
S11302D06E730009467265652F546F74616C004E2D
S11302E0616D6509095072692E0953746174650062
S11302F009537461636B005461736B09092020090D
S113030020002C20544343304343413D002F002C14
S1130310204865617020667265653A200054696DF5
S1130320653A20004D617220203820323032350089
S11303304D45343035206261736520726164696FA4
S11303402070726F6772616D2056302E3420001B4E
S11303505B32326D005461736B3A2049444C450062
S11303601B5B316D00496C6C6567616C2073746153
S113037074652120526573657474696E67204156F3
S113038052003A5754463F004578697420636F6DB4
S11303906D616E64206D6F6465005265736574747D
S11303A0696E67204156520050726573732043741E
S11303B0726C2D4120666F7220636F6D6D616E6487
S11303C0206D6F64650020202020683A202020489A
S11303D0414C50210020202020653A2020204578DF
S11303E0697420636F6D6D616E64206D6F64650068
S11303F020202020733A202020537461636B2064F2
S1130400756D7020666F72207461736B73002020A9
S11304102020763A20202056657273696F6E206121
S11304206E6420736574757020696E666F726D6199
S113043074696F6E00202020206E3A2020205368BB
S11304406F77207468652074696D652072696768C8
S113045074206E6F77002020496E20636F6D6D618C
S11304606E64206D6F6465206F6E6C793A00202095
S113047043746C2D413A20456E74657220636F6D30
S11304806D616E64206D6F646500202043746C2D73
S1130490433A20526573657420746865204156524E
S11304A0002068656C70004D4534303520626173FE
S11304B06520726164696F2070726F6772616D206C
S11304C056302E3420001B5B33306D001B5B3436FA
S11304D06D004552524F52206372656174696E67B4
S11304E0207461736B20002C20737461636B206132
S11304F0742030780020637265617465640054610F
S1130500736B20001B5B32326D005461736B3A20B5
S1130510001B5B316D00090009002F000900090070
S11305201B5B32326D001B5B316D001B5B316D0058
S1130530202000005E0B11241FBECFEFCDBFDFE3F0
S1130540DEBF00E00CBF18BE19BE1ABE1BBE10E20F
S1130550A0E0B0E2EEE7F9E300E00BBF02C00790D1
S11305600D92AE3EB107D9F71BBE21E3AEEEB0E269
S113057001C01D92AC38B207E1F712E0CBE9D2E03A
S113058000E006C021970109802FFE010E94861C0D
S1130590CA39D10780E00807A9F70E94D60D0C9448
S11305A0BD1C0C9400000895089580E0089580E037
S11305B090E0089581E0089508950F931F93CF93D9
S11305C0DF93EC018B01E881F9810280F381E02D56
S11305D0199566E0C8010E94580D8C819D81009791
S11305E019F0B8010E94DD02DF91CF911F910F91A4
S11305F008950F931F93CF93DF93EC016AE08E81EC
S11306009F810E94580D8C016CEC74E00E949F0D38
S11306106AE0C8010E94580D8C0166EC74E00E94E7
S11306209F0D67E0C8010E94580D6AE08E819F818A
S11306300E94580D8C0167EA74E00E949F0D6AE0E5
S1130640C8010E94580D8C0161EA74E00E949F0D5C
S113065066E0C8010E94580D6AE08E819F810E9465
S1130660580D8C016AE874E00E949F0D66E0C80191
S11306700E94580D6AE08E819F810E94580D8C0162
S11306806EE674E00E949F0D66E0C8010E94580D5A
S11306906AE08E819F810E94580D8C0166E574E0AA
S11306A00E949F0D66E0C8010E94580D6AE08E8189
S11306B09F810E94580D8C0165E374E00E949F0D98
S11306C066E0C8010E94580D6AE08E819F810E94F5
S11306D0580D8C016EE074E00E949F0D66E0C80125
S11306E00E94580D6AE08E819F810E94580D8C01F2
S11306F060EF73E00E949F0D66E0C8010E94580DF0
S11307006AE08E819F810E94580D8C0165ED73E033
S11307100E949F0D66E0C8010E94580D6AE08E8118
S11307209F810E94580DEC0166EC73E00E949F0DBE
S113073066E0CE010E94580DDF91CF911F910F9179
S113074008955F926F927F928F929F92AF92BF9221
S1130750CF92DF92EF92FF920F931F93CF93DF9389
S11307605C013B014A01122F502E63E0CA010E9432
S1130770580DA614B70408F07CC0650184E1C80EC6
S1130780D11C00E07501B501C4010E94F60F6AE0B6
S11307900E94580D60E375E00E949F0D112309F437
S11307A06DC0002309F46AC06AE0C4010E94580DB8
S11307B06BE275E00E949F0D61C0112371F001117D
S11307C00CC08881851549F06AE0C4010E94580D67
S11307D066E275E00E949F0D01E06991C4010E94E8
S11307E0340FDC01ED91FC910280F381E02D60E295
S11307F01995CC16DD0609F7112389F06AE0C401C6
S11308000E94580DEC0160E275E00E949F0DE881A2
S1130810F9810280F381E02D60E2CE011995F701A0
S113082061917F0180EE860F8F3548F4D401ED91FC
S1130830FC910280F381E02DC401199509C0D40113
S1130840ED91FC910280F381E02D6EE2C4011995D3
S1130850CE14DF0421F7B4E1AB0EB11C66E0C40191
S11308600E94580DE4E1CE0ED11CA614B70408F47E
S113087089CF62E0C4010E94580D02C0E7019DCFF8
S1130880DF91CF911F910F91FF90EF90DF90CF9068
S1130890BF90AF909F908F907F906F905F900895DE
S11308A0CF93DF93EC010FB6F8940F928091200858
S11308B0909121088C839D830E946D1768837983AE
S11308C08A839B830F900FBECE01DF91CF91089551
S11308D08F929F92AF92BF92EF92FF920F931F93CA
S11308E0CF93DF93CDB7DEB72F97CDBFDEBF8C019B
S11308F07B01DB016D917D918D919C910F2EF8EE22
S11309008F2EF3E09F2EA12CB12CF02DA501940184
S11309100E94B41BBA01A901C8010E94B40FD801F6
S1130920ED91FC910280F381E02D6EE2C8011995EE
S1130930F7016081718182819381A50194010E94F4
S1130940B41B9B01AC0160E472E48FE090E00E9470
S1130950621CA50194010E94B41B49015A01F701CC
S1130960A481B58120E432E44FE050E00E948F1C62
S113097020E038E448EE51E00E94B41BC501B40104
S1130980620F731F841F951F7E01F7E0EF0EF11CA9
S11309909E012F5F3F4F59012AE030E040E050E0D4
S11309A00E94951BE62F288739874A875B876885CD
S11309B079858A859B8520E32E0FD7012E937D01AF
S11309C0AA15BB0549F71F82BE016F5F7F4FC8019F
S11309D00E949F0DC8012F96CDBFDEBFDF91CF913E
S11309E01F910F91FF90EF90BF90AF909F908F90C9
S11309F008950F93CF93DF931F92CDB7DEB700E036
S1130A002FEF3FEFA901BE016F5F7F4FFC0180858F
S1130A1091850E940215813019F4898190E002C009
S1130A208FEF9FEF0F90DF91CF910F910895FC010D
S1130A30808591850E94C61591E0811101C090E0E6
S1130A40892F08950F93CF93DF931F92CDB7DEB70D
S1130A506983FC01228533854485558500E0BE0108
S1130A606F5F7F4F808591850E94671491E08111AB
S1130A7001C090E0892F0F90DF91CF910F910895DD
S1130A808F929F92AF92BF92CF92DF92EF92FF929A
S1130A900F931F93CF93DF93EC018B018A819B818A
S1130AA00E947B17BC01C8010E949F0DD801ED91E3
S1130AB0FC910280F381E02D69E0C80119958A81D7
S1130AC09B810E947B17FC0101900020E9F731977C
S1130AD0E81BF90B389748F4D801ED91FC9102809A
S1130AE0F381E02D69E0C8011995CE84DF84E8889C
S1130AF0F988A884B9848A819B810E94EE1A982E71
S1130B008C848A819B810E942617682FC8010E94C9
S1130B10340F6AE00E94580DEC016EE175E00E940A
S1130B209F0D682DCE010E94340F6AE00E94580D7B
S1130B30EC016CE175E00E949F0D692DCE010E94CD
S1130B40340F6AE00E94580DEC016AE175E00E94DE
S1130B509F0DB501CE010E94F60F6AE00E94580D68
S1130B60EC0168E175E00E949F0D6AE0CE010E94ED
S1130B70580DEC0166E175E00E949F0DB701A601D6
S1130B80CE010E94B40FDF91CF911F910F91FF907E
S1130B90EF90DF90CF90BF90AF909F908F9008958B
S1130BA0CF92DF92EF92FF920F931F93CF93DF9335
S1130BB0EC017B018A819B810E947B176C016AE0B6
S1130BC0C7010E94580D8C0161E175E00E949F0DE0
S1130BD06AE0C8010E94580D8C016AE075E00E9429
S1130BE09F0DB601C8010E949F0D6AE0C8010E94D2
S1130BF0580D8C0164E075E00E949F0D66E0C80109
S1130C000E94580D8A859B85E885F98501E121E0DC
S1130C10A701BC018E1B9F0B0E94A1038C819D81A7
S1130C20009719F0B7010E94D005DF91CF911F9171
S1130C300F91FF90EF90DF90CF900895EC01E88141
S1130C40F9810190F081E02D19951A821B826FEFD2
S1130C507FEFCB010E947819FACFCF93DF93CDB702
S1130C60DEB72C97CDBFDEBF7C0119821A821B82AE
S1130C701C821D821E826AE0DC0116968D919C9175
S1130C8017970E94580D6C0168EA73E00E949F0D4B
S1130C9066E0C6010E94580D11E0812C68949924E5
S1130CA093F80F2EF0EFAF2EF0E2BF2EF02DF701E8
S1130CB08485882321F0813009F460C006C28681CE
S1130CC09781DC01ED91FC910480F581E02D19956B
S1130CD0882309F437C0F70186819781DC01ED91FF
S1130CE0FC910680F781E02D1995992781309105B3
S1130CF0F9F0039709F005C26AE0F701868197814C
S1130D000E94580D7C016AE973E00E949F0D66E021
S1130D10C7010E94580D93E088ED08B618BE84BF41
S1130D20909380008091820081FDFCCF08BEFFCFAC
S1130D30C7010E94F902D7011C961C931C971D96AB
S1130D401C93DFC182EF90E20E941705882309F407
S1130D50D8C1D7011696ED91FC9117970190F081B7
S1130D60E02DC280D38082EF90E20E94F904682FC4
S1130D70F70186819781F6011995C3C18681978110
S1130D80DC01ED91FC910480F581E02D1995882317
S1130D9009F4B7C1F70186819781DC01ED91FC91DB
S1130DA00680F781E02D19959C01332728363105FB
S1130DB009F454C14CF42B31310509F453C12536DF
S1130DC0310509F44FC163C12337310509F40CC15E
S1130DD02637310591F02E36310509F058C1CE0180
S1130DE001960E945004BC01F701868197810E94FC
S1130DF0680466E00E94580D84C11F821886198613
S1130E001A861B861C860E9420113C01CE0107967F
S1130E100E9450042C0166E0D70116968D919C9196
S1130E2017970E94580D6AE00E94580D6C0160E308
S1130E3073E00E949F0D6AE0C6010E94580D6C0188
S1130E4064E273E00E949F0D66E0C6010E94580DA3
S1130E506AE00E94580D6C016DE173E00E949F0DE1
S1130E60B201C6010E9468046AE00E94580D6C0138
S1130E706FE073E00E949F0DB301C6010E94F60F5C
S1130E806AE00E94580D6C016DE073E00E949F0DB2
S1130E904FEF5FE060E070E0C6010E94B40FF40120
S1130EA060A471A46AE0D70116968D919C9117975E
S1130EB00E94580D6C0162E073E00E949F0DB30123
S1130EC0C6010E94F60F66E00E94580D66E00E947B
S1130ED0580DF701C680D7806AE0C6010E94580DFC
S1130EE03C0167EF72E00E949F0D6AE0C3010E941B
S1130EF0580D3C0160EF72E00E949F0D66E0C30153
S1130F000E94580D6AE0C6010E94580D3C016FED25
S1130F1072E00E949F0D6AE0C3010E94580D3C01DB
S1130F2063ED72E00E949F0D6AE0C3010E94580DB8
S1130F303C016DEC72E00E949F0D66E0C3010E94CB
S1130F40580D6AE0C6010E94580D3C016CEB72E03A
S1130F500E949F0D6AE0C3010E94580D3C0160EBA2
S1130F6072E00E949F0D6AE0C3010E94580D3C018B
S1130F706AEA72E00E949F0D66E0C3010E94580D68
S1130F80D5018D919C91009719F0B6010E94DD0264
S1130F900E9483170E94EE1A082F6AE0C6010E947D
S1130FA0580D6C016FE972E00E949F0D602FC6011D
S1130FB00E94340F6AE00E94580D6C016DE972E0E2
S1130FC00E949F0D64E670E0C6010E94F60F6AE07D
S1130FD00E94580D6C016AE972E00E949F0D66E060
S1130FE0C6010E94580D8DC0F701C680D78080913C
S1130FF0F0209091F120009719F0B6010E94D005DD
S11310006AE0C6010E94580D3C0160E673E00E944C
S11310109F0D6AE0C3010E94580D3C0165E573E031
S11310200E949F0D6AE0C3010E94580D3C016FE4C9
S113103073E00E949F0D66E0C3010E94580D8091E9
S11310408A3190918B31BC016F5F7F4F01E1212F79
S1131050A601835691090E94A10353C0C7010E94AF
S1131060F9024FC06AE0D70116968D919C911797AB
S11310700E94580D6C0168E873E00E949F0D66E0C1
S1131080C6010E94580DF701148615863AC0F7016F
S1131090A681B781ED91FC9111970280F381E02D37
S11310A0682FCD0119956AE0D70116968D919C9110
S11310B017970E94580D6C0162E873E00E949F0D1F
S11310C066E0C6010E94580D1CC06AE0F7018681E3
S11310D097810E94580D7C0165E673E00E949F0D84
S11310E066E0C7010E94580D93E088ED08B618BE6B
S11310F084BF909380008091820081FDFCCF08BE64
S1131100FFCFF70186859785A089B1890196A11D36
S1131110B11D86879787A08BB18B61E070E080E07A
S113112090E00E947819C3CDCF93DF9300D01F9233
S1131130CDB7DEB78C010E946D1769837A838B83E8
S11311409C83F80186859785A089B1890196A11DA4
S1131150B11D86879787A08BB18B41E050E060E09A
S113116070E0CE0101960E940B19EBCFCF93DF9371
S113117000D01F92CDB7DEB78C010E946D17698332
S11311807A838B839C83E0E8F6E083E08283808B20
S1131190818BE0E8F1E080E7828389E08287E0E404
S11311A0F8E08AE683838DEC97E086A397A381E039
S11311B080836894EE24E6F8FF24F3F8F70180A115
S11311C091A10FB6F8940F9280B991B90F900FBE08
S11311D0F80186859785A089B1890196A11DB11D65
S11311E086879787A08BB18B41E050E060E070E088
S11311F0CE0101960E940B19E1CFCF93DF9300D06B
S11312001F92CDB7DEB78C010E946D1769837A8374
S11312108B839C83F80186859785A089B189019683
S1131220A11DB11D86879787A08BB18B41E050E04B
S113123060E070E0CE0101960E940B19EBCFCF93D2
S1131240DF9300D01F92CDB7DEB78C010E946D17DB
S113125069837A838B839C83E0E6F6E09081D801EE
S113126052968C915297892B8083948152968C91BB
S11312705297892B848352968C91813021F488E192
S11312808093700605C0843019F488E18093720657
S11312900F2EF8E6EF2EF6E0FF2EF02DDD24D3948A
S11312A0F701808180FD07C00FB6F8940F92D0B883
S11312B00F900FBE06C00FB6F8940F9210B80F909F
S11312C00FBED7018C9182FD07C00FB6F8940F9220
S11312D0D0B80F900FBE06C00FB6F8940F9210B896
S11312E00F900FBEF80186859785A089B189019674
S11312F0A11DB11D86879787A08BB18B41E050E07B
S113130060E070E0CE0101960E940B19C9CFCF9323
S1131310DF9300D01F92CDB7DEB77C010E946D171A
S113132069837A838B839C83E0E8F6E08CE0828394
S113133082898360828B83898360838BE0E8F1E018
S113134082E7808389E08087E0E0F9E088E68383B0
S11313508FEF9FEF86A397A381E080830FB6F89465
S11313600F9210B811B80F900FBE0F2E812CF9E018
S11313709F2EF02D0F2EF4E64F2E512C612C712C44
S1131380F02D0F2EF4E62F2E312CF02DF40100A1B8
S113139011A10FB6F8940F92A0B0B1B00F900FBE88
S11313A00FB6F8940F920F900FBE0FB6F8940F92E9
S11313B0C8018C199D0980B991B90F900FBEF7012E
S11313C06685778580899189A30192010E94B41B67
S11313D0672B682B692B79F5F701C680D7806EE6F9
S11313E070E2C6010E949F0DB801C6010E942A1036
S11313F066E00E94580DF701C680D7806FE770E25F
S1131400C6010E949F0DC801880F991F800F911F6C
S1131410880F991FB1010E94721C6A197B09C601C9
S11314200E942A106C0160E970E20E949F0D66E040
S1131430C6010E94580DF70186859785A089B18958
S11314400196A11DB11D86879787A08BB18B41E0C2
S113145050E060E070E0CE0101960E940B19680133
S113146095CF4F925F926F927F928F929F92AF929D
S1131470BF92CF92DF92EF92FF920F931F93CF937D
S1131480DF93CDB7DEB72A97CDBFDEBF4C0129016C
S113149038018AE090E2F40180839183FB0180812A
S11314A0882369F0DE011196319690E002C09930EC
S11314B039F09F5F8D9381918111F9CF01C090E044
S11314C0E1E0F0E0EC0FFD1FE90FF11D1082740163
S11314D0F2E0EF0EF11CA12CB12CC12CD12C042F65
S11314E09401A201BE016F5F7F4F8EE196E00E94DE
S11314F02416F40166827782408651862091F0207A
S11315003091F120248335838092F0209092F12051
S11315101486158640908A3150908B31FFEF4F1A14
S11315205F0A40928A3150928B31F401428653868D
S113153016861786108A118A6114710409F444C04E
S1131540813079F56AE0C3010E94580D7C016EEF89
S113155074E00E949F0DBE016F5F7F4FC7010E9420
S11315609F0D6AE0C7010E94580D7C0165EF74E08D
S11315700E949F0D6AE0C7010E94580D7C0167EE2E
S113158074E00E949F0D63E0C7010E94580DB201F0
S11315900E94F60F62E00E94580D66E00E94580D0A
S11315A013C06AE0C3010E94580D4C0162ED74E05F
S11315B00E949F0DBE016F5F7F4FC4010E949F0D6B
S11315C066E0C4010E94580D2A96CDBFDEBFDF91AC
S11315D0CF911F910F91FF90EF90DF90CF90BF902C
S11315E0AF909F908F907F906F905F904F900895F1
S11315F0DC01ED91FC910280F381E02D6CE0199502
S11316000895CF93DF93EC01A98DBA8DEB8DFC8DFA
S113161081E04D915C91208131814217530709F497
S113162080E0DF91CF910895CF93DF93FC01C18DCA
S1131630D28D28813981A38DB48D4D915C9124176D
S11316403507E9F3A789B08D0D90BC91A02DA20FA9
S1131650B31F8C912F5F3F4F288339832436310584
S113166028F0018CF28DE02D1082118290E0DF9140
S1131670CF910895DC015096ED91FC9151978081B2
S113168054964C915497842329F009C02150310970
S113169019F412C021E23EE490819423B9F39081BD
S11316A056968C915697892B80831E96ED91FC91CA
S11316B01F97608381E0089580E00895CF93DF93BE
S11316C0C2EFD0E28AE08A831B8283E08D831C828E
S11316D01E821F8282E690E2888399831E861F867B
S11316E040E061E080E20E943914888799878AE0AB
S11316F090E0A0E0B0E08A879B87AC87BD87DF914C
S1131700CF9108951F920F920FB60F92112408B62D
S11317100F9218BE0BB60F921BBE2F933F938F935D
S11317209F93EF93FF932091A00AE0910621F091FB
S113173007218091022190910321E80FF91F208352
S1131740809102219091032101968436910560F4E1
S1131750809302219093032120910421309105214B
S113176082179307F1F40CC0109202211092032106
S113177080910421909105211816190691F40EC048
S113178001968436910528F48093042190930521D1
S113179008C0109204211092052103C081E090E05A
S11317A0F3CFFF91EF919F918F913F912F910F90E4
S11317B00BBE0F9008BE0F900FBE0F901F90189590
S11317C01F920F920FB60F92112408B60F9218BEF3
S11317D00BB60F921BBE2F933F938F939F93EF9360
S11317E0FF932091B009E0910C21F0910D2180919B
S11317F0082190910921E80FF91F20838091082185
S11318009091092101968436910560F48093082112
S11318109093092120910A2130910B21821793077B
S1131820F1F40CC0109208211092092180910A2130
S113183090910B211816190691F40EC00196843666
S1131840910528F480930A2190930B2108C01092EB
S11318500A2110920B2103C081E090E0F3CFFF91A5
S1131860EF919F918F913F912F910F900BBE0F900D
S113187008BE0F900FBE0F901F9018951F920F92E5
S11318800FB60F92112408B60F9218BE0BB60F9222
S11318901BBE2F933F938F939F93EF93FF932091BE
S11318A0A009E0911221F091132180911A219091C5
S11318B01B21E80FF91F208380910E2190910F21A5
S11318C001968436910560F480930E2190930F2144
S11318D0209110213091112182179307F1F40CC04B
S11318E010920E2110920F218091102190911121BC
S11318F01816190691F40EC001968436910528F441
S1131900809310219093112108C0109210211092FD
S1131910112103C081E090E0F3CFFF91EF919F91FB
S11319208F913F912F910F900BBE0F9008BE0F9097
S11319300FBE0F901F9018951F920F920FB60F9223
S1131940112408B60F9218BE0BB60F921BBE2F932C
S11319503F938F939F93EF93FF932091B008E0916F
S11319601821F09119218091142190911521E80FEB
S1131970F91F2083809114219091152101968436BA
S1131980910560F4809314219093152120911621E0
S11319903091172182179307F1F40CC0109214218F
S11319A0109215218091162190911721181619066D
S11319B091F40EC001968436910528F48093162183
S11319C09093172108C0109216211092172103C07A
S11319D081E090E0F3CFFF91EF919F918F913F9140
S11319E02F910F900BBE0F9008BE0F900FBE0F905B
S11319F01F9018951F920F920FB60F92112408B6DC
S1131A000F9218BE0BB60F921BBE2F933F938F936A
S1131A109F93EF93FF932091A008E0911E21F091F2
S1131A201F2180911A2190911B21E80FF91F208317
S1131A3080911A2190911B2101968436910560F4BE
S1131A4080931A2190931B2120911C2130911D21F8
S1131A5082179307F1F40CC010921A2110921B21E3
S1131A6080911C2190911D211816190691F40EC025
S1131A7001968436910528F480931C2190931D21AE
S1131A8008C010921C2110921D2103C081E090E037
S1131A90F3CFFF91EF919F918F913F912F910F90F1
S1131AA00BBE0F9008BE0F900FBE0F901F9018959D
S1131AB0CF93DF93EC01862F90E08B309105D8F51E
S1131AC0FC018827E250FF4F8F4F0C94861C82E064
S1131AD08A8331C088E08A832EC08AE08A832BC03F
S1131AE080E18A8328C081E08B8325C01B8223C0C8
S1131AF0E881F9810280F381E02D6DE0CE01199532
S1131B00E881F9810280F381E02D6AE0CE01199524
S1131B1012C0E881F9810284F385E02DCE01199584
S1131B200AC0E881F9810084F185E02DCE01199580
S1131B3002C081E08C83CE01DF91CF9108950F9391
S1131B401F93CF93DF938C01FB01DC0114968C91DE
S1131B50811104C06081611117C023C0D80114969B
S1131B601C92EB01219664916623D9F0D801ED9182
S1131B70FC910280F381E02DC8011995FE01649166
S1131B8021966111F3CF0DC0EF012196D801ED919B
S1131B90FC910280F381E02DC801199569916111CE
S1131BA0F5CFDF91CF911F910F910895AF92BF921E
S1131BB0DF92EF92FF920F931F93CF93DF93CDB7F2
S1131BC0DEB76E97CDBFDEBFE0E6F6E080E181834D
S1131BD08583F894E0E5F0E08081826080838181F0
S1131BE081FFFDCF809140009FB79E8FF8941BBE6C
S1131BF0887F816020E430E0F90108ED04BF808330
S1131C008E8D8FBFE0E5F0E080818E7F80839DEF35
S1131C1088ED08B618BE84BF9093800008BE82E5A4
S1131C2090E289839A838AE08B831C8243E04E830B
S1131C301D821F821886A0E4B6E0AB87BC8786E0CD
S1131C408D870F2EF7E0DF2EF02DDE86E0EBF8E037
S1131C50EF87F88B81EB98E0898B9A8B84EB98E083
S1131C608B8B9C8B2E8514965C91149781E090E06D
S1131C70BC0102C0660F771F2A95E2F79B01252B52
S1131C8014962C932E85AB85BC855C91BC0102C057
S1131C90660F771F2A95E2F79B01252B2C933D8530
S1131CA0AB85BC852C9102C0880F991F3A95E2F749
S1131CB08095909582238C9380E18383458380EF84
S1131CC0878381E2868388E1848380E88E8B80E445
S1131CD08F8B80E28D8BEF85F8898081808182E112
S1131CE090E289839A8388E191E2888F998F86E1D3
S1131CF091E28A8F9B8F84E191E28C8F9D8F84E6A1
S1131D0090E00E9453108093182190931921EA8D3A
S1131D10FB8D10821182EC8DFD8D1082118267E0A3
S1131D20CE0101960E94580D7C0166E970E20E9482
S1131D309F0D66E0C7010E94580D66E00E94580D91
S1131D4082E190E00E9453107C018E010F5F1F4FCF
S1131D5024E031E040E065EB70E20E94310A82E267
S1131D6090E2F7018083918383E190E00E94531015
S1131D707C0124E031E044E06DEB70E20E94310A22
S1131D800F2EFAE2AF2EF0E2BF2EF02DF701A08263
S1131D90B18281E0828B83E190E00E9453107C0148
S1131DA024E031E044E064EC70E20E94310AF7017F
S1131DB0A082B18284E0828B82E190E00E94531081
S1131DC07C0124E031E044E06CEC70E20E94310AD2
S1131DD082E390E2F7018083918382E190E00E94A4
S1131DE053107C0124E031E043E063ED70E20E9493
S1131DF0310A8AE390E2F7018083918382E190E0E3
S1131E000E9453107C0124E031E042E06AED70E26C
S1131E100E94310A82E490E2F7018083918382E197
S1131E2090E00E9453107C0124E031E041E062EE36
S1131E3070E20E94310A8AE490E2F7018083918380
S1131E40D092A20078940E94341780E090E06E96BD
S1131E50CDBFDEBFDF91CF911F910F91FF90EF9027
S1131E60DF90BF90AF900895CF92DF92EF92FF92F0
S1131E700F931F93CF93DF93CDB7DEB72997CDBFD1
S1131E80DEBF8C01E62EDC0113968C911397882318
S1131E9041F0ED91FC910280F381E02DC801199588
S1131EA056C0F8014281423019F56894CC24C3F835
S1131EB0D12C6894FF24F7F88E2D8F2151F0D8018E
S1131EC0ED91FC910280F381E02D61E3C801199545
S1131ED009C0D801ED91FC910280F381E02D60E30B
S1131EE0C8011995F694B1E0CB1AD10829F72FC08F
S1131EF04031F9F462956F700190F081E02D028019
S1131F00F381E02D6A3010F0695C01C0605DC801A6
S1131F1019956E2D6F70D801ED91FC910280F381BB
S1131F20E02D6A3010F0695C01C0605DC80119954C
S1131F300EC050E0BE016F5F7F4F8E2D90E00E9477
S1131F402D1CBE016F5F7F4FC8010E949F0DC80109
S1131F502996CDBFDEBFDF91CF911F910F91FF90E6
S1131F60EF90DF90CF900895DF92EF92FF920F935E
S1131F701F93CF93DF93CDB7DEB7A197CDBFDEBF5D
S1131F808C01D42EE52EF62E972FF80122812031D4
S1131F9021F0283011F0223071F4692FC8010E9419
S1131FA0340F6F2D0E94340F6E2D0E94340F6D2D4F
S1131FB00E94340F0FC030E0AE014F5F5F4F6D2DB4
S1131FC07E2D8F2D0E94001CBE016F5F7F4FC801C4
S1131FD00E949F0DC801A196CDBFDEBFDF91CF91B6
S1131FE01F910F91FF90EF90DF900895FF920F9350
S1131FF01F93CF93DF93CDB7DEB76197CDBFDEBF1D
S11320008C01F62E972FF8014281403121F048309F
S113201011F0423041F4692FC8010E94340F6F2D32
S11320200E94340F0DC050E0BE016F5F7F4F8F2DB3
S11320300E942D1CBE016F5F7F4FC8010E949F0D3F
S1132040C8016196CDBFDEBFDF91CF911F910F9183
S1132050FF9008950F931F93CF93DF93CDB7DEB70F
S11320606197CDBFDEBF8C019B01FC0192819A3048
S113207021F0C8010E94F60F0DC04AE0BE016F5F57
S11320807F4FC9010E94F51BBE016F5F7F4FC801DE
S11320900E949F0DC8016196CDBFDEBFDF91CF9135
S11320A01F910F9108950F931F93CF93DF93EC012A
S11320B00E9467178091202181111DC0A5E2B1E221
S11320C0E9E2F1E2ED93FC93119712961D921C92B2
S11320D01397A1E2B1E28FEF9FE012968D939C9348
S11320E013971D921C92119782839383A083B183CB
S11320F081E080932021209709F45FC09E012B5F2B
S11321003F4F2496CE3FDF4008F05AC0E09125218E
S1132110F0912621A5E2B1E202C0DF01FC01828137
S113212093818217930720F4808191810097A9F706
S1132130C1E2E132FC0709F446C0CD91DC9111976C
S11321408E010B5F1F4F808191818D939C938281BF
S11321509381821B930B8B30910510F1BF01620FA9
S1132160731FDB0112968D939C9313972283338301
S113217012964D915C91139785E291E201C0CD01D5
S1132180EC01A881B98112962D913C9113972417E3
S11321903507A8F3EB01A883B983DC016D937C9325
S11321A0809100209091012022813381821B930B26
S11321B0809300209093012008C000E010E005C047
S11321C000E010E002C000E010E00E948918C8019D
S11321D0DF91CF911F910F9108950F931F93CF9388
S11321E0DF93009741F1EC018C01055011090E9425
S11321F06717F80142815381A5E2B1E201C0DF0112
S1132200ED91FC9111972281338124173507B8F39E
S11322102597E883F9830D931C9320910020309136
S113222001208A819B81820F931F809300209093C9
S113223001200E948918DF91CF911F910F91089579
S113224080910020909101200895FC0103968183E0
S113225092834FEF5FEFBA014383548365837683A0
S1132260878390878187928710820895FC01128664
S113227013860895CF93DF93FC01DB012181328122
S1132280E9018C819D8114968D939C93159781818E
S1132290928116968D939C9317978C819D81EC0166
S11322A06E837F83E9016C837D83618372831A96D5
S11322B0ED93FC931B9780818F5F8083DF91CF9197
S11322C008950F931F93CF93DF93EB010881198136
S11322D02A813B810F3F4FEF14072407340731F461
S11322E0DC011996ED91FC911A971FC0FC013396FD
S11322F0DC0117964D915C911897DA014D915D912F
S11323006D917C91041715072607370770F0048038
S1132310F581E02DA481B5814D915D916D917C9104
S1132320041715072607370790F7A481B581AC83F6
S1132330BD831696CD93DC931797EE83FF83C483F6
S1132340D5838A879B87FC0120812F5F2083DF91BF
S1132350CF911F910F910895FC01A481B5818681CD
S1132360978116968D939C931797A681B781848144
S1132370958114968D939C931597A285B385119698
S11323808D919C911297E817F90731F48681978112
S113239011968D939C931297128613868C9181507B
S11323A08C93089580938A3190938B3131E1FC01B1
S11323B03083319722E220833197A3E3A0833197BE
S11323C060833197708331971082319710823197EF
S11323D060E86083319710823197108231971082C0
S11323E0319762E06083319763E06083319764E002
S11323F06083319765E06083319766E0608331974D
S113240067E06083319768E06083319769E06083B7
S1132410319760E1608331973083319732E13083C3
S1132420319733E13083319734E13083319735E1AB
S11324303083319736E13083319737E130833197F8
S113244038E13083319739E13083319730E230839A
S1132450319731E2308331972083319723E220830F
S11324603197408331975083319726E22083319707
S113247027E22083319728E22083319729E22083C1
S1132480319720E32083319721E3208389970895AE
S11324908CE78093290A8FEF8093280A81E0809348
S11324A0000A91E19093010A8093070AA091883170
S11324B0B0918931CD91CDBFDD91DEBFFF91EF9118
S11324C0DF91CF91BF91AF919F918F917F916F9148
S11324D05F914F913F912F911F910F91FF90EF903A
S11324E0DF90CF90BF90AF909F908F907F906F9030
S11324F05F904F903F902F901F900F900CBE0F90C5
S11325000BBE0F900FBE0F90089508950F920FB653
S1132510F8940F920BB60F920CB60F921F921124DF
S11325202F923F924F925F926F927F928F929F92DF
S1132530AF92BF92CF92DF92EF92FF920F931F93CD
S11325402F933F934F935F936F937F938F939F93B7
S1132550AF93BF93CF93DF93EF93FF93A091883111
S1132560B09189310DB60D920EB60D920E94A61946
S1132570A0918831B0918931CD91CDBFDD91DEBF7D
S1132580FF91EF91DF91CF91BF91AF919F918F9187
S11325907F916F915F914F913F912F911F910F9177
S11325A0FF90EF90DF90CF90BF90AF909F908F906F
S11325B07F906F905F904F903F902F901F900F905F
S11325C00CBE0F900BBE0F900FBE0F9008950F928C
S11325D00FB6F8940F920BB60F920CB60F921F928F
S11325E011242F923F924F925F926F927F928F921B
S11325F09F92AF92BF92CF92DF92EF92FF920F938E
S11326001F932F933F934F935F936F937F938F9376
S11326109F93AF93BF93CF93DF93EF93FF93A091D7
S11326208831B09189310DB60D920EB60D920E948B
S113263088170E94A619A0918831B0918931CD9153
S1132640CDBFDD91DEBFFF91EF91DF91CF91BF91BF
S1132650AF919F918F917F916F915F914F913F9136
S11326602F911F910F91FF90EF90DF90CF90BF902B
S1132670AF909F908F907F906F905F904F903F901E
S11326802F901F900F900CBE0F900BBE0F900FBE9B
S11326900F9008950E94E7121895CF93DF93EC01F1
S11326A088A181110BC088819981892BE1F58A81E8
S11326B09B810E94611B1A821B8235C0411117C085
S11326C0482F50E08C819D810E94D61B28A18C81CB
S11326D09D81820F911D8C839D832A813B8182176A
S11326E0930708F1888199818C839D831CC0482FAE
S11326F050E08E819F810E94D61B88A190E0919525
S1132700819591092E813F81280F391F2E833F83A4
S1132710488159812417350730F42A813B81820F7F
S1132720931F8E839F838E8D8F5F8E8FDF91CF91CA
S11327300895FC01808191810097A1F040A150E0AF
S113274026813781240F351F26833783A281B381E5
S11327502A173B0710F086839783CB016681778124
S11327600E94D61B08950F931F93CF93DF93EC0120
S11327700FB6F8940F928AA11816B4F48B898111BC
S113278005C012C08B89811104C00EC08E010D5E7C
S11327901F4FC8010E942D1A81110E94EA1A8AA1B2
S11327A081508AA3181674F38FEF8AA30F900FBE7B
S11327B00FB6F8940F9289A11816B4F48885811184
S11327C005C012C08885811104C00EC08E01085F47
S11327D01F4FC8010E942D1A81110E94EA1A89A173
S11327E0815089A3181674F38FEF89A30F900FBE3D
S11327F0DF91CF911F910F9108951F93CF93DF9392
S1132800613059F0FC012389308531112CC011E06D
S1132810211110E0211128C001C011E0EC01488110
S1132820598128A130E06F8D629FC001639F900D94
S11328301124BA01680F791F6A837B831E8E4C832F
S11328405D83821B930B840F951F8E839F838FEF71
S113285089A38AA3CE0108960E942511CE0143962E
S11328600E94251101C010E0812FDF91CF911F91AB
S113287008950F931F93CF93DF93882301F1062FBD
S1132880182F83E290E00E945310EC01892BC9F0C9
S1132890109FC001112401960E94531088839983CC
S11328A0892B39F01F8F08A361E0CE010E94FD132C
S11328B008C0CE010E94ED10C0E0D0E002C0C0E02C
S11328C0D0E0CE01DF91CF911F910F910895AF9287
S11328D0BF92CF92DF92EF92FF920F931F93CF9309
S11328E0DF93CDB7DEB72997CDBFDEBF7C015B0197
S11328F02E833F834887598710E06C0188E0C80E17
S1132900D11C0FB6F8940F92F701968D878D981706
S1132910A8F4402FB501C7010E944D13F701838924
S1132920882341F0C70143960E942D1A813011F487
S11329300E9486120F900FBE81E056C08E819F8147
S1132940A885B985892B8A2B8B2B21F40F900FBE78
S113295080E04AC0111105C0CE0101960E946C1A94
S113296011E00F900FBE0E9467170FB6F8940F92F4
S1132970F70181A18F3F09F411A2F70182A18F3FD2
S113298009F412A20F900FBEBE016A5F7F4FCE0101
S113299001960E947D1A811121C00FB6F8940F92FE
S11329A0F701968D0F900FBE878D981311C04E813D
S11329B05F8168857985C6010E94031AC7010E9458
S11329C0B3130E94891881119CCF0E94861299CF5B
S11329D0C7010E94B3130E94891893CFC7010E94B4
S11329E0B3130E94891880E02996CDBFDEBFDF9122
S11329F0CF911F910F91FF90EF90DF90CF90BF90F8
S1132A00AF900895AF92BF92CF92DF92EF92FF9270
S1132A100F931F93CF93DF93CDB7DEB72997CDBF25
S1132A20DEBF7C015B012E833F834887598710E01A
S1132A306C0183E1C80ED11C0FB6F8940F92F70114
S1132A40868D882399F1C680D780B501C7010E947D
S1132A50991301111AC0F701868D8150868F8081E8
S1132A609181892B29F40E94071BF70182839383A8
S1132A70F70180858823B1F0C70108960E942D1ABA
S1132A80813081F40E9486120DC0F701C682D7827C
S1132A908389882339F0C70143960E942D1A811136
S1132AA00E9486120F900FBE81E062C08E819F81CA
S1132AB0A885B985892B8A2B8B2B21F40F900FBE07
S1132AC080E056C0111105C0CE0101960E946C1A17
S1132AD011E00F900FBE0E9467170FB6F8940F9283
S1132AE0F70181A18F3F09F411A2F70182A18F3F61
S1132AF009F412A20F900FBEBE016A5F7F4FCE0190
S1132B0001960E947D1A81112DC00FB6F8940F9280
S1132B10F701868D0F900FBE81111EC080819181B7
S1132B20892B49F40FB6F8940F92828193810E9405
S1132B300C1B0F900FBE4E815F8168857985C6019D
S1132B400E94031AC7010E94B3130E9489188111BD
S1132B5073CF0E94861270CFC7010E94B3130E94E4
S1132B6089186ACFC7010E94B3130E94891880E0B4
S1132B702996CDBFDEBFDF91CF911F910F91FF90BA
S1132B80EF90DF90CF90BF90AF9008950FB6F89478
S1132B900F92FC01868D0F900FBE0895CCE5D1E312
S1132BA088818230E8F30E948612FACFCF92DF92B6
S1132BB0EF92FF926B017C01E0918831F0918931B1
S1132BC06283738384839583809130319091313112
S1132BD0A0913231B0913331C816D906EA06FB060A
S1132BE068F460918831709189318091423190917B
S1132BF043316E5F7F4F0E94611121C06091883123
S1132C007091893180914431909145316E5F7F4F4D
S1132C100E9461118091022090910320A0910420D0
S1132C20B0910520C816D906EA06FB0640F4C09206
S1132C300220D0920320E0920420F0920520FF901D
S1132C40EF90DF90CF9008954F925F926F927F92B2
S1132C508F929F92AF92BF92CF92DF92EF92FF92A8
S1132C600F931F93CF93DF935C014B013A0129012A
S1132C7088E290E00E945310EC01892B09F4D4C03F
S1132C80C114D10409F0CCC0C3010E9453108B8F2E
S1132C909C8F009721F4CE010E94ED10C5C0A301C2
S1132CA061E170E00E94DF1B9301215031098B8D9B
S1132CB09C8D3C01620E731E4AE050E0B401CE01CB
S1132CC04D960E94E61B1EA2102F043008F013E05C
S1132CD01A8F1FA36E0122E0C20ED11CC6010E94EE
S1132CE03611CE010E960E943611CA87DB8784E026
S1132CF090E0A0E0B0E0811B9109A109B1098E87A1
S1132D009F87A88BB98BCE8BDF8BA201B501C30142
S1132D100E94D21188839983E114F10419F0F70118
S1132D20C083D1830FB6F8940F92809134318F5FB2
S1132D30809334318091883190918931892B89F540
S1132D40C0938831D0938931809134318130C1F579
S1132D508CE591E30E94251187E691E30E942511F9
S1132D6082E791E30E9425118DE791E30E942511EA
S1132D7081E591E30E94251186E491E30E942511E7
S1132D8087E391E30E94251181E591E38093443127
S1132D909093453186E491E380934231909343319B
S1132DA00FC080912D3181110BC0E0918831F091D9
S1132DB08931828D081720F0C0938831D0938931EE
S1132DC08A8D90912F31981710F480932F31909120
S1132DD028319F5F9093283190912E31981710F4E9
S1132DE080932E31FBE08F9FC0011124B601845AD9
S1132DF09E4C0E943A110F900FBE80912D31882372
S1132E0059F0E0918831F0918931828D801730F446
S1132E100E94861281E009C081E007C081E005C0FC
S1132E20CB8EDC8EC6013BCF8FEFDF91CF911F910C
S1132E300F91FF90EF90DF90CF90BF90AF909F9055
S1132E408F907F906F905F904F9008950FB6F89495
S1132E500F92009721F480918831909189310F90DD
S1132E600FBEFC01828D0895AF92BF92CF92DF9284
S1132E70EF92FF920F93A12CB12CC12CD12C0F2EC9
S1132E80F5E3EF2EF1E3FF2EF02D00E020E030E03B
S1132E9044E650E069EE70E28EEC95E10E9424165F
S1132EA0813069F4F89480932D311092303110926E
S1132EB0313110923231109233310E9448120F9105
S1132EC0FF90EF90DF90CF90BF90AF9008958091E6
S1132ED02C318F5F80932C3108950FB6F8940F92A4
S1132EE06091303170913131809132319091333130
S1132EF00F900FBE0895009721F48091883190912E
S1132F0089314D96089580913531909136310895E7
S1132F10FF920F931F93CF93DF9380912C318111F4
S1132F20EDC08091303190913131A0913231B09126
S1132F3033310196A11DB11D80933031909331310D
S1132F40A0933231B093333180913031909131314B
S1132F50A0913231B0913331892B8A2B8B2BF1F52F
S1132F6080914431909145312091423130914331E7
S1132F7020934431309345318093423190934331CF
S1132F80809129318F5F80932931E0914431F09110
S1132F904531808181110CC08FEF9FEFDC0180935C
S1132FA0022090930320A0930420B093052016C020
S1132FB0E0914431F09145310780F085E02D0084A3
S1132FC0F185E02D82819381A481B58180930220D3
S1132FD090930320A0930420B093052040913031B6
S1132FE050913131609132317091333180910220AE
S1132FF090910320A0910420B0910520481759070F
S11330006A077B0708F47FC0E0914431F0914531B1
S113301080818823F9F0E0914431F09145310780B3
S1133020F085E02DC085D1858A819B81AC81BD81ED
S1133030409130315091313160913231709133315E
S1133040481759076A077B0758F10F2EFBE0FF2E3C
S1133050F02D2FC08FEF9FEFDC018093022090931F
S11330600320A0930420B09305204DC0E091443187
S1133070F09145310780F085E02DC085D1858A81A6
S11330809B81AC81BD81409130315091313160914F
S1133090323170913331481759076A077B0748F476
S11330A08093022090930320A0930420B0930520E2
S11330B02AC08E010E5F1F4FC8010E94AC11888D7B
S11330C0998D892B21F0CE010E960E94AC118A8D28
S11330D090912E31981710F480932E31F89EC001F0
S11330E01124B801845A9E4C0E943A11E091443153
S11330F0F091453180818111B9CFACCF80912B31D2
S11331008F5F80932B31DF91CF911F910F91FF90AF
S11331100895CF92DF92EF92FF920F931F93CF9374
S1133120DF930FB6F8940F9280912C3181508093E5
S11331302C3180912C31811160C080913431811106
S11331402CC05EC0D7011796ED91FC911897C085ED
S1133150D185CE010E960E94AC118E010E5F1F4FD9
S1133160C8010E94AC118A8D90912E31981710F4E9
S113317080932E31D89EC0011124B801845A9E4CEC
S11331800E943A11E0918831F09189319A8D828DB3
S1133190981770F0CC24C3940BC0C12C0F2EF7E306
S11331A0EF2EF1E3FF2EF02D0F2EFBE0DF2EF02D9E
S11331B0F70180818111C6CF80912B31882381F062
S11331C080912B31882399F00E94881780912B31AC
S11331D0815080932B3180912B318111F5CF07C021
S11331E0F1E0CF1621F080912A31813041F4109220
S11331F02A310E94861281E003C080E001C080E091
S11332000F900FBEDF91CF911F910F91FF90EF9020
S1133210DF90CF900895CF92DF92EF92FF92CF93F9
S1133220DF93EC016A017B010E9467178881998111
S1133230AA81BB81C80ED91EEA1EFB1E4091303103
S113324050913131609132317091333148175907BF
S11332506A077B07B8F4C816D906EA06FB06E0F548
S11332608091303190913131A0913231B09133312C
S1133270C882D982EA82FB828C159D05AE05BF0502
S1133280F8F413C0C816D906EA06FB0600F18091CB
S1133290303190913131A0913231B09133318C156C
S11332A09D05AE05BF0598F017C0809188319091B7
S11332B0893102960E94AC11C701B6010E94D6154D
S11332C00E94891881110DC00E9486120AC0C8820A
S11332D0D982EA82FB82E9CFC882D982EA82FB8260
S11332E0EFCFDF91CF91FF90EF90DF90CF900895D3
S11332F0CF92DF92EF92FF926B017C01672B682BD8
S1133300692BE9F00E946717809130319091313137
S1133310A0913231B0913331C80ED91EEA1EFB1E82
S1133320809188319091893102960E94AC11C70135
S1133330B6010E94D6150E948918811102C00E940C
S11333408612FF90EF90DF90CF90089580912C31FA
S113335081110CC0E0912E314BE0E49FF001112467
S1133360E45AFE4C8081882329F014C081E08093C4
S11333702A3108959BE080912E31815080932E3123
S1133380E0912E319E9FF0011124E45AFE4C80817D
S1133390882389F380912E31282F30E04BE0849FDD
S11333A0C0011124DC01A45ABE4C1196ED91FC918C
S11333B012970480F581E02D1196ED93FC931297FA
S11333C0815A9E4CE817F90761F4848195814BE09A
S11333D0429FF001439FF00D1124E45AFE4C818377
S11333E092838BE0829FF001839FF00D1124E45AB5
S11333F0FE4C0180F281E02D808591858093883197
S1133400909389310895CF92DF92EF92FF926A01EF
S11334107B016091883170918931625F7F4F0E9496
S11334206111809188319091893102960E94AC118A
S11334308091303190913131A0913231B09133315A
S1133440BC01CD016C0D7D1D8E1D9F1D0E94D615E6
S1133450FF90EF90DF90CF9008950F931F93CF9339
S1133460DF93DC011796ED91FC911897C085D18507
S11334708E01025F1F4FC8010E94AC1180912C3154
S1133480811116C00C501109C8010E94AC118A8D1B
S113349090912E31981710F480932E31BBE08B9FBE
S11334A0C0011124B801845A9E4C0E943A1105C0EF
S11334B0B80187E391E30E943A11E0918831F091D9
S11334C0893181E02A8D928D291708F480E0DF91FB
S11334D0CF911F910F91089520912931FC012083F0
S11334E040913031509131316091323170913331AA
S11334F0418352836383748308958F929F92AF9222
S1133500BF92CF92DF92EF92FF920F931F93CF93CC
S1133510DF93FC010FB6F8940F92809129319081CA
S1133520981789F08091303190913131A0913231E6
S1133530B091333101811281238134818017910745
S1133540A207B307A8F58091303190913131A09151
S11335503231B0913331C180D280E380F480EB0109
S1133560088119812A813B818C199D09AE09BF0903
S113357080179107A207B307E8F4CF018090303198
S113358090903131A0903231B0903331B501A40123
S11335904C195D096E097F09041B150B260B370BAB
S11335A0088319832A833B830E946C1A80E003C03A
S11335B081E001C081E00F900FBEDF91CF911F9198
S11335C00F91FF90EF90DF90CF90BF90AF909F90BE
S11335D08F90089581E080932A310895009721F413
S11335E08091883190918931DC015B96ED91FC9159
S11335F05C978081813141F4319680E090E00196BE
S113360021912131E1F3089580E090E008958091C3
S113361088319091893108950F931F93CF93DF934D
S1133620FC01228DA0918831B09189315A968C91F8
S1133630281708F041C0A0918831B09189315A9679
S11336403C9184E090E0A0E0B0E0831B9109A109E3
S1133650B10986879787A08BB18B8BE0289F900157
S11336601124245A3E4C8485958582179307E9F4E6
S11336708F01EF012296CE010E94AC11E0918831B6
S1133680F0918931828DF801828F90912E319817B3
S113369010F480932E31FBE08F9FC0011124BE01F2
S11336A0845A9E4C0E943A1107C0A0918831B0916F
S11336B089315A968C91828FDF91CF911F910F910E
S11336C008950F931F93CF93DF93009749F1FC0163
S11336D0328D27A1321721F1EC018C010E5F1F4FAF
S11336E0C8010E94AC118FA18A8F44E050E060E0D1
S11336F070E0481B5109610971094E875F87688B27
S1133700798B90912E31981710F480932E31FBE031
S11337108F9FC0011124B801845A9E4C0E943A1113
S1133720DF91CF911F910F910895052E97FB1EF401
S113373000940E94AC1B57FD07D00E94B41B07FCE9
S113374003D04EF40C94AC1B5095409530952195C4
S11337503F4F4F4F5F4F08959095809570956195B9
S11337607F4F8F4F9F4F0895A1E21A2EAA1BBB1BB8
S1133770FD010DC0AA1FBB1FEE1FFF1FA217B30739
S1133780E407F50720F0A21BB30BE40BF50B661F4F
S1133790771F881F991F1A9469F760957095809513
S11337A090959B01AC01BD01CF010895FB01DC01A3
S11337B002C001900D9241505040D8F70895DC01A9
S11337C001C06D9341505040E0F70895FB01DC01C6
S11337D04150504048F001900D920020C9F701C0BB
S11337E01D9241505040E0F70895BB274A3031F410
S11337F0992322F4BDE2909581959F4F0C94391C36
S11338002532310520F4223010F00C940B1CFA01FF
S11338101082CA010895BB27FA01A62F6217710509
S113382081059105330B30FB66F0AA27660F771FDD
S1133830881F991FAA1FA21710F0A21B6395385066
S1133840A9F7A05DAA3308F0A95DA19336F7B111D9
S1133850B1931082CA010C94521C4532510520F4D4
S1133860423010F00C94381CFB011082CB010895F7
S1133870BB27FB015527AA27880F991FAA1FA41746
S113388010F0A41B83955051B9F7A05DAA3308F03A
S1133890A95DA193009779F7B111B1931192CB016E
S11338A00C94521CDC01FC01672F71917723E1F722
S11338B0329704C07C916D9370836291AE17BF07F9
S11338C0C8F30895DB018F939F930E948F1CBF91CF
S11338D0AF91A29F800D911DA39F900DB29F900D5B
S11338E01124089597FB072E16F4009407D077FD52
S11338F009D00E949A1C07FC05D03EF4909581954E
S11339009F4F0895709561957F4F0895EE0FFF1FA7
S1133910881F8BBF0790F691E02D1BBE19940E945F
S1133920AE1CA59F900DB49F900DA49F800D911D7A
S113393011240895AA1BBB1B51E107C0AA1FBB1F7A
S1133940A617B70710F0A61BB70B881F991F5A9527
S1133950A9F780959095BC01CD010895A29FB0016F
S1133960B39FC001A39F700D811D1124911DB29FAF
S1113970700D811D1124911D0895F894FFCF50
S113397EFF0FFFFFFFFF00000000DC024005000008
S113398E0000DA023A0B010B140BD402F80A000001
S113399E00002D064005000000001F094005000030
S11339AE0000B6084005000000008709400500002D
S11339BE00009408400500000000FD0840050000CA
S11339CE0000DA02DC02D502D702D402D3020000D0
S11339DE0000DA0222051705F904D402D302456E5B
S11339EE636F6465722050756C7365733A20006C56
S11339FE696E656172506F736974696F6E3A2000F7
S1133A0E205B6D6D5D004672656552544F532058B0
S1133A1E6D6567612054657374696E672050726FAB
S1133A2E6772616D0055736572496E74004C6566FC
S1133A3E745377005269676874537700456E635008
S1133A4E656E00456E634D747200537973437472E0
S1113A5E6C004D7472436D640049444C450085
S9030000FC
