S01600004652454552544F535F5348454C4C2E73726563CD
S11300000C949B020C94D1020C94D1020C94D10256
S11300100C94D1020C94D1020C94D1020C94D10210
S11300200C94D1020C94D1020C94D1020C94D10200
S11300300C94D1020C94D1020C94D1020C94D102F0
S11300400C94D1020C94D1020C94D1020C94D102E0
S11300500C94D1020C94D1020C94D1020C94D102D0
S11300600C94D1020C94920C0C94D1020C94D102F5
S11300700C94340C0C94D1020C94D1020C94D10243
S11300800C94D1020C94D1020C94D1020C94D102A0
S11300900C94D1020C94D1020C94D1020C94D10290
S11300A00C94D1020C94D1020C94D1020C94D10280
S11300B00C94D1020C94D1020C94D1020C94D10270
S11300C00C94D1020C9489120C94D1020C94D10298
S11300D00C94D1020C94D1020C94D1020C94D10250
S11300E00C94D1020C94D1020C941A0B0C94D102EE
S11300F00C94D1020C94D1020C94D1020C94D10230
S11301000C94D1020C94D1020C94D1020C94D1021F
S11301100C94D1020C94D1020C94D1020C94D1020F
S11301200C94D1020C94D1020C94D1020C94D102FF
S11301300C94D1020C94D1020C94D1020C94D102EF
S11301400C94D1020C94D1020C94D1020C94D102DF
S11301500C94D1020C94D1020C94D1020C94D102CF
S11301600C94D60B0C94D1020C94D1020C94780B01
S11301700C94D1020C94D1020C94D1020C94D102AF
S11301800C94D1020C94D1020C94D1020C94D1029F
S11301900C94D1020C94D1020C94D1020C94D1028F
S11301A00C94D1020C94D1020C94D1020C94D1027F
S11301B00C94D1020C94D1020C94D1020C94D1026F
S11301C00C94D1020C94D1020C94D1020C94D1025F
S11301D00C94D1020C94D1020C94D1020C94D1024F
S11301E00C94D1020C94D1020C94D1020C94D1023F
S11301F00C94D1020C94D1020C94D10248034B0309
S11302004E0351035403570359036A0372037C03D7
S11302107A030C94B20A0C940D150C944B030C94B1
S11302206A030C94B7030C94BB030C9472030C94F0
S1130230F60A0C9448030C944E030C9407080C948F
S1130240EF020C94F8070C94B8030C94F1060C9488
S1130250D40A0C9457030C94DC020C9454030C94AD
S113026015030C9451030C94B9030C94900A0C9448
S1130270C0030C94BE030C94FC060C9459030C9418
S11302807A030C947C030C94060F0C946E0A0C9461
S1130290D3060C941A070C94D3020909002F0049C1
S11302A0444C45090930092D0900092D2D2D2D0037
S11302B0092D2D2D2D2D2D2D2D2D2D002D2D2D2DBB
S11302C009092D2D2D2D092D2D2D2D2D00095275AA
S11302D06E730009467265652F546F74616C004E2D
S11302E0616D6509095072692E0953746174650062
S11302F009537461636B005461736B09092020090D
S113030020002C20544343304343413D002F002C14
S1130310204865617020667265653A200054696DF5
S1130320653A200046656220323220323032350090
S11303304D45343035206261736520726164696FA4
S11303402070726F6772616D2056302E3420001B4E
S11303505B32326D005461736B3A2049444C450062
S11303601B5B316D00496C6C6567616C2073746153
S113037074652120526573657474696E67204156F3
S113038052003A5754463F004578697420636F6DB4
S11303906D616E64206D6F6465005265736574747D
S11303A0696E67204156520050726573732043741E
S11303B0726C2D4120666F7220636F6D6D616E6487
S11303C0206D6F64650020202020683A202020489A
S11303D0414C50210020202020653A2020204578DF
S11303E0697420636F6D6D616E64206D6F64650068
S11303F020202020733A202020537461636B2064F2
S1130400756D7020666F72207461736B73002020A9
S11304102020763A20202056657273696F6E206121
S11304206E6420736574757020696E666F726D6199
S113043074696F6E00202020206E3A2020205368BB
S11304406F77207468652074696D652072696768C8
S113045074206E6F77002020496E20636F6D6D618C
S11304606E64206D6F6465206F6E6C793A00202095
S113047043746C2D413A20456E74657220636F6D30
S11304806D616E64206D6F646500202043746C2D73
S1130490433A20526573657420746865204156524E
S11304A0002068656C70004D4534303520626173FE
S11304B06520726164696F2070726F6772616D206C
S11304C056302E3420001B5B33306D001B5B3436FA
S11304D06D004552524F52206372656174696E67B4
S11304E0207461736B20002C20737461636B206132
S11304F0742030780020637265617465640054610F
S1130500736B20001B5B32326D005461736B3A20B5
S1130510001B5B316D00090009002F000900090070
S11305201B5B32326D001B5B316D001B5B316D0058
S113053020200000F60A11241FBECFEFCDBFDFE359
S1130540DEBF00E00CBF18BE19BE1ABE1BBE10E20F
S1130550A0E0B0E2E6E9F7E300E00BBF02C00790D9
S11305600D92A63CB107D9F71BBE21E3A6ECB0E27D
S113057001C01D92A836B207E1F712E0CBE9D2E040
S113058000E006C021970109802FFE010E94A61BEE
S1130590CA39D10780E00807A9F70E94B70D0C9467
S11305A0C91B0C940000DC01ED91FC910280F381E5
S11305B0E02D6CE019950895CF93DF93EC01A98D9C
S11305C0BA8DEB8DFC8D81E04D915C912081318160
S11305D04217530709F480E0DF91CF910895CF9338
S11305E0DF93FC01C18DD28D28813981A38DB48D17
S11305F04D915C9124173507E9F3A789B08D0D90CF
S1130600BC91A02DA20FB31F8C912F5F3F4F288365
S113061039832436310528F0018CF28DE02D1082C7
S1130620118290E0DF91CF910895DC015096ED9115
S1130630FC915197808154964C915497842329F0CE
S113064009C02150310919F412C021E23EE490811D
S11306509423B9F3908156968C915697892B808375
S11306601E96ED91FC911F97608381E0089580E0D0
S11306700895CF93DF93EC01862F90E08B309105A2
S1130680D8F5FC018827E250FF4F8F4F0C94A61B2E
S113069082E08A8331C088E08A832EC08AE08A831C
S11306A02BC080E18A8328C081E08B8325C01B8214
S11306B023C0E881F9810280F381E02D6DE0CE0151
S11306C01995E881F9810280F381E02D6AE0CE0179
S11306D0199512C0E881F9810284F385E02DCE01D9
S11306E019950AC0E881F9810084F185E02DCE01D5
S11306F0199502C081E08C83CE01DF91CF910895DA
S11307000F931F93CF93DF938C01FB01DC011496AD
S11307108C91811104C06081611117C023C0D8017C
S113072014961C92EB01219664916623D9F0D801AA
S1130730ED91FC910280F381E02DC8011995FE0131
S1130740649121966111F3CF0DC0EF012196D80178
S1130750ED91FC910280F381E02DC8011995699116
S11307606111F5CFDF91CF911F910F9108950895F5
S1130770089580E0089580E090E0089581E0089570
S113078008950F931F93CF93DF93EC018B01E881BE
S1130790F9810280F381E02D199566E0C8010E9479
S11307A039038C819D81009719F0B8010E94C1031F
S11307B0DF91CF911F910F9108950F931F93CF93C2
S11307C0DF93EC016AE08E819F810E9439038C01E2
S11307D06CEC74E00E9480036AE0C8010E94390353
S11307E08C0166EC74E00E94800367E0C8010E94FB
S11307F039036AE08E819F810E9439038C0167EA84
S113080074E00E9480036AE0C8010E9439038C01ED
S113081061EA74E00E94800366E0C8010E94390323
S11308206AE08E819F810E9439038C016AE874E03A
S11308300E94800366E0C8010E9439036AE08E8149
S11308409F810E9439038C016EE674E00E9480034C
S113085066E0C8010E9439036AE08E819F810E948C
S113086039038C0166E574E00E94800366E0C801E8
S11308700E9439036AE08E819F810E9439038C01B2
S113088065E374E00E94800366E0C8010E943903B6
S11308906AE08E819F810E9439038C016EE074E0CE
S11308A00E94800366E0C8010E9439036AE08E81D9
S11308B09F810E9439038C0160EF73E00E948003E2
S11308C066E0C8010E9439036AE08E819F810E941C
S11308D039038C0165ED73E00E94800366E0C80172
S11308E00E9439036AE08E819F810E943903EC01E2
S11308F066EC73E00E94800366E0CE010E94390337
S1130900DF91CF911F910F910895CF92DF92EF92D3
S1130910FF920F931F93CF93DF93CDB7DEB7299741
S1130920CDBFDEBF8C01E62EDC0113968C911397AC
S1130930882341F0ED91FC910280F381E02DC80100
S1130940199556C0F8014281423019F56894CC24B7
S1130950C3F8D12C6894FF24F7F88E2D8F2151F021
S1130960D801ED91FC910280F381E02D61E3C8018F
S1130970199509C0D801ED91FC910280F381E02D15
S113098060E3C8011995F694B1E0CB1AD10829F7B0
S11309902FC04031F9F462956F700190F081E02D21
S11309A00280F381E02D6A3010F0695C01C0605D63
S11309B0C80119956E2D6F70D801ED91FC910280DC
S11309C0F381E02D6A3010F0695C01C0605DC801FC
S11309D019950EC050E0BE016F5F7F4F8E2D90E0E1
S11309E00E94611BBE016F5F7F4FC8010E9480039C
S11309F0C8012996CDBFDEBFDF91CF911F910F9122
S1130A00FF90EF90DF90CF900895FF920F931F9384
S1130A10CF93DF93CDB7DEB76197CDBFDEBF8C0137
S1130A20F62E972FF8014281403121F0483011F021
S1130A30423041F4692FC8010E9485046F2D0E9441
S1130A4085040DC050E0BE016F5F7F4F8F2D0E9463
S1130A50611BBE016F5F7F4FC8010E948003C80104
S1130A606196CDBFDEBFDF91CF911F910F91FF90B3
S1130A7008955F926F927F928F929F92AF92BF92EE
S1130A80CF92DF92EF92FF920F931F93CF93DF9356
S1130A905C013B014A01122F502E63E0CA010E94FF
S1130AA03903A614B70408F07CC0650184E1C80EBC
S1130AB0D11C00E07501B501C4010E9405056AE07E
S1130AC00E94390360E375E00E948003112309F456
S1130AD06DC0002309F46AC06AE0C4010E943903AE
S1130AE06BE275E00E94800361C0112371F0011173
S1130AF00CC08881851549F06AE0C4010E9439035D
S1130B0066E275E00E94800301E06991C4010E94DD
S1130B108504DC01ED91FC910280F381E02D60E21B
S1130B201995CC16DD0609F7112389F06AE0C40192
S1130B300E943903EC0160E275E00E948003E881C1
S1130B40F9810280F381E02D60E2CE011995F7016D
S1130B5061917F0180EE860F8F3548F4D401ED91C9
S1130B60FC910280F381E02DC401199509C0D401E0
S1130B70ED91FC910280F381E02D6EE2C4011995A0
S1130B80CE14DF0421F7B4E1AB0EB11C66E0C4015E
S1130B900E943903E4E1CE0ED11CA614B70408F474
S1130BA089CF62E0C4010E94390302C0E7019DCFEE
S1130BB0DF91CF911F910F91FF90EF90DF90CF9035
S1130BC0BF90AF909F908F907F906F905F900895AB
S1130BD0DF92EF92FF920F931F93CF93DF93CDB7E2
S1130BE0DEB7A197CDBFDEBF8C01D42EE52EF62E45
S1130BF0972FF8012281203121F0283011F0223082
S1130C0071F4692FC8010E9485046F2D0E94850428
S1130C106E2D0E9485046D2D0E9485040FC030E066
S1130C20AE014F5F5F4F6D2D7E2D8F2D0E94341BC3
S1130C30BE016F5F7F4FC8010E948003C801A19667
S1130C40CDBFDEBFDF91CF911F910F91FF90EF9049
S1130C50DF900895CF93DF93EC010FB6F8940F92D1
S1130C6080912008909121088C839D830E94AC166A
S1130C70688379838A839B830F900FBECE01DF91B3
S1130C80CF9108958F929F92AF92BF92EF92FF926D
S1130C900F931F93CF93DF93CDB7DEB72F97CDBFBD
S1130CA0DEBF8C017B01DB016D917D918D919C9167
S1130CB00F2EF8EE8F2EF3E09F2EA12CB12CF02DE9
S1130CC0A50194010E94F31ABA01A901C8010E9466
S1130CD0E805D801ED91FC910280F381E02D6EE2EC
S1130CE0C8011995F7016081718182819381A50101
S1130CF094010E94F31A9B01AC0160E472E48FE05A
S1130D0090E00E94961BA50194010E94F31A4901E8
S1130D105A01F701A481B58120E432E44FE050E0A8
S1130D200E94AF1B20E038E448EE51E00E94F31A21
S1130D30C501B401620F731F841F951F7E01F7E084
S1130D40EF0EF11C9E012F5F3F4F59012AE030E066
S1130D5040E050E00E94D41AE62F288739874A875A
S1130D605B87688579858A859B8520E32E0FD7016B
S1130D702E937D01AA15BB0549F71F82BE016F5F43
S1130D807F4FC8010E948003C8012F96CDBFDEBFEC
S1130D90DF91CF911F910F91FF90EF90BF90AF9093
S1130DA09F908F9008950F93CF93DF931F92CDB7A9
S1130DB0DEB700E02FEF3FEFA901BE016F5F7F4F69
S1130DC0FC01808591850E944114813019F4898148
S1130DD090E002C08FEF9FEF0F90DF91CF910F91C2
S1130DE00895FC01808591850E94051591E081118B
S1130DF001C090E0892F08950F93CF93DF931F9242
S1130E00CDB7DEB76983FC012285338544855585DA
S1130E1000E0BE016F5F7F4F808591850E94A6131D
S1130E2091E0811101C090E0892F0F90DF91CF9163
S1130E300F9108958F929F92AF92BF92CF92DF92BB
S1130E40EF92FF920F931F93CF93DF93EC018B01EB
S1130E508A819B810E94BA16BC01C8010E9480034A
S1130E60D801ED91FC910280F381E02D69E0C80185
S1130E7019958A819B810E94BA16FC010190002079
S1130E80E9F73197E81BF90B389748F4D801ED914D
S1130E90FC910280F381E02D69E0C8011995CE84AC
S1130EA0DF84E888F988A884B9848A819B810E94B8
S1130EB02D1A982E8C848A819B810E946516682F36
S1130EC0C8010E9485046AE00E943903EC016EE1C6
S1130ED075E00E948003682DCE010E9485046AE0BB
S1130EE00E943903EC016CE175E00E948003692DD6
S1130EF0CE010E9485046AE00E943903EC016AE194
S1130F0075E00E948003B501CE010E9405056AE0E8
S1130F100E943903EC0168E175E00E9480036AE0F5
S1130F20CE010E943903EC0166E175E00E94800362
S1130F30B701A601CE010E94E805DF91CF911F9170
S1130F400F91FF90EF90DF90CF90BF90AF909F9064
S1130F508F900895CF92DF92EF92FF920F931F9399
S1130F60CF93DF93EC017B018A819B810E94BA16A7
S1130F706C016AE0C7010E9439038C0161E175E0EC
S1130F800E9480036AE0C8010E9439038C016AE070
S1130F9075E00E948003B601C8010E9480036AE0E4
S1130FA0C8010E9439038C0164E075E00E9480034B
S1130FB066E0C8010E9439038A859B85E885F98526
S1130FC001E121E0A701BC018E1B9F0B0E943905A2
S1130FD08C819D81009719F0B7010E94AA07DF91C7
S1130FE0CF911F910F91FF90EF90DF90CF900895D4
S1130FF0EC01E881F9810190F081E02D19951A82C4
S11310001B826FEF7FEFCB010E94B718FACFCF930B
S1131010DF93CDB7DEB72C97CDBFDEBF7C0119823D
S11310201A821B821C821D821E826AE0DC011696D3
S11310308D919C9117970E9439036C0168EA73E0C3
S11310400E94800366E0C6010E94390311E0812CEE
S11310506894992493F80F2EFCECAF2EF0E2BF2E87
S1131060F02DF7018485882321F0813009F460C0D4
S113107006C286819781DC01ED91FC910480F581A3
S1131080E02D1995882309F437C0F70186819781EB
S1131090DC01ED91FC910680F781E02D19959927EB
S11310A081309105F9F0039709F005C26AE0F70170
S11310B0868197810E9439037C016AE973E00E946A
S11310C0800366E0C7010E94390393E088ED08B607
S11310D018BE84BF909380008091820081FDFCCF74
S11310E008BEFFCFC7010E94DD03D7011C961C93E5
S11310F01C971D961C93DFC18CEE90E20E94F106B2
S1131100882309F4D8C1D7011696ED91FC9117975D
S11311100190F081E02DC280D3808CEE90E20E9499
S1131120D306682FF70186819781F6011995C3C10B
S113113086819781DC01ED91FC910480F581E02D9D
S11311401995882309F4B7C1F70186819781DC01D9
S1131150ED91FC910680F781E02D19959C013327D0
S11311602836310509F454C14CF42B31310509F406
S113117053C12536310509F44FC163C12337310505
S113118009F40CC12637310591F02E36310509F0EA
S113119058C1CE0101960E942A06BC01F70186813E
S11311A097810E94420666E00E94390384C11F822F
S11311B0188619861A861B861C860E945F103C01BD
S11311C0CE0107960E942A062C0166E0D7011696E6
S11311D08D919C9117970E9439036AE00E9439030C
S11311E06C0160E373E00E9480036AE0C6010E9420
S11311F039036C0164E273E00E94800366E0C60177
S11312000E9439036AE00E9439036C016DE173E0C6
S11312100E948003B201C6010E9442066AE00E9455
S113122039036C016FE073E00E948003B301C601CF
S11312300E9405056AE00E9439036C016DE073E0C9
S11312400E9480034FEF5FE060E070E0C6010E94FF
S1131250E805F40160A471A46AE0D70116968D91A3
S11312609C9117970E9439036C0162E073E00E941D
S11312708003B301C6010E94050566E00E9439039C
S113128066E00E943903F701C680D7806AE0C60190
S11312900E9439033C0167EF72E00E9480036AE018
S11312A0C3010E9439033C0160EF72E00E94800395
S11312B066E0C3010E9439036AE0C6010E94390353
S11312C03C016FED72E00E9480036AE0C3010E945A
S11312D039033C0163ED72E00E9480036AE0C301BC
S11312E00E9439033C016DEC72E00E94800366E0C9
S11312F0C3010E9439036AE0C6010E9439033C011C
S11313006CEB72E00E9480036AE0C3010E9439031F
S11313103C0160EB72E00E9480036AE0C3010E941A
S113132039033C016AEA72E00E94800366E0C3016B
S11313300E943903D5018D919C91009719F0B60153
S11313400E94C1030E94C2160E942D1A082F6AE04F
S1131350C6010E9439036C016FE972E00E948003A8
S1131360602FC6010E9485046AE00E9439036C0163
S11313706DE972E00E94800364E670E0C6010E9499
S113138005056AE00E9439036C016AE972E00E9473
S1131390800366E0C6010E9439038DC0F701C68050
S11313A0D7808091CC209091CD20009719F0B60180
S11313B00E94AA076AE0C6010E9439033C0160E664
S11313C073E00E9480036AE0C3010E9439033C0178
S11313D065E573E00E9480036AE0C3010E9439035B
S11313E03C016FE473E00E94800366E0C3010E9445
S11313F039038091663190916731BC016F5F7F4FF3
S113140001E1212FA601835691090E94390553C099
S1131410C7010E94DD034FC06AE0D70116968D9183
S11314209C9117970E9439036C0168E873E00E944D
S1131430800366E0C6010E943903F701148615860D
S11314403AC0F701A681B781ED91FC911197028012
S1131450F381E02D682FCD0119956AE0D701169626
S11314608D919C9117970E9439036C0162E873E097
S11314700E94800366E0C6010E9439031CC06AE032
S1131480F701868197810E9439037C0165E673E048
S11314900E94800366E0C7010E94390393E088ED4F
S11314A008B618BE84BF909380008091820081FDAD
S11314B0FCCF08BEFFCFF70186859785A089B18947
S11314C00196A11DB11D86879787A08BB18B61E022
S11314D070E080E090E00E94B718C3CDCF93DF9313
S11314E000D01F92CDB7DEB78C010E94AC16698381
S11314F07A838B839C83F80186859785A089B1893B
S11315000196A11DB11D86879787A08BB18B41E001
S113151050E060E070E0CE0101960E944A18EBCFE3
S1131520CF93DF9300D01F92CDB7DEB78C010E941A
S1131530AC1669837A838B839C83F80186859785AF
S1131540A089B1890196A11DB11D86879787A08BBB
S1131550B18B41E050E060E070E0CE0101960E9462
S11315604A18EBCFCF93DF9300D01F92CDB7DEB7ED
S11315708C010E94AC1669837A838B839C83F80167
S113158086859785A089B1890196A11DB11D86879D
S11315909787A08BB18B41E050E060E070E0CE0112
S11315A001960E944A18EBCFCF93DF9300D01F928D
S11315B0CDB7DEB78C010E94AC1669837A838B8326
S11315C09C83F80186859785A089B1890196A11D20
S11315D0B11D86879787A08BB18B41E050E060E016
S11315E070E0CE0101960E944A18EBCFCF93DF93AF
S11315F0CCEED0E28AE08A831B8283E08D831C8256
S11316001E821F828AE590E2888399831E861F8644
S113161040E061E080E20E947813888799878AE03D
S113162090E0A0E0B0E08A879B87AC87BD87DF911C
S1131630CF9108951F920F920FB60F92112408B6FE
S11316400F9218BE0BB60F921BBE2F933F938F932E
S11316509F93EF93FF932091A00AE091D220F09101
S1131660D3208091CE209091CF20E80FF91F2083C2
S11316708091CE209091CF2001968436910560F41C
S11316808093CE209093CF202091D0203091D120F0
S113169082179307F1F40CC01092CE201092CF2041
S11316A08091D0209091D1201816190691F40EC083
S11316B001968436910528F48093D0209093D1200C
S11316C008C01092D0201092D12003C081E090E095
S11316D0F3CFFF91EF919F918F913F912F910F90B5
S11316E00BBE0F9008BE0F900FBE0F901F90189561
S11316F01F920F920FB60F92112408B60F9218BEC4
S11317000BB60F921BBE2F933F938F939F93EF9330
S1131710FF932091B009E091D820F091D9208091D5
S1131720D4209091D520E80FF91F20838091D420F4
S11317309091D52001968436910560F48093D4204D
S11317409093D5202091D6203091D72082179307EB
S1131750F1F40CC01092D4201092D5208091D620A0
S11317609091D7201816190691F40EC0019684366C
S1131770910528F48093D6209093D72008C0109226
S1131780D6201092D72003C081E090E0F3CFFF91E0
S1131790EF919F918F913F912F910F900BBE0F90DE
S11317A008BE0F900FBE0F901F9018951F920F92B6
S11317B00FB60F92112408B60F9218BE0BB60F92F3
S11317C01BBE2F933F938F939F93EF93FF9320918F
S11317D0A009E091DE20F091DF208091E620909135
S11317E0E720E80FF91F20838091DA209091DB2015
S11317F001968436910560F48093DA209093DB207F
S11318002091DC203091DD2082179307F1F40CC085
S11318101092DA201092DB208091DC209091DD2060
S11318201816190691F40EC001968436910528F411
S11318308093DC209093DD2008C01092DC2010926D
S1131840DD2003C081E090E0F3CFFF91EF919F9101
S11318508F913F912F910F900BBE0F9008BE0F9068
S11318600FBE0F901F9018951F920F920FB60F92F4
S1131870112408B60F9218BE0BB60F921BBE2F93FD
S11318803F938F939F93EF93FF932091B008E09140
S1131890E420F091E5208091E0209091E120E80F90
S11318A0F91F20838091E0209091E12001968436F5
S11318B0910560F48093E0209093E1202091E22050
S11318C03091E32082179307F1F40CC01092E020CA
S11318D01092E1208091E2209091E32018161906DD
S11318E091F40EC001968436910528F48093E22089
S11318F09093E32008C01092E2201092E32003C0EA
S113190081E090E0F3CFFF91EF919F918F913F9110
S11319102F910F900BBE0F9008BE0F900FBE0F902B
S11319201F9018951F920F920FB60F92112408B6AC
S11319300F9218BE0BB60F921BBE2F933F938F933B
S11319409F93EF93FF932091A008E091EA20F091F8
S1131950EB208091E6209091E720E80FF91F208387
S11319608091E6209091E72001968436910560F4F9
S11319708093E6209093E7202091E8203091E9209D
S113198082179307F1F40CC01092E6201092E7201E
S11319908091E8209091E9201816190691F40EC060
S11319A001968436910528F48093E8209093E920E9
S11319B008C01092E8201092E92003C081E090E072
S11319C0F3CFFF91EF919F918F913F912F910F90C2
S11319D00BBE0F9008BE0F900FBE0F901F9018956E
S11319E04F925F926F927F928F929F92AF92BF922B
S11319F0CF92DF92EF92FF920F931F93CF93DF93D7
S1131A00CDB7DEB72A97CDBFDEBF4C01290138011F
S1131A108AE090E2F40180839183FB018081882332
S1131A2069F0DE011196319690E002C0993039F0E8
S1131A309F5F8D9381918111F9CF01C090E0E1E026
S1131A40F0E0EC0FFD1FE90FF11D10827401F2E0CC
S1131A50EF0EF11CA12CB12CC12CD12C042F94011C
S1131A60A201BE016F5F7F4F88EF97E00E9463156C
S1131A70F40166827782408651862091CC20309191
S1131A80CD20248335838092CC209092CD2014865F
S1131A9015864090663150906731FFEF4F1A5F0A08
S1131AA04092663150926731F4014286538616861D
S1131AB01786108A118A6114710409F444C08130B4
S1131AC079F56AE0C3010E9439037C016EEF74E08A
S1131AD00E948003BE016F5F7F4FC7010E94800395
S1131AE06AE0C7010E9439037C0165EF74E00E943B
S1131AF080036AE0C7010E9439037C0167EE74E049
S1131B000E94800363E0C7010E943903B2010E946E
S1131B10050562E00E94390366E00E94390313C0A0
S1131B206AE0C3010E9439034C0162ED74E00E9433
S1131B308003BE016F5F7F4FC4010E94800366E093
S1131B40C4010E9439032A96CDBFDEBFDF91CF9135
S1131B501F910F91FF90EF90DF90CF90BF90AF90C7
S1131B609F908F907F906F905F904F900895CF9249
S1131B70DF92EF92FF920F931F93CF93DF93CDB732
S1131B80DEB76E97CDBFDEBFE0E6F6E080E181838D
S1131B908583F894E0E5F0E0808182608083818130
S1131BA081FFFDCF809140009FB79E8FF8941BBEAC
S1131BB0887F816020E430E0F90108ED04BF808370
S1131BC08E8D8FBFE0E5F0E080818E7F80839DEF76
S1131BD088ED08B618BE84BF9093800008BE8AE4DE
S1131BE090E289839A838AE08B831C8243E04E834C
S1131BF01D821F821886A0E4B6E0AB87BC8786E00E
S1131C008D870F2EF7E0FF2EF02DFE86E0EBF8E037
S1131C10EF87F88B81EB98E0898B9A8B84EB98E0C3
S1131C208B8B9C8B2E8514965C91149781E090E0AD
S1131C30BC0102C0660F771F2A95E2F79B01252B92
S1131C4014962C932E85AB85BC855C91BC0102C097
S1131C50660F771F2A95E2F79B01252B2C933D8570
S1131C60AB85BC852C9102C0880F991F3A95E2F789
S1131C708095909582238C9380E18383458380EFC4
S1131C80878381E2868388E1848380E88E8B80E485
S1131C908F8B80E28D8BEF85F8898081808182E152
S1131CA090E289839A8384EE90E2888F998F82EE02
S1131CB090E28A8F9B8F80EE90E28C8F9D8F84E6DA
S1131CC090E00E94920F8093E4209093E520EA8DA7
S1131CD0FB8D10821182EC8DFD8D1082118267E0E4
S1131CE0CE0101960E9439036C016EE670E20E94F7
S1131CF0800366E0C6010E94390366E00E9439034E
S1131D0082E190E00E94920F6C018E010F5F1F4FE1
S1131D1024E031E040E06DE870E20E94F00C82E2E1
S1131D2090E2F6018083918383E190E00E94920F18
S1131D30EE24E39424E031E044E065E970E20E949B
S1131D407F0F83E190E00E94920F6894EE24E2F802
S1131D5024E031E044E06CE970E20E947F0F82E10C
S1131D6090E00E94920F6C0124E031E044E064EAC8
S1131D7070E20E94F00C8AE290E2F6018083918383
S1131D8082E190E00E94920F6C0124E031E043E094
S1131D906BEA70E20E94F00C82E390E2F601808329
S1131DA0918382E190E00E94920F6C0124E031E083
S1131DB042E062EB70E20E94F00C8AE390E2F601EA
S1131DC08083918382E190E00E94920F6C0124E071
S1131DD031E041E06AEB70E20E94F00C82E490E2B0
S1131DE0F60180839183F092A20078940E94731686
S1131DF080E090E06E96CDBFDEBFDF91CF911F9162
S1131E000F91FF90EF90DF90CF900895CF93DF93E1
S1131E1000D01F92CDB7DEB78C010E94AC16698347
S1131E207A838B839C83E0E6F6E09081D801529616
S1131E308C915297892B8083948152968C915297DE
S1131E40892B848352968C91813061F488E180934C
S1131E5070060F2EF8E6EF2EF6E0FF2EF02DDD24AF
S1131E60D39406C08430A9F788E180937206F1CF39
S1131E70F701808180FD0BC0E091C620F091C7205E
S1131E800FB6F8940F92D0820F900FBE0AC0E09163
S1131E90C620F091C7200FB6F8940F9210820F90CD
S1131EA00FBED7018C9182FD0BC0E091C820F09148
S1131EB0C9200FB6F8940F92D0820F900FBE0AC0BB
S1131EC0E091C820F091C9200FB6F8940F921082C7
S1131ED00F900FBEF80186859785A089B189019678
S1131EE0A11DB11D86879787A08BB18B41E050E07F
S1131EF060E070E0CE0101960E944A18B9CFEF92DB
S1131F000F931F93CF93DF93EC010E94F00C8AE6AA
S1131F1090E288839983EA8ADF91CF911F910F9190
S1131F20EF9008950F931F93CF93DF93EC010E94DA
S1131F30A6168091FC2081111DC0A1E0B1E2E5E06C
S1131F40F1E2ED93FC93119712961D921C92139754
S1131F50ADEFB0E28FEF9FE012968D939C931397B1
S1131F601D921C92119782839383A083B18381E095
S1131F708093FC20209709F45FC09E012B5F3F4FA4
S1131F802496CE3FDF4008F05AC0E0910121F09141
S1131F900221A1E0B1E202C0DF01FC018281938150
S1131FA08217930720F4808191810097A9F7C0E2FA
S1131FB0ED3FFC0709F446C0CD91DC9111978E01E9
S1131FC00B5F1F4F808191818D939C9382819381BC
S1131FD0821B930B8B30910510F1BF01620F731FAD
S1131FE0DB0112968D939C9313972283338312966D
S1131FF04D915C91139781E091E201C0CD01EC0118
S1132000A881B98112962D913C9113972417350715
S1132010A8F3EB01A883B983DC016D937C938091D1
S113202000209091012022813381821B930B8093A5
S113203000209093012008C000E010E005C000E0FB
S113204010E002C000E010E00E94C817C801DF9150
S1132050CF911F910F9108950F931F93CF93DF9307
S1132060009741F1EC018C01055011090E94A6165C
S1132070F80142815381A1E0B1E201C0DF01ED9199
S1132080FC9111972281338124173507B8F32597E2
S1132090E883F9830D931C93209100203091012053
S11320A08A819B81820F931F80930020909301204B
S11320B00E94C817DF91CF911F910F9108958091CD
S11320C00020909101200895FC010396818392835E
S11320D04FEF5FEFBA01438354836583768387832D
S11320E090878187928710820895FC011286138657
S11320F00895CF93DF93FC01DB0121813281E90153
S11321008C819D8114968D939C93159781819281E6
S113211016968D939C9317978C819D81EC016E8309
S11321207F83E9016C837D83618372831A96ED93C7
S1132130FC931B9780818F5F8083DF91CF910895FB
S11321400F931F93CF93DF93EB01088119812A81A9
S11321503B810F3F4FEF14072407340731F4DC01B0
S11321601996ED91FC911A971FC0FC013396DC017E
S113217017964D915C911897DA014D915D916D918F
S11321807C91041715072607370770F00480F58142
S1132190E02DA481B5814D915D916D917C910417E1
S11321A015072607370790F7A481B581AC83BD8353
S11321B01696CD93DC931797EE83FF83C483D58360
S11321C08A879B87FC0120812F5F2083DF91CF9139
S11321D01F910F910895FC01A481B5818681978197
S11321E016968D939C931797A681B78184819581C8
S11321F014968D939C931597A285B38511968D9112
S11322009C911297E817F90731F48681978111960A
S11322108D939C931297128613868C9181508C9384
S11322200895809366319093673131E1FC013083E6
S1132230319722E220833197A3E3A083319760830F
S1132240319770833197108231971082319760E80B
S113225060833197108231971082319710823197C1
S113226062E06083319763E06083319764E0608368
S1132270319765E06083319766E06083319767E06A
S11322806083319768E06083319769E060833197B8
S113229060E1608331973083319732E13083319745
S11322A033E13083319734E13083319735E1308342
S11322B0319736E13083319737E13083319738E114
S11322C03083319739E13083319730E2308331976D
S11322D031E2308331972083319723E22083319791
S11322E0408331975083319726E22083319727E248
S11322F02083319728E22083319729E22083319784
S113230020E32083319721E32083899708958CE784
S11323108093290A8FEF8093280A81E08093000A32
S113232091E19093010A8093070AA0916431B091DE
S11323306531CD91CDBFDD91DEBFFF91EF91DF918E
S1132340CF91BF91AF919F918F917F916F915F9149
S11323504F913F912F911F910F91FF90EF90DF903C
S1132360CF90BF90AF909F908F907F906F905F9031
S11323704F903F902F901F900F900CBE0F900BBE6C
S11323800F900FBE0F90089508950F920FB6F89412
S11323900F920BB60F920CB60F921F9211242F922C
S11323A03F924F925F926F927F928F929F92AF92E1
S11323B0BF92CF92DF92EF92FF920F931F932F93CE
S11323C03F934F935F936F937F938F939F93AF93B9
S11323D0BF93CF93DF93EF93FF93A0916431B091B8
S11323E065310DB60D920EB60D920E94E518A091BE
S11323F06431B0916531CD91CDBFDD91DEBFFF91E8
S1132400EF91DF91CF91BF91AF919F918F917F9188
S11324106F915F914F913F912F911F910F91FF9079
S1132420EF90DF90CF90BF90AF909F908F907F9070
S11324306F905F904F903F902F901F900F900CBE25
S11324400F900BBE0F900FBE0F9008950F920FB612
S1132450F8940F920BB60F920CB60F921F921124A0
S11324602F923F924F925F926F927F928F929F92A0
S1132470AF92BF92CF92DF92EF92FF920F931F938E
S11324802F933F934F935F936F937F938F939F9378
S1132490AF93BF93CF93DF93EF93FF93A0916431F6
S11324A0B09165310DB60D920EB60D920E94C7160D
S11324B00E94E518A0916431B0916531CD91CDBFF2
S11324C0DD91DEBFFF91EF91DF91CF91BF91AF918D
S11324D09F918F917F916F915F914F913F912F9138
S11324E01F910F91FF90EF90DF90CF90BF90AF902E
S11324F09F908F907F906F905F904F903F902F9020
S11325001F900F900CBE0F900BBE0F900FBE0F903C
S113251008950E9426121895CF93DF93EC0188A1A9
S113252081110BC088819981892BE1F58A819B8176
S11325300E94A01A1A821B8235C0411117C0482F6D
S113254050E08C819D810E94151B28A18C819D8166
S1132550820F911D8C839D832A813B81821793076F
S113256008F1888199818C839D831CC0482F50E099
S11325708E819F810E94151B88A190E09195819581
S113258091092E813F81280F391F2E833F83488173
S113259059812417350730F42A813B81820F931F18
S11325A08E839F838E8D8F5F8E8FDF91CF91089561
S11325B0FC01808191810097A1F040A150E0268127
S11325C03781240F351F26833783A281B3812A17CD
S11325D03B0710F086839783CB01668177810E9445
S11325E0151B08950F931F93CF93DF93EC010FB640
S11325F0F8940F928AA11816B4F48B89811105C03E
S113260012C08B89811104C00EC08E010D5E1F4F54
S1132610C8010E946C1981110E94291A8AA1815053
S11326208AA3181674F38FEF8AA30F900FBE0FB608
S1132630F8940F9289A11816B4F48885811105C005
S113264012C08885811104C00EC08E01085F1F4F1F
S1132650C8010E946C1981110E94291A89A1815014
S113266089A3181674F38FEF89A30F900FBEDF911F
S1132670CF911F910F9108951F93CF93DF936130F2
S113268059F0FC012389308531112CC011E021114E
S113269010E0211128C001C011E0EC0148815981EA
S11326A028A130E06F8D629FC001639F900D1124BB
S11326B0BA01680F791F6A837B831E8E4C835D8306
S11326C0821B930B840F951F8E839F838FEF89A3A7
S11326D08AA3CE0108960E946410CE0143960E94FC
S11326E0641001C010E0812FDF91CF911F910895F4
S11326F00F931F93CF93DF93882301F1062F182F95
S113270083E290E00E94920FEC01892BC9F0109FA4
S1132710C001112401960E94920F88839983892B0A
S113272039F01F8F08A361E0CE010E943C1308C05A
S1132730CE010E942C10C0E0D0E002C0C0E0D0E086
S1132740CE01DF91CF911F910F910895AF92BF9267
S1132750CF92DF92EF92FF920F931F93CF93DF9369
S1132760CDB7DEB72997CDBFDEBF7C015B012E83D9
S11327703F834887598710E06C0188E0C80ED11C5C
S11327800FB6F8940F92F701968D878D9817A8F4D9
S1132790402FB501C7010E948C12F7018389882359
S11327A041F0C70143960E946C19813011F40E94D4
S11327B0C5110F900FBE81E056C08E819F81A88500
S11327C0B985892B8A2B8B2B21F40F900FBE80E0C7
S11327D04AC0111105C0CE0101960E94AB1911E047
S11327E00F900FBE0E94A6160FB6F8940F92F70131
S11327F081A18F3F09F411A2F70182A18F3F09F44F
S113280012A20F900FBEBE016A5F7F4FCE010196E8
S11328100E94BC19811121C00FB6F8940F92F701E0
S1132820968D0F900FBE878D981311C04E815F81D6
S113283068857985C6010E944219C7010E94F21277
S11328400E94C81781119CCF0E94C51199CFC7015E
S11328500E94F2120E94C81793CFC7010E94F2127D
S11328600E94C81780E02996CDBFDEBFDF91CF91CB
S11328701F910F91FF90EF90DF90CF90BF90AF909A
S11328800895AF92BF92CF92DF92EF92FF920F938F
S11328901F93CF93DF93CDB7DEB72997CDBFDEBFAC
S11328A07C015B012E833F834887598710E06C01CC
S11328B083E1C80ED11C0FB6F8940F92F701868DF0
S11328C0882399F1C680D780B501C7010E94D81228
S11328D001111AC0F701868D8150868F8081918104
S11328E0892B29F40E94461AF70182839383F70106
S11328F080858823B1F0C70108960E946C19813045
S113290081F40E94C5110DC0F701C682D782838964
S1132910882339F0C70143960E946C1981110E94E3
S1132920C5110F900FBE81E062C08E819F81A88582
S1132930B985892B8A2B8B2B21F40F900FBE80E055
S113294056C0111105C0CE0101960E94AB1911E0C9
S11329500F900FBE0E94A6160FB6F8940F92F701BF
S113296081A18F3F09F411A2F70182A18F3F09F4DD
S113297012A20F900FBEBE016A5F7F4FCE01019677
S11329800E94BC1981112DC00FB6F8940F92F70163
S1132990868D0F900FBE81111EC080819181892B7D
S11329A049F40FB6F8940F92828193810E944B1AD6
S11329B00F900FBE4E815F8168857985C6010E94A4
S11329C04219C7010E94F2120E94C817811173CFE5
S11329D00E94C51170CFC7010E94F2120E94C8174D
S11329E06ACFC7010E94F2120E94C81780E029969C
S11329F0CDBFDEBFDF91CF911F910F91FF90EF907C
S1132A00DF90CF90BF90AF9008950FB6F8940F92D7
S1132A10FC01868D0F900FBE0895C8E3D1E3888131
S1132A208230E8F30E94C511FACFCF92DF92EF9281
S1132A30FF926B017C01E0916431F0916531628316
S1132A4073838483958380910C3190910D31A0918F
S1132A500E31B0910F31C816D906EA06FB0668F4A8
S1132A60609164317091653180911E3190911F3174
S1132A706E5F7F4F0E94A01021C0609164317091FD
S1132A80653180912031909121316E5F7F4F0E949A
S1132A90A0108091022090910320A0910420B09175
S1132AA00520C816D906EA06FB0640F4C0920220A7
S1132AB0D0920320E0920420F0920520FF90EF9042
S1132AC0DF90CF9008954F925F926F927F928F9292
S1132AD09F92AF92BF92CF92DF92EF92FF920F93A9
S1132AE01F93CF93DF935C014B013A01290188E2E4
S1132AF090E00E94920FEC01892B09F4D4C0C11418
S1132B00D10409F0CCC0C3010E94920F8B8F9C8F1B
S1132B10009721F4CE010E942C10C5C0A30161E1ED
S1132B2070E00E941E1B9301215031098B8D9C8DF6
S1132B303C01620E731E4AE050E0B401CE014D9692
S1132B400E94251B1EA2102F043008F013E01A8FD8
S1132B501FA36E0122E0C20ED11CC6010E94751093
S1132B60CE010E960E947510CA87DB8784E090E040
S1132B70A0E0B0E0811B9109A109B1098E879F876C
S1132B80A88BB98BCE8BDF8BA201B501C3010E9448
S1132B90111188839983E114F10419F0F701C083BA
S1132BA0D1830FB6F8940F92809110318F5F809388
S1132BB010318091643190916531892B89F5C093EE
S1132BC06431D0936531809110318130C1F588E34F
S1132BD091E30E94641083E491E30E9464108EE404
S1132BE091E30E94641089E591E30E9464108DE2F0
S1132BF091E30E94641082E291E30E94641083E1F5
S1132C0091E30E9464108DE291E3809320319093CC
S1132C10213182E291E380931E3190931F310FC0E2
S1132C208091093181110BC0E0916431F0916531DB
S1132C30828D081720F0C0936431D09365318A8D5A
S1132C4090910B31981710F480930B3190910431CB
S1132C509F5F9093043190910A31981710F48093F8
S1132C600A31FBE08F9FC0011124B601885C9E4CA1
S1132C700E9479100F900FBE80910931882359F07A
S1132C80E0916431F0916531828D801730F40E94B7
S1132C90C51181E009C081E007C081E005C0CB8E89
S1132CA0DC8EC6013BCF8FEFDF91CF911F910F9147
S1132CB0FF90EF90DF90CF90BF90AF909F908F9058
S1132CC07F906F905F904F9008950FB6F8940F9295
S1132CD0009721F480916431909165310F900FBE7B
S1132CE0FC01828D0895AF92BF92CF92DF92EF9252
S1132CF0FF920F93A12CB12CC12CD12C0F2EF1E1FA
S1132D00EF2EF1E3FF2EF02D00E020E030E044E66A
S1132D1050E061EC70E28DE095E10E946315813032
S1132D2069F4F8948093093110920C3110920D31AA
S1132D3010920E3110920F310E9487110F91FF9063
S1132D40EF90DF90CF90BF90AF90089580910831BD
S1132D508F5F8093083108950FB6F8940F926091B5
S1132D600C3170910D3180910E3190910F310F9093
S1132D700FBE0895009721F48091643190916531DC
S1132D804D96089580911131909112310895FF92DA
S1132D900F931F93CF93DF93809108318111EDC07E
S1132DA080910C3190910D31A0910E31B0910F3181
S1132DB00196A11DB11D80930C3190930D31A09308
S1132DC00E31B0930F3180910C3190910D31A0915F
S1132DD00E31B0910F31892B8A2B8B2BF1F5809119
S1132DE020319091213120911E3130911F31209357
S1132DF020313093213180931E3190931F31809183
S1132E0005318F5F80930531E0912031F0912131BC
S1132E10808181110CC08FEF9FEFDC018093022031
S1132E2090930320A0930420B093052016C0E09152
S1132E302031F09121310780F085E02D0084F18567
S1132E40E02D82819381A481B581809302209093A7
S1132E500320A0930420B093052040910C3150919D
S1132E600D3160910E3170910F318091022090915B
S1132E700320A0910420B0910520481759076A0740
S1132E807B0708F47FC0E0912031F09121318081EB
S1132E908823F9F0E0912031F09121310780F08509
S1132EA0E02DC085D1858A819B81AC81BD81409113
S1132EB00C3150910D3160910E3170910F314817E2
S1132EC059076A077B0758F10F2EFBE0FF2EF02D00
S1132ED02FC08FEF9FEFDC0180930220909303209B
S1132EE0A0930420B09305204DC0E0912031F091CF
S1132EF021310780F085E02DC085D1858A819B81B1
S1132F00AC81BD8140910C3150910D3160910E31F5
S1132F1070910F31481759076A077B0748F480936B
S1132F20022090930320A0930420B09305202AC08C
S1132F308E010E5F1F4FC8010E94EB10888D998D82
S1132F40892B21F0CE010E960E94EB108A8D909170
S1132F500A31981710F480930A31F89EC0011124A5
S1132F60B801885C9E4C0E947910E0912031F09168
S1132F70213180818111B9CFACCF809107318F5F2E
S1132F8080930731DF91CF911F910F91FF900895A6
S1132F90CF92DF92EF92FF920F931F93CF93DF9321
S1132FA00FB6F8940F9280910831815080930831C4
S1132FB080910831811160C08091103181112CC041
S1132FC05EC0D7011796ED91FC911897C085D18505
S1132FD0CE010E960E94EB108E010E5F1F4FC801AA
S1132FE00E94EB108A8D90910A31981710F4809307
S1132FF00A31D89EC0011124B801885C9E4C0E94FD
S11330007910E0916431F09165319A8D828D981731
S113301070F0CC24C3940BC0C12C0F2EF3E1EF2E1F
S1133020F1E3FF2EF02D0F2EFBE0DF2EF02DF70144
S113303080818111C6CF80910731882381F08091EE
S11330400731882399F00E94C71680910731815077
S113305080930731809107318111F5CF07C0F1E0EA
S1133060CF1621F080910631813041F4109206315F
S11330700E94C51181E003C080E001C080E00F9090
S11330800FBEDF91CF911F910F91FF90EF90DF90D2
S1133090CF900895CF92DF92EF92FF92CF93DF9378
S11330A0EC016A017B010E94A61688819981AA819C
S11330B0BB81C80ED91EEA1EFB1E40910C315091F3
S11330C00D3160910E3170910F31481759076A071D
S11330D07B07B8F4C816D906EA06FB06E0F580912A
S11330E00C3190910D31A0910E31B0910F31C88205
S11330F0D982EA82FB828C159D05AE05BF05F8F4E2
S113310013C0C816D906EA06FB0600F180910C31FB
S113311090910D31A0910E31B0910F318C159D0518
S1133120AE05BF0598F017C0809164319091653168
S113313002960E94EB10C701B6010E9415150E9469
S1133140C81781110DC00E94C5110AC0C882D98256
S1133150EA82FB82E9CFC882D982EA82FB82EFCF7E
S1133160DF91CF91FF90EF90DF90CF900895CF92B1
S1133170DF92EF92FF926B017C01672B682B692B26
S1133180E9F00E94A61680910C3190910D31A09126
S11331900E31B0910F31C80ED91EEA1EFB1E80916C
S11331A064319091653102960E94EB10C701B6011B
S11331B00E9415150E94C817811102C00E94C511F2
S11331C0FF90EF90DF90CF900895809108318111A6
S11331D00CC0E0910A314BE0E49FF0011124E85C5B
S11331E0FE4C8081882329F014C081E0809306314D
S11331F008959BE080910A31815080930A31E091D7
S11332000A319E9FF0011124E85CFE4C80818823E2
S113321089F380910A31282F30E04BE0849FC0016C
S11332201124DC01A85CBE4C1196ED91FC9112971F
S11332300480F581E02D1196ED93FC931297855C43
S11332409E4CE817F90761F4848195814BE0429F15
S1133250F001439FF00D1124E85CFE4C81839283BE
S11332608BE0829FF001839FF00D1124E85CFE4CFB
S11332700180F281E02D8085918580936431909363
S113328065310895CF92DF92EF92FF926A017B013C
S11332906091643170916531625F7F4F0E94A0102C
S11332A0809164319091653102960E94EB10809177
S11332B00C3190910D31A0910E31B0910F31BC01C0
S11332C0CD016C0D7D1D8E1D9F1D0E941515FF9057
S11332D0EF90DF90CF9008950F931F93CF93DF93D8
S11332E0DC011796ED91FC911897C085D1858E016C
S11332F0025F1F4FC8010E94EB10809108318111B9
S113330016C00C501109C8010E94EB108A8D9091CF
S11333100A31981710F480930A31BBE08B9FC001E7
S11333201124B801885C9E4C0E94791005C0B80134
S113333083E191E30E947910E0916431F091653169
S113334081E02A8D928D291708F480E0DF91CF91D6
S11333501F910F91089520910531FC012083409124
S11333600C3150910D3160910E3170910F314183C8
S113337052836383748308958F929F92AF92BF9216
S1133380CF92DF92EF92FF920F931F93CF93DF932D
S1133390FC010FB6F8940F92809105319081981733
S11333A089F080910C3190910D31A0910E31B09142
S11333B00F31018112812381348180179107A20783
S11333C0B307A8F580910C3190910D31A0910E3185
S11333D0B0910F31C180D280E380F480EB01088189
S11333E019812A813B818C199D09AE09BF09801777
S11333F09107A207B307E8F4CF0180900C319090B5
S11334000D31A0900E31B0900F31B501A4014C19CB
S11334105D096E097F09041B150B260B370B088306
S113342019832A833B830E94AB1980E003C081E0A7
S113343001C081E00F900FBEDF91CF911F910F91DA
S1133440FF90EF90DF90CF90BF90AF909F908F90C0
S1133450089581E0809306310895009721F48091C6
S1133460643190916531DC015B96ED91FC915C9740
S11334708081813141F4319680E090E00196219180
S11334802131E1F3089580E090E008958091643162
S11334909091653108950F931F93CF93DF93FC01AF
S11334A0228DA0916431B09165315A968C91281780
S11334B008F041C0A0916431B09165315A963C91B5
S11334C084E090E0A0E0B0E0831B9109A109B10978
S11334D086879787A08BB18B8BE0289F900111245E
S11334E0285C3E4C8485958582179307E9F48F0107
S11334F0EF012296CE010E94EB10E0916431F0912D
S11335006531828DF801828F90910A31981710F4F9
S113351080930A31FBE08F9FC0011124BE01885CB7
S11335209E4C0E94791007C0A0916431B09165311E
S11335305A968C91828FDF91CF911F910F910895AC
S11335400F931F93CF93DF93009749F1FC01328DC2
S113355027A1321721F1EC018C010E5F1F4FC80126
S11335600E94EB108FA18A8F44E050E060E070E08D
S1133570481B5109610971094E875F87688B798BF4
S113358090910A31981710F480930A31FBE08F9FD1
S1133590C0011124B801885C9E4C0E947910DF910F
S11335A0CF911F910F910895052E97FB1EF400945F
S11335B00E94EB1A57FD07D00E94F31A07FC03D0B0
S11335C04EF40C94EB1A50954095309521953F4F4D
S11335D04F4F5F4F089590958095709561957F4FFB
S11335E08F4F9F4F0895A1E21A2EAA1BBB1BFD010A
S11335F00DC0AA1FBB1FEE1FFF1FA217B307E407CE
S1133600F50720F0A21BB30BE40BF50B661F771F25
S1133610881F991F1A9469F7609570958095909505
S11336209B01AC01BD01CF010895FB01DC0102C087
S113363001900D9241505040D8F70895DC0101C02B
S11336406D9341505040E0F70895FB01DC01415077
S1133650504048F001900D920020C9F701C01D921E
S113366041505040E0F708952532310520F42230CE
S113367010F00C943F1BFA011082CA010895BB2775
S1133680FA01A62F6217710581059105330B30FBF2
S113369066F0AA27660F771F881F991FAA1FA21713
S11336A010F0A21B63953850A9F7A05DAA3308F067
S11336B0A95DA19336F7B111B1931082CA010C949C
S11336C0861B4532510520F4423010F00C946C1BDB
S11336D0FB011082CB010895BB27FB015527AA27C4
S11336E0880F991FAA1FA41710F0A41B839550518B
S11336F0B9F7A05DAA3308F0A95DA193009779F703
S1133700B111B1931192CB010C94861BDC01FC0125
S1133710672F71917723E1F7329704C07C916D9301
S113372070836291AE17BF07C8F30895DB018F93CE
S11337309F930E94AF1BBF91AF91A29F800D911DDB
S1133740A39F900DB29F900D11240895EE0FFF1FBB
S1133750881F8BBF0790F691E02D1BBE19940E9421
S1133760BA1BA59F900DB49F900DA49F800D911D31
S113377011240895A29FB001B39FC001A39F700DAF
S1133780811D1124911DB29F700D811D1124911D65
S10937900895F894FFCF38
S1133796FF0FFFFFFFFF00000000C0031A07000031
S11337A60000BE031503DC02EF02B803D3020000D7
S11337B6000007081A0700000000900A1A07000014
S11337C60000B20A1A07000000006E0A1A07000079
S11337D60000D40A1A0700000000BE03C003B903A0
S11337E6BB03B803B70300000000BE03FC06F106E2
S11337F6D306B803B70300000000060F1A07467283
S1133806656552544F5320586D656761205465733E
S113381674696E672050726F6772616D00557365C7
S113382672496E74004C6566745377005269676812
S113383674537700456E6350656E00456E634D7430
S113384672005379734374726C004D7472436D64E1
S10938560049444C45004A
S9030000FC
