S01600004652454552544F535F5348454C4C2E73726563CD
S11300000C9466030C949C030C949C030C949C0326
S11300100C949C030C949C030C949C030C949C03E0
S11300200C949C030C949C030C949C030C949C03D0
S11300300C949C030C949C030C949C030C949C03C0
S11300400C949C030C949C030C949C030C949C03B0
S11300500C949C030C949C030C949C030C949C03A0
S11300600C949C030C9495100C949C030C949C038A
S11300700C9437100C949C030C949C030C949C03D8
S11300800C949C030C949C030C949C030C949C0370
S11300900C949C030C949C030C949C030C949C0360
S11300A00C949C030C949C030C949C030C949C0350
S11300B00C949C030C949C030C949C030C949C0340
S11300C00C949C030C94D7180C949C030C949C03E0
S11300D00C949C030C949C030C949C030C949C0320
S11300E00C949C030C949C030C941D0F0C949C0383
S11300F00C949C030C949C030C949C030C949C0300
S11301000C949C030C949C030C949C030C949C03EF
S11301100C949C030C949C030C949C030C949C03DF
S11301200C949C030C949C030C949C030C949C03CF
S11301300C949C030C949C030C949C030C949C03BF
S11301400C949C030C949C030C949C030C949C03AF
S11301500C949C030C949C030C949C030C949C039F
S11301600C94D90F0C949C030C949C030C947B0F5B
S11301700C949C030C949C030C949C030C949C037F
S11301800C949C030C949C030C949C030C949C036F
S11301900C949C030C949C030C949C030C949C035F
S11301A00C949C030C949C030C949C030C949C034F
S11301B00C949C030C949C030C949C030C949C033F
S11301C00C949C030C949C030C949C030C949C032F
S11301D00C949C030C949C030C949C030C949C031F
S11301E00C949C030C949C030C949C030C949C030F
S11301F00C949C030C949C030C949C037606F706C5
S1130200F706F706F706F706F706F706F706F70602
S1130210F706F706F706F706F706F706F706F706F2
S1130220F706F706F706F706F706F706F706F706E2
S1130230F706F706F706F706F706F706F706F706D2
S1130240F706F706F706F706F706F706F706F706C2
S1130250F706F706F706F706F706F706F706F706B2
S1130260F706F706F706F706F706F706F706F706A2
S1130270F706F706F706F706F706F706F706F70692
S1130280F706F706F706F706F7068B06F706C10624
S11302907606F706A7067206F706F706F706F706C8
S11302A0F7063305F706F706F706DD063806F70600
S11302B0F7064105E211E511E811EB11EE11F11118
S11302C0F31104120C12161214120C94F3110C9460
S11302D075110C9441050C94EB110C94A80C0C941E
S11302E073110C94C40C0C9416120C9414120C94E8
S11302F074110C94EA0C0C94A6110C94E8110C944F
S113030038060C947C110C9477110C945B1B0C94A0
S1130310C1060C94B10C0C94270B0C9472060C942B
S11303207A110C94E2110C94C4110C94F1110C94F4
S113033004120C940E0D0C94CF0B0C94990A0C948B
S11303409B110C94EE110C947E040C94E5110C9406
S1130350DD060C9441070C94A7060C94C7120C9468
S11303600C120C94F7060C94300C0C948B060C9421
S11303707D110C9433050C9476060909002F00496D
S1130380444C45090930092D0900092D2D2D2D0056
S1130390092D2D2D2D2D2D2D2D2D2D002D2D2D2DDA
S11303A009092D2D2D2D092D2D2D2D2D00095275C9
S11303B06E730009467265652F546F74616C004E4C
S11303C0616D6509095072692E0953746174650081
S11303D009537461636B005461736B09092020092C
S11303E020002C20544343304343413D002F002C34
S11303F0204865617020667265653A200054696D15
S1130400653A2000536570202034203230323500A4
S11304104D45343035206261736520726164696FC3
S11304202070726F6772616D2056302E3420001B6D
S11304305B32326D005461736B3A2049444C450081
S11304401B5B316D00496C6C6567616C2073746172
S113045074652120526573657474696E6720415612
S113046052003A5754463F0052657365742C207409
S1130470727920486F6D696E6720616761696E20CB
S11304806279207072657373696E67202762270032
S1130490454D455247454E43592053544F50004310
S11304A06F6D6D656E63652042616C616E6365009E
S11304B0426567696E20486F6D696E6700457869AB
S11304C07420636F6D6D616E64206D6F646500529E
S11304D06573657474696E67204156520050726585
S11304E07373204374726C2D4120666F7220636FA6
S11304F06D6D616E64206D6F64650020202020683E
S11305003A20202048414C50210020202020723ADB
S1130510202020526573657420746F2049646C65D3
S11305200020202020643A202020456D65726765F4
S11305306E63792053746F700020202020673A2066
S1130540202053746172742042616C616E63652172
S11305500020202020623A202020426567696E2016
S113056043616C6962726174696F6E00202020209F
S1130570653A2020204578697420636F6D6D616E43
S113058064206D6F64650020202020733A202020B1
S1130590537461636B2064756D7020666F72207490
S11305A061736B730020202020763A20202056654A
S11305B07273696F6E20616E642073657475702048
S11305C0696E666F726D6174696F6E002020202001
S11305D06E3A20202053686F772074686520746910
S11305E06D65207269676874206E6F7700202049FA
S11305F06E20636F6D6D616E64206D6F6465206F36
S11306006E6C793A00202043746C2D413A20456E7B
S113061074657220636F6D6D616E64206D6F6465C7
S113062000202043746C2D433A2052657365742076
S113063074686520415652002068656C70004D4511
S1130640343035206261736520726164696F207093
S1130650726F6772616D2056302E3420001B5B333D
S1130660306D001B5B34366D004552524F5220638F
S113067072656174696E67207461736B20002C204D
S1130680737461636B206174203078002063726539
S113069061746564005461736B20001B5B32326DBE
S11306A0005461736B3A20001B5B316D0009000933
S11306B0002F00090009001B5B32326D001B5B3107
S11306C06D001B5B316D002020000E0D11241FBE38
S11306D0CFEFCDBFDFE3DEBF00E00CBF18BE19BE15
S11306E01ABE1BBE10E2A0E0B0E2EEEAF8E400E0BD
S11306F00BBF02C007900D92A43FB107D9F71BBEF0
S113070021E3A4EFB0E201C01D92A83AB207E1F7D9
S113071013E0C6E6D3E000E006C021970109802F6C
S1130720FE010E943224C536D10780E00807A9F7EC
S11307300E94320D0C9455240C9400000F931F93C7
S1130740CF93DF93EC016AE08E819F810E94D311E5
S11307508C0163E676E00E941A126AE0C8010E94E6
S1130760D3118C016DE576E00E941A1267E0C8018E
S11307700E94D3116AE08E819F810E94D3118C0163
S11307806EE376E00E941A126AE0C8010E94D31157
S11307908C0168E376E00E941A1266E0C8010E94A8
S11307A0D3116AE08E819F810E94D3118C0161E292
S11307B076E00E941A1266E0C8010E94D3116AE032
S11307C08E819F810E94D3118C0165E076E00E94A6
S11307D01A1266E0C8010E94D3116AE08E819F81DB
S11307E00E94D3118C016DEE75E00E941A1266E02E
S11307F0C8010E94D3116AE08E819F810E94D311A7
S11308008C016CEC75E00E941A1266E0C8010E942B
S1130810D3116AE08E819F810E94D3118C0165EA15
S113082075E00E941A1266E0C8010E94D3116AE0C2
S11308308E819F810E94D3118C0167E875E00E942C
S11308401A1266E0C8010E94D3116AE08E819F816A
S11308500E94D3118C016CE675E00E941A1266E0C6
S1130860C8010E94D3116AE08E819F810E94D31136
S11308708C0161E575E00E941A1266E0C8010E94CD
S1130880D3116AE08E819F810E94D3118C0169E3A8
S113089075E00E941A1266E0C8010E94D3116AE052
S11308A08E819F810E94D3118C0161E275E00E94C8
S11308B01A1266E0C8010E94D3116AE08E819F81FA
S11308C00E94D3118C016AE075E00E941A1266E05E
S11308D0C8010E94D3116AE08E819F810E94D311C6
S11308E0EC016BEF74E00E941A1266E0CE010E94E4
S11308F0D311DF91CF911F910F910895CF93DF937F
S1130900CDB7DEB72C97CDBFDEBF7C0119821A822A
S11309101B821C821D821E826AE0DC0116968D9168
S11309209C9117970E94D3116C016DED74E00E94A5
S11309301A1266E0C6010E94D31111E0812C68945A
S1130940992493F80F2EFAE3AF2EF1E2BF2EF02D87
S1130950F7018485882321F0813009F460C063C2E3
S113096086819781DC01ED91FC910480F581E02D75
S11309701995882309F437C0F70186819781DC0132
S1130980ED91FC910680F781E02D1995992781302E
S11309909105F9F0039709F061C26AE0F7018681D5
S11309A097810E94D3117C016FEC74E00E941A12AB
S11309B066E0C7010E94D31193E088ED08B618BE23
S11309C084BF909380008091820081FDFCCF08BE9B
S11309D0FFCFC7010E949E03D7011C961C931C974E
S11309E01D961C933BC28CE091E20E949B118823CC
S11309F009F434C2D7011696ED91FC911797019032
S1130A00F081E02DC280D3808CE091E20E947D11C0
S1130A10682FF70186819781F60119951FC2868197
S1130A209781DC01ED91FC910480F581E02D19950D
S1130A30882309F413C2F70186819781DC01ED91C3
S1130A40FC910680F781E02D1995BC01FC01FF277C
S1130A507B97EC35F10508F0CAC18827E250FF4FB7
S1130A608F4F0C943224CE0101960E940614BC01CF
S1130A70F701868197810E941E1466E00E94D311BB
S1130A80EDC11F82188619861A861B861C860E9451
S1130A90AD163C01CE0107960E9406142C0166E0B7
S1130AA0D70116968D919C9117970E94D3116AE0F5
S1130AB00E94D3116C0160E174E00E941A126AE092
S1130AC0C6010E94D3116C0164E074E00E941A1202
S1130AD066E0C6010E94D3116AE00E94D3116C0142
S1130AE06DEF73E00E941A12B201C6010E941E1437
S1130AF06AE00E94D3116C016FEE73E00E941A1237
S1130B00B301C6010E9493126AE00E94D3116C01E2
S1130B106DEE73E00E941A124FEF5FE060E070E048
S1130B20C6010E945112F40160A471A46AE0D701C5
S1130B3016968D919C9117970E94D3116C0162EEC9
S1130B4073E00E941A12B301C6010E94931266E078
S1130B500E94D31166E00E94D311F701C680D780AA
S1130B606AE0C6010E94D3113C0167ED73E00E9464
S1130B701A126AE0C3010E94D3113C0160ED73E0D4
S1130B800E941A1266E0C3010E94D3116AE0C601F2
S1130B900E94D3113C016FEB73E00E941A126AE0C9
S1130BA0C3010E94D3113C0163EB73E00E941A124B
S1130BB06AE0C3010E94D3113C016DEA73E00E9414
S1130BC01A1266E0C3010E94D3116AE0C6010E94B2
S1130BD0D3113C016CE973E00E941A126AE0C3016C
S1130BE00E94D3113C0160E973E00E941A126AE08A
S1130BF0C3010E94D3113C016AE873E00E941A12F7
S1130C0066E0C3010E94D311D5018D919C91009798
S1130C1019F0B6010E94AF140E94101D0E947B209F
S1130C20082F6AE0C6010E94D3116C016FE773E0DC
S1130C300E941A12602FC6010E94F3106AE00E94FB
S1130C40D3116C016DE773E00E941A1264E670E040
S1130C50C6010E9493126AE00E94D3116C016AE7F4
S1130C6073E00E941A1266E0C6010E94D311F6C016
S1130C70F701C680D78080913A2190913B2100975B
S1130C8019F0B6010E94CB146AE0C6010E94D31188
S1130C903C0160E474E00E941A126AE0C3010E94FD
S1130CA0D3113C0165E374E00E941A126AE0C301A7
S1130CB00E94D3113C016FE274E00E941A1266E0B4
S1130CC0C3010E94D3118091A6319091A731BC0138
S1130CD06F5F7F4F01E1212FA601835691090E9486
S1130CE05713BCC0C7010E949E03B8C06AE0D70175
S1130CF016968D919C9117970E94D3116C016DEB00
S1130D0074E00E941A1266E0C6010E94D311F70132
S1130D1014861586A3C0E091FA20F091FB200FB64B
S1130D20F8940F9210830F900FBE6AE0D7011696C5
S1130D308D919C9117970E94D3116C0160EB74E024
S1130D400E941A1266E0C6010E94D31187C0E09186
S1130D50F820F091F9200FB6F8940F9210830F90B9
S1130D600FBE6AE0F701868197810E94D3116C015E
S1130D706FE974E00E941A1266E0C6010E94D31162
S1130D806DC0E091F620F091F7200FB6F8940F9221
S1130D9010830F900FBE6AE0D70116968D919C9137
S1130DA017970E94D3116C0160E974E00E941A1233
S1130DB066E0C6010E94D31151C0E091F420F09185
S1130DC0F5200FB6F8940F9210830F900FBE6AE0CF
S1130DD0F701868197810E94D3116C0168E674E063
S1130DE00E941A1266E0C6010E94D31137C0D701CF
S1130DF016968D919C911797DC01ED91FC910280E0
S1130E00F381E02D19956AE0F701868197810E94AC
S1130E10D3116C0162E674E00E941A1266E0C60106
S1130E200E94D3111BC06AE0868197810E94D3116E
S1130E307C0165E474E00E941A1266E0C7010E9416
S1130E40D31193E088ED08B618BE84BF9093800058
S1130E508091820081FDFCCF08BEFFCFF70186851B
S1130E609785A089B1890196A11DB11D86879787B1
S1130E70A08BB18B61E070E080E090E00E94051FE0
S1130E8067CDCF93DF9300D01F92CDB7DEB78C012F
S1130E900E94FA1C69837A838B839C83B12C0F2E66
S1130EA0FCED2F2E312CF02D0F2EF4E6AF2EF02D6D
S1130EB0D8011C968C91823009F4C2C030F4882386
S1130EC069F0813009F470C01FC3843009F4A5C1EE
S1130ED008F4E4C0843609F4E3C216C3E091FE20AA
S1130EE0F091FF200FB6F8940F92108211821282B3
S1130EF013820F900FBE0FB6F8940F920F900FBE8F
S1130F00E091FA20F091FB208081882309F4F6C255
S1130F10E091F420F091F5200FB6F8940F9210822E
S1130F200F900FBEE091F620F091F7200FB6F894E1
S1130F300F9210820F900FBEE091FC20F091FD20E3
S1130F400FB6F8940F92208231820F900FBE0FB625
S1130F50F8940F920F900FBEE0910821F0910921AF
S1130F608081882309F4CCC20FB6F8940F92E091E3
S1130F700621F091072180819181A281B3810F9094
S1130F800FBEE091FE20F091FF200FB6F8940F926F
S1130F9080839183A283B3830F900FBE81E0F80115
S1130FA084878587B12CB0C2E091FA20F091FB20B0
S1130FB00FB6F8940F9210820F900FBEE091FC20B0
S1130FC0F091FD200FB6F8940F9284E29FEF808396
S1130FD091830F900FBE0FB6F8940F920F900FBE2F
S1130FE0E0910A21F0910B2180818823A9F00FB6AA
S1130FF0F8940F92E0910621F0910721808191816C
S1131000A281B3810F900FBEF801828B938BA48BC6
S1131010B58B82E0848785870FB6F8940F920F9082
S11310200FBEE091F420F091F5208081882309F42B
S11310306BC2D8011C961C921C971D961C9264C20C
S1131040E091FC20F091FD200FB6F8940F921082ED
S113105011820F900FBE68EC70E080E090E00E9477
S1131060051F0FB6F8940F920F900FBEE0910A215E
S1131070F0910B218081882361F0E091FC20F091B4
S1131080FD200FB6F8940F92208231820F900FBE8C
S11310903BC283E0F8018487858736C220E030E0D4
S11310A040E05FE3D80152966D917D918D919C91C2
S11310B055970E94B523F801668B778B808F918FAB
S11310C00FB6F8940F920F900FBEE0910621F091A5
S11310D0072120813181428153810E94E4216B01E7
S11310E07C01D8015A966D937D938D939C935D9763
S11310F05E962D913D914D915C9191970E94E521D1
S11311002B013C01F801668F778F80A391A3809017
S1131110FC209090FD200FB6F8940F9222A133A1E9
S113112044A155A1C701B6010E94B5236B017C01FE
S1131130F80126A137A140A551A5C301B2010E941F
S1131140B5239B01AC01C701B6010E94E5210E94B1
S1131150C822D4016D937C930F900FBE0FB6F89400
S11311600F920F900FBEE0910A21F0910B21808124
S113117081110CC00FB6F8940F920F900FBEE0913E
S11311800821F09109218081882391F0F801E680FB
S1131190F7806EE670E2C7010E941A1266E0C7018A
S11311A00E94D311D8011C96AC921C971D96AC9248
S11311B0E091F420F091F5200FB6F8940F920F907F
S11311C00FBE8081882399F00FB6F8940F92108295
S11311D00F900FBEE091F620F091F7200FB6F8942F
S11311E00F9210820F900FBEF801148615860FB669
S11311F0F8940F920F900FBEE091F820F091F9202F
S11312008081882309F480C1E4E0D8011C96EC9322
S11312101C97F4E01D96FC9377C1B11012C00FB671
S1131220F8940F92E0910221F09103218081918141
S1131230A281B3810F900FBEF80182A793A7A4A740
S1131240B5A7E091F820F091F9200FB6F8940F9229
S113125010820F900FBE0FB6F8940F920F900FBE2E
S1131260E0910621F0910721D80156962D913D91E8
S11312704D915C91599760817181828193810E9423
S1131280E421F80166A777A780AB91AB0FB6F89479
S11312900F9280B191B1A2B1B3B10F900FBE82ABE6
S11312A093ABA4ABB5AB0FB6F8940F920F900FBEEF
S11312B0E0910221F0910321D8019A962D913D915C
S11312C04D915C919D9760817181828193810E948F
S11312D0E4216B017C01F80166AB77AB80AF91AF81
S11312E00FB6F8940F92E0910021F09101218081D2
S11312F09181A281B3810F900FBEF80182AF93AFA9
S1131300A4AFB5AF2FE630EF45E85EE3C701B60101
S11313100E94B023882354F42FE630EF45E85EEBB7
S1131320C701B6010E94512218168CF0D8011696F6
S1131330ED90FC90179765E870E2C7010E941A12BD
S113134066E0C7010E94D311F801A486A586E09047
S1131350FC20F090FD200FB6F8940F9220EA3AE1B9
S113136045E751E4D801D2966D917D918D919C9180
S1131370D5970E94B5232B013C0129E43DE24CE7BB
S113138053E4F80166A577A580A991A90E94B52325
S11313909B01AC01C301B2010E94E5212B013C0178
S11313A02EEA37E145E853ECD801D6966D917D914C
S11313B08D919C91D9970E94B5239B01AC01C301E7
S11313C0B2010E94E5212B013C012FE23DED44ECEA
S11313D051ECF80162AD73AD84AD95AD0E94B523B7
S11313E09B01AC01C301B2010E94E52120E030E081
S11313F044E852EC0E94B5230E94C822D7016D93A1
S11314007C930F900FBE0FB6F8940F920F900FBEFF
S1131410E0910A21F0910B21808181110CC00FB65B
S1131420F8940F920F900FBEE0910821F0910921DA
S11314308081882391F0F801E680F7806EE670E2FF
S1131440C7010E941A1266E0C7010E94D311D80195
S11314501C96AC921C971D96AC92E091F420F091EE
S1131460F5200FB6F8940F920F900FBE8081882359
S113147009F448C00FB6F8940F9210820F900FBE73
S1131480E091F620F091F7200FB6F8940F921082B5
S11314900F900FBEF80114861586BB24B39434C094
S11314A0E091FC20F091FD200FB6F8940F92108289
S11314B011820F900FBEE091F420F091F5200FB649
S11314C0F8940F920F900FBE80818823E9F00FB635
S11314D0F8940F9210820F900FBEE091F620F091D5
S11314E0F7200FB6F8940F9210820F900FBED80118
S11314F01C961C921C971D961C9206C0B12C04C00D
S1131500B12C02C0BB24B394F80186859785A089C9
S1131510B1890196A11DB11D86879787A08BB18BD8
S113152041E050E060E070E0CE0101960E94981E18
S1131530BFCCCF93DF9300D01F92CDB7DEB77C0131
S11315400E94FA1C69837A838B839C83E0E8F6E02B
S113155083E08283808B818BE0E8F1E080E7828303
S113156089E08287E0E4F8E08AE683838DEC97E003
S113157086A397A381E080836894882486F89924BD
S113158093F8F40160A171A1E0910421F091052187
S11315900FB6F8940F92608371830F900FBE072EDD
S11315A0000C880B990B0E94002328E23FE049ECD1
S11315B050E40E94B52320E030EA49EF54E40E944D
S11315C05622A62EB72EC82ED92EE0910221F091D4
S11315D003210FB6F8940F92862F9B2DAC2DBD2DB1
S11315E080839183A283B3830F900FBE0091002167
S11315F0109101210FB6F8940F92242D352D472D0B
S1131600562D6A2D7B2D8C2D9D2D0E94E421F801F1
S113161060837183828393830F900FBEF701868565
S11316209785A089B1890196A11DB11D86879787E9
S1131630A08BB18B41E050E060E070E0CE010196F8
S11316400E94981E4A2C5B2C7C2C6D2C9ACFCF9335
S1131650DF9300D01F92CDB7DEB78C010E94FA1C35
S113166069837A838B839C83E0E8F6E08CE0828351
S113167082898360828B83898360838BE0E8F1E0D5
S113168082E7808389E08087E0E0F9E088E683836D
S11316908FEF9FEF86A397A381E08083E091FE20E4
S11316A0F091FF200FB6F8940F92108211821282EB
S11316B013820F900FBE612C712C812C912C0F2E54
S11316C0E12CF9E0FF2EF02DF70160A171A10FB616
S11316D0F8940F920F900FBE072E000C880B990BF5
S11316E00E9400232FE832EC45E75DE30E94B52316
S11316F02FE632E143E85AE30E94B523E091FE204D
S1131700F091FF2020813181428153810E94E421A4
S1131710A62EB72EC82ED92EE0910621F0910721CE
S11317200FB6F8940F92862F9B2DAC2DBD2D808380
S11317309183A283B3830F900FBE0FB6F8940F92D8
S1131740262D372D482D592D6A2D7B2D8C2D9D2D21
S11317500E94E4212FE632E143E85AE30E94562234
S113176060B971B982B993B90F900FBEF80186853B
S11317709785A089B1890196A11DB11D8687978798
S1131780A08BB18B41E050E060E070E0CE010196A7
S11317900E94981E6A2C7B2C8C2C9D2C95CFCF9369
S11317A0DF9300D01F92CDB7DEB78C010E94FA1CE4
S11317B069837A838B839C83A0E4B6E087E01196E7
S11317C08C93119784E015968C931597E0E0F8E0DC
S11317D081E0808383E08183A6A3B7A310A611A62A
S11317E012A613A6818180638183E12C6894FF246F
S11317F0F3F80FB6F8940F92E091FC20F091FD20DD
S1131800808191810F900FBEF801828B938B992375
S113181034F0F70180A791A712A613A60CC0F70114
S113182010A611A6F8018289938991958195910951
S1131830F70182A793A7F80186859785A089B189C6
S11318400196A11DB11D86879787A08BB18B41E0BE
S113185050E060E070E0CE0101960E94981EC9CF6E
S1131860CF93DF9300D01F92CDB7DEB78C010E94D7
S1131870FA1C69837A838B839C83E0E6F6E090818B
S1131880D80152968C915297892B808394815296D9
S11318908C915297892B848352968C91813021F4B8
S11318A088E18093700605C0843019F488E1809340
S11318B072060F2EF8E6EF2EF6E0FF2EF02DDD2453
S11318C0D394F701808180FD0BC0E0910A21F0914F
S11318D00B210FB6F8940F92D0820F900FBE0AC05E
S11318E0E0910A21F0910B210FB6F8940F92108227
S11318F00F900FBED7018C9182FD0BC0E09108219F
S1131900F09109210FB6F8940F92D0820F900FBE78
S11319100AC0E0910821F09109210FB6F8940F92C2
S113192010820F900FBEF80186859785A089B18932
S11319300196A11DB11D86879787A08BB18B41E0CD
S113194050E060E070E0CE0101960E94981EB9CF8D
S1131950DC01ED91FC910280F381E02D6CE019959E
S11319600895CF93DF93EC01A98DBA8DEB8DFC8D97
S113197081E04D915C91208131814217530709F434
S113198080E0DF91CF910895CF93DF93FC01C18D67
S1131990D28D28813981A38DB48D4D915C9124170A
S11319A03507E9F3A789B08D0D90BC91A02DA20F46
S11319B0B31F8C912F5F3F4F288339832436310521
S11319C028F0018CF28DE02D1082118290E0DF91DD
S11319D0CF910895DC015096ED91FC91519780814F
S11319E054964C915497842329F009C0215031090D
S11319F019F412C021E23EE490819423B9F390815A
S1131A0056968C915697892B80831E96ED91FC9166
S1131A101F97608381E0089580E00895CF93DF935A
S1131A20CCE0D1E28AE08A831B8283E08D831C822E
S1131A301E821F828AE590E2888399831E861F8610
S1131A4040E061E080E20E94C619888799878AE0B5
S1131A5090E0A0E0B0E08A879B87AC87BD87DF91E8
S1131A60CF910895AF92BF92CF92DF92EF92FF92FF
S1131A700F931F93CF93DF93CDB7DEB76E97CDBF90
S1131A80DEBFE0E6F6E080E181838583F894E0E55B
S1131A90F0E0808182608083818181FFFDCF80912D
S1131AA040009FB79E8FF8941BBE887F816020E41E
S1131AB030E0F90108ED04BF80838E8D8FBFE0E52F
S1131AC0F0E080818E7F80839DEF88ED08B618BE9C
S1131AD084BF9093800008BE81E090E00E94E015EE
S1131AE080930A2190930B2181E090E00E94E015FD
S1131AF0809308219093092184E090E00E94E015EE
S1131B00809306219093072184E090E00E94E015E1
S1131B10809306219093072182E090E00E94E015D3
S1131B2082E090E00E94E01582E090E00E94E015DF
S1131B30809304219093052184E090E00E94E015B5
S1131B40809302219093032184E090E00E94E015A9
S1131B50809300219093012184E090E00E94E0159D
S1131B608093FE209093FF2082E090E00E94E01595
S1131B708093FC209093FD2081E090E00E94E0158A
S1131B808093FA209093FB2081E090E00E94E0157E
S1131B908093F8209093F92081E090E00E94E01572
S1131BA08093F6209093F72081E090E00E94E01566
S1131BB08093F4209093F5208AE490E289839A83B9
S1131BC08AE08B831C8243E04E831D821F82188629
S1131BD0A0E4B6E0AB87BC8786E08D870F2EF7E0E4
S1131BE0DF2EF02DDE86E0EBF8E0EF87F88B81EB5B
S1131BF098E0898B9A8B84EB98E08B8B9C8B2E8559
S1131C0014965C91149781E090E0BC0102C0660FC9
S1131C10771F2A95E2F79B01252B14962C932E858A
S1131C20AB85BC855C91BC0102C0660F771F2A9509
S1131C30E2F79B01252B2C933D85AB85BC852C912C
S1131C4002C0880F991F3A95E2F7809590958223F8
S1131C508C936894CC24C4F8C382458380EF878333
S1131C6081E2868388E1848380E88E8B80E48F8B95
S1131C7080E28D8BEF85F889808180818AE090E213
S1131C8089839A8382E391E2888F998F80E391E23A
S1131C908A8F9B8F8EE291E28C8F9D8F84E690E0F9
S1131CA00E94E0158093322190933321EA8DFB8DBD
S1131CB010821182EC8DFD8D1082118267E0CE01BD
S1131CC001960E94D3117C016CE970E20E941A1201
S1131CD066E0C7010E94D31166E00E94D31182E13D
S1131CE090E00E94E0157C018E010F5F1F4F24E0FD
S1131CF031E040E06BEB70E20E9419158AE190E25A
S1131D00D7018D939C9383E190E00E94E0157C01C0
S1131D1024E031E044E063EC70E20E9419150F2ED8
S1131D20F2E2AF2EF0E2BF2EF02DF701A082B182D5
S1131D3081E0828B83E190E00E94E0157C0124E045
S1131D4031E044E06AEC70E20E941915D701AD92CB
S1131D50BC92119784E052968C9382E190E00E94A9
S1131D60E0157C0124E031E044E062ED70E20E9481
S1131D7019158AE290E2F7018083918382E190E071
S1131D800E94E0157C0124E031E043E069ED70E25B
S1131D900E94191582E390E2D7018D939C938EE300
S1131DA090E00E94E0157C0124E031E042E060EE26
S1131DB070E20E9419158AE390E2F701808391830F
S1131DC080E090E8ABEBB5E482A393A3A4A3B5A30E
S1131DD080E090E0A0E4B0E486A397A3A0A7B1A715
S1131DE0BE96DF011D92CA94E9F784E190E00E9457
S1131DF0E0157C0124E031E041E068EE70E20E94ED
S1131E00191582E490E2F70180839183128A138A80
S1131E10D092A20078940E94C11C80E090E06E965B
S1131E20CDBFDEBFDF91CF911F910F91FF90EF9057
S1131E30DF90CF90BF90AF9008951F920F920FB68E
S1131E400F92112408B60F9218BE0BB60F921BBE48
S1131E502F933F938F939F93EF93FF932091A00A27
S1131E60E0912021F091212180911C2190911D214C
S1131E70E80FF91F208380911C2190911D21019668
S1131E808436910560F480931C2190931D21209148
S1131E901E2130911F2182179307F1F40CC0109278
S1131EA01C2110921D2180911E2190911F21181632
S1131EB0190691F40EC001968436910528F4809396
S1131EC01E2190931F2108C010921E2110921F21E1
S1131ED003C081E090E0F3CFFF91EF919F918F9148
S1131EE03F912F910F900BBE0F9008BE0F900FBE25
S1131EF00F901F9018951F920F920FB60F921124F6
S1131F0008B60F9218BE0BB60F921BBE2F933F93C9
S1131F108F939F93EF93FF932091B009E091262133
S1131F20F09127218091222190912321E80FF91F1C
S1131F30208380912221909123210196843691055A
S1131F4060F48093222190932321209124213091C5
S1131F50252182179307F1F40CC0109222211092CC
S1131F60232180912421909125211816190691F49A
S1131F700EC001968436910528F480932421909311
S1131F80252108C0109224211092252103C081E04C
S1131F9090E0F3CFFF91EF919F918F913F912F911B
S1131FA00F900BBE0F9008BE0F900FBE0F901F90A6
S1131FB018951F920F920FB60F92112408B60F9224
S1131FC018BE0BB60F921BBE2F933F938F939F9314
S1131FD0EF93FF932091A009E0912C21F0912D2102
S1131FE08091342190913521E80FF91F208380914D
S1131FF028219091292101968436910560F48093DB
S113200028219093292120912A2130912B21821774
S11320109307F1F40CC01092282110922921809189
S11320202A2190912B211816190691F40EC00196BD
S11320308436910528F480932A2190932B2108C09B
S113204010922A2110922B2103C081E090E0F3CF5B
S1132050FF91EF919F918F913F912F910F900BBE24
S11320600F9008BE0F900FBE0F901F9018951F92EF
S11320700F920FB60F92112408B60F9218BE0BB62A
S11320800F921BBE2F933F938F939F93EF93FF93D6
S11320902091B008E0913221F091332180912E21DA
S11320A090912F21E80FF91F208380912E21909188
S11320B02F2101968436910560F480932E2190930C
S11320C02F21209130213091312182179307F1F48F
S11320D00CC010922E2110922F21809130219091CA
S11320E031211816190691F40EC001968436910513
S11320F028F4809330219093312108C0109230212C
S11321001092312103C081E090E0F3CFFF91EF9171
S11321109F918F913F912F910F900BBE0F9008BE0E
S11321200F900FBE0F901F9018951F920F920FB62D
S11321300F92112408B60F9218BE0BB60F921BBE55
S11321402F933F938F939F93EF93FF932091A00836
S1132150E0913821F09139218091342190913521F9
S1132160E80FF91F20838091342190913521019645
S11321708436910560F48093342190933521209125
S113218036213091372182179307F1F40CC0109255
S113219034211092352180913621909137211816DF
S11321A0190691F40EC001968436910528F48093A3
S11321B036219093372108C010923621109237218E
S11321C003C081E090E0F3CFFF91EF919F918F9155
S11321D03F912F910F900BBE0F9008BE0F900FBE32
S11321E00F901F901895CF92DF92EF92FF920F936A
S11321F01F93CF93DF93CDB7DEB72997CDBFDEBF53
S11322008C01E62EDC0113968C911397882341F000
S1132210ED91FC910280F381E02DC801199556C01F
S1132220F8014281423019F56894CC24C3F8D12CCA
S11322306894FF24F7F88E2D8F2151F0D801ED9189
S1132240FC910280F381E02D61E3C801199509C076
S1132250D801ED91FC910280F381E02D60E3C80187
S11322601995F694B1E0CB1AD10829F72FC0403163
S1132270F9F462956F700190F081E02D0280F38192
S1132280E02D6A3010F0695C01C0605DC8011995E9
S11322906E2D6F70D801ED91FC910280F381E02DD9
S11322A06A3010F0695C01C0605DC80119950EC008
S11322B050E0BE016F5F7F4F8E2D90E00E94AF21F2
S11322C0BE016F5F7F4FC8010E941A12C801299690
S11322D0CDBFDEBFDF91CF911F910F91FF90EF90A3
S11322E0DF90CF9008950895089580E0089580E0E8
S11322F090E0089581E0089508950F93CF93DF93BC
S11323001F92CDB7DEB700E02FEF3FEFA901BE016A
S11323106F5F7F4FFC01808591850E948F1A813009
S113232019F4898190E002C08FEF9FEF0F90DF9145
S1132330CF910F910895FC01808591850E94531BD4
S113234091E0811101C090E0892F08950F93CF93FC
S1132350DF931F92CDB7DEB76983FC0122853385F5
S11323604485558500E0BE016F5F7F4F8085918570
S11323700E94F41991E0811101C090E0892F0F901F
S1132380DF91CF910F910895EC01E881F9810190DB
S1132390F081E02D19951A821B826FEF7FEFCB013C
S11323A00E94051FFACFCF93DF93EC01862F90E0B4
S11323B08B309105D8F5FC018827E65AFE4F8F4FE4
S11323C00C94322482E08A8331C088E08A832EC050
S11323D08AE08A832BC080E18A8328C081E08B83D2
S11323E025C01B8223C0E881F9810280F381E02D9E
S11323F06DE0CE011995E881F9810280F381E02D29
S11324006AE0CE01199512C0E881F9810284F3854E
S1132410E02DCE0119950AC0E881F9810084F18587
S1132420E02DCE01199502C081E08C83CE01DF91AD
S1132430CF9108950F931F93CF93DF938C01FB01EA
S1132440DC0114968C91811104C06081611117C064
S113245023C0D80114961C92EB0121966491662343
S1132460D9F0D801ED91FC910280F381E02DC801EF
S11324701995FE01649121966111F3CF0DC0EF010E
S11324802196D801ED91FC910280F381E02DC801E1
S1132490199569916111F5CFDF91CF911F910F913A
S11324A00895DF92EF92FF920F931F93CF93DF93E0
S11324B0CDB7DEB7A197CDBFDEBF8C01D42EE52EFC
S11324C0F62E972FF8012281203121F0283011F0C7
S11324D0223071F4692FC8010E94F3106F2D0E94FD
S11324E0F3106E2D0E94F3106D2D0E94F3100FC097
S11324F030E0AE014F5F5F4F6D2D7E2D8F2D0E941A
S11325008221BE016F5F7F4FC8010E941A12C80169
S1132510A196CDBFDEBFDF91CF911F910F91FF90A8
S1132520EF90DF900895FF920F931F93CF93DF9363
S1132530CDB7DEB76197CDBFDEBF8C01F62E972FE6
S1132540F8014281403121F0483011F0423041F429
S1132550692FC8010E94F3106F2D0E94F3100DC063
S113256050E0BE016F5F7F4F8F2D0E94AF21BE01EF
S11325706F5F7F4FC8010E941A12C8016196CDBFD8
S1132580DEBFDF91CF911F910F91FF9008958F923D
S11325909F92AF92BF92CF92DF92EF92FF920F93EE
S11325A01F93CF93DF93EC018B018A819B810E945F
S11325B0081DBC01C8010E941A12D801ED91FC91BA
S11325C00280F381E02D69E0C80119958A819B811D
S11325D00E94081DFC0101900020E9F73197E81BD7
S11325E0F90B389748F4D801ED91FC910280F381FE
S11325F0E02D69E0C8011995CE84DF84E888F98864
S1132600A884B9848A819B810E947B20982E8C8423
S11326108A819B810E94B31C682FC8010E94F31019
S11326206AE00E94D311EC0165EB76E00E941A1275
S1132630682DCE010E94F3106AE00E94D311EC01D0
S113264063EB76E00E941A12692DCE010E94F3100A
S11326506AE00E94D311EC0161EB76E00E941A1249
S1132660B501CE010E9493126AE00E94D311EC01DD
S11326706FEA76E00E941A126AE0CE010E94D3113A
S1132680EC016DEA76E00E941A12B701A601CE01B0
S11326900E945112DF91CF911F910F91FF90EF9003
S11326A0DF90CF90BF90AF909F908F9008955F92EE
S11326B06F927F928F929F92AF92BF92CF92DF924E
S11326C0EF92FF920F931F93CF93DF935C013B0133
S11326D04A01122F502E63E0CA010E94D311A6149E
S11326E0B70408F07CC0650184E1C80ED11C00E089
S11326F07501B501C4010E9493126AE00E94D311CE
S113270067EC76E00E941A12112309F46DC00023CD
S113271009F46AC06AE0C4010E94D31162EC76E055
S11327200E941A1261C0112371F001110CC088813A
S1132730851549F06AE0C4010E94D3116DEB76E07F
S11327400E941A1201E06991C4010E94F310DC0195
S1132750ED91FC910280F381E02D60E21995CC1695
S1132760DD0609F7112389F06AE0C4010E94D31140
S1132770EC0167EB76E00E941A12E881F98102808D
S1132780F381E02D60E2CE011995F70161917F019B
S113279080EE860F8F3548F4D401ED91FC910280D0
S11327A0F381E02DC401199509C0D401ED91FC9188
S11327B00280F381E02D6EE2C4011995CE14DF048A
S11327C021F7B4E1AB0EB11C66E0C4010E94D31141
S11327D0E4E1CE0ED11CA614B70408F489CF62E05C
S11327E0C4010E94D31102C0E7019DCFDF91CF91B4
S11327F01F910F91FF90EF90DF90CF90BF90AF901B
S11328009F908F907F906F905F900895CF93DF9308
S1132810EC010FB6F8940F92809120089091210852
S11328208C839D830E94FA1C688379838A839B83AB
S11328300F900FBECE01DF91CF9108958F929F929A
S1132840AF92BF92EF92FF920F931F93CF93DF93B8
S1132850CDB7DEB72F97CDBFDEBF8C017B01DB0187
S11328606D917D918D919C910F2EF8EE8F2EF3E05A
S11328709F2EA12CB12CF02DA50194010E94412181
S1132880BA01A901C8010E945112D801ED91FC912D
S11328900280F381E02D6EE2C8011995F701608191
S11328A0718182819381A50194010E9441219B0140
S11328B0AC0160E472E48FE090E00E942224A50160
S11328C094010E94412149015A01F701A481B58173
S11328D020E432E44FE050E00E943B2420E038E45E
S11328E048EE51E00E944121C501B401620F731FFB
S11328F0841F951F7E01F7E0EF0EF11C9E012F5FF0
S11329003F4F59012AE030E040E050E00E9422218C
S1132910E62F288739874A875B87688579858A8582
S11329209B8520E32E0FD7012E937D01AA15BB05AD
S113293049F71F82BE016F5F7F4FC8010E941A12C0
S1132940C8012F96CDBFDEBFDF91CF911F910F91AC
S1132950FF90EF90BF90AF909F908F9008950F934A
S11329601F93CF93DF93EC018B01E881F9810280FF
S1132970F381E02D199566E0C8010E94D3118C8182
S11329809D81009719F0B8010E94AF14DF91CF9197
S11329901F910F910895CF92DF92EF92FF920F93C0
S11329A01F93CF93DF93EC017B018A819B810E946B
S11329B0081D6C016AE0C7010E94D3118C0168EA0A
S11329C076E00E941A126AE0C8010E94D3118C01B9
S11329D061EA76E00E941A12B601C8010E941A1236
S11329E06AE0C8010E94D3118C016BE976E00E9471
S11329F01A1266E0C8010E94D3118A859B85E88576
S1132A00F98501E121E0A701BC018E1B9F0B0E9407
S1132A1057138C819D81009719F0B7010E94CB1444
S1132A20DF91CF911F910F91FF90EF90DF90CF90A6
S1132A3008954F925F926F927F928F929F92AF927E
S1132A40BF92CF92DF92EF92FF920F931F93CF9397
S1132A50DF93CDB7DEB72A97CDBFDEBF4C01290186
S1132A6038018AE690E2F40180839183FB0180813E
S1132A70882369F0DE011196319690E002C0993006
S1132A8039F09F5F8D9381918111F9CF01C090E05E
S1132A90E1E0F0E0EC0FFD1FE90FF11D108274017D
S1132AA0F2E0EF0EF11CA12CB12CC12CD12C042F7F
S1132AB09401A201BE016F5F7F4F84EC91E10E94FB
S1132AC0B11BF401668277824086518620913A21B7
S1132AD030913B212483358380923A2190923B218B
S1132AE0148615864090A6315090A731FFEF4F1AF7
S1132AF05F0A4092A6315092A731F4014286538670
S1132B0016861786108A118A6114710409F444C068
S1132B10813079F56AE0C3010E94D3117C0165E933
S1132B2076E00E941A12BE016F5F7F4FC7010E94B8
S1132B301A126AE0C7010E94D3117C016CE876E0A6
S1132B400E941A126AE0C7010E94D3117C016EE749
S1132B5076E00E941A1263E0C7010E94D311B20109
S1132B600E94931262E00E94D31166E00E94D31186
S1132B7013C06AE0C3010E94D3114C0169E676E0F8
S1132B800E941A12BE016F5F7F4FC4010E941A1285
S1132B9066E0C4010E94D3112A96CDBFDEBFDF9147
S1132BA0CF911F910F91FF90EF90DF90CF90BF9046
S1132BB0AF909F908F907F906F905F904F9008950B
S1132BC00F931F93CF93DF93EC010E94F41C809129
S1132BD03C2181111DC0A1E4B1E2E5E4F1E2ED93F1
S1132BE0FC93119712961D921C921397ADE3B1E2D8
S1132BF08FEF9FE012968D939C9313971D921C92D6
S1132C00119782839383A083B18381E080933C21D5
S1132C10209709F45FC09E012B5F3F4F2496CE3F5F
S1132C20DF4008F05AC0E0914121F0914221A1E433
S1132C30B1E202C0DF01FC01828193818217930714
S1132C4020F4808191810097A9F7C1E2ED33FC075C
S1132C5009F446C0CD91DC9111978E010B5F1F4F93
S1132C60808191818D939C9382819381821B930BAC
S1132C708B30910510F1BF01620F731FDB011296B7
S1132C808D939C9313972283338312964D915C9179
S1132C90139781E491E201C0CD01EC01A881B981CF
S1132CA012962D913C91139724173507A8F3EB0145
S1132CB0A883B983DC016D937C938091002090916B
S1132CC0012022813381821B930B809300209093F7
S1132CD0012008C000E010E005C000E010E002C0E0
S1132CE000E010E00E94161EC801DF91CF911F91F1
S1132CF00F9108950F931F93CF93DF93009741F1A2
S1132D00EC018C01055011090E94F41CF801428168
S1132D105381A1E4B1E201C0DF01ED91FC9111976F
S1132D202281338124173507B8F32597E883F98383
S1132D300D931C9320910020309101208A819B8166
S1132D40820F931F80930020909301200E94161EEF
S1132D50DF91CF911F910F91089580910020909160
S1132D6001200895FC010396818392834FEF5FEF66
S1132D70BA014383548365837683878390878187ED
S1132D80928710820895FC01128613860895CF93CA
S1132D90DF93FC01DB0121813281E9018C819D817A
S1132DA014968D939C9315978181928116968D9399
S1132DB09C9317978C819D81EC016E837F83E9013D
S1132DC06C837D83618372831A96ED93FC931B97C6
S1132DD080818F5F8083DF91CF9108950F931F933C
S1132DE0CF93DF93EB01088119812A813B810F3F47
S1132DF04FEF14072407340731F4DC011996ED91E1
S1132E00FC911A971FC0FC013396DC0117964D9173
S1132E105C911897DA014D915D916D917C91041745
S1132E2015072607370770F00480F581E02DA4818B
S1132E30B5814D915D916D917C910417150726071D
S1132E40370790F7A481B581AC83BD831696CD93E3
S1132E50DC931797EE83FF83C483D5838A879B878C
S1132E60FC0120812F5F2083DF91CF911F910F916F
S1132E700895FC01A481B5818681978116968D936E
S1132E809C931797A681B7818481958114968D931D
S1132E909C931597A285B38511968D919C91129759
S1132EA0E817F90731F48681978111968D939C93E5
S1132EB01297128613868C9181508C930895809377
S1132EC0A6319093A73131E1FC013083319722E29E
S1132ED020833197A3E3A083319760833197708374
S1132EE03197108231971082319760E8608331976F
S1132EF010823197108231971082319762E060839B
S1132F00319763E06083319764E06083319765E0D3
S1132F106083319766E06083319767E0608331971F
S1132F2068E06083319769E06083319760E1608392
S1132F3031973083319732E13083319733E13083F5
S1132F40319734E13083319735E13083319736E17D
S1132F503083319737E13083319738E130833197CB
S1132F6039E13083319730E23083319731E2308375
S1132F7031972083319723E220833197408331971F
S1132F805083319726E22083319727E220833197BB
S1132F9028E22083319729E22083319720E320839C
S1132FA0319721E32083899708958CE78093290A38
S1132FB08FEF8093280A81E08093000A91E1909337
S1132FC0010A8093070AA091A431B091A531CD9153
S1132FD0CDBFDD91DEBFFF91EF91DF91CF91BF9126
S1132FE0AF919F918F917F916F915F914F913F919D
S1132FF02F911F910F91FF90EF90DF90CF90BF9092
S1133000AF909F908F907F906F905F904F903F9084
S11330102F901F900F900CBE0F900BBE0F900FBE01
S11330200F90089508950F920FB6F8940F920BB66F
S11330300F920CB60F921F9211242F923F924F922F
S11330405F926F927F928F929F92AF92BF92CF9234
S1133050DF92EF92FF920F931F932F933F934F931F
S11330605F936F937F938F939F93AF93BF93CF930C
S1133070DF93EF93FF93A091A431B091A5310DB6E6
S11330800D920EB60D920E94331FA091A431B091FF
S1133090A531CD91CDBFDD91DEBFFF91EF91DF91E1
S11330A0CF91BF91AF919F918F917F916F915F91DC
S11330B04F913F912F911F910F91FF90EF90DF90CF
S11330C0CF90BF90AF909F908F907F906F905F90C4
S11330D04F903F902F901F900F900CBE0F900BBEFF
S11330E00F900FBE0F9008950F920FB6F8940F92A1
S11330F00BB60F920CB60F921F9211242F923F928F
S11331004F925F926F927F928F929F92AF92BF92F3
S1133110CF92DF92EF92FF920F931F932F933F93DF
S11331204F935F936F937F938F939F93AF93BF93CB
S1133130CF93DF93EF93FF93A091A431B091A53186
S11331400DB60D920EB60D920E94151D0E94331FEE
S1133150A091A431B091A531CD91CDBFDD91DEBF59
S1133160FF91EF91DF91CF91BF91AF919F918F919B
S11331707F916F915F914F913F912F911F910F918B
S1133180FF90EF90DF90CF90BF90AF909F908F9083
S11331907F906F905F904F903F902F901F900F9073
S11331A00CBE0F900BBE0F900FBE0F9008950E949F
S11331B074181895CF93DF93EC0188A181110BC08B
S11331C088819981892BE1F58A819B810E94EE2077
S11331D01A821B8235C0411117C0482F50E08C81E0
S11331E09D810E94632128A18C819D81820F911D64
S11331F08C839D832A813B818217930708F1888100
S113320099818C839D831CC0482F50E08E819F81BF
S11332100E94632188A190E09195819591092E8166
S11332203F81280F391F2E833F83488159812417FA
S1133230350730F42A813B81820F931F8E839F834D
S11332408E8D8F5F8E8FDF91CF910895FC018081E9
S113325091810097A1F040A150E026813781240F8D
S1133260351F26833783A281B3812A173B0710F0C9
S113327086839783CB01668177810E9463210895B9
S11332800F931F93CF93DF93EC010FB6F8940F9233
S11332908AA11816B4F48B89811105C012C08B89D8
S11332A0811104C00EC08E010D5E1F4FC8010E9423
S11332B0BA1F81110E9477208AA181508AA318160F
S11332C074F38FEF8AA30F900FBE0FB6F8940F928A
S11332D089A11816B4F48885811105C012C08885A7
S11332E0811104C00EC08E01085F1F4FC8010E94E7
S11332F0BA1F81110E94772089A1815089A31816D1
S113330074F38FEF89A30F900FBEDF91CF911F91BC
S11333100F9108951F93CF93DF93613059F0FC010F
S11333202389308531112CC011E0211110E02111C5
S113333028C001C011E0EC014881598128A130E086
S11333406F8D629FC001639F900D1124BA01680FB5
S1133350791F6A837B831E8E4C835D83821B930B50
S1133360840F951F8E839F838FEF89A38AA3CE0139
S113337008960E94B216CE0143960E94B21601C06E
S113338010E0812FDF91CF911F9108950F931F9328
S1133390CF93DF93882301F1062F182F83E290E067
S11333A00E94E015EC01892BC9F0109FC001112483
S11333B001960E94E01588839983892B39F01F8F29
S11333C008A361E0CE010E948A1908C0CE010E94C0
S11333D07A16C0E0D0E002C0C0E0D0E0CE01DF91B8
S11333E0CF911F910F910895AF92BF92CF92DF9228
S11333F0EF92FF920F931F93CF93DF93CDB7DEB776
S11334002997CDBFDEBF7C015B012E833F834887B4
S1133410598710E06C0188E0C80ED11C0FB6F894EF
S11334200F92F701968D878D9817A8F4402FB50158
S1133430C7010E94DA18F7018389882341F0C70184
S113344043960E94BA1F813011F40E9413180F9002
S11334500FBE81E056C08E819F81A885B985892BD6
S11334608A2B8B2B21F40F900FBE80E04AC01111E0
S113347005C0CE0101960E94F91F11E00F900FBE06
S11334800E94F41C0FB6F8940F92F70181A18F3FAC
S113349009F411A2F70182A18F3F09F412A20F903F
S11334A00FBEBE016A5F7F4FCE0101960E940A20C3
S11334B0811121C00FB6F8940F92F701968D0F90E9
S11334C00FBE878D981311C04E815F816885798501
S11334D0C6010E94901FC7010E9440190E94161E37
S11334E081119CCF0E94131899CFC7010E944019E3
S11334F00E94161E93CFC7010E9440190E94161EF7
S113350080E02996CDBFDEBFDF91CF911F910F914F
S1133510FF90EF90DF90CF90BF90AF900895AF925F
S1133520BF92CF92DF92EF92FF920F931F93CF93AC
S1133530DF93CDB7DEB72997CDBFDEBF7C015B013A
S11335402E833F834887598710E06C0183E1C80EBE
S1133550D11C0FB6F8940F92F701868D882399F148
S1133560C680D780B501C7010E94261901111AC06F
S1133570F701868D8150868F80819181892B29F472
S11335800E949420F70182839383F7018085882326
S1133590B1F0C70108960E94BA1F813081F40E94DD
S11335A013180DC0F701C682D7828389882339F0A6
S11335B0C70143960E94BA1F81110E9413180F90ED
S11335C00FBE81E062C08E819F81A885B985892B59
S11335D08A2B8B2B21F40F900FBE80E056C0111163
S11335E005C0CE0101960E94F91F11E00F900FBE95
S11335F00E94F41C0FB6F8940F92F70181A18F3F3B
S113360009F411A2F70182A18F3F09F412A20F90CD
S11336100FBEBE016A5F7F4FCE0101960E940A2051
S113362081112DC00FB6F8940F92F701868D0F907B
S11336300FBE81111EC080819181892B49F40FB680
S1133640F8940F92828193810E9499200F900FBE6B
S11336504E815F8168857985C6010E94901FC701EC
S11336600E9440190E94161E811173CF0E941318E4
S113367070CFC7010E9440190E94161E6ACFC7016D
S11336800E9440190E94161E80E02996CDBFDEBF1D
S1133690DF91CF911F910F91FF90EF90DF90CF902A
S11336A0BF90AF9008950FB6F8940F92FC01868DE9
S11336B00F900FBE0895C8E7D1E388818230E8F304
S11336C00E941318FACFCF92DF92EF92FF926B0110
S11336D07C01E091A431F091A531628373838483EA
S11336E0958380914C3190914D31A0914E31B091A0
S11336F04F31C816D906EA06FB0668F46091A43176
S11337007091A53180915E3190915F316E5F7F4FF2
S11337100E94EE1621C06091A4317091A531809170
S11337206031909161316E5F7F4F0E94EE168091FF
S1133730022090910320A0910420B0910520C81686
S1133740D906EA06FB0640F4C0920220D092032078
S1133750E0920420F0920520FF90EF90DF90CF904C
S113376008954F925F926F927F928F929F92AF9241
S1133770BF92CF92DF92EF92FF920F931F93CF935A
S1133780DF935C014B013A01290188E290E00E9439
S1133790E015EC01892B09F4D4C0C114D10409F05B
S11337A0CCC0C3010E94E0158B8F9C8F009721F43D
S11337B0CE010E947A16C5C0A30161E170E00E94A7
S11337C06C219301215031098B8D9C8D3C01620E3B
S11337D0731E4AE050E0B401CE014D960E9473215D
S11337E01EA2102F043008F013E01A8F1FA36E01DD
S11337F022E0C20ED11CC6010E94C316CE010E9651
S11338000E94C316CA87DB8784E090E0A0E0B0E0A2
S1133810811B9109A109B1098E879F87A88BB98B58
S1133820CE8BDF8BA201B501C3010E945F17888391
S11338309983E114F10419F0F701C083D1830FB621
S1133840F8940F92809150318F5F80935031809122
S1133850A4319091A531892B89F5C093A431D093DB
S1133860A531809150318130C1F588E791E30E9400
S1133870B21683E891E30E94B2168EE891E30E94A7
S1133880B21689E991E30E94B2168DE691E30E9493
S1133890B21682E691E30E94B21683E591E30E9498
S11338A0B2168DE691E3809360319093613182E6A4
S11338B091E380935E3190935F310FC080914931E1
S11338C081110BC0E091A431F091A531828D0817CC
S11338D020F0C093A431D093A5318A8D90914B31BF
S11338E0981710F480934B31909144319F5F9093DB
S11338F0443190914A31981710F480934A31FBE097
S11339008F9FC0011124B60188589E4C0E94C7168F
S11339100F900FBE80914931882359F0E091A43172
S1133920F091A531828D801730F40E94131881E044
S113393009C081E007C081E005C0CB8EDC8EC601E2
S11339403BCF8FEFDF91CF911F910F91FF90EF90BD
S1133950DF90CF90BF90AF909F908F907F906F90AB
S11339605F904F9008950FB6F8940F92009721F44A
S11339708091A4319091A5310F900FBEFC01828DEE
S11339800895AF92BF92CF92DF92EF92FF920F937E
S1133990A12CB12CC12CD12C0F2EF1E5EF2EF1E38B
S11339A0FF2EF02D00E020E030E044E650E06FEE22
S11339B070E28BE59BE10E94B11B813069F4F894BD
S11339C08093493110924C3110924D3110924E3106
S11339D010924F310E94D5170F91FF90EF90DF9016
S11339E0CF90BF90AF900895809148318F5F8093BE
S11339F0483108950FB6F8940F9260914C3170914C
S1133A004D3180914E3190914F310F900FBE0895FA
S1133A10009721F48091A4319091A5314D96089599
S1133A2080915131909152310895FF920F931F93D9
S1133A30CF93DF93809148318111EDC080914C3157
S1133A4090914D31A0914E31B0914F310196A11D0D
S1133A50B11D80934C3190934D31A0934E31B0936E
S1133A604F3180914C3190914D31A0914E31B091B4
S1133A704F31892B8A2B8B2BF1F5809160319091FA
S1133A80613120915E3130915F3120936031309308
S1133A90613180935E3190935F31809145318F5FC6
S1133AA080934531E0916031F091613180818111E1
S1133AB00CC08FEF9FEFDC018093022090930320D2
S1133AC0A0930420B093052016C0E0916031F091DA
S1133AD061310780F085E02D0084F185E02D82813D
S1133AE09381A481B5818093022090930320A093B5
S1133AF00420B093052040914C3150914D31609198
S1133B004E3170914F318091022090910320A09109
S1133B100420B0910520481759076A077B0708F469
S1133B207FC0E0916031F091613180818823F9F0A8
S1133B30E0916031F09161310780F085E02DC0851E
S1133B40D1858A819B81AC81BD8140914C3150915A
S1133B504D3160914E3170914F31481759076A07C2
S1133B607B0758F10F2EFBE0FF2EF02D2FC08FEFB7
S1133B709FEFDC018093022090930320A093042004
S1133B80B09305204DC0E0916031F0916131078020
S1133B90F085E02DC085D1858A819B81AC81BD8172
S1133BA040914C3150914D3160914E3170914F3173
S1133BB0481759076A077B0748F4809302209093BB
S1133BC00320A0930420B09305202AC08E010E5F29
S1133BD01F4FC8010E943917888D998D892B21F0B8
S1133BE0CE010E960E9439178A8D90914A3198170A
S1133BF010F480934A31F89EC0011124B80188580A
S1133C009E4C0E94C716E0916031F0916131808131
S1133C108111B9CFACCF809147318F5F8093473109
S1133C20DF91CF911F910F91FF900895CF92DF9272
S1133C30EF92FF920F931F93CF93DF930FB6F894F5
S1133C400F9280914831815080934831809148315E
S1133C50811160C08091503181112CC05EC0D701A8
S1133C601796ED91FC911897C085D185CE010E96DB
S1133C700E9439178E010E5F1F4FC8010E94391729
S1133C808A8D90914A31981710F480934A31D89EC6
S1133C90C0011124B80188589E4C0E94C716E091B7
S1133CA0A431F091A5319A8D828D981770F0CC24AF
S1133CB0C3940BC0C12C0F2EF3E5EF2EF1E3FF2EBE
S1133CC0F02D0F2EFBE0DF2EF02DF7018081811106
S1133CD0C6CF80914731882381F080914731882372
S1133CE099F00E94151D809147318150809347318E
S1133CF0809147318111F5CF07C0F1E0CF1621F053
S1133D0080914631813041F4109246310E9413185B
S1133D1081E003C080E001C080E00F900FBEDF911E
S1133D20CF911F910F91FF90EF90DF90CF90089566
S1133D30CF92DF92EF92FF92CF93DF93EC016A016F
S1133D407B010E94F41C88819981AA81BB81C80EE1
S1133D50D91EEA1EFB1E40914C3150914D316091A9
S1133D604E3170914F31481759076A077B07B8F4F1
S1133D70C816D906EA06FB06E0F580914C3190910D
S1133D804D31A0914E31B0914F31C882D982EA822F
S1133D90FB828C159D05AE05BF05F8F413C0C8164B
S1133DA0D906EA06FB0600F180914C3190914D3121
S1133DB0A0914E31B0914F318C159D05AE05BF05D4
S1133DC098F017C08091A4319091A53102960E9479
S1133DD03917C701B6010E94631B0E94161E811188
S1133DE00DC00E9413180AC0C882D982EA82FB82DD
S1133DF0E9CFC882D982EA82FB82EFCFDF91CF91EB
S1133E00FF90EF90DF90CF900895CF92DF92EF92E2
S1133E10FF926B017C01672B682B692BE9F00E94F0
S1133E20F41C80914C3190914D31A0914E31B09160
S1133E304F31C80ED91EEA1EFB1E8091A431909109
S1133E40A53102960E943917C701B6010E94631B6F
S1133E500E94161E811102C00E941318FF90EF9059
S1133E60DF90CF9008958091483181110CC0E0918A
S1133E704A314BE0E49FF0011124E858FE4C808164
S1133E80882329F014C081E08093463108959BE093
S1133E9080914A31815080934A31E0914A319E9F0A
S1133EA0F0011124E858FE4C8081882389F3809125
S1133EB04A31282F30E04BE0849FC0011124DC01FB
S1133EC0A858BE4C1196ED91FC9112970480F5818F
S1133ED0E02D1196ED93FC93129785589E4CE817AC
S1133EE0F90761F4848195814BE0429FF001439F7F
S1133EF0F00D1124E858FE4C818392838BE0829F5D
S1133F00F001839FF00D1124E858FE4C0180F281EA
S1133F10E02D808591858093A4319093A5310895F7
S1133F20CF92DF92EF92FF926A017B016091A431FC
S1133F307091A531625F7F4F0E94EE168091A4318B
S1133F409091A53102960E94391780914C3190913D
S1133F504D31A0914E31B0914F31BC01CD016C0D6A
S1133F607D1D8E1D9F1D0E94631BFF90EF90DF90AF
S1133F70CF9008950F931F93CF93DF93DC0117968F
S1133F80ED91FC911897C085D1858E01025F1F4F7A
S1133F90C8010E94391780914831811116C00C5014
S1133FA01109C8010E9439178A8D90914A319817D6
S1133FB010F480934A31BBE08B9FC0011124B801F7
S1133FC088589E4C0E94C71605C0B80183E591E34A
S1133FD00E94C716E091A431F091A53181E02A8DA9
S1133FE0928D291708F480E0DF91CF911F910F91F2
S1133FF0089520914531FC01208340914C3150912A
S11340004D3160914E3170914F31418352836383BE
S1134010748308958F929F92AF92BF92CF92DF9252
S1134020EF92FF920F931F93CF93DF93FC010FB690
S1134030F8940F92809145319081981789F080917E
S11340404C3190914D31A0914E31B0914F3101815D
S113405012812381348180179107A207B307A8F541
S113406080914C3190914D31A0914E31B0914F31AE
S1134070C180D280E380F480EB01088119812A8118
S11340803B818C199D09AE09BF0980179107A207CE
S1134090B307E8F4CF0180904C3190904D31A0905B
S11340A04E31B0904F31B501A4014C195D096E0930
S11340B07F09041B150B260B370B088319832A83EE
S11340C03B830E94F91F80E003C081E001C081E0CE
S11340D00F900FBEDF91CF911F910F91FF90EF9042
S11340E0DF90CF90BF90AF909F908F90089581E024
S11340F0809346310895009721F48091A4319091E2
S1134100A531DC015B96ED91FC915C978081813156
S113411041F4319680E090E0019621912131E1F360
S1134120089580E090E008958091A4319091A531A4
S113413008950F931F93CF93DF93FC01228DA091D9
S1134140A431B091A5315A968C91281708F041C03A
S1134150A091A431B091A5315A963C9184E090E0AD
S1134160A0E0B0E0831B9109A109B1098687978774
S1134170A08BB18B8BE0289F9001112428583E4CD2
S11341808485958582179307E9F48F01EF012296C0
S1134190CE010E943917E091A431F091A531828DAE
S11341A0F801828F90914A31981710F480934A3124
S11341B0FBE08F9FC0011124BE0188589E4C0E94D1
S11341C0C71607C0A091A431B091A5315A968C911D
S11341D0828FDF91CF911F910F9108950F931F93B9
S11341E0CF93DF93009749F1FC01328D27A1321759
S11341F021F1EC018C010E5F1F4FC8010E94391799
S11342008FA18A8F44E050E060E070E0481B5109C0
S1134210610971094E875F87688B798B90914A3168
S1134220981710F480934A31FBE08F9FC00111244A
S1134230B80188589E4C0E94C716DF91CF911F91F8
S11342400F910895052E97FB1EF400940E943921C6
S113425057FD07D00E94412107FC03D04EF40C9473
S1134260392150954095309521953F4F4F4F5F4FE1
S1134270089590958095709561957F4F8F4F9F4FCE
S11342800895A1E21A2EAA1BBB1BFD010DC0AA1F93
S1134290BB1FEE1FFF1FA217B307E407F50720F0AB
S11342A0A21BB30BE40BF50B661F771F881F991F26
S11342B01A9469F760957095809590959B01AC016F
S11342C0BD01CF010895FB01DC0102C001900D92F4
S11342D041505040D8F70895DC0101C06D9341501E
S11342E05040E0F70895FB01DC014150504048F094
S11342F001900D920020C9F701C01D924150504019
S1134300E0F708952532310520F4223010F00C94A2
S11343108D21FA011082CA010895BB27FA01A62F44
S11343206217710581059105330B30FB66F0AA27EE
S1134330660F771F881F991FAA1FA21710F0A21BD0
S113434063953850A9F7A05DAA3308F0A95DA1933D
S113435036F7B111B1931082CA010C94D4214532BD
S1134360510520F4423010F00C94BA21FB01108264
S1134370CB010895BB27FB015527AA27880F991F56
S1134380AA1FA41710F0A41B83955051B9F7A05D80
S1134390AA3308F0A95DA193009779F7B111B193FD
S11343A01192CB010C94D421DC01FC01672F719193
S11343B07723E1F7329704C07C916D937083629107
S11343C0AE17BF07C8F308955058BB27AA270E9409
S11343D0FC210C9476230E94682338F00E946F23FA
S11343E020F039F49F3F19F426F40C9465230EF45D
S11343F0E095E7FB0C945F23E92F0E94872358F391
S1134400BA17620773078407950720F079F4A6F5B5
S11344100C94A9230EF4E0950B2EBA2FA02D0B01BA
S1134420B90190010C01CA01A0011124FF27591BF5
S113443099F0593F50F4503E68F11A16F040A22FFB
S1134440232F342F4427585FF3CF4695379527956C
S1134450A795F0405395C9F77EF41F16BA0B620B6B
S1134460730B840BBAF09150A1F0FF0FBB1F661FB2
S1134470771F881FC2F70EC0BA0F621F731F841FF5
S113448048F4879577956795B795F7959E3F08F01B
S1134490B0CF9395880F08F09927EE0F97958795DD
S11344A008950E943B2308F481E008950E946A2243
S11344B00C9476230E946F2358F00E94682340F0E6
S11344C029F45F3F29F00C945F2351110C94AA2323
S11344D00C9465230E94872368F39923B1F3552331
S11344E091F3951B550BBB27AA2762177307840703
S11344F038F09F5F5F4F220F331F441FAA1FA9F399
S113450035D00E2E3AF0E0E832D091505040E69586
S1134510001CCAF72BD0FE2F29D0660F771F881FE7
S1134520BB1F261737074807AB07B0E809F0BB0BDA
S1134530802DBF01FF2793585F4F3AF09E3F5105EE
S113454078F00C945F230C94AA235F3FE4F3983E25
S1134550D4F3869577956795B795F7959F5FC9F7D7
S1134560880F911D9695879597F90895E1E0660F58
S1134570771F881FBB1F621773078407BA0720F0D1
S1134580621B730B840BBA0BEE1F88F7E09508953A
S11345900E94CF226894B1110C94AA2308950E941A
S11345A08F2388F09F5798F0B92F9927B751B0F00F
S11345B0E1F0660F771F881F991F1AF0BA95C9F7A3
S11345C014C0B13091F00E94A923B1E008950C9475
S11345D0A923672F782F8827B85F39F0B93FCCF328
S11345E0869577956795B395D9F73EF49095809520
S11345F0709561957F4F8F4F9F4F0895E89409C040
S113460097FB3EF490958095709561957F4F8F4F01
S11346109F4F9923A9F0F92F96E9BB279395F69517
S1134620879577956795B795F111F8CFFAF4BB0F95
S113463011F460FF1BC06F5F7F4F8F4F9F4F16C0F9
S1134640882311F096E911C0772321F09EE8872F83
S1134650762F05C0662371F096E8862F70E060E03F
S11346602AF09A95660F771F881FDAF7880F9695B8
S1134670879597F90895990F0008550FAA0BE0E85C
S1134680FEEF16161706E807F907C0F01216130610
S1134690E407F50798F0621B730B840B950B39F450
S11346A00A2661F0232B242B252B21F408950A26B6
S11346B009F4A140A6958FEF811D811D089597F9F6
S11346C09F6780E870E060E008959FEF80EC0895B4
S11346D000240A94161617061806090608950024DD
S11346E00A9412161306140605060895092E039457
S11346F0000C11F4882352F0BB0F40F4BF2B11F4CB
S113470060FF04C06F5F7F4F8F4F9F4F089557FD29
S11347109058440F551F59F05F3F71F04795880F2B
S113472097FB991F61F09F3F79F0879508951216C2
S113473013061406551FF2CF4695F1DF08C016166E
S113474017061806991FF1CF86957105610508941F
S11347500895E894BB2766277727CB0197F9089536
S11347600E943B2308F48FEF08950E94C8230C9401
S113477076230E94682338F00E946F2320F095234B
S113478011F00C945F230C94652311240C94AA2338
S11347900E94872370F3959FC1F3950F50E0551F36
S11347A0629FF001729FBB27F00DB11D639FAA2782
S11347B0F00DB11DAA1F649F6627B00DA11D661FD1
S11347C0829F2227B00DA11D621F739FB00DA11DF2
S11347D0621F839FA00D611D221F749F3327A00DAC
S11347E0611D231F849F600D211D822F762F6A2F48
S11347F011249F5750409AF0F1F088234AF0EE0FAD
S1134800FF1FBB1F661F771F881F91505040A9F7D9
S11348109E3F510580F00C945F230C94AA235F3FC4
S1134820E4F3983ED4F3869577956795B795F79515
S1134830E7959F5FC1F7FE2B880F911D969587958D
S113484097F90895DB018F939F930E943B24BF91B6
S1134850AF91A29F800D911DA39F900DB29F900DCB
S113486011240895EE0FFF1F881F8BBF0790F69148
S1134870E02D1BBE19940E944624A59F900DB49F61
S1134880900DA49F800D911D11240895A29FB00145
S1134890B39FC001A39F700D811D1124911DB29F70
S11148A0700D811D1124911D0895F894FFCF11
S11348AEFF0FFFFFFFFF000000007A11EA0CB10CAE
S11348BEC40C7411A80C000000007E04C712000082
S11348CE0000300CC71200000000990AC712000045
S11348DE0000270BC712000000004107C71200009A
S11348EE0000CF0BC712000000007A117C11751165
S11348FE771174117311000000007A11A6119B1127
S113490E7D1174117311000000007C11C7124C4903
S113491E4D4954205357495443482048495420453F
S113492E52524F52004F75747369646520416E671D
S113493E6C65205265636F766572790046726565A3
S113494E52544F5320586D656761205465737469D2
S113495E6E672050726F6772616D00557365724990
S113496E6E74004C656674537700526967687453AD
S113497E7700456E6350656E00456E634D7472002C
S113498E5379734374726C004D7472436D640049B1
S107499E444C45003C
S9030000FC
