:100000000C94E3030C9419040C9419040C94190433
:100010000C9419040C9419040C9419040C941904EC
:100020000C9419040C9419040C9419040C941904DC
:100030000C9419040C9419040C9419040C941904CC
:100040000C9419040C9419040C9419040C941904BC
:100050000C9419040C9419040C9419040C941904AC
:100060000C9419040C945A130C9419040C9419044C
:100070000C94FC120C9419040C9419040C9419049B
:100080000C9419040C9419040C9419040C9419047C
:100090000C9419040C9419040C9419040C9419046C
:1000A0000C9419040C9419040C9419040C9419045C
:1000B0000C9419040C9419040C9419040C9419044C
:1000C0000C9419040C949C1B0C9419040C941904A2
:1000D0000C9419040C9419040C9419040C9419042C
:1000E0000C9419040C9419040C94E2110C94190446
:1000F0000C9419040C9419040C9419040C9419040C
:100100000C9419040C9419040C9419040C941904FB
:100110000C9419040C9419040C9419040C941904EB
:100120000C9419040C9419040C9419040C941904DB
:100130000C9419040C9419040C9419040C941904CB
:100140000C9419040C9419040C9419040C941904BB
:100150000C9419040C9419040C9419040C941904AB
:100160000C949E120C9419040C9419040C944012D3
:100170000C9419040C9419040C9419040C9419048B
:100180000C9419040C9419040C9419040C9419047B
:100190000C9419040C9419040C9419040C9419046B
:1001A0000C9419040C9419040C9419040C9419045B
:1001B0000C9419040C9419040C9419040C9419044B
:1001C0000C9419040C9419040C9419040C9419043B
:1001D0000C9419040C9419040C9419040C9419042B
:1001E0000C9419040C9419040C9419040C9419041B
:1001F0000C9419040C9419040C941904F306740754
:100200007407740774077407740774077407740716
:100210007407740774077407740774077407740706
:1002200074077407740774077407740774077407F6
:1002300074077407740774077407740774077407E6
:1002400074077407740774077407740774077407D6
:1002500074077407740774077407740774077407C6
:1002600074077407740774077407740774077407B6
:1002700074077407740774077407740774077407A6
:1002800074077407740774077407080774073E0738
:10029000F30674072407EF067407740774077407DE
:1002A0007407B0057407740774075A07B506740716
:1002B0007407BE05A714AA14AD14B014B314B61471
:1002C000B814C914D114DB14D9140C94B6140C94BA
:1002D00074070C943F140C94B8140C9442140C94AE
:1002E000C9140C94201E0C94180B0C9460140C94DC
:1002F000EF060C94A7140C9424070C94D9140C94B6
:100300003E070C94700F0C943A140C94BE050C9498
:10031000B5060C94B3140C94A90F0C945A070C94C2
:10032000BE070C9441140C943C140C94F3060C94EA
:10033000B0140C9408070C94AD140C94830F0C9417
:1003400089140C948C150C94FB040C943F0A0C94A7
:10035000B0050C94DB140C94670F0C946B140C9484
:1003600038140C9424090C9439140C94CD0F0C946B
:10037000AA140C94A00A0C94D11400407A10F35AD9
:1003800000A0724E18090010A5D4E80000E87648D5
:10039000170000E40B54020000CA9A3B000000E181
:1003A000F505000080969800000040420F00000014
:1003B000A08601000000102700000000E8030000F4
:1003C00000006400000000000A00000000000100BE
:1003D000000000002C76D888DC674F0823DFC1DFDF
:1003E000AE59E1B1B796E5E3E453C63AE6519976E2
:1003F00096E8E6C28426EB898C9B62ED407C6FFC1C
:10040000EFBC9C9F40F2BAA56FA5F490055A2AF75D
:100410005C936B6CF9676DC11BFCE0E40D47FEF566
:1004200020E6B500D0ED902E0300943577050080CE
:10043000841E080000204E0A000000C80C3333332D
:10044000330F986E12831141EF8D2114893BE655CD
:1004500016CFFEE6DB18D1844B381BF77C1D901DB0
:10046000A4BBE424203284725E228100C9F124EC12
:10047000A1E53D270909002F0049444C45090930F1
:10048000092D0900092D2D2D2D00092D2D2D2D2D86
:100490002D2D2D2D2D002D2D2D2D09092D2D2D2D01
:1004A000092D2D2D2D2D000952756E7300094672F0
:1004B00065652F546F74616C004E616D650909505C
:1004C00072692E0953746174650009537461636B1A
:1004D000005461736B090920200920002C2054432B
:1004E00043304343413D002F002C2048656170207C
:1004F000667265653A200054696D653A20004A7558
:100500006C2020352032303236004D4534303520D5
:100510006261736520726164696F2070726F6772C7
:10052000616D2056302E3420001B5B32326D00543A
:1005300061736B3A2049444C45001B5B316D0049A7
:100540006C6C6567616C2073746174652120526501
:1005500073657474696E6720415652003A57544669
:100560003F0052657365742C2074727920486F6D5A
:10057000696E6720616761696E20627920707265BB
:100580007373696E672027622700454D45524745C2
:100590004E43592053544F5000436F6D6D656E6349
:1005A000652042616C616E636500426567696E201B
:1005B000486F6D696E67004578697420636F6D6D73
:1005C000616E64206D6F6465005265736574746953
:1005D0006E672041565200507265737320437472E7
:1005E0006C2D4120666F7220636F6D6D616E6420AB
:1005F0006D6F64650020202020683A20202048414B
:100600004C50210020202020723A20202052657377
:10061000657420746F2049646C650020202020647C
:100620003A202020456D657267656E6379205374AA
:100630006F700020202020673A20202053746172C0
:10064000742042616C616E6365210020202020626D
:100650003A202020426567696E2043616C696272AE
:100660006174696F6E0020202020653A20202045AB
:1006700078697420636F6D6D616E64206D6F646561
:100680000020202020733A202020537461636B20C7
:1006900064756D7020666F72207461736B730020D7
:1006A000202020763A20202056657273696F6E20D4
:1006B000616E6420736574757020696E666F726D0B
:1006C0006174696F6E00202020206E3A2020205334
:1006D000686F77207468652074696D65207269673A
:1006E0006874206E6F77002020496E20636F6D6DF7
:1006F000616E64206D6F6465206F6E6C793A0020C6
:100700002043746C2D413A20456E74657220636FEE
:100710006D6D616E64206D6F646500202043746CA4
:100720002D433A20526573657420746865204156E4
:1007300052002068656C70004D4534303520626190
:10074000736520726164696F2070726F6772616D8A
:100750002056302E3420001B5B33306D001B5B3481
:10076000366D004552524F52206372656174696E56
:1007700067207461736B20002C20737461636B209D
:100780006174203078002063726561746564005480
:1007900061736B20001B5B32326D005461736B3AE6
:1007A00020001B5B316D00090009002F00090009C2
:1007B000001B5B32326D001B5B316D001B5B316DCA
:1007C00000202000CD0F11241FBECFEFCDBFDFE3EF
:1007D000DEBF00E00CBF18BE19BE1ABE1BBE11E280
:1007E000A0E0B0E2EAE0F3E500E00BBF02C0079052
:1007F0000D92A433B107D9F71BBE21E3A4E3B1E204
:1008000001C01D92AA3EB207E1F713E0C3EED3E0A8
:1008100000E006C021970109802FFE010E94602997
:10082000C23ED10780E00807A9F70E94F10F0C949F
:1008300083290C9400000F931F93CF93DF93EC0157
:100840006AE08E819F810E9498148C016DE577E0AB
:100850000E94DF146AE0C8010E9498148C0167E5C9
:1008600077E00E94DF1467E0C8010E9498146AE0F4
:100870008E819F810E9498148C0168E377E00E942A
:10088000DF146AE0C8010E9498148C0162E377E0EB
:100890000E94DF1466E0C8010E9498146AE08E810D
:1008A0009F810E9498148C016BE177E00E94DF1415
:1008B00066E0C8010E9498146AE08E819F810E94C0
:1008C00098148C016FEF76E00E94DF1466E0C80197
:1008D0000E9498146AE08E819F810E9498148C0176
:1008E00067EE76E00E94DF1466E0C8010E9498146B
:1008F0006AE08E819F810E9498148C0166EC76E0FC
:100900000E94DF1466E0C8010E9498146AE08E819C
:100910009F810E9498148C016FE976E00E94DF1499
:1009200066E0C8010E9498146AE08E819F810E944F
:1009300098148C0161E876E00E94DF1466E0C8013B
:100940000E9498146AE08E819F810E9498148C0105
:1009500066E676E00E94DF1466E0C8010E94981403
:100960006AE08E819F810E9498148C016BE476E08E
:100970000E94DF1466E0C8010E9498146AE08E812C
:100980009F810E9498148C0163E376E00E94DF143B
:1009900066E0C8010E9498146AE08E819F810E94DF
:1009A00098148C016BE176E00E94DF1466E0C801C8
:1009B0000E9498146AE08E819F810E9498148C0195
:1009C00064E076E00E94DF1466E0C8010E9498149B
:1009D0006AE08E819F810E949814EC0165EF75E0BA
:1009E0000E94DF1466E0CE010E949814DF91CF913F
:1009F0001F910F910895CF93DF93CDB7DEB72C975A
:100A0000CDBFDEBF7C0119821A821B821C821D822F
:100A10001E826AE0DC0116968D919C9117970E94C8
:100A200098146C0167ED75E00E94DF1466E0C60162
:100A30000E94981411E0812C6894992493F80F2E49
:100A4000FCE7AF2EF1E2BF2EF02DF701848588235D
:100A500021F0813009F460C063C286819781DC0196
:100A6000ED91FC910480F581E02D1995882309F41E
:100A700037C0F70186819781DC01ED91FC910680FA
:100A8000F781E02D1995992781309105F9F00397A9
:100A900009F061C26AE0F701868197810E9498148B
:100AA0007C0169EC75E00E94DF1466E0C7010E94DA
:100AB000981493E088ED08B618BE84BF9093800028
:100AC0008091820081FDFCCF08BEFFCFC7010E944C
:100AD0001B04D7011C961C931C971D961C933BC2AC
:100AE0008EE491E20E946014882309F434C2D70195
:100AF0001696ED91FC9117970190F081E02DC28040
:100B0000D3808EE491E20E944214682FF70186811F
:100B10009781F60119951FC286819781DC01ED91BD
:100B2000FC910480F581E02D1995882309F413C206
:100B3000F70186819781DC01ED91FC910680F781B8
:100B4000E02D1995BC01FC01FF277B97EC35F105E1
:100B500008F0CAC18827E250FF4F8F4F0C946029DC
:100B6000CE0101960E94CB16BC01F70186819781C8
:100B70000E94E31666E00E949814EDC11F82188659
:100B800019861A861B861C860E9472193C01CE01AA
:100B900007960E94CB162C0166E0D70116968D9120
:100BA0009C9117970E9498146AE00E9498146C0117
:100BB0006AE075E00E94DF146AE0C6010E949814A2
:100BC0006C016EEF74E00E94DF1466E0C6010E94C3
:100BD00098146AE00E9498146C0167EF74E00E9418
:100BE000DF14B201C6010E94E3166AE00E94981465
:100BF0006C0169EE74E00E94DF14B301C6010E942B
:100C000058156AE00E9498146C0167EE74E00E9427
:100C1000DF144FEF5FE060E070E0C6010E94161540
:100C2000F40160A471A46AE0D70116968D919C919D
:100C300017970E9498146C016CED74E00E94DF1409
:100C4000B301C6010E94581566E00E94981466E040
:100C50000E949814F701C680D7806AE0C6010E94FE
:100C600098143C0161ED74E00E94DF146AE0C30156
:100C70000E9498143C016AEC74E00E94DF1466E064
:100C8000C3010E9498146AE0C6010E9498143C01B6
:100C900069EB74E00E94DF146AE0C3010E949814BB
:100CA0003C016DEA74E00E94DF146AE0C3010E9417
:100CB00098143C0167EA74E00E94DF1466E0C30107
:100CC0000E9498146AE0C6010E9498143C0166E9EB
:100CD00074E00E94DF146AE0C3010E9498143C0192
:100CE0006AE874E00E94DF146AE0C3010E9498146D
:100CF0003C0164E874E00E94DF1466E0C3010E94D6
:100D00009814D5018D919C91009719F0B6010E941D
:100D100074170E94D51F0E944023082F6AE0C60165
:100D20000E9498146C0169E774E00E94DF14602F40
:100D3000C6010E94B8136AE00E9498146C0167E72C
:100D400074E00E94DF1464E670E0C6010E9458154A
:100D50006AE00E9498146C0164E774E00E94DF145A
:100D600066E0C6010E949814F6C0F701C680D780DD
:100D700080917C2190917D21009719F0B6010E940D
:100D800090176AE0C6010E9498143C016AE375E07E
:100D90000E94DF146AE0C3010E9498143C016FE2D4
:100DA00075E00E94DF146AE0C3010E9498143C01C0
:100DB00069E275E00E94DF1466E0C3010E949814A6
:100DC0008091E8319091E931BC016F5F7F4F01E183
:100DD000212FA601835691090E941C16BCC0C70191
:100DE0000E941B04B8C06AE0D70116968D919C91B1
:100DF00017970E9498146C0167EB75E00E94DF144E
:100E000066E0C6010E949814F70114861586A3C0F7
:100E1000E0913A21F0913B210FB6F8940F921083A4
:100E20000F900FBE6AE0D70116968D919C9117978F
:100E30000E9498146C016AEA75E00E94DF1466E073
:100E4000C6010E94981487C0E0913821F0913921A1
:100E50000FB6F8940F9210830F900FBE6AE0F7015F
:100E6000868197810E9498146C0169E975E00E945F
:100E7000DF1466E0C6010E9498146DC0E09136212F
:100E8000F09137210FB6F8940F9210830F900FBE98
:100E90006AE0D70116968D919C9117970E9498143D
:100EA0006C016AE875E00E94DF1466E0C6010E94EA
:100EB000981451C0E0913421F09135210FB6F89487
:100EC0000F9210830F900FBE6AE0F7018681978121
:100ED0000E9498146C0162E675E00E94DF1466E0DF
:100EE000C6010E94981437C0D70116968D919C9127
:100EF0001797DC01ED91FC910280F381E02D1995AB
:100F00006AE0F701868197810E9498146C016CE574
:100F100075E00E94DF1466E0C6010E9498141BC0B1
:100F20006AE0868197810E9498147C016FE375E0E6
:100F30000E94DF1466E0C7010E94981493E088EDD8
:100F400008B618BE84BF909380008091820081FD16
:100F5000FCCF08BEFFCFF70186859785A089B189B0
:100F60000196A11DB11D86879787A08BB18B64E187
:100F700070E080E090E00E94CA2167CDCF93DF93BC
:100F8000CDB7DEB76D97CDBFDEBF2C010E94BF1F6E
:100F900069837A838B839C83E0E8F6E083E0828335
:100FA000808B818BE0E8F1E080E7828389E08287B3
:100FB000E0E4F8E08AE683838DEC97E086A397A3CC
:100FC00081E0808360A071A0C980DA80EB80FC8022
:100FD0001D8A198A1A8A1B8A1C8A1E8A1F8A188EE1
:100FE000198E812C912C54010E94BF1F6D877E8722
:100FF0008F87988B6C197D098E099F090E942C2878
:1010000020E030E04AE754E40E94842769877A8729
:101010008B879C87E0906008F09061088701061933
:101020001709B801012E000C880B990B0E942E287D
:101030006D837E838F83988720E030EA49E754E40C
:101040000E94DE28181674F420E030EA49EF54E4D8
:101050006D817E818F8198850E9412270E94F627DC
:101060008B0119C020E030EA49E754EC6D817E81A4
:101070008F8198850E947F2788236CF420E030EAD6
:1010800049EF54E46D817E818F8198850E941327FA
:101090000E94F6278B01119501951109C801012EB7
:1010A000000CAA0BBB0B880E991EAA1EBB1EC50105
:1010B000B4010E942E2829E532E34EE45BE30E944E
:1010C000E328662E372E282E792E20E030E0A90165
:1010D00069857A858B859C850E94DE2818160CF020
:1010E0006CC08D8981111DC0B801110F880B990B3F
:1010F0000E942E2829E532E34EE45BE30E94E328B8
:1011000029853A854B855C850E948427698B7A8B7B
:101110008B8B9C8B6E8A3F8A288E798E91E09D8B7B
:101120004CC029853A854B855C8569897A898B898C
:101130009C890E94E3282E893F89488D598D0E9401
:1011400013276D837E838F8398879B01AC01662D67
:10115000732D822D972D0E9412276A8F7B8F8C8F83
:101160009D8F2DEC3CEC4CE45FE30E94E3282D8145
:101170003E814F8158850E9413276E8B7F8B888F0D
:10118000998F29853A854B855C8569E878E888E000
:101190009FE30E9484272A8D3B8D4C8D5D8D0E949C
:1011A000E3289B01AC0169897A898B899C890E941B
:1011B0001327698B7A8B8B8B9C8BE0914421F09168
:1011C00045210FB6F8940F92808291820F900FBE46
:1011D000E0914221F09143210FB6F8940F92862DB1
:1011E000932DA22DB72D80839183A283B3830F907B
:1011F0000FBEE0914021F09141210FB6F8940F927B
:1012000089899A89AB89BC8980839183A283B383BE
:101210000F900FBEF20186859785A089B18901964E
:10122000A11DB11D86879787A08BB18B41E050E04F
:1012300060E070E0CE0101960E945D213701CD840F
:10124000DE84EF84F888D0CECF93DF93CDB7DEB7BE
:101250006597CDBFDEBF8D879E870E94BF1F6983C4
:101260007A838B839C83E0E8F6E08CE0828382893A
:101270008360828B83898360838BE0E8F1E082E77F
:10128000808389E08087E0E0F9E088E683838FEF60
:101290009FEF86A397A381E08083E0913E21F091A8
:1012A0003F210FB6F8940F9210821182128213829E
:1012B0000F900FBEC980DA80EB80FC80198A412C28
:1012C000512C32011A8A1B8A1C8A1D8A1D8219869A
:1012D0001F86188A0E94BF1F4B015C016C197D0993
:1012E0008E099F090E942C2820E030E04AE754E450
:1012F0000E9484276B017C01609120097091210973
:101300000FB6F8940F920F900FBE072E000C880BAB
:10131000990B0E942E2822E838EA4BE758E30E94F6
:10132000E328E0913E21F0913F21208131814281EB
:1013300053810E941227162F072F382E292EE09155
:101340004821F09149210FB6F8940F92862F902FE3
:10135000A32DB22D80839183A283B3830F900FBE00
:1013600020E030E0A901C701B6010E94DE2818166E
:101370000CF05CC08989811117C02D8139854F859A
:101380005889612F702F832D922D0E941227A7015B
:1013900096010E9484272B013C011A8B0B8B3C8AFF
:1013A0002D8AE1E0E98B42C0A7019601C301B20199
:1013B0000E94E3282A893B894C895D890E94132772
:1013C0006D837E838F8398879B01AC01612F702F83
:1013D000832D922D0E94122769877A878B879C879D
:1013E0002DEC3CEC4CE45FE30E94E3282D813E8130
:1013F0004F8158850E9413276A8B7B8B8C8B9D8B2A
:10140000A701960169E878E888E09FE30E948427B5
:1014100029853A854B855C850E94E3289B01AC01B8
:10142000C301B2010E9413272B013C01E091462128
:10143000F09147210FB6F8940F9240825182628258
:1014400073820F900FBEED85FE8586859785A089F6
:10145000B1890196A11DB11D86879787A08BB18B9D
:1014600041E050E060E070E0CE0101960E945D2115
:101470001D8309873F86288A750164012BCFCF938E
:10148000DF9300D01F92CDB7DEB78C010E94BF1F43
:1014900069837A838B839C83A0E4B6E087E011960E
:1014A0008C93119784E015968C931597E0E0F8E003
:1014B00081E0808383E08183A6A3B7A310A611A651
:1014C00012A613A6818180638183E12C6894FF2496
:1014D000F3F80FB6F8940F92E0913C21F0913D2182
:1014E000808191810F900FBEF801828B938B99239D
:1014F00034F0F70180A791A712A613A60CC0F7013C
:1015000010A611A6F8018289938991958195910978
:10151000F70182A793A7F80186859785A089B189ED
:101520000196A11DB11D86879787A08BB18B41E0E5
:1015300050E060E070E0CE0101960E945D21C9CFCD
:10154000CF93DF9300D01F92CDB7DEB78C010E94FE
:10155000BF1F69837A838B839C83E0E6F6E09081EA
:10156000D80152968C915297892B80839481529600
:101570008C915297892B848352968C91813021F4DF
:1015800088E18093700605C0843019F488E1809367
:1015900072060F2EF8E6EF2EF6E0FF2EF02DDD247A
:1015A000D394F701808180FD0BC0E0914C21F09134
:1015B0004D210FB6F8940F92D0820F900FBE0AC043
:1015C000E0914C21F0914D210FB6F8940F921082CA
:1015D0000F900FBED7018C9182FD0BC0E0914A2184
:1015E000F0914B210FB6F8940F92D0820F900FBE5E
:1015F0000AC0E0914A21F0914B210FB6F8940F9266
:1016000010820F900FBEF80186859785A089B18959
:101610000196A11DB11D86879787A08BB18B45E0F0
:1016200050E060E070E0CE0101960E945D21B9CFEC
:10163000CF93DF93CDB7DEB76D97CDBFDEBF1C0173
:101640000E94BF1F69837A838B839C8380E190E033
:101650000E94A5188C8B9D8B80E1E6E0F0E2AC89BE
:10166000BD8901900D928A95E1F7B12C1B2DD10116
:101670001C968C91823009F4CCC030F4882369F038
:10168000813009F47AC00EC4843009F4B6C108F47C
:10169000F4C0843609F4D6C305C4E0913E21F0912C
:1016A0003F210FB6F8940F9210821182128213829A
:1016B0000F900FBEF101168E178E10A211A20FB659
:1016C000F8940F920F900FBEE0913A21F0913B21D8
:1016D0008081882309F4E1C3E0913421F091352120
:1016E0000FB6F8940F9210820F900FBEE091362142
:1016F000F09137210FB6F8940F9210820F900FBE21
:10170000E0913C21F0913D210FB6F8940F928CEDC1
:1017100090E0808391830F900FBE0FB6F8940F92E4
:101720000F900FBEE0914A21F0914B2180818823D8
:1017300009F4B5C30FB6F8940F92E0914821F091E7
:10174000492180819181A281B3810F900FBEE091E8
:101750003E21F0913F210FB6F8940F928083918340
:10176000A283B3830F900FBE81E0D1011C968C93AE
:101770001C971D968C9310E095C3E0913A21F0914F
:101780003B210FB6F8940F9210820F900FBEE0919C
:101790003C21F0913D210FB6F8940F9284E29FEF27
:1017A000808391830F900FBE0FB6F8940F920F9025
:1017B0000FBEE0914C21F0914D2180818823A9F04A
:1017C0000FB6F8940F92E0914821F0914921808161
:1017D0009181A281B3810F900FBEF101828B938B17
:1017E000A48BB58B82E0848785870FB6F8940F921F
:1017F0000F900FBEE0913421F09135218081882334
:1018000009F450C3D1011C961C921C971D961C9282
:1018100049C3E0913C21F0913D210FB6F8940F921D
:10182000108211820F900FBE68EC70E080E090E0B3
:101830000E94CA210FB6F8940F920F900FBEE0914C
:101840004C21F0914D218081882371F0E0913C2161
:10185000F0913D210FB6F8940F928CED90E08083CB
:1018600091830F900FBE1EC3E3E0D1011C96EC9351
:101870001C97F3E01D96FC9315C320E030E040E098
:101880005FE3D10152966D917D918D919C91559719
:101890000E94E328F101668B778B808F918F0FB6C2
:1018A000F8940F920F900FBEE0914821F0914921DA
:1018B00020813181428153810E9412274B015C01BA
:1018C000D1015A966D937D938D939C935D975E960F
:1018D0002D913D914D915C9191970E9413272B0181
:1018E0003C01F101668F778F80A391A3E0903C21AA
:1018F000F0903D210FB6F8940F9226A137A140A594
:1019000051A5C501B4010E94E3284B015C01F1011E
:1019100022A533A544A555A5C301B2010E94E32821
:101920009B01AC01C501B4010E9413270E94F62758
:10193000D7016D937C930F900FBE0FB6F8940F9262
:101940000F900FBEE0914C21F0914D2180818111CB
:101950000CC00FB6F8940F920F900FBEE0914A2181
:10196000F0914B2180818823A1F0F101E680F7807E
:101970006EE770E2C7010E94DF1466E0C7010E94B3
:101980009814E4E6D1011C96EC931C97F4E61D969E
:10199000FC93E0913421F09135210FB6F8940F9229
:1019A0000F900FBE80818823B1F00FB6F8940F928C
:1019B00010820F900FBEE0913621F09137210FB6C3
:1019C000F8940F9210820F900FBED1011C961C92BA
:1019D0001C971D961C920FB6F8940F920F900FBE95
:1019E000E0913821F09139218081882309F45AC28D
:1019F00084E0F1018487858755C20FB6F8940F9271
:101A00000F900FBEE0913621F0913721808188231D
:101A100041F0E4E6D1011C96EC931C97F4E61D9688
:101A2000FC93111112C00FB6F8940F92E09142216D
:101A3000F091432180819181A281B3810F900FBEEB
:101A4000F10186A797A7A0ABB1ABE0913821F09147
:101A500039210FB6F8940F9210820F900FBE0FB677
:101A6000F8940F920FB6F8940F92E0914821F091FC
:101A7000492140805180628073800F900FBE0FB665
:101A8000F8940F92E0914621F09147218081918155
:101A9000A281B3818A8F9B8FAC8FBD8F0F900FBEB9
:101AA0000FB6F8940F92E0914221F091432180808B
:101AB0009180A280B3800F900FBE0FB6F8940F9262
:101AC000E0914021F091412180819181A281B381F7
:101AD0008E8B9F8BA88FB98F0F900FBE0F900FBE6C
:101AE000AC89BD891D921D921D921C921397FD0118
:101AF000148215821682178218961D921D921D92CD
:101B00001C921B97FD011486158616861786D10137
:101B10009E962D913D914D915C91D197C501B40157
:101B20000E9412276B017C012FE630EF45E85EE34F
:101B30000E94DE28882354F42FE630EF45E85EEB60
:101B4000C701B6010E947F278823A4F4F101068112
:101B5000178165E970E2C8010E94DF1466E0C801E0
:101B60000E949814E4E6D1011C96EC931C97F4E6CD
:101B70001D96FC93D10156962D913D914D915C910E
:101B80005997C301B2010E9412272CE832E34FE3B8
:101B900051EC0E94E3286B017C0121E03BE544E22B
:101BA00051EC6A8D7B8D8C8D9D8D0E94E3289B016D
:101BB000AC01C701B6010E9413276B017C0126E529
:101BC0003EE049E450E4C501B4010E94122725E635
:101BD00032E64AE851E40E94E3289B01AC01C701C8
:101BE000B6010E9413276B017C0124ED37E449E222
:101BF00050E46E897F89888D998D0E94E3289B012E
:101C0000AC01C701B6010E941327905820E030E0D4
:101C100044E852E40E94E3286B017C0120E030E0BC
:101C200048EC54E40E94DE2818169CF020E030E0D6
:101C300048EC54ECC701B6010E947F2788238CF43E
:101C40000F2EC12CD12CF8ECEF2EF4ECFF2EF02D42
:101C500008C00F2EC12CD12CF8ECEF2EF4E4FF2E8F
:101C6000F02D00913C2110913D210FB6F8940F9278
:101C7000C701B6010E94F627F801608371830F90B7
:101C80000FBED1011E966D917D918D919C915197C2
:101C900024E630E040E050E00E940624672B682BE9
:101CA000692B09F080C08E010F5E1F4F23E040E0DA
:101CB000C301B2010E9428243C01F1010681178171
:101CC0006CEA70E2C8010E94DF14B301C8010E94EF
:101CD000DF148E01025F1F4F23E040E06A8D7B8D91
:101CE0008C8D9D8D0E9428243C01D10116960D916A
:101CF0001C91179760EB70E2C8010E94DF14B301DA
:101D0000C8010E94DF1420ED3FE049E450E4C50122
:101D1000B4010E9412278E01055F1F4F23E040E0AF
:101D20000E9428245C01F1010681178169EB70E2B1
:101D3000C8010E94DF14B501C8010E94DF148E01A2
:101D4000085F1F4F23E040E06E897F89888D998D61
:101D50000E9428245C01D10116960D911C911797C1
:101D600063EC70E2C8010E94DF14B501C8010E9453
:101D7000DF148E010B5F1F4F23E040E0C701B60167
:101D80000E9428247C01F1010681178160ED70E238
:101D9000C8010E94DF14B701C8010E94DF1466E089
:101DA000C8010E9498140FB6F8940F920F900FBEBE
:101DB000E0914C21F0914D21808181110CC00FB632
:101DC000F8940F920F900FBEE0914A21F0914B21B1
:101DD0008081882391F0D10116960D911C9117975F
:101DE0006EE770E2C8010E94DF1466E0C8010E943D
:101DF000981484E6F10184878587E0913421F0917D
:101E000035210FB6F8940F920F900FBE8081882372
:101E100009F447C00FB6F8940F9210820F900FBECE
:101E2000E0913621F09137210FB6F8940F9210828D
:101E30000F900FBED1011C961C921C971D961C92F0
:101E400011E030C0E0913C21F0913D210FB6F894B3
:101E50000F92108211820F900FBEE0913421F09109
:101E600035210FB6F8940F920F900FBE8081882312
:101E7000C9F00FB6F8940F9210820F900FBEE09148
:101E80003621F09137210FB6F8940F9210820F90FF
:101E90000FBEF1011486158605C010E003C010E0E6
:101EA00001C011E0F10186859785A089B18901966D
:101EB000A11DB11D86879787A08BB18B41E050E0B3
:101EC00060E070E0CE0101960E945D21D0CBDC0184
:101ED000ED91FC910280F381E02D6CE0199508955D
:101EE000CF93DF93EC01A98DBA8DEB8DFC8D81E052
:101EF0004D915C91208131814217530709F480E0B4
:101F0000DF91CF910895CF93DF93FC01C18DD28DE6
:101F100028813981A38DB48D4D915C9124173507AB
:101F2000E9F3A789B08D0D90BC91A02DA20FB31F2E
:101F30008C912F5F3F4F288339832436310528F059
:101F4000018CF28DE02D1082118290E0DF91CF9113
:101F50000895DC015096ED91FC9151978081549643
:101F60004C915497842329F009C02150310919F468
:101F700012C021E23EE490819423B9F390815696F9
:101F80008C915697892B80831E96ED91FC911F971B
:101F9000608381E0089580E00895CF93DF93CEE4DD
:101FA000D1E28AE08A831B8283E08D831C821E82B9
:101FB0001F828AE690E2888399831E861F8640E00E
:101FC00061E080E20E948B1C888799878AE090E01C
:101FD000A0E0B0E08A879B87AC87BD87DF91CF9177
:101FE0000895AF92BF92DF92EF92FF920F931F93EB
:101FF000CF93DF93CDB7DEB76E97CDBFDEBFE0E600
:10200000F6E080E181838583F894E0E5F0E080816B
:1020100082608083818181FFFDCF809140009FB7E6
:102020009E8FF8941BBE887F816020E430E0F90128
:1020300008ED04BF80838E8D8FBFE0E5F0E08081E6
:102040008E7F80839DEF88ED08B618BE84BF909385
:10205000800008BE81E090E00E94A51880934C218A
:1020600090934D2181E090E00E94A51880934A2131
:1020700090934B2184E090E00E94A5188093482122
:102080009093492184E090E00E94A5188093462116
:102090009093472182E090E00E94A51882E090E0B2
:1020A0000E94A51882E090E00E94A5188093442128
:1020B0009093452184E090E00E94A51880934221EE
:1020C0009093432184E090E00E94A51880934021E2
:1020D0009093412184E090E00E94A51880933E21D6
:1020E00090933F2182E090E00E94A51880933C21CC
:1020F00090933D2181E090E00E94A51880933A21C1
:1021000090933B2181E090E00E94A51880933821B4
:102110009093392181E090E00E94A51880933621A8
:102120009093372181E090E00E94A518809334219C
:10213000909335218AE590E289839A838AE08B83A4
:102140001C8243E04E831D821F821886A0E4B6E005
:10215000AB87BC8786E08D870F2EF7E0DF2EF02D52
:10216000DE86E0EBF8E0EF87F88B81EB98E0898B77
:102170009A8B84EB98E08B8B9C8B2E8514965C91CC
:10218000149781E090E0BC0102C0660F771F2A958A
:10219000E2F79B01252B14962C932E85AB85BC85ED
:1021A0005C91BC0102C0660F771F2A95E2F79B0184
:1021B000252B2C933D85AB85BC852C9102C0880FC7
:1021C000991F3A95E2F78095909582238C936894B5
:1021D000BB24B4F8B382458380EF878381E2868392
:1021E00088E1848380E88E8B80E48F8B80E28D8B06
:1021F000EF85F889808180818AE190E289839A83E2
:1022000084E791E2888F998F82E791E28A8F9B8F92
:1022100080E791E28C8F9D8F84E690E00E94A51864
:102220008093742190937521EA8DFB8D1082118229
:10223000EC8DFD8D1082118267E0CE0101960E9427
:1022400098147C016CED70E20E94DF1466E0C70117
:102250000E94981466E00E94981482E190E00E9427
:10226000A5187C018E010F5F1F4F24E031E040E094
:102270006BEF70E20E94DE178AE290E2D7018D9345
:102280009C9382E190E00E94A5187C0124E031E05B
:1022900044E063E071E20E94DE1782E390E2F7011E
:1022A0008083918382E190E00E94A5187C0124E064
:1022B00031E044E06AE071E20E94DE178AE390E2D6
:1022C000D7018D939C9382E490E00E94A5187C0135
:1022D00024E031E044E061E171E20E94DE1782E433
:1022E00090E2F70180839183128E138E148E158EE7
:1022F000168E178E10A211A280E090E8ABEBB5E429
:1023000086A397A3A0A7B1A780E090E0A0E4B0E4E3
:1023100082A793A7A4A7B5A7F296DF011D92BA944E
:10232000E9F784E190E00E94A5187C0124E031E007
:1023300043E069E171E20E94DE178AE490E2F7016E
:1023400080839183128A138A83E190E00E94A5180A
:102350007C0124E031E042E060E271E20E94DE179D
:102360000F2EF2E5AF2EF0E2BF2EF02DD701AD9289
:10237000BC92119781E052968C9383E190E00E9489
:10238000A5187C0124E031E041E067E271E20E949F
:10239000DE17F701A082B18284E0828BD092A20086
:1023A00078940E94861F80E090E06E96CDBFDEBFDD
:1023B000DF91CF911F910F91FF90EF90DF90BF9031
:1023C000AF9008951F920F920FB60F92112408B686
:1023D0000F9218BE0BB60F921BBE2F933F938F9395
:1023E0009F93EF93FF932091A00AE0916221F091D7
:1023F000632180915E2190915F21E80FF91F208376
:1024000080915E2190915F2101968436910560F460
:1024100080935E2190935F21209160213091612112
:1024200082179307F1F40CC010925E2110925F2185
:1024300080916021909161211816190691F40EC0C7
:1024400001968436910528F4809360219093612150
:1024500008C0109260211092612103C081E090E0D9
:10246000F3CFFF91EF919F918F913F912F910F901B
:102470000BBE0F9008BE0F900FBE0F901F901895C7
:102480001F920F920FB60F92112408B60F9218BE2A
:102490000BB60F921BBE2F933F938F939F93EF9397
:1024A000FF932091B009E0916821F091692180911A
:1024B000642190916521E80FF91F208380916421A8
:1024C0009091652101968436910560F48093642192
:1024D000909365212091662130916721821793079F
:1024E000F1F40CC010926421109265218091662154
:1024F000909167211816190691F40EC00196843642
:10250000910528F4809366219093672108C010926A
:1025100066211092672103C081E090E0F3CFFF9124
:10252000EF919F918F913F912F910F900BBE0F9044
:1025300008BE0F900FBE0F901F9018951F920F921C
:102540000FB60F92112408B60F9218BE0BB60F9259
:102550001BBE2F933F938F939F93EF93FF932091F5
:10256000A009E0916E21F0916F21809176219091E8
:102570007721E80FF91F208380916A2190916B21C8
:1025800001968436910560F480936A2190936B21C3
:1025900020916C2130916D2182179307F1F40CC0CA
:1025A00010926A2110926B2180916C2190916D2183
:1025B0001816190691F40EC001968436910528F478
:1025C00080936C2190936D2108C010926C21109221
:1025D0006D2103C081E090E0F3CFFF91EF919F91D7
:1025E0008F913F912F910F900BBE0F9008BE0F90CF
:1025F0000FBE0F901F9018951F920F920FB60F925B
:10260000112408B60F9218BE0BB60F921BBE2F9363
:102610003F938F939F93EF93FF932091B008E091A6
:102620007421F09175218091702190917121E80FB2
:10263000F91F208380917021909171210196843639
:10264000910560F480937021909371212091722103
:102650003091732182179307F1F40CC0109270210E
:102660001092712180917221909173211816190690
:1026700091F40EC001968436910528F4809372215E
:102680009093732108C0109272211092732103C09D
:1026900081E090E0F3CFFF91EF919F918F913F9177
:1026A0002F910F900BBE0F9008BE0F900FBE0F9092
:1026B0001F9018951F920F920FB60F92112408B613
:1026C0000F9218BE0BB60F921BBE2F933F938F93A2
:1026D0009F93EF93FF932091A008E0917A21F091CE
:1026E0007B218091762190917721E80FF91F20833B
:1026F000809176219091772101968436910560F43E
:1027000080937621909377212091782130917921BF
:1027100082179307F1F40CC0109276211092772162
:1027200080917821909179211816190691F40EC0A4
:1027300001968436910528F480937821909379212D
:1027400008C0109278211092792103C081E090E0B6
:10275000F3CFFF91EF919F918F913F912F910F9028
:102760000BBE0F9008BE0F900FBE0F901F901895D4
:10277000CF92DF92EF92FF920F931F93CF93DF934D
:10278000CDB7DEB72997CDBFDEBF8C01E62EDC01C9
:1027900013968C911397882341F0ED91FC91028060
:1027A000F381E02DC801199556C0F80142814230ED
:1027B00019F56894CC24C3F8D12C6894FF24F7F859
:1027C0008E2D8F2151F0D801ED91FC910280F38183
:1027D000E02D61E3C801199509C0D801ED91FC9184
:1027E0000280F381E02D60E3C8011995F694B1E011
:1027F000CB1AD10829F72FC04031F9F462956F70D8
:102800000190F081E02D0280F381E02D6A3010F01C
:10281000695C01C0605DC80119956E2D6F70D801AB
:10282000ED91FC910280F381E02D6A3010F0695C3B
:1028300001C0605DC80119950EC050E0BE016F5F18
:102840007F4F8E2D90E00E946C25BE016F5F7F4F01
:10285000C8010E94DF14C8012996CDBFDEBFDF91F9
:10286000CF911F910F91FF90EF90DF90CF9008953F
:102870000895089580E0089580E090E0089581E053
:10288000089508950F93CF93DF931F92CDB7DEB7CE
:1028900000E02FEF3FEFA901BE016F5F7F4FFC010A
:1028A000808591850E94541D813019F4898190E0C2
:1028B00002C08FEF9FEF0F90DF91CF910F9108959E
:1028C000FC01808591850E94181E91E0811101C054
:1028D00090E0892F08950F93CF93DF931F92CDB788
:1028E000DEB76983FC01228533854485558500E088
:1028F000BE016F5F7F4F808591850E94B91C91E07A
:10290000811101C090E0892F0F90DF91CF910F913D
:102910000895EC01E881F9810190F081E02D19958D
:102920001A821B826FEF7FEFCB010E94CA21FACF80
:10293000CF93DF93EC01862F90E08B309105D8F593
:10294000FC018827E65AFE4F8F4F0C94602982E0E5
:102950008A8331C088E08A832EC08AE08A832BC0B4
:1029600080E18A8328C081E08B8325C01B8223C03D
:10297000E881F9810280F381E02D6DE0CE011995A7
:10298000E881F9810280F381E02D6AE0CE0119959A
:1029900012C0E881F9810284F385E02DCE011995FA
:1029A0000AC0E881F9810084F185E02DCE011995F6
:1029B00002C081E08C83CE01DF91CF9108950F9307
:1029C0001F93CF93DF938C01FB01DC0114968C9154
:1029D000811104C06081611117C023C0D801149611
:1029E0001C92EB01219664916623D9F0D801ED91F8
:1029F000FC910280F381E02DC8011995FE016491DC
:102A000021966111F3CF0DC0EF012196D801ED9110
:102A1000FC910280F381E02DC80119956991611143
:102A2000F5CFDF91CF911F910F910895DF92EF9233
:102A3000FF920F931F93CF93DF93CDB7DEB7A1978C
:102A4000CDBFDEBF8C01D42EE52EF62E972FF801D8
:102A50002281203121F0283011F0223071F4692FC9
:102A6000C8010E94B8136F2D0E94B8136E2D0E94EA
:102A7000B8136D2D0E94B8130FC030E0AE014F5F48
:102A80005F4F6D2D7E2D8F2D0E943F25BE016F5F04
:102A90007F4FC8010E94DF14C801A196CDBFDEBFE1
:102AA000DF91CF911F910F91FF90EF90DF900895EC
:102AB000FF920F931F93CF93DF93CDB7DEB761974C
:102AC000CDBFDEBF8C01F62E972FF8014281403139
:102AD00021F0483011F0423041F4692FC8010E94C2
:102AE000B8136F2D0E94B8130DC050E0BE016F5F88
:102AF0007F4F8F2D0E946C25BE016F5F7F4FC801F5
:102B00000E94DF14C8016196CDBFDEBFDF91CF9177
:102B10001F910F91FF9008958F929F92AF92BF9255
:102B2000CF92DF92EF92FF920F931F93CF93DF9399
:102B3000EC018B018A819B810E94CD1FBC01C801E1
:102B40000E94DF14D801ED91FC910280F381E02D09
:102B500069E0C80119958A819B810E94CD1FFC0103
:102B600001900020E9F73197E81BF90B389748F4FA
:102B7000D801ED91FC910280F381E02D69E0C8015C
:102B80001995CE84DF84E888F988A884B9848A817D
:102B90009B810E944023982E8C848A819B810E9475
:102BA000781F682FC8010E94B8136AE00E94981429
:102BB000EC016FEA77E00E94DF14682DCE010E94DD
:102BC000B8136AE00E949814EC016DEA77E00E9465
:102BD000DF14692DCE010E94B8136AE00E94981498
:102BE000EC016BEA77E00E94DF14B501CE010E9490
:102BF00058156AE00E949814EC0169EA77E00E9497
:102C0000DF146AE0CE010E949814EC0167EA77E0D5
:102C10000E94DF14B701A601CE010E941615DF91B4
:102C2000CF911F910F91FF90EF90DF90CF90BF90C9
:102C3000AF909F908F9008955F926F927F928F9246
:102C40009F92AF92BF92CF92DF92EF92FF920F933B
:102C50001F93CF93DF935C013B014A01122F502E4B
:102C600063E0CA010E949814A614B70408F07CC05F
:102C7000650184E1C80ED11C00E07501B501C401F5
:102C80000E9458156AE00E94981461EC77E00E9457
:102C9000DF14112309F46DC0002309F46AC06AE04F
:102CA000C4010E9498146CEB77E00E94DF1461C0AD
:102CB000112371F001110CC08881851549F06AE07B
:102CC000C4010E94981467EB77E00E94DF1401E0D2
:102CD0006991C4010E94B813DC01ED91FC9102805E
:102CE000F381E02D60E21995CC16DD0609F711237A
:102CF00089F06AE0C4010E949814EC0161EB77E06E
:102D00000E94DF14E881F9810280F381E02D60E206
:102D1000CE011995F70161917F0180EE860F8F3505
:102D200048F4D401ED91FC910280F381E02DC401BF
:102D3000199509C0D401ED91FC910280F381E02D39
:102D40006EE2C4011995CE14DF0421F7B4E1AB0E95
:102D5000B11C66E0C4010E949814E4E1CE0ED11CBF
:102D6000A614B70408F489CF62E0C4010E94981445
:102D700002C0E7019DCFDF91CF911F910F91FF908E
:102D8000EF90DF90CF90BF90AF909F908F907F900B
:102D90006F905F900895CF93DF93EC010FB6F89496
:102DA0000F9280912008909121088C839D830E942E
:102DB000BF1F688379838A839B830F900FBECE01E8
:102DC000DF91CF9108958F929F92AF92BF92EF9231
:102DD000FF920F931F93CF93DF93CDB7DEB72F975B
:102DE000CDBFDEBF8C017B01DB016D917D918D91AB
:102DF0009C910F2EF8EE8F2EF3E09F2EA12CB12C7C
:102E0000F02DA50194010E940624BA01A901C80170
:102E10000E941615D801ED91FC910280F381E02DFE
:102E20006EE2C8011995F7016081718182819381F9
:102E3000A50194010E9406249B01AC0160E472E4A8
:102E40008FE090E00E945029A50194010E94062481
:102E500049015A01F701A481B58120E432E44FE031
:102E600050E00E94692920E038E448EE51E00E94D9
:102E70000624C501B401620F731F841F951F7E01D4
:102E8000F7E0EF0EF11C9E012F5F3F4F59012AE042
:102E900030E040E050E00E94E723E62F28873987A2
:102EA0004A875B87688579858A859B8520E32E0F15
:102EB000D7012E937D01AA15BB0549F71F82BE01DC
:102EC0006F5F7F4FC8010E94DF14C8012F96CDBFEE
:102ED000DEBFDF91CF911F910F91FF90EF90BF90D8
:102EE000AF909F908F9008950F931F93CF93DF9390
:102EF000EC018B01E881F9810280F381E02D1995C5
:102F000066E0C8010E9498148C819D81009719F099
:102F1000B8010E947417DF91CF911F910F9108950E
:102F2000CF92DF92EF92FF920F931F93CF93DF9395
:102F3000EC017B018A819B810E94CD1F6C016AE0BC
:102F4000C7010E9498148C0162EA77E00E94DF14A6
:102F50006AE0C8010E9498148C016BE977E00E9436
:102F6000DF14B601C8010E94DF146AE0C8010E94A4
:102F700098148C0165E977E00E94DF1466E0C801CF
:102F80000E9498148A859B85E885F98501E121E0F6
:102F9000A701BC018E1B9F0B0E941C168C819D817A
:102FA000009719F0B7010E949017DF91CF911F9100
:102FB0000F91FF90EF90DF90CF9008954F925F9226
:102FC0006F927F928F929F92AF92BF92CF92DF9239
:102FD000EF92FF920F931F93CF93DF93CDB7DEB79E
:102FE0002A97CDBFDEBF4C01290138018AE790E264
:102FF000F40180839183FB018081882369F0DE01E5
:103000001196319690E002C0993039F09F5F8D9310
:1030100081918111F9CF01C090E0E1E0F0E0EC0F87
:10302000FD1FE90FF11D10827401F2E0EF0EF11C9B
:10303000A12CB12CC12CD12C042F9401A201BE01D2
:103040006F5F7F4F89E894E10E94761EF4016682EB
:1030500077824086518620917C2130917D21248386
:10306000358380927C2190927D2114861586409034
:10307000E8315090E931FFEF4F1A5F0A4092E83192
:103080005092E931F4014286538616861786108ADB
:10309000118A6114710409F444C0813079F56AE041
:1030A000C3010E9498147C016FE877E00E94DF144E
:1030B000BE016F5F7F4FC7010E94DF146AE0C70146
:1030C0000E9498147C0166E877E00E94DF146AE0B1
:1030D000C7010E9498147C0168E777E00E94DF1422
:1030E00063E0C7010E949814B2010E94581562E083
:1030F0000E94981466E00E94981413C06AE0C3010D
:103100000E9498144C0163E677E00E94DF14BE0130
:103110006F5F7F4FC4010E94DF1466E0C4010E940C
:1031200098142A96CDBFDEBFDF91CF911F910F91EA
:10313000FF90EF90DF90CF90BF90AF909F908F90D7
:103140007F906F905F904F9008950F931F93CF9350
:10315000DF93EC010E94B91F80917E2181111DC077
:10316000A3E8B1E2E7E8F1E2ED93FC931197129640
:103170001D921C921397AFE7B1E28FEF9FE012967A
:103180008D939C9313971D921C9211978283938326
:10319000A083B18381E080937E21209709F45FC0F2
:1031A0009E012B5F3F4F2496CE3FDF4008F05AC070
:1031B000E0918321F0918421A3E8B1E202C0DF0114
:1031C000FC01828193818217930720F48081918191
:1031D0000097A9F7C1E2EF37FC0709F446C0CD918B
:1031E000DC9111978E010B5F1F4F808191818D9330
:1031F0009C9382819381821B930B8B30910510F1FC
:10320000BF01620F731FDB0112968D939C9313977E
:103210002283338312964D915C91139783E891E258
:1032200001C0CD01EC01A881B98112962D913C918C
:10323000139724173507A8F3EB01A883B983DC01A2
:103240006D937C93809100209091012022813381A5
:10325000821B930B809300209093012008C000E014
:1032600010E005C000E010E002C000E010E00E94A5
:10327000DB20C801DF91CF911F910F9108950F932B
:103280001F93CF93DF93009741F1EC018C01055020
:1032900011090E94B91FF80142815381A3E8B1E2EC
:1032A00001C0DF01ED91FC91119722813381241738
:1032B0003507B8F32597E883F9830D931C93209184
:1032C0000020309101208A819B81820F931F80937F
:1032D0000020909301200E94DB20DF91CF911F916D
:1032E0000F91089580910020909101200895FC0194
:1032F0000396818392834FEF5FEFBA014383548338
:10330000658376838783908781879287108208956B
:10331000FC01128613860895CF93DF93FC01DB0135
:1033200021813281E9018C819D8114968D939C933A
:1033300015978181928116968D939C9317978C8116
:103340009D81EC016E837F83E9016C837D836183C2
:1033500072831A96ED93FC931B9780818F5F808315
:10336000DF91CF9108950F931F93CF93DF93EB01DC
:10337000088119812A813B810F3F4FEF14072407F1
:10338000340731F4DC011996ED91FC911A971FC0B6
:10339000FC013396DC0117964D915C911897DA0188
:1033A0004D915D916D917C910417150726073707A4
:1033B00070F00480F581E02DA481B5814D915D917F
:1033C0006D917C91041715072607370790F7A481A4
:1033D000B581AC83BD831696CD93DC931797EE83AE
:1033E000FF83C483D5838A879B87FC0120812F5F5D
:1033F0002083DF91CF911F910F910895FC01A4814B
:10340000B5818681978116968D939C931797A68197
:10341000B7818481958114968D939C931597A2858D
:10342000B38511968D919C911297E817F90731F4A5
:103430008681978111968D939C931297128613869D
:103440008C9181508C9308958093E8319093E93169
:1034500031E1FC013083319722E220833197A3E3ED
:10346000A0833197608331977083319710823197B1
:103470001082319760E86083319710823197108213
:1034800031971082319762E06083319763E0608307
:10349000319764E06083319765E06083319766E03F
:1034A0006083319767E06083319768E0608331978C
:1034B00069E06083319760E16083319730833197B1
:1034C00032E13083319733E13083319734E1308317
:1034D000319735E13083319736E13083319737E1E9
:1034E0003083319738E13083319739E13083319738
:1034F00030E23083319731E2308331972083319746
:1035000023E220833197408331975083319726E21D
:103510002083319727E22083319728E22083319757
:1035200029E22083319720E32083319721E3208310
:10353000899708958CE78093290A8FEF8093280A52
:1035400081E08093000A91E19093010A8093070A39
:10355000A091E631B091E731CD91CDBFDD91DEBFD5
:10356000FF91EF91DF91CF91BF91AF919F918F919B
:103570007F916F915F914F913F912F911F910F918B
:10358000FF90EF90DF90CF90BF90AF909F908F9083
:103590007F906F905F904F903F902F901F900F9073
:1035A0000CBE0F900BBE0F900FBE0F9008950895A4
:1035B0000F920FB6F8940F920BB60F920CB60F92B3
:1035C0001F9211242F923F924F925F926F927F929F
:1035D0008F929F92AF92BF92CF92DF92EF92FF9223
:1035E0000F931F932F933F934F935F936F937F930B
:1035F0008F939F93AF93BF93CF93DF93EF93FF93FB
:10360000A091E631B091E7310DB60D920EB60D9254
:103610000E94F821A091E631B091E731CD91CDBF64
:10362000DD91DEBFFF91EF91DF91CF91BF91AF911F
:103630009F918F917F916F915F914F913F912F91CA
:103640001F910F91FF90EF90DF90CF90BF90AF90C0
:103650009F908F907F906F905F904F903F902F90B2
:103660001F900F900CBE0F900BBE0F900FBE0F90CF
:1036700008950F920FB6F8940F920BB60F920CB6F6
:103680000F921F9211242F923F924F925F926F924E
:103690007F928F929F92AF92BF92CF92DF92EF92E2
:1036A000FF920F931F932F933F934F935F936F93CB
:1036B0007F938F939F93AF93BF93CF93DF93EF93BA
:1036C000FF93A091E631B091E7310DB60D920EB6A1
:1036D0000D920E94DA1F0E94F821A091E631B0916C
:1036E000E731CD91CDBFDD91DEBFFF91EF91DF914D
:1036F000CF91BF91AF919F918F917F916F915F918A
:103700004F913F912F911F910F91FF90EF90DF907C
:10371000CF90BF90AF909F908F907F906F905F9071
:103720004F903F902F901F900F900CBE0F900BBEAC
:103730000F900FBE0F9008950E94391B1895CF93DC
:10374000DF93EC0188A181110BC088819981892BBD
:10375000E1F58A819B810E94B3231A821B8235C0C6
:10376000411117C0482F50E08C819D810E94202577
:1037700028A18C819D81820F911D8C839D832A813C
:103780003B818217930708F1888199818C839D83FF
:103790001CC0482F50E08E819F810E94202588A167
:1037A00090E09195819591092E813F81280F391FD5
:1037B0002E833F83488159812417350730F42A81AD
:1037C0003B81820F931F8E839F838E8D8F5F8E8FA1
:1037D000DF91CF910895FC01808191810097A1F044
:1037E00040A150E026813781240F351F268337837F
:1037F000A281B3812A173B0710F086839783CB0100
:10380000668177810E94202508950F931F93CF939F
:10381000DF93EC010FB6F8940F928AA11816B4F456
:103820008B89811105C012C08B89811104C00EC023
:103830008E010D5E1F4FC8010E947F2281110E94E0
:103840003C238AA181508AA3181674F38FEF8AA3B0
:103850000F900FBE0FB6F8940F9289A11816B4F40A
:103860008885811105C012C08885811104C00EC0F1
:103870008E01085F1F4FC8010E947F2281110E94A4
:103880003C2389A1815089A3181674F38FEF89A373
:103890000F900FBEDF91CF911F910F9108951F934D
:1038A000CF93DF93613059F0FC01238930853111CA
:1038B0002CC011E0211110E0211128C001C011E03D
:1038C000EC014881598128A130E06F8D629FC001D1
:1038D000639F900D1124BA01680F791F6A837B835F
:1038E0001E8E4C835D83821B930B840F951F8E83EA
:1038F0009F838FEF89A38AA3CE0108960E94771930
:10390000CE0143960E94771901C010E0812FDF910C
:10391000CF911F9108950F931F93CF93DF93882327
:1039200001F1062F182F83E290E00E94A518EC0108
:10393000892BC9F0109FC001112401960E94A5187F
:1039400088839983892B39F01F8F08A361E0CE010A
:103950000E944F1C08C0CE010E943F19C0E0D0E079
:1039600002C0C0E0D0E0CE01DF91CF911F910F9156
:103970000895AF92BF92CF92DF92EF92FF920F9392
:103980001F93CF93DF93CDB7DEB72997CDBFDEBFAF
:103990007C015B012E833F834887598710E06C01CF
:1039A00088E0C80ED11C0FB6F8940F92F701968DDF
:1039B000878D9817A8F4402FB501C7010E949F1B5F
:1039C000F7018389882341F0C70143960E947F2233
:1039D000813011F40E94D81A0F900FBE81E056C0BA
:1039E0008E819F81A885B985892B8A2B8B2B21F409
:1039F0000F900FBE80E04AC0111105C0CE010196A4
:103A00000E94BE2211E00F900FBE0E94B91F0FB698
:103A1000F8940F92F70181A18F3F09F411A2F701E9
:103A200082A18F3F09F412A20F900FBEBE016A5F00
:103A30007F4FCE0101960E94CF22811121C00FB687
:103A4000F8940F92F701968D0F900FBE878D981303
:103A500011C04E815F8168857985C6010E9455221B
:103A6000C7010E94051C0E94DB2081119CCF0E948F
:103A7000D81A99CFC7010E94051C0E94DB2093CF62
:103A8000C7010E94051C0E94DB2080E02996CDBF63
:103A9000DEBFDF91CF911F910F91FF90EF90DF90EC
:103AA000CF90BF90AF900895AF92BF92CF92DF9228
:103AB000EF92FF920F931F93CF93DF93CDB7DEB7B3
:103AC0002997CDBFDEBF7C015B012E833F834887F2
:103AD000598710E06C0183E1C80ED11C0FB6F89431
:103AE0000F92F701868D882399F1C680D780B501A2
:103AF000C7010E94EB1B01111AC0F701868D81508E
:103B0000868F80819181892B29F40E945923F701A6
:103B100082839383F70180858823B1F0C7010896DB
:103B20000E947F22813081F40E94D81A0DC0F701D3
:103B3000C682D7828389882339F0C70143960E94C1
:103B40007F2281110E94D81A0F900FBE81E062C0BF
:103B50008E819F81A885B985892B8A2B8B2B21F497
:103B60000F900FBE80E056C0111105C0CE01019626
:103B70000E94BE2211E00F900FBE0E94B91F0FB627
:103B8000F8940F92F70181A18F3F09F411A2F70178
:103B900082A18F3F09F412A20F900FBEBE016A5F8F
:103BA0007F4FCE0101960E94CF2281112DC00FB60A
:103BB000F8940F92F701868D0F900FBE81111EC0F1
:103BC00080819181892B49F40FB6F8940F928281FC
:103BD00093810E945E230F900FBE4E815F816885A6
:103BE0007985C6010E945522C7010E94051C0E94CA
:103BF000DB20811173CF0E94D81A70CFC7010E94B9
:103C0000051C0E94DB206ACFC7010E94051C0E9490
:103C1000DB2080E02996CDBFDEBFDF91CF911F91E1
:103C20000F91FF90EF90DF90CF90BF90AF900895ED
:103C30000FB6F8940F92FC01868D0F900FBE089579
:103C4000CAEBD1E388818230E8F30E94D81AFACF18
:103C5000CF92DF92EF92FF926B017C01E091E6310F
:103C6000F091E731628373838483958380918E31F1
:103C700090918F31A0919031B0919131C816D906B1
:103C8000EA06FB0668F46091E6317091E7318091B5
:103C9000A0319091A1316E5F7F4F0E94B31921C076
:103CA0006091E6317091E7318091A2319091A3311A
:103CB0006E5F7F4F0E94B319809102209091032084
:103CC000A0910420B0910520C816D906EA06FB068B
:103CD00040F4C0920220D0920320E0920420F0929F
:103CE0000520FF90EF90DF90CF9008954F925F9264
:103CF0006F927F928F929F92AF92BF92CF92DF92FC
:103D0000EF92FF920F931F93CF93DF935C014B01D0
:103D10003A01290188E290E00E94A518EC01892B64
:103D200009F4D4C0C114D10409F0CCC0C3010E946D
:103D3000A5188B8F9C8F009721F4CE010E943F190C
:103D4000C5C0A30161E170E00E94292593012150C3
:103D500031098B8D9C8D3C01620E731E4AE050E050
:103D6000B401CE014D960E9430251EA2102F0430C2
:103D700008F013E01A8F1FA36E0122E0C20ED11CBF
:103D8000C6010E948819CE010E960E948819CA8722
:103D9000DB8784E090E0A0E0B0E0811B9109A109FD
:103DA000B1098E879F87A88BB98BCE8BDF8BA20141
:103DB000B501C3010E94241A88839983E114F10498
:103DC00019F0F701C083D1830FB6F8940F92809158
:103DD00092318F5F809392318091E6319091E731FB
:103DE000892B89F5C093E631D093E73180919231E8
:103DF0008130C1F58AEB91E30E94771985EC91E35C
:103E00000E94771980ED91E30E9477198BED91E381
:103E10000E9477198FEA91E30E94771984EA91E36F
:103E20000E94771985E991E30E9477198FEA91E35F
:103E30008093A2319093A33184EA91E38093A031DF
:103E40009093A1310FC080918B3181110BC0E09113
:103E5000E631F091E731828D081720F0C093E6310A
:103E6000D093E7318A8D90918D31981710F480931B
:103E70008D31909186319F5F9093863190918C31F6
:103E8000981710F480938C31FBE08F9FC0011124B0
:103E9000B60186549E4C0E948C190F900FBE8091E3
:103EA0008B31882359F0E091E631F091E731828D32
:103EB000801730F40E94D81A81E009C081E007C061
:103EC00081E005C0CB8EDC8EC6013BCF8FEFDF914A
:103ED000CF911F910F91FF90EF90DF90CF90BF9007
:103EE000AF909F908F907F906F905F904F900895CC
:103EF0000FB6F8940F92009721F48091E6319091DB
:103F0000E7310F900FBEFC01828D0895AF92BF92F2
:103F1000CF92DF92EF92FF920F93A12CB12CC12C84
:103F2000D12C0F2EF3E9EF2EF1E3FF2EF02D00E060
:103F300020E030E044E650E06FE271E280E29EE192
:103F40000E94761E813069F4F89480938B31109230
:103F50008E3110928F3110929031109291310E94D7
:103F60009A1A0F91FF90EF90DF90CF90BF90AF9093
:103F7000089580918A318F5F80938A3108950FB6BA
:103F8000F8940F9260918E3170918F3180919031C1
:103F9000909191310F900FBE0895009721F4809178
:103FA000E6319091E7314D9608958091933190914B
:103FB00094310895FF920F931F93CF93DF938091D5
:103FC0008A318111EDC080918E3190918F31A09115
:103FD0009031B09191310196A11DB11D80938E3128
:103FE00090938F31A0939031B093913180918E3125
:103FF00090918F31A0919031B0919131892B8A2B82
:104000008B2BF1F58091A2319091A3312091A031B9
:104010003091A1312093A2313093A3318093A0310C
:104020009093A131809187318F5F80938731E091A8
:10403000A231F091A331808181110CC08FEF9FEFED
:10404000DC018093022090930320A0930420B0937E
:10405000052016C0E091A231F091A3310780F085D0
:10406000E02D0084F185E02D82819381A481B581CA
:104070008093022090930320A0930420B093052006
:1040800040918E3150918F3160919031709191318A
:104090008091022090910320A0910420B0910520EE
:1040A000481759076A077B0708F47FC0E091A231DF
:1040B000F091A33180818823F9F0E091A231F09151
:1040C000A3310780F085E02DC085D1858A819B8151
:1040D000AC81BD8140918E3150918F316091903192
:1040E00070919131481759076A077B0758F10F2ED5
:1040F000FBE0FF2EF02D2FC08FEF9FEFDC018093B0
:10410000022090930320A0930420B09305204DC07B
:10411000E091A231F091A3310780F085E02DC085B8
:10412000D1858A819B81AC81BD8140918E31509136
:104130008F316091903170919131481759076A071A
:104140007B0748F48093022090930320A0930420DF
:10415000B09305202AC08E010E5F1F4FC8010E9438
:10416000FE19888D998D892B21F0CE010E960E9423
:10417000FE198A8D90918C31981710F480938C31B0
:10418000F89EC0011124B80186549E4C0E948C19DF
:10419000E091A231F091A33180818111B9CFACCFF0
:1041A000809189318F5F80938931DF91CF911F9109
:1041B0000F91FF900895CF92DF92EF92FF920F93AD
:1041C0001F93CF93DF930FB6F8940F9280918A31AB
:1041D000815080938A3180918A31811160C08091B1
:1041E000923181112CC05EC0D7011796ED91FC91E0
:1041F0001897C085D185CE010E960E94FE198E01BA
:104200000E5F1F4FC8010E94FE198A8D90918C315C
:10421000981710F480938C31D89EC0011124B801F6
:1042200086549E4C0E948C19E091E631F091E73162
:104230009A8D828D981770F0CC24C3940BC0C12C3A
:104240000F2EF5E9EF2EF1E3FF2EF02D0F2EFBE000
:10425000DF2EF02DF70180818111C6CF8091893149
:10426000882381F080918931882399F00E94DA1F98
:104270008091893181508093893180918931811178
:10428000F5CF07C0F1E0CF1621F080918831813061
:1042900041F4109288310E94D81A81E003C080E076
:1042A00001C080E00F900FBEDF91CF911F910F9161
:1042B000FF90EF90DF90CF900895CF92DF92EF9232
:1042C000FF92CF93DF93EC016A017B010E94B91F3B
:1042D00088819981AA81BB81C80ED91EEA1EFB1E66
:1042E00040918E3150918F31609190317091913128
:1042F000481759076A077B07B8F4C816D906EA06B3
:10430000FB06E0F580918E3190918F31A091903134
:10431000B0919131C882D982EA82FB828C159D05C9
:10432000AE05BF05F8F413C0C816D906EA06FB06A9
:1043300000F180918E3190918F31A0919031B091A8
:1043400091318C159D05AE05BF0598F017C0809181
:10435000E6319091E73102960E94FE19C701B6013D
:104360000E94281E0E94DB2081110DC00E94D81AD5
:104370000AC0C882D982EA82FB82E9CFC882D98288
:10438000EA82FB82EFCFDF91CF91FF90EF90DF9039
:10439000CF900895CF92DF92EF92FF926B017C0154
:1043A000672B682B692BE9F00E94B91F80918E3131
:1043B00090918F31A0919031B0919131C80ED91E5A
:1043C000EA1EFB1E8091E6319091E73102960E9431
:1043D000FE19C701B6010E94281E0E94DB20811130
:1043E00002C00E94D81AFF90EF90DF90CF900895FE
:1043F00080918A3181110CC0E0918C314BE0E49FB7
:10440000F0011124E654FE4C8081882329F014C069
:1044100081E08093883108959BE080918C318150B8
:1044200080938C31E0918C319E9FF0011124E654F1
:10443000FE4C8081882389F380918C31282F30E0D5
:104440004BE0849FC0011124DC01A654BE4C1196A0
:10445000ED91FC9112970480F581E02D1196ED937A
:10446000FC93129783549E4CE817F90761F48481FA
:1044700095814BE0429FF001439FF00D1124E654DB
:10448000FE4C818392838BE0829FF001839FF00D2D
:104490001124E654FE4C0180F281E02D8085918547
:1044A0008093E6319093E7310895CF92DF92EF92B7
:1044B000FF926A017B016091E6317091E731625FA2
:1044C0007F4F0E94B3198091E6319091E7310296B7
:1044D0000E94FE1980918E3190918F31A091903180
:1044E000B0919131BC01CD016C0D7D1D8E1D9F1DC4
:1044F0000E94281EFF90EF90DF90CF9008950F93B9
:104500001F93CF93DF93DC011796ED91FC911897E1
:10451000C085D1858E01025F1F4FC8010E94FE1920
:1045200080918A31811116C00C501109C8010E9476
:10453000FE198A8D90918C31981710F480938C31EC
:10454000BBE08B9FC0011124B80186549E4C0E9491
:104550008C1905C0B80185E991E30E948C19E0919E
:10456000E631F091E73181E02A8D928D291708F428
:1045700080E0DF91CF911F910F91089520918731B5
:10458000FC01208340918E3150918F3160919031A8
:1045900070919131418352836383748308958F9224
:1045A0009F92AF92BF92CF92DF92EF92FF920F93C2
:1045B0001F93CF93DF93FC010FB6F8940F92809175
:1045C00087319081981789F080918E3190918F3149
:1045D000A0919031B0919131018112812381348178
:1045E00080179107A207B307A8F580918E319091AB
:1045F0008F31A0919031B0919131C180D280E38010
:10460000F480EB01088119812A813B818C199D0975
:10461000AE09BF0980179107A207B307E8F4CF01DD
:1046200080908E3190908F31A0909031B0909131E8
:10463000B501A4014C195D096E097F09041B150B16
:10464000260B370B088319832A833B830E94BE22E3
:1046500080E003C081E001C081E00F900FBEDF91D8
:10466000CF911F910F91FF90EF90DF90CF90BF906F
:10467000AF909F908F90089581E080938831089546
:10468000009721F48091E6319091E731DC015B964F
:10469000ED91FC915C978081813141F4319680E00D
:1046A00090E0019621912131E1F3089580E090E0BE
:1046B00008958091E6319091E73108950F931F930B
:1046C000CF93DF93FC01228DA091E631B091E731C9
:1046D0005A968C91281708F041C0A091E631B0910C
:1046E000E7315A963C9184E090E0A0E0B0E0831B73
:1046F0009109A109B10986879787A08BB18B8BE0BF
:10470000289F9001112426543E4C8485958582175C
:104710009307E9F48F01EF012296CE010E94FE1962
:10472000E091E631F091E731828DF801828F90912E
:104730008C31981710F480938C31FBE08F9FC0016F
:104740001124BE0186549E4C0E948C1907C0A09172
:10475000E631B091E7315A968C91828FDF91CF91FB
:104760001F910F9108950F931F93CF93DF9300979D
:1047700049F1FC01328D27A1321721F1EC018C01A6
:104780000E5F1F4FC8010E94FE198FA18A8F44E05F
:1047900050E060E070E0481B5109610971094E87E3
:1047A0005F87688B798B90918C31981710F4809388
:1047B0008C31FBE08F9FC0011124B80186549E4CC0
:1047C0000E948C19DF91CF911F910F910895052EB2
:1047D00097FB1EF400940E94FE2357FD07D00E9411
:1047E000062407FC03D04EF40C94FE23509540950C
:1047F000309521953F4F4F4F5F4F0895909580958D
:10480000709561957F4F8F4F9F4F0895A1E21A2EAB
:10481000AA1BBB1BFD010DC0AA1FBB1FEE1FFF1F64
:10482000A217B307E407F50720F0A21BB30BE40BB4
:10483000F50B661F771F881F991F1A9469F76095FB
:104840007095809590959B01AC01BD01CF010895B5
:10485000EF920F931F93CF93DF93E80147FD02C0C0
:1048600034E001C034E1042E000C550B57FF03C0A7
:10487000519541955109E32E022F242FAE010E943C
:104880009125CE01DF91CF911F910F91EF90089567
:10489000283008F027E03327DA01990F311D87FD12
:1048A000916000966105710539F432602E5F3D9389
:1048B00030E32A95E1F708959F3F30F08038710585
:1048C000610509F03C5F3C5F3D93913008F08068E2
:1048D000911DDF93CF931F930F93FF92EF92192FA8
:1048E000987F9695E92F96959695E90FFF27EC52BC
:1048F000FC4F99273327EE24FF24A701E7010590F9
:104900000894079428F4360FE71EF81E491F511D1E
:10491000660F771F881F991F0694A1F705900794CB
:1049200028F4E70EF81E491F561FC11D770F881F78
:10493000991F661F0694A1F70590079428F4F80EB6
:10494000491F561FC71FD11D880F991F661F771F4C
:104950000694A1F70590079420F4490F561FC71F2E
:10496000D81F990F661F771F881F0694A9F7849197
:104970001095177041F0D695C79557954795F794C0
:10498000E7941A95C1F7EAE7F3E06894159015915A
:1049900035916591959105907FE27395E118F10A43
:1049A000430B560BC90BD009C0F7E10CF11E431F96
:1049B000561FC91FD01D7EF4703311F48A95E6CFBF
:1049C000E894015030F0080F0AF40027021708F4A9
:1049D000202F2395022F7A3328F079E37D932A95AF
:1049E000E9F710C07D932A9589F606949795679507
:1049F000379517951794E118F10A430B560BC90B1D
:104A0000D00998F023957E9173957A3308F070E37E
:104A10007C932013B8F77E9170617D9330F083957D
:104A200071E37D9370E32A95E1F71124EF90FF90F5
:104A30000F911F91CF91DF91992787FD9095089550
:104A4000FB01DC0102C001900D9241505040D8F7AB
:104A50000895DC0101C06D9341505040E0F7089586
:104A6000FB01DC014150504048F001900D920020C4
:104A7000C9F701C01D9241505040E0F7089525321A
:104A8000310520F4223010F00C944A25FA011082EE
:104A9000CA010895BB27FA01A62F62177105810587
:104AA0009105330B30FB66F0AA27660F771F881F2E
:104AB000991FAA1FA21710F0A21B63953850A9F7DF
:104AC000A05DAA3308F0A95DA19336F7B111B193A7
:104AD0001082CA010C9402274532510520F442305D
:104AE00010F00C947725FB011082CB010895BB27B1
:104AF000FB015527AA27880F991FAA1FA41710F09A
:104B0000A41B83955051B9F7A05DAA3308F0A95DA5
:104B1000A193009779F7B111B1931192CB010C9445
:104B200002278F929F92AF92BF92CF92DF92EF9225
:104B3000FF920F931F93CF93DF93CDB7DEB72997E3
:104B4000CDBFDEBF6A01122FB02E2BE3201720F05D
:104B5000FF24F394F00E02C02CE3F22E0F2D27E079
:104B6000AE014F5F5F4F0E944824BC014981842FF2
:104B70008970813031F0E1FC06C0E0FE06C090E2B1
:104B800005C09DE203C09BE201C090E05E2D507124
:104B900043FF3CC0911102C083E001C084E0811753
:104BA00018F4212F281B01C020E051110BC0F60181
:104BB000822F30E2882319F031938150FBCFC20E4F
:104BC000D11C20E0992329F0D6019C93F60131965F
:104BD0006F01C6010396E2FE0AC03EE4D6013C9393
:104BE00041E411964C93119712963C9306C03EE611
:104BF000F601308341E641833283FC01322F40E2EB
:104C0000332309F442C041933150FACF42FF44C0EC
:104C1000911102C083E001C084E0811718F4212FB4
:104C2000281B01C020E051110BC0F601822F30E299
:104C3000882319F031938150FBCFC20ED11C20E0A4
:104C4000992329F0D6019C93F60131966F01C60194
:104C50000396E2FE0BC039E4D6013C933EE4119684
:104C60003C93119736E412963C9307C039E6F6015F
:104C700030833EE6318336E63283FC01322F40E258
:104C8000332319F041933150FBCFFC01E20FF11DAA
:104C900010828EEF9FEFA6C021E030E0911102C09C
:104CA00020E030E0161617061CF4FB01319602C016
:104CB000E1E0F0E02E0F3F1FBB2021F0EB2DF0E0F4
:104CC000319602C0E0E0F0E02E0F3F1FE12FF0E050
:104CD0002E173F071CF4121B212F01C020E08E2D40
:104CE000887159F4F601822F30E2882319F031934C
:104CF0008150FBCFC20ED11C20E0992329F0D601B0
:104D00009C93F60131966F0151110BC0F601822F71
:104D100090E3882319F091938150FBCFC20ED11CF0
:104D200020E00F2D060F9A81342F307144FF03C00D
:104D3000913309F40150101624F4093018F008E0FA
:104D400001C001E0AB0177FF02C040E050E0FB0191
:104D5000E41BF50BA1E0B0E0AC0FBD1FEA0FFB1F99
:104D60008EE2A82E4B01801A91080B2D10E01195B0
:104D7000019511094F3FBFEF5B0721F4D601AC92BB
:104D800011966D01641775072CF08416950614F4BE
:104D9000818101C080E3415051093196D6011196BD
:104DA0007D014017510724F0D6018C936701E2CFB3
:104DB0006417750739F4963320F4953319F43111DB
:104DC00001C081E3F6018083F701822F90E28823FE
:104DD00019F091938150FBCFF701E20FF11D108282
:104DE00080E090E02996CDBFDEBFDF91CF911F918B
:104DF0000F91FF90EF90DF90CF90BF90AF909F907A
:104E00008F900895DC01FC01672F71917723E1F702
:104E1000329704C07C916D9370836291AE17BF0787
:104E2000C8F308955058BB27AA270E942A270C943C
:104E3000A4280E94962838F00E949D2820F039F47A
:104E40009F3F19F426F40C9493280EF4E095E7FBA9
:104E50000C948D28E92F0E94B52858F3BA176207E1
:104E600073078407950720F079F4A6F50C94D728EA
:104E70000EF4E0950B2EBA2FA02D0B01B901900175
:104E80000C01CA01A0011124FF27591B99F0593FB9
:104E900050F4503E68F11A16F040A22F232F342F01
:104EA0004427585FF3CF469537952795A795F0404F
:104EB0005395C9F77EF41F16BA0B620B730B840B64
:104EC000BAF09150A1F0FF0FBB1F661F771F881F1C
:104ED000C2F70EC0BA0F621F731F841F48F4879574
:104EE00077956795B795F7959E3F08F0B0CF939566
:104EF000880F08F09927EE0F9795879508950E94DF
:104F0000692808F481E008950E9498270C94A42849
:104F10000E949D2858F00E94962840F029F45F3F97
:104F200029F00C948D2851110C94D8280C949328B6
:104F30000E94B52868F39923B1F3552391F3951B8B
:104F4000550BBB27AA2762177307840738F09F5FAA
:104F50005F4F220F331F441FAA1FA9F335D00E2E17
:104F60003AF0E0E832D091505040E695001CCAF784
:104F70002BD0FE2F29D0660F771F881FBB1F261747
:104F800037074807AB07B0E809F0BB0B802DBF011E
:104F9000FF2793585F4F3AF09E3F510578F00C94ED
:104FA0008D280C94D8285F3FE4F3983ED4F386957F
:104FB00077956795B795F7959F5FC9F7880F911D0E
:104FC0009695879597F90895E1E0660F771F881FFA
:104FD000BB1F621773078407BA0720F0621B730BAD
:104FE000840BBA0BEE1F88F7E09508950E94FD2709
:104FF0006894B1110C94D82808950E94BD2888F0B7
:105000009F5798F0B92F9927B751B0F0E1F0660F8C
:10501000771F881F991F1AF0BA95C9F714C0B130CD
:1050200091F00E94D728B1E008950C94D728672FFB
:10503000782F8827B85F39F0B93FCCF386957795FC
:105040006795B395D9F73EF49095809570956195E5
:105050007F4F8F4F9F4F0895E89409C097FB3EF410
:1050600090958095709561957F4F8F4F9F4F9923B5
:10507000A9F0F92F96E9BB279395F6958795779533
:105080006795B795F111F8CFFAF4BB0F11F460FFF3
:105090001BC06F5F7F4F8F4F9F4F16C0882311F04B
:1050A00096E911C0772321F09EE8872F762F05C05F
:1050B000662371F096E8862F70E060E02AF09A95FA
:1050C000660F771F881FDAF7880F9695879597F9EF
:1050D0000895990F0008550FAA0BE0E8FEEF161689
:1050E0001706E807F907C0F012161306E407F507DC
:1050F00098F0621B730B840B950B39F40A2661F050
:10510000232B242B252B21F408950A2609F4A140F2
:10511000A6958FEF811D811D089597F99F6780E8FF
:1051200070E060E008959FEF80EC089500240A94F9
:105130001616170618060906089500240A94121672
:105140001306140605060895092E0394000C11F4A5
:10515000882352F0BB0F40F4BF2B11F460FF04C052
:105160006F5F7F4F8F4F9F4F089557FD9058440FAB
:10517000551F59F05F3F71F04795880F97FB991FB6
:1051800061F09F3F79F08795089512161306140673
:10519000551FF2CF4695F1DF08C016161706180600
:1051A000991FF1CF86957105610508940895E894DB
:1051B000BB2766277727CB0197F908950E946928B6
:1051C00008F48FEF08950E94F6280C94A4280E94FA
:1051D000962838F00E949D2820F0952311F00C9419
:1051E0008D280C94932811240C94D8280E94B5285B
:1051F00070F3959FC1F3950F50E0551F629FF0012A
:10520000729FBB27F00DB11D639FAA27F00DB11D42
:10521000AA1F649F6627B00DA11D661F829F2227CB
:10522000B00DA11D621F739FB00DA11D621F839F52
:10523000A00D611D221F749F3327A00D611D231F28
:10524000849F600D211D822F762F6A2F11249F5776
:1052500050409AF0F1F088234AF0EE0FFF1FBB1F79
:10526000661F771F881F91505040A9F79E3F510538
:1052700080F00C948D280C94D8285F3FE4F3983E7E
:10528000D4F3869577956795B795F795E7959F5FE2
:10529000C1F7FE2B880F911D9695879597F9089574
:1052A000DB018F939F930E946929BF91AF91A29FC9
:1052B000800D911DA39F900DB29F900D1124089514
:1052C000EE0FFF1F881F8BBF0790F691E02D1BBECE
:1052D00019940E947429A59F900DB49F900DA49FCE
:1052E000800D911D11240895A29FB001B39FC001AC
:1052F000A39F700D811D1124911DB29F700D811D02
:0A5300001124911D0895F894FFCFC9
:10530A00FF0FFFFFFFFF0000000000000000000089
:10531A00000000000000000000003F14A90F700FF9
:10532A00830F3914670F00000000FB048C1500007E
:10533A000000BE078C150000000024098C1500002F
:10534A000000180B8C15000000003F0A8C150000A5
:10535A000000A00A8C15000000003F1441143A1402
:10536A003C1439143814000000003F146B14601404
:10537A004214391438140000000041148C154C49A9
:10538A004D495420535749544348204849542045CD
:10539A0052524F52004F75747369646520416E67AB
:1053AA006C65205265636F7665727900783A2000E1
:1053BA002C2078646F743A20002C20616E676C652B
:1053CA003A20002C207468657461646F743A200076
:1053DA002C204D6F746F7220753A200046726565F5
:1053EA0052544F5320586D65676120546573746930
:1053FA006E672050726F6772616D005573657249EE
:10540A006E7400456E6350656E00456E634D74722E
:10541A00005379734374726C004D7472436D640067
:10542A004C6566745377005269676874537700490C
:04543A00444C450099
:00000001FF
